{
	"Voting.sol": {
		"Voting": {
			"abi": [
				{
					"inputs": [
						{
							"internalType": "string[]",
							"name": "_candidates",
							"type": "string[]"
						},
						{
							"internalType": "address",
							"name": "_registryAddress",
							"type": "address"
						},
						{
							"internalType": "address",
							"name": "_tallyAddress",
							"type": "address"
						}
					],
					"stateMutability": "nonpayable",
					"type": "constructor"
				},
				{
					"anonymous": false,
					"inputs": [],
					"name": "ElectionStarted",
					"type": "event"
				},
				{
					"anonymous": false,
					"inputs": [],
					"name": "ResultsPublished",
					"type": "event"
				},
				{
					"anonymous": false,
					"inputs": [
						{
							"indexed": false,
							"internalType": "address",
							"name": "voter",
							"type": "address"
						},
						{
							"indexed": false,
							"internalType": "string",
							"name": "candidate",
							"type": "string"
						}
					],
					"name": "VoteCasted",
					"type": "event"
				},
				{
					"inputs": [
						{
							"internalType": "uint256",
							"name": "",
							"type": "uint256"
						}
					],
					"name": "candidates",
					"outputs": [
						{
							"internalType": "string",
							"name": "",
							"type": "string"
						}
					],
					"stateMutability": "view",
					"type": "function"
				},
				{
					"inputs": [],
					"name": "electionStarted",
					"outputs": [
						{
							"internalType": "bool",
							"name": "",
							"type": "bool"
						}
					],
					"stateMutability": "view",
					"type": "function"
				},
				{
					"inputs": [],
					"name": "getAllCandidates",
					"outputs": [
						{
							"internalType": "string[]",
							"name": "",
							"type": "string[]"
						}
					],
					"stateMutability": "view",
					"type": "function"
				},
				{
					"inputs": [],
					"name": "owner",
					"outputs": [
						{
							"internalType": "address",
							"name": "",
							"type": "address"
						}
					],
					"stateMutability": "view",
					"type": "function"
				},
				{
					"inputs": [],
					"name": "publishResults",
					"outputs": [],
					"stateMutability": "nonpayable",
					"type": "function"
				},
				{
					"inputs": [],
					"name": "registry",
					"outputs": [
						{
							"internalType": "contract IVoterRegistry",
							"name": "",
							"type": "address"
						}
					],
					"stateMutability": "view",
					"type": "function"
				},
				{
					"inputs": [],
					"name": "resultsPublished",
					"outputs": [
						{
							"internalType": "bool",
							"name": "",
							"type": "bool"
						}
					],
					"stateMutability": "view",
					"type": "function"
				},
				{
					"inputs": [],
					"name": "startElection",
					"outputs": [],
					"stateMutability": "nonpayable",
					"type": "function"
				},
				{
					"inputs": [],
					"name": "tally",
					"outputs": [
						{
							"internalType": "contract ITally",
							"name": "",
							"type": "address"
						}
					],
					"stateMutability": "view",
					"type": "function"
				},
				{
					"inputs": [],
					"name": "tallyResultsPublished",
					"outputs": [
						{
							"internalType": "bool",
							"name": "",
							"type": "bool"
						}
					],
					"stateMutability": "view",
					"type": "function"
				},
				{
					"inputs": [
						{
							"internalType": "string",
							"name": "candidate",
							"type": "string"
						}
					],
					"name": "vote",
					"outputs": [],
					"stateMutability": "nonpayable",
					"type": "function"
				}
			],
			"devdoc": {
				"kind": "dev",
				"methods": {},
				"version": 1
			},
			"evm": {
				"assembly": "    /* \"Voting.sol\":406:2696  contract Voting {... */\n  mstore(0x40, 0x80)\n    /* \"Voting.sol\":1013:1294  constructor(... */\n  callvalue\n  dup1\n  iszero\n  tag_1\n  jumpi\n  0x00\n  dup1\n  revert\ntag_1:\n  pop\n  mload(0x40)\n  sub(codesize, bytecodeSize)\n  dup1\n  bytecodeSize\n  dup4\n  codecopy\n  dup2\n  dup2\n  add\n  0x40\n  mstore\n  dup2\n  add\n  swap1\n  tag_2\n  swap2\n  swap1\n  tag_3\n  jump\t// in\ntag_2:\n    /* \"Voting.sol\":1151:1161  msg.sender */\n  caller\n    /* \"Voting.sol\":1143:1148  owner */\n  0x00\n  dup1\n    /* \"Voting.sol\":1143:1161  owner = msg.sender */\n  0x0100\n  exp\n  dup2\n  sload\n  dup2\n  0xffffffffffffffffffffffffffffffffffffffff\n  mul\n  not\n  and\n  swap1\n  dup4\n  0xffffffffffffffffffffffffffffffffffffffff\n  and\n  mul\n  or\n  swap1\n  sstore\n  pop\n    /* \"Voting.sol\":1184:1195  _candidates */\n  dup3\n    /* \"Voting.sol\":1171:1181  candidates */\n  0x03\n    /* \"Voting.sol\":1171:1195  candidates = _candidates */\n  swap1\n  dup1\n  mload\n  swap1\n  0x20\n  add\n  swap1\n  tag_6\n  swap3\n  swap2\n  swap1\n  tag_7\n  jump\t// in\ntag_6:\n  pop\n    /* \"Voting.sol\":1231:1247  _registryAddress */\n  dup2\n    /* \"Voting.sol\":1205:1213  registry */\n  0x01\n  0x00\n    /* \"Voting.sol\":1205:1248  registry = IVoterRegistry(_registryAddress) */\n  0x0100\n  exp\n  dup2\n  sload\n  dup2\n  0xffffffffffffffffffffffffffffffffffffffff\n  mul\n  not\n  and\n  swap1\n  dup4\n  0xffffffffffffffffffffffffffffffffffffffff\n  and\n  mul\n  or\n  swap1\n  sstore\n  pop\n    /* \"Voting.sol\":1273:1286  _tallyAddress */\n  dup1\n    /* \"Voting.sol\":1258:1263  tally */\n  0x02\n  0x00\n    /* \"Voting.sol\":1258:1287  tally = ITally(_tallyAddress) */\n  0x0100\n  exp\n  dup2\n  sload\n  dup2\n  0xffffffffffffffffffffffffffffffffffffffff\n  mul\n  not\n  and\n  swap1\n  dup4\n  0xffffffffffffffffffffffffffffffffffffffff\n  and\n  mul\n  or\n  swap1\n  sstore\n  pop\n    /* \"Voting.sol\":1013:1294  constructor(... */\n  pop\n  pop\n  pop\n    /* \"Voting.sol\":406:2696  contract Voting {... */\n  jump(tag_8)\ntag_7:\n  dup3\n  dup1\n  sload\n  dup3\n  dup3\n  sstore\n  swap1\n  0x00\n  mstore\n  keccak256(0x00, 0x20)\n  swap1\n  dup2\n  add\n  swap3\n  dup3\n  iszero\n  tag_9\n  jumpi\n  swap2\n  0x20\n  mul\n  dup3\n  add\ntag_10:\n  dup3\n  dup2\n  gt\n  iszero\n  tag_11\n  jumpi\n  dup3\n  mload\n  dup3\n  swap1\n  dup2\n  tag_12\n  swap2\n  swap1\n  tag_13\n  jump\t// in\ntag_12:\n  pop\n  swap2\n  0x20\n  add\n  swap2\n  swap1\n  0x01\n  add\n  swap1\n  jump(tag_10)\ntag_11:\ntag_9:\n  pop\n  swap1\n  pop\n  tag_14\n  swap2\n  swap1\n  tag_15\n  jump\t// in\ntag_14:\n  pop\n  swap1\n  jump\t// out\ntag_15:\ntag_16:\n  dup1\n  dup3\n  gt\n  iszero\n  tag_17\n  jumpi\n  0x00\n  dup2\n  dup2\n  tag_18\n  swap2\n  swap1\n  tag_19\n  jump\t// in\ntag_18:\n  pop\n  0x01\n  add\n  jump(tag_16)\ntag_17:\n  pop\n  swap1\n  jump\t// out\ntag_19:\n  pop\n  dup1\n  sload\n  tag_20\n  swap1\n  tag_21\n  jump\t// in\ntag_20:\n  0x00\n  dup3\n  sstore\n  dup1\n  0x1f\n  lt\n  tag_23\n  jumpi\n  pop\n  jump(tag_22)\ntag_23:\n  0x1f\n  add\n  0x20\n  swap1\n  div\n  swap1\n  0x00\n  mstore\n  keccak256(0x00, 0x20)\n  swap1\n  dup2\n  add\n  swap1\n  tag_24\n  swap2\n  swap1\n  tag_25\n  jump\t// in\ntag_24:\ntag_22:\n  pop\n  jump\t// out\ntag_25:\ntag_26:\n  dup1\n  dup3\n  gt\n  iszero\n  tag_27\n  jumpi\n  0x00\n  dup2\n  0x00\n  swap1\n  sstore\n  pop\n  0x01\n  add\n  jump(tag_26)\ntag_27:\n  pop\n  swap1\n  jump\t// out\n    /* \"#utility.yul\":7:82   */\ntag_28:\n    /* \"#utility.yul\":40:46   */\n  0x00\n    /* \"#utility.yul\":73:75   */\n  0x40\n    /* \"#utility.yul\":67:76   */\n  mload\n    /* \"#utility.yul\":57:76   */\n  swap1\n  pop\n    /* \"#utility.yul\":7:82   */\n  swap1\n  jump\t// out\n    /* \"#utility.yul\":88:205   */\ntag_29:\n    /* \"#utility.yul\":197:198   */\n  0x00\n    /* \"#utility.yul\":194:195   */\n  dup1\n    /* \"#utility.yul\":187:199   */\n  revert\n    /* \"#utility.yul\":211:328   */\ntag_30:\n    /* \"#utility.yul\":320:321   */\n  0x00\n    /* \"#utility.yul\":317:318   */\n  dup1\n    /* \"#utility.yul\":310:322   */\n  revert\n    /* \"#utility.yul\":334:451   */\ntag_31:\n    /* \"#utility.yul\":443:444   */\n  0x00\n    /* \"#utility.yul\":440:441   */\n  dup1\n    /* \"#utility.yul\":433:445   */\n  revert\n    /* \"#utility.yul\":457:559   */\ntag_32:\n    /* \"#utility.yul\":498:504   */\n  0x00\n    /* \"#utility.yul\":549:551   */\n  0x1f\n    /* \"#utility.yul\":545:552   */\n  not\n    /* \"#utility.yul\":540:542   */\n  0x1f\n    /* \"#utility.yul\":533:538   */\n  dup4\n    /* \"#utility.yul\":529:543   */\n  add\n    /* \"#utility.yul\":525:553   */\n  and\n    /* \"#utility.yul\":515:553   */\n  swap1\n  pop\n    /* \"#utility.yul\":457:559   */\n  swap2\n  swap1\n  pop\n  jump\t// out\n    /* \"#utility.yul\":565:745   */\ntag_33:\n    /* \"#utility.yul\":613:690   */\n  0x4e487b7100000000000000000000000000000000000000000000000000000000\n    /* \"#utility.yul\":610:611   */\n  0x00\n    /* \"#utility.yul\":603:691   */\n  mstore\n    /* \"#utility.yul\":710:714   */\n  0x41\n    /* \"#utility.yul\":707:708   */\n  0x04\n    /* \"#utility.yul\":700:715   */\n  mstore\n    /* \"#utility.yul\":734:738   */\n  0x24\n    /* \"#utility.yul\":731:732   */\n  0x00\n    /* \"#utility.yul\":724:739   */\n  revert\n    /* \"#utility.yul\":751:1032   */\ntag_34:\n    /* \"#utility.yul\":834:861   */\n  tag_75\n    /* \"#utility.yul\":856:860   */\n  dup3\n    /* \"#utility.yul\":834:861   */\n  tag_32\n  jump\t// in\ntag_75:\n    /* \"#utility.yul\":826:832   */\n  dup2\n    /* \"#utility.yul\":822:862   */\n  add\n    /* \"#utility.yul\":964:970   */\n  dup2\n    /* \"#utility.yul\":952:962   */\n  dup2\n    /* \"#utility.yul\":949:971   */\n  lt\n    /* \"#utility.yul\":928:946   */\n  0xffffffffffffffff\n    /* \"#utility.yul\":916:926   */\n  dup3\n    /* \"#utility.yul\":913:947   */\n  gt\n    /* \"#utility.yul\":910:972   */\n  or\n    /* \"#utility.yul\":907:995   */\n  iszero\n  tag_76\n  jumpi\n    /* \"#utility.yul\":975:993   */\n  tag_77\n  tag_33\n  jump\t// in\ntag_77:\n    /* \"#utility.yul\":907:995   */\ntag_76:\n    /* \"#utility.yul\":1015:1025   */\n  dup1\n    /* \"#utility.yul\":1011:1013   */\n  0x40\n    /* \"#utility.yul\":1004:1026   */\n  mstore\n    /* \"#utility.yul\":794:1032   */\n  pop\n    /* \"#utility.yul\":751:1032   */\n  pop\n  pop\n  jump\t// out\n    /* \"#utility.yul\":1038:1167   */\ntag_35:\n    /* \"#utility.yul\":1072:1078   */\n  0x00\n    /* \"#utility.yul\":1099:1119   */\n  tag_79\n  tag_28\n  jump\t// in\ntag_79:\n    /* \"#utility.yul\":1089:1119   */\n  swap1\n  pop\n    /* \"#utility.yul\":1128:1161   */\n  tag_80\n    /* \"#utility.yul\":1156:1160   */\n  dup3\n    /* \"#utility.yul\":1148:1154   */\n  dup3\n    /* \"#utility.yul\":1128:1161   */\n  tag_34\n  jump\t// in\ntag_80:\n    /* \"#utility.yul\":1038:1167   */\n  swap2\n  swap1\n  pop\n  jump\t// out\n    /* \"#utility.yul\":1173:1494   */\ntag_36:\n    /* \"#utility.yul\":1260:1264   */\n  0x00\n    /* \"#utility.yul\":1350:1368   */\n  0xffffffffffffffff\n    /* \"#utility.yul\":1342:1348   */\n  dup3\n    /* \"#utility.yul\":1339:1369   */\n  gt\n    /* \"#utility.yul\":1336:1392   */\n  iszero\n  tag_82\n  jumpi\n    /* \"#utility.yul\":1372:1390   */\n  tag_83\n  tag_33\n  jump\t// in\ntag_83:\n    /* \"#utility.yul\":1336:1392   */\ntag_82:\n    /* \"#utility.yul\":1422:1426   */\n  0x20\n    /* \"#utility.yul\":1414:1420   */\n  dup3\n    /* \"#utility.yul\":1410:1427   */\n  mul\n    /* \"#utility.yul\":1402:1427   */\n  swap1\n  pop\n    /* \"#utility.yul\":1482:1486   */\n  0x20\n    /* \"#utility.yul\":1476:1480   */\n  dup2\n    /* \"#utility.yul\":1472:1487   */\n  add\n    /* \"#utility.yul\":1464:1487   */\n  swap1\n  pop\n    /* \"#utility.yul\":1173:1494   */\n  swap2\n  swap1\n  pop\n  jump\t// out\n    /* \"#utility.yul\":1500:1617   */\ntag_37:\n    /* \"#utility.yul\":1609:1610   */\n  0x00\n    /* \"#utility.yul\":1606:1607   */\n  dup1\n    /* \"#utility.yul\":1599:1611   */\n  revert\n    /* \"#utility.yul\":1623:1740   */\ntag_38:\n    /* \"#utility.yul\":1732:1733   */\n  0x00\n    /* \"#utility.yul\":1729:1730   */\n  dup1\n    /* \"#utility.yul\":1722:1734   */\n  revert\n    /* \"#utility.yul\":1746:2054   */\ntag_39:\n    /* \"#utility.yul\":1808:1812   */\n  0x00\n    /* \"#utility.yul\":1898:1916   */\n  0xffffffffffffffff\n    /* \"#utility.yul\":1890:1896   */\n  dup3\n    /* \"#utility.yul\":1887:1917   */\n  gt\n    /* \"#utility.yul\":1884:1940   */\n  iszero\n  tag_87\n  jumpi\n    /* \"#utility.yul\":1920:1938   */\n  tag_88\n  tag_33\n  jump\t// in\ntag_88:\n    /* \"#utility.yul\":1884:1940   */\ntag_87:\n    /* \"#utility.yul\":1958:1987   */\n  tag_89\n    /* \"#utility.yul\":1980:1986   */\n  dup3\n    /* \"#utility.yul\":1958:1987   */\n  tag_32\n  jump\t// in\ntag_89:\n    /* \"#utility.yul\":1950:1987   */\n  swap1\n  pop\n    /* \"#utility.yul\":2042:2046   */\n  0x20\n    /* \"#utility.yul\":2036:2040   */\n  dup2\n    /* \"#utility.yul\":2032:2047   */\n  add\n    /* \"#utility.yul\":2024:2047   */\n  swap1\n  pop\n    /* \"#utility.yul\":1746:2054   */\n  swap2\n  swap1\n  pop\n  jump\t// out\n    /* \"#utility.yul\":2060:2306   */\ntag_40:\n    /* \"#utility.yul\":2141:2142   */\n  0x00\n    /* \"#utility.yul\":2151:2264   */\ntag_91:\n    /* \"#utility.yul\":2165:2171   */\n  dup4\n    /* \"#utility.yul\":2162:2163   */\n  dup2\n    /* \"#utility.yul\":2159:2172   */\n  lt\n    /* \"#utility.yul\":2151:2264   */\n  iszero\n  tag_93\n  jumpi\n    /* \"#utility.yul\":2250:2251   */\n  dup1\n    /* \"#utility.yul\":2245:2248   */\n  dup3\n    /* \"#utility.yul\":2241:2252   */\n  add\n    /* \"#utility.yul\":2235:2253   */\n  mload\n    /* \"#utility.yul\":2231:2232   */\n  dup2\n    /* \"#utility.yul\":2226:2229   */\n  dup5\n    /* \"#utility.yul\":2222:2233   */\n  add\n    /* \"#utility.yul\":2215:2254   */\n  mstore\n    /* \"#utility.yul\":2187:2189   */\n  0x20\n    /* \"#utility.yul\":2184:2185   */\n  dup2\n    /* \"#utility.yul\":2180:2190   */\n  add\n    /* \"#utility.yul\":2175:2190   */\n  swap1\n  pop\n    /* \"#utility.yul\":2151:2264   */\n  jump(tag_91)\ntag_93:\n    /* \"#utility.yul\":2298:2299   */\n  0x00\n    /* \"#utility.yul\":2289:2295   */\n  dup5\n    /* \"#utility.yul\":2284:2287   */\n  dup5\n    /* \"#utility.yul\":2280:2296   */\n  add\n    /* \"#utility.yul\":2273:2300   */\n  mstore\n    /* \"#utility.yul\":2122:2306   */\n  pop\n    /* \"#utility.yul\":2060:2306   */\n  pop\n  pop\n  pop\n  jump\t// out\n    /* \"#utility.yul\":2312:2746   */\ntag_41:\n    /* \"#utility.yul\":2401:2406   */\n  0x00\n    /* \"#utility.yul\":2426:2492   */\n  tag_95\n    /* \"#utility.yul\":2442:2491   */\n  tag_96\n    /* \"#utility.yul\":2484:2490   */\n  dup5\n    /* \"#utility.yul\":2442:2491   */\n  tag_39\n  jump\t// in\ntag_96:\n    /* \"#utility.yul\":2426:2492   */\n  tag_35\n  jump\t// in\ntag_95:\n    /* \"#utility.yul\":2417:2492   */\n  swap1\n  pop\n    /* \"#utility.yul\":2515:2521   */\n  dup3\n    /* \"#utility.yul\":2508:2513   */\n  dup2\n    /* \"#utility.yul\":2501:2522   */\n  mstore\n    /* \"#utility.yul\":2553:2557   */\n  0x20\n    /* \"#utility.yul\":2546:2551   */\n  dup2\n    /* \"#utility.yul\":2542:2558   */\n  add\n    /* \"#utility.yul\":2591:2594   */\n  dup5\n    /* \"#utility.yul\":2582:2588   */\n  dup5\n    /* \"#utility.yul\":2577:2580   */\n  dup5\n    /* \"#utility.yul\":2573:2589   */\n  add\n    /* \"#utility.yul\":2570:2595   */\n  gt\n    /* \"#utility.yul\":2567:2679   */\n  iszero\n  tag_97\n  jumpi\n    /* \"#utility.yul\":2598:2677   */\n  tag_98\n  tag_38\n  jump\t// in\ntag_98:\n    /* \"#utility.yul\":2567:2679   */\ntag_97:\n    /* \"#utility.yul\":2688:2740   */\n  tag_99\n    /* \"#utility.yul\":2733:2739   */\n  dup5\n    /* \"#utility.yul\":2728:2731   */\n  dup3\n    /* \"#utility.yul\":2723:2726   */\n  dup6\n    /* \"#utility.yul\":2688:2740   */\n  tag_40\n  jump\t// in\ntag_99:\n    /* \"#utility.yul\":2407:2746   */\n  pop\n    /* \"#utility.yul\":2312:2746   */\n  swap4\n  swap3\n  pop\n  pop\n  pop\n  jump\t// out\n    /* \"#utility.yul\":2766:3121   */\ntag_42:\n    /* \"#utility.yul\":2833:2838   */\n  0x00\n    /* \"#utility.yul\":2882:2885   */\n  dup3\n    /* \"#utility.yul\":2875:2879   */\n  0x1f\n    /* \"#utility.yul\":2867:2873   */\n  dup4\n    /* \"#utility.yul\":2863:2880   */\n  add\n    /* \"#utility.yul\":2859:2886   */\n  slt\n    /* \"#utility.yul\":2849:2971   */\n  tag_101\n  jumpi\n    /* \"#utility.yul\":2890:2969   */\n  tag_102\n  tag_31\n  jump\t// in\ntag_102:\n    /* \"#utility.yul\":2849:2971   */\ntag_101:\n    /* \"#utility.yul\":3000:3006   */\n  dup2\n    /* \"#utility.yul\":2994:3007   */\n  mload\n    /* \"#utility.yul\":3025:3115   */\n  tag_103\n    /* \"#utility.yul\":3111:3114   */\n  dup5\n    /* \"#utility.yul\":3103:3109   */\n  dup3\n    /* \"#utility.yul\":3096:3100   */\n  0x20\n    /* \"#utility.yul\":3088:3094   */\n  dup7\n    /* \"#utility.yul\":3084:3101   */\n  add\n    /* \"#utility.yul\":3025:3115   */\n  tag_41\n  jump\t// in\ntag_103:\n    /* \"#utility.yul\":3016:3115   */\n  swap2\n  pop\n    /* \"#utility.yul\":2839:3121   */\n  pop\n    /* \"#utility.yul\":2766:3121   */\n  swap3\n  swap2\n  pop\n  pop\n  jump\t// out\n    /* \"#utility.yul\":3143:4103   */\ntag_43:\n    /* \"#utility.yul\":3260:3265   */\n  0x00\n    /* \"#utility.yul\":3285:3376   */\n  tag_105\n    /* \"#utility.yul\":3301:3375   */\n  tag_106\n    /* \"#utility.yul\":3368:3374   */\n  dup5\n    /* \"#utility.yul\":3301:3375   */\n  tag_36\n  jump\t// in\ntag_106:\n    /* \"#utility.yul\":3285:3376   */\n  tag_35\n  jump\t// in\ntag_105:\n    /* \"#utility.yul\":3276:3376   */\n  swap1\n  pop\n    /* \"#utility.yul\":3396:3401   */\n  dup1\n    /* \"#utility.yul\":3425:3431   */\n  dup4\n    /* \"#utility.yul\":3418:3423   */\n  dup3\n    /* \"#utility.yul\":3411:3432   */\n  mstore\n    /* \"#utility.yul\":3459:3463   */\n  0x20\n    /* \"#utility.yul\":3452:3457   */\n  dup3\n    /* \"#utility.yul\":3448:3464   */\n  add\n    /* \"#utility.yul\":3441:3464   */\n  swap1\n  pop\n    /* \"#utility.yul\":3512:3516   */\n  0x20\n    /* \"#utility.yul\":3504:3510   */\n  dup5\n    /* \"#utility.yul\":3500:3517   */\n  mul\n    /* \"#utility.yul\":3492:3498   */\n  dup4\n    /* \"#utility.yul\":3488:3518   */\n  add\n    /* \"#utility.yul\":3541:3544   */\n  dup6\n    /* \"#utility.yul\":3533:3539   */\n  dup2\n    /* \"#utility.yul\":3530:3545   */\n  gt\n    /* \"#utility.yul\":3527:3649   */\n  iszero\n  tag_107\n  jumpi\n    /* \"#utility.yul\":3560:3639   */\n  tag_108\n  tag_37\n  jump\t// in\ntag_108:\n    /* \"#utility.yul\":3527:3649   */\ntag_107:\n    /* \"#utility.yul\":3675:3681   */\n  dup4\n    /* \"#utility.yul\":3658:4097   */\ntag_109:\n    /* \"#utility.yul\":3692:3698   */\n  dup2\n    /* \"#utility.yul\":3687:3690   */\n  dup2\n    /* \"#utility.yul\":3684:3699   */\n  lt\n    /* \"#utility.yul\":3658:4097   */\n  iszero\n  tag_111\n  jumpi\n    /* \"#utility.yul\":3774:3777   */\n  dup1\n    /* \"#utility.yul\":3768:3778   */\n  mload\n    /* \"#utility.yul\":3810:3828   */\n  0xffffffffffffffff\n    /* \"#utility.yul\":3797:3808   */\n  dup2\n    /* \"#utility.yul\":3794:3829   */\n  gt\n    /* \"#utility.yul\":3791:3913   */\n  iszero\n  tag_112\n  jumpi\n    /* \"#utility.yul\":3832:3911   */\n  tag_113\n  tag_31\n  jump\t// in\ntag_113:\n    /* \"#utility.yul\":3791:3913   */\ntag_112:\n    /* \"#utility.yul\":3956:3967   */\n  dup1\n    /* \"#utility.yul\":3948:3954   */\n  dup7\n    /* \"#utility.yul\":3944:3968   */\n  add\n    /* \"#utility.yul\":3994:4052   */\n  tag_114\n    /* \"#utility.yul\":4048:4051   */\n  dup10\n    /* \"#utility.yul\":4036:4046   */\n  dup3\n    /* \"#utility.yul\":3994:4052   */\n  tag_42\n  jump\t// in\ntag_114:\n    /* \"#utility.yul\":3989:3992   */\n  dup6\n    /* \"#utility.yul\":3982:4053   */\n  mstore\n    /* \"#utility.yul\":4082:4086   */\n  0x20\n    /* \"#utility.yul\":4077:4080   */\n  dup6\n    /* \"#utility.yul\":4073:4087   */\n  add\n    /* \"#utility.yul\":4066:4087   */\n  swap5\n  pop\n    /* \"#utility.yul\":3734:4097   */\n  pop\n  pop\n    /* \"#utility.yul\":3718:3722   */\n  0x20\n    /* \"#utility.yul\":3713:3716   */\n  dup2\n    /* \"#utility.yul\":3709:3723   */\n  add\n    /* \"#utility.yul\":3702:3723   */\n  swap1\n  pop\n    /* \"#utility.yul\":3658:4097   */\n  jump(tag_109)\ntag_111:\n    /* \"#utility.yul\":3662:3683   */\n  pop\n    /* \"#utility.yul\":3266:4103   */\n  pop\n  pop\n    /* \"#utility.yul\":3143:4103   */\n  swap4\n  swap3\n  pop\n  pop\n  pop\n  jump\t// out\n    /* \"#utility.yul\":4125:4530   */\ntag_44:\n    /* \"#utility.yul\":4217:4222   */\n  0x00\n    /* \"#utility.yul\":4266:4269   */\n  dup3\n    /* \"#utility.yul\":4259:4263   */\n  0x1f\n    /* \"#utility.yul\":4251:4257   */\n  dup4\n    /* \"#utility.yul\":4247:4264   */\n  add\n    /* \"#utility.yul\":4243:4270   */\n  slt\n    /* \"#utility.yul\":4233:4355   */\n  tag_116\n  jumpi\n    /* \"#utility.yul\":4274:4353   */\n  tag_117\n  tag_31\n  jump\t// in\ntag_117:\n    /* \"#utility.yul\":4233:4355   */\ntag_116:\n    /* \"#utility.yul\":4384:4390   */\n  dup2\n    /* \"#utility.yul\":4378:4391   */\n  mload\n    /* \"#utility.yul\":4409:4524   */\n  tag_118\n    /* \"#utility.yul\":4520:4523   */\n  dup5\n    /* \"#utility.yul\":4512:4518   */\n  dup3\n    /* \"#utility.yul\":4505:4509   */\n  0x20\n    /* \"#utility.yul\":4497:4503   */\n  dup7\n    /* \"#utility.yul\":4493:4510   */\n  add\n    /* \"#utility.yul\":4409:4524   */\n  tag_43\n  jump\t// in\ntag_118:\n    /* \"#utility.yul\":4400:4524   */\n  swap2\n  pop\n    /* \"#utility.yul\":4223:4530   */\n  pop\n    /* \"#utility.yul\":4125:4530   */\n  swap3\n  swap2\n  pop\n  pop\n  jump\t// out\n    /* \"#utility.yul\":4536:4662   */\ntag_45:\n    /* \"#utility.yul\":4573:4580   */\n  0x00\n    /* \"#utility.yul\":4613:4655   */\n  0xffffffffffffffffffffffffffffffffffffffff\n    /* \"#utility.yul\":4606:4611   */\n  dup3\n    /* \"#utility.yul\":4602:4656   */\n  and\n    /* \"#utility.yul\":4591:4656   */\n  swap1\n  pop\n    /* \"#utility.yul\":4536:4662   */\n  swap2\n  swap1\n  pop\n  jump\t// out\n    /* \"#utility.yul\":4668:4764   */\ntag_46:\n    /* \"#utility.yul\":4705:4712   */\n  0x00\n    /* \"#utility.yul\":4734:4758   */\n  tag_121\n    /* \"#utility.yul\":4752:4757   */\n  dup3\n    /* \"#utility.yul\":4734:4758   */\n  tag_45\n  jump\t// in\ntag_121:\n    /* \"#utility.yul\":4723:4758   */\n  swap1\n  pop\n    /* \"#utility.yul\":4668:4764   */\n  swap2\n  swap1\n  pop\n  jump\t// out\n    /* \"#utility.yul\":4770:4892   */\ntag_47:\n    /* \"#utility.yul\":4843:4867   */\n  tag_123\n    /* \"#utility.yul\":4861:4866   */\n  dup2\n    /* \"#utility.yul\":4843:4867   */\n  tag_46\n  jump\t// in\ntag_123:\n    /* \"#utility.yul\":4836:4841   */\n  dup2\n    /* \"#utility.yul\":4833:4868   */\n  eq\n    /* \"#utility.yul\":4823:4886   */\n  tag_124\n  jumpi\n    /* \"#utility.yul\":4882:4883   */\n  0x00\n    /* \"#utility.yul\":4879:4880   */\n  dup1\n    /* \"#utility.yul\":4872:4884   */\n  revert\n    /* \"#utility.yul\":4823:4886   */\ntag_124:\n    /* \"#utility.yul\":4770:4892   */\n  pop\n  jump\t// out\n    /* \"#utility.yul\":4898:5041   */\ntag_48:\n    /* \"#utility.yul\":4955:4960   */\n  0x00\n    /* \"#utility.yul\":4986:4992   */\n  dup2\n    /* \"#utility.yul\":4980:4993   */\n  mload\n    /* \"#utility.yul\":4971:4993   */\n  swap1\n  pop\n    /* \"#utility.yul\":5002:5035   */\n  tag_126\n    /* \"#utility.yul\":5029:5034   */\n  dup2\n    /* \"#utility.yul\":5002:5035   */\n  tag_47\n  jump\t// in\ntag_126:\n    /* \"#utility.yul\":4898:5041   */\n  swap3\n  swap2\n  pop\n  pop\n  jump\t// out\n    /* \"#utility.yul\":5047:5933   */\ntag_3:\n    /* \"#utility.yul\":5170:5176   */\n  0x00\n    /* \"#utility.yul\":5178:5184   */\n  dup1\n    /* \"#utility.yul\":5186:5192   */\n  0x00\n    /* \"#utility.yul\":5235:5237   */\n  0x60\n    /* \"#utility.yul\":5223:5232   */\n  dup5\n    /* \"#utility.yul\":5214:5221   */\n  dup7\n    /* \"#utility.yul\":5210:5233   */\n  sub\n    /* \"#utility.yul\":5206:5238   */\n  slt\n    /* \"#utility.yul\":5203:5322   */\n  iszero\n  tag_128\n  jumpi\n    /* \"#utility.yul\":5241:5320   */\n  tag_129\n  tag_29\n  jump\t// in\ntag_129:\n    /* \"#utility.yul\":5203:5322   */\ntag_128:\n    /* \"#utility.yul\":5382:5383   */\n  0x00\n    /* \"#utility.yul\":5371:5380   */\n  dup5\n    /* \"#utility.yul\":5367:5384   */\n  add\n    /* \"#utility.yul\":5361:5385   */\n  mload\n    /* \"#utility.yul\":5412:5430   */\n  0xffffffffffffffff\n    /* \"#utility.yul\":5404:5410   */\n  dup2\n    /* \"#utility.yul\":5401:5431   */\n  gt\n    /* \"#utility.yul\":5398:5515   */\n  iszero\n  tag_130\n  jumpi\n    /* \"#utility.yul\":5434:5513   */\n  tag_131\n  tag_30\n  jump\t// in\ntag_131:\n    /* \"#utility.yul\":5398:5515   */\ntag_130:\n    /* \"#utility.yul\":5539:5638   */\n  tag_132\n    /* \"#utility.yul\":5630:5637   */\n  dup7\n    /* \"#utility.yul\":5621:5627   */\n  dup3\n    /* \"#utility.yul\":5610:5619   */\n  dup8\n    /* \"#utility.yul\":5606:5628   */\n  add\n    /* \"#utility.yul\":5539:5638   */\n  tag_44\n  jump\t// in\ntag_132:\n    /* \"#utility.yul\":5529:5638   */\n  swap4\n  pop\n    /* \"#utility.yul\":5332:5648   */\n  pop\n    /* \"#utility.yul\":5687:5689   */\n  0x20\n    /* \"#utility.yul\":5713:5777   */\n  tag_133\n    /* \"#utility.yul\":5769:5776   */\n  dup7\n    /* \"#utility.yul\":5760:5766   */\n  dup3\n    /* \"#utility.yul\":5749:5758   */\n  dup8\n    /* \"#utility.yul\":5745:5767   */\n  add\n    /* \"#utility.yul\":5713:5777   */\n  tag_48\n  jump\t// in\ntag_133:\n    /* \"#utility.yul\":5703:5777   */\n  swap3\n  pop\n    /* \"#utility.yul\":5658:5787   */\n  pop\n    /* \"#utility.yul\":5826:5828   */\n  0x40\n    /* \"#utility.yul\":5852:5916   */\n  tag_134\n    /* \"#utility.yul\":5908:5915   */\n  dup7\n    /* \"#utility.yul\":5899:5905   */\n  dup3\n    /* \"#utility.yul\":5888:5897   */\n  dup8\n    /* \"#utility.yul\":5884:5906   */\n  add\n    /* \"#utility.yul\":5852:5916   */\n  tag_48\n  jump\t// in\ntag_134:\n    /* \"#utility.yul\":5842:5916   */\n  swap2\n  pop\n    /* \"#utility.yul\":5797:5926   */\n  pop\n    /* \"#utility.yul\":5047:5933   */\n  swap3\n  pop\n  swap3\n  pop\n  swap3\n  jump\t// out\n    /* \"#utility.yul\":5939:6038   */\ntag_49:\n    /* \"#utility.yul\":5991:5997   */\n  0x00\n    /* \"#utility.yul\":6025:6030   */\n  dup2\n    /* \"#utility.yul\":6019:6031   */\n  mload\n    /* \"#utility.yul\":6009:6031   */\n  swap1\n  pop\n    /* \"#utility.yul\":5939:6038   */\n  swap2\n  swap1\n  pop\n  jump\t// out\n    /* \"#utility.yul\":6044:6224   */\ntag_50:\n    /* \"#utility.yul\":6092:6169   */\n  0x4e487b7100000000000000000000000000000000000000000000000000000000\n    /* \"#utility.yul\":6089:6090   */\n  0x00\n    /* \"#utility.yul\":6082:6170   */\n  mstore\n    /* \"#utility.yul\":6189:6193   */\n  0x22\n    /* \"#utility.yul\":6186:6187   */\n  0x04\n    /* \"#utility.yul\":6179:6194   */\n  mstore\n    /* \"#utility.yul\":6213:6217   */\n  0x24\n    /* \"#utility.yul\":6210:6211   */\n  0x00\n    /* \"#utility.yul\":6203:6218   */\n  revert\n    /* \"#utility.yul\":6230:6550   */\ntag_21:\n    /* \"#utility.yul\":6274:6280   */\n  0x00\n    /* \"#utility.yul\":6311:6312   */\n  0x02\n    /* \"#utility.yul\":6305:6309   */\n  dup3\n    /* \"#utility.yul\":6301:6313   */\n  div\n    /* \"#utility.yul\":6291:6313   */\n  swap1\n  pop\n    /* \"#utility.yul\":6358:6359   */\n  0x01\n    /* \"#utility.yul\":6352:6356   */\n  dup3\n    /* \"#utility.yul\":6348:6360   */\n  and\n    /* \"#utility.yul\":6379:6397   */\n  dup1\n    /* \"#utility.yul\":6369:6450   */\n  tag_138\n  jumpi\n    /* \"#utility.yul\":6435:6439   */\n  0x7f\n    /* \"#utility.yul\":6427:6433   */\n  dup3\n    /* \"#utility.yul\":6423:6440   */\n  and\n    /* \"#utility.yul\":6413:6440   */\n  swap2\n  pop\n    /* \"#utility.yul\":6369:6450   */\ntag_138:\n    /* \"#utility.yul\":6497:6499   */\n  0x20\n    /* \"#utility.yul\":6489:6495   */\n  dup3\n    /* \"#utility.yul\":6486:6500   */\n  lt\n    /* \"#utility.yul\":6466:6484   */\n  dup2\n    /* \"#utility.yul\":6463:6501   */\n  sub\n    /* \"#utility.yul\":6460:6544   */\n  tag_139\n  jumpi\n    /* \"#utility.yul\":6516:6534   */\n  tag_140\n  tag_50\n  jump\t// in\ntag_140:\n    /* \"#utility.yul\":6460:6544   */\ntag_139:\n    /* \"#utility.yul\":6281:6550   */\n  pop\n    /* \"#utility.yul\":6230:6550   */\n  swap2\n  swap1\n  pop\n  jump\t// out\n    /* \"#utility.yul\":6556:6697   */\ntag_51:\n    /* \"#utility.yul\":6605:6609   */\n  0x00\n    /* \"#utility.yul\":6628:6631   */\n  dup2\n    /* \"#utility.yul\":6620:6631   */\n  swap1\n  pop\n    /* \"#utility.yul\":6651:6654   */\n  dup2\n    /* \"#utility.yul\":6648:6649   */\n  0x00\n    /* \"#utility.yul\":6641:6655   */\n  mstore\n    /* \"#utility.yul\":6685:6689   */\n  0x20\n    /* \"#utility.yul\":6682:6683   */\n  0x00\n    /* \"#utility.yul\":6672:6690   */\n  keccak256\n    /* \"#utility.yul\":6664:6690   */\n  swap1\n  pop\n    /* \"#utility.yul\":6556:6697   */\n  swap2\n  swap1\n  pop\n  jump\t// out\n    /* \"#utility.yul\":6703:6796   */\ntag_52:\n    /* \"#utility.yul\":6740:6746   */\n  0x00\n    /* \"#utility.yul\":6787:6789   */\n  0x20\n    /* \"#utility.yul\":6782:6784   */\n  0x1f\n    /* \"#utility.yul\":6775:6780   */\n  dup4\n    /* \"#utility.yul\":6771:6785   */\n  add\n    /* \"#utility.yul\":6767:6790   */\n  div\n    /* \"#utility.yul\":6757:6790   */\n  swap1\n  pop\n    /* \"#utility.yul\":6703:6796   */\n  swap2\n  swap1\n  pop\n  jump\t// out\n    /* \"#utility.yul\":6802:6909   */\ntag_53:\n    /* \"#utility.yul\":6846:6854   */\n  0x00\n    /* \"#utility.yul\":6896:6901   */\n  dup3\n    /* \"#utility.yul\":6890:6894   */\n  dup3\n    /* \"#utility.yul\":6886:6902   */\n  shl\n    /* \"#utility.yul\":6865:6902   */\n  swap1\n  pop\n    /* \"#utility.yul\":6802:6909   */\n  swap3\n  swap2\n  pop\n  pop\n  jump\t// out\n    /* \"#utility.yul\":6915:7308   */\ntag_54:\n    /* \"#utility.yul\":6984:6990   */\n  0x00\n    /* \"#utility.yul\":7034:7035   */\n  0x08\n    /* \"#utility.yul\":7022:7032   */\n  dup4\n    /* \"#utility.yul\":7018:7036   */\n  mul\n    /* \"#utility.yul\":7057:7154   */\n  tag_145\n    /* \"#utility.yul\":7087:7153   */\n  0xffffffffffffffffffffffffffffffffffffffffffffffffffffffffffffffff\n    /* \"#utility.yul\":7076:7085   */\n  dup3\n    /* \"#utility.yul\":7057:7154   */\n  tag_53\n  jump\t// in\ntag_145:\n    /* \"#utility.yul\":7175:7214   */\n  tag_146\n    /* \"#utility.yul\":7205:7213   */\n  dup7\n    /* \"#utility.yul\":7194:7203   */\n  dup4\n    /* \"#utility.yul\":7175:7214   */\n  tag_53\n  jump\t// in\ntag_146:\n    /* \"#utility.yul\":7163:7214   */\n  swap6\n  pop\n    /* \"#utility.yul\":7247:7251   */\n  dup1\n    /* \"#utility.yul\":7243:7252   */\n  not\n    /* \"#utility.yul\":7236:7241   */\n  dup5\n    /* \"#utility.yul\":7232:7253   */\n  and\n    /* \"#utility.yul\":7223:7253   */\n  swap4\n  pop\n    /* \"#utility.yul\":7296:7300   */\n  dup1\n    /* \"#utility.yul\":7286:7294   */\n  dup7\n    /* \"#utility.yul\":7282:7301   */\n  and\n    /* \"#utility.yul\":7275:7280   */\n  dup5\n    /* \"#utility.yul\":7272:7302   */\n  or\n    /* \"#utility.yul\":7262:7302   */\n  swap3\n  pop\n    /* \"#utility.yul\":6991:7308   */\n  pop\n  pop\n    /* \"#utility.yul\":6915:7308   */\n  swap4\n  swap3\n  pop\n  pop\n  pop\n  jump\t// out\n    /* \"#utility.yul\":7314:7391   */\ntag_55:\n    /* \"#utility.yul\":7351:7358   */\n  0x00\n    /* \"#utility.yul\":7380:7385   */\n  dup2\n    /* \"#utility.yul\":7369:7385   */\n  swap1\n  pop\n    /* \"#utility.yul\":7314:7391   */\n  swap2\n  swap1\n  pop\n  jump\t// out\n    /* \"#utility.yul\":7397:7457   */\ntag_56:\n    /* \"#utility.yul\":7425:7428   */\n  0x00\n    /* \"#utility.yul\":7446:7451   */\n  dup2\n    /* \"#utility.yul\":7439:7451   */\n  swap1\n  pop\n    /* \"#utility.yul\":7397:7457   */\n  swap2\n  swap1\n  pop\n  jump\t// out\n    /* \"#utility.yul\":7463:7605   */\ntag_57:\n    /* \"#utility.yul\":7513:7522   */\n  0x00\n    /* \"#utility.yul\":7546:7599   */\n  tag_150\n    /* \"#utility.yul\":7564:7598   */\n  tag_151\n    /* \"#utility.yul\":7573:7597   */\n  tag_152\n    /* \"#utility.yul\":7591:7596   */\n  dup5\n    /* \"#utility.yul\":7573:7597   */\n  tag_55\n  jump\t// in\ntag_152:\n    /* \"#utility.yul\":7564:7598   */\n  tag_56\n  jump\t// in\ntag_151:\n    /* \"#utility.yul\":7546:7599   */\n  tag_55\n  jump\t// in\ntag_150:\n    /* \"#utility.yul\":7533:7599   */\n  swap1\n  pop\n    /* \"#utility.yul\":7463:7605   */\n  swap2\n  swap1\n  pop\n  jump\t// out\n    /* \"#utility.yul\":7611:7686   */\ntag_58:\n    /* \"#utility.yul\":7654:7657   */\n  0x00\n    /* \"#utility.yul\":7675:7680   */\n  dup2\n    /* \"#utility.yul\":7668:7680   */\n  swap1\n  pop\n    /* \"#utility.yul\":7611:7686   */\n  swap2\n  swap1\n  pop\n  jump\t// out\n    /* \"#utility.yul\":7692:7961   */\ntag_59:\n    /* \"#utility.yul\":7802:7841   */\n  tag_155\n    /* \"#utility.yul\":7833:7840   */\n  dup4\n    /* \"#utility.yul\":7802:7841   */\n  tag_57\n  jump\t// in\ntag_155:\n    /* \"#utility.yul\":7863:7954   */\n  tag_156\n    /* \"#utility.yul\":7912:7953   */\n  tag_157\n    /* \"#utility.yul\":7936:7952   */\n  dup3\n    /* \"#utility.yul\":7912:7953   */\n  tag_58\n  jump\t// in\ntag_157:\n    /* \"#utility.yul\":7904:7910   */\n  dup5\n    /* \"#utility.yul\":7897:7901   */\n  dup5\n    /* \"#utility.yul\":7891:7902   */\n  sload\n    /* \"#utility.yul\":7863:7954   */\n  tag_54\n  jump\t// in\ntag_156:\n    /* \"#utility.yul\":7857:7861   */\n  dup3\n    /* \"#utility.yul\":7850:7955   */\n  sstore\n    /* \"#utility.yul\":7768:7961   */\n  pop\n    /* \"#utility.yul\":7692:7961   */\n  pop\n  pop\n  pop\n  jump\t// out\n    /* \"#utility.yul\":7967:8040   */\ntag_60:\n    /* \"#utility.yul\":8012:8015   */\n  0x00\n    /* \"#utility.yul\":7967:8040   */\n  swap1\n  jump\t// out\n    /* \"#utility.yul\":8046:8235   */\ntag_61:\n    /* \"#utility.yul\":8123:8155   */\n  tag_160\n  tag_60\n  jump\t// in\ntag_160:\n    /* \"#utility.yul\":8164:8229   */\n  tag_161\n    /* \"#utility.yul\":8222:8228   */\n  dup2\n    /* \"#utility.yul\":8214:8220   */\n  dup5\n    /* \"#utility.yul\":8208:8212   */\n  dup5\n    /* \"#utility.yul\":8164:8229   */\n  tag_59\n  jump\t// in\ntag_161:\n    /* \"#utility.yul\":8099:8235   */\n  pop\n    /* \"#utility.yul\":8046:8235   */\n  pop\n  pop\n  jump\t// out\n    /* \"#utility.yul\":8241:8427   */\ntag_62:\n    /* \"#utility.yul\":8301:8421   */\ntag_163:\n    /* \"#utility.yul\":8318:8321   */\n  dup2\n    /* \"#utility.yul\":8311:8316   */\n  dup2\n    /* \"#utility.yul\":8308:8322   */\n  lt\n    /* \"#utility.yul\":8301:8421   */\n  iszero\n  tag_165\n  jumpi\n    /* \"#utility.yul\":8372:8411   */\n  tag_166\n    /* \"#utility.yul\":8409:8410   */\n  0x00\n    /* \"#utility.yul\":8402:8407   */\n  dup3\n    /* \"#utility.yul\":8372:8411   */\n  tag_61\n  jump\t// in\ntag_166:\n    /* \"#utility.yul\":8345:8346   */\n  0x01\n    /* \"#utility.yul\":8338:8343   */\n  dup2\n    /* \"#utility.yul\":8334:8347   */\n  add\n    /* \"#utility.yul\":8325:8347   */\n  swap1\n  pop\n    /* \"#utility.yul\":8301:8421   */\n  jump(tag_163)\ntag_165:\n    /* \"#utility.yul\":8241:8427   */\n  pop\n  pop\n  jump\t// out\n    /* \"#utility.yul\":8433:8976   */\ntag_63:\n    /* \"#utility.yul\":8534:8536   */\n  0x1f\n    /* \"#utility.yul\":8529:8532   */\n  dup3\n    /* \"#utility.yul\":8526:8537   */\n  gt\n    /* \"#utility.yul\":8523:8969   */\n  iszero\n  tag_168\n  jumpi\n    /* \"#utility.yul\":8568:8606   */\n  tag_169\n    /* \"#utility.yul\":8600:8605   */\n  dup2\n    /* \"#utility.yul\":8568:8606   */\n  tag_51\n  jump\t// in\ntag_169:\n    /* \"#utility.yul\":8652:8681   */\n  tag_170\n    /* \"#utility.yul\":8670:8680   */\n  dup5\n    /* \"#utility.yul\":8652:8681   */\n  tag_52\n  jump\t// in\ntag_170:\n    /* \"#utility.yul\":8642:8650   */\n  dup2\n    /* \"#utility.yul\":8638:8682   */\n  add\n    /* \"#utility.yul\":8835:8837   */\n  0x20\n    /* \"#utility.yul\":8823:8833   */\n  dup6\n    /* \"#utility.yul\":8820:8838   */\n  lt\n    /* \"#utility.yul\":8817:8866   */\n  iszero\n  tag_171\n  jumpi\n    /* \"#utility.yul\":8856:8864   */\n  dup2\n    /* \"#utility.yul\":8841:8864   */\n  swap1\n  pop\n    /* \"#utility.yul\":8817:8866   */\ntag_171:\n    /* \"#utility.yul\":8879:8959   */\n  tag_172\n    /* \"#utility.yul\":8935:8957   */\n  tag_173\n    /* \"#utility.yul\":8953:8956   */\n  dup6\n    /* \"#utility.yul\":8935:8957   */\n  tag_52\n  jump\t// in\ntag_173:\n    /* \"#utility.yul\":8925:8933   */\n  dup4\n    /* \"#utility.yul\":8921:8958   */\n  add\n    /* \"#utility.yul\":8908:8919   */\n  dup3\n    /* \"#utility.yul\":8879:8959   */\n  tag_62\n  jump\t// in\ntag_172:\n    /* \"#utility.yul\":8538:8969   */\n  pop\n  pop\n    /* \"#utility.yul\":8523:8969   */\ntag_168:\n    /* \"#utility.yul\":8433:8976   */\n  pop\n  pop\n  pop\n  jump\t// out\n    /* \"#utility.yul\":8982:9099   */\ntag_64:\n    /* \"#utility.yul\":9036:9044   */\n  0x00\n    /* \"#utility.yul\":9086:9091   */\n  dup3\n    /* \"#utility.yul\":9080:9084   */\n  dup3\n    /* \"#utility.yul\":9076:9092   */\n  shr\n    /* \"#utility.yul\":9055:9092   */\n  swap1\n  pop\n    /* \"#utility.yul\":8982:9099   */\n  swap3\n  swap2\n  pop\n  pop\n  jump\t// out\n    /* \"#utility.yul\":9105:9274   */\ntag_65:\n    /* \"#utility.yul\":9149:9155   */\n  0x00\n    /* \"#utility.yul\":9182:9233   */\n  tag_176\n    /* \"#utility.yul\":9230:9231   */\n  0x00\n    /* \"#utility.yul\":9226:9232   */\n  not\n    /* \"#utility.yul\":9218:9223   */\n  dup5\n    /* \"#utility.yul\":9215:9216   */\n  0x08\n    /* \"#utility.yul\":9211:9224   */\n  mul\n    /* \"#utility.yul\":9182:9233   */\n  tag_64\n  jump\t// in\ntag_176:\n    /* \"#utility.yul\":9178:9234   */\n  not\n    /* \"#utility.yul\":9263:9267   */\n  dup1\n    /* \"#utility.yul\":9257:9261   */\n  dup4\n    /* \"#utility.yul\":9253:9268   */\n  and\n    /* \"#utility.yul\":9243:9268   */\n  swap2\n  pop\n    /* \"#utility.yul\":9156:9274   */\n  pop\n    /* \"#utility.yul\":9105:9274   */\n  swap3\n  swap2\n  pop\n  pop\n  jump\t// out\n    /* \"#utility.yul\":9279:9574   */\ntag_66:\n    /* \"#utility.yul\":9355:9359   */\n  0x00\n    /* \"#utility.yul\":9501:9530   */\n  tag_178\n    /* \"#utility.yul\":9526:9529   */\n  dup4\n    /* \"#utility.yul\":9520:9524   */\n  dup4\n    /* \"#utility.yul\":9501:9530   */\n  tag_65\n  jump\t// in\ntag_178:\n    /* \"#utility.yul\":9493:9530   */\n  swap2\n  pop\n    /* \"#utility.yul\":9563:9566   */\n  dup3\n    /* \"#utility.yul\":9560:9561   */\n  0x02\n    /* \"#utility.yul\":9556:9567   */\n  mul\n    /* \"#utility.yul\":9550:9554   */\n  dup3\n    /* \"#utility.yul\":9547:9568   */\n  or\n    /* \"#utility.yul\":9539:9568   */\n  swap1\n  pop\n    /* \"#utility.yul\":9279:9574   */\n  swap3\n  swap2\n  pop\n  pop\n  jump\t// out\n    /* \"#utility.yul\":9579:10974   */\ntag_13:\n    /* \"#utility.yul\":9696:9733   */\n  tag_180\n    /* \"#utility.yul\":9729:9732   */\n  dup3\n    /* \"#utility.yul\":9696:9733   */\n  tag_49\n  jump\t// in\ntag_180:\n    /* \"#utility.yul\":9798:9816   */\n  0xffffffffffffffff\n    /* \"#utility.yul\":9790:9796   */\n  dup2\n    /* \"#utility.yul\":9787:9817   */\n  gt\n    /* \"#utility.yul\":9784:9840   */\n  iszero\n  tag_181\n  jumpi\n    /* \"#utility.yul\":9820:9838   */\n  tag_182\n  tag_33\n  jump\t// in\ntag_182:\n    /* \"#utility.yul\":9784:9840   */\ntag_181:\n    /* \"#utility.yul\":9864:9902   */\n  tag_183\n    /* \"#utility.yul\":9896:9900   */\n  dup3\n    /* \"#utility.yul\":9890:9901   */\n  sload\n    /* \"#utility.yul\":9864:9902   */\n  tag_21\n  jump\t// in\ntag_183:\n    /* \"#utility.yul\":9949:10016   */\n  tag_184\n    /* \"#utility.yul\":10009:10015   */\n  dup3\n    /* \"#utility.yul\":10001:10007   */\n  dup3\n    /* \"#utility.yul\":9995:9999   */\n  dup6\n    /* \"#utility.yul\":9949:10016   */\n  tag_63\n  jump\t// in\ntag_184:\n    /* \"#utility.yul\":10043:10044   */\n  0x00\n    /* \"#utility.yul\":10067:10071   */\n  0x20\n    /* \"#utility.yul\":10054:10071   */\n  swap1\n  pop\n    /* \"#utility.yul\":10099:10101   */\n  0x1f\n    /* \"#utility.yul\":10091:10097   */\n  dup4\n    /* \"#utility.yul\":10088:10102   */\n  gt\n    /* \"#utility.yul\":10116:10117   */\n  0x01\n    /* \"#utility.yul\":10111:10729   */\n  dup2\n  eq\n  tag_186\n  jumpi\n    /* \"#utility.yul\":10773:10774   */\n  0x00\n    /* \"#utility.yul\":10790:10796   */\n  dup5\n    /* \"#utility.yul\":10787:10864   */\n  iszero\n  tag_187\n  jumpi\n    /* \"#utility.yul\":10839:10848   */\n  dup3\n    /* \"#utility.yul\":10834:10837   */\n  dup8\n    /* \"#utility.yul\":10830:10849   */\n  add\n    /* \"#utility.yul\":10824:10850   */\n  mload\n    /* \"#utility.yul\":10815:10850   */\n  swap1\n  pop\n    /* \"#utility.yul\":10787:10864   */\ntag_187:\n    /* \"#utility.yul\":10890:10957   */\n  tag_188\n    /* \"#utility.yul\":10950:10956   */\n  dup6\n    /* \"#utility.yul\":10943:10948   */\n  dup3\n    /* \"#utility.yul\":10890:10957   */\n  tag_66\n  jump\t// in\ntag_188:\n    /* \"#utility.yul\":10884:10888   */\n  dup7\n    /* \"#utility.yul\":10877:10958   */\n  sstore\n    /* \"#utility.yul\":10746:10968   */\n  pop\n    /* \"#utility.yul\":10081:10968   */\n  jump(tag_185)\n    /* \"#utility.yul\":10111:10729   */\ntag_186:\n    /* \"#utility.yul\":10163:10167   */\n  0x1f\n    /* \"#utility.yul\":10159:10168   */\n  not\n    /* \"#utility.yul\":10151:10157   */\n  dup5\n    /* \"#utility.yul\":10147:10169   */\n  and\n    /* \"#utility.yul\":10197:10234   */\n  tag_189\n    /* \"#utility.yul\":10229:10233   */\n  dup7\n    /* \"#utility.yul\":10197:10234   */\n  tag_51\n  jump\t// in\ntag_189:\n    /* \"#utility.yul\":10256:10257   */\n  0x00\n    /* \"#utility.yul\":10270:10478   */\ntag_190:\n    /* \"#utility.yul\":10284:10291   */\n  dup3\n    /* \"#utility.yul\":10281:10282   */\n  dup2\n    /* \"#utility.yul\":10278:10292   */\n  lt\n    /* \"#utility.yul\":10270:10478   */\n  iszero\n  tag_192\n  jumpi\n    /* \"#utility.yul\":10363:10372   */\n  dup5\n    /* \"#utility.yul\":10358:10361   */\n  dup10\n    /* \"#utility.yul\":10354:10373   */\n  add\n    /* \"#utility.yul\":10348:10374   */\n  mload\n    /* \"#utility.yul\":10340:10346   */\n  dup3\n    /* \"#utility.yul\":10333:10375   */\n  sstore\n    /* \"#utility.yul\":10414:10415   */\n  0x01\n    /* \"#utility.yul\":10406:10412   */\n  dup3\n    /* \"#utility.yul\":10402:10416   */\n  add\n    /* \"#utility.yul\":10392:10416   */\n  swap2\n  pop\n    /* \"#utility.yul\":10461:10463   */\n  0x20\n    /* \"#utility.yul\":10450:10459   */\n  dup6\n    /* \"#utility.yul\":10446:10464   */\n  add\n    /* \"#utility.yul\":10433:10464   */\n  swap5\n  pop\n    /* \"#utility.yul\":10307:10311   */\n  0x20\n    /* \"#utility.yul\":10304:10305   */\n  dup2\n    /* \"#utility.yul\":10300:10312   */\n  add\n    /* \"#utility.yul\":10295:10312   */\n  swap1\n  pop\n    /* \"#utility.yul\":10270:10478   */\n  jump(tag_190)\ntag_192:\n    /* \"#utility.yul\":10506:10512   */\n  dup7\n    /* \"#utility.yul\":10497:10504   */\n  dup4\n    /* \"#utility.yul\":10494:10513   */\n  lt\n    /* \"#utility.yul\":10491:10670   */\n  iszero\n  tag_193\n  jumpi\n    /* \"#utility.yul\":10564:10573   */\n  dup5\n    /* \"#utility.yul\":10559:10562   */\n  dup10\n    /* \"#utility.yul\":10555:10574   */\n  add\n    /* \"#utility.yul\":10549:10575   */\n  mload\n    /* \"#utility.yul\":10607:10655   */\n  tag_194\n    /* \"#utility.yul\":10649:10653   */\n  0x1f\n    /* \"#utility.yul\":10641:10647   */\n  dup10\n    /* \"#utility.yul\":10637:10654   */\n  and\n    /* \"#utility.yul\":10626:10635   */\n  dup3\n    /* \"#utility.yul\":10607:10655   */\n  tag_65\n  jump\t// in\ntag_194:\n    /* \"#utility.yul\":10599:10605   */\n  dup4\n    /* \"#utility.yul\":10592:10656   */\n  sstore\n    /* \"#utility.yul\":10514:10670   */\n  pop\n    /* \"#utility.yul\":10491:10670   */\ntag_193:\n    /* \"#utility.yul\":10716:10717   */\n  0x01\n    /* \"#utility.yul\":10712:10713   */\n  0x02\n    /* \"#utility.yul\":10704:10710   */\n  dup9\n    /* \"#utility.yul\":10700:10714   */\n  mul\n    /* \"#utility.yul\":10696:10718   */\n  add\n    /* \"#utility.yul\":10690:10694   */\n  dup9\n    /* \"#utility.yul\":10683:10719   */\n  sstore\n    /* \"#utility.yul\":10118:10729   */\n  pop\n  pop\n  pop\n    /* \"#utility.yul\":10081:10968   */\ntag_185:\n  pop\n    /* \"#utility.yul\":9671:10974   */\n  pop\n  pop\n  pop\n    /* \"#utility.yul\":9579:10974   */\n  pop\n  pop\n  jump\t// out\n    /* \"Voting.sol\":406:2696  contract Voting {... */\ntag_8:\n  dataSize(sub_0)\n  dup1\n  dataOffset(sub_0)\n  0x00\n  codecopy\n  0x00\n  return\nstop\n\nsub_0: assembly {\n        /* \"Voting.sol\":406:2696  contract Voting {... */\n      mstore(0x40, 0x80)\n      callvalue\n      dup1\n      iszero\n      tag_1\n      jumpi\n      0x00\n      dup1\n      revert\n    tag_1:\n      pop\n      jumpi(tag_2, lt(calldatasize, 0x04))\n      shr(0xe0, calldataload(0x00))\n      dup1\n      0x62d73eb8\n      gt\n      tag_14\n      jumpi\n      dup1\n      0x62d73eb8\n      eq\n      tag_8\n      jumpi\n      dup1\n      0x7b103999\n      eq\n      tag_9\n      jumpi\n      dup1\n      0x8da5cb5b\n      eq\n      tag_10\n      jumpi\n      dup1\n      0xb952e7d8\n      eq\n      tag_11\n      jumpi\n      dup1\n      0xd5346da1\n      eq\n      tag_12\n      jumpi\n      dup1\n      0xfc36e15b\n      eq\n      tag_13\n      jumpi\n      jump(tag_2)\n    tag_14:\n      dup1\n      0x12f4acec\n      eq\n      tag_3\n      jumpi\n      dup1\n      0x2e6997fe\n      eq\n      tag_4\n      jumpi\n      dup1\n      0x3477ee2e\n      eq\n      tag_5\n      jumpi\n      dup1\n      0x410673e5\n      eq\n      tag_6\n      jumpi\n      dup1\n      0x5f589599\n      eq\n      tag_7\n      jumpi\n    tag_2:\n      0x00\n      dup1\n      revert\n        /* \"Voting.sol\":2287:2588  function tallyResultsPublished() public view returns (bool) {... */\n    tag_3:\n      tag_15\n      tag_16\n      jump\t// in\n    tag_15:\n      mload(0x40)\n      tag_17\n      swap2\n      swap1\n      tag_18\n      jump\t// in\n    tag_17:\n      mload(0x40)\n      dup1\n      swap2\n      sub\n      swap1\n      return\n        /* \"Voting.sol\":2594:2694  function getAllCandidates() public view returns (string[] memory) {... */\n    tag_4:\n      tag_19\n      tag_20\n      jump\t// in\n    tag_19:\n      mload(0x40)\n      tag_21\n      swap2\n      swap1\n      tag_22\n      jump\t// in\n    tag_21:\n      mload(0x40)\n      dup1\n      swap2\n      sub\n      swap1\n      return\n        /* \"Voting.sol\":584:610  string[] public candidates */\n    tag_5:\n      tag_23\n      0x04\n      dup1\n      calldatasize\n      sub\n      dup2\n      add\n      swap1\n      tag_24\n      swap2\n      swap1\n      tag_25\n      jump\t// in\n    tag_24:\n      tag_26\n      jump\t// in\n    tag_23:\n      mload(0x40)\n      tag_27\n      swap2\n      swap1\n      tag_28\n      jump\t// in\n    tag_27:\n      mload(0x40)\n      dup1\n      swap2\n      sub\n      swap1\n      return\n        /* \"Voting.sol\":558:577  ITally public tally */\n    tag_6:\n      tag_29\n      tag_30\n      jump\t// in\n    tag_29:\n      mload(0x40)\n      tag_31\n      swap2\n      swap1\n      tag_32\n      jump\t// in\n    tag_31:\n      mload(0x40)\n      dup1\n      swap2\n      sub\n      swap1\n      return\n        /* \"Voting.sol\":487:515  bool public resultsPublished */\n    tag_7:\n      tag_33\n      tag_34\n      jump\t// in\n    tag_33:\n      mload(0x40)\n      tag_35\n      swap2\n      swap1\n      tag_18\n      jump\t// in\n    tag_35:\n      mload(0x40)\n      dup1\n      swap2\n      sub\n      swap1\n      return\n        /* \"Voting.sol\":1300:1467  function startElection() public onlyOwner {... */\n    tag_8:\n      tag_36\n      tag_37\n      jump\t// in\n    tag_36:\n      stop\n        /* \"Voting.sol\":522:552  IVoterRegistry public registry */\n    tag_9:\n      tag_38\n      tag_39\n      jump\t// in\n    tag_38:\n      mload(0x40)\n      tag_40\n      swap2\n      swap1\n      tag_41\n      jump\t// in\n    tag_40:\n      mload(0x40)\n      dup1\n      swap2\n      sub\n      swap1\n      return\n        /* \"Voting.sol\":428:448  address public owner */\n    tag_10:\n      tag_42\n      tag_43\n      jump\t// in\n    tag_42:\n      mload(0x40)\n      tag_44\n      swap2\n      swap1\n      tag_45\n      jump\t// in\n    tag_44:\n      mload(0x40)\n      dup1\n      swap2\n      sub\n      swap1\n      return\n        /* \"Voting.sol\":2102:2281  function publishResults() public onlyOwner {... */\n    tag_11:\n      tag_46\n      tag_47\n      jump\t// in\n    tag_46:\n      stop\n        /* \"Voting.sol\":454:481  bool public electionStarted */\n    tag_12:\n      tag_48\n      tag_49\n      jump\t// in\n    tag_48:\n      mload(0x40)\n      tag_50\n      swap2\n      swap1\n      tag_18\n      jump\t// in\n    tag_50:\n      mload(0x40)\n      dup1\n      swap2\n      sub\n      swap1\n      return\n        /* \"Voting.sol\":1473:2096  function vote(string memory candidate) public electionActive {... */\n    tag_13:\n      tag_51\n      0x04\n      dup1\n      calldatasize\n      sub\n      dup2\n      add\n      swap1\n      tag_52\n      swap2\n      swap1\n      tag_53\n      jump\t// in\n    tag_52:\n      tag_54\n      jump\t// in\n    tag_51:\n      stop\n        /* \"Voting.sol\":2287:2588  function tallyResultsPublished() public view returns (bool) {... */\n    tag_16:\n        /* \"Voting.sol\":2341:2345  bool */\n      0x00\n        /* \"Voting.sol\":2358:2370  bool success */\n      dup1\n        /* \"Voting.sol\":2372:2389  bytes memory data */\n      0x00\n        /* \"Voting.sol\":2401:2406  tally */\n      0x02\n      0x00\n      swap1\n      sload\n      swap1\n      0x0100\n      exp\n      swap1\n      div\n      0xffffffffffffffffffffffffffffffffffffffff\n      and\n        /* \"Voting.sol\":2393:2418  address(tally).staticcall */\n      0xffffffffffffffffffffffffffffffffffffffff\n      and\n        /* \"Voting.sol\":2432:2477  abi.encodeWithSignature(\"resultsPublished()\") */\n      add(0x24, mload(0x40))\n      mload(0x40)\n      0x20\n      dup2\n      dup4\n      sub\n      sub\n      dup2\n      mstore\n      swap1\n      0x40\n      mstore\n      and(not(0xffffffffffffffffffffffffffffffffffffffffffffffffffffffff), 0x5f58959900000000000000000000000000000000000000000000000000000000)\n      0x20\n      dup3\n      add\n      dup1\n      mload\n      0xffffffffffffffffffffffffffffffffffffffffffffffffffffffff\n      dup4\n      dup2\n      dup4\n      and\n      or\n      dup4\n      mstore\n      pop\n      pop\n      pop\n      pop\n        /* \"Voting.sol\":2393:2487  address(tally).staticcall(... */\n      mload(0x40)\n      tag_56\n      swap2\n      swap1\n      tag_57\n      jump\t// in\n    tag_56:\n      0x00\n      mload(0x40)\n      dup1\n      dup4\n      sub\n      dup2\n      dup6\n      gas\n      staticcall\n      swap2\n      pop\n      pop\n      returndatasize\n      dup1\n      0x00\n      dup2\n      eq\n      tag_60\n      jumpi\n      mload(0x40)\n      swap2\n      pop\n      and(add(returndatasize, 0x3f), not(0x1f))\n      dup3\n      add\n      0x40\n      mstore\n      returndatasize\n      dup3\n      mstore\n      returndatasize\n      0x00\n      0x20\n      dup5\n      add\n      returndatacopy\n      jump(tag_59)\n    tag_60:\n      0x60\n      swap2\n      pop\n    tag_59:\n      pop\n        /* \"Voting.sol\":2357:2487  (bool success, bytes memory data) = address(tally).staticcall(... */\n      swap2\n      pop\n      swap2\n      pop\n        /* \"Voting.sol\":2505:2512  success */\n      dup2\n        /* \"Voting.sol\":2497:2540  require(success, \"Failed to fetch results\") */\n      tag_61\n      jumpi\n      mload(0x40)\n      0x08c379a000000000000000000000000000000000000000000000000000000000\n      dup2\n      mstore\n      0x04\n      add\n      tag_62\n      swap1\n      tag_63\n      jump\t// in\n    tag_62:\n      mload(0x40)\n      dup1\n      swap2\n      sub\n      swap1\n      revert\n    tag_61:\n        /* \"Voting.sol\":2568:2572  data */\n      dup1\n        /* \"Voting.sol\":2557:2581  abi.decode(data, (bool)) */\n      dup1\n      0x20\n      add\n      swap1\n      mload\n      dup2\n      add\n      swap1\n      tag_64\n      swap2\n      swap1\n      tag_65\n      jump\t// in\n    tag_64:\n        /* \"Voting.sol\":2550:2581  return abi.decode(data, (bool)) */\n      swap3\n      pop\n      pop\n      pop\n        /* \"Voting.sol\":2287:2588  function tallyResultsPublished() public view returns (bool) {... */\n      swap1\n      jump\t// out\n        /* \"Voting.sol\":2594:2694  function getAllCandidates() public view returns (string[] memory) {... */\n    tag_20:\n        /* \"Voting.sol\":2643:2658  string[] memory */\n      0x60\n        /* \"Voting.sol\":2677:2687  candidates */\n      0x03\n        /* \"Voting.sol\":2670:2687  return candidates */\n      dup1\n      sload\n      dup1\n      0x20\n      mul\n      0x20\n      add\n      mload(0x40)\n      swap1\n      dup2\n      add\n      0x40\n      mstore\n      dup1\n      swap3\n      swap2\n      swap1\n      dup2\n      dup2\n      mstore\n      0x20\n      add\n      0x00\n      swap1\n    tag_67:\n      dup3\n      dup3\n      lt\n      iszero\n      tag_68\n      jumpi\n      dup4\n      dup3\n      swap1\n      0x00\n      mstore\n      keccak256(0x00, 0x20)\n      add\n      dup1\n      sload\n      tag_70\n      swap1\n      tag_71\n      jump\t// in\n    tag_70:\n      dup1\n      0x1f\n      add\n      0x20\n      dup1\n      swap2\n      div\n      mul\n      0x20\n      add\n      mload(0x40)\n      swap1\n      dup2\n      add\n      0x40\n      mstore\n      dup1\n      swap3\n      swap2\n      swap1\n      dup2\n      dup2\n      mstore\n      0x20\n      add\n      dup3\n      dup1\n      sload\n      tag_72\n      swap1\n      tag_71\n      jump\t// in\n    tag_72:\n      dup1\n      iszero\n      tag_73\n      jumpi\n      dup1\n      0x1f\n      lt\n      tag_74\n      jumpi\n      0x0100\n      dup1\n      dup4\n      sload\n      div\n      mul\n      dup4\n      mstore\n      swap2\n      0x20\n      add\n      swap2\n      jump(tag_73)\n    tag_74:\n      dup3\n      add\n      swap2\n      swap1\n      0x00\n      mstore\n      keccak256(0x00, 0x20)\n      swap1\n    tag_75:\n      dup2\n      sload\n      dup2\n      mstore\n      swap1\n      0x01\n      add\n      swap1\n      0x20\n      add\n      dup1\n      dup4\n      gt\n      tag_75\n      jumpi\n      dup3\n      swap1\n      sub\n      0x1f\n      and\n      dup3\n      add\n      swap2\n    tag_73:\n      pop\n      pop\n      pop\n      pop\n      pop\n      dup2\n      mstore\n      0x20\n      add\n      swap1\n      0x01\n      add\n      swap1\n      jump(tag_67)\n    tag_68:\n      pop\n      pop\n      pop\n      pop\n      swap1\n      pop\n        /* \"Voting.sol\":2594:2694  function getAllCandidates() public view returns (string[] memory) {... */\n      swap1\n      jump\t// out\n        /* \"Voting.sol\":584:610  string[] public candidates */\n    tag_26:\n      0x03\n      dup2\n      dup2\n      sload\n      dup2\n      lt\n      tag_76\n      jumpi\n      0x00\n      dup1\n      revert\n    tag_76:\n      swap1\n      0x00\n      mstore\n      keccak256(0x00, 0x20)\n      add\n      0x00\n      swap2\n      pop\n      swap1\n      pop\n      dup1\n      sload\n      tag_78\n      swap1\n      tag_71\n      jump\t// in\n    tag_78:\n      dup1\n      0x1f\n      add\n      0x20\n      dup1\n      swap2\n      div\n      mul\n      0x20\n      add\n      mload(0x40)\n      swap1\n      dup2\n      add\n      0x40\n      mstore\n      dup1\n      swap3\n      swap2\n      swap1\n      dup2\n      dup2\n      mstore\n      0x20\n      add\n      dup3\n      dup1\n      sload\n      tag_79\n      swap1\n      tag_71\n      jump\t// in\n    tag_79:\n      dup1\n      iszero\n      tag_80\n      jumpi\n      dup1\n      0x1f\n      lt\n      tag_81\n      jumpi\n      0x0100\n      dup1\n      dup4\n      sload\n      div\n      mul\n      dup4\n      mstore\n      swap2\n      0x20\n      add\n      swap2\n      jump(tag_80)\n    tag_81:\n      dup3\n      add\n      swap2\n      swap1\n      0x00\n      mstore\n      keccak256(0x00, 0x20)\n      swap1\n    tag_82:\n      dup2\n      sload\n      dup2\n      mstore\n      swap1\n      0x01\n      add\n      swap1\n      0x20\n      add\n      dup1\n      dup4\n      gt\n      tag_82\n      jumpi\n      dup3\n      swap1\n      sub\n      0x1f\n      and\n      dup3\n      add\n      swap2\n    tag_80:\n      pop\n      pop\n      pop\n      pop\n      pop\n      dup2\n      jump\t// out\n        /* \"Voting.sol\":558:577  ITally public tally */\n    tag_30:\n      0x02\n      0x00\n      swap1\n      sload\n      swap1\n      0x0100\n      exp\n      swap1\n      div\n      0xffffffffffffffffffffffffffffffffffffffff\n      and\n      dup2\n      jump\t// out\n        /* \"Voting.sol\":487:515  bool public resultsPublished */\n    tag_34:\n      0x00\n      0x15\n      swap1\n      sload\n      swap1\n      0x0100\n      exp\n      swap1\n      div\n      0xff\n      and\n      dup2\n      jump\t// out\n        /* \"Voting.sol\":1300:1467  function startElection() public onlyOwner {... */\n    tag_37:\n        /* \"Voting.sol\":785:790  owner */\n      0x00\n      dup1\n      sload\n      swap1\n      0x0100\n      exp\n      swap1\n      div\n      0xffffffffffffffffffffffffffffffffffffffff\n      and\n        /* \"Voting.sol\":771:790  msg.sender == owner */\n      0xffffffffffffffffffffffffffffffffffffffff\n      and\n        /* \"Voting.sol\":771:781  msg.sender */\n      caller\n        /* \"Voting.sol\":771:790  msg.sender == owner */\n      0xffffffffffffffffffffffffffffffffffffffff\n      and\n      eq\n        /* \"Voting.sol\":763:829  require(msg.sender == owner, \"Only owner can perform this action\") */\n      tag_84\n      jumpi\n      mload(0x40)\n      0x08c379a000000000000000000000000000000000000000000000000000000000\n      dup2\n      mstore\n      0x04\n      add\n      tag_85\n      swap1\n      tag_86\n      jump\t// in\n    tag_85:\n      mload(0x40)\n      dup1\n      swap2\n      sub\n      swap1\n      revert\n    tag_84:\n        /* \"Voting.sol\":1361:1376  electionStarted */\n      0x00\n      0x14\n      swap1\n      sload\n      swap1\n      0x0100\n      exp\n      swap1\n      div\n      0xff\n      and\n        /* \"Voting.sol\":1360:1376  !electionStarted */\n      iszero\n        /* \"Voting.sol\":1352:1396  require(!electionStarted, \"Already started\") */\n      tag_88\n      jumpi\n      mload(0x40)\n      0x08c379a000000000000000000000000000000000000000000000000000000000\n      dup2\n      mstore\n      0x04\n      add\n      tag_89\n      swap1\n      tag_90\n      jump\t// in\n    tag_89:\n      mload(0x40)\n      dup1\n      swap2\n      sub\n      swap1\n      revert\n    tag_88:\n        /* \"Voting.sol\":1424:1428  true */\n      0x01\n        /* \"Voting.sol\":1406:1421  electionStarted */\n      0x00\n      0x14\n        /* \"Voting.sol\":1406:1428  electionStarted = true */\n      0x0100\n      exp\n      dup2\n      sload\n      dup2\n      0xff\n      mul\n      not\n      and\n      swap1\n      dup4\n      iszero\n      iszero\n      mul\n      or\n      swap1\n      sstore\n      pop\n        /* \"Voting.sol\":1443:1460  ElectionStarted() */\n      0xc475c26aa25ed8e85a7faa790e5f63b5d7ee1025f12821f4c9bfddd36ab4d112\n      mload(0x40)\n      mload(0x40)\n      dup1\n      swap2\n      sub\n      swap1\n      log1\n        /* \"Voting.sol\":1300:1467  function startElection() public onlyOwner {... */\n      jump\t// out\n        /* \"Voting.sol\":522:552  IVoterRegistry public registry */\n    tag_39:\n      0x01\n      0x00\n      swap1\n      sload\n      swap1\n      0x0100\n      exp\n      swap1\n      div\n      0xffffffffffffffffffffffffffffffffffffffff\n      and\n      dup2\n      jump\t// out\n        /* \"Voting.sol\":428:448  address public owner */\n    tag_43:\n      0x00\n      dup1\n      sload\n      swap1\n      0x0100\n      exp\n      swap1\n      div\n      0xffffffffffffffffffffffffffffffffffffffff\n      and\n      dup2\n      jump\t// out\n        /* \"Voting.sol\":2102:2281  function publishResults() public onlyOwner {... */\n    tag_47:\n        /* \"Voting.sol\":785:790  owner */\n      0x00\n      dup1\n      sload\n      swap1\n      0x0100\n      exp\n      swap1\n      div\n      0xffffffffffffffffffffffffffffffffffffffff\n      and\n        /* \"Voting.sol\":771:790  msg.sender == owner */\n      0xffffffffffffffffffffffffffffffffffffffff\n      and\n        /* \"Voting.sol\":771:781  msg.sender */\n      caller\n        /* \"Voting.sol\":771:790  msg.sender == owner */\n      0xffffffffffffffffffffffffffffffffffffffff\n      and\n      eq\n        /* \"Voting.sol\":763:829  require(msg.sender == owner, \"Only owner can perform this action\") */\n      tag_92\n      jumpi\n      mload(0x40)\n      0x08c379a000000000000000000000000000000000000000000000000000000000\n      dup2\n      mstore\n      0x04\n      add\n      tag_93\n      swap1\n      tag_86\n      jump\t// in\n    tag_93:\n      mload(0x40)\n      dup1\n      swap2\n      sub\n      swap1\n      revert\n    tag_92:\n        /* \"Voting.sol\":2164:2187  tallyResultsPublished() */\n      tag_95\n        /* \"Voting.sol\":2164:2185  tallyResultsPublished */\n      tag_16\n        /* \"Voting.sol\":2164:2187  tallyResultsPublished() */\n      jump\t// in\n    tag_95:\n        /* \"Voting.sol\":2163:2187  !tallyResultsPublished() */\n      iszero\n        /* \"Voting.sol\":2155:2209  require(!tallyResultsPublished(), \"Already published\") */\n      tag_96\n      jumpi\n      mload(0x40)\n      0x08c379a000000000000000000000000000000000000000000000000000000000\n      dup2\n      mstore\n      0x04\n      add\n      tag_97\n      swap1\n      tag_98\n      jump\t// in\n    tag_97:\n      mload(0x40)\n      dup1\n      swap2\n      sub\n      swap1\n      revert\n    tag_96:\n        /* \"Voting.sol\":2219:2224  tally */\n      0x02\n      0x00\n      swap1\n      sload\n      swap1\n      0x0100\n      exp\n      swap1\n      div\n      0xffffffffffffffffffffffffffffffffffffffff\n      and\n        /* \"Voting.sol\":2219:2239  tally.publishResults */\n      0xffffffffffffffffffffffffffffffffffffffff\n      and\n      0xb952e7d8\n        /* \"Voting.sol\":2219:2241  tally.publishResults() */\n      mload(0x40)\n      dup2\n      0xffffffff\n      and\n      0xe0\n      shl\n      dup2\n      mstore\n      0x04\n      add\n      0x00\n      mload(0x40)\n      dup1\n      dup4\n      sub\n      dup2\n      0x00\n      dup8\n      dup1\n      extcodesize\n      iszero\n      dup1\n      iszero\n      tag_99\n      jumpi\n      0x00\n      dup1\n      revert\n    tag_99:\n      pop\n      gas\n      call\n      iszero\n      dup1\n      iszero\n      tag_101\n      jumpi\n      returndatasize\n      0x00\n      dup1\n      returndatacopy\n      revert(0x00, returndatasize)\n    tag_101:\n      pop\n      pop\n      pop\n      pop\n        /* \"Voting.sol\":2256:2274  ResultsPublished() */\n      0x10689ac5c5ddc265da7f6b71f74017330ba8f045032a672f7350ee2aaf793a2c\n      mload(0x40)\n      mload(0x40)\n      dup1\n      swap2\n      sub\n      swap1\n      log1\n        /* \"Voting.sol\":2102:2281  function publishResults() public onlyOwner {... */\n      jump\t// out\n        /* \"Voting.sol\":454:481  bool public electionStarted */\n    tag_49:\n      0x00\n      0x14\n      swap1\n      sload\n      swap1\n      0x0100\n      exp\n      swap1\n      div\n      0xff\n      and\n      dup2\n      jump\t// out\n        /* \"Voting.sol\":1473:2096  function vote(string memory candidate) public electionActive {... */\n    tag_54:\n        /* \"Voting.sol\":897:912  electionStarted */\n      0x00\n      0x14\n      swap1\n      sload\n      swap1\n      0x0100\n      exp\n      swap1\n      div\n      0xff\n      and\n        /* \"Voting.sol\":889:937  require(electionStarted, \"Election not started\") */\n      tag_103\n      jumpi\n      mload(0x40)\n      0x08c379a000000000000000000000000000000000000000000000000000000000\n      dup2\n      mstore\n      0x04\n      add\n      tag_104\n      swap1\n      tag_105\n      jump\t// in\n    tag_104:\n      mload(0x40)\n      dup1\n      swap2\n      sub\n      swap1\n      revert\n    tag_103:\n        /* \"Voting.sol\":956:972  resultsPublished */\n      0x00\n      0x15\n      swap1\n      sload\n      swap1\n      0x0100\n      exp\n      swap1\n      div\n      0xff\n      and\n        /* \"Voting.sol\":955:972  !resultsPublished */\n      iszero\n        /* \"Voting.sol\":947:989  require(!resultsPublished, \"Voting ended\") */\n      tag_106\n      jumpi\n      mload(0x40)\n      0x08c379a000000000000000000000000000000000000000000000000000000000\n      dup2\n      mstore\n      0x04\n      add\n      tag_107\n      swap1\n      tag_108\n      jump\t// in\n    tag_107:\n      mload(0x40)\n      dup1\n      swap2\n      sub\n      swap1\n      revert\n    tag_106:\n        /* \"Voting.sol\":1552:1560  registry */\n      0x01\n      0x00\n      swap1\n      sload\n      swap1\n      0x0100\n      exp\n      swap1\n      div\n      0xffffffffffffffffffffffffffffffffffffffff\n      and\n        /* \"Voting.sol\":1552:1573  registry.isRegistered */\n      0xffffffffffffffffffffffffffffffffffffffff\n      and\n      0xc3c5a547\n        /* \"Voting.sol\":1574:1584  msg.sender */\n      caller\n        /* \"Voting.sol\":1552:1585  registry.isRegistered(msg.sender) */\n      mload(0x40)\n      dup3\n      0xffffffff\n      and\n      0xe0\n      shl\n      dup2\n      mstore\n      0x04\n      add\n      tag_110\n      swap2\n      swap1\n      tag_45\n      jump\t// in\n    tag_110:\n      0x20\n      mload(0x40)\n      dup1\n      dup4\n      sub\n      dup2\n      dup7\n      gas\n      staticcall\n      iszero\n      dup1\n      iszero\n      tag_112\n      jumpi\n      returndatasize\n      0x00\n      dup1\n      returndatacopy\n      revert(0x00, returndatasize)\n    tag_112:\n      pop\n      pop\n      pop\n      pop\n      mload(0x40)\n      returndatasize\n      not(0x1f)\n      0x1f\n      dup3\n      add\n      and\n      dup3\n      add\n      dup1\n      0x40\n      mstore\n      pop\n      dup2\n      add\n      swap1\n      tag_113\n      swap2\n      swap1\n      tag_65\n      jump\t// in\n    tag_113:\n        /* \"Voting.sol\":1544:1604  require(registry.isRegistered(msg.sender), \"Not registered\") */\n      tag_114\n      jumpi\n      mload(0x40)\n      0x08c379a000000000000000000000000000000000000000000000000000000000\n      dup2\n      mstore\n      0x04\n      add\n      tag_115\n      swap1\n      tag_116\n      jump\t// in\n    tag_115:\n      mload(0x40)\n      dup1\n      swap2\n      sub\n      swap1\n      revert\n    tag_114:\n        /* \"Voting.sol\":1623:1631  registry */\n      0x01\n      0x00\n      swap1\n      sload\n      swap1\n      0x0100\n      exp\n      swap1\n      div\n      0xffffffffffffffffffffffffffffffffffffffff\n      and\n        /* \"Voting.sol\":1623:1640  registry.hasVoted */\n      0xffffffffffffffffffffffffffffffffffffffff\n      and\n      0x09eef43e\n        /* \"Voting.sol\":1641:1651  msg.sender */\n      caller\n        /* \"Voting.sol\":1623:1652  registry.hasVoted(msg.sender) */\n      mload(0x40)\n      dup3\n      0xffffffff\n      and\n      0xe0\n      shl\n      dup2\n      mstore\n      0x04\n      add\n      tag_117\n      swap2\n      swap1\n      tag_45\n      jump\t// in\n    tag_117:\n      0x20\n      mload(0x40)\n      dup1\n      dup4\n      sub\n      dup2\n      dup7\n      gas\n      staticcall\n      iszero\n      dup1\n      iszero\n      tag_119\n      jumpi\n      returndatasize\n      0x00\n      dup1\n      returndatacopy\n      revert(0x00, returndatasize)\n    tag_119:\n      pop\n      pop\n      pop\n      pop\n      mload(0x40)\n      returndatasize\n      not(0x1f)\n      0x1f\n      dup3\n      add\n      and\n      dup3\n      add\n      dup1\n      0x40\n      mstore\n      pop\n      dup2\n      add\n      swap1\n      tag_120\n      swap2\n      swap1\n      tag_65\n      jump\t// in\n    tag_120:\n        /* \"Voting.sol\":1622:1652  !registry.hasVoted(msg.sender) */\n      iszero\n        /* \"Voting.sol\":1614:1670  require(!registry.hasVoted(msg.sender), \"Already voted\") */\n      tag_121\n      jumpi\n      mload(0x40)\n      0x08c379a000000000000000000000000000000000000000000000000000000000\n      dup2\n      mstore\n      0x04\n      add\n      tag_122\n      swap1\n      tag_123\n      jump\t// in\n    tag_122:\n      mload(0x40)\n      dup1\n      swap2\n      sub\n      swap1\n      revert\n    tag_121:\n        /* \"Voting.sol\":1681:1691  bool valid */\n      0x00\n        /* \"Voting.sol\":1714:1720  uint i */\n      dup1\n        /* \"Voting.sol\":1709:1914  for (uint i = 0; i < candidates.length; i++) {... */\n    tag_124:\n        /* \"Voting.sol\":1730:1740  candidates */\n      0x03\n        /* \"Voting.sol\":1730:1747  candidates.length */\n      dup1\n      sload\n      swap1\n      pop\n        /* \"Voting.sol\":1726:1727  i */\n      dup2\n        /* \"Voting.sol\":1726:1747  i < candidates.length */\n      lt\n        /* \"Voting.sol\":1709:1914  for (uint i = 0; i < candidates.length; i++) {... */\n      iszero\n      tag_125\n      jumpi\n        /* \"Voting.sol\":1823:1832  candidate */\n      dup3\n        /* \"Voting.sol\":1807:1834  keccak256(bytes(candidate)) */\n      dup1\n      mload\n      swap1\n      0x20\n      add\n      keccak256\n        /* \"Voting.sol\":1788:1798  candidates */\n      0x03\n        /* \"Voting.sol\":1799:1800  i */\n      dup3\n        /* \"Voting.sol\":1788:1801  candidates[i] */\n      dup2\n      sload\n      dup2\n      lt\n      tag_127\n      jumpi\n      tag_128\n      tag_129\n      jump\t// in\n    tag_128:\n    tag_127:\n      swap1\n      0x00\n      mstore\n      keccak256(0x00, 0x20)\n      add\n        /* \"Voting.sol\":1772:1803  keccak256(bytes(candidates[i])) */\n      mload(0x40)\n      tag_131\n      swap2\n      swap1\n      tag_132\n      jump\t// in\n    tag_131:\n      mload(0x40)\n      dup1\n      swap2\n      sub\n      swap1\n      keccak256\n        /* \"Voting.sol\":1772:1834  keccak256(bytes(candidates[i])) == keccak256(bytes(candidate)) */\n      sub\n        /* \"Voting.sol\":1768:1904  if (keccak256(bytes(candidates[i])) == keccak256(bytes(candidate))) {... */\n      tag_133\n      jumpi\n        /* \"Voting.sol\":1862:1866  true */\n      0x01\n        /* \"Voting.sol\":1854:1866  valid = true */\n      swap2\n      pop\n        /* \"Voting.sol\":1884:1889  break */\n      jump(tag_125)\n        /* \"Voting.sol\":1768:1904  if (keccak256(bytes(candidates[i])) == keccak256(bytes(candidate))) {... */\n    tag_133:\n        /* \"Voting.sol\":1749:1752  i++ */\n      dup1\n      dup1\n      tag_134\n      swap1\n      tag_135\n      jump\t// in\n    tag_134:\n      swap2\n      pop\n      pop\n        /* \"Voting.sol\":1709:1914  for (uint i = 0; i < candidates.length; i++) {... */\n      jump(tag_124)\n    tag_125:\n      pop\n        /* \"Voting.sol\":1931:1936  valid */\n      dup1\n        /* \"Voting.sol\":1923:1960  require(valid, \"Candidate not found\") */\n      tag_136\n      jumpi\n      mload(0x40)\n      0x08c379a000000000000000000000000000000000000000000000000000000000\n      dup2\n      mstore\n      0x04\n      add\n      tag_137\n      swap1\n      tag_138\n      jump\t// in\n    tag_137:\n      mload(0x40)\n      dup1\n      swap2\n      sub\n      swap1\n      revert\n    tag_136:\n        /* \"Voting.sol\":1971:1979  registry */\n      0x01\n      0x00\n      swap1\n      sload\n      swap1\n      0x0100\n      exp\n      swap1\n      div\n      0xffffffffffffffffffffffffffffffffffffffff\n      and\n        /* \"Voting.sol\":1971:1991  registry.setHasVoted */\n      0xffffffffffffffffffffffffffffffffffffffff\n      and\n      0x995278a3\n        /* \"Voting.sol\":1992:2002  msg.sender */\n      caller\n        /* \"Voting.sol\":1971:2003  registry.setHasVoted(msg.sender) */\n      mload(0x40)\n      dup3\n      0xffffffff\n      and\n      0xe0\n      shl\n      dup2\n      mstore\n      0x04\n      add\n      tag_139\n      swap2\n      swap1\n      tag_45\n      jump\t// in\n    tag_139:\n      0x00\n      mload(0x40)\n      dup1\n      dup4\n      sub\n      dup2\n      0x00\n      dup8\n      dup1\n      extcodesize\n      iszero\n      dup1\n      iszero\n      tag_140\n      jumpi\n      0x00\n      dup1\n      revert\n    tag_140:\n      pop\n      gas\n      call\n      iszero\n      dup1\n      iszero\n      tag_142\n      jumpi\n      returndatasize\n      0x00\n      dup1\n      returndatacopy\n      revert(0x00, returndatasize)\n    tag_142:\n      pop\n      pop\n      pop\n      pop\n        /* \"Voting.sol\":2013:2018  tally */\n      0x02\n      0x00\n      swap1\n      sload\n      swap1\n      0x0100\n      exp\n      swap1\n      div\n      0xffffffffffffffffffffffffffffffffffffffff\n      and\n        /* \"Voting.sol\":2013:2027  tally.addVotes */\n      0xffffffffffffffffffffffffffffffffffffffff\n      and\n      0xbea9a9a4\n        /* \"Voting.sol\":2028:2037  candidate */\n      dup4\n        /* \"Voting.sol\":2039:2040  1 */\n      0x01\n        /* \"Voting.sol\":2013:2041  tally.addVotes(candidate, 1) */\n      mload(0x40)\n      dup4\n      0xffffffff\n      and\n      0xe0\n      shl\n      dup2\n      mstore\n      0x04\n      add\n      tag_143\n      swap3\n      swap2\n      swap1\n      tag_144\n      jump\t// in\n    tag_143:\n      0x00\n      mload(0x40)\n      dup1\n      dup4\n      sub\n      dup2\n      0x00\n      dup8\n      dup1\n      extcodesize\n      iszero\n      dup1\n      iszero\n      tag_145\n      jumpi\n      0x00\n      dup1\n      revert\n    tag_145:\n      pop\n      gas\n      call\n      iszero\n      dup1\n      iszero\n      tag_147\n      jumpi\n      returndatasize\n      0x00\n      dup1\n      returndatacopy\n      revert(0x00, returndatasize)\n    tag_147:\n      pop\n      pop\n      pop\n      pop\n        /* \"Voting.sol\":2056:2089  VoteCasted(msg.sender, candidate) */\n      0xb7821d50dfbda5ea310faebbeac5217bc1bb0cabe463e76b80e48d11e57df098\n        /* \"Voting.sol\":2067:2077  msg.sender */\n      caller\n        /* \"Voting.sol\":2079:2088  candidate */\n      dup4\n        /* \"Voting.sol\":2056:2089  VoteCasted(msg.sender, candidate) */\n      mload(0x40)\n      tag_148\n      swap3\n      swap2\n      swap1\n      tag_149\n      jump\t// in\n    tag_148:\n      mload(0x40)\n      dup1\n      swap2\n      sub\n      swap1\n      log1\n        /* \"Voting.sol\":1534:2096  {... */\n      pop\n        /* \"Voting.sol\":1473:2096  function vote(string memory candidate) public electionActive {... */\n      pop\n      jump\t// out\n        /* \"#utility.yul\":7:97   */\n    tag_150:\n        /* \"#utility.yul\":41:48   */\n      0x00\n        /* \"#utility.yul\":84:89   */\n      dup2\n        /* \"#utility.yul\":77:90   */\n      iszero\n        /* \"#utility.yul\":70:91   */\n      iszero\n        /* \"#utility.yul\":59:91   */\n      swap1\n      pop\n        /* \"#utility.yul\":7:97   */\n      swap2\n      swap1\n      pop\n      jump\t// out\n        /* \"#utility.yul\":103:212   */\n    tag_151:\n        /* \"#utility.yul\":184:205   */\n      tag_223\n        /* \"#utility.yul\":199:204   */\n      dup2\n        /* \"#utility.yul\":184:205   */\n      tag_150\n      jump\t// in\n    tag_223:\n        /* \"#utility.yul\":179:182   */\n      dup3\n        /* \"#utility.yul\":172:206   */\n      mstore\n        /* \"#utility.yul\":103:212   */\n      pop\n      pop\n      jump\t// out\n        /* \"#utility.yul\":218:428   */\n    tag_18:\n        /* \"#utility.yul\":305:309   */\n      0x00\n        /* \"#utility.yul\":343:345   */\n      0x20\n        /* \"#utility.yul\":332:341   */\n      dup3\n        /* \"#utility.yul\":328:346   */\n      add\n        /* \"#utility.yul\":320:346   */\n      swap1\n      pop\n        /* \"#utility.yul\":356:421   */\n      tag_225\n        /* \"#utility.yul\":418:419   */\n      0x00\n        /* \"#utility.yul\":407:416   */\n      dup4\n        /* \"#utility.yul\":403:420   */\n      add\n        /* \"#utility.yul\":394:400   */\n      dup5\n        /* \"#utility.yul\":356:421   */\n      tag_151\n      jump\t// in\n    tag_225:\n        /* \"#utility.yul\":218:428   */\n      swap3\n      swap2\n      pop\n      pop\n      jump\t// out\n        /* \"#utility.yul\":434:558   */\n    tag_152:\n        /* \"#utility.yul\":511:517   */\n      0x00\n        /* \"#utility.yul\":545:550   */\n      dup2\n        /* \"#utility.yul\":539:551   */\n      mload\n        /* \"#utility.yul\":529:551   */\n      swap1\n      pop\n        /* \"#utility.yul\":434:558   */\n      swap2\n      swap1\n      pop\n      jump\t// out\n        /* \"#utility.yul\":564:758   */\n    tag_153:\n        /* \"#utility.yul\":673:684   */\n      0x00\n        /* \"#utility.yul\":707:713   */\n      dup3\n        /* \"#utility.yul\":702:705   */\n      dup3\n        /* \"#utility.yul\":695:714   */\n      mstore\n        /* \"#utility.yul\":747:751   */\n      0x20\n        /* \"#utility.yul\":742:745   */\n      dup3\n        /* \"#utility.yul\":738:752   */\n      add\n        /* \"#utility.yul\":723:752   */\n      swap1\n      pop\n        /* \"#utility.yul\":564:758   */\n      swap3\n      swap2\n      pop\n      pop\n      jump\t// out\n        /* \"#utility.yul\":764:906   */\n    tag_154:\n        /* \"#utility.yul\":841:845   */\n      0x00\n        /* \"#utility.yul\":864:867   */\n      dup2\n        /* \"#utility.yul\":856:867   */\n      swap1\n      pop\n        /* \"#utility.yul\":894:898   */\n      0x20\n        /* \"#utility.yul\":889:892   */\n      dup3\n        /* \"#utility.yul\":885:899   */\n      add\n        /* \"#utility.yul\":877:899   */\n      swap1\n      pop\n        /* \"#utility.yul\":764:906   */\n      swap2\n      swap1\n      pop\n      jump\t// out\n        /* \"#utility.yul\":912:1011   */\n    tag_155:\n        /* \"#utility.yul\":964:970   */\n      0x00\n        /* \"#utility.yul\":998:1003   */\n      dup2\n        /* \"#utility.yul\":992:1004   */\n      mload\n        /* \"#utility.yul\":982:1004   */\n      swap1\n      pop\n        /* \"#utility.yul\":912:1011   */\n      swap2\n      swap1\n      pop\n      jump\t// out\n        /* \"#utility.yul\":1017:1176   */\n    tag_156:\n        /* \"#utility.yul\":1091:1102   */\n      0x00\n        /* \"#utility.yul\":1125:1131   */\n      dup3\n        /* \"#utility.yul\":1120:1123   */\n      dup3\n        /* \"#utility.yul\":1113:1132   */\n      mstore\n        /* \"#utility.yul\":1165:1169   */\n      0x20\n        /* \"#utility.yul\":1160:1163   */\n      dup3\n        /* \"#utility.yul\":1156:1170   */\n      add\n        /* \"#utility.yul\":1141:1170   */\n      swap1\n      pop\n        /* \"#utility.yul\":1017:1176   */\n      swap3\n      swap2\n      pop\n      pop\n      jump\t// out\n        /* \"#utility.yul\":1182:1428   */\n    tag_157:\n        /* \"#utility.yul\":1263:1264   */\n      0x00\n        /* \"#utility.yul\":1273:1386   */\n    tag_232:\n        /* \"#utility.yul\":1287:1293   */\n      dup4\n        /* \"#utility.yul\":1284:1285   */\n      dup2\n        /* \"#utility.yul\":1281:1294   */\n      lt\n        /* \"#utility.yul\":1273:1386   */\n      iszero\n      tag_234\n      jumpi\n        /* \"#utility.yul\":1372:1373   */\n      dup1\n        /* \"#utility.yul\":1367:1370   */\n      dup3\n        /* \"#utility.yul\":1363:1374   */\n      add\n        /* \"#utility.yul\":1357:1375   */\n      mload\n        /* \"#utility.yul\":1353:1354   */\n      dup2\n        /* \"#utility.yul\":1348:1351   */\n      dup5\n        /* \"#utility.yul\":1344:1355   */\n      add\n        /* \"#utility.yul\":1337:1376   */\n      mstore\n        /* \"#utility.yul\":1309:1311   */\n      0x20\n        /* \"#utility.yul\":1306:1307   */\n      dup2\n        /* \"#utility.yul\":1302:1312   */\n      add\n        /* \"#utility.yul\":1297:1312   */\n      swap1\n      pop\n        /* \"#utility.yul\":1273:1386   */\n      jump(tag_232)\n    tag_234:\n        /* \"#utility.yul\":1420:1421   */\n      0x00\n        /* \"#utility.yul\":1411:1417   */\n      dup5\n        /* \"#utility.yul\":1406:1409   */\n      dup5\n        /* \"#utility.yul\":1402:1418   */\n      add\n        /* \"#utility.yul\":1395:1422   */\n      mstore\n        /* \"#utility.yul\":1244:1428   */\n      pop\n        /* \"#utility.yul\":1182:1428   */\n      pop\n      pop\n      pop\n      jump\t// out\n        /* \"#utility.yul\":1434:1536   */\n    tag_158:\n        /* \"#utility.yul\":1475:1481   */\n      0x00\n        /* \"#utility.yul\":1526:1528   */\n      0x1f\n        /* \"#utility.yul\":1522:1529   */\n      not\n        /* \"#utility.yul\":1517:1519   */\n      0x1f\n        /* \"#utility.yul\":1510:1515   */\n      dup4\n        /* \"#utility.yul\":1506:1520   */\n      add\n        /* \"#utility.yul\":1502:1530   */\n      and\n        /* \"#utility.yul\":1492:1530   */\n      swap1\n      pop\n        /* \"#utility.yul\":1434:1536   */\n      swap2\n      swap1\n      pop\n      jump\t// out\n        /* \"#utility.yul\":1542:1899   */\n    tag_159:\n        /* \"#utility.yul\":1620:1623   */\n      0x00\n        /* \"#utility.yul\":1648:1687   */\n      tag_237\n        /* \"#utility.yul\":1681:1686   */\n      dup3\n        /* \"#utility.yul\":1648:1687   */\n      tag_155\n      jump\t// in\n    tag_237:\n        /* \"#utility.yul\":1703:1764   */\n      tag_238\n        /* \"#utility.yul\":1757:1763   */\n      dup2\n        /* \"#utility.yul\":1752:1755   */\n      dup6\n        /* \"#utility.yul\":1703:1764   */\n      tag_156\n      jump\t// in\n    tag_238:\n        /* \"#utility.yul\":1696:1764   */\n      swap4\n      pop\n        /* \"#utility.yul\":1773:1838   */\n      tag_239\n        /* \"#utility.yul\":1831:1837   */\n      dup2\n        /* \"#utility.yul\":1826:1829   */\n      dup6\n        /* \"#utility.yul\":1819:1823   */\n      0x20\n        /* \"#utility.yul\":1812:1817   */\n      dup7\n        /* \"#utility.yul\":1808:1824   */\n      add\n        /* \"#utility.yul\":1773:1838   */\n      tag_157\n      jump\t// in\n    tag_239:\n        /* \"#utility.yul\":1863:1892   */\n      tag_240\n        /* \"#utility.yul\":1885:1891   */\n      dup2\n        /* \"#utility.yul\":1863:1892   */\n      tag_158\n      jump\t// in\n    tag_240:\n        /* \"#utility.yul\":1858:1861   */\n      dup5\n        /* \"#utility.yul\":1854:1893   */\n      add\n        /* \"#utility.yul\":1847:1893   */\n      swap2\n      pop\n        /* \"#utility.yul\":1624:1899   */\n      pop\n        /* \"#utility.yul\":1542:1899   */\n      swap3\n      swap2\n      pop\n      pop\n      jump\t// out\n        /* \"#utility.yul\":1905:2101   */\n    tag_160:\n        /* \"#utility.yul\":1994:2004   */\n      0x00\n        /* \"#utility.yul\":2029:2095   */\n      tag_242\n        /* \"#utility.yul\":2091:2094   */\n      dup4\n        /* \"#utility.yul\":2083:2089   */\n      dup4\n        /* \"#utility.yul\":2029:2095   */\n      tag_159\n      jump\t// in\n    tag_242:\n        /* \"#utility.yul\":2015:2095   */\n      swap1\n      pop\n        /* \"#utility.yul\":1905:2101   */\n      swap3\n      swap2\n      pop\n      pop\n      jump\t// out\n        /* \"#utility.yul\":2107:2230   */\n    tag_161:\n        /* \"#utility.yul\":2187:2191   */\n      0x00\n        /* \"#utility.yul\":2219:2223   */\n      0x20\n        /* \"#utility.yul\":2214:2217   */\n      dup3\n        /* \"#utility.yul\":2210:2224   */\n      add\n        /* \"#utility.yul\":2202:2224   */\n      swap1\n      pop\n        /* \"#utility.yul\":2107:2230   */\n      swap2\n      swap1\n      pop\n      jump\t// out\n        /* \"#utility.yul\":2264:3255   */\n    tag_162:\n        /* \"#utility.yul\":2403:2406   */\n      0x00\n        /* \"#utility.yul\":2432:2496   */\n      tag_245\n        /* \"#utility.yul\":2490:2495   */\n      dup3\n        /* \"#utility.yul\":2432:2496   */\n      tag_152\n      jump\t// in\n    tag_245:\n        /* \"#utility.yul\":2512:2608   */\n      tag_246\n        /* \"#utility.yul\":2601:2607   */\n      dup2\n        /* \"#utility.yul\":2596:2599   */\n      dup6\n        /* \"#utility.yul\":2512:2608   */\n      tag_153\n      jump\t// in\n    tag_246:\n        /* \"#utility.yul\":2505:2608   */\n      swap4\n      pop\n        /* \"#utility.yul\":2634:2637   */\n      dup4\n        /* \"#utility.yul\":2679:2683   */\n      0x20\n        /* \"#utility.yul\":2671:2677   */\n      dup3\n        /* \"#utility.yul\":2667:2684   */\n      mul\n        /* \"#utility.yul\":2662:2665   */\n      dup6\n        /* \"#utility.yul\":2658:2685   */\n      add\n        /* \"#utility.yul\":2709:2775   */\n      tag_247\n        /* \"#utility.yul\":2769:2774   */\n      dup6\n        /* \"#utility.yul\":2709:2775   */\n      tag_154\n      jump\t// in\n    tag_247:\n        /* \"#utility.yul\":2798:2805   */\n      dup1\n        /* \"#utility.yul\":2829:2830   */\n      0x00\n        /* \"#utility.yul\":2814:3210   */\n    tag_248:\n        /* \"#utility.yul\":2839:2845   */\n      dup6\n        /* \"#utility.yul\":2836:2837   */\n      dup2\n        /* \"#utility.yul\":2833:2846   */\n      lt\n        /* \"#utility.yul\":2814:3210   */\n      iszero\n      tag_250\n      jumpi\n        /* \"#utility.yul\":2910:2919   */\n      dup5\n        /* \"#utility.yul\":2904:2908   */\n      dup5\n        /* \"#utility.yul\":2900:2920   */\n      sub\n        /* \"#utility.yul\":2895:2898   */\n      dup10\n        /* \"#utility.yul\":2888:2921   */\n      mstore\n        /* \"#utility.yul\":2961:2967   */\n      dup2\n        /* \"#utility.yul\":2955:2968   */\n      mload\n        /* \"#utility.yul\":2989:3073   */\n      tag_251\n        /* \"#utility.yul\":3068:3072   */\n      dup6\n        /* \"#utility.yul\":3053:3066   */\n      dup3\n        /* \"#utility.yul\":2989:3073   */\n      tag_160\n      jump\t// in\n    tag_251:\n        /* \"#utility.yul\":2981:3073   */\n      swap5\n      pop\n        /* \"#utility.yul\":3096:3166   */\n      tag_252\n        /* \"#utility.yul\":3159:3165   */\n      dup4\n        /* \"#utility.yul\":3096:3166   */\n      tag_161\n      jump\t// in\n    tag_252:\n        /* \"#utility.yul\":3086:3166   */\n      swap3\n      pop\n        /* \"#utility.yul\":3195:3199   */\n      0x20\n        /* \"#utility.yul\":3190:3193   */\n      dup11\n        /* \"#utility.yul\":3186:3200   */\n      add\n        /* \"#utility.yul\":3179:3200   */\n      swap10\n      pop\n        /* \"#utility.yul\":2874:3210   */\n      pop\n        /* \"#utility.yul\":2861:2862   */\n      0x01\n        /* \"#utility.yul\":2858:2859   */\n      dup2\n        /* \"#utility.yul\":2854:2863   */\n      add\n        /* \"#utility.yul\":2849:2863   */\n      swap1\n      pop\n        /* \"#utility.yul\":2814:3210   */\n      jump(tag_248)\n    tag_250:\n        /* \"#utility.yul\":2818:2832   */\n      pop\n        /* \"#utility.yul\":3226:3230   */\n      dup3\n        /* \"#utility.yul\":3219:3230   */\n      swap8\n      pop\n        /* \"#utility.yul\":3246:3249   */\n      dup8\n        /* \"#utility.yul\":3239:3249   */\n      swap6\n      pop\n        /* \"#utility.yul\":2408:3255   */\n      pop\n      pop\n      pop\n      pop\n      pop\n        /* \"#utility.yul\":2264:3255   */\n      swap3\n      swap2\n      pop\n      pop\n      jump\t// out\n        /* \"#utility.yul\":3261:3674   */\n    tag_22:\n        /* \"#utility.yul\":3424:3428   */\n      0x00\n        /* \"#utility.yul\":3462:3464   */\n      0x20\n        /* \"#utility.yul\":3451:3460   */\n      dup3\n        /* \"#utility.yul\":3447:3465   */\n      add\n        /* \"#utility.yul\":3439:3465   */\n      swap1\n      pop\n        /* \"#utility.yul\":3511:3520   */\n      dup2\n        /* \"#utility.yul\":3505:3509   */\n      dup2\n        /* \"#utility.yul\":3501:3521   */\n      sub\n        /* \"#utility.yul\":3497:3498   */\n      0x00\n        /* \"#utility.yul\":3486:3495   */\n      dup4\n        /* \"#utility.yul\":3482:3499   */\n      add\n        /* \"#utility.yul\":3475:3522   */\n      mstore\n        /* \"#utility.yul\":3539:3667   */\n      tag_254\n        /* \"#utility.yul\":3662:3666   */\n      dup2\n        /* \"#utility.yul\":3653:3659   */\n      dup5\n        /* \"#utility.yul\":3539:3667   */\n      tag_162\n      jump\t// in\n    tag_254:\n        /* \"#utility.yul\":3531:3667   */\n      swap1\n      pop\n        /* \"#utility.yul\":3261:3674   */\n      swap3\n      swap2\n      pop\n      pop\n      jump\t// out\n        /* \"#utility.yul\":3680:3755   */\n    tag_163:\n        /* \"#utility.yul\":3713:3719   */\n      0x00\n        /* \"#utility.yul\":3746:3748   */\n      0x40\n        /* \"#utility.yul\":3740:3749   */\n      mload\n        /* \"#utility.yul\":3730:3749   */\n      swap1\n      pop\n        /* \"#utility.yul\":3680:3755   */\n      swap1\n      jump\t// out\n        /* \"#utility.yul\":3761:3878   */\n    tag_164:\n        /* \"#utility.yul\":3870:3871   */\n      0x00\n        /* \"#utility.yul\":3867:3868   */\n      dup1\n        /* \"#utility.yul\":3860:3872   */\n      revert\n        /* \"#utility.yul\":3884:4001   */\n    tag_165:\n        /* \"#utility.yul\":3993:3994   */\n      0x00\n        /* \"#utility.yul\":3990:3991   */\n      dup1\n        /* \"#utility.yul\":3983:3995   */\n      revert\n        /* \"#utility.yul\":4007:4084   */\n    tag_166:\n        /* \"#utility.yul\":4044:4051   */\n      0x00\n        /* \"#utility.yul\":4073:4078   */\n      dup2\n        /* \"#utility.yul\":4062:4078   */\n      swap1\n      pop\n        /* \"#utility.yul\":4007:4084   */\n      swap2\n      swap1\n      pop\n      jump\t// out\n        /* \"#utility.yul\":4090:4212   */\n    tag_167:\n        /* \"#utility.yul\":4163:4187   */\n      tag_260\n        /* \"#utility.yul\":4181:4186   */\n      dup2\n        /* \"#utility.yul\":4163:4187   */\n      tag_166\n      jump\t// in\n    tag_260:\n        /* \"#utility.yul\":4156:4161   */\n      dup2\n        /* \"#utility.yul\":4153:4188   */\n      eq\n        /* \"#utility.yul\":4143:4206   */\n      tag_261\n      jumpi\n        /* \"#utility.yul\":4202:4203   */\n      0x00\n        /* \"#utility.yul\":4199:4200   */\n      dup1\n        /* \"#utility.yul\":4192:4204   */\n      revert\n        /* \"#utility.yul\":4143:4206   */\n    tag_261:\n        /* \"#utility.yul\":4090:4212   */\n      pop\n      jump\t// out\n        /* \"#utility.yul\":4218:4357   */\n    tag_168:\n        /* \"#utility.yul\":4264:4269   */\n      0x00\n        /* \"#utility.yul\":4302:4308   */\n      dup2\n        /* \"#utility.yul\":4289:4309   */\n      calldataload\n        /* \"#utility.yul\":4280:4309   */\n      swap1\n      pop\n        /* \"#utility.yul\":4318:4351   */\n      tag_263\n        /* \"#utility.yul\":4345:4350   */\n      dup2\n        /* \"#utility.yul\":4318:4351   */\n      tag_167\n      jump\t// in\n    tag_263:\n        /* \"#utility.yul\":4218:4357   */\n      swap3\n      swap2\n      pop\n      pop\n      jump\t// out\n        /* \"#utility.yul\":4363:4692   */\n    tag_25:\n        /* \"#utility.yul\":4422:4428   */\n      0x00\n        /* \"#utility.yul\":4471:4473   */\n      0x20\n        /* \"#utility.yul\":4459:4468   */\n      dup3\n        /* \"#utility.yul\":4450:4457   */\n      dup5\n        /* \"#utility.yul\":4446:4469   */\n      sub\n        /* \"#utility.yul\":4442:4474   */\n      slt\n        /* \"#utility.yul\":4439:4558   */\n      iszero\n      tag_265\n      jumpi\n        /* \"#utility.yul\":4477:4556   */\n      tag_266\n      tag_164\n      jump\t// in\n    tag_266:\n        /* \"#utility.yul\":4439:4558   */\n    tag_265:\n        /* \"#utility.yul\":4597:4598   */\n      0x00\n        /* \"#utility.yul\":4622:4675   */\n      tag_267\n        /* \"#utility.yul\":4667:4674   */\n      dup5\n        /* \"#utility.yul\":4658:4664   */\n      dup3\n        /* \"#utility.yul\":4647:4656   */\n      dup6\n        /* \"#utility.yul\":4643:4665   */\n      add\n        /* \"#utility.yul\":4622:4675   */\n      tag_168\n      jump\t// in\n    tag_267:\n        /* \"#utility.yul\":4612:4675   */\n      swap2\n      pop\n        /* \"#utility.yul\":4568:4685   */\n      pop\n        /* \"#utility.yul\":4363:4692   */\n      swap3\n      swap2\n      pop\n      pop\n      jump\t// out\n        /* \"#utility.yul\":4698:4867   */\n    tag_169:\n        /* \"#utility.yul\":4782:4793   */\n      0x00\n        /* \"#utility.yul\":4816:4822   */\n      dup3\n        /* \"#utility.yul\":4811:4814   */\n      dup3\n        /* \"#utility.yul\":4804:4823   */\n      mstore\n        /* \"#utility.yul\":4856:4860   */\n      0x20\n        /* \"#utility.yul\":4851:4854   */\n      dup3\n        /* \"#utility.yul\":4847:4861   */\n      add\n        /* \"#utility.yul\":4832:4861   */\n      swap1\n      pop\n        /* \"#utility.yul\":4698:4867   */\n      swap3\n      swap2\n      pop\n      pop\n      jump\t// out\n        /* \"#utility.yul\":4873:5250   */\n    tag_170:\n        /* \"#utility.yul\":4961:4964   */\n      0x00\n        /* \"#utility.yul\":4989:5028   */\n      tag_270\n        /* \"#utility.yul\":5022:5027   */\n      dup3\n        /* \"#utility.yul\":4989:5028   */\n      tag_155\n      jump\t// in\n    tag_270:\n        /* \"#utility.yul\":5044:5115   */\n      tag_271\n        /* \"#utility.yul\":5108:5114   */\n      dup2\n        /* \"#utility.yul\":5103:5106   */\n      dup6\n        /* \"#utility.yul\":5044:5115   */\n      tag_169\n      jump\t// in\n    tag_271:\n        /* \"#utility.yul\":5037:5115   */\n      swap4\n      pop\n        /* \"#utility.yul\":5124:5189   */\n      tag_272\n        /* \"#utility.yul\":5182:5188   */\n      dup2\n        /* \"#utility.yul\":5177:5180   */\n      dup6\n        /* \"#utility.yul\":5170:5174   */\n      0x20\n        /* \"#utility.yul\":5163:5168   */\n      dup7\n        /* \"#utility.yul\":5159:5175   */\n      add\n        /* \"#utility.yul\":5124:5189   */\n      tag_157\n      jump\t// in\n    tag_272:\n        /* \"#utility.yul\":5214:5243   */\n      tag_273\n        /* \"#utility.yul\":5236:5242   */\n      dup2\n        /* \"#utility.yul\":5214:5243   */\n      tag_158\n      jump\t// in\n    tag_273:\n        /* \"#utility.yul\":5209:5212   */\n      dup5\n        /* \"#utility.yul\":5205:5244   */\n      add\n        /* \"#utility.yul\":5198:5244   */\n      swap2\n      pop\n        /* \"#utility.yul\":4965:5250   */\n      pop\n        /* \"#utility.yul\":4873:5250   */\n      swap3\n      swap2\n      pop\n      pop\n      jump\t// out\n        /* \"#utility.yul\":5256:5569   */\n    tag_28:\n        /* \"#utility.yul\":5369:5373   */\n      0x00\n        /* \"#utility.yul\":5407:5409   */\n      0x20\n        /* \"#utility.yul\":5396:5405   */\n      dup3\n        /* \"#utility.yul\":5392:5410   */\n      add\n        /* \"#utility.yul\":5384:5410   */\n      swap1\n      pop\n        /* \"#utility.yul\":5456:5465   */\n      dup2\n        /* \"#utility.yul\":5450:5454   */\n      dup2\n        /* \"#utility.yul\":5446:5466   */\n      sub\n        /* \"#utility.yul\":5442:5443   */\n      0x00\n        /* \"#utility.yul\":5431:5440   */\n      dup4\n        /* \"#utility.yul\":5427:5444   */\n      add\n        /* \"#utility.yul\":5420:5467   */\n      mstore\n        /* \"#utility.yul\":5484:5562   */\n      tag_275\n        /* \"#utility.yul\":5557:5561   */\n      dup2\n        /* \"#utility.yul\":5548:5554   */\n      dup5\n        /* \"#utility.yul\":5484:5562   */\n      tag_170\n      jump\t// in\n    tag_275:\n        /* \"#utility.yul\":5476:5562   */\n      swap1\n      pop\n        /* \"#utility.yul\":5256:5569   */\n      swap3\n      swap2\n      pop\n      pop\n      jump\t// out\n        /* \"#utility.yul\":5575:5701   */\n    tag_171:\n        /* \"#utility.yul\":5612:5619   */\n      0x00\n        /* \"#utility.yul\":5652:5694   */\n      0xffffffffffffffffffffffffffffffffffffffff\n        /* \"#utility.yul\":5645:5650   */\n      dup3\n        /* \"#utility.yul\":5641:5695   */\n      and\n        /* \"#utility.yul\":5630:5695   */\n      swap1\n      pop\n        /* \"#utility.yul\":5575:5701   */\n      swap2\n      swap1\n      pop\n      jump\t// out\n        /* \"#utility.yul\":5707:5767   */\n    tag_172:\n        /* \"#utility.yul\":5735:5738   */\n      0x00\n        /* \"#utility.yul\":5756:5761   */\n      dup2\n        /* \"#utility.yul\":5749:5761   */\n      swap1\n      pop\n        /* \"#utility.yul\":5707:5767   */\n      swap2\n      swap1\n      pop\n      jump\t// out\n        /* \"#utility.yul\":5773:5915   */\n    tag_173:\n        /* \"#utility.yul\":5823:5832   */\n      0x00\n        /* \"#utility.yul\":5856:5909   */\n      tag_279\n        /* \"#utility.yul\":5874:5908   */\n      tag_280\n        /* \"#utility.yul\":5883:5907   */\n      tag_281\n        /* \"#utility.yul\":5901:5906   */\n      dup5\n        /* \"#utility.yul\":5883:5907   */\n      tag_171\n      jump\t// in\n    tag_281:\n        /* \"#utility.yul\":5874:5908   */\n      tag_172\n      jump\t// in\n    tag_280:\n        /* \"#utility.yul\":5856:5909   */\n      tag_171\n      jump\t// in\n    tag_279:\n        /* \"#utility.yul\":5843:5909   */\n      swap1\n      pop\n        /* \"#utility.yul\":5773:5915   */\n      swap2\n      swap1\n      pop\n      jump\t// out\n        /* \"#utility.yul\":5921:6047   */\n    tag_174:\n        /* \"#utility.yul\":5971:5980   */\n      0x00\n        /* \"#utility.yul\":6004:6041   */\n      tag_283\n        /* \"#utility.yul\":6035:6040   */\n      dup3\n        /* \"#utility.yul\":6004:6041   */\n      tag_173\n      jump\t// in\n    tag_283:\n        /* \"#utility.yul\":5991:6041   */\n      swap1\n      pop\n        /* \"#utility.yul\":5921:6047   */\n      swap2\n      swap1\n      pop\n      jump\t// out\n        /* \"#utility.yul\":6053:6192   */\n    tag_175:\n        /* \"#utility.yul\":6116:6125   */\n      0x00\n        /* \"#utility.yul\":6149:6186   */\n      tag_285\n        /* \"#utility.yul\":6180:6185   */\n      dup3\n        /* \"#utility.yul\":6149:6186   */\n      tag_174\n      jump\t// in\n    tag_285:\n        /* \"#utility.yul\":6136:6186   */\n      swap1\n      pop\n        /* \"#utility.yul\":6053:6192   */\n      swap2\n      swap1\n      pop\n      jump\t// out\n        /* \"#utility.yul\":6198:6355   */\n    tag_176:\n        /* \"#utility.yul\":6298:6348   */\n      tag_287\n        /* \"#utility.yul\":6342:6347   */\n      dup2\n        /* \"#utility.yul\":6298:6348   */\n      tag_175\n      jump\t// in\n    tag_287:\n        /* \"#utility.yul\":6293:6296   */\n      dup3\n        /* \"#utility.yul\":6286:6349   */\n      mstore\n        /* \"#utility.yul\":6198:6355   */\n      pop\n      pop\n      jump\t// out\n        /* \"#utility.yul\":6361:6609   */\n    tag_32:\n        /* \"#utility.yul\":6467:6471   */\n      0x00\n        /* \"#utility.yul\":6505:6507   */\n      0x20\n        /* \"#utility.yul\":6494:6503   */\n      dup3\n        /* \"#utility.yul\":6490:6508   */\n      add\n        /* \"#utility.yul\":6482:6508   */\n      swap1\n      pop\n        /* \"#utility.yul\":6518:6602   */\n      tag_289\n        /* \"#utility.yul\":6599:6600   */\n      0x00\n        /* \"#utility.yul\":6588:6597   */\n      dup4\n        /* \"#utility.yul\":6584:6601   */\n      add\n        /* \"#utility.yul\":6575:6581   */\n      dup5\n        /* \"#utility.yul\":6518:6602   */\n      tag_176\n      jump\t// in\n    tag_289:\n        /* \"#utility.yul\":6361:6609   */\n      swap3\n      swap2\n      pop\n      pop\n      jump\t// out\n        /* \"#utility.yul\":6615:6762   */\n    tag_177:\n        /* \"#utility.yul\":6686:6695   */\n      0x00\n        /* \"#utility.yul\":6719:6756   */\n      tag_291\n        /* \"#utility.yul\":6750:6755   */\n      dup3\n        /* \"#utility.yul\":6719:6756   */\n      tag_174\n      jump\t// in\n    tag_291:\n        /* \"#utility.yul\":6706:6756   */\n      swap1\n      pop\n        /* \"#utility.yul\":6615:6762   */\n      swap2\n      swap1\n      pop\n      jump\t// out\n        /* \"#utility.yul\":6768:6941   */\n    tag_178:\n        /* \"#utility.yul\":6876:6934   */\n      tag_293\n        /* \"#utility.yul\":6928:6933   */\n      dup2\n        /* \"#utility.yul\":6876:6934   */\n      tag_177\n      jump\t// in\n    tag_293:\n        /* \"#utility.yul\":6871:6874   */\n      dup3\n        /* \"#utility.yul\":6864:6935   */\n      mstore\n        /* \"#utility.yul\":6768:6941   */\n      pop\n      pop\n      jump\t// out\n        /* \"#utility.yul\":6947:7211   */\n    tag_41:\n        /* \"#utility.yul\":7061:7065   */\n      0x00\n        /* \"#utility.yul\":7099:7101   */\n      0x20\n        /* \"#utility.yul\":7088:7097   */\n      dup3\n        /* \"#utility.yul\":7084:7102   */\n      add\n        /* \"#utility.yul\":7076:7102   */\n      swap1\n      pop\n        /* \"#utility.yul\":7112:7204   */\n      tag_295\n        /* \"#utility.yul\":7201:7202   */\n      0x00\n        /* \"#utility.yul\":7190:7199   */\n      dup4\n        /* \"#utility.yul\":7186:7203   */\n      add\n        /* \"#utility.yul\":7177:7183   */\n      dup5\n        /* \"#utility.yul\":7112:7204   */\n      tag_178\n      jump\t// in\n    tag_295:\n        /* \"#utility.yul\":6947:7211   */\n      swap3\n      swap2\n      pop\n      pop\n      jump\t// out\n        /* \"#utility.yul\":7217:7313   */\n    tag_179:\n        /* \"#utility.yul\":7254:7261   */\n      0x00\n        /* \"#utility.yul\":7283:7307   */\n      tag_297\n        /* \"#utility.yul\":7301:7306   */\n      dup3\n        /* \"#utility.yul\":7283:7307   */\n      tag_171\n      jump\t// in\n    tag_297:\n        /* \"#utility.yul\":7272:7307   */\n      swap1\n      pop\n        /* \"#utility.yul\":7217:7313   */\n      swap2\n      swap1\n      pop\n      jump\t// out\n        /* \"#utility.yul\":7319:7437   */\n    tag_180:\n        /* \"#utility.yul\":7406:7430   */\n      tag_299\n        /* \"#utility.yul\":7424:7429   */\n      dup2\n        /* \"#utility.yul\":7406:7430   */\n      tag_179\n      jump\t// in\n    tag_299:\n        /* \"#utility.yul\":7401:7404   */\n      dup3\n        /* \"#utility.yul\":7394:7431   */\n      mstore\n        /* \"#utility.yul\":7319:7437   */\n      pop\n      pop\n      jump\t// out\n        /* \"#utility.yul\":7443:7665   */\n    tag_45:\n        /* \"#utility.yul\":7536:7540   */\n      0x00\n        /* \"#utility.yul\":7574:7576   */\n      0x20\n        /* \"#utility.yul\":7563:7572   */\n      dup3\n        /* \"#utility.yul\":7559:7577   */\n      add\n        /* \"#utility.yul\":7551:7577   */\n      swap1\n      pop\n        /* \"#utility.yul\":7587:7658   */\n      tag_301\n        /* \"#utility.yul\":7655:7656   */\n      0x00\n        /* \"#utility.yul\":7644:7653   */\n      dup4\n        /* \"#utility.yul\":7640:7657   */\n      add\n        /* \"#utility.yul\":7631:7637   */\n      dup5\n        /* \"#utility.yul\":7587:7658   */\n      tag_180\n      jump\t// in\n    tag_301:\n        /* \"#utility.yul\":7443:7665   */\n      swap3\n      swap2\n      pop\n      pop\n      jump\t// out\n        /* \"#utility.yul\":7671:7788   */\n    tag_181:\n        /* \"#utility.yul\":7780:7781   */\n      0x00\n        /* \"#utility.yul\":7777:7778   */\n      dup1\n        /* \"#utility.yul\":7770:7782   */\n      revert\n        /* \"#utility.yul\":7794:7911   */\n    tag_182:\n        /* \"#utility.yul\":7903:7904   */\n      0x00\n        /* \"#utility.yul\":7900:7901   */\n      dup1\n        /* \"#utility.yul\":7893:7905   */\n      revert\n        /* \"#utility.yul\":7917:8097   */\n    tag_183:\n        /* \"#utility.yul\":7965:8042   */\n      0x4e487b7100000000000000000000000000000000000000000000000000000000\n        /* \"#utility.yul\":7962:7963   */\n      0x00\n        /* \"#utility.yul\":7955:8043   */\n      mstore\n        /* \"#utility.yul\":8062:8066   */\n      0x41\n        /* \"#utility.yul\":8059:8060   */\n      0x04\n        /* \"#utility.yul\":8052:8067   */\n      mstore\n        /* \"#utility.yul\":8086:8090   */\n      0x24\n        /* \"#utility.yul\":8083:8084   */\n      0x00\n        /* \"#utility.yul\":8076:8091   */\n      revert\n        /* \"#utility.yul\":8103:8384   */\n    tag_184:\n        /* \"#utility.yul\":8186:8213   */\n      tag_306\n        /* \"#utility.yul\":8208:8212   */\n      dup3\n        /* \"#utility.yul\":8186:8213   */\n      tag_158\n      jump\t// in\n    tag_306:\n        /* \"#utility.yul\":8178:8184   */\n      dup2\n        /* \"#utility.yul\":8174:8214   */\n      add\n        /* \"#utility.yul\":8316:8322   */\n      dup2\n        /* \"#utility.yul\":8304:8314   */\n      dup2\n        /* \"#utility.yul\":8301:8323   */\n      lt\n        /* \"#utility.yul\":8280:8298   */\n      0xffffffffffffffff\n        /* \"#utility.yul\":8268:8278   */\n      dup3\n        /* \"#utility.yul\":8265:8299   */\n      gt\n        /* \"#utility.yul\":8262:8324   */\n      or\n        /* \"#utility.yul\":8259:8347   */\n      iszero\n      tag_307\n      jumpi\n        /* \"#utility.yul\":8327:8345   */\n      tag_308\n      tag_183\n      jump\t// in\n    tag_308:\n        /* \"#utility.yul\":8259:8347   */\n    tag_307:\n        /* \"#utility.yul\":8367:8377   */\n      dup1\n        /* \"#utility.yul\":8363:8365   */\n      0x40\n        /* \"#utility.yul\":8356:8378   */\n      mstore\n        /* \"#utility.yul\":8146:8384   */\n      pop\n        /* \"#utility.yul\":8103:8384   */\n      pop\n      pop\n      jump\t// out\n        /* \"#utility.yul\":8390:8519   */\n    tag_185:\n        /* \"#utility.yul\":8424:8430   */\n      0x00\n        /* \"#utility.yul\":8451:8471   */\n      tag_310\n      tag_163\n      jump\t// in\n    tag_310:\n        /* \"#utility.yul\":8441:8471   */\n      swap1\n      pop\n        /* \"#utility.yul\":8480:8513   */\n      tag_311\n        /* \"#utility.yul\":8508:8512   */\n      dup3\n        /* \"#utility.yul\":8500:8506   */\n      dup3\n        /* \"#utility.yul\":8480:8513   */\n      tag_184\n      jump\t// in\n    tag_311:\n        /* \"#utility.yul\":8390:8519   */\n      swap2\n      swap1\n      pop\n      jump\t// out\n        /* \"#utility.yul\":8525:8833   */\n    tag_186:\n        /* \"#utility.yul\":8587:8591   */\n      0x00\n        /* \"#utility.yul\":8677:8695   */\n      0xffffffffffffffff\n        /* \"#utility.yul\":8669:8675   */\n      dup3\n        /* \"#utility.yul\":8666:8696   */\n      gt\n        /* \"#utility.yul\":8663:8719   */\n      iszero\n      tag_313\n      jumpi\n        /* \"#utility.yul\":8699:8717   */\n      tag_314\n      tag_183\n      jump\t// in\n    tag_314:\n        /* \"#utility.yul\":8663:8719   */\n    tag_313:\n        /* \"#utility.yul\":8737:8766   */\n      tag_315\n        /* \"#utility.yul\":8759:8765   */\n      dup3\n        /* \"#utility.yul\":8737:8766   */\n      tag_158\n      jump\t// in\n    tag_315:\n        /* \"#utility.yul\":8729:8766   */\n      swap1\n      pop\n        /* \"#utility.yul\":8821:8825   */\n      0x20\n        /* \"#utility.yul\":8815:8819   */\n      dup2\n        /* \"#utility.yul\":8811:8826   */\n      add\n        /* \"#utility.yul\":8803:8826   */\n      swap1\n      pop\n        /* \"#utility.yul\":8525:8833   */\n      swap2\n      swap1\n      pop\n      jump\t// out\n        /* \"#utility.yul\":8839:8985   */\n    tag_187:\n        /* \"#utility.yul\":8936:8942   */\n      dup3\n        /* \"#utility.yul\":8931:8934   */\n      dup2\n        /* \"#utility.yul\":8926:8929   */\n      dup4\n        /* \"#utility.yul\":8913:8943   */\n      calldatacopy\n        /* \"#utility.yul\":8977:8978   */\n      0x00\n        /* \"#utility.yul\":8968:8974   */\n      dup4\n        /* \"#utility.yul\":8963:8966   */\n      dup4\n        /* \"#utility.yul\":8959:8975   */\n      add\n        /* \"#utility.yul\":8952:8979   */\n      mstore\n        /* \"#utility.yul\":8839:8985   */\n      pop\n      pop\n      pop\n      jump\t// out\n        /* \"#utility.yul\":8991:9416   */\n    tag_188:\n        /* \"#utility.yul\":9069:9074   */\n      0x00\n        /* \"#utility.yul\":9094:9160   */\n      tag_318\n        /* \"#utility.yul\":9110:9159   */\n      tag_319\n        /* \"#utility.yul\":9152:9158   */\n      dup5\n        /* \"#utility.yul\":9110:9159   */\n      tag_186\n      jump\t// in\n    tag_319:\n        /* \"#utility.yul\":9094:9160   */\n      tag_185\n      jump\t// in\n    tag_318:\n        /* \"#utility.yul\":9085:9160   */\n      swap1\n      pop\n        /* \"#utility.yul\":9183:9189   */\n      dup3\n        /* \"#utility.yul\":9176:9181   */\n      dup2\n        /* \"#utility.yul\":9169:9190   */\n      mstore\n        /* \"#utility.yul\":9221:9225   */\n      0x20\n        /* \"#utility.yul\":9214:9219   */\n      dup2\n        /* \"#utility.yul\":9210:9226   */\n      add\n        /* \"#utility.yul\":9259:9262   */\n      dup5\n        /* \"#utility.yul\":9250:9256   */\n      dup5\n        /* \"#utility.yul\":9245:9248   */\n      dup5\n        /* \"#utility.yul\":9241:9257   */\n      add\n        /* \"#utility.yul\":9238:9263   */\n      gt\n        /* \"#utility.yul\":9235:9347   */\n      iszero\n      tag_320\n      jumpi\n        /* \"#utility.yul\":9266:9345   */\n      tag_321\n      tag_182\n      jump\t// in\n    tag_321:\n        /* \"#utility.yul\":9235:9347   */\n    tag_320:\n        /* \"#utility.yul\":9356:9410   */\n      tag_322\n        /* \"#utility.yul\":9403:9409   */\n      dup5\n        /* \"#utility.yul\":9398:9401   */\n      dup3\n        /* \"#utility.yul\":9393:9396   */\n      dup6\n        /* \"#utility.yul\":9356:9410   */\n      tag_187\n      jump\t// in\n    tag_322:\n        /* \"#utility.yul\":9075:9416   */\n      pop\n        /* \"#utility.yul\":8991:9416   */\n      swap4\n      swap3\n      pop\n      pop\n      pop\n      jump\t// out\n        /* \"#utility.yul\":9436:9776   */\n    tag_189:\n        /* \"#utility.yul\":9492:9497   */\n      0x00\n        /* \"#utility.yul\":9541:9544   */\n      dup3\n        /* \"#utility.yul\":9534:9538   */\n      0x1f\n        /* \"#utility.yul\":9526:9532   */\n      dup4\n        /* \"#utility.yul\":9522:9539   */\n      add\n        /* \"#utility.yul\":9518:9545   */\n      slt\n        /* \"#utility.yul\":9508:9630   */\n      tag_324\n      jumpi\n        /* \"#utility.yul\":9549:9628   */\n      tag_325\n      tag_181\n      jump\t// in\n    tag_325:\n        /* \"#utility.yul\":9508:9630   */\n    tag_324:\n        /* \"#utility.yul\":9666:9672   */\n      dup2\n        /* \"#utility.yul\":9653:9673   */\n      calldataload\n        /* \"#utility.yul\":9691:9770   */\n      tag_326\n        /* \"#utility.yul\":9766:9769   */\n      dup5\n        /* \"#utility.yul\":9758:9764   */\n      dup3\n        /* \"#utility.yul\":9751:9755   */\n      0x20\n        /* \"#utility.yul\":9743:9749   */\n      dup7\n        /* \"#utility.yul\":9739:9756   */\n      add\n        /* \"#utility.yul\":9691:9770   */\n      tag_188\n      jump\t// in\n    tag_326:\n        /* \"#utility.yul\":9682:9770   */\n      swap2\n      pop\n        /* \"#utility.yul\":9498:9776   */\n      pop\n        /* \"#utility.yul\":9436:9776   */\n      swap3\n      swap2\n      pop\n      pop\n      jump\t// out\n        /* \"#utility.yul\":9782:10291   */\n    tag_53:\n        /* \"#utility.yul\":9851:9857   */\n      0x00\n        /* \"#utility.yul\":9900:9902   */\n      0x20\n        /* \"#utility.yul\":9888:9897   */\n      dup3\n        /* \"#utility.yul\":9879:9886   */\n      dup5\n        /* \"#utility.yul\":9875:9898   */\n      sub\n        /* \"#utility.yul\":9871:9903   */\n      slt\n        /* \"#utility.yul\":9868:9987   */\n      iszero\n      tag_328\n      jumpi\n        /* \"#utility.yul\":9906:9985   */\n      tag_329\n      tag_164\n      jump\t// in\n    tag_329:\n        /* \"#utility.yul\":9868:9987   */\n    tag_328:\n        /* \"#utility.yul\":10054:10055   */\n      0x00\n        /* \"#utility.yul\":10043:10052   */\n      dup3\n        /* \"#utility.yul\":10039:10056   */\n      add\n        /* \"#utility.yul\":10026:10057   */\n      calldataload\n        /* \"#utility.yul\":10084:10102   */\n      0xffffffffffffffff\n        /* \"#utility.yul\":10076:10082   */\n      dup2\n        /* \"#utility.yul\":10073:10103   */\n      gt\n        /* \"#utility.yul\":10070:10187   */\n      iszero\n      tag_330\n      jumpi\n        /* \"#utility.yul\":10106:10185   */\n      tag_331\n      tag_165\n      jump\t// in\n    tag_331:\n        /* \"#utility.yul\":10070:10187   */\n    tag_330:\n        /* \"#utility.yul\":10211:10274   */\n      tag_332\n        /* \"#utility.yul\":10266:10273   */\n      dup5\n        /* \"#utility.yul\":10257:10263   */\n      dup3\n        /* \"#utility.yul\":10246:10255   */\n      dup6\n        /* \"#utility.yul\":10242:10264   */\n      add\n        /* \"#utility.yul\":10211:10274   */\n      tag_189\n      jump\t// in\n    tag_332:\n        /* \"#utility.yul\":10201:10274   */\n      swap2\n      pop\n        /* \"#utility.yul\":9997:10284   */\n      pop\n        /* \"#utility.yul\":9782:10291   */\n      swap3\n      swap2\n      pop\n      pop\n      jump\t// out\n        /* \"#utility.yul\":10297:10395   */\n    tag_190:\n        /* \"#utility.yul\":10348:10354   */\n      0x00\n        /* \"#utility.yul\":10382:10387   */\n      dup2\n        /* \"#utility.yul\":10376:10388   */\n      mload\n        /* \"#utility.yul\":10366:10388   */\n      swap1\n      pop\n        /* \"#utility.yul\":10297:10395   */\n      swap2\n      swap1\n      pop\n      jump\t// out\n        /* \"#utility.yul\":10401:10548   */\n    tag_191:\n        /* \"#utility.yul\":10502:10513   */\n      0x00\n        /* \"#utility.yul\":10539:10542   */\n      dup2\n        /* \"#utility.yul\":10524:10542   */\n      swap1\n      pop\n        /* \"#utility.yul\":10401:10548   */\n      swap3\n      swap2\n      pop\n      pop\n      jump\t// out\n        /* \"#utility.yul\":10554:10940   */\n    tag_192:\n        /* \"#utility.yul\":10658:10661   */\n      0x00\n        /* \"#utility.yul\":10686:10724   */\n      tag_336\n        /* \"#utility.yul\":10718:10723   */\n      dup3\n        /* \"#utility.yul\":10686:10724   */\n      tag_190\n      jump\t// in\n    tag_336:\n        /* \"#utility.yul\":10740:10828   */\n      tag_337\n        /* \"#utility.yul\":10821:10827   */\n      dup2\n        /* \"#utility.yul\":10816:10819   */\n      dup6\n        /* \"#utility.yul\":10740:10828   */\n      tag_191\n      jump\t// in\n    tag_337:\n        /* \"#utility.yul\":10733:10828   */\n      swap4\n      pop\n        /* \"#utility.yul\":10837:10902   */\n      tag_338\n        /* \"#utility.yul\":10895:10901   */\n      dup2\n        /* \"#utility.yul\":10890:10893   */\n      dup6\n        /* \"#utility.yul\":10883:10887   */\n      0x20\n        /* \"#utility.yul\":10876:10881   */\n      dup7\n        /* \"#utility.yul\":10872:10888   */\n      add\n        /* \"#utility.yul\":10837:10902   */\n      tag_157\n      jump\t// in\n    tag_338:\n        /* \"#utility.yul\":10927:10933   */\n      dup1\n        /* \"#utility.yul\":10922:10925   */\n      dup5\n        /* \"#utility.yul\":10918:10934   */\n      add\n        /* \"#utility.yul\":10911:10934   */\n      swap2\n      pop\n        /* \"#utility.yul\":10662:10940   */\n      pop\n        /* \"#utility.yul\":10554:10940   */\n      swap3\n      swap2\n      pop\n      pop\n      jump\t// out\n        /* \"#utility.yul\":10946:11217   */\n    tag_57:\n        /* \"#utility.yul\":11076:11079   */\n      0x00\n        /* \"#utility.yul\":11098:11191   */\n      tag_340\n        /* \"#utility.yul\":11187:11190   */\n      dup3\n        /* \"#utility.yul\":11178:11184   */\n      dup5\n        /* \"#utility.yul\":11098:11191   */\n      tag_192\n      jump\t// in\n    tag_340:\n        /* \"#utility.yul\":11091:11191   */\n      swap2\n      pop\n        /* \"#utility.yul\":11208:11211   */\n      dup2\n        /* \"#utility.yul\":11201:11211   */\n      swap1\n      pop\n        /* \"#utility.yul\":10946:11217   */\n      swap3\n      swap2\n      pop\n      pop\n      jump\t// out\n        /* \"#utility.yul\":11223:11396   */\n    tag_193:\n        /* \"#utility.yul\":11363:11388   */\n      0x4661696c656420746f20666574636820726573756c7473000000000000000000\n        /* \"#utility.yul\":11359:11360   */\n      0x00\n        /* \"#utility.yul\":11351:11357   */\n      dup3\n        /* \"#utility.yul\":11347:11361   */\n      add\n        /* \"#utility.yul\":11340:11389   */\n      mstore\n        /* \"#utility.yul\":11223:11396   */\n      pop\n      jump\t// out\n        /* \"#utility.yul\":11402:11768   */\n    tag_194:\n        /* \"#utility.yul\":11544:11547   */\n      0x00\n        /* \"#utility.yul\":11565:11632   */\n      tag_343\n        /* \"#utility.yul\":11629:11631   */\n      0x17\n        /* \"#utility.yul\":11624:11627   */\n      dup4\n        /* \"#utility.yul\":11565:11632   */\n      tag_169\n      jump\t// in\n    tag_343:\n        /* \"#utility.yul\":11558:11632   */\n      swap2\n      pop\n        /* \"#utility.yul\":11641:11734   */\n      tag_344\n        /* \"#utility.yul\":11730:11733   */\n      dup3\n        /* \"#utility.yul\":11641:11734   */\n      tag_193\n      jump\t// in\n    tag_344:\n        /* \"#utility.yul\":11759:11761   */\n      0x20\n        /* \"#utility.yul\":11754:11757   */\n      dup3\n        /* \"#utility.yul\":11750:11762   */\n      add\n        /* \"#utility.yul\":11743:11762   */\n      swap1\n      pop\n        /* \"#utility.yul\":11402:11768   */\n      swap2\n      swap1\n      pop\n      jump\t// out\n        /* \"#utility.yul\":11774:12193   */\n    tag_63:\n        /* \"#utility.yul\":11940:11944   */\n      0x00\n        /* \"#utility.yul\":11978:11980   */\n      0x20\n        /* \"#utility.yul\":11967:11976   */\n      dup3\n        /* \"#utility.yul\":11963:11981   */\n      add\n        /* \"#utility.yul\":11955:11981   */\n      swap1\n      pop\n        /* \"#utility.yul\":12027:12036   */\n      dup2\n        /* \"#utility.yul\":12021:12025   */\n      dup2\n        /* \"#utility.yul\":12017:12037   */\n      sub\n        /* \"#utility.yul\":12013:12014   */\n      0x00\n        /* \"#utility.yul\":12002:12011   */\n      dup4\n        /* \"#utility.yul\":11998:12015   */\n      add\n        /* \"#utility.yul\":11991:12038   */\n      mstore\n        /* \"#utility.yul\":12055:12186   */\n      tag_346\n        /* \"#utility.yul\":12181:12185   */\n      dup2\n        /* \"#utility.yul\":12055:12186   */\n      tag_194\n      jump\t// in\n    tag_346:\n        /* \"#utility.yul\":12047:12186   */\n      swap1\n      pop\n        /* \"#utility.yul\":11774:12193   */\n      swap2\n      swap1\n      pop\n      jump\t// out\n        /* \"#utility.yul\":12199:12315   */\n    tag_195:\n        /* \"#utility.yul\":12269:12290   */\n      tag_348\n        /* \"#utility.yul\":12284:12289   */\n      dup2\n        /* \"#utility.yul\":12269:12290   */\n      tag_150\n      jump\t// in\n    tag_348:\n        /* \"#utility.yul\":12262:12267   */\n      dup2\n        /* \"#utility.yul\":12259:12291   */\n      eq\n        /* \"#utility.yul\":12249:12309   */\n      tag_349\n      jumpi\n        /* \"#utility.yul\":12305:12306   */\n      0x00\n        /* \"#utility.yul\":12302:12303   */\n      dup1\n        /* \"#utility.yul\":12295:12307   */\n      revert\n        /* \"#utility.yul\":12249:12309   */\n    tag_349:\n        /* \"#utility.yul\":12199:12315   */\n      pop\n      jump\t// out\n        /* \"#utility.yul\":12321:12458   */\n    tag_196:\n        /* \"#utility.yul\":12375:12380   */\n      0x00\n        /* \"#utility.yul\":12406:12412   */\n      dup2\n        /* \"#utility.yul\":12400:12413   */\n      mload\n        /* \"#utility.yul\":12391:12413   */\n      swap1\n      pop\n        /* \"#utility.yul\":12422:12452   */\n      tag_351\n        /* \"#utility.yul\":12446:12451   */\n      dup2\n        /* \"#utility.yul\":12422:12452   */\n      tag_195\n      jump\t// in\n    tag_351:\n        /* \"#utility.yul\":12321:12458   */\n      swap3\n      swap2\n      pop\n      pop\n      jump\t// out\n        /* \"#utility.yul\":12464:12809   */\n    tag_65:\n        /* \"#utility.yul\":12531:12537   */\n      0x00\n        /* \"#utility.yul\":12580:12582   */\n      0x20\n        /* \"#utility.yul\":12568:12577   */\n      dup3\n        /* \"#utility.yul\":12559:12566   */\n      dup5\n        /* \"#utility.yul\":12555:12578   */\n      sub\n        /* \"#utility.yul\":12551:12583   */\n      slt\n        /* \"#utility.yul\":12548:12667   */\n      iszero\n      tag_353\n      jumpi\n        /* \"#utility.yul\":12586:12665   */\n      tag_354\n      tag_164\n      jump\t// in\n    tag_354:\n        /* \"#utility.yul\":12548:12667   */\n    tag_353:\n        /* \"#utility.yul\":12706:12707   */\n      0x00\n        /* \"#utility.yul\":12731:12792   */\n      tag_355\n        /* \"#utility.yul\":12784:12791   */\n      dup5\n        /* \"#utility.yul\":12775:12781   */\n      dup3\n        /* \"#utility.yul\":12764:12773   */\n      dup6\n        /* \"#utility.yul\":12760:12782   */\n      add\n        /* \"#utility.yul\":12731:12792   */\n      tag_196\n      jump\t// in\n    tag_355:\n        /* \"#utility.yul\":12721:12792   */\n      swap2\n      pop\n        /* \"#utility.yul\":12677:12802   */\n      pop\n        /* \"#utility.yul\":12464:12809   */\n      swap3\n      swap2\n      pop\n      pop\n      jump\t// out\n        /* \"#utility.yul\":12815:12995   */\n    tag_197:\n        /* \"#utility.yul\":12863:12940   */\n      0x4e487b7100000000000000000000000000000000000000000000000000000000\n        /* \"#utility.yul\":12860:12861   */\n      0x00\n        /* \"#utility.yul\":12853:12941   */\n      mstore\n        /* \"#utility.yul\":12960:12964   */\n      0x22\n        /* \"#utility.yul\":12957:12958   */\n      0x04\n        /* \"#utility.yul\":12950:12965   */\n      mstore\n        /* \"#utility.yul\":12984:12988   */\n      0x24\n        /* \"#utility.yul\":12981:12982   */\n      0x00\n        /* \"#utility.yul\":12974:12989   */\n      revert\n        /* \"#utility.yul\":13001:13321   */\n    tag_71:\n        /* \"#utility.yul\":13045:13051   */\n      0x00\n        /* \"#utility.yul\":13082:13083   */\n      0x02\n        /* \"#utility.yul\":13076:13080   */\n      dup3\n        /* \"#utility.yul\":13072:13084   */\n      div\n        /* \"#utility.yul\":13062:13084   */\n      swap1\n      pop\n        /* \"#utility.yul\":13129:13130   */\n      0x01\n        /* \"#utility.yul\":13123:13127   */\n      dup3\n        /* \"#utility.yul\":13119:13131   */\n      and\n        /* \"#utility.yul\":13150:13168   */\n      dup1\n        /* \"#utility.yul\":13140:13221   */\n      tag_358\n      jumpi\n        /* \"#utility.yul\":13206:13210   */\n      0x7f\n        /* \"#utility.yul\":13198:13204   */\n      dup3\n        /* \"#utility.yul\":13194:13211   */\n      and\n        /* \"#utility.yul\":13184:13211   */\n      swap2\n      pop\n        /* \"#utility.yul\":13140:13221   */\n    tag_358:\n        /* \"#utility.yul\":13268:13270   */\n      0x20\n        /* \"#utility.yul\":13260:13266   */\n      dup3\n        /* \"#utility.yul\":13257:13271   */\n      lt\n        /* \"#utility.yul\":13237:13255   */\n      dup2\n        /* \"#utility.yul\":13234:13272   */\n      sub\n        /* \"#utility.yul\":13231:13315   */\n      tag_359\n      jumpi\n        /* \"#utility.yul\":13287:13305   */\n      tag_360\n      tag_197\n      jump\t// in\n    tag_360:\n        /* \"#utility.yul\":13231:13315   */\n    tag_359:\n        /* \"#utility.yul\":13052:13321   */\n      pop\n        /* \"#utility.yul\":13001:13321   */\n      swap2\n      swap1\n      pop\n      jump\t// out\n        /* \"#utility.yul\":13327:13548   */\n    tag_198:\n        /* \"#utility.yul\":13467:13501   */\n      0x4f6e6c79206f776e65722063616e20706572666f726d20746869732061637469\n        /* \"#utility.yul\":13463:13464   */\n      0x00\n        /* \"#utility.yul\":13455:13461   */\n      dup3\n        /* \"#utility.yul\":13451:13465   */\n      add\n        /* \"#utility.yul\":13444:13502   */\n      mstore\n        /* \"#utility.yul\":13536:13540   */\n      0x6f6e000000000000000000000000000000000000000000000000000000000000\n        /* \"#utility.yul\":13531:13533   */\n      0x20\n        /* \"#utility.yul\":13523:13529   */\n      dup3\n        /* \"#utility.yul\":13519:13534   */\n      add\n        /* \"#utility.yul\":13512:13541   */\n      mstore\n        /* \"#utility.yul\":13327:13548   */\n      pop\n      jump\t// out\n        /* \"#utility.yul\":13554:13920   */\n    tag_199:\n        /* \"#utility.yul\":13696:13699   */\n      0x00\n        /* \"#utility.yul\":13717:13784   */\n      tag_363\n        /* \"#utility.yul\":13781:13783   */\n      0x22\n        /* \"#utility.yul\":13776:13779   */\n      dup4\n        /* \"#utility.yul\":13717:13784   */\n      tag_169\n      jump\t// in\n    tag_363:\n        /* \"#utility.yul\":13710:13784   */\n      swap2\n      pop\n        /* \"#utility.yul\":13793:13886   */\n      tag_364\n        /* \"#utility.yul\":13882:13885   */\n      dup3\n        /* \"#utility.yul\":13793:13886   */\n      tag_198\n      jump\t// in\n    tag_364:\n        /* \"#utility.yul\":13911:13913   */\n      0x40\n        /* \"#utility.yul\":13906:13909   */\n      dup3\n        /* \"#utility.yul\":13902:13914   */\n      add\n        /* \"#utility.yul\":13895:13914   */\n      swap1\n      pop\n        /* \"#utility.yul\":13554:13920   */\n      swap2\n      swap1\n      pop\n      jump\t// out\n        /* \"#utility.yul\":13926:14345   */\n    tag_86:\n        /* \"#utility.yul\":14092:14096   */\n      0x00\n        /* \"#utility.yul\":14130:14132   */\n      0x20\n        /* \"#utility.yul\":14119:14128   */\n      dup3\n        /* \"#utility.yul\":14115:14133   */\n      add\n        /* \"#utility.yul\":14107:14133   */\n      swap1\n      pop\n        /* \"#utility.yul\":14179:14188   */\n      dup2\n        /* \"#utility.yul\":14173:14177   */\n      dup2\n        /* \"#utility.yul\":14169:14189   */\n      sub\n        /* \"#utility.yul\":14165:14166   */\n      0x00\n        /* \"#utility.yul\":14154:14163   */\n      dup4\n        /* \"#utility.yul\":14150:14167   */\n      add\n        /* \"#utility.yul\":14143:14190   */\n      mstore\n        /* \"#utility.yul\":14207:14338   */\n      tag_366\n        /* \"#utility.yul\":14333:14337   */\n      dup2\n        /* \"#utility.yul\":14207:14338   */\n      tag_199\n      jump\t// in\n    tag_366:\n        /* \"#utility.yul\":14199:14338   */\n      swap1\n      pop\n        /* \"#utility.yul\":13926:14345   */\n      swap2\n      swap1\n      pop\n      jump\t// out\n        /* \"#utility.yul\":14351:14516   */\n    tag_200:\n        /* \"#utility.yul\":14491:14508   */\n      0x416c726561647920737461727465640000000000000000000000000000000000\n        /* \"#utility.yul\":14487:14488   */\n      0x00\n        /* \"#utility.yul\":14479:14485   */\n      dup3\n        /* \"#utility.yul\":14475:14489   */\n      add\n        /* \"#utility.yul\":14468:14509   */\n      mstore\n        /* \"#utility.yul\":14351:14516   */\n      pop\n      jump\t// out\n        /* \"#utility.yul\":14522:14888   */\n    tag_201:\n        /* \"#utility.yul\":14664:14667   */\n      0x00\n        /* \"#utility.yul\":14685:14752   */\n      tag_369\n        /* \"#utility.yul\":14749:14751   */\n      0x0f\n        /* \"#utility.yul\":14744:14747   */\n      dup4\n        /* \"#utility.yul\":14685:14752   */\n      tag_169\n      jump\t// in\n    tag_369:\n        /* \"#utility.yul\":14678:14752   */\n      swap2\n      pop\n        /* \"#utility.yul\":14761:14854   */\n      tag_370\n        /* \"#utility.yul\":14850:14853   */\n      dup3\n        /* \"#utility.yul\":14761:14854   */\n      tag_200\n      jump\t// in\n    tag_370:\n        /* \"#utility.yul\":14879:14881   */\n      0x20\n        /* \"#utility.yul\":14874:14877   */\n      dup3\n        /* \"#utility.yul\":14870:14882   */\n      add\n        /* \"#utility.yul\":14863:14882   */\n      swap1\n      pop\n        /* \"#utility.yul\":14522:14888   */\n      swap2\n      swap1\n      pop\n      jump\t// out\n        /* \"#utility.yul\":14894:15313   */\n    tag_90:\n        /* \"#utility.yul\":15060:15064   */\n      0x00\n        /* \"#utility.yul\":15098:15100   */\n      0x20\n        /* \"#utility.yul\":15087:15096   */\n      dup3\n        /* \"#utility.yul\":15083:15101   */\n      add\n        /* \"#utility.yul\":15075:15101   */\n      swap1\n      pop\n        /* \"#utility.yul\":15147:15156   */\n      dup2\n        /* \"#utility.yul\":15141:15145   */\n      dup2\n        /* \"#utility.yul\":15137:15157   */\n      sub\n        /* \"#utility.yul\":15133:15134   */\n      0x00\n        /* \"#utility.yul\":15122:15131   */\n      dup4\n        /* \"#utility.yul\":15118:15135   */\n      add\n        /* \"#utility.yul\":15111:15158   */\n      mstore\n        /* \"#utility.yul\":15175:15306   */\n      tag_372\n        /* \"#utility.yul\":15301:15305   */\n      dup2\n        /* \"#utility.yul\":15175:15306   */\n      tag_201\n      jump\t// in\n    tag_372:\n        /* \"#utility.yul\":15167:15306   */\n      swap1\n      pop\n        /* \"#utility.yul\":14894:15313   */\n      swap2\n      swap1\n      pop\n      jump\t// out\n        /* \"#utility.yul\":15319:15486   */\n    tag_202:\n        /* \"#utility.yul\":15459:15478   */\n      0x416c7265616479207075626c6973686564000000000000000000000000000000\n        /* \"#utility.yul\":15455:15456   */\n      0x00\n        /* \"#utility.yul\":15447:15453   */\n      dup3\n        /* \"#utility.yul\":15443:15457   */\n      add\n        /* \"#utility.yul\":15436:15479   */\n      mstore\n        /* \"#utility.yul\":15319:15486   */\n      pop\n      jump\t// out\n        /* \"#utility.yul\":15492:15858   */\n    tag_203:\n        /* \"#utility.yul\":15634:15637   */\n      0x00\n        /* \"#utility.yul\":15655:15722   */\n      tag_375\n        /* \"#utility.yul\":15719:15721   */\n      0x11\n        /* \"#utility.yul\":15714:15717   */\n      dup4\n        /* \"#utility.yul\":15655:15722   */\n      tag_169\n      jump\t// in\n    tag_375:\n        /* \"#utility.yul\":15648:15722   */\n      swap2\n      pop\n        /* \"#utility.yul\":15731:15824   */\n      tag_376\n        /* \"#utility.yul\":15820:15823   */\n      dup3\n        /* \"#utility.yul\":15731:15824   */\n      tag_202\n      jump\t// in\n    tag_376:\n        /* \"#utility.yul\":15849:15851   */\n      0x20\n        /* \"#utility.yul\":15844:15847   */\n      dup3\n        /* \"#utility.yul\":15840:15852   */\n      add\n        /* \"#utility.yul\":15833:15852   */\n      swap1\n      pop\n        /* \"#utility.yul\":15492:15858   */\n      swap2\n      swap1\n      pop\n      jump\t// out\n        /* \"#utility.yul\":15864:16283   */\n    tag_98:\n        /* \"#utility.yul\":16030:16034   */\n      0x00\n        /* \"#utility.yul\":16068:16070   */\n      0x20\n        /* \"#utility.yul\":16057:16066   */\n      dup3\n        /* \"#utility.yul\":16053:16071   */\n      add\n        /* \"#utility.yul\":16045:16071   */\n      swap1\n      pop\n        /* \"#utility.yul\":16117:16126   */\n      dup2\n        /* \"#utility.yul\":16111:16115   */\n      dup2\n        /* \"#utility.yul\":16107:16127   */\n      sub\n        /* \"#utility.yul\":16103:16104   */\n      0x00\n        /* \"#utility.yul\":16092:16101   */\n      dup4\n        /* \"#utility.yul\":16088:16105   */\n      add\n        /* \"#utility.yul\":16081:16128   */\n      mstore\n        /* \"#utility.yul\":16145:16276   */\n      tag_378\n        /* \"#utility.yul\":16271:16275   */\n      dup2\n        /* \"#utility.yul\":16145:16276   */\n      tag_203\n      jump\t// in\n    tag_378:\n        /* \"#utility.yul\":16137:16276   */\n      swap1\n      pop\n        /* \"#utility.yul\":15864:16283   */\n      swap2\n      swap1\n      pop\n      jump\t// out\n        /* \"#utility.yul\":16289:16459   */\n    tag_204:\n        /* \"#utility.yul\":16429:16451   */\n      0x456c656374696f6e206e6f742073746172746564000000000000000000000000\n        /* \"#utility.yul\":16425:16426   */\n      0x00\n        /* \"#utility.yul\":16417:16423   */\n      dup3\n        /* \"#utility.yul\":16413:16427   */\n      add\n        /* \"#utility.yul\":16406:16452   */\n      mstore\n        /* \"#utility.yul\":16289:16459   */\n      pop\n      jump\t// out\n        /* \"#utility.yul\":16465:16831   */\n    tag_205:\n        /* \"#utility.yul\":16607:16610   */\n      0x00\n        /* \"#utility.yul\":16628:16695   */\n      tag_381\n        /* \"#utility.yul\":16692:16694   */\n      0x14\n        /* \"#utility.yul\":16687:16690   */\n      dup4\n        /* \"#utility.yul\":16628:16695   */\n      tag_169\n      jump\t// in\n    tag_381:\n        /* \"#utility.yul\":16621:16695   */\n      swap2\n      pop\n        /* \"#utility.yul\":16704:16797   */\n      tag_382\n        /* \"#utility.yul\":16793:16796   */\n      dup3\n        /* \"#utility.yul\":16704:16797   */\n      tag_204\n      jump\t// in\n    tag_382:\n        /* \"#utility.yul\":16822:16824   */\n      0x20\n        /* \"#utility.yul\":16817:16820   */\n      dup3\n        /* \"#utility.yul\":16813:16825   */\n      add\n        /* \"#utility.yul\":16806:16825   */\n      swap1\n      pop\n        /* \"#utility.yul\":16465:16831   */\n      swap2\n      swap1\n      pop\n      jump\t// out\n        /* \"#utility.yul\":16837:17256   */\n    tag_105:\n        /* \"#utility.yul\":17003:17007   */\n      0x00\n        /* \"#utility.yul\":17041:17043   */\n      0x20\n        /* \"#utility.yul\":17030:17039   */\n      dup3\n        /* \"#utility.yul\":17026:17044   */\n      add\n        /* \"#utility.yul\":17018:17044   */\n      swap1\n      pop\n        /* \"#utility.yul\":17090:17099   */\n      dup2\n        /* \"#utility.yul\":17084:17088   */\n      dup2\n        /* \"#utility.yul\":17080:17100   */\n      sub\n        /* \"#utility.yul\":17076:17077   */\n      0x00\n        /* \"#utility.yul\":17065:17074   */\n      dup4\n        /* \"#utility.yul\":17061:17078   */\n      add\n        /* \"#utility.yul\":17054:17101   */\n      mstore\n        /* \"#utility.yul\":17118:17249   */\n      tag_384\n        /* \"#utility.yul\":17244:17248   */\n      dup2\n        /* \"#utility.yul\":17118:17249   */\n      tag_205\n      jump\t// in\n    tag_384:\n        /* \"#utility.yul\":17110:17249   */\n      swap1\n      pop\n        /* \"#utility.yul\":16837:17256   */\n      swap2\n      swap1\n      pop\n      jump\t// out\n        /* \"#utility.yul\":17262:17424   */\n    tag_206:\n        /* \"#utility.yul\":17402:17416   */\n      0x566f74696e6720656e6465640000000000000000000000000000000000000000\n        /* \"#utility.yul\":17398:17399   */\n      0x00\n        /* \"#utility.yul\":17390:17396   */\n      dup3\n        /* \"#utility.yul\":17386:17400   */\n      add\n        /* \"#utility.yul\":17379:17417   */\n      mstore\n        /* \"#utility.yul\":17262:17424   */\n      pop\n      jump\t// out\n        /* \"#utility.yul\":17430:17796   */\n    tag_207:\n        /* \"#utility.yul\":17572:17575   */\n      0x00\n        /* \"#utility.yul\":17593:17660   */\n      tag_387\n        /* \"#utility.yul\":17657:17659   */\n      0x0c\n        /* \"#utility.yul\":17652:17655   */\n      dup4\n        /* \"#utility.yul\":17593:17660   */\n      tag_169\n      jump\t// in\n    tag_387:\n        /* \"#utility.yul\":17586:17660   */\n      swap2\n      pop\n        /* \"#utility.yul\":17669:17762   */\n      tag_388\n        /* \"#utility.yul\":17758:17761   */\n      dup3\n        /* \"#utility.yul\":17669:17762   */\n      tag_206\n      jump\t// in\n    tag_388:\n        /* \"#utility.yul\":17787:17789   */\n      0x20\n        /* \"#utility.yul\":17782:17785   */\n      dup3\n        /* \"#utility.yul\":17778:17790   */\n      add\n        /* \"#utility.yul\":17771:17790   */\n      swap1\n      pop\n        /* \"#utility.yul\":17430:17796   */\n      swap2\n      swap1\n      pop\n      jump\t// out\n        /* \"#utility.yul\":17802:18221   */\n    tag_108:\n        /* \"#utility.yul\":17968:17972   */\n      0x00\n        /* \"#utility.yul\":18006:18008   */\n      0x20\n        /* \"#utility.yul\":17995:18004   */\n      dup3\n        /* \"#utility.yul\":17991:18009   */\n      add\n        /* \"#utility.yul\":17983:18009   */\n      swap1\n      pop\n        /* \"#utility.yul\":18055:18064   */\n      dup2\n        /* \"#utility.yul\":18049:18053   */\n      dup2\n        /* \"#utility.yul\":18045:18065   */\n      sub\n        /* \"#utility.yul\":18041:18042   */\n      0x00\n        /* \"#utility.yul\":18030:18039   */\n      dup4\n        /* \"#utility.yul\":18026:18043   */\n      add\n        /* \"#utility.yul\":18019:18066   */\n      mstore\n        /* \"#utility.yul\":18083:18214   */\n      tag_390\n        /* \"#utility.yul\":18209:18213   */\n      dup2\n        /* \"#utility.yul\":18083:18214   */\n      tag_207\n      jump\t// in\n    tag_390:\n        /* \"#utility.yul\":18075:18214   */\n      swap1\n      pop\n        /* \"#utility.yul\":17802:18221   */\n      swap2\n      swap1\n      pop\n      jump\t// out\n        /* \"#utility.yul\":18227:18391   */\n    tag_208:\n        /* \"#utility.yul\":18367:18383   */\n      0x4e6f742072656769737465726564000000000000000000000000000000000000\n        /* \"#utility.yul\":18363:18364   */\n      0x00\n        /* \"#utility.yul\":18355:18361   */\n      dup3\n        /* \"#utility.yul\":18351:18365   */\n      add\n        /* \"#utility.yul\":18344:18384   */\n      mstore\n        /* \"#utility.yul\":18227:18391   */\n      pop\n      jump\t// out\n        /* \"#utility.yul\":18397:18763   */\n    tag_209:\n        /* \"#utility.yul\":18539:18542   */\n      0x00\n        /* \"#utility.yul\":18560:18627   */\n      tag_393\n        /* \"#utility.yul\":18624:18626   */\n      0x0e\n        /* \"#utility.yul\":18619:18622   */\n      dup4\n        /* \"#utility.yul\":18560:18627   */\n      tag_169\n      jump\t// in\n    tag_393:\n        /* \"#utility.yul\":18553:18627   */\n      swap2\n      pop\n        /* \"#utility.yul\":18636:18729   */\n      tag_394\n        /* \"#utility.yul\":18725:18728   */\n      dup3\n        /* \"#utility.yul\":18636:18729   */\n      tag_208\n      jump\t// in\n    tag_394:\n        /* \"#utility.yul\":18754:18756   */\n      0x20\n        /* \"#utility.yul\":18749:18752   */\n      dup3\n        /* \"#utility.yul\":18745:18757   */\n      add\n        /* \"#utility.yul\":18738:18757   */\n      swap1\n      pop\n        /* \"#utility.yul\":18397:18763   */\n      swap2\n      swap1\n      pop\n      jump\t// out\n        /* \"#utility.yul\":18769:19188   */\n    tag_116:\n        /* \"#utility.yul\":18935:18939   */\n      0x00\n        /* \"#utility.yul\":18973:18975   */\n      0x20\n        /* \"#utility.yul\":18962:18971   */\n      dup3\n        /* \"#utility.yul\":18958:18976   */\n      add\n        /* \"#utility.yul\":18950:18976   */\n      swap1\n      pop\n        /* \"#utility.yul\":19022:19031   */\n      dup2\n        /* \"#utility.yul\":19016:19020   */\n      dup2\n        /* \"#utility.yul\":19012:19032   */\n      sub\n        /* \"#utility.yul\":19008:19009   */\n      0x00\n        /* \"#utility.yul\":18997:19006   */\n      dup4\n        /* \"#utility.yul\":18993:19010   */\n      add\n        /* \"#utility.yul\":18986:19033   */\n      mstore\n        /* \"#utility.yul\":19050:19181   */\n      tag_396\n        /* \"#utility.yul\":19176:19180   */\n      dup2\n        /* \"#utility.yul\":19050:19181   */\n      tag_209\n      jump\t// in\n    tag_396:\n        /* \"#utility.yul\":19042:19181   */\n      swap1\n      pop\n        /* \"#utility.yul\":18769:19188   */\n      swap2\n      swap1\n      pop\n      jump\t// out\n        /* \"#utility.yul\":19194:19357   */\n    tag_210:\n        /* \"#utility.yul\":19334:19349   */\n      0x416c726561647920766f74656400000000000000000000000000000000000000\n        /* \"#utility.yul\":19330:19331   */\n      0x00\n        /* \"#utility.yul\":19322:19328   */\n      dup3\n        /* \"#utility.yul\":19318:19332   */\n      add\n        /* \"#utility.yul\":19311:19350   */\n      mstore\n        /* \"#utility.yul\":19194:19357   */\n      pop\n      jump\t// out\n        /* \"#utility.yul\":19363:19729   */\n    tag_211:\n        /* \"#utility.yul\":19505:19508   */\n      0x00\n        /* \"#utility.yul\":19526:19593   */\n      tag_399\n        /* \"#utility.yul\":19590:19592   */\n      0x0d\n        /* \"#utility.yul\":19585:19588   */\n      dup4\n        /* \"#utility.yul\":19526:19593   */\n      tag_169\n      jump\t// in\n    tag_399:\n        /* \"#utility.yul\":19519:19593   */\n      swap2\n      pop\n        /* \"#utility.yul\":19602:19695   */\n      tag_400\n        /* \"#utility.yul\":19691:19694   */\n      dup3\n        /* \"#utility.yul\":19602:19695   */\n      tag_210\n      jump\t// in\n    tag_400:\n        /* \"#utility.yul\":19720:19722   */\n      0x20\n        /* \"#utility.yul\":19715:19718   */\n      dup3\n        /* \"#utility.yul\":19711:19723   */\n      add\n        /* \"#utility.yul\":19704:19723   */\n      swap1\n      pop\n        /* \"#utility.yul\":19363:19729   */\n      swap2\n      swap1\n      pop\n      jump\t// out\n        /* \"#utility.yul\":19735:20154   */\n    tag_123:\n        /* \"#utility.yul\":19901:19905   */\n      0x00\n        /* \"#utility.yul\":19939:19941   */\n      0x20\n        /* \"#utility.yul\":19928:19937   */\n      dup3\n        /* \"#utility.yul\":19924:19942   */\n      add\n        /* \"#utility.yul\":19916:19942   */\n      swap1\n      pop\n        /* \"#utility.yul\":19988:19997   */\n      dup2\n        /* \"#utility.yul\":19982:19986   */\n      dup2\n        /* \"#utility.yul\":19978:19998   */\n      sub\n        /* \"#utility.yul\":19974:19975   */\n      0x00\n        /* \"#utility.yul\":19963:19972   */\n      dup4\n        /* \"#utility.yul\":19959:19976   */\n      add\n        /* \"#utility.yul\":19952:19999   */\n      mstore\n        /* \"#utility.yul\":20016:20147   */\n      tag_402\n        /* \"#utility.yul\":20142:20146   */\n      dup2\n        /* \"#utility.yul\":20016:20147   */\n      tag_211\n      jump\t// in\n    tag_402:\n        /* \"#utility.yul\":20008:20147   */\n      swap1\n      pop\n        /* \"#utility.yul\":19735:20154   */\n      swap2\n      swap1\n      pop\n      jump\t// out\n        /* \"#utility.yul\":20160:20340   */\n    tag_129:\n        /* \"#utility.yul\":20208:20285   */\n      0x4e487b7100000000000000000000000000000000000000000000000000000000\n        /* \"#utility.yul\":20205:20206   */\n      0x00\n        /* \"#utility.yul\":20198:20286   */\n      mstore\n        /* \"#utility.yul\":20305:20309   */\n      0x32\n        /* \"#utility.yul\":20302:20303   */\n      0x04\n        /* \"#utility.yul\":20295:20310   */\n      mstore\n        /* \"#utility.yul\":20329:20333   */\n      0x24\n        /* \"#utility.yul\":20326:20327   */\n      0x00\n        /* \"#utility.yul\":20319:20334   */\n      revert\n        /* \"#utility.yul\":20346:20490   */\n    tag_212:\n        /* \"#utility.yul\":20398:20402   */\n      0x00\n        /* \"#utility.yul\":20421:20424   */\n      dup2\n        /* \"#utility.yul\":20413:20424   */\n      swap1\n      pop\n        /* \"#utility.yul\":20444:20447   */\n      dup2\n        /* \"#utility.yul\":20441:20442   */\n      0x00\n        /* \"#utility.yul\":20434:20448   */\n      mstore\n        /* \"#utility.yul\":20478:20482   */\n      0x20\n        /* \"#utility.yul\":20475:20476   */\n      0x00\n        /* \"#utility.yul\":20465:20483   */\n      keccak256\n        /* \"#utility.yul\":20457:20483   */\n      swap1\n      pop\n        /* \"#utility.yul\":20346:20490   */\n      swap2\n      swap1\n      pop\n      jump\t// out\n        /* \"#utility.yul\":20518:21396   */\n    tag_213:\n        /* \"#utility.yul\":20623:20626   */\n      0x00\n        /* \"#utility.yul\":20660:20665   */\n      dup2\n        /* \"#utility.yul\":20654:20666   */\n      sload\n        /* \"#utility.yul\":20689:20725   */\n      tag_406\n        /* \"#utility.yul\":20715:20724   */\n      dup2\n        /* \"#utility.yul\":20689:20725   */\n      tag_71\n      jump\t// in\n    tag_406:\n        /* \"#utility.yul\":20741:20829   */\n      tag_407\n        /* \"#utility.yul\":20822:20828   */\n      dup2\n        /* \"#utility.yul\":20817:20820   */\n      dup7\n        /* \"#utility.yul\":20741:20829   */\n      tag_191\n      jump\t// in\n    tag_407:\n        /* \"#utility.yul\":20734:20829   */\n      swap5\n      pop\n        /* \"#utility.yul\":20860:20861   */\n      0x01\n        /* \"#utility.yul\":20849:20858   */\n      dup3\n        /* \"#utility.yul\":20845:20862   */\n      and\n        /* \"#utility.yul\":20876:20877   */\n      0x00\n        /* \"#utility.yul\":20871:21037   */\n      dup2\n      eq\n      tag_409\n      jumpi\n        /* \"#utility.yul\":21051:21052   */\n      0x01\n        /* \"#utility.yul\":21046:21390   */\n      dup2\n      eq\n      tag_410\n      jumpi\n        /* \"#utility.yul\":20838:21390   */\n      jump(tag_408)\n        /* \"#utility.yul\":20871:21037   */\n    tag_409:\n        /* \"#utility.yul\":20955:20959   */\n      0xff\n        /* \"#utility.yul\":20951:20960   */\n      not\n        /* \"#utility.yul\":20940:20949   */\n      dup4\n        /* \"#utility.yul\":20936:20961   */\n      and\n        /* \"#utility.yul\":20931:20934   */\n      dup7\n        /* \"#utility.yul\":20924:20962   */\n      mstore\n        /* \"#utility.yul\":21017:21023   */\n      dup2\n        /* \"#utility.yul\":21010:21024   */\n      iszero\n        /* \"#utility.yul\":21003:21025   */\n      iszero\n        /* \"#utility.yul\":20995:21001   */\n      dup3\n        /* \"#utility.yul\":20991:21026   */\n      mul\n        /* \"#utility.yul\":20986:20989   */\n      dup7\n        /* \"#utility.yul\":20982:21027   */\n      add\n        /* \"#utility.yul\":20975:21027   */\n      swap4\n      pop\n        /* \"#utility.yul\":20871:21037   */\n      jump(tag_408)\n        /* \"#utility.yul\":21046:21390   */\n    tag_410:\n        /* \"#utility.yul\":21113:21154   */\n      tag_411\n        /* \"#utility.yul\":21148:21153   */\n      dup6\n        /* \"#utility.yul\":21113:21154   */\n      tag_212\n      jump\t// in\n    tag_411:\n        /* \"#utility.yul\":21176:21177   */\n      0x00\n        /* \"#utility.yul\":21190:21344   */\n    tag_412:\n        /* \"#utility.yul\":21204:21210   */\n      dup4\n        /* \"#utility.yul\":21201:21202   */\n      dup2\n        /* \"#utility.yul\":21198:21211   */\n      lt\n        /* \"#utility.yul\":21190:21344   */\n      iszero\n      tag_414\n      jumpi\n        /* \"#utility.yul\":21278:21285   */\n      dup2\n        /* \"#utility.yul\":21272:21286   */\n      sload\n        /* \"#utility.yul\":21268:21269   */\n      dup2\n        /* \"#utility.yul\":21263:21266   */\n      dup10\n        /* \"#utility.yul\":21259:21270   */\n      add\n        /* \"#utility.yul\":21252:21287   */\n      mstore\n        /* \"#utility.yul\":21328:21329   */\n      0x01\n        /* \"#utility.yul\":21319:21326   */\n      dup3\n        /* \"#utility.yul\":21315:21330   */\n      add\n        /* \"#utility.yul\":21304:21330   */\n      swap2\n      pop\n        /* \"#utility.yul\":21226:21230   */\n      0x20\n        /* \"#utility.yul\":21223:21224   */\n      dup2\n        /* \"#utility.yul\":21219:21231   */\n      add\n        /* \"#utility.yul\":21214:21231   */\n      swap1\n      pop\n        /* \"#utility.yul\":21190:21344   */\n      jump(tag_412)\n    tag_414:\n        /* \"#utility.yul\":21373:21379   */\n      dup4\n        /* \"#utility.yul\":21368:21371   */\n      dup9\n        /* \"#utility.yul\":21364:21380   */\n      add\n        /* \"#utility.yul\":21357:21380   */\n      swap6\n      pop\n        /* \"#utility.yul\":21053:21390   */\n      pop\n      pop\n        /* \"#utility.yul\":20838:21390   */\n    tag_408:\n      pop\n        /* \"#utility.yul\":20627:21396   */\n      pop\n      pop\n        /* \"#utility.yul\":20518:21396   */\n      swap3\n      swap2\n      pop\n      pop\n      jump\t// out\n        /* \"#utility.yul\":21402:21675   */\n    tag_132:\n        /* \"#utility.yul\":21533:21536   */\n      0x00\n        /* \"#utility.yul\":21555:21649   */\n      tag_416\n        /* \"#utility.yul\":21645:21648   */\n      dup3\n        /* \"#utility.yul\":21636:21642   */\n      dup5\n        /* \"#utility.yul\":21555:21649   */\n      tag_213\n      jump\t// in\n    tag_416:\n        /* \"#utility.yul\":21548:21649   */\n      swap2\n      pop\n        /* \"#utility.yul\":21666:21669   */\n      dup2\n        /* \"#utility.yul\":21659:21669   */\n      swap1\n      pop\n        /* \"#utility.yul\":21402:21675   */\n      swap3\n      swap2\n      pop\n      pop\n      jump\t// out\n        /* \"#utility.yul\":21681:21861   */\n    tag_214:\n        /* \"#utility.yul\":21729:21806   */\n      0x4e487b7100000000000000000000000000000000000000000000000000000000\n        /* \"#utility.yul\":21726:21727   */\n      0x00\n        /* \"#utility.yul\":21719:21807   */\n      mstore\n        /* \"#utility.yul\":21826:21830   */\n      0x11\n        /* \"#utility.yul\":21823:21824   */\n      0x04\n        /* \"#utility.yul\":21816:21831   */\n      mstore\n        /* \"#utility.yul\":21850:21854   */\n      0x24\n        /* \"#utility.yul\":21847:21848   */\n      0x00\n        /* \"#utility.yul\":21840:21855   */\n      revert\n        /* \"#utility.yul\":21867:22100   */\n    tag_135:\n        /* \"#utility.yul\":21906:21909   */\n      0x00\n        /* \"#utility.yul\":21929:21953   */\n      tag_419\n        /* \"#utility.yul\":21947:21952   */\n      dup3\n        /* \"#utility.yul\":21929:21953   */\n      tag_166\n      jump\t// in\n    tag_419:\n        /* \"#utility.yul\":21920:21953   */\n      swap2\n      pop\n        /* \"#utility.yul\":21975:22041   */\n      0xffffffffffffffffffffffffffffffffffffffffffffffffffffffffffffffff\n        /* \"#utility.yul\":21968:21973   */\n      dup3\n        /* \"#utility.yul\":21965:22042   */\n      sub\n        /* \"#utility.yul\":21962:22065   */\n      tag_420\n      jumpi\n        /* \"#utility.yul\":22045:22063   */\n      tag_421\n      tag_214\n      jump\t// in\n    tag_421:\n        /* \"#utility.yul\":21962:22065   */\n    tag_420:\n        /* \"#utility.yul\":22092:22093   */\n      0x01\n        /* \"#utility.yul\":22085:22090   */\n      dup3\n        /* \"#utility.yul\":22081:22094   */\n      add\n        /* \"#utility.yul\":22074:22094   */\n      swap1\n      pop\n        /* \"#utility.yul\":21867:22100   */\n      swap2\n      swap1\n      pop\n      jump\t// out\n        /* \"#utility.yul\":22106:22275   */\n    tag_215:\n        /* \"#utility.yul\":22246:22267   */\n      0x43616e646964617465206e6f7420666f756e6400000000000000000000000000\n        /* \"#utility.yul\":22242:22243   */\n      0x00\n        /* \"#utility.yul\":22234:22240   */\n      dup3\n        /* \"#utility.yul\":22230:22244   */\n      add\n        /* \"#utility.yul\":22223:22268   */\n      mstore\n        /* \"#utility.yul\":22106:22275   */\n      pop\n      jump\t// out\n        /* \"#utility.yul\":22281:22647   */\n    tag_216:\n        /* \"#utility.yul\":22423:22426   */\n      0x00\n        /* \"#utility.yul\":22444:22511   */\n      tag_424\n        /* \"#utility.yul\":22508:22510   */\n      0x13\n        /* \"#utility.yul\":22503:22506   */\n      dup4\n        /* \"#utility.yul\":22444:22511   */\n      tag_169\n      jump\t// in\n    tag_424:\n        /* \"#utility.yul\":22437:22511   */\n      swap2\n      pop\n        /* \"#utility.yul\":22520:22613   */\n      tag_425\n        /* \"#utility.yul\":22609:22612   */\n      dup3\n        /* \"#utility.yul\":22520:22613   */\n      tag_215\n      jump\t// in\n    tag_425:\n        /* \"#utility.yul\":22638:22640   */\n      0x20\n        /* \"#utility.yul\":22633:22636   */\n      dup3\n        /* \"#utility.yul\":22629:22641   */\n      add\n        /* \"#utility.yul\":22622:22641   */\n      swap1\n      pop\n        /* \"#utility.yul\":22281:22647   */\n      swap2\n      swap1\n      pop\n      jump\t// out\n        /* \"#utility.yul\":22653:23072   */\n    tag_138:\n        /* \"#utility.yul\":22819:22823   */\n      0x00\n        /* \"#utility.yul\":22857:22859   */\n      0x20\n        /* \"#utility.yul\":22846:22855   */\n      dup3\n        /* \"#utility.yul\":22842:22860   */\n      add\n        /* \"#utility.yul\":22834:22860   */\n      swap1\n      pop\n        /* \"#utility.yul\":22906:22915   */\n      dup2\n        /* \"#utility.yul\":22900:22904   */\n      dup2\n        /* \"#utility.yul\":22896:22916   */\n      sub\n        /* \"#utility.yul\":22892:22893   */\n      0x00\n        /* \"#utility.yul\":22881:22890   */\n      dup4\n        /* \"#utility.yul\":22877:22894   */\n      add\n        /* \"#utility.yul\":22870:22917   */\n      mstore\n        /* \"#utility.yul\":22934:23065   */\n      tag_427\n        /* \"#utility.yul\":23060:23064   */\n      dup2\n        /* \"#utility.yul\":22934:23065   */\n      tag_216\n      jump\t// in\n    tag_427:\n        /* \"#utility.yul\":22926:23065   */\n      swap1\n      pop\n        /* \"#utility.yul\":22653:23072   */\n      swap2\n      swap1\n      pop\n      jump\t// out\n        /* \"#utility.yul\":23078:23163   */\n    tag_217:\n        /* \"#utility.yul\":23123:23130   */\n      0x00\n        /* \"#utility.yul\":23152:23157   */\n      dup2\n        /* \"#utility.yul\":23141:23157   */\n      swap1\n      pop\n        /* \"#utility.yul\":23078:23163   */\n      swap2\n      swap1\n      pop\n      jump\t// out\n        /* \"#utility.yul\":23169:23327   */\n    tag_218:\n        /* \"#utility.yul\":23227:23236   */\n      0x00\n        /* \"#utility.yul\":23260:23321   */\n      tag_430\n        /* \"#utility.yul\":23278:23320   */\n      tag_431\n        /* \"#utility.yul\":23287:23319   */\n      tag_432\n        /* \"#utility.yul\":23313:23318   */\n      dup5\n        /* \"#utility.yul\":23287:23319   */\n      tag_217\n      jump\t// in\n    tag_432:\n        /* \"#utility.yul\":23278:23320   */\n      tag_172\n      jump\t// in\n    tag_431:\n        /* \"#utility.yul\":23260:23321   */\n      tag_166\n      jump\t// in\n    tag_430:\n        /* \"#utility.yul\":23247:23321   */\n      swap1\n      pop\n        /* \"#utility.yul\":23169:23327   */\n      swap2\n      swap1\n      pop\n      jump\t// out\n        /* \"#utility.yul\":23333:23480   */\n    tag_219:\n        /* \"#utility.yul\":23428:23473   */\n      tag_434\n        /* \"#utility.yul\":23467:23472   */\n      dup2\n        /* \"#utility.yul\":23428:23473   */\n      tag_218\n      jump\t// in\n    tag_434:\n        /* \"#utility.yul\":23423:23426   */\n      dup3\n        /* \"#utility.yul\":23416:23474   */\n      mstore\n        /* \"#utility.yul\":23333:23480   */\n      pop\n      pop\n      jump\t// out\n        /* \"#utility.yul\":23486:23925   */\n    tag_144:\n        /* \"#utility.yul\":23635:23639   */\n      0x00\n        /* \"#utility.yul\":23673:23675   */\n      0x40\n        /* \"#utility.yul\":23662:23671   */\n      dup3\n        /* \"#utility.yul\":23658:23676   */\n      add\n        /* \"#utility.yul\":23650:23676   */\n      swap1\n      pop\n        /* \"#utility.yul\":23722:23731   */\n      dup2\n        /* \"#utility.yul\":23716:23720   */\n      dup2\n        /* \"#utility.yul\":23712:23732   */\n      sub\n        /* \"#utility.yul\":23708:23709   */\n      0x00\n        /* \"#utility.yul\":23697:23706   */\n      dup4\n        /* \"#utility.yul\":23693:23710   */\n      add\n        /* \"#utility.yul\":23686:23733   */\n      mstore\n        /* \"#utility.yul\":23750:23828   */\n      tag_436\n        /* \"#utility.yul\":23823:23827   */\n      dup2\n        /* \"#utility.yul\":23814:23820   */\n      dup6\n        /* \"#utility.yul\":23750:23828   */\n      tag_170\n      jump\t// in\n    tag_436:\n        /* \"#utility.yul\":23742:23828   */\n      swap1\n      pop\n        /* \"#utility.yul\":23838:23918   */\n      tag_437\n        /* \"#utility.yul\":23914:23916   */\n      0x20\n        /* \"#utility.yul\":23903:23912   */\n      dup4\n        /* \"#utility.yul\":23899:23917   */\n      add\n        /* \"#utility.yul\":23890:23896   */\n      dup5\n        /* \"#utility.yul\":23838:23918   */\n      tag_219\n      jump\t// in\n    tag_437:\n        /* \"#utility.yul\":23486:23925   */\n      swap4\n      swap3\n      pop\n      pop\n      pop\n      jump\t// out\n        /* \"#utility.yul\":23931:24354   */\n    tag_149:\n        /* \"#utility.yul\":24072:24076   */\n      0x00\n        /* \"#utility.yul\":24110:24112   */\n      0x40\n        /* \"#utility.yul\":24099:24108   */\n      dup3\n        /* \"#utility.yul\":24095:24113   */\n      add\n        /* \"#utility.yul\":24087:24113   */\n      swap1\n      pop\n        /* \"#utility.yul\":24123:24194   */\n      tag_439\n        /* \"#utility.yul\":24191:24192   */\n      0x00\n        /* \"#utility.yul\":24180:24189   */\n      dup4\n        /* \"#utility.yul\":24176:24193   */\n      add\n        /* \"#utility.yul\":24167:24173   */\n      dup6\n        /* \"#utility.yul\":24123:24194   */\n      tag_180\n      jump\t// in\n    tag_439:\n        /* \"#utility.yul\":24241:24250   */\n      dup2\n        /* \"#utility.yul\":24235:24239   */\n      dup2\n        /* \"#utility.yul\":24231:24251   */\n      sub\n        /* \"#utility.yul\":24226:24228   */\n      0x20\n        /* \"#utility.yul\":24215:24224   */\n      dup4\n        /* \"#utility.yul\":24211:24229   */\n      add\n        /* \"#utility.yul\":24204:24252   */\n      mstore\n        /* \"#utility.yul\":24269:24347   */\n      tag_440\n        /* \"#utility.yul\":24342:24346   */\n      dup2\n        /* \"#utility.yul\":24333:24339   */\n      dup5\n        /* \"#utility.yul\":24269:24347   */\n      tag_170\n      jump\t// in\n    tag_440:\n        /* \"#utility.yul\":24261:24347   */\n      swap1\n      pop\n        /* \"#utility.yul\":23931:24354   */\n      swap4\n      swap3\n      pop\n      pop\n      pop\n      jump\t// out\n\n    auxdata: 0xa26469706673582212200b2c7dcb72f6f2df636a13debe103a59af18abfb522783d3d6a6059a3436dd4664736f6c63430008120033\n}\n",
				"bytecode": {
					"linkReferences": {},
					"object": "60806040523480156200001157600080fd5b5060405162002179380380620021798339818101604052810190620000379190620004fc565b336000806101000a81548173ffffffffffffffffffffffffffffffffffffffff021916908373ffffffffffffffffffffffffffffffffffffffff16021790555082600390805190602001906200008f9291906200011b565b5081600160006101000a81548173ffffffffffffffffffffffffffffffffffffffff021916908373ffffffffffffffffffffffffffffffffffffffff16021790555080600260006101000a81548173ffffffffffffffffffffffffffffffffffffffff021916908373ffffffffffffffffffffffffffffffffffffffff160217905550505050620008a9565b82805482825590600052602060002090810192821562000168579160200282015b8281111562000167578251829081620001569190620007c2565b50916020019190600101906200013c565b5b5090506200017791906200017b565b5090565b5b808211156200019f5760008181620001959190620001a3565b506001016200017c565b5090565b508054620001b190620005b1565b6000825580601f10620001c55750620001e6565b601f016020900490600052602060002090810190620001e59190620001e9565b5b50565b5b8082111562000204576000816000905550600101620001ea565b5090565b6000604051905090565b600080fd5b600080fd5b600080fd5b6000601f19601f8301169050919050565b7f4e487b7100000000000000000000000000000000000000000000000000000000600052604160045260246000fd5b6200026c8262000221565b810181811067ffffffffffffffff821117156200028e576200028d62000232565b5b80604052505050565b6000620002a362000208565b9050620002b1828262000261565b919050565b600067ffffffffffffffff821115620002d457620002d362000232565b5b602082029050602081019050919050565b600080fd5b600080fd5b600067ffffffffffffffff8211156200030d576200030c62000232565b5b620003188262000221565b9050602081019050919050565b60005b838110156200034557808201518184015260208101905062000328565b60008484015250505050565b6000620003686200036284620002ef565b62000297565b905082815260208101848484011115620003875762000386620002ea565b5b6200039484828562000325565b509392505050565b600082601f830112620003b457620003b36200021c565b5b8151620003c684826020860162000351565b91505092915050565b6000620003e6620003e084620002b6565b62000297565b905080838252602082019050602084028301858111156200040c576200040b620002e5565b5b835b818110156200045a57805167ffffffffffffffff8111156200043557620004346200021c565b5b8086016200044489826200039c565b855260208501945050506020810190506200040e565b5050509392505050565b600082601f8301126200047c576200047b6200021c565b5b81516200048e848260208601620003cf565b91505092915050565b600073ffffffffffffffffffffffffffffffffffffffff82169050919050565b6000620004c48262000497565b9050919050565b620004d681620004b7565b8114620004e257600080fd5b50565b600081519050620004f681620004cb565b92915050565b60008060006060848603121562000518576200051762000212565b5b600084015167ffffffffffffffff81111562000539576200053862000217565b5b620005478682870162000464565b93505060206200055a86828701620004e5565b92505060406200056d86828701620004e5565b9150509250925092565b600081519050919050565b7f4e487b7100000000000000000000000000000000000000000000000000000000600052602260045260246000fd5b60006002820490506001821680620005ca57607f821691505b602082108103620005e057620005df62000582565b5b50919050565b60008190508160005260206000209050919050565b60006020601f8301049050919050565b600082821b905092915050565b6000600883026200064a7fffffffffffffffffffffffffffffffffffffffffffffffffffffffffffffffff826200060b565b6200065686836200060b565b95508019841693508086168417925050509392505050565b6000819050919050565b6000819050919050565b6000620006a36200069d62000697846200066e565b62000678565b6200066e565b9050919050565b6000819050919050565b620006bf8362000682565b620006d7620006ce82620006aa565b84845462000618565b825550505050565b600090565b620006ee620006df565b620006fb818484620006b4565b505050565b5b81811015620007235762000717600082620006e4565b60018101905062000701565b5050565b601f82111562000772576200073c81620005e6565b6200074784620005fb565b8101602085101562000757578190505b6200076f6200076685620005fb565b83018262000700565b50505b505050565b600082821c905092915050565b6000620007976000198460080262000777565b1980831691505092915050565b6000620007b2838362000784565b9150826002028217905092915050565b620007cd8262000577565b67ffffffffffffffff811115620007e957620007e862000232565b5b620007f58254620005b1565b6200080282828562000727565b600060209050601f8311600181146200083a576000841562000825578287015190505b620008318582620007a4565b865550620008a1565b601f1984166200084a86620005e6565b60005b8281101562000874578489015182556001820191506020850194506020810190506200084d565b8683101562000894578489015162000890601f89168262000784565b8355505b6001600288020188555050505b505050505050565b6118c080620008b96000396000f3fe608060405234801561001057600080fd5b50600436106100a95760003560e01c806362d73eb81161007157806362d73eb8146101565780637b103999146101605780638da5cb5b1461017e578063b952e7d81461019c578063d5346da1146101a6578063fc36e15b146101c4576100a9565b806312f4acec146100ae5780632e6997fe146100cc5780633477ee2e146100ea578063410673e51461011a5780635f58959914610138575b600080fd5b6100b66101e0565b6040516100c39190610c8f565b60405180910390f35b6100d461034e565b6040516100e19190610dfc565b60405180910390f35b61010460048036038101906100ff9190610e68565b610427565b6040516101119190610edf565b60405180910390f35b6101226104d3565b60405161012f9190610f80565b60405180910390f35b6101406104f9565b60405161014d9190610c8f565b60405180910390f35b61015e61050c565b005b610168610633565b6040516101759190610fbc565b60405180910390f35b610186610659565b6040516101939190610ff8565b60405180910390f35b6101a461067d565b005b6101ae610803565b6040516101bb9190610c8f565b60405180910390f35b6101de60048036038101906101d99190611148565b610816565b005b6000806000600260009054906101000a900473ffffffffffffffffffffffffffffffffffffffff1673ffffffffffffffffffffffffffffffffffffffff166040516024016040516020818303038152906040527f5f589599000000000000000000000000000000000000000000000000000000007bffffffffffffffffffffffffffffffffffffffffffffffffffffffff19166020820180517bffffffffffffffffffffffffffffffffffffffffffffffffffffffff83818316178352505050506040516102ae91906111d8565b600060405180830381855afa9150503d80600081146102e9576040519150601f19603f3d011682016040523d82523d6000602084013e6102ee565b606091505b509150915081610333576040517f08c379a000000000000000000000000000000000000000000000000000000000815260040161032a9061123b565b60405180910390fd5b808060200190518101906103479190611287565b9250505090565b60606003805480602002602001604051908101604052809291908181526020016000905b8282101561041e578382906000526020600020018054610391906112e3565b80601f01602080910402602001604051908101604052809291908181526020018280546103bd906112e3565b801561040a5780601f106103df5761010080835404028352916020019161040a565b820191906000526020600020905b8154815290600101906020018083116103ed57829003601f168201915b505050505081526020019060010190610372565b50505050905090565b6003818154811061043757600080fd5b906000526020600020016000915090508054610452906112e3565b80601f016020809104026020016040519081016040528092919081815260200182805461047e906112e3565b80156104cb5780601f106104a0576101008083540402835291602001916104cb565b820191906000526020600020905b8154815290600101906020018083116104ae57829003601f168201915b505050505081565b600260009054906101000a900473ffffffffffffffffffffffffffffffffffffffff1681565b600060159054906101000a900460ff1681565b60008054906101000a900473ffffffffffffffffffffffffffffffffffffffff1673ffffffffffffffffffffffffffffffffffffffff163373ffffffffffffffffffffffffffffffffffffffff161461059a576040517f08c379a000000000000000000000000000000000000000000000000000000000815260040161059190611386565b60405180910390fd5b600060149054906101000a900460ff16156105ea576040517f08c379a00000000000000000000000000000000000000000000000000000000081526004016105e1906113f2565b60405180910390fd5b6001600060146101000a81548160ff0219169083151502179055507fc475c26aa25ed8e85a7faa790e5f63b5d7ee1025f12821f4c9bfddd36ab4d11260405160405180910390a1565b600160009054906101000a900473ffffffffffffffffffffffffffffffffffffffff1681565b60008054906101000a900473ffffffffffffffffffffffffffffffffffffffff1681565b60008054906101000a900473ffffffffffffffffffffffffffffffffffffffff1673ffffffffffffffffffffffffffffffffffffffff163373ffffffffffffffffffffffffffffffffffffffff161461070b576040517f08c379a000000000000000000000000000000000000000000000000000000000815260040161070290611386565b60405180910390fd5b6107136101e0565b15610753576040517f08c379a000000000000000000000000000000000000000000000000000000000815260040161074a9061145e565b60405180910390fd5b600260009054906101000a900473ffffffffffffffffffffffffffffffffffffffff1673ffffffffffffffffffffffffffffffffffffffff1663b952e7d86040518163ffffffff1660e01b8152600401600060405180830381600087803b1580156107bd57600080fd5b505af11580156107d1573d6000803e3d6000fd5b505050507f10689ac5c5ddc265da7f6b71f74017330ba8f045032a672f7350ee2aaf793a2c60405160405180910390a1565b600060149054906101000a900460ff1681565b600060149054906101000a900460ff16610865576040517f08c379a000000000000000000000000000000000000000000000000000000000815260040161085c906114ca565b60405180910390fd5b600060159054906101000a900460ff16156108b5576040517f08c379a00000000000000000000000000000000000000000000000000000000081526004016108ac90611536565b60405180910390fd5b600160009054906101000a900473ffffffffffffffffffffffffffffffffffffffff1673ffffffffffffffffffffffffffffffffffffffff1663c3c5a547336040518263ffffffff1660e01b81526004016109109190610ff8565b602060405180830381865afa15801561092d573d6000803e3d6000fd5b505050506040513d601f19601f820116820180604052508101906109519190611287565b610990576040517f08c379a0000000000000000000000000000000000000000000000000000000008152600401610987906115a2565b60405180910390fd5b600160009054906101000a900473ffffffffffffffffffffffffffffffffffffffff1673ffffffffffffffffffffffffffffffffffffffff166309eef43e336040518263ffffffff1660e01b81526004016109eb9190610ff8565b602060405180830381865afa158015610a08573d6000803e3d6000fd5b505050506040513d601f19601f82011682018060405250810190610a2c9190611287565b15610a6c576040517f08c379a0000000000000000000000000000000000000000000000000000000008152600401610a639061160e565b60405180910390fd5b6000805b600380549050811015610ad957828051906020012060038281548110610a9957610a9861162e565b5b90600052602060002001604051610ab091906116f5565b604051809103902003610ac65760019150610ad9565b8080610ad19061173b565b915050610a70565b5080610b1a576040517f08c379a0000000000000000000000000000000000000000000000000000000008152600401610b11906117cf565b60405180910390fd5b600160009054906101000a900473ffffffffffffffffffffffffffffffffffffffff1673ffffffffffffffffffffffffffffffffffffffff1663995278a3336040518263ffffffff1660e01b8152600401610b759190610ff8565b600060405180830381600087803b158015610b8f57600080fd5b505af1158015610ba3573d6000803e3d6000fd5b50505050600260009054906101000a900473ffffffffffffffffffffffffffffffffffffffff1673ffffffffffffffffffffffffffffffffffffffff1663bea9a9a48360016040518363ffffffff1660e01b8152600401610c0592919061182a565b600060405180830381600087803b158015610c1f57600080fd5b505af1158015610c33573d6000803e3d6000fd5b505050507fb7821d50dfbda5ea310faebbeac5217bc1bb0cabe463e76b80e48d11e57df0983383604051610c6892919061185a565b60405180910390a15050565b60008115159050919050565b610c8981610c74565b82525050565b6000602082019050610ca46000830184610c80565b92915050565b600081519050919050565b600082825260208201905092915050565b6000819050602082019050919050565b600081519050919050565b600082825260208201905092915050565b60005b83811015610d10578082015181840152602081019050610cf5565b60008484015250505050565b6000601f19601f8301169050919050565b6000610d3882610cd6565b610d428185610ce1565b9350610d52818560208601610cf2565b610d5b81610d1c565b840191505092915050565b6000610d728383610d2d565b905092915050565b6000602082019050919050565b6000610d9282610caa565b610d9c8185610cb5565b935083602082028501610dae85610cc6565b8060005b85811015610dea5784840389528151610dcb8582610d66565b9450610dd683610d7a565b925060208a01995050600181019050610db2565b50829750879550505050505092915050565b60006020820190508181036000830152610e168184610d87565b905092915050565b6000604051905090565b600080fd5b600080fd5b6000819050919050565b610e4581610e32565b8114610e5057600080fd5b50565b600081359050610e6281610e3c565b92915050565b600060208284031215610e7e57610e7d610e28565b5b6000610e8c84828501610e53565b91505092915050565b600082825260208201905092915050565b6000610eb182610cd6565b610ebb8185610e95565b9350610ecb818560208601610cf2565b610ed481610d1c565b840191505092915050565b60006020820190508181036000830152610ef98184610ea6565b905092915050565b600073ffffffffffffffffffffffffffffffffffffffff82169050919050565b6000819050919050565b6000610f46610f41610f3c84610f01565b610f21565b610f01565b9050919050565b6000610f5882610f2b565b9050919050565b6000610f6a82610f4d565b9050919050565b610f7a81610f5f565b82525050565b6000602082019050610f956000830184610f71565b92915050565b6000610fa682610f4d565b9050919050565b610fb681610f9b565b82525050565b6000602082019050610fd16000830184610fad565b92915050565b6000610fe282610f01565b9050919050565b610ff281610fd7565b82525050565b600060208201905061100d6000830184610fe9565b92915050565b600080fd5b600080fd5b7f4e487b7100000000000000000000000000000000000000000000000000000000600052604160045260246000fd5b61105582610d1c565b810181811067ffffffffffffffff821117156110745761107361101d565b5b80604052505050565b6000611087610e1e565b9050611093828261104c565b919050565b600067ffffffffffffffff8211156110b3576110b261101d565b5b6110bc82610d1c565b9050602081019050919050565b82818337600083830152505050565b60006110eb6110e684611098565b61107d565b90508281526020810184848401111561110757611106611018565b5b6111128482856110c9565b509392505050565b600082601f83011261112f5761112e611013565b5b813561113f8482602086016110d8565b91505092915050565b60006020828403121561115e5761115d610e28565b5b600082013567ffffffffffffffff81111561117c5761117b610e2d565b5b6111888482850161111a565b91505092915050565b600081519050919050565b600081905092915050565b60006111b282611191565b6111bc818561119c565b93506111cc818560208601610cf2565b80840191505092915050565b60006111e482846111a7565b915081905092915050565b7f4661696c656420746f20666574636820726573756c7473000000000000000000600082015250565b6000611225601783610e95565b9150611230826111ef565b602082019050919050565b6000602082019050818103600083015261125481611218565b9050919050565b61126481610c74565b811461126f57600080fd5b50565b6000815190506112818161125b565b92915050565b60006020828403121561129d5761129c610e28565b5b60006112ab84828501611272565b91505092915050565b7f4e487b7100000000000000000000000000000000000000000000000000000000600052602260045260246000fd5b600060028204905060018216806112fb57607f821691505b60208210810361130e5761130d6112b4565b5b50919050565b7f4f6e6c79206f776e65722063616e20706572666f726d2074686973206163746960008201527f6f6e000000000000000000000000000000000000000000000000000000000000602082015250565b6000611370602283610e95565b915061137b82611314565b604082019050919050565b6000602082019050818103600083015261139f81611363565b9050919050565b7f416c726561647920737461727465640000000000000000000000000000000000600082015250565b60006113dc600f83610e95565b91506113e7826113a6565b602082019050919050565b6000602082019050818103600083015261140b816113cf565b9050919050565b7f416c7265616479207075626c6973686564000000000000000000000000000000600082015250565b6000611448601183610e95565b915061145382611412565b602082019050919050565b600060208201905081810360008301526114778161143b565b9050919050565b7f456c656374696f6e206e6f742073746172746564000000000000000000000000600082015250565b60006114b4601483610e95565b91506114bf8261147e565b602082019050919050565b600060208201905081810360008301526114e3816114a7565b9050919050565b7f566f74696e6720656e6465640000000000000000000000000000000000000000600082015250565b6000611520600c83610e95565b915061152b826114ea565b602082019050919050565b6000602082019050818103600083015261154f81611513565b9050919050565b7f4e6f742072656769737465726564000000000000000000000000000000000000600082015250565b600061158c600e83610e95565b915061159782611556565b602082019050919050565b600060208201905081810360008301526115bb8161157f565b9050919050565b7f416c726561647920766f74656400000000000000000000000000000000000000600082015250565b60006115f8600d83610e95565b9150611603826115c2565b602082019050919050565b60006020820190508181036000830152611627816115eb565b9050919050565b7f4e487b7100000000000000000000000000000000000000000000000000000000600052603260045260246000fd5b60008190508160005260206000209050919050565b6000815461167f816112e3565b611689818661119c565b945060018216600081146116a457600181146116b9576116ec565b60ff19831686528115158202860193506116ec565b6116c28561165d565b60005b838110156116e4578154818901526001820191506020810190506116c5565b838801955050505b50505092915050565b60006117018284611672565b915081905092915050565b7f4e487b7100000000000000000000000000000000000000000000000000000000600052601160045260246000fd5b600061174682610e32565b91507fffffffffffffffffffffffffffffffffffffffffffffffffffffffffffffffff82036117785761177761170c565b5b600182019050919050565b7f43616e646964617465206e6f7420666f756e6400000000000000000000000000600082015250565b60006117b9601383610e95565b91506117c482611783565b602082019050919050565b600060208201905081810360008301526117e8816117ac565b9050919050565b6000819050919050565b600061181461180f61180a846117ef565b610f21565b610e32565b9050919050565b611824816117f9565b82525050565b600060408201905081810360008301526118448185610ea6565b9050611853602083018461181b565b9392505050565b600060408201905061186f6000830185610fe9565b81810360208301526118818184610ea6565b9050939250505056fea26469706673582212200b2c7dcb72f6f2df636a13debe103a59af18abfb522783d3d6a6059a3436dd4664736f6c63430008120033",
					"opcodes": "PUSH1 0x80 PUSH1 0x40 MSTORE CALLVALUE DUP1 ISZERO PUSH3 0x11 JUMPI PUSH1 0x0 DUP1 REVERT JUMPDEST POP PUSH1 0x40 MLOAD PUSH3 0x2179 CODESIZE SUB DUP1 PUSH3 0x2179 DUP4 CODECOPY DUP2 DUP2 ADD PUSH1 0x40 MSTORE DUP2 ADD SWAP1 PUSH3 0x37 SWAP2 SWAP1 PUSH3 0x4FC JUMP JUMPDEST CALLER PUSH1 0x0 DUP1 PUSH2 0x100 EXP DUP2 SLOAD DUP2 PUSH20 0xFFFFFFFFFFFFFFFFFFFFFFFFFFFFFFFFFFFFFFFF MUL NOT AND SWAP1 DUP4 PUSH20 0xFFFFFFFFFFFFFFFFFFFFFFFFFFFFFFFFFFFFFFFF AND MUL OR SWAP1 SSTORE POP DUP3 PUSH1 0x3 SWAP1 DUP1 MLOAD SWAP1 PUSH1 0x20 ADD SWAP1 PUSH3 0x8F SWAP3 SWAP2 SWAP1 PUSH3 0x11B JUMP JUMPDEST POP DUP2 PUSH1 0x1 PUSH1 0x0 PUSH2 0x100 EXP DUP2 SLOAD DUP2 PUSH20 0xFFFFFFFFFFFFFFFFFFFFFFFFFFFFFFFFFFFFFFFF MUL NOT AND SWAP1 DUP4 PUSH20 0xFFFFFFFFFFFFFFFFFFFFFFFFFFFFFFFFFFFFFFFF AND MUL OR SWAP1 SSTORE POP DUP1 PUSH1 0x2 PUSH1 0x0 PUSH2 0x100 EXP DUP2 SLOAD DUP2 PUSH20 0xFFFFFFFFFFFFFFFFFFFFFFFFFFFFFFFFFFFFFFFF MUL NOT AND SWAP1 DUP4 PUSH20 0xFFFFFFFFFFFFFFFFFFFFFFFFFFFFFFFFFFFFFFFF AND MUL OR SWAP1 SSTORE POP POP POP POP PUSH3 0x8A9 JUMP JUMPDEST DUP3 DUP1 SLOAD DUP3 DUP3 SSTORE SWAP1 PUSH1 0x0 MSTORE PUSH1 0x20 PUSH1 0x0 KECCAK256 SWAP1 DUP2 ADD SWAP3 DUP3 ISZERO PUSH3 0x168 JUMPI SWAP2 PUSH1 0x20 MUL DUP3 ADD JUMPDEST DUP3 DUP2 GT ISZERO PUSH3 0x167 JUMPI DUP3 MLOAD DUP3 SWAP1 DUP2 PUSH3 0x156 SWAP2 SWAP1 PUSH3 0x7C2 JUMP JUMPDEST POP SWAP2 PUSH1 0x20 ADD SWAP2 SWAP1 PUSH1 0x1 ADD SWAP1 PUSH3 0x13C JUMP JUMPDEST JUMPDEST POP SWAP1 POP PUSH3 0x177 SWAP2 SWAP1 PUSH3 0x17B JUMP JUMPDEST POP SWAP1 JUMP JUMPDEST JUMPDEST DUP1 DUP3 GT ISZERO PUSH3 0x19F JUMPI PUSH1 0x0 DUP2 DUP2 PUSH3 0x195 SWAP2 SWAP1 PUSH3 0x1A3 JUMP JUMPDEST POP PUSH1 0x1 ADD PUSH3 0x17C JUMP JUMPDEST POP SWAP1 JUMP JUMPDEST POP DUP1 SLOAD PUSH3 0x1B1 SWAP1 PUSH3 0x5B1 JUMP JUMPDEST PUSH1 0x0 DUP3 SSTORE DUP1 PUSH1 0x1F LT PUSH3 0x1C5 JUMPI POP PUSH3 0x1E6 JUMP JUMPDEST PUSH1 0x1F ADD PUSH1 0x20 SWAP1 DIV SWAP1 PUSH1 0x0 MSTORE PUSH1 0x20 PUSH1 0x0 KECCAK256 SWAP1 DUP2 ADD SWAP1 PUSH3 0x1E5 SWAP2 SWAP1 PUSH3 0x1E9 JUMP JUMPDEST JUMPDEST POP JUMP JUMPDEST JUMPDEST DUP1 DUP3 GT ISZERO PUSH3 0x204 JUMPI PUSH1 0x0 DUP2 PUSH1 0x0 SWAP1 SSTORE POP PUSH1 0x1 ADD PUSH3 0x1EA JUMP JUMPDEST POP SWAP1 JUMP JUMPDEST PUSH1 0x0 PUSH1 0x40 MLOAD SWAP1 POP SWAP1 JUMP JUMPDEST PUSH1 0x0 DUP1 REVERT JUMPDEST PUSH1 0x0 DUP1 REVERT JUMPDEST PUSH1 0x0 DUP1 REVERT JUMPDEST PUSH1 0x0 PUSH1 0x1F NOT PUSH1 0x1F DUP4 ADD AND SWAP1 POP SWAP2 SWAP1 POP JUMP JUMPDEST PUSH32 0x4E487B7100000000000000000000000000000000000000000000000000000000 PUSH1 0x0 MSTORE PUSH1 0x41 PUSH1 0x4 MSTORE PUSH1 0x24 PUSH1 0x0 REVERT JUMPDEST PUSH3 0x26C DUP3 PUSH3 0x221 JUMP JUMPDEST DUP2 ADD DUP2 DUP2 LT PUSH8 0xFFFFFFFFFFFFFFFF DUP3 GT OR ISZERO PUSH3 0x28E JUMPI PUSH3 0x28D PUSH3 0x232 JUMP JUMPDEST JUMPDEST DUP1 PUSH1 0x40 MSTORE POP POP POP JUMP JUMPDEST PUSH1 0x0 PUSH3 0x2A3 PUSH3 0x208 JUMP JUMPDEST SWAP1 POP PUSH3 0x2B1 DUP3 DUP3 PUSH3 0x261 JUMP JUMPDEST SWAP2 SWAP1 POP JUMP JUMPDEST PUSH1 0x0 PUSH8 0xFFFFFFFFFFFFFFFF DUP3 GT ISZERO PUSH3 0x2D4 JUMPI PUSH3 0x2D3 PUSH3 0x232 JUMP JUMPDEST JUMPDEST PUSH1 0x20 DUP3 MUL SWAP1 POP PUSH1 0x20 DUP2 ADD SWAP1 POP SWAP2 SWAP1 POP JUMP JUMPDEST PUSH1 0x0 DUP1 REVERT JUMPDEST PUSH1 0x0 DUP1 REVERT JUMPDEST PUSH1 0x0 PUSH8 0xFFFFFFFFFFFFFFFF DUP3 GT ISZERO PUSH3 0x30D JUMPI PUSH3 0x30C PUSH3 0x232 JUMP JUMPDEST JUMPDEST PUSH3 0x318 DUP3 PUSH3 0x221 JUMP JUMPDEST SWAP1 POP PUSH1 0x20 DUP2 ADD SWAP1 POP SWAP2 SWAP1 POP JUMP JUMPDEST PUSH1 0x0 JUMPDEST DUP4 DUP2 LT ISZERO PUSH3 0x345 JUMPI DUP1 DUP3 ADD MLOAD DUP2 DUP5 ADD MSTORE PUSH1 0x20 DUP2 ADD SWAP1 POP PUSH3 0x328 JUMP JUMPDEST PUSH1 0x0 DUP5 DUP5 ADD MSTORE POP POP POP POP JUMP JUMPDEST PUSH1 0x0 PUSH3 0x368 PUSH3 0x362 DUP5 PUSH3 0x2EF JUMP JUMPDEST PUSH3 0x297 JUMP JUMPDEST SWAP1 POP DUP3 DUP2 MSTORE PUSH1 0x20 DUP2 ADD DUP5 DUP5 DUP5 ADD GT ISZERO PUSH3 0x387 JUMPI PUSH3 0x386 PUSH3 0x2EA JUMP JUMPDEST JUMPDEST PUSH3 0x394 DUP5 DUP3 DUP6 PUSH3 0x325 JUMP JUMPDEST POP SWAP4 SWAP3 POP POP POP JUMP JUMPDEST PUSH1 0x0 DUP3 PUSH1 0x1F DUP4 ADD SLT PUSH3 0x3B4 JUMPI PUSH3 0x3B3 PUSH3 0x21C JUMP JUMPDEST JUMPDEST DUP2 MLOAD PUSH3 0x3C6 DUP5 DUP3 PUSH1 0x20 DUP7 ADD PUSH3 0x351 JUMP JUMPDEST SWAP2 POP POP SWAP3 SWAP2 POP POP JUMP JUMPDEST PUSH1 0x0 PUSH3 0x3E6 PUSH3 0x3E0 DUP5 PUSH3 0x2B6 JUMP JUMPDEST PUSH3 0x297 JUMP JUMPDEST SWAP1 POP DUP1 DUP4 DUP3 MSTORE PUSH1 0x20 DUP3 ADD SWAP1 POP PUSH1 0x20 DUP5 MUL DUP4 ADD DUP6 DUP2 GT ISZERO PUSH3 0x40C JUMPI PUSH3 0x40B PUSH3 0x2E5 JUMP JUMPDEST JUMPDEST DUP4 JUMPDEST DUP2 DUP2 LT ISZERO PUSH3 0x45A JUMPI DUP1 MLOAD PUSH8 0xFFFFFFFFFFFFFFFF DUP2 GT ISZERO PUSH3 0x435 JUMPI PUSH3 0x434 PUSH3 0x21C JUMP JUMPDEST JUMPDEST DUP1 DUP7 ADD PUSH3 0x444 DUP10 DUP3 PUSH3 0x39C JUMP JUMPDEST DUP6 MSTORE PUSH1 0x20 DUP6 ADD SWAP5 POP POP POP PUSH1 0x20 DUP2 ADD SWAP1 POP PUSH3 0x40E JUMP JUMPDEST POP POP POP SWAP4 SWAP3 POP POP POP JUMP JUMPDEST PUSH1 0x0 DUP3 PUSH1 0x1F DUP4 ADD SLT PUSH3 0x47C JUMPI PUSH3 0x47B PUSH3 0x21C JUMP JUMPDEST JUMPDEST DUP2 MLOAD PUSH3 0x48E DUP5 DUP3 PUSH1 0x20 DUP7 ADD PUSH3 0x3CF JUMP JUMPDEST SWAP2 POP POP SWAP3 SWAP2 POP POP JUMP JUMPDEST PUSH1 0x0 PUSH20 0xFFFFFFFFFFFFFFFFFFFFFFFFFFFFFFFFFFFFFFFF DUP3 AND SWAP1 POP SWAP2 SWAP1 POP JUMP JUMPDEST PUSH1 0x0 PUSH3 0x4C4 DUP3 PUSH3 0x497 JUMP JUMPDEST SWAP1 POP SWAP2 SWAP1 POP JUMP JUMPDEST PUSH3 0x4D6 DUP2 PUSH3 0x4B7 JUMP JUMPDEST DUP2 EQ PUSH3 0x4E2 JUMPI PUSH1 0x0 DUP1 REVERT JUMPDEST POP JUMP JUMPDEST PUSH1 0x0 DUP2 MLOAD SWAP1 POP PUSH3 0x4F6 DUP2 PUSH3 0x4CB JUMP JUMPDEST SWAP3 SWAP2 POP POP JUMP JUMPDEST PUSH1 0x0 DUP1 PUSH1 0x0 PUSH1 0x60 DUP5 DUP7 SUB SLT ISZERO PUSH3 0x518 JUMPI PUSH3 0x517 PUSH3 0x212 JUMP JUMPDEST JUMPDEST PUSH1 0x0 DUP5 ADD MLOAD PUSH8 0xFFFFFFFFFFFFFFFF DUP2 GT ISZERO PUSH3 0x539 JUMPI PUSH3 0x538 PUSH3 0x217 JUMP JUMPDEST JUMPDEST PUSH3 0x547 DUP7 DUP3 DUP8 ADD PUSH3 0x464 JUMP JUMPDEST SWAP4 POP POP PUSH1 0x20 PUSH3 0x55A DUP7 DUP3 DUP8 ADD PUSH3 0x4E5 JUMP JUMPDEST SWAP3 POP POP PUSH1 0x40 PUSH3 0x56D DUP7 DUP3 DUP8 ADD PUSH3 0x4E5 JUMP JUMPDEST SWAP2 POP POP SWAP3 POP SWAP3 POP SWAP3 JUMP JUMPDEST PUSH1 0x0 DUP2 MLOAD SWAP1 POP SWAP2 SWAP1 POP JUMP JUMPDEST PUSH32 0x4E487B7100000000000000000000000000000000000000000000000000000000 PUSH1 0x0 MSTORE PUSH1 0x22 PUSH1 0x4 MSTORE PUSH1 0x24 PUSH1 0x0 REVERT JUMPDEST PUSH1 0x0 PUSH1 0x2 DUP3 DIV SWAP1 POP PUSH1 0x1 DUP3 AND DUP1 PUSH3 0x5CA JUMPI PUSH1 0x7F DUP3 AND SWAP2 POP JUMPDEST PUSH1 0x20 DUP3 LT DUP2 SUB PUSH3 0x5E0 JUMPI PUSH3 0x5DF PUSH3 0x582 JUMP JUMPDEST JUMPDEST POP SWAP2 SWAP1 POP JUMP JUMPDEST PUSH1 0x0 DUP2 SWAP1 POP DUP2 PUSH1 0x0 MSTORE PUSH1 0x20 PUSH1 0x0 KECCAK256 SWAP1 POP SWAP2 SWAP1 POP JUMP JUMPDEST PUSH1 0x0 PUSH1 0x20 PUSH1 0x1F DUP4 ADD DIV SWAP1 POP SWAP2 SWAP1 POP JUMP JUMPDEST PUSH1 0x0 DUP3 DUP3 SHL SWAP1 POP SWAP3 SWAP2 POP POP JUMP JUMPDEST PUSH1 0x0 PUSH1 0x8 DUP4 MUL PUSH3 0x64A PUSH32 0xFFFFFFFFFFFFFFFFFFFFFFFFFFFFFFFFFFFFFFFFFFFFFFFFFFFFFFFFFFFFFFFF DUP3 PUSH3 0x60B JUMP JUMPDEST PUSH3 0x656 DUP7 DUP4 PUSH3 0x60B JUMP JUMPDEST SWAP6 POP DUP1 NOT DUP5 AND SWAP4 POP DUP1 DUP7 AND DUP5 OR SWAP3 POP POP POP SWAP4 SWAP3 POP POP POP JUMP JUMPDEST PUSH1 0x0 DUP2 SWAP1 POP SWAP2 SWAP1 POP JUMP JUMPDEST PUSH1 0x0 DUP2 SWAP1 POP SWAP2 SWAP1 POP JUMP JUMPDEST PUSH1 0x0 PUSH3 0x6A3 PUSH3 0x69D PUSH3 0x697 DUP5 PUSH3 0x66E JUMP JUMPDEST PUSH3 0x678 JUMP JUMPDEST PUSH3 0x66E JUMP JUMPDEST SWAP1 POP SWAP2 SWAP1 POP JUMP JUMPDEST PUSH1 0x0 DUP2 SWAP1 POP SWAP2 SWAP1 POP JUMP JUMPDEST PUSH3 0x6BF DUP4 PUSH3 0x682 JUMP JUMPDEST PUSH3 0x6D7 PUSH3 0x6CE DUP3 PUSH3 0x6AA JUMP JUMPDEST DUP5 DUP5 SLOAD PUSH3 0x618 JUMP JUMPDEST DUP3 SSTORE POP POP POP POP JUMP JUMPDEST PUSH1 0x0 SWAP1 JUMP JUMPDEST PUSH3 0x6EE PUSH3 0x6DF JUMP JUMPDEST PUSH3 0x6FB DUP2 DUP5 DUP5 PUSH3 0x6B4 JUMP JUMPDEST POP POP POP JUMP JUMPDEST JUMPDEST DUP2 DUP2 LT ISZERO PUSH3 0x723 JUMPI PUSH3 0x717 PUSH1 0x0 DUP3 PUSH3 0x6E4 JUMP JUMPDEST PUSH1 0x1 DUP2 ADD SWAP1 POP PUSH3 0x701 JUMP JUMPDEST POP POP JUMP JUMPDEST PUSH1 0x1F DUP3 GT ISZERO PUSH3 0x772 JUMPI PUSH3 0x73C DUP2 PUSH3 0x5E6 JUMP JUMPDEST PUSH3 0x747 DUP5 PUSH3 0x5FB JUMP JUMPDEST DUP2 ADD PUSH1 0x20 DUP6 LT ISZERO PUSH3 0x757 JUMPI DUP2 SWAP1 POP JUMPDEST PUSH3 0x76F PUSH3 0x766 DUP6 PUSH3 0x5FB JUMP JUMPDEST DUP4 ADD DUP3 PUSH3 0x700 JUMP JUMPDEST POP POP JUMPDEST POP POP POP JUMP JUMPDEST PUSH1 0x0 DUP3 DUP3 SHR SWAP1 POP SWAP3 SWAP2 POP POP JUMP JUMPDEST PUSH1 0x0 PUSH3 0x797 PUSH1 0x0 NOT DUP5 PUSH1 0x8 MUL PUSH3 0x777 JUMP JUMPDEST NOT DUP1 DUP4 AND SWAP2 POP POP SWAP3 SWAP2 POP POP JUMP JUMPDEST PUSH1 0x0 PUSH3 0x7B2 DUP4 DUP4 PUSH3 0x784 JUMP JUMPDEST SWAP2 POP DUP3 PUSH1 0x2 MUL DUP3 OR SWAP1 POP SWAP3 SWAP2 POP POP JUMP JUMPDEST PUSH3 0x7CD DUP3 PUSH3 0x577 JUMP JUMPDEST PUSH8 0xFFFFFFFFFFFFFFFF DUP2 GT ISZERO PUSH3 0x7E9 JUMPI PUSH3 0x7E8 PUSH3 0x232 JUMP JUMPDEST JUMPDEST PUSH3 0x7F5 DUP3 SLOAD PUSH3 0x5B1 JUMP JUMPDEST PUSH3 0x802 DUP3 DUP3 DUP6 PUSH3 0x727 JUMP JUMPDEST PUSH1 0x0 PUSH1 0x20 SWAP1 POP PUSH1 0x1F DUP4 GT PUSH1 0x1 DUP2 EQ PUSH3 0x83A JUMPI PUSH1 0x0 DUP5 ISZERO PUSH3 0x825 JUMPI DUP3 DUP8 ADD MLOAD SWAP1 POP JUMPDEST PUSH3 0x831 DUP6 DUP3 PUSH3 0x7A4 JUMP JUMPDEST DUP7 SSTORE POP PUSH3 0x8A1 JUMP JUMPDEST PUSH1 0x1F NOT DUP5 AND PUSH3 0x84A DUP7 PUSH3 0x5E6 JUMP JUMPDEST PUSH1 0x0 JUMPDEST DUP3 DUP2 LT ISZERO PUSH3 0x874 JUMPI DUP5 DUP10 ADD MLOAD DUP3 SSTORE PUSH1 0x1 DUP3 ADD SWAP2 POP PUSH1 0x20 DUP6 ADD SWAP5 POP PUSH1 0x20 DUP2 ADD SWAP1 POP PUSH3 0x84D JUMP JUMPDEST DUP7 DUP4 LT ISZERO PUSH3 0x894 JUMPI DUP5 DUP10 ADD MLOAD PUSH3 0x890 PUSH1 0x1F DUP10 AND DUP3 PUSH3 0x784 JUMP JUMPDEST DUP4 SSTORE POP JUMPDEST PUSH1 0x1 PUSH1 0x2 DUP9 MUL ADD DUP9 SSTORE POP POP POP JUMPDEST POP POP POP POP POP POP JUMP JUMPDEST PUSH2 0x18C0 DUP1 PUSH3 0x8B9 PUSH1 0x0 CODECOPY PUSH1 0x0 RETURN INVALID PUSH1 0x80 PUSH1 0x40 MSTORE CALLVALUE DUP1 ISZERO PUSH2 0x10 JUMPI PUSH1 0x0 DUP1 REVERT JUMPDEST POP PUSH1 0x4 CALLDATASIZE LT PUSH2 0xA9 JUMPI PUSH1 0x0 CALLDATALOAD PUSH1 0xE0 SHR DUP1 PUSH4 0x62D73EB8 GT PUSH2 0x71 JUMPI DUP1 PUSH4 0x62D73EB8 EQ PUSH2 0x156 JUMPI DUP1 PUSH4 0x7B103999 EQ PUSH2 0x160 JUMPI DUP1 PUSH4 0x8DA5CB5B EQ PUSH2 0x17E JUMPI DUP1 PUSH4 0xB952E7D8 EQ PUSH2 0x19C JUMPI DUP1 PUSH4 0xD5346DA1 EQ PUSH2 0x1A6 JUMPI DUP1 PUSH4 0xFC36E15B EQ PUSH2 0x1C4 JUMPI PUSH2 0xA9 JUMP JUMPDEST DUP1 PUSH4 0x12F4ACEC EQ PUSH2 0xAE JUMPI DUP1 PUSH4 0x2E6997FE EQ PUSH2 0xCC JUMPI DUP1 PUSH4 0x3477EE2E EQ PUSH2 0xEA JUMPI DUP1 PUSH4 0x410673E5 EQ PUSH2 0x11A JUMPI DUP1 PUSH4 0x5F589599 EQ PUSH2 0x138 JUMPI JUMPDEST PUSH1 0x0 DUP1 REVERT JUMPDEST PUSH2 0xB6 PUSH2 0x1E0 JUMP JUMPDEST PUSH1 0x40 MLOAD PUSH2 0xC3 SWAP2 SWAP1 PUSH2 0xC8F JUMP JUMPDEST PUSH1 0x40 MLOAD DUP1 SWAP2 SUB SWAP1 RETURN JUMPDEST PUSH2 0xD4 PUSH2 0x34E JUMP JUMPDEST PUSH1 0x40 MLOAD PUSH2 0xE1 SWAP2 SWAP1 PUSH2 0xDFC JUMP JUMPDEST PUSH1 0x40 MLOAD DUP1 SWAP2 SUB SWAP1 RETURN JUMPDEST PUSH2 0x104 PUSH1 0x4 DUP1 CALLDATASIZE SUB DUP2 ADD SWAP1 PUSH2 0xFF SWAP2 SWAP1 PUSH2 0xE68 JUMP JUMPDEST PUSH2 0x427 JUMP JUMPDEST PUSH1 0x40 MLOAD PUSH2 0x111 SWAP2 SWAP1 PUSH2 0xEDF JUMP JUMPDEST PUSH1 0x40 MLOAD DUP1 SWAP2 SUB SWAP1 RETURN JUMPDEST PUSH2 0x122 PUSH2 0x4D3 JUMP JUMPDEST PUSH1 0x40 MLOAD PUSH2 0x12F SWAP2 SWAP1 PUSH2 0xF80 JUMP JUMPDEST PUSH1 0x40 MLOAD DUP1 SWAP2 SUB SWAP1 RETURN JUMPDEST PUSH2 0x140 PUSH2 0x4F9 JUMP JUMPDEST PUSH1 0x40 MLOAD PUSH2 0x14D SWAP2 SWAP1 PUSH2 0xC8F JUMP JUMPDEST PUSH1 0x40 MLOAD DUP1 SWAP2 SUB SWAP1 RETURN JUMPDEST PUSH2 0x15E PUSH2 0x50C JUMP JUMPDEST STOP JUMPDEST PUSH2 0x168 PUSH2 0x633 JUMP JUMPDEST PUSH1 0x40 MLOAD PUSH2 0x175 SWAP2 SWAP1 PUSH2 0xFBC JUMP JUMPDEST PUSH1 0x40 MLOAD DUP1 SWAP2 SUB SWAP1 RETURN JUMPDEST PUSH2 0x186 PUSH2 0x659 JUMP JUMPDEST PUSH1 0x40 MLOAD PUSH2 0x193 SWAP2 SWAP1 PUSH2 0xFF8 JUMP JUMPDEST PUSH1 0x40 MLOAD DUP1 SWAP2 SUB SWAP1 RETURN JUMPDEST PUSH2 0x1A4 PUSH2 0x67D JUMP JUMPDEST STOP JUMPDEST PUSH2 0x1AE PUSH2 0x803 JUMP JUMPDEST PUSH1 0x40 MLOAD PUSH2 0x1BB SWAP2 SWAP1 PUSH2 0xC8F JUMP JUMPDEST PUSH1 0x40 MLOAD DUP1 SWAP2 SUB SWAP1 RETURN JUMPDEST PUSH2 0x1DE PUSH1 0x4 DUP1 CALLDATASIZE SUB DUP2 ADD SWAP1 PUSH2 0x1D9 SWAP2 SWAP1 PUSH2 0x1148 JUMP JUMPDEST PUSH2 0x816 JUMP JUMPDEST STOP JUMPDEST PUSH1 0x0 DUP1 PUSH1 0x0 PUSH1 0x2 PUSH1 0x0 SWAP1 SLOAD SWAP1 PUSH2 0x100 EXP SWAP1 DIV PUSH20 0xFFFFFFFFFFFFFFFFFFFFFFFFFFFFFFFFFFFFFFFF AND PUSH20 0xFFFFFFFFFFFFFFFFFFFFFFFFFFFFFFFFFFFFFFFF AND PUSH1 0x40 MLOAD PUSH1 0x24 ADD PUSH1 0x40 MLOAD PUSH1 0x20 DUP2 DUP4 SUB SUB DUP2 MSTORE SWAP1 PUSH1 0x40 MSTORE PUSH32 0x5F58959900000000000000000000000000000000000000000000000000000000 PUSH28 0xFFFFFFFFFFFFFFFFFFFFFFFFFFFFFFFFFFFFFFFFFFFFFFFFFFFFFFFF NOT AND PUSH1 0x20 DUP3 ADD DUP1 MLOAD PUSH28 0xFFFFFFFFFFFFFFFFFFFFFFFFFFFFFFFFFFFFFFFFFFFFFFFFFFFFFFFF DUP4 DUP2 DUP4 AND OR DUP4 MSTORE POP POP POP POP PUSH1 0x40 MLOAD PUSH2 0x2AE SWAP2 SWAP1 PUSH2 0x11D8 JUMP JUMPDEST PUSH1 0x0 PUSH1 0x40 MLOAD DUP1 DUP4 SUB DUP2 DUP6 GAS STATICCALL SWAP2 POP POP RETURNDATASIZE DUP1 PUSH1 0x0 DUP2 EQ PUSH2 0x2E9 JUMPI PUSH1 0x40 MLOAD SWAP2 POP PUSH1 0x1F NOT PUSH1 0x3F RETURNDATASIZE ADD AND DUP3 ADD PUSH1 0x40 MSTORE RETURNDATASIZE DUP3 MSTORE RETURNDATASIZE PUSH1 0x0 PUSH1 0x20 DUP5 ADD RETURNDATACOPY PUSH2 0x2EE JUMP JUMPDEST PUSH1 0x60 SWAP2 POP JUMPDEST POP SWAP2 POP SWAP2 POP DUP2 PUSH2 0x333 JUMPI PUSH1 0x40 MLOAD PUSH32 0x8C379A000000000000000000000000000000000000000000000000000000000 DUP2 MSTORE PUSH1 0x4 ADD PUSH2 0x32A SWAP1 PUSH2 0x123B JUMP JUMPDEST PUSH1 0x40 MLOAD DUP1 SWAP2 SUB SWAP1 REVERT JUMPDEST DUP1 DUP1 PUSH1 0x20 ADD SWAP1 MLOAD DUP2 ADD SWAP1 PUSH2 0x347 SWAP2 SWAP1 PUSH2 0x1287 JUMP JUMPDEST SWAP3 POP POP POP SWAP1 JUMP JUMPDEST PUSH1 0x60 PUSH1 0x3 DUP1 SLOAD DUP1 PUSH1 0x20 MUL PUSH1 0x20 ADD PUSH1 0x40 MLOAD SWAP1 DUP2 ADD PUSH1 0x40 MSTORE DUP1 SWAP3 SWAP2 SWAP1 DUP2 DUP2 MSTORE PUSH1 0x20 ADD PUSH1 0x0 SWAP1 JUMPDEST DUP3 DUP3 LT ISZERO PUSH2 0x41E JUMPI DUP4 DUP3 SWAP1 PUSH1 0x0 MSTORE PUSH1 0x20 PUSH1 0x0 KECCAK256 ADD DUP1 SLOAD PUSH2 0x391 SWAP1 PUSH2 0x12E3 JUMP JUMPDEST DUP1 PUSH1 0x1F ADD PUSH1 0x20 DUP1 SWAP2 DIV MUL PUSH1 0x20 ADD PUSH1 0x40 MLOAD SWAP1 DUP2 ADD PUSH1 0x40 MSTORE DUP1 SWAP3 SWAP2 SWAP1 DUP2 DUP2 MSTORE PUSH1 0x20 ADD DUP3 DUP1 SLOAD PUSH2 0x3BD SWAP1 PUSH2 0x12E3 JUMP JUMPDEST DUP1 ISZERO PUSH2 0x40A JUMPI DUP1 PUSH1 0x1F LT PUSH2 0x3DF JUMPI PUSH2 0x100 DUP1 DUP4 SLOAD DIV MUL DUP4 MSTORE SWAP2 PUSH1 0x20 ADD SWAP2 PUSH2 0x40A JUMP JUMPDEST DUP3 ADD SWAP2 SWAP1 PUSH1 0x0 MSTORE PUSH1 0x20 PUSH1 0x0 KECCAK256 SWAP1 JUMPDEST DUP2 SLOAD DUP2 MSTORE SWAP1 PUSH1 0x1 ADD SWAP1 PUSH1 0x20 ADD DUP1 DUP4 GT PUSH2 0x3ED JUMPI DUP3 SWAP1 SUB PUSH1 0x1F AND DUP3 ADD SWAP2 JUMPDEST POP POP POP POP POP DUP2 MSTORE PUSH1 0x20 ADD SWAP1 PUSH1 0x1 ADD SWAP1 PUSH2 0x372 JUMP JUMPDEST POP POP POP POP SWAP1 POP SWAP1 JUMP JUMPDEST PUSH1 0x3 DUP2 DUP2 SLOAD DUP2 LT PUSH2 0x437 JUMPI PUSH1 0x0 DUP1 REVERT JUMPDEST SWAP1 PUSH1 0x0 MSTORE PUSH1 0x20 PUSH1 0x0 KECCAK256 ADD PUSH1 0x0 SWAP2 POP SWAP1 POP DUP1 SLOAD PUSH2 0x452 SWAP1 PUSH2 0x12E3 JUMP JUMPDEST DUP1 PUSH1 0x1F ADD PUSH1 0x20 DUP1 SWAP2 DIV MUL PUSH1 0x20 ADD PUSH1 0x40 MLOAD SWAP1 DUP2 ADD PUSH1 0x40 MSTORE DUP1 SWAP3 SWAP2 SWAP1 DUP2 DUP2 MSTORE PUSH1 0x20 ADD DUP3 DUP1 SLOAD PUSH2 0x47E SWAP1 PUSH2 0x12E3 JUMP JUMPDEST DUP1 ISZERO PUSH2 0x4CB JUMPI DUP1 PUSH1 0x1F LT PUSH2 0x4A0 JUMPI PUSH2 0x100 DUP1 DUP4 SLOAD DIV MUL DUP4 MSTORE SWAP2 PUSH1 0x20 ADD SWAP2 PUSH2 0x4CB JUMP JUMPDEST DUP3 ADD SWAP2 SWAP1 PUSH1 0x0 MSTORE PUSH1 0x20 PUSH1 0x0 KECCAK256 SWAP1 JUMPDEST DUP2 SLOAD DUP2 MSTORE SWAP1 PUSH1 0x1 ADD SWAP1 PUSH1 0x20 ADD DUP1 DUP4 GT PUSH2 0x4AE JUMPI DUP3 SWAP1 SUB PUSH1 0x1F AND DUP3 ADD SWAP2 JUMPDEST POP POP POP POP POP DUP2 JUMP JUMPDEST PUSH1 0x2 PUSH1 0x0 SWAP1 SLOAD SWAP1 PUSH2 0x100 EXP SWAP1 DIV PUSH20 0xFFFFFFFFFFFFFFFFFFFFFFFFFFFFFFFFFFFFFFFF AND DUP2 JUMP JUMPDEST PUSH1 0x0 PUSH1 0x15 SWAP1 SLOAD SWAP1 PUSH2 0x100 EXP SWAP1 DIV PUSH1 0xFF AND DUP2 JUMP JUMPDEST PUSH1 0x0 DUP1 SLOAD SWAP1 PUSH2 0x100 EXP SWAP1 DIV PUSH20 0xFFFFFFFFFFFFFFFFFFFFFFFFFFFFFFFFFFFFFFFF AND PUSH20 0xFFFFFFFFFFFFFFFFFFFFFFFFFFFFFFFFFFFFFFFF AND CALLER PUSH20 0xFFFFFFFFFFFFFFFFFFFFFFFFFFFFFFFFFFFFFFFF AND EQ PUSH2 0x59A JUMPI PUSH1 0x40 MLOAD PUSH32 0x8C379A000000000000000000000000000000000000000000000000000000000 DUP2 MSTORE PUSH1 0x4 ADD PUSH2 0x591 SWAP1 PUSH2 0x1386 JUMP JUMPDEST PUSH1 0x40 MLOAD DUP1 SWAP2 SUB SWAP1 REVERT JUMPDEST PUSH1 0x0 PUSH1 0x14 SWAP1 SLOAD SWAP1 PUSH2 0x100 EXP SWAP1 DIV PUSH1 0xFF AND ISZERO PUSH2 0x5EA JUMPI PUSH1 0x40 MLOAD PUSH32 0x8C379A000000000000000000000000000000000000000000000000000000000 DUP2 MSTORE PUSH1 0x4 ADD PUSH2 0x5E1 SWAP1 PUSH2 0x13F2 JUMP JUMPDEST PUSH1 0x40 MLOAD DUP1 SWAP2 SUB SWAP1 REVERT JUMPDEST PUSH1 0x1 PUSH1 0x0 PUSH1 0x14 PUSH2 0x100 EXP DUP2 SLOAD DUP2 PUSH1 0xFF MUL NOT AND SWAP1 DUP4 ISZERO ISZERO MUL OR SWAP1 SSTORE POP PUSH32 0xC475C26AA25ED8E85A7FAA790E5F63B5D7EE1025F12821F4C9BFDDD36AB4D112 PUSH1 0x40 MLOAD PUSH1 0x40 MLOAD DUP1 SWAP2 SUB SWAP1 LOG1 JUMP JUMPDEST PUSH1 0x1 PUSH1 0x0 SWAP1 SLOAD SWAP1 PUSH2 0x100 EXP SWAP1 DIV PUSH20 0xFFFFFFFFFFFFFFFFFFFFFFFFFFFFFFFFFFFFFFFF AND DUP2 JUMP JUMPDEST PUSH1 0x0 DUP1 SLOAD SWAP1 PUSH2 0x100 EXP SWAP1 DIV PUSH20 0xFFFFFFFFFFFFFFFFFFFFFFFFFFFFFFFFFFFFFFFF AND DUP2 JUMP JUMPDEST PUSH1 0x0 DUP1 SLOAD SWAP1 PUSH2 0x100 EXP SWAP1 DIV PUSH20 0xFFFFFFFFFFFFFFFFFFFFFFFFFFFFFFFFFFFFFFFF AND PUSH20 0xFFFFFFFFFFFFFFFFFFFFFFFFFFFFFFFFFFFFFFFF AND CALLER PUSH20 0xFFFFFFFFFFFFFFFFFFFFFFFFFFFFFFFFFFFFFFFF AND EQ PUSH2 0x70B JUMPI PUSH1 0x40 MLOAD PUSH32 0x8C379A000000000000000000000000000000000000000000000000000000000 DUP2 MSTORE PUSH1 0x4 ADD PUSH2 0x702 SWAP1 PUSH2 0x1386 JUMP JUMPDEST PUSH1 0x40 MLOAD DUP1 SWAP2 SUB SWAP1 REVERT JUMPDEST PUSH2 0x713 PUSH2 0x1E0 JUMP JUMPDEST ISZERO PUSH2 0x753 JUMPI PUSH1 0x40 MLOAD PUSH32 0x8C379A000000000000000000000000000000000000000000000000000000000 DUP2 MSTORE PUSH1 0x4 ADD PUSH2 0x74A SWAP1 PUSH2 0x145E JUMP JUMPDEST PUSH1 0x40 MLOAD DUP1 SWAP2 SUB SWAP1 REVERT JUMPDEST PUSH1 0x2 PUSH1 0x0 SWAP1 SLOAD SWAP1 PUSH2 0x100 EXP SWAP1 DIV PUSH20 0xFFFFFFFFFFFFFFFFFFFFFFFFFFFFFFFFFFFFFFFF AND PUSH20 0xFFFFFFFFFFFFFFFFFFFFFFFFFFFFFFFFFFFFFFFF AND PUSH4 0xB952E7D8 PUSH1 0x40 MLOAD DUP2 PUSH4 0xFFFFFFFF AND PUSH1 0xE0 SHL DUP2 MSTORE PUSH1 0x4 ADD PUSH1 0x0 PUSH1 0x40 MLOAD DUP1 DUP4 SUB DUP2 PUSH1 0x0 DUP8 DUP1 EXTCODESIZE ISZERO DUP1 ISZERO PUSH2 0x7BD JUMPI PUSH1 0x0 DUP1 REVERT JUMPDEST POP GAS CALL ISZERO DUP1 ISZERO PUSH2 0x7D1 JUMPI RETURNDATASIZE PUSH1 0x0 DUP1 RETURNDATACOPY RETURNDATASIZE PUSH1 0x0 REVERT JUMPDEST POP POP POP POP PUSH32 0x10689AC5C5DDC265DA7F6B71F74017330BA8F045032A672F7350EE2AAF793A2C PUSH1 0x40 MLOAD PUSH1 0x40 MLOAD DUP1 SWAP2 SUB SWAP1 LOG1 JUMP JUMPDEST PUSH1 0x0 PUSH1 0x14 SWAP1 SLOAD SWAP1 PUSH2 0x100 EXP SWAP1 DIV PUSH1 0xFF AND DUP2 JUMP JUMPDEST PUSH1 0x0 PUSH1 0x14 SWAP1 SLOAD SWAP1 PUSH2 0x100 EXP SWAP1 DIV PUSH1 0xFF AND PUSH2 0x865 JUMPI PUSH1 0x40 MLOAD PUSH32 0x8C379A000000000000000000000000000000000000000000000000000000000 DUP2 MSTORE PUSH1 0x4 ADD PUSH2 0x85C SWAP1 PUSH2 0x14CA JUMP JUMPDEST PUSH1 0x40 MLOAD DUP1 SWAP2 SUB SWAP1 REVERT JUMPDEST PUSH1 0x0 PUSH1 0x15 SWAP1 SLOAD SWAP1 PUSH2 0x100 EXP SWAP1 DIV PUSH1 0xFF AND ISZERO PUSH2 0x8B5 JUMPI PUSH1 0x40 MLOAD PUSH32 0x8C379A000000000000000000000000000000000000000000000000000000000 DUP2 MSTORE PUSH1 0x4 ADD PUSH2 0x8AC SWAP1 PUSH2 0x1536 JUMP JUMPDEST PUSH1 0x40 MLOAD DUP1 SWAP2 SUB SWAP1 REVERT JUMPDEST PUSH1 0x1 PUSH1 0x0 SWAP1 SLOAD SWAP1 PUSH2 0x100 EXP SWAP1 DIV PUSH20 0xFFFFFFFFFFFFFFFFFFFFFFFFFFFFFFFFFFFFFFFF AND PUSH20 0xFFFFFFFFFFFFFFFFFFFFFFFFFFFFFFFFFFFFFFFF AND PUSH4 0xC3C5A547 CALLER PUSH1 0x40 MLOAD DUP3 PUSH4 0xFFFFFFFF AND PUSH1 0xE0 SHL DUP2 MSTORE PUSH1 0x4 ADD PUSH2 0x910 SWAP2 SWAP1 PUSH2 0xFF8 JUMP JUMPDEST PUSH1 0x20 PUSH1 0x40 MLOAD DUP1 DUP4 SUB DUP2 DUP7 GAS STATICCALL ISZERO DUP1 ISZERO PUSH2 0x92D JUMPI RETURNDATASIZE PUSH1 0x0 DUP1 RETURNDATACOPY RETURNDATASIZE PUSH1 0x0 REVERT JUMPDEST POP POP POP POP PUSH1 0x40 MLOAD RETURNDATASIZE PUSH1 0x1F NOT PUSH1 0x1F DUP3 ADD AND DUP3 ADD DUP1 PUSH1 0x40 MSTORE POP DUP2 ADD SWAP1 PUSH2 0x951 SWAP2 SWAP1 PUSH2 0x1287 JUMP JUMPDEST PUSH2 0x990 JUMPI PUSH1 0x40 MLOAD PUSH32 0x8C379A000000000000000000000000000000000000000000000000000000000 DUP2 MSTORE PUSH1 0x4 ADD PUSH2 0x987 SWAP1 PUSH2 0x15A2 JUMP JUMPDEST PUSH1 0x40 MLOAD DUP1 SWAP2 SUB SWAP1 REVERT JUMPDEST PUSH1 0x1 PUSH1 0x0 SWAP1 SLOAD SWAP1 PUSH2 0x100 EXP SWAP1 DIV PUSH20 0xFFFFFFFFFFFFFFFFFFFFFFFFFFFFFFFFFFFFFFFF AND PUSH20 0xFFFFFFFFFFFFFFFFFFFFFFFFFFFFFFFFFFFFFFFF AND PUSH4 0x9EEF43E CALLER PUSH1 0x40 MLOAD DUP3 PUSH4 0xFFFFFFFF AND PUSH1 0xE0 SHL DUP2 MSTORE PUSH1 0x4 ADD PUSH2 0x9EB SWAP2 SWAP1 PUSH2 0xFF8 JUMP JUMPDEST PUSH1 0x20 PUSH1 0x40 MLOAD DUP1 DUP4 SUB DUP2 DUP7 GAS STATICCALL ISZERO DUP1 ISZERO PUSH2 0xA08 JUMPI RETURNDATASIZE PUSH1 0x0 DUP1 RETURNDATACOPY RETURNDATASIZE PUSH1 0x0 REVERT JUMPDEST POP POP POP POP PUSH1 0x40 MLOAD RETURNDATASIZE PUSH1 0x1F NOT PUSH1 0x1F DUP3 ADD AND DUP3 ADD DUP1 PUSH1 0x40 MSTORE POP DUP2 ADD SWAP1 PUSH2 0xA2C SWAP2 SWAP1 PUSH2 0x1287 JUMP JUMPDEST ISZERO PUSH2 0xA6C JUMPI PUSH1 0x40 MLOAD PUSH32 0x8C379A000000000000000000000000000000000000000000000000000000000 DUP2 MSTORE PUSH1 0x4 ADD PUSH2 0xA63 SWAP1 PUSH2 0x160E JUMP JUMPDEST PUSH1 0x40 MLOAD DUP1 SWAP2 SUB SWAP1 REVERT JUMPDEST PUSH1 0x0 DUP1 JUMPDEST PUSH1 0x3 DUP1 SLOAD SWAP1 POP DUP2 LT ISZERO PUSH2 0xAD9 JUMPI DUP3 DUP1 MLOAD SWAP1 PUSH1 0x20 ADD KECCAK256 PUSH1 0x3 DUP3 DUP2 SLOAD DUP2 LT PUSH2 0xA99 JUMPI PUSH2 0xA98 PUSH2 0x162E JUMP JUMPDEST JUMPDEST SWAP1 PUSH1 0x0 MSTORE PUSH1 0x20 PUSH1 0x0 KECCAK256 ADD PUSH1 0x40 MLOAD PUSH2 0xAB0 SWAP2 SWAP1 PUSH2 0x16F5 JUMP JUMPDEST PUSH1 0x40 MLOAD DUP1 SWAP2 SUB SWAP1 KECCAK256 SUB PUSH2 0xAC6 JUMPI PUSH1 0x1 SWAP2 POP PUSH2 0xAD9 JUMP JUMPDEST DUP1 DUP1 PUSH2 0xAD1 SWAP1 PUSH2 0x173B JUMP JUMPDEST SWAP2 POP POP PUSH2 0xA70 JUMP JUMPDEST POP DUP1 PUSH2 0xB1A JUMPI PUSH1 0x40 MLOAD PUSH32 0x8C379A000000000000000000000000000000000000000000000000000000000 DUP2 MSTORE PUSH1 0x4 ADD PUSH2 0xB11 SWAP1 PUSH2 0x17CF JUMP JUMPDEST PUSH1 0x40 MLOAD DUP1 SWAP2 SUB SWAP1 REVERT JUMPDEST PUSH1 0x1 PUSH1 0x0 SWAP1 SLOAD SWAP1 PUSH2 0x100 EXP SWAP1 DIV PUSH20 0xFFFFFFFFFFFFFFFFFFFFFFFFFFFFFFFFFFFFFFFF AND PUSH20 0xFFFFFFFFFFFFFFFFFFFFFFFFFFFFFFFFFFFFFFFF AND PUSH4 0x995278A3 CALLER PUSH1 0x40 MLOAD DUP3 PUSH4 0xFFFFFFFF AND PUSH1 0xE0 SHL DUP2 MSTORE PUSH1 0x4 ADD PUSH2 0xB75 SWAP2 SWAP1 PUSH2 0xFF8 JUMP JUMPDEST PUSH1 0x0 PUSH1 0x40 MLOAD DUP1 DUP4 SUB DUP2 PUSH1 0x0 DUP8 DUP1 EXTCODESIZE ISZERO DUP1 ISZERO PUSH2 0xB8F JUMPI PUSH1 0x0 DUP1 REVERT JUMPDEST POP GAS CALL ISZERO DUP1 ISZERO PUSH2 0xBA3 JUMPI RETURNDATASIZE PUSH1 0x0 DUP1 RETURNDATACOPY RETURNDATASIZE PUSH1 0x0 REVERT JUMPDEST POP POP POP POP PUSH1 0x2 PUSH1 0x0 SWAP1 SLOAD SWAP1 PUSH2 0x100 EXP SWAP1 DIV PUSH20 0xFFFFFFFFFFFFFFFFFFFFFFFFFFFFFFFFFFFFFFFF AND PUSH20 0xFFFFFFFFFFFFFFFFFFFFFFFFFFFFFFFFFFFFFFFF AND PUSH4 0xBEA9A9A4 DUP4 PUSH1 0x1 PUSH1 0x40 MLOAD DUP4 PUSH4 0xFFFFFFFF AND PUSH1 0xE0 SHL DUP2 MSTORE PUSH1 0x4 ADD PUSH2 0xC05 SWAP3 SWAP2 SWAP1 PUSH2 0x182A JUMP JUMPDEST PUSH1 0x0 PUSH1 0x40 MLOAD DUP1 DUP4 SUB DUP2 PUSH1 0x0 DUP8 DUP1 EXTCODESIZE ISZERO DUP1 ISZERO PUSH2 0xC1F JUMPI PUSH1 0x0 DUP1 REVERT JUMPDEST POP GAS CALL ISZERO DUP1 ISZERO PUSH2 0xC33 JUMPI RETURNDATASIZE PUSH1 0x0 DUP1 RETURNDATACOPY RETURNDATASIZE PUSH1 0x0 REVERT JUMPDEST POP POP POP POP PUSH32 0xB7821D50DFBDA5EA310FAEBBEAC5217BC1BB0CABE463E76B80E48D11E57DF098 CALLER DUP4 PUSH1 0x40 MLOAD PUSH2 0xC68 SWAP3 SWAP2 SWAP1 PUSH2 0x185A JUMP JUMPDEST PUSH1 0x40 MLOAD DUP1 SWAP2 SUB SWAP1 LOG1 POP POP JUMP JUMPDEST PUSH1 0x0 DUP2 ISZERO ISZERO SWAP1 POP SWAP2 SWAP1 POP JUMP JUMPDEST PUSH2 0xC89 DUP2 PUSH2 0xC74 JUMP JUMPDEST DUP3 MSTORE POP POP JUMP JUMPDEST PUSH1 0x0 PUSH1 0x20 DUP3 ADD SWAP1 POP PUSH2 0xCA4 PUSH1 0x0 DUP4 ADD DUP5 PUSH2 0xC80 JUMP JUMPDEST SWAP3 SWAP2 POP POP JUMP JUMPDEST PUSH1 0x0 DUP2 MLOAD SWAP1 POP SWAP2 SWAP1 POP JUMP JUMPDEST PUSH1 0x0 DUP3 DUP3 MSTORE PUSH1 0x20 DUP3 ADD SWAP1 POP SWAP3 SWAP2 POP POP JUMP JUMPDEST PUSH1 0x0 DUP2 SWAP1 POP PUSH1 0x20 DUP3 ADD SWAP1 POP SWAP2 SWAP1 POP JUMP JUMPDEST PUSH1 0x0 DUP2 MLOAD SWAP1 POP SWAP2 SWAP1 POP JUMP JUMPDEST PUSH1 0x0 DUP3 DUP3 MSTORE PUSH1 0x20 DUP3 ADD SWAP1 POP SWAP3 SWAP2 POP POP JUMP JUMPDEST PUSH1 0x0 JUMPDEST DUP4 DUP2 LT ISZERO PUSH2 0xD10 JUMPI DUP1 DUP3 ADD MLOAD DUP2 DUP5 ADD MSTORE PUSH1 0x20 DUP2 ADD SWAP1 POP PUSH2 0xCF5 JUMP JUMPDEST PUSH1 0x0 DUP5 DUP5 ADD MSTORE POP POP POP POP JUMP JUMPDEST PUSH1 0x0 PUSH1 0x1F NOT PUSH1 0x1F DUP4 ADD AND SWAP1 POP SWAP2 SWAP1 POP JUMP JUMPDEST PUSH1 0x0 PUSH2 0xD38 DUP3 PUSH2 0xCD6 JUMP JUMPDEST PUSH2 0xD42 DUP2 DUP6 PUSH2 0xCE1 JUMP JUMPDEST SWAP4 POP PUSH2 0xD52 DUP2 DUP6 PUSH1 0x20 DUP7 ADD PUSH2 0xCF2 JUMP JUMPDEST PUSH2 0xD5B DUP2 PUSH2 0xD1C JUMP JUMPDEST DUP5 ADD SWAP2 POP POP SWAP3 SWAP2 POP POP JUMP JUMPDEST PUSH1 0x0 PUSH2 0xD72 DUP4 DUP4 PUSH2 0xD2D JUMP JUMPDEST SWAP1 POP SWAP3 SWAP2 POP POP JUMP JUMPDEST PUSH1 0x0 PUSH1 0x20 DUP3 ADD SWAP1 POP SWAP2 SWAP1 POP JUMP JUMPDEST PUSH1 0x0 PUSH2 0xD92 DUP3 PUSH2 0xCAA JUMP JUMPDEST PUSH2 0xD9C DUP2 DUP6 PUSH2 0xCB5 JUMP JUMPDEST SWAP4 POP DUP4 PUSH1 0x20 DUP3 MUL DUP6 ADD PUSH2 0xDAE DUP6 PUSH2 0xCC6 JUMP JUMPDEST DUP1 PUSH1 0x0 JUMPDEST DUP6 DUP2 LT ISZERO PUSH2 0xDEA JUMPI DUP5 DUP5 SUB DUP10 MSTORE DUP2 MLOAD PUSH2 0xDCB DUP6 DUP3 PUSH2 0xD66 JUMP JUMPDEST SWAP5 POP PUSH2 0xDD6 DUP4 PUSH2 0xD7A JUMP JUMPDEST SWAP3 POP PUSH1 0x20 DUP11 ADD SWAP10 POP POP PUSH1 0x1 DUP2 ADD SWAP1 POP PUSH2 0xDB2 JUMP JUMPDEST POP DUP3 SWAP8 POP DUP8 SWAP6 POP POP POP POP POP POP SWAP3 SWAP2 POP POP JUMP JUMPDEST PUSH1 0x0 PUSH1 0x20 DUP3 ADD SWAP1 POP DUP2 DUP2 SUB PUSH1 0x0 DUP4 ADD MSTORE PUSH2 0xE16 DUP2 DUP5 PUSH2 0xD87 JUMP JUMPDEST SWAP1 POP SWAP3 SWAP2 POP POP JUMP JUMPDEST PUSH1 0x0 PUSH1 0x40 MLOAD SWAP1 POP SWAP1 JUMP JUMPDEST PUSH1 0x0 DUP1 REVERT JUMPDEST PUSH1 0x0 DUP1 REVERT JUMPDEST PUSH1 0x0 DUP2 SWAP1 POP SWAP2 SWAP1 POP JUMP JUMPDEST PUSH2 0xE45 DUP2 PUSH2 0xE32 JUMP JUMPDEST DUP2 EQ PUSH2 0xE50 JUMPI PUSH1 0x0 DUP1 REVERT JUMPDEST POP JUMP JUMPDEST PUSH1 0x0 DUP2 CALLDATALOAD SWAP1 POP PUSH2 0xE62 DUP2 PUSH2 0xE3C JUMP JUMPDEST SWAP3 SWAP2 POP POP JUMP JUMPDEST PUSH1 0x0 PUSH1 0x20 DUP3 DUP5 SUB SLT ISZERO PUSH2 0xE7E JUMPI PUSH2 0xE7D PUSH2 0xE28 JUMP JUMPDEST JUMPDEST PUSH1 0x0 PUSH2 0xE8C DUP5 DUP3 DUP6 ADD PUSH2 0xE53 JUMP JUMPDEST SWAP2 POP POP SWAP3 SWAP2 POP POP JUMP JUMPDEST PUSH1 0x0 DUP3 DUP3 MSTORE PUSH1 0x20 DUP3 ADD SWAP1 POP SWAP3 SWAP2 POP POP JUMP JUMPDEST PUSH1 0x0 PUSH2 0xEB1 DUP3 PUSH2 0xCD6 JUMP JUMPDEST PUSH2 0xEBB DUP2 DUP6 PUSH2 0xE95 JUMP JUMPDEST SWAP4 POP PUSH2 0xECB DUP2 DUP6 PUSH1 0x20 DUP7 ADD PUSH2 0xCF2 JUMP JUMPDEST PUSH2 0xED4 DUP2 PUSH2 0xD1C JUMP JUMPDEST DUP5 ADD SWAP2 POP POP SWAP3 SWAP2 POP POP JUMP JUMPDEST PUSH1 0x0 PUSH1 0x20 DUP3 ADD SWAP1 POP DUP2 DUP2 SUB PUSH1 0x0 DUP4 ADD MSTORE PUSH2 0xEF9 DUP2 DUP5 PUSH2 0xEA6 JUMP JUMPDEST SWAP1 POP SWAP3 SWAP2 POP POP JUMP JUMPDEST PUSH1 0x0 PUSH20 0xFFFFFFFFFFFFFFFFFFFFFFFFFFFFFFFFFFFFFFFF DUP3 AND SWAP1 POP SWAP2 SWAP1 POP JUMP JUMPDEST PUSH1 0x0 DUP2 SWAP1 POP SWAP2 SWAP1 POP JUMP JUMPDEST PUSH1 0x0 PUSH2 0xF46 PUSH2 0xF41 PUSH2 0xF3C DUP5 PUSH2 0xF01 JUMP JUMPDEST PUSH2 0xF21 JUMP JUMPDEST PUSH2 0xF01 JUMP JUMPDEST SWAP1 POP SWAP2 SWAP1 POP JUMP JUMPDEST PUSH1 0x0 PUSH2 0xF58 DUP3 PUSH2 0xF2B JUMP JUMPDEST SWAP1 POP SWAP2 SWAP1 POP JUMP JUMPDEST PUSH1 0x0 PUSH2 0xF6A DUP3 PUSH2 0xF4D JUMP JUMPDEST SWAP1 POP SWAP2 SWAP1 POP JUMP JUMPDEST PUSH2 0xF7A DUP2 PUSH2 0xF5F JUMP JUMPDEST DUP3 MSTORE POP POP JUMP JUMPDEST PUSH1 0x0 PUSH1 0x20 DUP3 ADD SWAP1 POP PUSH2 0xF95 PUSH1 0x0 DUP4 ADD DUP5 PUSH2 0xF71 JUMP JUMPDEST SWAP3 SWAP2 POP POP JUMP JUMPDEST PUSH1 0x0 PUSH2 0xFA6 DUP3 PUSH2 0xF4D JUMP JUMPDEST SWAP1 POP SWAP2 SWAP1 POP JUMP JUMPDEST PUSH2 0xFB6 DUP2 PUSH2 0xF9B JUMP JUMPDEST DUP3 MSTORE POP POP JUMP JUMPDEST PUSH1 0x0 PUSH1 0x20 DUP3 ADD SWAP1 POP PUSH2 0xFD1 PUSH1 0x0 DUP4 ADD DUP5 PUSH2 0xFAD JUMP JUMPDEST SWAP3 SWAP2 POP POP JUMP JUMPDEST PUSH1 0x0 PUSH2 0xFE2 DUP3 PUSH2 0xF01 JUMP JUMPDEST SWAP1 POP SWAP2 SWAP1 POP JUMP JUMPDEST PUSH2 0xFF2 DUP2 PUSH2 0xFD7 JUMP JUMPDEST DUP3 MSTORE POP POP JUMP JUMPDEST PUSH1 0x0 PUSH1 0x20 DUP3 ADD SWAP1 POP PUSH2 0x100D PUSH1 0x0 DUP4 ADD DUP5 PUSH2 0xFE9 JUMP JUMPDEST SWAP3 SWAP2 POP POP JUMP JUMPDEST PUSH1 0x0 DUP1 REVERT JUMPDEST PUSH1 0x0 DUP1 REVERT JUMPDEST PUSH32 0x4E487B7100000000000000000000000000000000000000000000000000000000 PUSH1 0x0 MSTORE PUSH1 0x41 PUSH1 0x4 MSTORE PUSH1 0x24 PUSH1 0x0 REVERT JUMPDEST PUSH2 0x1055 DUP3 PUSH2 0xD1C JUMP JUMPDEST DUP2 ADD DUP2 DUP2 LT PUSH8 0xFFFFFFFFFFFFFFFF DUP3 GT OR ISZERO PUSH2 0x1074 JUMPI PUSH2 0x1073 PUSH2 0x101D JUMP JUMPDEST JUMPDEST DUP1 PUSH1 0x40 MSTORE POP POP POP JUMP JUMPDEST PUSH1 0x0 PUSH2 0x1087 PUSH2 0xE1E JUMP JUMPDEST SWAP1 POP PUSH2 0x1093 DUP3 DUP3 PUSH2 0x104C JUMP JUMPDEST SWAP2 SWAP1 POP JUMP JUMPDEST PUSH1 0x0 PUSH8 0xFFFFFFFFFFFFFFFF DUP3 GT ISZERO PUSH2 0x10B3 JUMPI PUSH2 0x10B2 PUSH2 0x101D JUMP JUMPDEST JUMPDEST PUSH2 0x10BC DUP3 PUSH2 0xD1C JUMP JUMPDEST SWAP1 POP PUSH1 0x20 DUP2 ADD SWAP1 POP SWAP2 SWAP1 POP JUMP JUMPDEST DUP3 DUP2 DUP4 CALLDATACOPY PUSH1 0x0 DUP4 DUP4 ADD MSTORE POP POP POP JUMP JUMPDEST PUSH1 0x0 PUSH2 0x10EB PUSH2 0x10E6 DUP5 PUSH2 0x1098 JUMP JUMPDEST PUSH2 0x107D JUMP JUMPDEST SWAP1 POP DUP3 DUP2 MSTORE PUSH1 0x20 DUP2 ADD DUP5 DUP5 DUP5 ADD GT ISZERO PUSH2 0x1107 JUMPI PUSH2 0x1106 PUSH2 0x1018 JUMP JUMPDEST JUMPDEST PUSH2 0x1112 DUP5 DUP3 DUP6 PUSH2 0x10C9 JUMP JUMPDEST POP SWAP4 SWAP3 POP POP POP JUMP JUMPDEST PUSH1 0x0 DUP3 PUSH1 0x1F DUP4 ADD SLT PUSH2 0x112F JUMPI PUSH2 0x112E PUSH2 0x1013 JUMP JUMPDEST JUMPDEST DUP2 CALLDATALOAD PUSH2 0x113F DUP5 DUP3 PUSH1 0x20 DUP7 ADD PUSH2 0x10D8 JUMP JUMPDEST SWAP2 POP POP SWAP3 SWAP2 POP POP JUMP JUMPDEST PUSH1 0x0 PUSH1 0x20 DUP3 DUP5 SUB SLT ISZERO PUSH2 0x115E JUMPI PUSH2 0x115D PUSH2 0xE28 JUMP JUMPDEST JUMPDEST PUSH1 0x0 DUP3 ADD CALLDATALOAD PUSH8 0xFFFFFFFFFFFFFFFF DUP2 GT ISZERO PUSH2 0x117C JUMPI PUSH2 0x117B PUSH2 0xE2D JUMP JUMPDEST JUMPDEST PUSH2 0x1188 DUP5 DUP3 DUP6 ADD PUSH2 0x111A JUMP JUMPDEST SWAP2 POP POP SWAP3 SWAP2 POP POP JUMP JUMPDEST PUSH1 0x0 DUP2 MLOAD SWAP1 POP SWAP2 SWAP1 POP JUMP JUMPDEST PUSH1 0x0 DUP2 SWAP1 POP SWAP3 SWAP2 POP POP JUMP JUMPDEST PUSH1 0x0 PUSH2 0x11B2 DUP3 PUSH2 0x1191 JUMP JUMPDEST PUSH2 0x11BC DUP2 DUP6 PUSH2 0x119C JUMP JUMPDEST SWAP4 POP PUSH2 0x11CC DUP2 DUP6 PUSH1 0x20 DUP7 ADD PUSH2 0xCF2 JUMP JUMPDEST DUP1 DUP5 ADD SWAP2 POP POP SWAP3 SWAP2 POP POP JUMP JUMPDEST PUSH1 0x0 PUSH2 0x11E4 DUP3 DUP5 PUSH2 0x11A7 JUMP JUMPDEST SWAP2 POP DUP2 SWAP1 POP SWAP3 SWAP2 POP POP JUMP JUMPDEST PUSH32 0x4661696C656420746F20666574636820726573756C7473000000000000000000 PUSH1 0x0 DUP3 ADD MSTORE POP JUMP JUMPDEST PUSH1 0x0 PUSH2 0x1225 PUSH1 0x17 DUP4 PUSH2 0xE95 JUMP JUMPDEST SWAP2 POP PUSH2 0x1230 DUP3 PUSH2 0x11EF JUMP JUMPDEST PUSH1 0x20 DUP3 ADD SWAP1 POP SWAP2 SWAP1 POP JUMP JUMPDEST PUSH1 0x0 PUSH1 0x20 DUP3 ADD SWAP1 POP DUP2 DUP2 SUB PUSH1 0x0 DUP4 ADD MSTORE PUSH2 0x1254 DUP2 PUSH2 0x1218 JUMP JUMPDEST SWAP1 POP SWAP2 SWAP1 POP JUMP JUMPDEST PUSH2 0x1264 DUP2 PUSH2 0xC74 JUMP JUMPDEST DUP2 EQ PUSH2 0x126F JUMPI PUSH1 0x0 DUP1 REVERT JUMPDEST POP JUMP JUMPDEST PUSH1 0x0 DUP2 MLOAD SWAP1 POP PUSH2 0x1281 DUP2 PUSH2 0x125B JUMP JUMPDEST SWAP3 SWAP2 POP POP JUMP JUMPDEST PUSH1 0x0 PUSH1 0x20 DUP3 DUP5 SUB SLT ISZERO PUSH2 0x129D JUMPI PUSH2 0x129C PUSH2 0xE28 JUMP JUMPDEST JUMPDEST PUSH1 0x0 PUSH2 0x12AB DUP5 DUP3 DUP6 ADD PUSH2 0x1272 JUMP JUMPDEST SWAP2 POP POP SWAP3 SWAP2 POP POP JUMP JUMPDEST PUSH32 0x4E487B7100000000000000000000000000000000000000000000000000000000 PUSH1 0x0 MSTORE PUSH1 0x22 PUSH1 0x4 MSTORE PUSH1 0x24 PUSH1 0x0 REVERT JUMPDEST PUSH1 0x0 PUSH1 0x2 DUP3 DIV SWAP1 POP PUSH1 0x1 DUP3 AND DUP1 PUSH2 0x12FB JUMPI PUSH1 0x7F DUP3 AND SWAP2 POP JUMPDEST PUSH1 0x20 DUP3 LT DUP2 SUB PUSH2 0x130E JUMPI PUSH2 0x130D PUSH2 0x12B4 JUMP JUMPDEST JUMPDEST POP SWAP2 SWAP1 POP JUMP JUMPDEST PUSH32 0x4F6E6C79206F776E65722063616E20706572666F726D20746869732061637469 PUSH1 0x0 DUP3 ADD MSTORE PUSH32 0x6F6E000000000000000000000000000000000000000000000000000000000000 PUSH1 0x20 DUP3 ADD MSTORE POP JUMP JUMPDEST PUSH1 0x0 PUSH2 0x1370 PUSH1 0x22 DUP4 PUSH2 0xE95 JUMP JUMPDEST SWAP2 POP PUSH2 0x137B DUP3 PUSH2 0x1314 JUMP JUMPDEST PUSH1 0x40 DUP3 ADD SWAP1 POP SWAP2 SWAP1 POP JUMP JUMPDEST PUSH1 0x0 PUSH1 0x20 DUP3 ADD SWAP1 POP DUP2 DUP2 SUB PUSH1 0x0 DUP4 ADD MSTORE PUSH2 0x139F DUP2 PUSH2 0x1363 JUMP JUMPDEST SWAP1 POP SWAP2 SWAP1 POP JUMP JUMPDEST PUSH32 0x416C726561647920737461727465640000000000000000000000000000000000 PUSH1 0x0 DUP3 ADD MSTORE POP JUMP JUMPDEST PUSH1 0x0 PUSH2 0x13DC PUSH1 0xF DUP4 PUSH2 0xE95 JUMP JUMPDEST SWAP2 POP PUSH2 0x13E7 DUP3 PUSH2 0x13A6 JUMP JUMPDEST PUSH1 0x20 DUP3 ADD SWAP1 POP SWAP2 SWAP1 POP JUMP JUMPDEST PUSH1 0x0 PUSH1 0x20 DUP3 ADD SWAP1 POP DUP2 DUP2 SUB PUSH1 0x0 DUP4 ADD MSTORE PUSH2 0x140B DUP2 PUSH2 0x13CF JUMP JUMPDEST SWAP1 POP SWAP2 SWAP1 POP JUMP JUMPDEST PUSH32 0x416C7265616479207075626C6973686564000000000000000000000000000000 PUSH1 0x0 DUP3 ADD MSTORE POP JUMP JUMPDEST PUSH1 0x0 PUSH2 0x1448 PUSH1 0x11 DUP4 PUSH2 0xE95 JUMP JUMPDEST SWAP2 POP PUSH2 0x1453 DUP3 PUSH2 0x1412 JUMP JUMPDEST PUSH1 0x20 DUP3 ADD SWAP1 POP SWAP2 SWAP1 POP JUMP JUMPDEST PUSH1 0x0 PUSH1 0x20 DUP3 ADD SWAP1 POP DUP2 DUP2 SUB PUSH1 0x0 DUP4 ADD MSTORE PUSH2 0x1477 DUP2 PUSH2 0x143B JUMP JUMPDEST SWAP1 POP SWAP2 SWAP1 POP JUMP JUMPDEST PUSH32 0x456C656374696F6E206E6F742073746172746564000000000000000000000000 PUSH1 0x0 DUP3 ADD MSTORE POP JUMP JUMPDEST PUSH1 0x0 PUSH2 0x14B4 PUSH1 0x14 DUP4 PUSH2 0xE95 JUMP JUMPDEST SWAP2 POP PUSH2 0x14BF DUP3 PUSH2 0x147E JUMP JUMPDEST PUSH1 0x20 DUP3 ADD SWAP1 POP SWAP2 SWAP1 POP JUMP JUMPDEST PUSH1 0x0 PUSH1 0x20 DUP3 ADD SWAP1 POP DUP2 DUP2 SUB PUSH1 0x0 DUP4 ADD MSTORE PUSH2 0x14E3 DUP2 PUSH2 0x14A7 JUMP JUMPDEST SWAP1 POP SWAP2 SWAP1 POP JUMP JUMPDEST PUSH32 0x566F74696E6720656E6465640000000000000000000000000000000000000000 PUSH1 0x0 DUP3 ADD MSTORE POP JUMP JUMPDEST PUSH1 0x0 PUSH2 0x1520 PUSH1 0xC DUP4 PUSH2 0xE95 JUMP JUMPDEST SWAP2 POP PUSH2 0x152B DUP3 PUSH2 0x14EA JUMP JUMPDEST PUSH1 0x20 DUP3 ADD SWAP1 POP SWAP2 SWAP1 POP JUMP JUMPDEST PUSH1 0x0 PUSH1 0x20 DUP3 ADD SWAP1 POP DUP2 DUP2 SUB PUSH1 0x0 DUP4 ADD MSTORE PUSH2 0x154F DUP2 PUSH2 0x1513 JUMP JUMPDEST SWAP1 POP SWAP2 SWAP1 POP JUMP JUMPDEST PUSH32 0x4E6F742072656769737465726564000000000000000000000000000000000000 PUSH1 0x0 DUP3 ADD MSTORE POP JUMP JUMPDEST PUSH1 0x0 PUSH2 0x158C PUSH1 0xE DUP4 PUSH2 0xE95 JUMP JUMPDEST SWAP2 POP PUSH2 0x1597 DUP3 PUSH2 0x1556 JUMP JUMPDEST PUSH1 0x20 DUP3 ADD SWAP1 POP SWAP2 SWAP1 POP JUMP JUMPDEST PUSH1 0x0 PUSH1 0x20 DUP3 ADD SWAP1 POP DUP2 DUP2 SUB PUSH1 0x0 DUP4 ADD MSTORE PUSH2 0x15BB DUP2 PUSH2 0x157F JUMP JUMPDEST SWAP1 POP SWAP2 SWAP1 POP JUMP JUMPDEST PUSH32 0x416C726561647920766F74656400000000000000000000000000000000000000 PUSH1 0x0 DUP3 ADD MSTORE POP JUMP JUMPDEST PUSH1 0x0 PUSH2 0x15F8 PUSH1 0xD DUP4 PUSH2 0xE95 JUMP JUMPDEST SWAP2 POP PUSH2 0x1603 DUP3 PUSH2 0x15C2 JUMP JUMPDEST PUSH1 0x20 DUP3 ADD SWAP1 POP SWAP2 SWAP1 POP JUMP JUMPDEST PUSH1 0x0 PUSH1 0x20 DUP3 ADD SWAP1 POP DUP2 DUP2 SUB PUSH1 0x0 DUP4 ADD MSTORE PUSH2 0x1627 DUP2 PUSH2 0x15EB JUMP JUMPDEST SWAP1 POP SWAP2 SWAP1 POP JUMP JUMPDEST PUSH32 0x4E487B7100000000000000000000000000000000000000000000000000000000 PUSH1 0x0 MSTORE PUSH1 0x32 PUSH1 0x4 MSTORE PUSH1 0x24 PUSH1 0x0 REVERT JUMPDEST PUSH1 0x0 DUP2 SWAP1 POP DUP2 PUSH1 0x0 MSTORE PUSH1 0x20 PUSH1 0x0 KECCAK256 SWAP1 POP SWAP2 SWAP1 POP JUMP JUMPDEST PUSH1 0x0 DUP2 SLOAD PUSH2 0x167F DUP2 PUSH2 0x12E3 JUMP JUMPDEST PUSH2 0x1689 DUP2 DUP7 PUSH2 0x119C JUMP JUMPDEST SWAP5 POP PUSH1 0x1 DUP3 AND PUSH1 0x0 DUP2 EQ PUSH2 0x16A4 JUMPI PUSH1 0x1 DUP2 EQ PUSH2 0x16B9 JUMPI PUSH2 0x16EC JUMP JUMPDEST PUSH1 0xFF NOT DUP4 AND DUP7 MSTORE DUP2 ISZERO ISZERO DUP3 MUL DUP7 ADD SWAP4 POP PUSH2 0x16EC JUMP JUMPDEST PUSH2 0x16C2 DUP6 PUSH2 0x165D JUMP JUMPDEST PUSH1 0x0 JUMPDEST DUP4 DUP2 LT ISZERO PUSH2 0x16E4 JUMPI DUP2 SLOAD DUP2 DUP10 ADD MSTORE PUSH1 0x1 DUP3 ADD SWAP2 POP PUSH1 0x20 DUP2 ADD SWAP1 POP PUSH2 0x16C5 JUMP JUMPDEST DUP4 DUP9 ADD SWAP6 POP POP POP JUMPDEST POP POP POP SWAP3 SWAP2 POP POP JUMP JUMPDEST PUSH1 0x0 PUSH2 0x1701 DUP3 DUP5 PUSH2 0x1672 JUMP JUMPDEST SWAP2 POP DUP2 SWAP1 POP SWAP3 SWAP2 POP POP JUMP JUMPDEST PUSH32 0x4E487B7100000000000000000000000000000000000000000000000000000000 PUSH1 0x0 MSTORE PUSH1 0x11 PUSH1 0x4 MSTORE PUSH1 0x24 PUSH1 0x0 REVERT JUMPDEST PUSH1 0x0 PUSH2 0x1746 DUP3 PUSH2 0xE32 JUMP JUMPDEST SWAP2 POP PUSH32 0xFFFFFFFFFFFFFFFFFFFFFFFFFFFFFFFFFFFFFFFFFFFFFFFFFFFFFFFFFFFFFFFF DUP3 SUB PUSH2 0x1778 JUMPI PUSH2 0x1777 PUSH2 0x170C JUMP JUMPDEST JUMPDEST PUSH1 0x1 DUP3 ADD SWAP1 POP SWAP2 SWAP1 POP JUMP JUMPDEST PUSH32 0x43616E646964617465206E6F7420666F756E6400000000000000000000000000 PUSH1 0x0 DUP3 ADD MSTORE POP JUMP JUMPDEST PUSH1 0x0 PUSH2 0x17B9 PUSH1 0x13 DUP4 PUSH2 0xE95 JUMP JUMPDEST SWAP2 POP PUSH2 0x17C4 DUP3 PUSH2 0x1783 JUMP JUMPDEST PUSH1 0x20 DUP3 ADD SWAP1 POP SWAP2 SWAP1 POP JUMP JUMPDEST PUSH1 0x0 PUSH1 0x20 DUP3 ADD SWAP1 POP DUP2 DUP2 SUB PUSH1 0x0 DUP4 ADD MSTORE PUSH2 0x17E8 DUP2 PUSH2 0x17AC JUMP JUMPDEST SWAP1 POP SWAP2 SWAP1 POP JUMP JUMPDEST PUSH1 0x0 DUP2 SWAP1 POP SWAP2 SWAP1 POP JUMP JUMPDEST PUSH1 0x0 PUSH2 0x1814 PUSH2 0x180F PUSH2 0x180A DUP5 PUSH2 0x17EF JUMP JUMPDEST PUSH2 0xF21 JUMP JUMPDEST PUSH2 0xE32 JUMP JUMPDEST SWAP1 POP SWAP2 SWAP1 POP JUMP JUMPDEST PUSH2 0x1824 DUP2 PUSH2 0x17F9 JUMP JUMPDEST DUP3 MSTORE POP POP JUMP JUMPDEST PUSH1 0x0 PUSH1 0x40 DUP3 ADD SWAP1 POP DUP2 DUP2 SUB PUSH1 0x0 DUP4 ADD MSTORE PUSH2 0x1844 DUP2 DUP6 PUSH2 0xEA6 JUMP JUMPDEST SWAP1 POP PUSH2 0x1853 PUSH1 0x20 DUP4 ADD DUP5 PUSH2 0x181B JUMP JUMPDEST SWAP4 SWAP3 POP POP POP JUMP JUMPDEST PUSH1 0x0 PUSH1 0x40 DUP3 ADD SWAP1 POP PUSH2 0x186F PUSH1 0x0 DUP4 ADD DUP6 PUSH2 0xFE9 JUMP JUMPDEST DUP2 DUP2 SUB PUSH1 0x20 DUP4 ADD MSTORE PUSH2 0x1881 DUP2 DUP5 PUSH2 0xEA6 JUMP JUMPDEST SWAP1 POP SWAP4 SWAP3 POP POP POP JUMP INVALID LOG2 PUSH5 0x6970667358 0x22 SLT KECCAK256 SIGNEXTEND 0x2C PUSH30 0xCB72F6F2DF636A13DEBE103A59AF18ABFB522783D3D6A6059A3436DD4664 PUSH20 0x6F6C634300081200330000000000000000000000 "
				},
				"gasEstimates": {
					"creation": {
						"codeDepositCost": "1267200",
						"executionCost": "infinite",
						"totalCost": "infinite"
					},
					"external": {
						"candidates(uint256)": "infinite",
						"electionStarted()": "2609",
						"getAllCandidates()": "infinite",
						"owner()": "2555",
						"publishResults()": "infinite",
						"registry()": "infinite",
						"resultsPublished()": "2610",
						"startElection()": "29611",
						"tally()": "infinite",
						"tallyResultsPublished()": "infinite",
						"vote(string)": "infinite"
					}
				},
				"methodIdentifiers": {
					"candidates(uint256)": "3477ee2e",
					"electionStarted()": "d5346da1",
					"getAllCandidates()": "2e6997fe",
					"owner()": "8da5cb5b",
					"publishResults()": "b952e7d8",
					"registry()": "7b103999",
					"resultsPublished()": "5f589599",
					"startElection()": "62d73eb8",
					"tally()": "410673e5",
					"tallyResultsPublished()": "12f4acec",
					"vote(string)": "fc36e15b"
				}
			},
			"storageLayout": {
				"storage": [
					{
						"astId": 34,
						"contract": "Voting.sol:Voting",
						"label": "owner",
						"offset": 0,
						"slot": "0",
						"type": "t_address"
					},
					{
						"astId": 36,
						"contract": "Voting.sol:Voting",
						"label": "electionStarted",
						"offset": 20,
						"slot": "0",
						"type": "t_bool"
					},
					{
						"astId": 38,
						"contract": "Voting.sol:Voting",
						"label": "resultsPublished",
						"offset": 21,
						"slot": "0",
						"type": "t_bool"
					},
					{
						"astId": 41,
						"contract": "Voting.sol:Voting",
						"label": "registry",
						"offset": 0,
						"slot": "1",
						"type": "t_contract(IVoterRegistry)21"
					},
					{
						"astId": 44,
						"contract": "Voting.sol:Voting",
						"label": "tally",
						"offset": 0,
						"slot": "2",
						"type": "t_contract(ITally)32"
					},
					{
						"astId": 47,
						"contract": "Voting.sol:Voting",
						"label": "candidates",
						"offset": 0,
						"slot": "3",
						"type": "t_array(t_string_storage)dyn_storage"
					}
				],
				"types": {
					"t_address": {
						"encoding": "inplace",
						"label": "address",
						"numberOfBytes": "20"
					},
					"t_array(t_string_storage)dyn_storage": {
						"base": "t_string_storage",
						"encoding": "dynamic_array",
						"label": "string[]",
						"numberOfBytes": "32"
					},
					"t_bool": {
						"encoding": "inplace",
						"label": "bool",
						"numberOfBytes": "1"
					},
					"t_contract(ITally)32": {
						"encoding": "inplace",
						"label": "contract ITally",
						"numberOfBytes": "20"
					},
					"t_contract(IVoterRegistry)21": {
						"encoding": "inplace",
						"label": "contract IVoterRegistry",
						"numberOfBytes": "20"
					},
					"t_string_storage": {
						"encoding": "bytes",
						"label": "string",
						"numberOfBytes": "32"
					}
				}
			},
			"userdoc": {
				"kind": "user",
				"methods": {},
				"version": 1
			}
		}
	}
}