{
	"Voting.sol": {
		"Voting": {
			"abi": [
				{
					"inputs": [
						{
							"internalType": "string[]",
							"name": "_candidates",
							"type": "string[]"
						}
					],
					"stateMutability": "nonpayable",
					"type": "constructor"
				},
				{
					"anonymous": false,
					"inputs": [],
					"name": "ResultsPublished",
					"type": "event"
				},
				{
					"anonymous": false,
					"inputs": [
						{
							"indexed": true,
							"internalType": "address",
							"name": "voter",
							"type": "address"
						},
						{
							"indexed": false,
							"internalType": "string",
							"name": "candidate",
							"type": "string"
						}
					],
					"name": "VoteCasted",
					"type": "event"
				},
				{
					"anonymous": false,
					"inputs": [
						{
							"indexed": false,
							"internalType": "address",
							"name": "voter",
							"type": "address"
						}
					],
					"name": "VoterManuallyRegistered",
					"type": "event"
				},
				{
					"anonymous": false,
					"inputs": [
						{
							"indexed": false,
							"internalType": "string",
							"name": "candidate",
							"type": "string"
						},
						{
							"indexed": false,
							"internalType": "uint256",
							"name": "count",
							"type": "uint256"
						}
					],
					"name": "VotesTallied",
					"type": "event"
				},
				{
					"inputs": [
						{
							"internalType": "uint256",
							"name": "",
							"type": "uint256"
						}
					],
					"name": "candidates",
					"outputs": [
						{
							"internalType": "string",
							"name": "",
							"type": "string"
						}
					],
					"stateMutability": "view",
					"type": "function"
				},
				{
					"inputs": [],
					"name": "getAllCandidates",
					"outputs": [
						{
							"internalType": "string[]",
							"name": "",
							"type": "string[]"
						}
					],
					"stateMutability": "view",
					"type": "function"
				},
				{
					"inputs": [
						{
							"internalType": "string",
							"name": "candidate",
							"type": "string"
						}
					],
					"name": "getCandidateVotes",
					"outputs": [
						{
							"internalType": "uint256",
							"name": "",
							"type": "uint256"
						}
					],
					"stateMutability": "view",
					"type": "function"
				},
				{
					"inputs": [
						{
							"internalType": "address",
							"name": "",
							"type": "address"
						}
					],
					"name": "hasVoted",
					"outputs": [
						{
							"internalType": "bool",
							"name": "",
							"type": "bool"
						}
					],
					"stateMutability": "view",
					"type": "function"
				},
				{
					"inputs": [
						{
							"internalType": "address",
							"name": "",
							"type": "address"
						}
					],
					"name": "isRegistered",
					"outputs": [
						{
							"internalType": "bool",
							"name": "",
							"type": "bool"
						}
					],
					"stateMutability": "view",
					"type": "function"
				},
				{
					"inputs": [],
					"name": "owner",
					"outputs": [
						{
							"internalType": "address",
							"name": "",
							"type": "address"
						}
					],
					"stateMutability": "view",
					"type": "function"
				},
				{
					"inputs": [],
					"name": "publishResults",
					"outputs": [],
					"stateMutability": "nonpayable",
					"type": "function"
				},
				{
					"inputs": [
						{
							"internalType": "address",
							"name": "voter",
							"type": "address"
						}
					],
					"name": "registerVoter",
					"outputs": [],
					"stateMutability": "nonpayable",
					"type": "function"
				},
				{
					"inputs": [],
					"name": "resultsPublished",
					"outputs": [
						{
							"internalType": "bool",
							"name": "",
							"type": "bool"
						}
					],
					"stateMutability": "view",
					"type": "function"
				},
				{
					"inputs": [
						{
							"internalType": "string",
							"name": "candidate",
							"type": "string"
						}
					],
					"name": "vote",
					"outputs": [],
					"stateMutability": "nonpayable",
					"type": "function"
				},
				{
					"inputs": [
						{
							"internalType": "string",
							"name": "",
							"type": "string"
						}
					],
					"name": "voteCount",
					"outputs": [
						{
							"internalType": "uint256",
							"name": "",
							"type": "uint256"
						}
					],
					"stateMutability": "view",
					"type": "function"
				}
			],
			"devdoc": {
				"kind": "dev",
				"methods": {},
				"title": "Voting - A secure election contract integrated with voter registration",
				"version": 1
			},
			"evm": {
				"assembly": "    /* \"Voting.sol\":139:2713  contract Voting {... */\n  mstore(0x40, 0x80)\n    /* \"Voting.sol\":1067:1211  constructor(string[] memory _candidates) {... */\n  callvalue\n  dup1\n  iszero\n  tag_1\n  jumpi\n  0x00\n  dup1\n  revert\ntag_1:\n  pop\n  mload(0x40)\n  sub(codesize, bytecodeSize)\n  dup1\n  bytecodeSize\n  dup4\n  codecopy\n  dup2\n  dup2\n  add\n  0x40\n  mstore\n  dup2\n  add\n  swap1\n  tag_2\n  swap2\n  swap1\n  tag_3\n  jump\t// in\ntag_2:\n    /* \"Voting.sol\":1126:1136  msg.sender */\n  caller\n    /* \"Voting.sol\":1118:1123  owner */\n  0x00\n  dup1\n    /* \"Voting.sol\":1118:1136  owner = msg.sender */\n  0x0100\n  exp\n  dup2\n  sload\n  dup2\n  0xffffffffffffffffffffffffffffffffffffffff\n  mul\n  not\n  and\n  swap1\n  dup4\n  0xffffffffffffffffffffffffffffffffffffffff\n  and\n  mul\n  or\n  swap1\n  sstore\n  pop\n    /* \"Voting.sol\":1159:1170  _candidates */\n  dup1\n    /* \"Voting.sol\":1146:1156  candidates */\n  0x02\n    /* \"Voting.sol\":1146:1170  candidates = _candidates */\n  swap1\n  dup1\n  mload\n  swap1\n  0x20\n  add\n  swap1\n  tag_6\n  swap3\n  swap2\n  swap1\n  tag_7\n  jump\t// in\ntag_6:\n  pop\n    /* \"Voting.sol\":1199:1204  false */\n  0x00\n    /* \"Voting.sol\":1180:1196  resultsPublished */\n  dup1\n  0x14\n    /* \"Voting.sol\":1180:1204  resultsPublished = false */\n  0x0100\n  exp\n  dup2\n  sload\n  dup2\n  0xff\n  mul\n  not\n  and\n  swap1\n  dup4\n  iszero\n  iszero\n  mul\n  or\n  swap1\n  sstore\n  pop\n    /* \"Voting.sol\":1067:1211  constructor(string[] memory _candidates) {... */\n  pop\n    /* \"Voting.sol\":139:2713  contract Voting {... */\n  jump(tag_8)\ntag_7:\n  dup3\n  dup1\n  sload\n  dup3\n  dup3\n  sstore\n  swap1\n  0x00\n  mstore\n  keccak256(0x00, 0x20)\n  swap1\n  dup2\n  add\n  swap3\n  dup3\n  iszero\n  tag_9\n  jumpi\n  swap2\n  0x20\n  mul\n  dup3\n  add\ntag_10:\n  dup3\n  dup2\n  gt\n  iszero\n  tag_11\n  jumpi\n  dup3\n  mload\n  dup3\n  swap1\n  dup2\n  tag_12\n  swap2\n  swap1\n  tag_13\n  jump\t// in\ntag_12:\n  pop\n  swap2\n  0x20\n  add\n  swap2\n  swap1\n  0x01\n  add\n  swap1\n  jump(tag_10)\ntag_11:\ntag_9:\n  pop\n  swap1\n  pop\n  tag_14\n  swap2\n  swap1\n  tag_15\n  jump\t// in\ntag_14:\n  pop\n  swap1\n  jump\t// out\ntag_15:\ntag_16:\n  dup1\n  dup3\n  gt\n  iszero\n  tag_17\n  jumpi\n  0x00\n  dup2\n  dup2\n  tag_18\n  swap2\n  swap1\n  tag_19\n  jump\t// in\ntag_18:\n  pop\n  0x01\n  add\n  jump(tag_16)\ntag_17:\n  pop\n  swap1\n  jump\t// out\ntag_19:\n  pop\n  dup1\n  sload\n  tag_20\n  swap1\n  tag_21\n  jump\t// in\ntag_20:\n  0x00\n  dup3\n  sstore\n  dup1\n  0x1f\n  lt\n  tag_23\n  jumpi\n  pop\n  jump(tag_22)\ntag_23:\n  0x1f\n  add\n  0x20\n  swap1\n  div\n  swap1\n  0x00\n  mstore\n  keccak256(0x00, 0x20)\n  swap1\n  dup2\n  add\n  swap1\n  tag_24\n  swap2\n  swap1\n  tag_25\n  jump\t// in\ntag_24:\ntag_22:\n  pop\n  jump\t// out\ntag_25:\ntag_26:\n  dup1\n  dup3\n  gt\n  iszero\n  tag_27\n  jumpi\n  0x00\n  dup2\n  0x00\n  swap1\n  sstore\n  pop\n  0x01\n  add\n  jump(tag_26)\ntag_27:\n  pop\n  swap1\n  jump\t// out\n    /* \"#utility.yul\":7:82   */\ntag_28:\n    /* \"#utility.yul\":40:46   */\n  0x00\n    /* \"#utility.yul\":73:75   */\n  0x40\n    /* \"#utility.yul\":67:76   */\n  mload\n    /* \"#utility.yul\":57:76   */\n  swap1\n  pop\n    /* \"#utility.yul\":7:82   */\n  swap1\n  jump\t// out\n    /* \"#utility.yul\":88:205   */\ntag_29:\n    /* \"#utility.yul\":197:198   */\n  0x00\n    /* \"#utility.yul\":194:195   */\n  dup1\n    /* \"#utility.yul\":187:199   */\n  revert\n    /* \"#utility.yul\":211:328   */\ntag_30:\n    /* \"#utility.yul\":320:321   */\n  0x00\n    /* \"#utility.yul\":317:318   */\n  dup1\n    /* \"#utility.yul\":310:322   */\n  revert\n    /* \"#utility.yul\":334:451   */\ntag_31:\n    /* \"#utility.yul\":443:444   */\n  0x00\n    /* \"#utility.yul\":440:441   */\n  dup1\n    /* \"#utility.yul\":433:445   */\n  revert\n    /* \"#utility.yul\":457:559   */\ntag_32:\n    /* \"#utility.yul\":498:504   */\n  0x00\n    /* \"#utility.yul\":549:551   */\n  0x1f\n    /* \"#utility.yul\":545:552   */\n  not\n    /* \"#utility.yul\":540:542   */\n  0x1f\n    /* \"#utility.yul\":533:538   */\n  dup4\n    /* \"#utility.yul\":529:543   */\n  add\n    /* \"#utility.yul\":525:553   */\n  and\n    /* \"#utility.yul\":515:553   */\n  swap1\n  pop\n    /* \"#utility.yul\":457:559   */\n  swap2\n  swap1\n  pop\n  jump\t// out\n    /* \"#utility.yul\":565:745   */\ntag_33:\n    /* \"#utility.yul\":613:690   */\n  0x4e487b7100000000000000000000000000000000000000000000000000000000\n    /* \"#utility.yul\":610:611   */\n  0x00\n    /* \"#utility.yul\":603:691   */\n  mstore\n    /* \"#utility.yul\":710:714   */\n  0x41\n    /* \"#utility.yul\":707:708   */\n  0x04\n    /* \"#utility.yul\":700:715   */\n  mstore\n    /* \"#utility.yul\":734:738   */\n  0x24\n    /* \"#utility.yul\":731:732   */\n  0x00\n    /* \"#utility.yul\":724:739   */\n  revert\n    /* \"#utility.yul\":751:1032   */\ntag_34:\n    /* \"#utility.yul\":834:861   */\n  tag_71\n    /* \"#utility.yul\":856:860   */\n  dup3\n    /* \"#utility.yul\":834:861   */\n  tag_32\n  jump\t// in\ntag_71:\n    /* \"#utility.yul\":826:832   */\n  dup2\n    /* \"#utility.yul\":822:862   */\n  add\n    /* \"#utility.yul\":964:970   */\n  dup2\n    /* \"#utility.yul\":952:962   */\n  dup2\n    /* \"#utility.yul\":949:971   */\n  lt\n    /* \"#utility.yul\":928:946   */\n  0xffffffffffffffff\n    /* \"#utility.yul\":916:926   */\n  dup3\n    /* \"#utility.yul\":913:947   */\n  gt\n    /* \"#utility.yul\":910:972   */\n  or\n    /* \"#utility.yul\":907:995   */\n  iszero\n  tag_72\n  jumpi\n    /* \"#utility.yul\":975:993   */\n  tag_73\n  tag_33\n  jump\t// in\ntag_73:\n    /* \"#utility.yul\":907:995   */\ntag_72:\n    /* \"#utility.yul\":1015:1025   */\n  dup1\n    /* \"#utility.yul\":1011:1013   */\n  0x40\n    /* \"#utility.yul\":1004:1026   */\n  mstore\n    /* \"#utility.yul\":794:1032   */\n  pop\n    /* \"#utility.yul\":751:1032   */\n  pop\n  pop\n  jump\t// out\n    /* \"#utility.yul\":1038:1167   */\ntag_35:\n    /* \"#utility.yul\":1072:1078   */\n  0x00\n    /* \"#utility.yul\":1099:1119   */\n  tag_75\n  tag_28\n  jump\t// in\ntag_75:\n    /* \"#utility.yul\":1089:1119   */\n  swap1\n  pop\n    /* \"#utility.yul\":1128:1161   */\n  tag_76\n    /* \"#utility.yul\":1156:1160   */\n  dup3\n    /* \"#utility.yul\":1148:1154   */\n  dup3\n    /* \"#utility.yul\":1128:1161   */\n  tag_34\n  jump\t// in\ntag_76:\n    /* \"#utility.yul\":1038:1167   */\n  swap2\n  swap1\n  pop\n  jump\t// out\n    /* \"#utility.yul\":1173:1494   */\ntag_36:\n    /* \"#utility.yul\":1260:1264   */\n  0x00\n    /* \"#utility.yul\":1350:1368   */\n  0xffffffffffffffff\n    /* \"#utility.yul\":1342:1348   */\n  dup3\n    /* \"#utility.yul\":1339:1369   */\n  gt\n    /* \"#utility.yul\":1336:1392   */\n  iszero\n  tag_78\n  jumpi\n    /* \"#utility.yul\":1372:1390   */\n  tag_79\n  tag_33\n  jump\t// in\ntag_79:\n    /* \"#utility.yul\":1336:1392   */\ntag_78:\n    /* \"#utility.yul\":1422:1426   */\n  0x20\n    /* \"#utility.yul\":1414:1420   */\n  dup3\n    /* \"#utility.yul\":1410:1427   */\n  mul\n    /* \"#utility.yul\":1402:1427   */\n  swap1\n  pop\n    /* \"#utility.yul\":1482:1486   */\n  0x20\n    /* \"#utility.yul\":1476:1480   */\n  dup2\n    /* \"#utility.yul\":1472:1487   */\n  add\n    /* \"#utility.yul\":1464:1487   */\n  swap1\n  pop\n    /* \"#utility.yul\":1173:1494   */\n  swap2\n  swap1\n  pop\n  jump\t// out\n    /* \"#utility.yul\":1500:1617   */\ntag_37:\n    /* \"#utility.yul\":1609:1610   */\n  0x00\n    /* \"#utility.yul\":1606:1607   */\n  dup1\n    /* \"#utility.yul\":1599:1611   */\n  revert\n    /* \"#utility.yul\":1623:1740   */\ntag_38:\n    /* \"#utility.yul\":1732:1733   */\n  0x00\n    /* \"#utility.yul\":1729:1730   */\n  dup1\n    /* \"#utility.yul\":1722:1734   */\n  revert\n    /* \"#utility.yul\":1746:2054   */\ntag_39:\n    /* \"#utility.yul\":1808:1812   */\n  0x00\n    /* \"#utility.yul\":1898:1916   */\n  0xffffffffffffffff\n    /* \"#utility.yul\":1890:1896   */\n  dup3\n    /* \"#utility.yul\":1887:1917   */\n  gt\n    /* \"#utility.yul\":1884:1940   */\n  iszero\n  tag_83\n  jumpi\n    /* \"#utility.yul\":1920:1938   */\n  tag_84\n  tag_33\n  jump\t// in\ntag_84:\n    /* \"#utility.yul\":1884:1940   */\ntag_83:\n    /* \"#utility.yul\":1958:1987   */\n  tag_85\n    /* \"#utility.yul\":1980:1986   */\n  dup3\n    /* \"#utility.yul\":1958:1987   */\n  tag_32\n  jump\t// in\ntag_85:\n    /* \"#utility.yul\":1950:1987   */\n  swap1\n  pop\n    /* \"#utility.yul\":2042:2046   */\n  0x20\n    /* \"#utility.yul\":2036:2040   */\n  dup2\n    /* \"#utility.yul\":2032:2047   */\n  add\n    /* \"#utility.yul\":2024:2047   */\n  swap1\n  pop\n    /* \"#utility.yul\":1746:2054   */\n  swap2\n  swap1\n  pop\n  jump\t// out\n    /* \"#utility.yul\":2060:2199   */\ntag_40:\n    /* \"#utility.yul\":2149:2155   */\n  dup3\n    /* \"#utility.yul\":2144:2147   */\n  dup2\n    /* \"#utility.yul\":2139:2142   */\n  dup4\n    /* \"#utility.yul\":2133:2156   */\n  mcopy\n    /* \"#utility.yul\":2190:2191   */\n  0x00\n    /* \"#utility.yul\":2181:2187   */\n  dup4\n    /* \"#utility.yul\":2176:2179   */\n  dup4\n    /* \"#utility.yul\":2172:2188   */\n  add\n    /* \"#utility.yul\":2165:2192   */\n  mstore\n    /* \"#utility.yul\":2060:2199   */\n  pop\n  pop\n  pop\n  jump\t// out\n    /* \"#utility.yul\":2205:2639   */\ntag_41:\n    /* \"#utility.yul\":2294:2299   */\n  0x00\n    /* \"#utility.yul\":2319:2385   */\n  tag_88\n    /* \"#utility.yul\":2335:2384   */\n  tag_89\n    /* \"#utility.yul\":2377:2383   */\n  dup5\n    /* \"#utility.yul\":2335:2384   */\n  tag_39\n  jump\t// in\ntag_89:\n    /* \"#utility.yul\":2319:2385   */\n  tag_35\n  jump\t// in\ntag_88:\n    /* \"#utility.yul\":2310:2385   */\n  swap1\n  pop\n    /* \"#utility.yul\":2408:2414   */\n  dup3\n    /* \"#utility.yul\":2401:2406   */\n  dup2\n    /* \"#utility.yul\":2394:2415   */\n  mstore\n    /* \"#utility.yul\":2446:2450   */\n  0x20\n    /* \"#utility.yul\":2439:2444   */\n  dup2\n    /* \"#utility.yul\":2435:2451   */\n  add\n    /* \"#utility.yul\":2484:2487   */\n  dup5\n    /* \"#utility.yul\":2475:2481   */\n  dup5\n    /* \"#utility.yul\":2470:2473   */\n  dup5\n    /* \"#utility.yul\":2466:2482   */\n  add\n    /* \"#utility.yul\":2463:2488   */\n  gt\n    /* \"#utility.yul\":2460:2572   */\n  iszero\n  tag_90\n  jumpi\n    /* \"#utility.yul\":2491:2570   */\n  tag_91\n  tag_38\n  jump\t// in\ntag_91:\n    /* \"#utility.yul\":2460:2572   */\ntag_90:\n    /* \"#utility.yul\":2581:2633   */\n  tag_92\n    /* \"#utility.yul\":2626:2632   */\n  dup5\n    /* \"#utility.yul\":2621:2624   */\n  dup3\n    /* \"#utility.yul\":2616:2619   */\n  dup6\n    /* \"#utility.yul\":2581:2633   */\n  tag_40\n  jump\t// in\ntag_92:\n    /* \"#utility.yul\":2300:2639   */\n  pop\n    /* \"#utility.yul\":2205:2639   */\n  swap4\n  swap3\n  pop\n  pop\n  pop\n  jump\t// out\n    /* \"#utility.yul\":2659:3014   */\ntag_42:\n    /* \"#utility.yul\":2726:2731   */\n  0x00\n    /* \"#utility.yul\":2775:2778   */\n  dup3\n    /* \"#utility.yul\":2768:2772   */\n  0x1f\n    /* \"#utility.yul\":2760:2766   */\n  dup4\n    /* \"#utility.yul\":2756:2773   */\n  add\n    /* \"#utility.yul\":2752:2779   */\n  slt\n    /* \"#utility.yul\":2742:2864   */\n  tag_94\n  jumpi\n    /* \"#utility.yul\":2783:2862   */\n  tag_95\n  tag_31\n  jump\t// in\ntag_95:\n    /* \"#utility.yul\":2742:2864   */\ntag_94:\n    /* \"#utility.yul\":2893:2899   */\n  dup2\n    /* \"#utility.yul\":2887:2900   */\n  mload\n    /* \"#utility.yul\":2918:3008   */\n  tag_96\n    /* \"#utility.yul\":3004:3007   */\n  dup5\n    /* \"#utility.yul\":2996:3002   */\n  dup3\n    /* \"#utility.yul\":2989:2993   */\n  0x20\n    /* \"#utility.yul\":2981:2987   */\n  dup7\n    /* \"#utility.yul\":2977:2994   */\n  add\n    /* \"#utility.yul\":2918:3008   */\n  tag_41\n  jump\t// in\ntag_96:\n    /* \"#utility.yul\":2909:3008   */\n  swap2\n  pop\n    /* \"#utility.yul\":2732:3014   */\n  pop\n    /* \"#utility.yul\":2659:3014   */\n  swap3\n  swap2\n  pop\n  pop\n  jump\t// out\n    /* \"#utility.yul\":3036:3996   */\ntag_43:\n    /* \"#utility.yul\":3153:3158   */\n  0x00\n    /* \"#utility.yul\":3178:3269   */\n  tag_98\n    /* \"#utility.yul\":3194:3268   */\n  tag_99\n    /* \"#utility.yul\":3261:3267   */\n  dup5\n    /* \"#utility.yul\":3194:3268   */\n  tag_36\n  jump\t// in\ntag_99:\n    /* \"#utility.yul\":3178:3269   */\n  tag_35\n  jump\t// in\ntag_98:\n    /* \"#utility.yul\":3169:3269   */\n  swap1\n  pop\n    /* \"#utility.yul\":3289:3294   */\n  dup1\n    /* \"#utility.yul\":3318:3324   */\n  dup4\n    /* \"#utility.yul\":3311:3316   */\n  dup3\n    /* \"#utility.yul\":3304:3325   */\n  mstore\n    /* \"#utility.yul\":3352:3356   */\n  0x20\n    /* \"#utility.yul\":3345:3350   */\n  dup3\n    /* \"#utility.yul\":3341:3357   */\n  add\n    /* \"#utility.yul\":3334:3357   */\n  swap1\n  pop\n    /* \"#utility.yul\":3405:3409   */\n  0x20\n    /* \"#utility.yul\":3397:3403   */\n  dup5\n    /* \"#utility.yul\":3393:3410   */\n  mul\n    /* \"#utility.yul\":3385:3391   */\n  dup4\n    /* \"#utility.yul\":3381:3411   */\n  add\n    /* \"#utility.yul\":3434:3437   */\n  dup6\n    /* \"#utility.yul\":3426:3432   */\n  dup2\n    /* \"#utility.yul\":3423:3438   */\n  gt\n    /* \"#utility.yul\":3420:3542   */\n  iszero\n  tag_100\n  jumpi\n    /* \"#utility.yul\":3453:3532   */\n  tag_101\n  tag_37\n  jump\t// in\ntag_101:\n    /* \"#utility.yul\":3420:3542   */\ntag_100:\n    /* \"#utility.yul\":3568:3574   */\n  dup4\n    /* \"#utility.yul\":3551:3990   */\ntag_102:\n    /* \"#utility.yul\":3585:3591   */\n  dup2\n    /* \"#utility.yul\":3580:3583   */\n  dup2\n    /* \"#utility.yul\":3577:3592   */\n  lt\n    /* \"#utility.yul\":3551:3990   */\n  iszero\n  tag_104\n  jumpi\n    /* \"#utility.yul\":3667:3670   */\n  dup1\n    /* \"#utility.yul\":3661:3671   */\n  mload\n    /* \"#utility.yul\":3703:3721   */\n  0xffffffffffffffff\n    /* \"#utility.yul\":3690:3701   */\n  dup2\n    /* \"#utility.yul\":3687:3722   */\n  gt\n    /* \"#utility.yul\":3684:3806   */\n  iszero\n  tag_105\n  jumpi\n    /* \"#utility.yul\":3725:3804   */\n  tag_106\n  tag_31\n  jump\t// in\ntag_106:\n    /* \"#utility.yul\":3684:3806   */\ntag_105:\n    /* \"#utility.yul\":3849:3860   */\n  dup1\n    /* \"#utility.yul\":3841:3847   */\n  dup7\n    /* \"#utility.yul\":3837:3861   */\n  add\n    /* \"#utility.yul\":3887:3945   */\n  tag_107\n    /* \"#utility.yul\":3941:3944   */\n  dup10\n    /* \"#utility.yul\":3929:3939   */\n  dup3\n    /* \"#utility.yul\":3887:3945   */\n  tag_42\n  jump\t// in\ntag_107:\n    /* \"#utility.yul\":3882:3885   */\n  dup6\n    /* \"#utility.yul\":3875:3946   */\n  mstore\n    /* \"#utility.yul\":3975:3979   */\n  0x20\n    /* \"#utility.yul\":3970:3973   */\n  dup6\n    /* \"#utility.yul\":3966:3980   */\n  add\n    /* \"#utility.yul\":3959:3980   */\n  swap5\n  pop\n    /* \"#utility.yul\":3627:3990   */\n  pop\n  pop\n    /* \"#utility.yul\":3611:3615   */\n  0x20\n    /* \"#utility.yul\":3606:3609   */\n  dup2\n    /* \"#utility.yul\":3602:3616   */\n  add\n    /* \"#utility.yul\":3595:3616   */\n  swap1\n  pop\n    /* \"#utility.yul\":3551:3990   */\n  jump(tag_102)\ntag_104:\n    /* \"#utility.yul\":3555:3576   */\n  pop\n    /* \"#utility.yul\":3159:3996   */\n  pop\n  pop\n    /* \"#utility.yul\":3036:3996   */\n  swap4\n  swap3\n  pop\n  pop\n  pop\n  jump\t// out\n    /* \"#utility.yul\":4018:4423   */\ntag_44:\n    /* \"#utility.yul\":4110:4115   */\n  0x00\n    /* \"#utility.yul\":4159:4162   */\n  dup3\n    /* \"#utility.yul\":4152:4156   */\n  0x1f\n    /* \"#utility.yul\":4144:4150   */\n  dup4\n    /* \"#utility.yul\":4140:4157   */\n  add\n    /* \"#utility.yul\":4136:4163   */\n  slt\n    /* \"#utility.yul\":4126:4248   */\n  tag_109\n  jumpi\n    /* \"#utility.yul\":4167:4246   */\n  tag_110\n  tag_31\n  jump\t// in\ntag_110:\n    /* \"#utility.yul\":4126:4248   */\ntag_109:\n    /* \"#utility.yul\":4277:4283   */\n  dup2\n    /* \"#utility.yul\":4271:4284   */\n  mload\n    /* \"#utility.yul\":4302:4417   */\n  tag_111\n    /* \"#utility.yul\":4413:4416   */\n  dup5\n    /* \"#utility.yul\":4405:4411   */\n  dup3\n    /* \"#utility.yul\":4398:4402   */\n  0x20\n    /* \"#utility.yul\":4390:4396   */\n  dup7\n    /* \"#utility.yul\":4386:4403   */\n  add\n    /* \"#utility.yul\":4302:4417   */\n  tag_43\n  jump\t// in\ntag_111:\n    /* \"#utility.yul\":4293:4417   */\n  swap2\n  pop\n    /* \"#utility.yul\":4116:4423   */\n  pop\n    /* \"#utility.yul\":4018:4423   */\n  swap3\n  swap2\n  pop\n  pop\n  jump\t// out\n    /* \"#utility.yul\":4429:5003   */\ntag_3:\n    /* \"#utility.yul\":4534:4540   */\n  0x00\n    /* \"#utility.yul\":4583:4585   */\n  0x20\n    /* \"#utility.yul\":4571:4580   */\n  dup3\n    /* \"#utility.yul\":4562:4569   */\n  dup5\n    /* \"#utility.yul\":4558:4581   */\n  sub\n    /* \"#utility.yul\":4554:4586   */\n  slt\n    /* \"#utility.yul\":4551:4670   */\n  iszero\n  tag_113\n  jumpi\n    /* \"#utility.yul\":4589:4668   */\n  tag_114\n  tag_29\n  jump\t// in\ntag_114:\n    /* \"#utility.yul\":4551:4670   */\ntag_113:\n    /* \"#utility.yul\":4730:4731   */\n  0x00\n    /* \"#utility.yul\":4719:4728   */\n  dup3\n    /* \"#utility.yul\":4715:4732   */\n  add\n    /* \"#utility.yul\":4709:4733   */\n  mload\n    /* \"#utility.yul\":4760:4778   */\n  0xffffffffffffffff\n    /* \"#utility.yul\":4752:4758   */\n  dup2\n    /* \"#utility.yul\":4749:4779   */\n  gt\n    /* \"#utility.yul\":4746:4863   */\n  iszero\n  tag_115\n  jumpi\n    /* \"#utility.yul\":4782:4861   */\n  tag_116\n  tag_30\n  jump\t// in\ntag_116:\n    /* \"#utility.yul\":4746:4863   */\ntag_115:\n    /* \"#utility.yul\":4887:4986   */\n  tag_117\n    /* \"#utility.yul\":4978:4985   */\n  dup5\n    /* \"#utility.yul\":4969:4975   */\n  dup3\n    /* \"#utility.yul\":4958:4967   */\n  dup6\n    /* \"#utility.yul\":4954:4976   */\n  add\n    /* \"#utility.yul\":4887:4986   */\n  tag_44\n  jump\t// in\ntag_117:\n    /* \"#utility.yul\":4877:4986   */\n  swap2\n  pop\n    /* \"#utility.yul\":4680:4996   */\n  pop\n    /* \"#utility.yul\":4429:5003   */\n  swap3\n  swap2\n  pop\n  pop\n  jump\t// out\n    /* \"#utility.yul\":5009:5108   */\ntag_45:\n    /* \"#utility.yul\":5061:5067   */\n  0x00\n    /* \"#utility.yul\":5095:5100   */\n  dup2\n    /* \"#utility.yul\":5089:5101   */\n  mload\n    /* \"#utility.yul\":5079:5101   */\n  swap1\n  pop\n    /* \"#utility.yul\":5009:5108   */\n  swap2\n  swap1\n  pop\n  jump\t// out\n    /* \"#utility.yul\":5114:5294   */\ntag_46:\n    /* \"#utility.yul\":5162:5239   */\n  0x4e487b7100000000000000000000000000000000000000000000000000000000\n    /* \"#utility.yul\":5159:5160   */\n  0x00\n    /* \"#utility.yul\":5152:5240   */\n  mstore\n    /* \"#utility.yul\":5259:5263   */\n  0x22\n    /* \"#utility.yul\":5256:5257   */\n  0x04\n    /* \"#utility.yul\":5249:5264   */\n  mstore\n    /* \"#utility.yul\":5283:5287   */\n  0x24\n    /* \"#utility.yul\":5280:5281   */\n  0x00\n    /* \"#utility.yul\":5273:5288   */\n  revert\n    /* \"#utility.yul\":5300:5620   */\ntag_21:\n    /* \"#utility.yul\":5344:5350   */\n  0x00\n    /* \"#utility.yul\":5381:5382   */\n  0x02\n    /* \"#utility.yul\":5375:5379   */\n  dup3\n    /* \"#utility.yul\":5371:5383   */\n  div\n    /* \"#utility.yul\":5361:5383   */\n  swap1\n  pop\n    /* \"#utility.yul\":5428:5429   */\n  0x01\n    /* \"#utility.yul\":5422:5426   */\n  dup3\n    /* \"#utility.yul\":5418:5430   */\n  and\n    /* \"#utility.yul\":5449:5467   */\n  dup1\n    /* \"#utility.yul\":5439:5520   */\n  tag_121\n  jumpi\n    /* \"#utility.yul\":5505:5509   */\n  0x7f\n    /* \"#utility.yul\":5497:5503   */\n  dup3\n    /* \"#utility.yul\":5493:5510   */\n  and\n    /* \"#utility.yul\":5483:5510   */\n  swap2\n  pop\n    /* \"#utility.yul\":5439:5520   */\ntag_121:\n    /* \"#utility.yul\":5567:5569   */\n  0x20\n    /* \"#utility.yul\":5559:5565   */\n  dup3\n    /* \"#utility.yul\":5556:5570   */\n  lt\n    /* \"#utility.yul\":5536:5554   */\n  dup2\n    /* \"#utility.yul\":5533:5571   */\n  sub\n    /* \"#utility.yul\":5530:5614   */\n  tag_122\n  jumpi\n    /* \"#utility.yul\":5586:5604   */\n  tag_123\n  tag_46\n  jump\t// in\ntag_123:\n    /* \"#utility.yul\":5530:5614   */\ntag_122:\n    /* \"#utility.yul\":5351:5620   */\n  pop\n    /* \"#utility.yul\":5300:5620   */\n  swap2\n  swap1\n  pop\n  jump\t// out\n    /* \"#utility.yul\":5626:5767   */\ntag_47:\n    /* \"#utility.yul\":5675:5679   */\n  0x00\n    /* \"#utility.yul\":5698:5701   */\n  dup2\n    /* \"#utility.yul\":5690:5701   */\n  swap1\n  pop\n    /* \"#utility.yul\":5721:5724   */\n  dup2\n    /* \"#utility.yul\":5718:5719   */\n  0x00\n    /* \"#utility.yul\":5711:5725   */\n  mstore\n    /* \"#utility.yul\":5755:5759   */\n  0x20\n    /* \"#utility.yul\":5752:5753   */\n  0x00\n    /* \"#utility.yul\":5742:5760   */\n  keccak256\n    /* \"#utility.yul\":5734:5760   */\n  swap1\n  pop\n    /* \"#utility.yul\":5626:5767   */\n  swap2\n  swap1\n  pop\n  jump\t// out\n    /* \"#utility.yul\":5773:5866   */\ntag_48:\n    /* \"#utility.yul\":5810:5816   */\n  0x00\n    /* \"#utility.yul\":5857:5859   */\n  0x20\n    /* \"#utility.yul\":5852:5854   */\n  0x1f\n    /* \"#utility.yul\":5845:5850   */\n  dup4\n    /* \"#utility.yul\":5841:5855   */\n  add\n    /* \"#utility.yul\":5837:5860   */\n  div\n    /* \"#utility.yul\":5827:5860   */\n  swap1\n  pop\n    /* \"#utility.yul\":5773:5866   */\n  swap2\n  swap1\n  pop\n  jump\t// out\n    /* \"#utility.yul\":5872:5979   */\ntag_49:\n    /* \"#utility.yul\":5916:5924   */\n  0x00\n    /* \"#utility.yul\":5966:5971   */\n  dup3\n    /* \"#utility.yul\":5960:5964   */\n  dup3\n    /* \"#utility.yul\":5956:5972   */\n  shl\n    /* \"#utility.yul\":5935:5972   */\n  swap1\n  pop\n    /* \"#utility.yul\":5872:5979   */\n  swap3\n  swap2\n  pop\n  pop\n  jump\t// out\n    /* \"#utility.yul\":5985:6378   */\ntag_50:\n    /* \"#utility.yul\":6054:6060   */\n  0x00\n    /* \"#utility.yul\":6104:6105   */\n  0x08\n    /* \"#utility.yul\":6092:6102   */\n  dup4\n    /* \"#utility.yul\":6088:6106   */\n  mul\n    /* \"#utility.yul\":6127:6224   */\n  tag_128\n    /* \"#utility.yul\":6157:6223   */\n  0xffffffffffffffffffffffffffffffffffffffffffffffffffffffffffffffff\n    /* \"#utility.yul\":6146:6155   */\n  dup3\n    /* \"#utility.yul\":6127:6224   */\n  tag_49\n  jump\t// in\ntag_128:\n    /* \"#utility.yul\":6245:6284   */\n  tag_129\n    /* \"#utility.yul\":6275:6283   */\n  dup7\n    /* \"#utility.yul\":6264:6273   */\n  dup4\n    /* \"#utility.yul\":6245:6284   */\n  tag_49\n  jump\t// in\ntag_129:\n    /* \"#utility.yul\":6233:6284   */\n  swap6\n  pop\n    /* \"#utility.yul\":6317:6321   */\n  dup1\n    /* \"#utility.yul\":6313:6322   */\n  not\n    /* \"#utility.yul\":6306:6311   */\n  dup5\n    /* \"#utility.yul\":6302:6323   */\n  and\n    /* \"#utility.yul\":6293:6323   */\n  swap4\n  pop\n    /* \"#utility.yul\":6366:6370   */\n  dup1\n    /* \"#utility.yul\":6356:6364   */\n  dup7\n    /* \"#utility.yul\":6352:6371   */\n  and\n    /* \"#utility.yul\":6345:6350   */\n  dup5\n    /* \"#utility.yul\":6342:6372   */\n  or\n    /* \"#utility.yul\":6332:6372   */\n  swap3\n  pop\n    /* \"#utility.yul\":6061:6378   */\n  pop\n  pop\n    /* \"#utility.yul\":5985:6378   */\n  swap4\n  swap3\n  pop\n  pop\n  pop\n  jump\t// out\n    /* \"#utility.yul\":6384:6461   */\ntag_51:\n    /* \"#utility.yul\":6421:6428   */\n  0x00\n    /* \"#utility.yul\":6450:6455   */\n  dup2\n    /* \"#utility.yul\":6439:6455   */\n  swap1\n  pop\n    /* \"#utility.yul\":6384:6461   */\n  swap2\n  swap1\n  pop\n  jump\t// out\n    /* \"#utility.yul\":6467:6527   */\ntag_52:\n    /* \"#utility.yul\":6495:6498   */\n  0x00\n    /* \"#utility.yul\":6516:6521   */\n  dup2\n    /* \"#utility.yul\":6509:6521   */\n  swap1\n  pop\n    /* \"#utility.yul\":6467:6527   */\n  swap2\n  swap1\n  pop\n  jump\t// out\n    /* \"#utility.yul\":6533:6675   */\ntag_53:\n    /* \"#utility.yul\":6583:6592   */\n  0x00\n    /* \"#utility.yul\":6616:6669   */\n  tag_133\n    /* \"#utility.yul\":6634:6668   */\n  tag_134\n    /* \"#utility.yul\":6643:6667   */\n  tag_135\n    /* \"#utility.yul\":6661:6666   */\n  dup5\n    /* \"#utility.yul\":6643:6667   */\n  tag_51\n  jump\t// in\ntag_135:\n    /* \"#utility.yul\":6634:6668   */\n  tag_52\n  jump\t// in\ntag_134:\n    /* \"#utility.yul\":6616:6669   */\n  tag_51\n  jump\t// in\ntag_133:\n    /* \"#utility.yul\":6603:6669   */\n  swap1\n  pop\n    /* \"#utility.yul\":6533:6675   */\n  swap2\n  swap1\n  pop\n  jump\t// out\n    /* \"#utility.yul\":6681:6756   */\ntag_54:\n    /* \"#utility.yul\":6724:6727   */\n  0x00\n    /* \"#utility.yul\":6745:6750   */\n  dup2\n    /* \"#utility.yul\":6738:6750   */\n  swap1\n  pop\n    /* \"#utility.yul\":6681:6756   */\n  swap2\n  swap1\n  pop\n  jump\t// out\n    /* \"#utility.yul\":6762:7031   */\ntag_55:\n    /* \"#utility.yul\":6872:6911   */\n  tag_138\n    /* \"#utility.yul\":6903:6910   */\n  dup4\n    /* \"#utility.yul\":6872:6911   */\n  tag_53\n  jump\t// in\ntag_138:\n    /* \"#utility.yul\":6933:7024   */\n  tag_139\n    /* \"#utility.yul\":6982:7023   */\n  tag_140\n    /* \"#utility.yul\":7006:7022   */\n  dup3\n    /* \"#utility.yul\":6982:7023   */\n  tag_54\n  jump\t// in\ntag_140:\n    /* \"#utility.yul\":6974:6980   */\n  dup5\n    /* \"#utility.yul\":6967:6971   */\n  dup5\n    /* \"#utility.yul\":6961:6972   */\n  sload\n    /* \"#utility.yul\":6933:7024   */\n  tag_50\n  jump\t// in\ntag_139:\n    /* \"#utility.yul\":6927:6931   */\n  dup3\n    /* \"#utility.yul\":6920:7025   */\n  sstore\n    /* \"#utility.yul\":6838:7031   */\n  pop\n    /* \"#utility.yul\":6762:7031   */\n  pop\n  pop\n  pop\n  jump\t// out\n    /* \"#utility.yul\":7037:7110   */\ntag_56:\n    /* \"#utility.yul\":7082:7085   */\n  0x00\n    /* \"#utility.yul\":7037:7110   */\n  swap1\n  jump\t// out\n    /* \"#utility.yul\":7116:7305   */\ntag_57:\n    /* \"#utility.yul\":7193:7225   */\n  tag_143\n  tag_56\n  jump\t// in\ntag_143:\n    /* \"#utility.yul\":7234:7299   */\n  tag_144\n    /* \"#utility.yul\":7292:7298   */\n  dup2\n    /* \"#utility.yul\":7284:7290   */\n  dup5\n    /* \"#utility.yul\":7278:7282   */\n  dup5\n    /* \"#utility.yul\":7234:7299   */\n  tag_55\n  jump\t// in\ntag_144:\n    /* \"#utility.yul\":7169:7305   */\n  pop\n    /* \"#utility.yul\":7116:7305   */\n  pop\n  pop\n  jump\t// out\n    /* \"#utility.yul\":7311:7497   */\ntag_58:\n    /* \"#utility.yul\":7371:7491   */\ntag_146:\n    /* \"#utility.yul\":7388:7391   */\n  dup2\n    /* \"#utility.yul\":7381:7386   */\n  dup2\n    /* \"#utility.yul\":7378:7392   */\n  lt\n    /* \"#utility.yul\":7371:7491   */\n  iszero\n  tag_148\n  jumpi\n    /* \"#utility.yul\":7442:7481   */\n  tag_149\n    /* \"#utility.yul\":7479:7480   */\n  0x00\n    /* \"#utility.yul\":7472:7477   */\n  dup3\n    /* \"#utility.yul\":7442:7481   */\n  tag_57\n  jump\t// in\ntag_149:\n    /* \"#utility.yul\":7415:7416   */\n  0x01\n    /* \"#utility.yul\":7408:7413   */\n  dup2\n    /* \"#utility.yul\":7404:7417   */\n  add\n    /* \"#utility.yul\":7395:7417   */\n  swap1\n  pop\n    /* \"#utility.yul\":7371:7491   */\n  jump(tag_146)\ntag_148:\n    /* \"#utility.yul\":7311:7497   */\n  pop\n  pop\n  jump\t// out\n    /* \"#utility.yul\":7503:8046   */\ntag_59:\n    /* \"#utility.yul\":7604:7606   */\n  0x1f\n    /* \"#utility.yul\":7599:7602   */\n  dup3\n    /* \"#utility.yul\":7596:7607   */\n  gt\n    /* \"#utility.yul\":7593:8039   */\n  iszero\n  tag_151\n  jumpi\n    /* \"#utility.yul\":7638:7676   */\n  tag_152\n    /* \"#utility.yul\":7670:7675   */\n  dup2\n    /* \"#utility.yul\":7638:7676   */\n  tag_47\n  jump\t// in\ntag_152:\n    /* \"#utility.yul\":7722:7751   */\n  tag_153\n    /* \"#utility.yul\":7740:7750   */\n  dup5\n    /* \"#utility.yul\":7722:7751   */\n  tag_48\n  jump\t// in\ntag_153:\n    /* \"#utility.yul\":7712:7720   */\n  dup2\n    /* \"#utility.yul\":7708:7752   */\n  add\n    /* \"#utility.yul\":7905:7907   */\n  0x20\n    /* \"#utility.yul\":7893:7903   */\n  dup6\n    /* \"#utility.yul\":7890:7908   */\n  lt\n    /* \"#utility.yul\":7887:7936   */\n  iszero\n  tag_154\n  jumpi\n    /* \"#utility.yul\":7926:7934   */\n  dup2\n    /* \"#utility.yul\":7911:7934   */\n  swap1\n  pop\n    /* \"#utility.yul\":7887:7936   */\ntag_154:\n    /* \"#utility.yul\":7949:8029   */\n  tag_155\n    /* \"#utility.yul\":8005:8027   */\n  tag_156\n    /* \"#utility.yul\":8023:8026   */\n  dup6\n    /* \"#utility.yul\":8005:8027   */\n  tag_48\n  jump\t// in\ntag_156:\n    /* \"#utility.yul\":7995:8003   */\n  dup4\n    /* \"#utility.yul\":7991:8028   */\n  add\n    /* \"#utility.yul\":7978:7989   */\n  dup3\n    /* \"#utility.yul\":7949:8029   */\n  tag_58\n  jump\t// in\ntag_155:\n    /* \"#utility.yul\":7608:8039   */\n  pop\n  pop\n    /* \"#utility.yul\":7593:8039   */\ntag_151:\n    /* \"#utility.yul\":7503:8046   */\n  pop\n  pop\n  pop\n  jump\t// out\n    /* \"#utility.yul\":8052:8169   */\ntag_60:\n    /* \"#utility.yul\":8106:8114   */\n  0x00\n    /* \"#utility.yul\":8156:8161   */\n  dup3\n    /* \"#utility.yul\":8150:8154   */\n  dup3\n    /* \"#utility.yul\":8146:8162   */\n  shr\n    /* \"#utility.yul\":8125:8162   */\n  swap1\n  pop\n    /* \"#utility.yul\":8052:8169   */\n  swap3\n  swap2\n  pop\n  pop\n  jump\t// out\n    /* \"#utility.yul\":8175:8344   */\ntag_61:\n    /* \"#utility.yul\":8219:8225   */\n  0x00\n    /* \"#utility.yul\":8252:8303   */\n  tag_159\n    /* \"#utility.yul\":8300:8301   */\n  0x00\n    /* \"#utility.yul\":8296:8302   */\n  not\n    /* \"#utility.yul\":8288:8293   */\n  dup5\n    /* \"#utility.yul\":8285:8286   */\n  0x08\n    /* \"#utility.yul\":8281:8294   */\n  mul\n    /* \"#utility.yul\":8252:8303   */\n  tag_60\n  jump\t// in\ntag_159:\n    /* \"#utility.yul\":8248:8304   */\n  not\n    /* \"#utility.yul\":8333:8337   */\n  dup1\n    /* \"#utility.yul\":8327:8331   */\n  dup4\n    /* \"#utility.yul\":8323:8338   */\n  and\n    /* \"#utility.yul\":8313:8338   */\n  swap2\n  pop\n    /* \"#utility.yul\":8226:8344   */\n  pop\n    /* \"#utility.yul\":8175:8344   */\n  swap3\n  swap2\n  pop\n  pop\n  jump\t// out\n    /* \"#utility.yul\":8349:8644   */\ntag_62:\n    /* \"#utility.yul\":8425:8429   */\n  0x00\n    /* \"#utility.yul\":8571:8600   */\n  tag_161\n    /* \"#utility.yul\":8596:8599   */\n  dup4\n    /* \"#utility.yul\":8590:8594   */\n  dup4\n    /* \"#utility.yul\":8571:8600   */\n  tag_61\n  jump\t// in\ntag_161:\n    /* \"#utility.yul\":8563:8600   */\n  swap2\n  pop\n    /* \"#utility.yul\":8633:8636   */\n  dup3\n    /* \"#utility.yul\":8630:8631   */\n  0x02\n    /* \"#utility.yul\":8626:8637   */\n  mul\n    /* \"#utility.yul\":8620:8624   */\n  dup3\n    /* \"#utility.yul\":8617:8638   */\n  or\n    /* \"#utility.yul\":8609:8638   */\n  swap1\n  pop\n    /* \"#utility.yul\":8349:8644   */\n  swap3\n  swap2\n  pop\n  pop\n  jump\t// out\n    /* \"#utility.yul\":8649:10044   */\ntag_13:\n    /* \"#utility.yul\":8766:8803   */\n  tag_163\n    /* \"#utility.yul\":8799:8802   */\n  dup3\n    /* \"#utility.yul\":8766:8803   */\n  tag_45\n  jump\t// in\ntag_163:\n    /* \"#utility.yul\":8868:8886   */\n  0xffffffffffffffff\n    /* \"#utility.yul\":8860:8866   */\n  dup2\n    /* \"#utility.yul\":8857:8887   */\n  gt\n    /* \"#utility.yul\":8854:8910   */\n  iszero\n  tag_164\n  jumpi\n    /* \"#utility.yul\":8890:8908   */\n  tag_165\n  tag_33\n  jump\t// in\ntag_165:\n    /* \"#utility.yul\":8854:8910   */\ntag_164:\n    /* \"#utility.yul\":8934:8972   */\n  tag_166\n    /* \"#utility.yul\":8966:8970   */\n  dup3\n    /* \"#utility.yul\":8960:8971   */\n  sload\n    /* \"#utility.yul\":8934:8972   */\n  tag_21\n  jump\t// in\ntag_166:\n    /* \"#utility.yul\":9019:9086   */\n  tag_167\n    /* \"#utility.yul\":9079:9085   */\n  dup3\n    /* \"#utility.yul\":9071:9077   */\n  dup3\n    /* \"#utility.yul\":9065:9069   */\n  dup6\n    /* \"#utility.yul\":9019:9086   */\n  tag_59\n  jump\t// in\ntag_167:\n    /* \"#utility.yul\":9113:9114   */\n  0x00\n    /* \"#utility.yul\":9137:9141   */\n  0x20\n    /* \"#utility.yul\":9124:9141   */\n  swap1\n  pop\n    /* \"#utility.yul\":9169:9171   */\n  0x1f\n    /* \"#utility.yul\":9161:9167   */\n  dup4\n    /* \"#utility.yul\":9158:9172   */\n  gt\n    /* \"#utility.yul\":9186:9187   */\n  0x01\n    /* \"#utility.yul\":9181:9799   */\n  dup2\n  eq\n  tag_169\n  jumpi\n    /* \"#utility.yul\":9843:9844   */\n  0x00\n    /* \"#utility.yul\":9860:9866   */\n  dup5\n    /* \"#utility.yul\":9857:9934   */\n  iszero\n  tag_170\n  jumpi\n    /* \"#utility.yul\":9909:9918   */\n  dup3\n    /* \"#utility.yul\":9904:9907   */\n  dup8\n    /* \"#utility.yul\":9900:9919   */\n  add\n    /* \"#utility.yul\":9894:9920   */\n  mload\n    /* \"#utility.yul\":9885:9920   */\n  swap1\n  pop\n    /* \"#utility.yul\":9857:9934   */\ntag_170:\n    /* \"#utility.yul\":9960:10027   */\n  tag_171\n    /* \"#utility.yul\":10020:10026   */\n  dup6\n    /* \"#utility.yul\":10013:10018   */\n  dup3\n    /* \"#utility.yul\":9960:10027   */\n  tag_62\n  jump\t// in\ntag_171:\n    /* \"#utility.yul\":9954:9958   */\n  dup7\n    /* \"#utility.yul\":9947:10028   */\n  sstore\n    /* \"#utility.yul\":9816:10038   */\n  pop\n    /* \"#utility.yul\":9151:10038   */\n  jump(tag_168)\n    /* \"#utility.yul\":9181:9799   */\ntag_169:\n    /* \"#utility.yul\":9233:9237   */\n  0x1f\n    /* \"#utility.yul\":9229:9238   */\n  not\n    /* \"#utility.yul\":9221:9227   */\n  dup5\n    /* \"#utility.yul\":9217:9239   */\n  and\n    /* \"#utility.yul\":9267:9304   */\n  tag_172\n    /* \"#utility.yul\":9299:9303   */\n  dup7\n    /* \"#utility.yul\":9267:9304   */\n  tag_47\n  jump\t// in\ntag_172:\n    /* \"#utility.yul\":9326:9327   */\n  0x00\n    /* \"#utility.yul\":9340:9548   */\ntag_173:\n    /* \"#utility.yul\":9354:9361   */\n  dup3\n    /* \"#utility.yul\":9351:9352   */\n  dup2\n    /* \"#utility.yul\":9348:9362   */\n  lt\n    /* \"#utility.yul\":9340:9548   */\n  iszero\n  tag_175\n  jumpi\n    /* \"#utility.yul\":9433:9442   */\n  dup5\n    /* \"#utility.yul\":9428:9431   */\n  dup10\n    /* \"#utility.yul\":9424:9443   */\n  add\n    /* \"#utility.yul\":9418:9444   */\n  mload\n    /* \"#utility.yul\":9410:9416   */\n  dup3\n    /* \"#utility.yul\":9403:9445   */\n  sstore\n    /* \"#utility.yul\":9484:9485   */\n  0x01\n    /* \"#utility.yul\":9476:9482   */\n  dup3\n    /* \"#utility.yul\":9472:9486   */\n  add\n    /* \"#utility.yul\":9462:9486   */\n  swap2\n  pop\n    /* \"#utility.yul\":9531:9533   */\n  0x20\n    /* \"#utility.yul\":9520:9529   */\n  dup6\n    /* \"#utility.yul\":9516:9534   */\n  add\n    /* \"#utility.yul\":9503:9534   */\n  swap5\n  pop\n    /* \"#utility.yul\":9377:9381   */\n  0x20\n    /* \"#utility.yul\":9374:9375   */\n  dup2\n    /* \"#utility.yul\":9370:9382   */\n  add\n    /* \"#utility.yul\":9365:9382   */\n  swap1\n  pop\n    /* \"#utility.yul\":9340:9548   */\n  jump(tag_173)\ntag_175:\n    /* \"#utility.yul\":9576:9582   */\n  dup7\n    /* \"#utility.yul\":9567:9574   */\n  dup4\n    /* \"#utility.yul\":9564:9583   */\n  lt\n    /* \"#utility.yul\":9561:9740   */\n  iszero\n  tag_176\n  jumpi\n    /* \"#utility.yul\":9634:9643   */\n  dup5\n    /* \"#utility.yul\":9629:9632   */\n  dup10\n    /* \"#utility.yul\":9625:9644   */\n  add\n    /* \"#utility.yul\":9619:9645   */\n  mload\n    /* \"#utility.yul\":9677:9725   */\n  tag_177\n    /* \"#utility.yul\":9719:9723   */\n  0x1f\n    /* \"#utility.yul\":9711:9717   */\n  dup10\n    /* \"#utility.yul\":9707:9724   */\n  and\n    /* \"#utility.yul\":9696:9705   */\n  dup3\n    /* \"#utility.yul\":9677:9725   */\n  tag_61\n  jump\t// in\ntag_177:\n    /* \"#utility.yul\":9669:9675   */\n  dup4\n    /* \"#utility.yul\":9662:9726   */\n  sstore\n    /* \"#utility.yul\":9584:9740   */\n  pop\n    /* \"#utility.yul\":9561:9740   */\ntag_176:\n    /* \"#utility.yul\":9786:9787   */\n  0x01\n    /* \"#utility.yul\":9782:9783   */\n  0x02\n    /* \"#utility.yul\":9774:9780   */\n  dup9\n    /* \"#utility.yul\":9770:9784   */\n  mul\n    /* \"#utility.yul\":9766:9788   */\n  add\n    /* \"#utility.yul\":9760:9764   */\n  dup9\n    /* \"#utility.yul\":9753:9789   */\n  sstore\n    /* \"#utility.yul\":9188:9799   */\n  pop\n  pop\n  pop\n    /* \"#utility.yul\":9151:10038   */\ntag_168:\n  pop\n    /* \"#utility.yul\":8741:10044   */\n  pop\n  pop\n  pop\n    /* \"#utility.yul\":8649:10044   */\n  pop\n  pop\n  jump\t// out\n    /* \"Voting.sol\":139:2713  contract Voting {... */\ntag_8:\n  dataSize(sub_0)\n  dup1\n  dataOffset(sub_0)\n  0x00\n  codecopy\n  0x00\n  return\nstop\n\nsub_0: assembly {\n        /* \"Voting.sol\":139:2713  contract Voting {... */\n      mstore(0x40, 0x80)\n      callvalue\n      dup1\n      iszero\n      tag_1\n      jumpi\n      0x00\n      dup1\n      revert\n    tag_1:\n      pop\n      jumpi(tag_2, lt(calldatasize, 0x04))\n      shr(0xe0, calldataload(0x00))\n      dup1\n      0x8da5cb5b\n      gt\n      tag_14\n      jumpi\n      dup1\n      0x8da5cb5b\n      eq\n      tag_8\n      jumpi\n      dup1\n      0xb952e7d8\n      eq\n      tag_9\n      jumpi\n      dup1\n      0xba7f7552\n      eq\n      tag_10\n      jumpi\n      dup1\n      0xc3c5a547\n      eq\n      tag_11\n      jumpi\n      dup1\n      0xe962414f\n      eq\n      tag_12\n      jumpi\n      dup1\n      0xfc36e15b\n      eq\n      tag_13\n      jumpi\n      jump(tag_2)\n    tag_14:\n      dup1\n      0x09eef43e\n      eq\n      tag_3\n      jumpi\n      dup1\n      0x2e6997fe\n      eq\n      tag_4\n      jumpi\n      dup1\n      0x3477ee2e\n      eq\n      tag_5\n      jumpi\n      dup1\n      0x38db6dd3\n      eq\n      tag_6\n      jumpi\n      dup1\n      0x5f589599\n      eq\n      tag_7\n      jumpi\n    tag_2:\n      0x00\n      dup1\n      revert\n        /* \"Voting.sol\":374:414  mapping(address => bool) public hasVoted */\n    tag_3:\n      tag_15\n      0x04\n      dup1\n      calldatasize\n      sub\n      dup2\n      add\n      swap1\n      tag_16\n      swap2\n      swap1\n      tag_17\n      jump\t// in\n    tag_16:\n      tag_18\n      jump\t// in\n    tag_15:\n      mload(0x40)\n      tag_19\n      swap2\n      swap1\n      tag_20\n      jump\t// in\n    tag_19:\n      mload(0x40)\n      dup1\n      swap2\n      sub\n      swap1\n      return\n        /* \"Voting.sol\":2611:2711  function getAllCandidates() public view returns (string[] memory) {... */\n    tag_4:\n      tag_21\n      tag_22\n      jump\t// in\n    tag_21:\n      mload(0x40)\n      tag_23\n      swap2\n      swap1\n      tag_24\n      jump\t// in\n    tag_23:\n      mload(0x40)\n      dup1\n      swap2\n      sub\n      swap1\n      return\n        /* \"Voting.sol\":307:333  string[] public candidates */\n    tag_5:\n      tag_25\n      0x04\n      dup1\n      calldatasize\n      sub\n      dup2\n      add\n      swap1\n      tag_26\n      swap2\n      swap1\n      tag_27\n      jump\t// in\n    tag_26:\n      tag_28\n      jump\t// in\n    tag_25:\n      mload(0x40)\n      tag_29\n      swap2\n      swap1\n      tag_30\n      jump\t// in\n    tag_29:\n      mload(0x40)\n      dup1\n      swap2\n      sub\n      swap1\n      return\n        /* \"Voting.sol\":1306:1516  function registerVoter(address voter) public onlyOwner {... */\n    tag_6:\n      tag_31\n      0x04\n      dup1\n      calldatasize\n      sub\n      dup2\n      add\n      swap1\n      tag_32\n      swap2\n      swap1\n      tag_17\n      jump\t// in\n    tag_32:\n      tag_33\n      jump\t// in\n    tag_31:\n      stop\n        /* \"Voting.sol\":187:215  bool public resultsPublished */\n    tag_7:\n      tag_34\n      tag_35\n      jump\t// in\n    tag_34:\n      mload(0x40)\n      tag_36\n      swap2\n      swap1\n      tag_20\n      jump\t// in\n    tag_36:\n      mload(0x40)\n      dup1\n      swap2\n      sub\n      swap1\n      return\n        /* \"Voting.sol\":161:181  address public owner */\n    tag_8:\n      tag_37\n      tag_38\n      jump\t// in\n    tag_37:\n      mload(0x40)\n      tag_39\n      swap2\n      swap1\n      tag_40\n      jump\t// in\n    tag_39:\n      mload(0x40)\n      dup1\n      swap2\n      sub\n      swap1\n      return\n        /* \"Voting.sol\":2206:2473  function publishResults() public onlyOwner notPublished {... */\n    tag_9:\n      tag_41\n      tag_42\n      jump\t// in\n    tag_41:\n      stop\n        /* \"Voting.sol\":258:301  mapping(string => uint256) public voteCount */\n    tag_10:\n      tag_43\n      0x04\n      dup1\n      calldatasize\n      sub\n      dup2\n      add\n      swap1\n      tag_44\n      swap2\n      swap1\n      tag_45\n      jump\t// in\n    tag_44:\n      tag_46\n      jump\t// in\n    tag_43:\n      mload(0x40)\n      tag_47\n      swap2\n      swap1\n      tag_48\n      jump\t// in\n    tag_47:\n      mload(0x40)\n      dup1\n      swap2\n      sub\n      swap1\n      return\n        /* \"Voting.sol\":421:465  mapping(address => bool) public isRegistered */\n    tag_11:\n      tag_49\n      0x04\n      dup1\n      calldatasize\n      sub\n      dup2\n      add\n      swap1\n      tag_50\n      swap2\n      swap1\n      tag_17\n      jump\t// in\n    tag_50:\n      tag_51\n      jump\t// in\n    tag_49:\n      mload(0x40)\n      tag_52\n      swap2\n      swap1\n      tag_20\n      jump\t// in\n    tag_52:\n      mload(0x40)\n      dup1\n      swap2\n      sub\n      swap1\n      return\n        /* \"Voting.sol\":2479:2605  function getCandidateVotes(string memory candidate) public view returns (uint256) {... */\n    tag_12:\n      tag_53\n      0x04\n      dup1\n      calldatasize\n      sub\n      dup2\n      add\n      swap1\n      tag_54\n      swap2\n      swap1\n      tag_45\n      jump\t// in\n    tag_54:\n      tag_55\n      jump\t// in\n    tag_53:\n      mload(0x40)\n      tag_56\n      swap2\n      swap1\n      tag_48\n      jump\t// in\n    tag_56:\n      mload(0x40)\n      dup1\n      swap2\n      sub\n      swap1\n      return\n        /* \"Voting.sol\":1588:2162  function vote(string memory candidate) public onlyRegistered notPublished {... */\n    tag_13:\n      tag_57\n      0x04\n      dup1\n      calldatasize\n      sub\n      dup2\n      add\n      swap1\n      tag_58\n      swap2\n      swap1\n      tag_45\n      jump\t// in\n    tag_58:\n      tag_59\n      jump\t// in\n    tag_57:\n      stop\n        /* \"Voting.sol\":374:414  mapping(address => bool) public hasVoted */\n    tag_18:\n      mstore(0x20, 0x03)\n      dup1\n      0x00\n      mstore\n      keccak256(0x00, 0x40)\n      0x00\n      swap2\n      pop\n      sload\n      swap1\n      0x0100\n      exp\n      swap1\n      div\n      0xff\n      and\n      dup2\n      jump\t// out\n        /* \"Voting.sol\":2611:2711  function getAllCandidates() public view returns (string[] memory) {... */\n    tag_22:\n        /* \"Voting.sol\":2660:2675  string[] memory */\n      0x60\n        /* \"Voting.sol\":2694:2704  candidates */\n      0x02\n        /* \"Voting.sol\":2687:2704  return candidates */\n      dup1\n      sload\n      dup1\n      0x20\n      mul\n      0x20\n      add\n      mload(0x40)\n      swap1\n      dup2\n      add\n      0x40\n      mstore\n      dup1\n      swap3\n      swap2\n      swap1\n      dup2\n      dup2\n      mstore\n      0x20\n      add\n      0x00\n      swap1\n    tag_61:\n      dup3\n      dup3\n      lt\n      iszero\n      tag_62\n      jumpi\n      dup4\n      dup3\n      swap1\n      0x00\n      mstore\n      keccak256(0x00, 0x20)\n      add\n      dup1\n      sload\n      tag_64\n      swap1\n      tag_65\n      jump\t// in\n    tag_64:\n      dup1\n      0x1f\n      add\n      0x20\n      dup1\n      swap2\n      div\n      mul\n      0x20\n      add\n      mload(0x40)\n      swap1\n      dup2\n      add\n      0x40\n      mstore\n      dup1\n      swap3\n      swap2\n      swap1\n      dup2\n      dup2\n      mstore\n      0x20\n      add\n      dup3\n      dup1\n      sload\n      tag_66\n      swap1\n      tag_65\n      jump\t// in\n    tag_66:\n      dup1\n      iszero\n      tag_67\n      jumpi\n      dup1\n      0x1f\n      lt\n      tag_68\n      jumpi\n      0x0100\n      dup1\n      dup4\n      sload\n      div\n      mul\n      dup4\n      mstore\n      swap2\n      0x20\n      add\n      swap2\n      jump(tag_67)\n    tag_68:\n      dup3\n      add\n      swap2\n      swap1\n      0x00\n      mstore\n      keccak256(0x00, 0x20)\n      swap1\n    tag_69:\n      dup2\n      sload\n      dup2\n      mstore\n      swap1\n      0x01\n      add\n      swap1\n      0x20\n      add\n      dup1\n      dup4\n      gt\n      tag_69\n      jumpi\n      dup3\n      swap1\n      sub\n      0x1f\n      and\n      dup3\n      add\n      swap2\n    tag_67:\n      pop\n      pop\n      pop\n      pop\n      pop\n      dup2\n      mstore\n      0x20\n      add\n      swap1\n      0x01\n      add\n      swap1\n      jump(tag_61)\n    tag_62:\n      pop\n      pop\n      pop\n      pop\n      swap1\n      pop\n        /* \"Voting.sol\":2611:2711  function getAllCandidates() public view returns (string[] memory) {... */\n      swap1\n      jump\t// out\n        /* \"Voting.sol\":307:333  string[] public candidates */\n    tag_28:\n      0x02\n      dup2\n      dup2\n      sload\n      dup2\n      lt\n      tag_70\n      jumpi\n      0x00\n      dup1\n      revert\n    tag_70:\n      swap1\n      0x00\n      mstore\n      keccak256(0x00, 0x20)\n      add\n      0x00\n      swap2\n      pop\n      swap1\n      pop\n      dup1\n      sload\n      tag_72\n      swap1\n      tag_65\n      jump\t// in\n    tag_72:\n      dup1\n      0x1f\n      add\n      0x20\n      dup1\n      swap2\n      div\n      mul\n      0x20\n      add\n      mload(0x40)\n      swap1\n      dup2\n      add\n      0x40\n      mstore\n      dup1\n      swap3\n      swap2\n      swap1\n      dup2\n      dup2\n      mstore\n      0x20\n      add\n      dup3\n      dup1\n      sload\n      tag_73\n      swap1\n      tag_65\n      jump\t// in\n    tag_73:\n      dup1\n      iszero\n      tag_74\n      jumpi\n      dup1\n      0x1f\n      lt\n      tag_75\n      jumpi\n      0x0100\n      dup1\n      dup4\n      sload\n      div\n      mul\n      dup4\n      mstore\n      swap2\n      0x20\n      add\n      swap2\n      jump(tag_74)\n    tag_75:\n      dup3\n      add\n      swap2\n      swap1\n      0x00\n      mstore\n      keccak256(0x00, 0x20)\n      swap1\n    tag_76:\n      dup2\n      sload\n      dup2\n      mstore\n      swap1\n      0x01\n      add\n      swap1\n      0x20\n      add\n      dup1\n      dup4\n      gt\n      tag_76\n      jumpi\n      dup3\n      swap1\n      sub\n      0x1f\n      and\n      dup3\n      add\n      swap2\n    tag_74:\n      pop\n      pop\n      pop\n      pop\n      pop\n      dup2\n      jump\t// out\n        /* \"Voting.sol\":1306:1516  function registerVoter(address voter) public onlyOwner {... */\n    tag_33:\n        /* \"Voting.sol\":757:762  owner */\n      0x00\n      dup1\n      sload\n      swap1\n      0x0100\n      exp\n      swap1\n      div\n      0xffffffffffffffffffffffffffffffffffffffff\n      and\n        /* \"Voting.sol\":743:762  msg.sender == owner */\n      0xffffffffffffffffffffffffffffffffffffffff\n      and\n        /* \"Voting.sol\":743:753  msg.sender */\n      caller\n        /* \"Voting.sol\":743:762  msg.sender == owner */\n      0xffffffffffffffffffffffffffffffffffffffff\n      and\n      eq\n        /* \"Voting.sol\":735:801  require(msg.sender == owner, \"Only owner can perform this action\") */\n      tag_78\n      jumpi\n      mload(0x40)\n      0x08c379a000000000000000000000000000000000000000000000000000000000\n      dup2\n      mstore\n      0x04\n      add\n      tag_79\n      swap1\n      tag_80\n      jump\t// in\n    tag_79:\n      mload(0x40)\n      dup1\n      swap2\n      sub\n      swap1\n      revert\n    tag_78:\n        /* \"Voting.sol\":1380:1392  isRegistered */\n      0x04\n        /* \"Voting.sol\":1380:1399  isRegistered[voter] */\n      0x00\n        /* \"Voting.sol\":1393:1398  voter */\n      dup3\n        /* \"Voting.sol\":1380:1399  isRegistered[voter] */\n      0xffffffffffffffffffffffffffffffffffffffff\n      and\n      0xffffffffffffffffffffffffffffffffffffffff\n      and\n      dup2\n      mstore\n      0x20\n      add\n      swap1\n      dup2\n      mstore\n      0x20\n      add\n      0x00\n      keccak256\n      0x00\n      swap1\n      sload\n      swap1\n      0x0100\n      exp\n      swap1\n      div\n      0xff\n      and\n        /* \"Voting.sol\":1379:1399  !isRegistered[voter] */\n      iszero\n        /* \"Voting.sol\":1371:1428  require(!isRegistered[voter], \"Voter already registered\") */\n      tag_82\n      jumpi\n      mload(0x40)\n      0x08c379a000000000000000000000000000000000000000000000000000000000\n      dup2\n      mstore\n      0x04\n      add\n      tag_83\n      swap1\n      tag_84\n      jump\t// in\n    tag_83:\n      mload(0x40)\n      dup1\n      swap2\n      sub\n      swap1\n      revert\n    tag_82:\n        /* \"Voting.sol\":1460:1464  true */\n      0x01\n        /* \"Voting.sol\":1438:1450  isRegistered */\n      0x04\n        /* \"Voting.sol\":1438:1457  isRegistered[voter] */\n      0x00\n        /* \"Voting.sol\":1451:1456  voter */\n      dup4\n        /* \"Voting.sol\":1438:1457  isRegistered[voter] */\n      0xffffffffffffffffffffffffffffffffffffffff\n      and\n      0xffffffffffffffffffffffffffffffffffffffff\n      and\n      dup2\n      mstore\n      0x20\n      add\n      swap1\n      dup2\n      mstore\n      0x20\n      add\n      0x00\n      keccak256\n      0x00\n        /* \"Voting.sol\":1438:1464  isRegistered[voter] = true */\n      0x0100\n      exp\n      dup2\n      sload\n      dup2\n      0xff\n      mul\n      not\n      and\n      swap1\n      dup4\n      iszero\n      iszero\n      mul\n      or\n      swap1\n      sstore\n      pop\n        /* \"Voting.sol\":1479:1509  VoterManuallyRegistered(voter) */\n      0xadf807bc3dad4ebe1eb90450f8e9aea7a3d0777eefa7f4512cb6bb311bfcff25\n        /* \"Voting.sol\":1503:1508  voter */\n      dup2\n        /* \"Voting.sol\":1479:1509  VoterManuallyRegistered(voter) */\n      mload(0x40)\n      tag_85\n      swap2\n      swap1\n      tag_40\n      jump\t// in\n    tag_85:\n      mload(0x40)\n      dup1\n      swap2\n      sub\n      swap1\n      log1\n        /* \"Voting.sol\":1306:1516  function registerVoter(address voter) public onlyOwner {... */\n      pop\n      jump\t// out\n        /* \"Voting.sol\":187:215  bool public resultsPublished */\n    tag_35:\n      0x00\n      0x14\n      swap1\n      sload\n      swap1\n      0x0100\n      exp\n      swap1\n      div\n      0xff\n      and\n      dup2\n      jump\t// out\n        /* \"Voting.sol\":161:181  address public owner */\n    tag_38:\n      0x00\n      dup1\n      sload\n      swap1\n      0x0100\n      exp\n      swap1\n      div\n      0xffffffffffffffffffffffffffffffffffffffff\n      and\n      dup2\n      jump\t// out\n        /* \"Voting.sol\":2206:2473  function publishResults() public onlyOwner notPublished {... */\n    tag_42:\n        /* \"Voting.sol\":757:762  owner */\n      0x00\n      dup1\n      sload\n      swap1\n      0x0100\n      exp\n      swap1\n      div\n      0xffffffffffffffffffffffffffffffffffffffff\n      and\n        /* \"Voting.sol\":743:762  msg.sender == owner */\n      0xffffffffffffffffffffffffffffffffffffffff\n      and\n        /* \"Voting.sol\":743:753  msg.sender */\n      caller\n        /* \"Voting.sol\":743:762  msg.sender == owner */\n      0xffffffffffffffffffffffffffffffffffffffff\n      and\n      eq\n        /* \"Voting.sol\":735:801  require(msg.sender == owner, \"Only owner can perform this action\") */\n      tag_87\n      jumpi\n      mload(0x40)\n      0x08c379a000000000000000000000000000000000000000000000000000000000\n      dup2\n      mstore\n      0x04\n      add\n      tag_88\n      swap1\n      tag_80\n      jump\t// in\n    tag_88:\n      mload(0x40)\n      dup1\n      swap2\n      sub\n      swap1\n      revert\n    tag_87:\n        /* \"Voting.sol\":868:884  resultsPublished */\n      0x00\n      0x14\n      swap1\n      sload\n      swap1\n      0x0100\n      exp\n      swap1\n      div\n      0xff\n      and\n        /* \"Voting.sol\":867:884  !resultsPublished */\n      iszero\n        /* \"Voting.sol\":859:924  require(!resultsPublished, \"Results have already been published\") */\n      tag_90\n      jumpi\n      mload(0x40)\n      0x08c379a000000000000000000000000000000000000000000000000000000000\n      dup2\n      mstore\n      0x04\n      add\n      tag_91\n      swap1\n      tag_92\n      jump\t// in\n    tag_91:\n      mload(0x40)\n      dup1\n      swap2\n      sub\n      swap1\n      revert\n    tag_90:\n        /* \"Voting.sol\":2291:2295  true */\n      0x01\n        /* \"Voting.sol\":2272:2288  resultsPublished */\n      0x00\n      0x14\n        /* \"Voting.sol\":2272:2295  resultsPublished = true */\n      0x0100\n      exp\n      dup2\n      sload\n      dup2\n      0xff\n      mul\n      not\n      and\n      swap1\n      dup4\n      iszero\n      iszero\n      mul\n      or\n      swap1\n      sstore\n      pop\n        /* \"Voting.sol\":2310:2328  ResultsPublished() */\n      0x10689ac5c5ddc265da7f6b71f74017330ba8f045032a672f7350ee2aaf793a2c\n      mload(0x40)\n      mload(0x40)\n      dup1\n      swap2\n      sub\n      swap1\n      log1\n        /* \"Voting.sol\":2344:2350  uint i */\n      0x00\n        /* \"Voting.sol\":2339:2467  for (uint i = 0; i < candidates.length; i++) {... */\n    tag_94:\n        /* \"Voting.sol\":2360:2370  candidates */\n      0x02\n        /* \"Voting.sol\":2360:2377  candidates.length */\n      dup1\n      sload\n      swap1\n      pop\n        /* \"Voting.sol\":2356:2357  i */\n      dup2\n        /* \"Voting.sol\":2356:2377  i < candidates.length */\n      lt\n        /* \"Voting.sol\":2339:2467  for (uint i = 0; i < candidates.length; i++) {... */\n      iszero\n      tag_95\n      jumpi\n        /* \"Voting.sol\":2403:2456  VotesTallied(candidates[i], voteCount[candidates[i]]) */\n      0x168d2a217e98d970b409a767f7bf42fb63f9354fb556cfd1fc8ed499d68bb709\n        /* \"Voting.sol\":2416:2426  candidates */\n      0x02\n        /* \"Voting.sol\":2427:2428  i */\n      dup3\n        /* \"Voting.sol\":2416:2429  candidates[i] */\n      dup2\n      sload\n      dup2\n      lt\n      tag_97\n      jumpi\n      tag_98\n      tag_99\n      jump\t// in\n    tag_98:\n    tag_97:\n      swap1\n      0x00\n      mstore\n      keccak256(0x00, 0x20)\n      add\n        /* \"Voting.sol\":2431:2440  voteCount */\n      0x01\n        /* \"Voting.sol\":2441:2451  candidates */\n      0x02\n        /* \"Voting.sol\":2452:2453  i */\n      dup5\n        /* \"Voting.sol\":2441:2454  candidates[i] */\n      dup2\n      sload\n      dup2\n      lt\n      tag_101\n      jumpi\n      tag_102\n      tag_99\n      jump\t// in\n    tag_102:\n    tag_101:\n      swap1\n      0x00\n      mstore\n      keccak256(0x00, 0x20)\n      add\n        /* \"Voting.sol\":2431:2455  voteCount[candidates[i]] */\n      mload(0x40)\n      tag_104\n      swap2\n      swap1\n      tag_105\n      jump\t// in\n    tag_104:\n      swap1\n      dup2\n      mstore\n      0x20\n      add\n      mload(0x40)\n      dup1\n      swap2\n      sub\n      swap1\n      keccak256\n      sload\n        /* \"Voting.sol\":2403:2456  VotesTallied(candidates[i], voteCount[candidates[i]]) */\n      mload(0x40)\n      tag_106\n      swap3\n      swap2\n      swap1\n      tag_107\n      jump\t// in\n    tag_106:\n      mload(0x40)\n      dup1\n      swap2\n      sub\n      swap1\n      log1\n        /* \"Voting.sol\":2379:2382  i++ */\n      dup1\n      dup1\n      0x01\n      add\n      swap2\n      pop\n      pop\n        /* \"Voting.sol\":2339:2467  for (uint i = 0; i < candidates.length; i++) {... */\n      jump(tag_94)\n    tag_95:\n      pop\n        /* \"Voting.sol\":2206:2473  function publishResults() public onlyOwner notPublished {... */\n      jump\t// out\n        /* \"Voting.sol\":258:301  mapping(string => uint256) public voteCount */\n    tag_46:\n      0x01\n      dup2\n      dup1\n      mload\n      0x20\n      dup2\n      add\n      dup3\n      add\n      dup1\n      mload\n      dup5\n      dup3\n      mstore\n      0x20\n      dup4\n      add\n      0x20\n      dup6\n      add\n      keccak256\n      dup2\n      dup4\n      mstore\n      dup1\n      swap6\n      pop\n      pop\n      pop\n      pop\n      pop\n      pop\n      0x00\n      swap2\n      pop\n      swap1\n      pop\n      sload\n      dup2\n      jump\t// out\n        /* \"Voting.sol\":421:465  mapping(address => bool) public isRegistered */\n    tag_51:\n      mstore(0x20, 0x04)\n      dup1\n      0x00\n      mstore\n      keccak256(0x00, 0x40)\n      0x00\n      swap2\n      pop\n      sload\n      swap1\n      0x0100\n      exp\n      swap1\n      div\n      0xff\n      and\n      dup2\n      jump\t// out\n        /* \"Voting.sol\":2479:2605  function getCandidateVotes(string memory candidate) public view returns (uint256) {... */\n    tag_55:\n        /* \"Voting.sol\":2552:2559  uint256 */\n      0x00\n        /* \"Voting.sol\":2578:2587  voteCount */\n      0x01\n        /* \"Voting.sol\":2588:2597  candidate */\n      dup3\n        /* \"Voting.sol\":2578:2598  voteCount[candidate] */\n      mload(0x40)\n      tag_109\n      swap2\n      swap1\n      tag_110\n      jump\t// in\n    tag_109:\n      swap1\n      dup2\n      mstore\n      0x20\n      add\n      mload(0x40)\n      dup1\n      swap2\n      sub\n      swap1\n      keccak256\n      sload\n        /* \"Voting.sol\":2571:2598  return voteCount[candidate] */\n      swap1\n      pop\n        /* \"Voting.sol\":2479:2605  function getCandidateVotes(string memory candidate) public view returns (uint256) {... */\n      swap2\n      swap1\n      pop\n      jump\t// out\n        /* \"Voting.sol\":1588:2162  function vote(string memory candidate) public onlyRegistered notPublished {... */\n    tag_59:\n        /* \"Voting.sol\":992:1004  isRegistered */\n      0x04\n        /* \"Voting.sol\":992:1016  isRegistered[msg.sender] */\n      0x00\n        /* \"Voting.sol\":1005:1015  msg.sender */\n      caller\n        /* \"Voting.sol\":992:1016  isRegistered[msg.sender] */\n      0xffffffffffffffffffffffffffffffffffffffff\n      and\n      0xffffffffffffffffffffffffffffffffffffffff\n      and\n      dup2\n      mstore\n      0x20\n      add\n      swap1\n      dup2\n      mstore\n      0x20\n      add\n      0x00\n      keccak256\n      0x00\n      swap1\n      sload\n      swap1\n      0x0100\n      exp\n      swap1\n      div\n      0xff\n      and\n        /* \"Voting.sol\":984:1043  require(isRegistered[msg.sender], \"Not a registered voter\") */\n      tag_112\n      jumpi\n      mload(0x40)\n      0x08c379a000000000000000000000000000000000000000000000000000000000\n      dup2\n      mstore\n      0x04\n      add\n      tag_113\n      swap1\n      tag_114\n      jump\t// in\n    tag_113:\n      mload(0x40)\n      dup1\n      swap2\n      sub\n      swap1\n      revert\n    tag_112:\n        /* \"Voting.sol\":868:884  resultsPublished */\n      0x00\n      0x14\n      swap1\n      sload\n      swap1\n      0x0100\n      exp\n      swap1\n      div\n      0xff\n      and\n        /* \"Voting.sol\":867:884  !resultsPublished */\n      iszero\n        /* \"Voting.sol\":859:924  require(!resultsPublished, \"Results have already been published\") */\n      tag_116\n      jumpi\n      mload(0x40)\n      0x08c379a000000000000000000000000000000000000000000000000000000000\n      dup2\n      mstore\n      0x04\n      add\n      tag_117\n      swap1\n      tag_92\n      jump\t// in\n    tag_117:\n      mload(0x40)\n      dup1\n      swap2\n      sub\n      swap1\n      revert\n    tag_116:\n        /* \"Voting.sol\":1681:1689  hasVoted */\n      0x03\n        /* \"Voting.sol\":1681:1701  hasVoted[msg.sender] */\n      0x00\n        /* \"Voting.sol\":1690:1700  msg.sender */\n      caller\n        /* \"Voting.sol\":1681:1701  hasVoted[msg.sender] */\n      0xffffffffffffffffffffffffffffffffffffffff\n      and\n      0xffffffffffffffffffffffffffffffffffffffff\n      and\n      dup2\n      mstore\n      0x20\n      add\n      swap1\n      dup2\n      mstore\n      0x20\n      add\n      0x00\n      keccak256\n      0x00\n      swap1\n      sload\n      swap1\n      0x0100\n      exp\n      swap1\n      div\n      0xff\n      and\n        /* \"Voting.sol\":1680:1701  !hasVoted[msg.sender] */\n      iszero\n        /* \"Voting.sol\":1672:1719  require(!hasVoted[msg.sender], \"Already voted\") */\n      tag_119\n      jumpi\n      mload(0x40)\n      0x08c379a000000000000000000000000000000000000000000000000000000000\n      dup2\n      mstore\n      0x04\n      add\n      tag_120\n      swap1\n      tag_121\n      jump\t// in\n    tag_120:\n      mload(0x40)\n      dup1\n      swap2\n      sub\n      swap1\n      revert\n    tag_119:\n        /* \"Voting.sol\":1730:1749  bool validCandidate */\n      0x00\n        /* \"Voting.sol\":1772:1778  uint i */\n      dup1\n        /* \"Voting.sol\":1767:1981  for (uint i = 0; i < candidates.length; i++) {... */\n    tag_122:\n        /* \"Voting.sol\":1788:1798  candidates */\n      0x02\n        /* \"Voting.sol\":1788:1805  candidates.length */\n      dup1\n      sload\n      swap1\n      pop\n        /* \"Voting.sol\":1784:1785  i */\n      dup2\n        /* \"Voting.sol\":1784:1805  i < candidates.length */\n      lt\n        /* \"Voting.sol\":1767:1981  for (uint i = 0; i < candidates.length; i++) {... */\n      iszero\n      tag_123\n      jumpi\n        /* \"Voting.sol\":1881:1890  candidate */\n      dup3\n        /* \"Voting.sol\":1865:1892  keccak256(bytes(candidate)) */\n      dup1\n      mload\n      swap1\n      0x20\n      add\n      keccak256\n        /* \"Voting.sol\":1846:1856  candidates */\n      0x02\n        /* \"Voting.sol\":1857:1858  i */\n      dup3\n        /* \"Voting.sol\":1846:1859  candidates[i] */\n      dup2\n      sload\n      dup2\n      lt\n      tag_125\n      jumpi\n      tag_126\n      tag_99\n      jump\t// in\n    tag_126:\n    tag_125:\n      swap1\n      0x00\n      mstore\n      keccak256(0x00, 0x20)\n      add\n        /* \"Voting.sol\":1830:1861  keccak256(bytes(candidates[i])) */\n      mload(0x40)\n      tag_128\n      swap2\n      swap1\n      tag_129\n      jump\t// in\n    tag_128:\n      mload(0x40)\n      dup1\n      swap2\n      sub\n      swap1\n      keccak256\n        /* \"Voting.sol\":1830:1892  keccak256(bytes(candidates[i])) == keccak256(bytes(candidate)) */\n      sub\n        /* \"Voting.sol\":1826:1971  if (keccak256(bytes(candidates[i])) == keccak256(bytes(candidate))) {... */\n      tag_130\n      jumpi\n        /* \"Voting.sol\":1929:1933  true */\n      0x01\n        /* \"Voting.sol\":1912:1933  validCandidate = true */\n      swap2\n      pop\n        /* \"Voting.sol\":1951:1956  break */\n      jump(tag_123)\n        /* \"Voting.sol\":1826:1971  if (keccak256(bytes(candidates[i])) == keccak256(bytes(candidate))) {... */\n    tag_130:\n        /* \"Voting.sol\":1807:1810  i++ */\n      dup1\n      dup1\n      0x01\n      add\n      swap2\n      pop\n      pop\n        /* \"Voting.sol\":1767:1981  for (uint i = 0; i < candidates.length; i++) {... */\n      jump(tag_122)\n    tag_123:\n      pop\n        /* \"Voting.sol\":1998:2012  validCandidate */\n      dup1\n        /* \"Voting.sol\":1990:2036  require(validCandidate, \"Candidate not found\") */\n      tag_131\n      jumpi\n      mload(0x40)\n      0x08c379a000000000000000000000000000000000000000000000000000000000\n      dup2\n      mstore\n      0x04\n      add\n      tag_132\n      swap1\n      tag_133\n      jump\t// in\n    tag_132:\n      mload(0x40)\n      dup1\n      swap2\n      sub\n      swap1\n      revert\n    tag_131:\n        /* \"Voting.sol\":2047:2056  voteCount */\n      0x01\n        /* \"Voting.sol\":2057:2066  candidate */\n      dup3\n        /* \"Voting.sol\":2047:2067  voteCount[candidate] */\n      mload(0x40)\n      tag_134\n      swap2\n      swap1\n      tag_110\n      jump\t// in\n    tag_134:\n      swap1\n      dup2\n      mstore\n      0x20\n      add\n      mload(0x40)\n      dup1\n      swap2\n      sub\n      swap1\n      keccak256\n      0x00\n        /* \"Voting.sol\":2047:2069  voteCount[candidate]++ */\n      dup2\n      sload\n      dup1\n      swap3\n      swap2\n      swap1\n      tag_135\n      swap1\n      tag_136\n      jump\t// in\n    tag_135:\n      swap2\n      swap1\n      pop\n      sstore\n      pop\n        /* \"Voting.sol\":2102:2106  true */\n      0x01\n        /* \"Voting.sol\":2079:2087  hasVoted */\n      0x03\n        /* \"Voting.sol\":2079:2099  hasVoted[msg.sender] */\n      0x00\n        /* \"Voting.sol\":2088:2098  msg.sender */\n      caller\n        /* \"Voting.sol\":2079:2099  hasVoted[msg.sender] */\n      0xffffffffffffffffffffffffffffffffffffffff\n      and\n      0xffffffffffffffffffffffffffffffffffffffff\n      and\n      dup2\n      mstore\n      0x20\n      add\n      swap1\n      dup2\n      mstore\n      0x20\n      add\n      0x00\n      keccak256\n      0x00\n        /* \"Voting.sol\":2079:2106  hasVoted[msg.sender] = true */\n      0x0100\n      exp\n      dup2\n      sload\n      dup2\n      0xff\n      mul\n      not\n      and\n      swap1\n      dup4\n      iszero\n      iszero\n      mul\n      or\n      swap1\n      sstore\n      pop\n        /* \"Voting.sol\":2133:2143  msg.sender */\n      caller\n        /* \"Voting.sol\":2122:2155  VoteCasted(msg.sender, candidate) */\n      0xffffffffffffffffffffffffffffffffffffffff\n      and\n      0xb7821d50dfbda5ea310faebbeac5217bc1bb0cabe463e76b80e48d11e57df098\n        /* \"Voting.sol\":2145:2154  candidate */\n      dup4\n        /* \"Voting.sol\":2122:2155  VoteCasted(msg.sender, candidate) */\n      mload(0x40)\n      tag_137\n      swap2\n      swap1\n      tag_30\n      jump\t// in\n    tag_137:\n      mload(0x40)\n      dup1\n      swap2\n      sub\n      swap1\n      log2\n        /* \"Voting.sol\":1662:2162  {... */\n      pop\n        /* \"Voting.sol\":1588:2162  function vote(string memory candidate) public onlyRegistered notPublished {... */\n      pop\n      jump\t// out\n        /* \"#utility.yul\":7:82   */\n    tag_138:\n        /* \"#utility.yul\":40:46   */\n      0x00\n        /* \"#utility.yul\":73:75   */\n      0x40\n        /* \"#utility.yul\":67:76   */\n      mload\n        /* \"#utility.yul\":57:76   */\n      swap1\n      pop\n        /* \"#utility.yul\":7:82   */\n      swap1\n      jump\t// out\n        /* \"#utility.yul\":88:205   */\n    tag_139:\n        /* \"#utility.yul\":197:198   */\n      0x00\n        /* \"#utility.yul\":194:195   */\n      dup1\n        /* \"#utility.yul\":187:199   */\n      revert\n        /* \"#utility.yul\":211:328   */\n    tag_140:\n        /* \"#utility.yul\":320:321   */\n      0x00\n        /* \"#utility.yul\":317:318   */\n      dup1\n        /* \"#utility.yul\":310:322   */\n      revert\n        /* \"#utility.yul\":334:460   */\n    tag_141:\n        /* \"#utility.yul\":371:378   */\n      0x00\n        /* \"#utility.yul\":411:453   */\n      0xffffffffffffffffffffffffffffffffffffffff\n        /* \"#utility.yul\":404:409   */\n      dup3\n        /* \"#utility.yul\":400:454   */\n      and\n        /* \"#utility.yul\":389:454   */\n      swap1\n      pop\n        /* \"#utility.yul\":334:460   */\n      swap2\n      swap1\n      pop\n      jump\t// out\n        /* \"#utility.yul\":466:562   */\n    tag_142:\n        /* \"#utility.yul\":503:510   */\n      0x00\n        /* \"#utility.yul\":532:556   */\n      tag_202\n        /* \"#utility.yul\":550:555   */\n      dup3\n        /* \"#utility.yul\":532:556   */\n      tag_141\n      jump\t// in\n    tag_202:\n        /* \"#utility.yul\":521:556   */\n      swap1\n      pop\n        /* \"#utility.yul\":466:562   */\n      swap2\n      swap1\n      pop\n      jump\t// out\n        /* \"#utility.yul\":568:690   */\n    tag_143:\n        /* \"#utility.yul\":641:665   */\n      tag_204\n        /* \"#utility.yul\":659:664   */\n      dup2\n        /* \"#utility.yul\":641:665   */\n      tag_142\n      jump\t// in\n    tag_204:\n        /* \"#utility.yul\":634:639   */\n      dup2\n        /* \"#utility.yul\":631:666   */\n      eq\n        /* \"#utility.yul\":621:684   */\n      tag_205\n      jumpi\n        /* \"#utility.yul\":680:681   */\n      0x00\n        /* \"#utility.yul\":677:678   */\n      dup1\n        /* \"#utility.yul\":670:682   */\n      revert\n        /* \"#utility.yul\":621:684   */\n    tag_205:\n        /* \"#utility.yul\":568:690   */\n      pop\n      jump\t// out\n        /* \"#utility.yul\":696:835   */\n    tag_144:\n        /* \"#utility.yul\":742:747   */\n      0x00\n        /* \"#utility.yul\":780:786   */\n      dup2\n        /* \"#utility.yul\":767:787   */\n      calldataload\n        /* \"#utility.yul\":758:787   */\n      swap1\n      pop\n        /* \"#utility.yul\":796:829   */\n      tag_207\n        /* \"#utility.yul\":823:828   */\n      dup2\n        /* \"#utility.yul\":796:829   */\n      tag_143\n      jump\t// in\n    tag_207:\n        /* \"#utility.yul\":696:835   */\n      swap3\n      swap2\n      pop\n      pop\n      jump\t// out\n        /* \"#utility.yul\":841:1170   */\n    tag_17:\n        /* \"#utility.yul\":900:906   */\n      0x00\n        /* \"#utility.yul\":949:951   */\n      0x20\n        /* \"#utility.yul\":937:946   */\n      dup3\n        /* \"#utility.yul\":928:935   */\n      dup5\n        /* \"#utility.yul\":924:947   */\n      sub\n        /* \"#utility.yul\":920:952   */\n      slt\n        /* \"#utility.yul\":917:1036   */\n      iszero\n      tag_209\n      jumpi\n        /* \"#utility.yul\":955:1034   */\n      tag_210\n      tag_139\n      jump\t// in\n    tag_210:\n        /* \"#utility.yul\":917:1036   */\n    tag_209:\n        /* \"#utility.yul\":1075:1076   */\n      0x00\n        /* \"#utility.yul\":1100:1153   */\n      tag_211\n        /* \"#utility.yul\":1145:1152   */\n      dup5\n        /* \"#utility.yul\":1136:1142   */\n      dup3\n        /* \"#utility.yul\":1125:1134   */\n      dup6\n        /* \"#utility.yul\":1121:1143   */\n      add\n        /* \"#utility.yul\":1100:1153   */\n      tag_144\n      jump\t// in\n    tag_211:\n        /* \"#utility.yul\":1090:1153   */\n      swap2\n      pop\n        /* \"#utility.yul\":1046:1163   */\n      pop\n        /* \"#utility.yul\":841:1170   */\n      swap3\n      swap2\n      pop\n      pop\n      jump\t// out\n        /* \"#utility.yul\":1176:1266   */\n    tag_145:\n        /* \"#utility.yul\":1210:1217   */\n      0x00\n        /* \"#utility.yul\":1253:1258   */\n      dup2\n        /* \"#utility.yul\":1246:1259   */\n      iszero\n        /* \"#utility.yul\":1239:1260   */\n      iszero\n        /* \"#utility.yul\":1228:1260   */\n      swap1\n      pop\n        /* \"#utility.yul\":1176:1266   */\n      swap2\n      swap1\n      pop\n      jump\t// out\n        /* \"#utility.yul\":1272:1381   */\n    tag_146:\n        /* \"#utility.yul\":1353:1374   */\n      tag_214\n        /* \"#utility.yul\":1368:1373   */\n      dup2\n        /* \"#utility.yul\":1353:1374   */\n      tag_145\n      jump\t// in\n    tag_214:\n        /* \"#utility.yul\":1348:1351   */\n      dup3\n        /* \"#utility.yul\":1341:1375   */\n      mstore\n        /* \"#utility.yul\":1272:1381   */\n      pop\n      pop\n      jump\t// out\n        /* \"#utility.yul\":1387:1597   */\n    tag_20:\n        /* \"#utility.yul\":1474:1478   */\n      0x00\n        /* \"#utility.yul\":1512:1514   */\n      0x20\n        /* \"#utility.yul\":1501:1510   */\n      dup3\n        /* \"#utility.yul\":1497:1515   */\n      add\n        /* \"#utility.yul\":1489:1515   */\n      swap1\n      pop\n        /* \"#utility.yul\":1525:1590   */\n      tag_216\n        /* \"#utility.yul\":1587:1588   */\n      0x00\n        /* \"#utility.yul\":1576:1585   */\n      dup4\n        /* \"#utility.yul\":1572:1589   */\n      add\n        /* \"#utility.yul\":1563:1569   */\n      dup5\n        /* \"#utility.yul\":1525:1590   */\n      tag_146\n      jump\t// in\n    tag_216:\n        /* \"#utility.yul\":1387:1597   */\n      swap3\n      swap2\n      pop\n      pop\n      jump\t// out\n        /* \"#utility.yul\":1603:1727   */\n    tag_147:\n        /* \"#utility.yul\":1680:1686   */\n      0x00\n        /* \"#utility.yul\":1714:1719   */\n      dup2\n        /* \"#utility.yul\":1708:1720   */\n      mload\n        /* \"#utility.yul\":1698:1720   */\n      swap1\n      pop\n        /* \"#utility.yul\":1603:1727   */\n      swap2\n      swap1\n      pop\n      jump\t// out\n        /* \"#utility.yul\":1733:1927   */\n    tag_148:\n        /* \"#utility.yul\":1842:1853   */\n      0x00\n        /* \"#utility.yul\":1876:1882   */\n      dup3\n        /* \"#utility.yul\":1871:1874   */\n      dup3\n        /* \"#utility.yul\":1864:1883   */\n      mstore\n        /* \"#utility.yul\":1916:1920   */\n      0x20\n        /* \"#utility.yul\":1911:1914   */\n      dup3\n        /* \"#utility.yul\":1907:1921   */\n      add\n        /* \"#utility.yul\":1892:1921   */\n      swap1\n      pop\n        /* \"#utility.yul\":1733:1927   */\n      swap3\n      swap2\n      pop\n      pop\n      jump\t// out\n        /* \"#utility.yul\":1933:2075   */\n    tag_149:\n        /* \"#utility.yul\":2010:2014   */\n      0x00\n        /* \"#utility.yul\":2033:2036   */\n      dup2\n        /* \"#utility.yul\":2025:2036   */\n      swap1\n      pop\n        /* \"#utility.yul\":2063:2067   */\n      0x20\n        /* \"#utility.yul\":2058:2061   */\n      dup3\n        /* \"#utility.yul\":2054:2068   */\n      add\n        /* \"#utility.yul\":2046:2068   */\n      swap1\n      pop\n        /* \"#utility.yul\":1933:2075   */\n      swap2\n      swap1\n      pop\n      jump\t// out\n        /* \"#utility.yul\":2081:2180   */\n    tag_150:\n        /* \"#utility.yul\":2133:2139   */\n      0x00\n        /* \"#utility.yul\":2167:2172   */\n      dup2\n        /* \"#utility.yul\":2161:2173   */\n      mload\n        /* \"#utility.yul\":2151:2173   */\n      swap1\n      pop\n        /* \"#utility.yul\":2081:2180   */\n      swap2\n      swap1\n      pop\n      jump\t// out\n        /* \"#utility.yul\":2186:2345   */\n    tag_151:\n        /* \"#utility.yul\":2260:2271   */\n      0x00\n        /* \"#utility.yul\":2294:2300   */\n      dup3\n        /* \"#utility.yul\":2289:2292   */\n      dup3\n        /* \"#utility.yul\":2282:2301   */\n      mstore\n        /* \"#utility.yul\":2334:2338   */\n      0x20\n        /* \"#utility.yul\":2329:2332   */\n      dup3\n        /* \"#utility.yul\":2325:2339   */\n      add\n        /* \"#utility.yul\":2310:2339   */\n      swap1\n      pop\n        /* \"#utility.yul\":2186:2345   */\n      swap3\n      swap2\n      pop\n      pop\n      jump\t// out\n        /* \"#utility.yul\":2351:2490   */\n    tag_152:\n        /* \"#utility.yul\":2440:2446   */\n      dup3\n        /* \"#utility.yul\":2435:2438   */\n      dup2\n        /* \"#utility.yul\":2430:2433   */\n      dup4\n        /* \"#utility.yul\":2424:2447   */\n      mcopy\n        /* \"#utility.yul\":2481:2482   */\n      0x00\n        /* \"#utility.yul\":2472:2478   */\n      dup4\n        /* \"#utility.yul\":2467:2470   */\n      dup4\n        /* \"#utility.yul\":2463:2479   */\n      add\n        /* \"#utility.yul\":2456:2483   */\n      mstore\n        /* \"#utility.yul\":2351:2490   */\n      pop\n      pop\n      pop\n      jump\t// out\n        /* \"#utility.yul\":2496:2598   */\n    tag_153:\n        /* \"#utility.yul\":2537:2543   */\n      0x00\n        /* \"#utility.yul\":2588:2590   */\n      0x1f\n        /* \"#utility.yul\":2584:2591   */\n      not\n        /* \"#utility.yul\":2579:2581   */\n      0x1f\n        /* \"#utility.yul\":2572:2577   */\n      dup4\n        /* \"#utility.yul\":2568:2582   */\n      add\n        /* \"#utility.yul\":2564:2592   */\n      and\n        /* \"#utility.yul\":2554:2592   */\n      swap1\n      pop\n        /* \"#utility.yul\":2496:2598   */\n      swap2\n      swap1\n      pop\n      jump\t// out\n        /* \"#utility.yul\":2604:2961   */\n    tag_154:\n        /* \"#utility.yul\":2682:2685   */\n      0x00\n        /* \"#utility.yul\":2710:2749   */\n      tag_225\n        /* \"#utility.yul\":2743:2748   */\n      dup3\n        /* \"#utility.yul\":2710:2749   */\n      tag_150\n      jump\t// in\n    tag_225:\n        /* \"#utility.yul\":2765:2826   */\n      tag_226\n        /* \"#utility.yul\":2819:2825   */\n      dup2\n        /* \"#utility.yul\":2814:2817   */\n      dup6\n        /* \"#utility.yul\":2765:2826   */\n      tag_151\n      jump\t// in\n    tag_226:\n        /* \"#utility.yul\":2758:2826   */\n      swap4\n      pop\n        /* \"#utility.yul\":2835:2900   */\n      tag_227\n        /* \"#utility.yul\":2893:2899   */\n      dup2\n        /* \"#utility.yul\":2888:2891   */\n      dup6\n        /* \"#utility.yul\":2881:2885   */\n      0x20\n        /* \"#utility.yul\":2874:2879   */\n      dup7\n        /* \"#utility.yul\":2870:2886   */\n      add\n        /* \"#utility.yul\":2835:2900   */\n      tag_152\n      jump\t// in\n    tag_227:\n        /* \"#utility.yul\":2925:2954   */\n      tag_228\n        /* \"#utility.yul\":2947:2953   */\n      dup2\n        /* \"#utility.yul\":2925:2954   */\n      tag_153\n      jump\t// in\n    tag_228:\n        /* \"#utility.yul\":2920:2923   */\n      dup5\n        /* \"#utility.yul\":2916:2955   */\n      add\n        /* \"#utility.yul\":2909:2955   */\n      swap2\n      pop\n        /* \"#utility.yul\":2686:2961   */\n      pop\n        /* \"#utility.yul\":2604:2961   */\n      swap3\n      swap2\n      pop\n      pop\n      jump\t// out\n        /* \"#utility.yul\":2967:3163   */\n    tag_155:\n        /* \"#utility.yul\":3056:3066   */\n      0x00\n        /* \"#utility.yul\":3091:3157   */\n      tag_230\n        /* \"#utility.yul\":3153:3156   */\n      dup4\n        /* \"#utility.yul\":3145:3151   */\n      dup4\n        /* \"#utility.yul\":3091:3157   */\n      tag_154\n      jump\t// in\n    tag_230:\n        /* \"#utility.yul\":3077:3157   */\n      swap1\n      pop\n        /* \"#utility.yul\":2967:3163   */\n      swap3\n      swap2\n      pop\n      pop\n      jump\t// out\n        /* \"#utility.yul\":3169:3292   */\n    tag_156:\n        /* \"#utility.yul\":3249:3253   */\n      0x00\n        /* \"#utility.yul\":3281:3285   */\n      0x20\n        /* \"#utility.yul\":3276:3279   */\n      dup3\n        /* \"#utility.yul\":3272:3286   */\n      add\n        /* \"#utility.yul\":3264:3286   */\n      swap1\n      pop\n        /* \"#utility.yul\":3169:3292   */\n      swap2\n      swap1\n      pop\n      jump\t// out\n        /* \"#utility.yul\":3326:4317   */\n    tag_157:\n        /* \"#utility.yul\":3465:3468   */\n      0x00\n        /* \"#utility.yul\":3494:3558   */\n      tag_233\n        /* \"#utility.yul\":3552:3557   */\n      dup3\n        /* \"#utility.yul\":3494:3558   */\n      tag_147\n      jump\t// in\n    tag_233:\n        /* \"#utility.yul\":3574:3670   */\n      tag_234\n        /* \"#utility.yul\":3663:3669   */\n      dup2\n        /* \"#utility.yul\":3658:3661   */\n      dup6\n        /* \"#utility.yul\":3574:3670   */\n      tag_148\n      jump\t// in\n    tag_234:\n        /* \"#utility.yul\":3567:3670   */\n      swap4\n      pop\n        /* \"#utility.yul\":3696:3699   */\n      dup4\n        /* \"#utility.yul\":3741:3745   */\n      0x20\n        /* \"#utility.yul\":3733:3739   */\n      dup3\n        /* \"#utility.yul\":3729:3746   */\n      mul\n        /* \"#utility.yul\":3724:3727   */\n      dup6\n        /* \"#utility.yul\":3720:3747   */\n      add\n        /* \"#utility.yul\":3771:3837   */\n      tag_235\n        /* \"#utility.yul\":3831:3836   */\n      dup6\n        /* \"#utility.yul\":3771:3837   */\n      tag_149\n      jump\t// in\n    tag_235:\n        /* \"#utility.yul\":3860:3867   */\n      dup1\n        /* \"#utility.yul\":3891:3892   */\n      0x00\n        /* \"#utility.yul\":3876:4272   */\n    tag_236:\n        /* \"#utility.yul\":3901:3907   */\n      dup6\n        /* \"#utility.yul\":3898:3899   */\n      dup2\n        /* \"#utility.yul\":3895:3908   */\n      lt\n        /* \"#utility.yul\":3876:4272   */\n      iszero\n      tag_238\n      jumpi\n        /* \"#utility.yul\":3972:3981   */\n      dup5\n        /* \"#utility.yul\":3966:3970   */\n      dup5\n        /* \"#utility.yul\":3962:3982   */\n      sub\n        /* \"#utility.yul\":3957:3960   */\n      dup10\n        /* \"#utility.yul\":3950:3983   */\n      mstore\n        /* \"#utility.yul\":4023:4029   */\n      dup2\n        /* \"#utility.yul\":4017:4030   */\n      mload\n        /* \"#utility.yul\":4051:4135   */\n      tag_239\n        /* \"#utility.yul\":4130:4134   */\n      dup6\n        /* \"#utility.yul\":4115:4128   */\n      dup3\n        /* \"#utility.yul\":4051:4135   */\n      tag_155\n      jump\t// in\n    tag_239:\n        /* \"#utility.yul\":4043:4135   */\n      swap5\n      pop\n        /* \"#utility.yul\":4158:4228   */\n      tag_240\n        /* \"#utility.yul\":4221:4227   */\n      dup4\n        /* \"#utility.yul\":4158:4228   */\n      tag_156\n      jump\t// in\n    tag_240:\n        /* \"#utility.yul\":4148:4228   */\n      swap3\n      pop\n        /* \"#utility.yul\":4257:4261   */\n      0x20\n        /* \"#utility.yul\":4252:4255   */\n      dup11\n        /* \"#utility.yul\":4248:4262   */\n      add\n        /* \"#utility.yul\":4241:4262   */\n      swap10\n      pop\n        /* \"#utility.yul\":3936:4272   */\n      pop\n        /* \"#utility.yul\":3923:3924   */\n      0x01\n        /* \"#utility.yul\":3920:3921   */\n      dup2\n        /* \"#utility.yul\":3916:3925   */\n      add\n        /* \"#utility.yul\":3911:3925   */\n      swap1\n      pop\n        /* \"#utility.yul\":3876:4272   */\n      jump(tag_236)\n    tag_238:\n        /* \"#utility.yul\":3880:3894   */\n      pop\n        /* \"#utility.yul\":4288:4292   */\n      dup3\n        /* \"#utility.yul\":4281:4292   */\n      swap8\n      pop\n        /* \"#utility.yul\":4308:4311   */\n      dup8\n        /* \"#utility.yul\":4301:4311   */\n      swap6\n      pop\n        /* \"#utility.yul\":3470:4317   */\n      pop\n      pop\n      pop\n      pop\n      pop\n        /* \"#utility.yul\":3326:4317   */\n      swap3\n      swap2\n      pop\n      pop\n      jump\t// out\n        /* \"#utility.yul\":4323:4736   */\n    tag_24:\n        /* \"#utility.yul\":4486:4490   */\n      0x00\n        /* \"#utility.yul\":4524:4526   */\n      0x20\n        /* \"#utility.yul\":4513:4522   */\n      dup3\n        /* \"#utility.yul\":4509:4527   */\n      add\n        /* \"#utility.yul\":4501:4527   */\n      swap1\n      pop\n        /* \"#utility.yul\":4573:4582   */\n      dup2\n        /* \"#utility.yul\":4567:4571   */\n      dup2\n        /* \"#utility.yul\":4563:4583   */\n      sub\n        /* \"#utility.yul\":4559:4560   */\n      0x00\n        /* \"#utility.yul\":4548:4557   */\n      dup4\n        /* \"#utility.yul\":4544:4561   */\n      add\n        /* \"#utility.yul\":4537:4584   */\n      mstore\n        /* \"#utility.yul\":4601:4729   */\n      tag_242\n        /* \"#utility.yul\":4724:4728   */\n      dup2\n        /* \"#utility.yul\":4715:4721   */\n      dup5\n        /* \"#utility.yul\":4601:4729   */\n      tag_157\n      jump\t// in\n    tag_242:\n        /* \"#utility.yul\":4593:4729   */\n      swap1\n      pop\n        /* \"#utility.yul\":4323:4736   */\n      swap3\n      swap2\n      pop\n      pop\n      jump\t// out\n        /* \"#utility.yul\":4742:4819   */\n    tag_158:\n        /* \"#utility.yul\":4779:4786   */\n      0x00\n        /* \"#utility.yul\":4808:4813   */\n      dup2\n        /* \"#utility.yul\":4797:4813   */\n      swap1\n      pop\n        /* \"#utility.yul\":4742:4819   */\n      swap2\n      swap1\n      pop\n      jump\t// out\n        /* \"#utility.yul\":4825:4947   */\n    tag_159:\n        /* \"#utility.yul\":4898:4922   */\n      tag_245\n        /* \"#utility.yul\":4916:4921   */\n      dup2\n        /* \"#utility.yul\":4898:4922   */\n      tag_158\n      jump\t// in\n    tag_245:\n        /* \"#utility.yul\":4891:4896   */\n      dup2\n        /* \"#utility.yul\":4888:4923   */\n      eq\n        /* \"#utility.yul\":4878:4941   */\n      tag_246\n      jumpi\n        /* \"#utility.yul\":4937:4938   */\n      0x00\n        /* \"#utility.yul\":4934:4935   */\n      dup1\n        /* \"#utility.yul\":4927:4939   */\n      revert\n        /* \"#utility.yul\":4878:4941   */\n    tag_246:\n        /* \"#utility.yul\":4825:4947   */\n      pop\n      jump\t// out\n        /* \"#utility.yul\":4953:5092   */\n    tag_160:\n        /* \"#utility.yul\":4999:5004   */\n      0x00\n        /* \"#utility.yul\":5037:5043   */\n      dup2\n        /* \"#utility.yul\":5024:5044   */\n      calldataload\n        /* \"#utility.yul\":5015:5044   */\n      swap1\n      pop\n        /* \"#utility.yul\":5053:5086   */\n      tag_248\n        /* \"#utility.yul\":5080:5085   */\n      dup2\n        /* \"#utility.yul\":5053:5086   */\n      tag_159\n      jump\t// in\n    tag_248:\n        /* \"#utility.yul\":4953:5092   */\n      swap3\n      swap2\n      pop\n      pop\n      jump\t// out\n        /* \"#utility.yul\":5098:5427   */\n    tag_27:\n        /* \"#utility.yul\":5157:5163   */\n      0x00\n        /* \"#utility.yul\":5206:5208   */\n      0x20\n        /* \"#utility.yul\":5194:5203   */\n      dup3\n        /* \"#utility.yul\":5185:5192   */\n      dup5\n        /* \"#utility.yul\":5181:5204   */\n      sub\n        /* \"#utility.yul\":5177:5209   */\n      slt\n        /* \"#utility.yul\":5174:5293   */\n      iszero\n      tag_250\n      jumpi\n        /* \"#utility.yul\":5212:5291   */\n      tag_251\n      tag_139\n      jump\t// in\n    tag_251:\n        /* \"#utility.yul\":5174:5293   */\n    tag_250:\n        /* \"#utility.yul\":5332:5333   */\n      0x00\n        /* \"#utility.yul\":5357:5410   */\n      tag_252\n        /* \"#utility.yul\":5402:5409   */\n      dup5\n        /* \"#utility.yul\":5393:5399   */\n      dup3\n        /* \"#utility.yul\":5382:5391   */\n      dup6\n        /* \"#utility.yul\":5378:5400   */\n      add\n        /* \"#utility.yul\":5357:5410   */\n      tag_160\n      jump\t// in\n    tag_252:\n        /* \"#utility.yul\":5347:5410   */\n      swap2\n      pop\n        /* \"#utility.yul\":5303:5420   */\n      pop\n        /* \"#utility.yul\":5098:5427   */\n      swap3\n      swap2\n      pop\n      pop\n      jump\t// out\n        /* \"#utility.yul\":5433:5602   */\n    tag_161:\n        /* \"#utility.yul\":5517:5528   */\n      0x00\n        /* \"#utility.yul\":5551:5557   */\n      dup3\n        /* \"#utility.yul\":5546:5549   */\n      dup3\n        /* \"#utility.yul\":5539:5558   */\n      mstore\n        /* \"#utility.yul\":5591:5595   */\n      0x20\n        /* \"#utility.yul\":5586:5589   */\n      dup3\n        /* \"#utility.yul\":5582:5596   */\n      add\n        /* \"#utility.yul\":5567:5596   */\n      swap1\n      pop\n        /* \"#utility.yul\":5433:5602   */\n      swap3\n      swap2\n      pop\n      pop\n      jump\t// out\n        /* \"#utility.yul\":5608:5985   */\n    tag_162:\n        /* \"#utility.yul\":5696:5699   */\n      0x00\n        /* \"#utility.yul\":5724:5763   */\n      tag_255\n        /* \"#utility.yul\":5757:5762   */\n      dup3\n        /* \"#utility.yul\":5724:5763   */\n      tag_150\n      jump\t// in\n    tag_255:\n        /* \"#utility.yul\":5779:5850   */\n      tag_256\n        /* \"#utility.yul\":5843:5849   */\n      dup2\n        /* \"#utility.yul\":5838:5841   */\n      dup6\n        /* \"#utility.yul\":5779:5850   */\n      tag_161\n      jump\t// in\n    tag_256:\n        /* \"#utility.yul\":5772:5850   */\n      swap4\n      pop\n        /* \"#utility.yul\":5859:5924   */\n      tag_257\n        /* \"#utility.yul\":5917:5923   */\n      dup2\n        /* \"#utility.yul\":5912:5915   */\n      dup6\n        /* \"#utility.yul\":5905:5909   */\n      0x20\n        /* \"#utility.yul\":5898:5903   */\n      dup7\n        /* \"#utility.yul\":5894:5910   */\n      add\n        /* \"#utility.yul\":5859:5924   */\n      tag_152\n      jump\t// in\n    tag_257:\n        /* \"#utility.yul\":5949:5978   */\n      tag_258\n        /* \"#utility.yul\":5971:5977   */\n      dup2\n        /* \"#utility.yul\":5949:5978   */\n      tag_153\n      jump\t// in\n    tag_258:\n        /* \"#utility.yul\":5944:5947   */\n      dup5\n        /* \"#utility.yul\":5940:5979   */\n      add\n        /* \"#utility.yul\":5933:5979   */\n      swap2\n      pop\n        /* \"#utility.yul\":5700:5985   */\n      pop\n        /* \"#utility.yul\":5608:5985   */\n      swap3\n      swap2\n      pop\n      pop\n      jump\t// out\n        /* \"#utility.yul\":5991:6304   */\n    tag_30:\n        /* \"#utility.yul\":6104:6108   */\n      0x00\n        /* \"#utility.yul\":6142:6144   */\n      0x20\n        /* \"#utility.yul\":6131:6140   */\n      dup3\n        /* \"#utility.yul\":6127:6145   */\n      add\n        /* \"#utility.yul\":6119:6145   */\n      swap1\n      pop\n        /* \"#utility.yul\":6191:6200   */\n      dup2\n        /* \"#utility.yul\":6185:6189   */\n      dup2\n        /* \"#utility.yul\":6181:6201   */\n      sub\n        /* \"#utility.yul\":6177:6178   */\n      0x00\n        /* \"#utility.yul\":6166:6175   */\n      dup4\n        /* \"#utility.yul\":6162:6179   */\n      add\n        /* \"#utility.yul\":6155:6202   */\n      mstore\n        /* \"#utility.yul\":6219:6297   */\n      tag_260\n        /* \"#utility.yul\":6292:6296   */\n      dup2\n        /* \"#utility.yul\":6283:6289   */\n      dup5\n        /* \"#utility.yul\":6219:6297   */\n      tag_162\n      jump\t// in\n    tag_260:\n        /* \"#utility.yul\":6211:6297   */\n      swap1\n      pop\n        /* \"#utility.yul\":5991:6304   */\n      swap3\n      swap2\n      pop\n      pop\n      jump\t// out\n        /* \"#utility.yul\":6310:6428   */\n    tag_163:\n        /* \"#utility.yul\":6397:6421   */\n      tag_262\n        /* \"#utility.yul\":6415:6420   */\n      dup2\n        /* \"#utility.yul\":6397:6421   */\n      tag_142\n      jump\t// in\n    tag_262:\n        /* \"#utility.yul\":6392:6395   */\n      dup3\n        /* \"#utility.yul\":6385:6422   */\n      mstore\n        /* \"#utility.yul\":6310:6428   */\n      pop\n      pop\n      jump\t// out\n        /* \"#utility.yul\":6434:6656   */\n    tag_40:\n        /* \"#utility.yul\":6527:6531   */\n      0x00\n        /* \"#utility.yul\":6565:6567   */\n      0x20\n        /* \"#utility.yul\":6554:6563   */\n      dup3\n        /* \"#utility.yul\":6550:6568   */\n      add\n        /* \"#utility.yul\":6542:6568   */\n      swap1\n      pop\n        /* \"#utility.yul\":6578:6649   */\n      tag_264\n        /* \"#utility.yul\":6646:6647   */\n      0x00\n        /* \"#utility.yul\":6635:6644   */\n      dup4\n        /* \"#utility.yul\":6631:6648   */\n      add\n        /* \"#utility.yul\":6622:6628   */\n      dup5\n        /* \"#utility.yul\":6578:6649   */\n      tag_163\n      jump\t// in\n    tag_264:\n        /* \"#utility.yul\":6434:6656   */\n      swap3\n      swap2\n      pop\n      pop\n      jump\t// out\n        /* \"#utility.yul\":6662:6779   */\n    tag_164:\n        /* \"#utility.yul\":6771:6772   */\n      0x00\n        /* \"#utility.yul\":6768:6769   */\n      dup1\n        /* \"#utility.yul\":6761:6773   */\n      revert\n        /* \"#utility.yul\":6785:6902   */\n    tag_165:\n        /* \"#utility.yul\":6894:6895   */\n      0x00\n        /* \"#utility.yul\":6891:6892   */\n      dup1\n        /* \"#utility.yul\":6884:6896   */\n      revert\n        /* \"#utility.yul\":6908:7088   */\n    tag_166:\n        /* \"#utility.yul\":6956:7033   */\n      0x4e487b7100000000000000000000000000000000000000000000000000000000\n        /* \"#utility.yul\":6953:6954   */\n      0x00\n        /* \"#utility.yul\":6946:7034   */\n      mstore\n        /* \"#utility.yul\":7053:7057   */\n      0x41\n        /* \"#utility.yul\":7050:7051   */\n      0x04\n        /* \"#utility.yul\":7043:7058   */\n      mstore\n        /* \"#utility.yul\":7077:7081   */\n      0x24\n        /* \"#utility.yul\":7074:7075   */\n      0x00\n        /* \"#utility.yul\":7067:7082   */\n      revert\n        /* \"#utility.yul\":7094:7375   */\n    tag_167:\n        /* \"#utility.yul\":7177:7204   */\n      tag_269\n        /* \"#utility.yul\":7199:7203   */\n      dup3\n        /* \"#utility.yul\":7177:7204   */\n      tag_153\n      jump\t// in\n    tag_269:\n        /* \"#utility.yul\":7169:7175   */\n      dup2\n        /* \"#utility.yul\":7165:7205   */\n      add\n        /* \"#utility.yul\":7307:7313   */\n      dup2\n        /* \"#utility.yul\":7295:7305   */\n      dup2\n        /* \"#utility.yul\":7292:7314   */\n      lt\n        /* \"#utility.yul\":7271:7289   */\n      0xffffffffffffffff\n        /* \"#utility.yul\":7259:7269   */\n      dup3\n        /* \"#utility.yul\":7256:7290   */\n      gt\n        /* \"#utility.yul\":7253:7315   */\n      or\n        /* \"#utility.yul\":7250:7338   */\n      iszero\n      tag_270\n      jumpi\n        /* \"#utility.yul\":7318:7336   */\n      tag_271\n      tag_166\n      jump\t// in\n    tag_271:\n        /* \"#utility.yul\":7250:7338   */\n    tag_270:\n        /* \"#utility.yul\":7358:7368   */\n      dup1\n        /* \"#utility.yul\":7354:7356   */\n      0x40\n        /* \"#utility.yul\":7347:7369   */\n      mstore\n        /* \"#utility.yul\":7137:7375   */\n      pop\n        /* \"#utility.yul\":7094:7375   */\n      pop\n      pop\n      jump\t// out\n        /* \"#utility.yul\":7381:7510   */\n    tag_168:\n        /* \"#utility.yul\":7415:7421   */\n      0x00\n        /* \"#utility.yul\":7442:7462   */\n      tag_273\n      tag_138\n      jump\t// in\n    tag_273:\n        /* \"#utility.yul\":7432:7462   */\n      swap1\n      pop\n        /* \"#utility.yul\":7471:7504   */\n      tag_274\n        /* \"#utility.yul\":7499:7503   */\n      dup3\n        /* \"#utility.yul\":7491:7497   */\n      dup3\n        /* \"#utility.yul\":7471:7504   */\n      tag_167\n      jump\t// in\n    tag_274:\n        /* \"#utility.yul\":7381:7510   */\n      swap2\n      swap1\n      pop\n      jump\t// out\n        /* \"#utility.yul\":7516:7824   */\n    tag_169:\n        /* \"#utility.yul\":7578:7582   */\n      0x00\n        /* \"#utility.yul\":7668:7686   */\n      0xffffffffffffffff\n        /* \"#utility.yul\":7660:7666   */\n      dup3\n        /* \"#utility.yul\":7657:7687   */\n      gt\n        /* \"#utility.yul\":7654:7710   */\n      iszero\n      tag_276\n      jumpi\n        /* \"#utility.yul\":7690:7708   */\n      tag_277\n      tag_166\n      jump\t// in\n    tag_277:\n        /* \"#utility.yul\":7654:7710   */\n    tag_276:\n        /* \"#utility.yul\":7728:7757   */\n      tag_278\n        /* \"#utility.yul\":7750:7756   */\n      dup3\n        /* \"#utility.yul\":7728:7757   */\n      tag_153\n      jump\t// in\n    tag_278:\n        /* \"#utility.yul\":7720:7757   */\n      swap1\n      pop\n        /* \"#utility.yul\":7812:7816   */\n      0x20\n        /* \"#utility.yul\":7806:7810   */\n      dup2\n        /* \"#utility.yul\":7802:7817   */\n      add\n        /* \"#utility.yul\":7794:7817   */\n      swap1\n      pop\n        /* \"#utility.yul\":7516:7824   */\n      swap2\n      swap1\n      pop\n      jump\t// out\n        /* \"#utility.yul\":7830:7978   */\n    tag_170:\n        /* \"#utility.yul\":7928:7934   */\n      dup3\n        /* \"#utility.yul\":7923:7926   */\n      dup2\n        /* \"#utility.yul\":7918:7921   */\n      dup4\n        /* \"#utility.yul\":7905:7935   */\n      calldatacopy\n        /* \"#utility.yul\":7969:7970   */\n      0x00\n        /* \"#utility.yul\":7960:7966   */\n      dup4\n        /* \"#utility.yul\":7955:7958   */\n      dup4\n        /* \"#utility.yul\":7951:7967   */\n      add\n        /* \"#utility.yul\":7944:7971   */\n      mstore\n        /* \"#utility.yul\":7830:7978   */\n      pop\n      pop\n      pop\n      jump\t// out\n        /* \"#utility.yul\":7984:8409   */\n    tag_171:\n        /* \"#utility.yul\":8062:8067   */\n      0x00\n        /* \"#utility.yul\":8087:8153   */\n      tag_281\n        /* \"#utility.yul\":8103:8152   */\n      tag_282\n        /* \"#utility.yul\":8145:8151   */\n      dup5\n        /* \"#utility.yul\":8103:8152   */\n      tag_169\n      jump\t// in\n    tag_282:\n        /* \"#utility.yul\":8087:8153   */\n      tag_168\n      jump\t// in\n    tag_281:\n        /* \"#utility.yul\":8078:8153   */\n      swap1\n      pop\n        /* \"#utility.yul\":8176:8182   */\n      dup3\n        /* \"#utility.yul\":8169:8174   */\n      dup2\n        /* \"#utility.yul\":8162:8183   */\n      mstore\n        /* \"#utility.yul\":8214:8218   */\n      0x20\n        /* \"#utility.yul\":8207:8212   */\n      dup2\n        /* \"#utility.yul\":8203:8219   */\n      add\n        /* \"#utility.yul\":8252:8255   */\n      dup5\n        /* \"#utility.yul\":8243:8249   */\n      dup5\n        /* \"#utility.yul\":8238:8241   */\n      dup5\n        /* \"#utility.yul\":8234:8250   */\n      add\n        /* \"#utility.yul\":8231:8256   */\n      gt\n        /* \"#utility.yul\":8228:8340   */\n      iszero\n      tag_283\n      jumpi\n        /* \"#utility.yul\":8259:8338   */\n      tag_284\n      tag_165\n      jump\t// in\n    tag_284:\n        /* \"#utility.yul\":8228:8340   */\n    tag_283:\n        /* \"#utility.yul\":8349:8403   */\n      tag_285\n        /* \"#utility.yul\":8396:8402   */\n      dup5\n        /* \"#utility.yul\":8391:8394   */\n      dup3\n        /* \"#utility.yul\":8386:8389   */\n      dup6\n        /* \"#utility.yul\":8349:8403   */\n      tag_170\n      jump\t// in\n    tag_285:\n        /* \"#utility.yul\":8068:8409   */\n      pop\n        /* \"#utility.yul\":7984:8409   */\n      swap4\n      swap3\n      pop\n      pop\n      pop\n      jump\t// out\n        /* \"#utility.yul\":8429:8769   */\n    tag_172:\n        /* \"#utility.yul\":8485:8490   */\n      0x00\n        /* \"#utility.yul\":8534:8537   */\n      dup3\n        /* \"#utility.yul\":8527:8531   */\n      0x1f\n        /* \"#utility.yul\":8519:8525   */\n      dup4\n        /* \"#utility.yul\":8515:8532   */\n      add\n        /* \"#utility.yul\":8511:8538   */\n      slt\n        /* \"#utility.yul\":8501:8623   */\n      tag_287\n      jumpi\n        /* \"#utility.yul\":8542:8621   */\n      tag_288\n      tag_164\n      jump\t// in\n    tag_288:\n        /* \"#utility.yul\":8501:8623   */\n    tag_287:\n        /* \"#utility.yul\":8659:8665   */\n      dup2\n        /* \"#utility.yul\":8646:8666   */\n      calldataload\n        /* \"#utility.yul\":8684:8763   */\n      tag_289\n        /* \"#utility.yul\":8759:8762   */\n      dup5\n        /* \"#utility.yul\":8751:8757   */\n      dup3\n        /* \"#utility.yul\":8744:8748   */\n      0x20\n        /* \"#utility.yul\":8736:8742   */\n      dup7\n        /* \"#utility.yul\":8732:8749   */\n      add\n        /* \"#utility.yul\":8684:8763   */\n      tag_171\n      jump\t// in\n    tag_289:\n        /* \"#utility.yul\":8675:8763   */\n      swap2\n      pop\n        /* \"#utility.yul\":8491:8769   */\n      pop\n        /* \"#utility.yul\":8429:8769   */\n      swap3\n      swap2\n      pop\n      pop\n      jump\t// out\n        /* \"#utility.yul\":8775:9284   */\n    tag_45:\n        /* \"#utility.yul\":8844:8850   */\n      0x00\n        /* \"#utility.yul\":8893:8895   */\n      0x20\n        /* \"#utility.yul\":8881:8890   */\n      dup3\n        /* \"#utility.yul\":8872:8879   */\n      dup5\n        /* \"#utility.yul\":8868:8891   */\n      sub\n        /* \"#utility.yul\":8864:8896   */\n      slt\n        /* \"#utility.yul\":8861:8980   */\n      iszero\n      tag_291\n      jumpi\n        /* \"#utility.yul\":8899:8978   */\n      tag_292\n      tag_139\n      jump\t// in\n    tag_292:\n        /* \"#utility.yul\":8861:8980   */\n    tag_291:\n        /* \"#utility.yul\":9047:9048   */\n      0x00\n        /* \"#utility.yul\":9036:9045   */\n      dup3\n        /* \"#utility.yul\":9032:9049   */\n      add\n        /* \"#utility.yul\":9019:9050   */\n      calldataload\n        /* \"#utility.yul\":9077:9095   */\n      0xffffffffffffffff\n        /* \"#utility.yul\":9069:9075   */\n      dup2\n        /* \"#utility.yul\":9066:9096   */\n      gt\n        /* \"#utility.yul\":9063:9180   */\n      iszero\n      tag_293\n      jumpi\n        /* \"#utility.yul\":9099:9178   */\n      tag_294\n      tag_140\n      jump\t// in\n    tag_294:\n        /* \"#utility.yul\":9063:9180   */\n    tag_293:\n        /* \"#utility.yul\":9204:9267   */\n      tag_295\n        /* \"#utility.yul\":9259:9266   */\n      dup5\n        /* \"#utility.yul\":9250:9256   */\n      dup3\n        /* \"#utility.yul\":9239:9248   */\n      dup6\n        /* \"#utility.yul\":9235:9257   */\n      add\n        /* \"#utility.yul\":9204:9267   */\n      tag_172\n      jump\t// in\n    tag_295:\n        /* \"#utility.yul\":9194:9267   */\n      swap2\n      pop\n        /* \"#utility.yul\":8990:9277   */\n      pop\n        /* \"#utility.yul\":8775:9284   */\n      swap3\n      swap2\n      pop\n      pop\n      jump\t// out\n        /* \"#utility.yul\":9290:9408   */\n    tag_173:\n        /* \"#utility.yul\":9377:9401   */\n      tag_297\n        /* \"#utility.yul\":9395:9400   */\n      dup2\n        /* \"#utility.yul\":9377:9401   */\n      tag_158\n      jump\t// in\n    tag_297:\n        /* \"#utility.yul\":9372:9375   */\n      dup3\n        /* \"#utility.yul\":9365:9402   */\n      mstore\n        /* \"#utility.yul\":9290:9408   */\n      pop\n      pop\n      jump\t// out\n        /* \"#utility.yul\":9414:9636   */\n    tag_48:\n        /* \"#utility.yul\":9507:9511   */\n      0x00\n        /* \"#utility.yul\":9545:9547   */\n      0x20\n        /* \"#utility.yul\":9534:9543   */\n      dup3\n        /* \"#utility.yul\":9530:9548   */\n      add\n        /* \"#utility.yul\":9522:9548   */\n      swap1\n      pop\n        /* \"#utility.yul\":9558:9629   */\n      tag_299\n        /* \"#utility.yul\":9626:9627   */\n      0x00\n        /* \"#utility.yul\":9615:9624   */\n      dup4\n        /* \"#utility.yul\":9611:9628   */\n      add\n        /* \"#utility.yul\":9602:9608   */\n      dup5\n        /* \"#utility.yul\":9558:9629   */\n      tag_173\n      jump\t// in\n    tag_299:\n        /* \"#utility.yul\":9414:9636   */\n      swap3\n      swap2\n      pop\n      pop\n      jump\t// out\n        /* \"#utility.yul\":9642:9822   */\n    tag_174:\n        /* \"#utility.yul\":9690:9767   */\n      0x4e487b7100000000000000000000000000000000000000000000000000000000\n        /* \"#utility.yul\":9687:9688   */\n      0x00\n        /* \"#utility.yul\":9680:9768   */\n      mstore\n        /* \"#utility.yul\":9787:9791   */\n      0x22\n        /* \"#utility.yul\":9784:9785   */\n      0x04\n        /* \"#utility.yul\":9777:9792   */\n      mstore\n        /* \"#utility.yul\":9811:9815   */\n      0x24\n        /* \"#utility.yul\":9808:9809   */\n      0x00\n        /* \"#utility.yul\":9801:9816   */\n      revert\n        /* \"#utility.yul\":9828:10148   */\n    tag_65:\n        /* \"#utility.yul\":9872:9878   */\n      0x00\n        /* \"#utility.yul\":9909:9910   */\n      0x02\n        /* \"#utility.yul\":9903:9907   */\n      dup3\n        /* \"#utility.yul\":9899:9911   */\n      div\n        /* \"#utility.yul\":9889:9911   */\n      swap1\n      pop\n        /* \"#utility.yul\":9956:9957   */\n      0x01\n        /* \"#utility.yul\":9950:9954   */\n      dup3\n        /* \"#utility.yul\":9946:9958   */\n      and\n        /* \"#utility.yul\":9977:9995   */\n      dup1\n        /* \"#utility.yul\":9967:10048   */\n      tag_302\n      jumpi\n        /* \"#utility.yul\":10033:10037   */\n      0x7f\n        /* \"#utility.yul\":10025:10031   */\n      dup3\n        /* \"#utility.yul\":10021:10038   */\n      and\n        /* \"#utility.yul\":10011:10038   */\n      swap2\n      pop\n        /* \"#utility.yul\":9967:10048   */\n    tag_302:\n        /* \"#utility.yul\":10095:10097   */\n      0x20\n        /* \"#utility.yul\":10087:10093   */\n      dup3\n        /* \"#utility.yul\":10084:10098   */\n      lt\n        /* \"#utility.yul\":10064:10082   */\n      dup2\n        /* \"#utility.yul\":10061:10099   */\n      sub\n        /* \"#utility.yul\":10058:10142   */\n      tag_303\n      jumpi\n        /* \"#utility.yul\":10114:10132   */\n      tag_304\n      tag_174\n      jump\t// in\n    tag_304:\n        /* \"#utility.yul\":10058:10142   */\n    tag_303:\n        /* \"#utility.yul\":9879:10148   */\n      pop\n        /* \"#utility.yul\":9828:10148   */\n      swap2\n      swap1\n      pop\n      jump\t// out\n        /* \"#utility.yul\":10154:10375   */\n    tag_175:\n        /* \"#utility.yul\":10294:10328   */\n      0x4f6e6c79206f776e65722063616e20706572666f726d20746869732061637469\n        /* \"#utility.yul\":10290:10291   */\n      0x00\n        /* \"#utility.yul\":10282:10288   */\n      dup3\n        /* \"#utility.yul\":10278:10292   */\n      add\n        /* \"#utility.yul\":10271:10329   */\n      mstore\n        /* \"#utility.yul\":10363:10367   */\n      0x6f6e000000000000000000000000000000000000000000000000000000000000\n        /* \"#utility.yul\":10358:10360   */\n      0x20\n        /* \"#utility.yul\":10350:10356   */\n      dup3\n        /* \"#utility.yul\":10346:10361   */\n      add\n        /* \"#utility.yul\":10339:10368   */\n      mstore\n        /* \"#utility.yul\":10154:10375   */\n      pop\n      jump\t// out\n        /* \"#utility.yul\":10381:10747   */\n    tag_176:\n        /* \"#utility.yul\":10523:10526   */\n      0x00\n        /* \"#utility.yul\":10544:10611   */\n      tag_307\n        /* \"#utility.yul\":10608:10610   */\n      0x22\n        /* \"#utility.yul\":10603:10606   */\n      dup4\n        /* \"#utility.yul\":10544:10611   */\n      tag_161\n      jump\t// in\n    tag_307:\n        /* \"#utility.yul\":10537:10611   */\n      swap2\n      pop\n        /* \"#utility.yul\":10620:10713   */\n      tag_308\n        /* \"#utility.yul\":10709:10712   */\n      dup3\n        /* \"#utility.yul\":10620:10713   */\n      tag_175\n      jump\t// in\n    tag_308:\n        /* \"#utility.yul\":10738:10740   */\n      0x40\n        /* \"#utility.yul\":10733:10736   */\n      dup3\n        /* \"#utility.yul\":10729:10741   */\n      add\n        /* \"#utility.yul\":10722:10741   */\n      swap1\n      pop\n        /* \"#utility.yul\":10381:10747   */\n      swap2\n      swap1\n      pop\n      jump\t// out\n        /* \"#utility.yul\":10753:11172   */\n    tag_80:\n        /* \"#utility.yul\":10919:10923   */\n      0x00\n        /* \"#utility.yul\":10957:10959   */\n      0x20\n        /* \"#utility.yul\":10946:10955   */\n      dup3\n        /* \"#utility.yul\":10942:10960   */\n      add\n        /* \"#utility.yul\":10934:10960   */\n      swap1\n      pop\n        /* \"#utility.yul\":11006:11015   */\n      dup2\n        /* \"#utility.yul\":11000:11004   */\n      dup2\n        /* \"#utility.yul\":10996:11016   */\n      sub\n        /* \"#utility.yul\":10992:10993   */\n      0x00\n        /* \"#utility.yul\":10981:10990   */\n      dup4\n        /* \"#utility.yul\":10977:10994   */\n      add\n        /* \"#utility.yul\":10970:11017   */\n      mstore\n        /* \"#utility.yul\":11034:11165   */\n      tag_310\n        /* \"#utility.yul\":11160:11164   */\n      dup2\n        /* \"#utility.yul\":11034:11165   */\n      tag_176\n      jump\t// in\n    tag_310:\n        /* \"#utility.yul\":11026:11165   */\n      swap1\n      pop\n        /* \"#utility.yul\":10753:11172   */\n      swap2\n      swap1\n      pop\n      jump\t// out\n        /* \"#utility.yul\":11178:11352   */\n    tag_177:\n        /* \"#utility.yul\":11318:11344   */\n      0x566f74657220616c726561647920726567697374657265640000000000000000\n        /* \"#utility.yul\":11314:11315   */\n      0x00\n        /* \"#utility.yul\":11306:11312   */\n      dup3\n        /* \"#utility.yul\":11302:11316   */\n      add\n        /* \"#utility.yul\":11295:11345   */\n      mstore\n        /* \"#utility.yul\":11178:11352   */\n      pop\n      jump\t// out\n        /* \"#utility.yul\":11358:11724   */\n    tag_178:\n        /* \"#utility.yul\":11500:11503   */\n      0x00\n        /* \"#utility.yul\":11521:11588   */\n      tag_313\n        /* \"#utility.yul\":11585:11587   */\n      0x18\n        /* \"#utility.yul\":11580:11583   */\n      dup4\n        /* \"#utility.yul\":11521:11588   */\n      tag_161\n      jump\t// in\n    tag_313:\n        /* \"#utility.yul\":11514:11588   */\n      swap2\n      pop\n        /* \"#utility.yul\":11597:11690   */\n      tag_314\n        /* \"#utility.yul\":11686:11689   */\n      dup3\n        /* \"#utility.yul\":11597:11690   */\n      tag_177\n      jump\t// in\n    tag_314:\n        /* \"#utility.yul\":11715:11717   */\n      0x20\n        /* \"#utility.yul\":11710:11713   */\n      dup3\n        /* \"#utility.yul\":11706:11718   */\n      add\n        /* \"#utility.yul\":11699:11718   */\n      swap1\n      pop\n        /* \"#utility.yul\":11358:11724   */\n      swap2\n      swap1\n      pop\n      jump\t// out\n        /* \"#utility.yul\":11730:12149   */\n    tag_84:\n        /* \"#utility.yul\":11896:11900   */\n      0x00\n        /* \"#utility.yul\":11934:11936   */\n      0x20\n        /* \"#utility.yul\":11923:11932   */\n      dup3\n        /* \"#utility.yul\":11919:11937   */\n      add\n        /* \"#utility.yul\":11911:11937   */\n      swap1\n      pop\n        /* \"#utility.yul\":11983:11992   */\n      dup2\n        /* \"#utility.yul\":11977:11981   */\n      dup2\n        /* \"#utility.yul\":11973:11993   */\n      sub\n        /* \"#utility.yul\":11969:11970   */\n      0x00\n        /* \"#utility.yul\":11958:11967   */\n      dup4\n        /* \"#utility.yul\":11954:11971   */\n      add\n        /* \"#utility.yul\":11947:11994   */\n      mstore\n        /* \"#utility.yul\":12011:12142   */\n      tag_316\n        /* \"#utility.yul\":12137:12141   */\n      dup2\n        /* \"#utility.yul\":12011:12142   */\n      tag_178\n      jump\t// in\n    tag_316:\n        /* \"#utility.yul\":12003:12142   */\n      swap1\n      pop\n        /* \"#utility.yul\":11730:12149   */\n      swap2\n      swap1\n      pop\n      jump\t// out\n        /* \"#utility.yul\":12155:12377   */\n    tag_179:\n        /* \"#utility.yul\":12295:12329   */\n      0x526573756c7473206861766520616c7265616479206265656e207075626c6973\n        /* \"#utility.yul\":12291:12292   */\n      0x00\n        /* \"#utility.yul\":12283:12289   */\n      dup3\n        /* \"#utility.yul\":12279:12293   */\n      add\n        /* \"#utility.yul\":12272:12330   */\n      mstore\n        /* \"#utility.yul\":12364:12369   */\n      0x6865640000000000000000000000000000000000000000000000000000000000\n        /* \"#utility.yul\":12359:12361   */\n      0x20\n        /* \"#utility.yul\":12351:12357   */\n      dup3\n        /* \"#utility.yul\":12347:12362   */\n      add\n        /* \"#utility.yul\":12340:12370   */\n      mstore\n        /* \"#utility.yul\":12155:12377   */\n      pop\n      jump\t// out\n        /* \"#utility.yul\":12383:12749   */\n    tag_180:\n        /* \"#utility.yul\":12525:12528   */\n      0x00\n        /* \"#utility.yul\":12546:12613   */\n      tag_319\n        /* \"#utility.yul\":12610:12612   */\n      0x23\n        /* \"#utility.yul\":12605:12608   */\n      dup4\n        /* \"#utility.yul\":12546:12613   */\n      tag_161\n      jump\t// in\n    tag_319:\n        /* \"#utility.yul\":12539:12613   */\n      swap2\n      pop\n        /* \"#utility.yul\":12622:12715   */\n      tag_320\n        /* \"#utility.yul\":12711:12714   */\n      dup3\n        /* \"#utility.yul\":12622:12715   */\n      tag_179\n      jump\t// in\n    tag_320:\n        /* \"#utility.yul\":12740:12742   */\n      0x40\n        /* \"#utility.yul\":12735:12738   */\n      dup3\n        /* \"#utility.yul\":12731:12743   */\n      add\n        /* \"#utility.yul\":12724:12743   */\n      swap1\n      pop\n        /* \"#utility.yul\":12383:12749   */\n      swap2\n      swap1\n      pop\n      jump\t// out\n        /* \"#utility.yul\":12755:13174   */\n    tag_92:\n        /* \"#utility.yul\":12921:12925   */\n      0x00\n        /* \"#utility.yul\":12959:12961   */\n      0x20\n        /* \"#utility.yul\":12948:12957   */\n      dup3\n        /* \"#utility.yul\":12944:12962   */\n      add\n        /* \"#utility.yul\":12936:12962   */\n      swap1\n      pop\n        /* \"#utility.yul\":13008:13017   */\n      dup2\n        /* \"#utility.yul\":13002:13006   */\n      dup2\n        /* \"#utility.yul\":12998:13018   */\n      sub\n        /* \"#utility.yul\":12994:12995   */\n      0x00\n        /* \"#utility.yul\":12983:12992   */\n      dup4\n        /* \"#utility.yul\":12979:12996   */\n      add\n        /* \"#utility.yul\":12972:13019   */\n      mstore\n        /* \"#utility.yul\":13036:13167   */\n      tag_322\n        /* \"#utility.yul\":13162:13166   */\n      dup2\n        /* \"#utility.yul\":13036:13167   */\n      tag_180\n      jump\t// in\n    tag_322:\n        /* \"#utility.yul\":13028:13167   */\n      swap1\n      pop\n        /* \"#utility.yul\":12755:13174   */\n      swap2\n      swap1\n      pop\n      jump\t// out\n        /* \"#utility.yul\":13180:13360   */\n    tag_99:\n        /* \"#utility.yul\":13228:13305   */\n      0x4e487b7100000000000000000000000000000000000000000000000000000000\n        /* \"#utility.yul\":13225:13226   */\n      0x00\n        /* \"#utility.yul\":13218:13306   */\n      mstore\n        /* \"#utility.yul\":13325:13329   */\n      0x32\n        /* \"#utility.yul\":13322:13323   */\n      0x04\n        /* \"#utility.yul\":13315:13330   */\n      mstore\n        /* \"#utility.yul\":13349:13353   */\n      0x24\n        /* \"#utility.yul\":13346:13347   */\n      0x00\n        /* \"#utility.yul\":13339:13354   */\n      revert\n        /* \"#utility.yul\":13366:13514   */\n    tag_181:\n        /* \"#utility.yul\":13468:13479   */\n      0x00\n        /* \"#utility.yul\":13505:13508   */\n      dup2\n        /* \"#utility.yul\":13490:13508   */\n      swap1\n      pop\n        /* \"#utility.yul\":13366:13514   */\n      swap3\n      swap2\n      pop\n      pop\n      jump\t// out\n        /* \"#utility.yul\":13520:13661   */\n    tag_182:\n        /* \"#utility.yul\":13569:13573   */\n      0x00\n        /* \"#utility.yul\":13592:13595   */\n      dup2\n        /* \"#utility.yul\":13584:13595   */\n      swap1\n      pop\n        /* \"#utility.yul\":13615:13618   */\n      dup2\n        /* \"#utility.yul\":13612:13613   */\n      0x00\n        /* \"#utility.yul\":13605:13619   */\n      mstore\n        /* \"#utility.yul\":13649:13653   */\n      0x20\n        /* \"#utility.yul\":13646:13647   */\n      0x00\n        /* \"#utility.yul\":13636:13654   */\n      keccak256\n        /* \"#utility.yul\":13628:13654   */\n      swap1\n      pop\n        /* \"#utility.yul\":13520:13661   */\n      swap2\n      swap1\n      pop\n      jump\t// out\n        /* \"#utility.yul\":13691:14565   */\n    tag_183:\n        /* \"#utility.yul\":13794:13797   */\n      0x00\n        /* \"#utility.yul\":13831:13836   */\n      dup2\n        /* \"#utility.yul\":13825:13837   */\n      sload\n        /* \"#utility.yul\":13860:13896   */\n      tag_327\n        /* \"#utility.yul\":13886:13895   */\n      dup2\n        /* \"#utility.yul\":13860:13896   */\n      tag_65\n      jump\t// in\n    tag_327:\n        /* \"#utility.yul\":13912:14001   */\n      tag_328\n        /* \"#utility.yul\":13994:14000   */\n      dup2\n        /* \"#utility.yul\":13989:13992   */\n      dup7\n        /* \"#utility.yul\":13912:14001   */\n      tag_181\n      jump\t// in\n    tag_328:\n        /* \"#utility.yul\":13905:14001   */\n      swap5\n      pop\n        /* \"#utility.yul\":14032:14033   */\n      0x01\n        /* \"#utility.yul\":14021:14030   */\n      dup3\n        /* \"#utility.yul\":14017:14034   */\n      and\n        /* \"#utility.yul\":14048:14049   */\n      0x00\n        /* \"#utility.yul\":14043:14209   */\n      dup2\n      eq\n      tag_330\n      jumpi\n        /* \"#utility.yul\":14223:14224   */\n      0x01\n        /* \"#utility.yul\":14218:14559   */\n      dup2\n      eq\n      tag_331\n      jumpi\n        /* \"#utility.yul\":14010:14559   */\n      jump(tag_329)\n        /* \"#utility.yul\":14043:14209   */\n    tag_330:\n        /* \"#utility.yul\":14127:14131   */\n      0xff\n        /* \"#utility.yul\":14123:14132   */\n      not\n        /* \"#utility.yul\":14112:14121   */\n      dup4\n        /* \"#utility.yul\":14108:14133   */\n      and\n        /* \"#utility.yul\":14103:14106   */\n      dup7\n        /* \"#utility.yul\":14096:14134   */\n      mstore\n        /* \"#utility.yul\":14189:14195   */\n      dup2\n        /* \"#utility.yul\":14182:14196   */\n      iszero\n        /* \"#utility.yul\":14175:14197   */\n      iszero\n        /* \"#utility.yul\":14167:14173   */\n      dup3\n        /* \"#utility.yul\":14163:14198   */\n      mul\n        /* \"#utility.yul\":14158:14161   */\n      dup7\n        /* \"#utility.yul\":14154:14199   */\n      add\n        /* \"#utility.yul\":14147:14199   */\n      swap4\n      pop\n        /* \"#utility.yul\":14043:14209   */\n      jump(tag_329)\n        /* \"#utility.yul\":14218:14559   */\n    tag_331:\n        /* \"#utility.yul\":14285:14323   */\n      tag_332\n        /* \"#utility.yul\":14317:14322   */\n      dup6\n        /* \"#utility.yul\":14285:14323   */\n      tag_182\n      jump\t// in\n    tag_332:\n        /* \"#utility.yul\":14345:14346   */\n      0x00\n        /* \"#utility.yul\":14359:14513   */\n    tag_333:\n        /* \"#utility.yul\":14373:14379   */\n      dup4\n        /* \"#utility.yul\":14370:14371   */\n      dup2\n        /* \"#utility.yul\":14367:14380   */\n      lt\n        /* \"#utility.yul\":14359:14513   */\n      iszero\n      tag_335\n      jumpi\n        /* \"#utility.yul\":14447:14454   */\n      dup2\n        /* \"#utility.yul\":14441:14455   */\n      sload\n        /* \"#utility.yul\":14437:14438   */\n      dup2\n        /* \"#utility.yul\":14432:14435   */\n      dup10\n        /* \"#utility.yul\":14428:14439   */\n      add\n        /* \"#utility.yul\":14421:14456   */\n      mstore\n        /* \"#utility.yul\":14497:14498   */\n      0x01\n        /* \"#utility.yul\":14488:14495   */\n      dup3\n        /* \"#utility.yul\":14484:14499   */\n      add\n        /* \"#utility.yul\":14473:14499   */\n      swap2\n      pop\n        /* \"#utility.yul\":14395:14399   */\n      0x20\n        /* \"#utility.yul\":14392:14393   */\n      dup2\n        /* \"#utility.yul\":14388:14400   */\n      add\n        /* \"#utility.yul\":14383:14400   */\n      swap1\n      pop\n        /* \"#utility.yul\":14359:14513   */\n      jump(tag_333)\n    tag_335:\n        /* \"#utility.yul\":14542:14548   */\n      dup4\n        /* \"#utility.yul\":14537:14540   */\n      dup9\n        /* \"#utility.yul\":14533:14549   */\n      add\n        /* \"#utility.yul\":14526:14549   */\n      swap6\n      pop\n        /* \"#utility.yul\":14225:14559   */\n      pop\n      pop\n        /* \"#utility.yul\":14010:14559   */\n    tag_329:\n      pop\n        /* \"#utility.yul\":13798:14565   */\n      pop\n      pop\n        /* \"#utility.yul\":13691:14565   */\n      swap3\n      swap2\n      pop\n      pop\n      jump\t// out\n        /* \"#utility.yul\":14571:14840   */\n    tag_105:\n        /* \"#utility.yul\":14700:14703   */\n      0x00\n        /* \"#utility.yul\":14722:14814   */\n      tag_337\n        /* \"#utility.yul\":14810:14813   */\n      dup3\n        /* \"#utility.yul\":14801:14807   */\n      dup5\n        /* \"#utility.yul\":14722:14814   */\n      tag_183\n      jump\t// in\n    tag_337:\n        /* \"#utility.yul\":14715:14814   */\n      swap2\n      pop\n        /* \"#utility.yul\":14831:14834   */\n      dup2\n        /* \"#utility.yul\":14824:14834   */\n      swap1\n      pop\n        /* \"#utility.yul\":14571:14840   */\n      swap3\n      swap2\n      pop\n      pop\n      jump\t// out\n        /* \"#utility.yul\":14870:15701   */\n    tag_184:\n        /* \"#utility.yul\":14955:14958   */\n      0x00\n        /* \"#utility.yul\":14992:14997   */\n      dup2\n        /* \"#utility.yul\":14986:14998   */\n      sload\n        /* \"#utility.yul\":15021:15057   */\n      tag_339\n        /* \"#utility.yul\":15047:15056   */\n      dup2\n        /* \"#utility.yul\":15021:15057   */\n      tag_65\n      jump\t// in\n    tag_339:\n        /* \"#utility.yul\":15073:15144   */\n      tag_340\n        /* \"#utility.yul\":15137:15143   */\n      dup2\n        /* \"#utility.yul\":15132:15135   */\n      dup7\n        /* \"#utility.yul\":15073:15144   */\n      tag_161\n      jump\t// in\n    tag_340:\n        /* \"#utility.yul\":15066:15144   */\n      swap5\n      pop\n        /* \"#utility.yul\":15175:15176   */\n      0x01\n        /* \"#utility.yul\":15164:15173   */\n      dup3\n        /* \"#utility.yul\":15160:15177   */\n      and\n        /* \"#utility.yul\":15191:15192   */\n      0x00\n        /* \"#utility.yul\":15186:15350   */\n      dup2\n      eq\n      tag_342\n      jumpi\n        /* \"#utility.yul\":15364:15365   */\n      0x01\n        /* \"#utility.yul\":15359:15695   */\n      dup2\n      eq\n      tag_343\n      jumpi\n        /* \"#utility.yul\":15153:15695   */\n      jump(tag_341)\n        /* \"#utility.yul\":15186:15350   */\n    tag_342:\n        /* \"#utility.yul\":15270:15274   */\n      0xff\n        /* \"#utility.yul\":15266:15275   */\n      not\n        /* \"#utility.yul\":15255:15264   */\n      dup4\n        /* \"#utility.yul\":15251:15276   */\n      and\n        /* \"#utility.yul\":15246:15249   */\n      dup7\n        /* \"#utility.yul\":15239:15277   */\n      mstore\n        /* \"#utility.yul\":15330:15336   */\n      dup2\n        /* \"#utility.yul\":15323:15337   */\n      iszero\n        /* \"#utility.yul\":15316:15338   */\n      iszero\n        /* \"#utility.yul\":15310:15314   */\n      0x20\n        /* \"#utility.yul\":15306:15339   */\n      mul\n        /* \"#utility.yul\":15301:15304   */\n      dup7\n        /* \"#utility.yul\":15297:15340   */\n      add\n        /* \"#utility.yul\":15290:15340   */\n      swap4\n      pop\n        /* \"#utility.yul\":15186:15350   */\n      jump(tag_341)\n        /* \"#utility.yul\":15359:15695   */\n    tag_343:\n        /* \"#utility.yul\":15426:15464   */\n      tag_344\n        /* \"#utility.yul\":15458:15463   */\n      dup6\n        /* \"#utility.yul\":15426:15464   */\n      tag_182\n      jump\t// in\n    tag_344:\n        /* \"#utility.yul\":15486:15487   */\n      0x00\n        /* \"#utility.yul\":15500:15654   */\n    tag_345:\n        /* \"#utility.yul\":15514:15520   */\n      dup4\n        /* \"#utility.yul\":15511:15512   */\n      dup2\n        /* \"#utility.yul\":15508:15521   */\n      lt\n        /* \"#utility.yul\":15500:15654   */\n      iszero\n      tag_347\n      jumpi\n        /* \"#utility.yul\":15588:15595   */\n      dup2\n        /* \"#utility.yul\":15582:15596   */\n      sload\n        /* \"#utility.yul\":15578:15579   */\n      dup2\n        /* \"#utility.yul\":15573:15576   */\n      dup10\n        /* \"#utility.yul\":15569:15580   */\n      add\n        /* \"#utility.yul\":15562:15597   */\n      mstore\n        /* \"#utility.yul\":15638:15639   */\n      0x01\n        /* \"#utility.yul\":15629:15636   */\n      dup3\n        /* \"#utility.yul\":15625:15640   */\n      add\n        /* \"#utility.yul\":15614:15640   */\n      swap2\n      pop\n        /* \"#utility.yul\":15536:15540   */\n      0x20\n        /* \"#utility.yul\":15533:15534   */\n      dup2\n        /* \"#utility.yul\":15529:15541   */\n      add\n        /* \"#utility.yul\":15524:15541   */\n      swap1\n      pop\n        /* \"#utility.yul\":15500:15654   */\n      jump(tag_345)\n    tag_347:\n        /* \"#utility.yul\":15683:15684   */\n      dup1\n        /* \"#utility.yul\":15678:15681   */\n      dup9\n        /* \"#utility.yul\":15674:15685   */\n      add\n        /* \"#utility.yul\":15667:15685   */\n      swap6\n      pop\n        /* \"#utility.yul\":15366:15695   */\n      pop\n      pop\n        /* \"#utility.yul\":15153:15695   */\n    tag_341:\n      pop\n        /* \"#utility.yul\":14959:15701   */\n      pop\n      pop\n        /* \"#utility.yul\":14870:15701   */\n      swap3\n      swap2\n      pop\n      pop\n      jump\t// out\n        /* \"#utility.yul\":15707:16124   */\n    tag_107:\n        /* \"#utility.yul\":15845:15849   */\n      0x00\n        /* \"#utility.yul\":15883:15885   */\n      0x40\n        /* \"#utility.yul\":15872:15881   */\n      dup3\n        /* \"#utility.yul\":15868:15886   */\n      add\n        /* \"#utility.yul\":15860:15886   */\n      swap1\n      pop\n        /* \"#utility.yul\":15932:15941   */\n      dup2\n        /* \"#utility.yul\":15926:15930   */\n      dup2\n        /* \"#utility.yul\":15922:15942   */\n      sub\n        /* \"#utility.yul\":15918:15919   */\n      0x00\n        /* \"#utility.yul\":15907:15916   */\n      dup4\n        /* \"#utility.yul\":15903:15920   */\n      add\n        /* \"#utility.yul\":15896:15943   */\n      mstore\n        /* \"#utility.yul\":15960:16035   */\n      tag_349\n        /* \"#utility.yul\":16030:16034   */\n      dup2\n        /* \"#utility.yul\":16021:16027   */\n      dup6\n        /* \"#utility.yul\":15960:16035   */\n      tag_184\n      jump\t// in\n    tag_349:\n        /* \"#utility.yul\":15952:16035   */\n      swap1\n      pop\n        /* \"#utility.yul\":16045:16117   */\n      tag_350\n        /* \"#utility.yul\":16113:16115   */\n      0x20\n        /* \"#utility.yul\":16102:16111   */\n      dup4\n        /* \"#utility.yul\":16098:16116   */\n      add\n        /* \"#utility.yul\":16089:16095   */\n      dup5\n        /* \"#utility.yul\":16045:16117   */\n      tag_173\n      jump\t// in\n    tag_350:\n        /* \"#utility.yul\":15707:16124   */\n      swap4\n      swap3\n      pop\n      pop\n      pop\n      jump\t// out\n        /* \"#utility.yul\":16130:16520   */\n    tag_185:\n        /* \"#utility.yul\":16236:16239   */\n      0x00\n        /* \"#utility.yul\":16264:16303   */\n      tag_352\n        /* \"#utility.yul\":16297:16302   */\n      dup3\n        /* \"#utility.yul\":16264:16303   */\n      tag_150\n      jump\t// in\n    tag_352:\n        /* \"#utility.yul\":16319:16408   */\n      tag_353\n        /* \"#utility.yul\":16401:16407   */\n      dup2\n        /* \"#utility.yul\":16396:16399   */\n      dup6\n        /* \"#utility.yul\":16319:16408   */\n      tag_181\n      jump\t// in\n    tag_353:\n        /* \"#utility.yul\":16312:16408   */\n      swap4\n      pop\n        /* \"#utility.yul\":16417:16482   */\n      tag_354\n        /* \"#utility.yul\":16475:16481   */\n      dup2\n        /* \"#utility.yul\":16470:16473   */\n      dup6\n        /* \"#utility.yul\":16463:16467   */\n      0x20\n        /* \"#utility.yul\":16456:16461   */\n      dup7\n        /* \"#utility.yul\":16452:16468   */\n      add\n        /* \"#utility.yul\":16417:16482   */\n      tag_152\n      jump\t// in\n    tag_354:\n        /* \"#utility.yul\":16507:16513   */\n      dup1\n        /* \"#utility.yul\":16502:16505   */\n      dup5\n        /* \"#utility.yul\":16498:16514   */\n      add\n        /* \"#utility.yul\":16491:16514   */\n      swap2\n      pop\n        /* \"#utility.yul\":16240:16520   */\n      pop\n        /* \"#utility.yul\":16130:16520   */\n      swap3\n      swap2\n      pop\n      pop\n      jump\t// out\n        /* \"#utility.yul\":16526:16801   */\n    tag_110:\n        /* \"#utility.yul\":16658:16661   */\n      0x00\n        /* \"#utility.yul\":16680:16775   */\n      tag_356\n        /* \"#utility.yul\":16771:16774   */\n      dup3\n        /* \"#utility.yul\":16762:16768   */\n      dup5\n        /* \"#utility.yul\":16680:16775   */\n      tag_185\n      jump\t// in\n    tag_356:\n        /* \"#utility.yul\":16673:16775   */\n      swap2\n      pop\n        /* \"#utility.yul\":16792:16795   */\n      dup2\n        /* \"#utility.yul\":16785:16795   */\n      swap1\n      pop\n        /* \"#utility.yul\":16526:16801   */\n      swap3\n      swap2\n      pop\n      pop\n      jump\t// out\n        /* \"#utility.yul\":16807:16979   */\n    tag_186:\n        /* \"#utility.yul\":16947:16971   */\n      0x4e6f742061207265676973746572656420766f74657200000000000000000000\n        /* \"#utility.yul\":16943:16944   */\n      0x00\n        /* \"#utility.yul\":16935:16941   */\n      dup3\n        /* \"#utility.yul\":16931:16945   */\n      add\n        /* \"#utility.yul\":16924:16972   */\n      mstore\n        /* \"#utility.yul\":16807:16979   */\n      pop\n      jump\t// out\n        /* \"#utility.yul\":16985:17351   */\n    tag_187:\n        /* \"#utility.yul\":17127:17130   */\n      0x00\n        /* \"#utility.yul\":17148:17215   */\n      tag_359\n        /* \"#utility.yul\":17212:17214   */\n      0x16\n        /* \"#utility.yul\":17207:17210   */\n      dup4\n        /* \"#utility.yul\":17148:17215   */\n      tag_161\n      jump\t// in\n    tag_359:\n        /* \"#utility.yul\":17141:17215   */\n      swap2\n      pop\n        /* \"#utility.yul\":17224:17317   */\n      tag_360\n        /* \"#utility.yul\":17313:17316   */\n      dup3\n        /* \"#utility.yul\":17224:17317   */\n      tag_186\n      jump\t// in\n    tag_360:\n        /* \"#utility.yul\":17342:17344   */\n      0x20\n        /* \"#utility.yul\":17337:17340   */\n      dup3\n        /* \"#utility.yul\":17333:17345   */\n      add\n        /* \"#utility.yul\":17326:17345   */\n      swap1\n      pop\n        /* \"#utility.yul\":16985:17351   */\n      swap2\n      swap1\n      pop\n      jump\t// out\n        /* \"#utility.yul\":17357:17776   */\n    tag_114:\n        /* \"#utility.yul\":17523:17527   */\n      0x00\n        /* \"#utility.yul\":17561:17563   */\n      0x20\n        /* \"#utility.yul\":17550:17559   */\n      dup3\n        /* \"#utility.yul\":17546:17564   */\n      add\n        /* \"#utility.yul\":17538:17564   */\n      swap1\n      pop\n        /* \"#utility.yul\":17610:17619   */\n      dup2\n        /* \"#utility.yul\":17604:17608   */\n      dup2\n        /* \"#utility.yul\":17600:17620   */\n      sub\n        /* \"#utility.yul\":17596:17597   */\n      0x00\n        /* \"#utility.yul\":17585:17594   */\n      dup4\n        /* \"#utility.yul\":17581:17598   */\n      add\n        /* \"#utility.yul\":17574:17621   */\n      mstore\n        /* \"#utility.yul\":17638:17769   */\n      tag_362\n        /* \"#utility.yul\":17764:17768   */\n      dup2\n        /* \"#utility.yul\":17638:17769   */\n      tag_187\n      jump\t// in\n    tag_362:\n        /* \"#utility.yul\":17630:17769   */\n      swap1\n      pop\n        /* \"#utility.yul\":17357:17776   */\n      swap2\n      swap1\n      pop\n      jump\t// out\n        /* \"#utility.yul\":17782:17945   */\n    tag_188:\n        /* \"#utility.yul\":17922:17937   */\n      0x416c726561647920766f74656400000000000000000000000000000000000000\n        /* \"#utility.yul\":17918:17919   */\n      0x00\n        /* \"#utility.yul\":17910:17916   */\n      dup3\n        /* \"#utility.yul\":17906:17920   */\n      add\n        /* \"#utility.yul\":17899:17938   */\n      mstore\n        /* \"#utility.yul\":17782:17945   */\n      pop\n      jump\t// out\n        /* \"#utility.yul\":17951:18317   */\n    tag_189:\n        /* \"#utility.yul\":18093:18096   */\n      0x00\n        /* \"#utility.yul\":18114:18181   */\n      tag_365\n        /* \"#utility.yul\":18178:18180   */\n      0x0d\n        /* \"#utility.yul\":18173:18176   */\n      dup4\n        /* \"#utility.yul\":18114:18181   */\n      tag_161\n      jump\t// in\n    tag_365:\n        /* \"#utility.yul\":18107:18181   */\n      swap2\n      pop\n        /* \"#utility.yul\":18190:18283   */\n      tag_366\n        /* \"#utility.yul\":18279:18282   */\n      dup3\n        /* \"#utility.yul\":18190:18283   */\n      tag_188\n      jump\t// in\n    tag_366:\n        /* \"#utility.yul\":18308:18310   */\n      0x20\n        /* \"#utility.yul\":18303:18306   */\n      dup3\n        /* \"#utility.yul\":18299:18311   */\n      add\n        /* \"#utility.yul\":18292:18311   */\n      swap1\n      pop\n        /* \"#utility.yul\":17951:18317   */\n      swap2\n      swap1\n      pop\n      jump\t// out\n        /* \"#utility.yul\":18323:18742   */\n    tag_121:\n        /* \"#utility.yul\":18489:18493   */\n      0x00\n        /* \"#utility.yul\":18527:18529   */\n      0x20\n        /* \"#utility.yul\":18516:18525   */\n      dup3\n        /* \"#utility.yul\":18512:18530   */\n      add\n        /* \"#utility.yul\":18504:18530   */\n      swap1\n      pop\n        /* \"#utility.yul\":18576:18585   */\n      dup2\n        /* \"#utility.yul\":18570:18574   */\n      dup2\n        /* \"#utility.yul\":18566:18586   */\n      sub\n        /* \"#utility.yul\":18562:18563   */\n      0x00\n        /* \"#utility.yul\":18551:18560   */\n      dup4\n        /* \"#utility.yul\":18547:18564   */\n      add\n        /* \"#utility.yul\":18540:18587   */\n      mstore\n        /* \"#utility.yul\":18604:18735   */\n      tag_368\n        /* \"#utility.yul\":18730:18734   */\n      dup2\n        /* \"#utility.yul\":18604:18735   */\n      tag_189\n      jump\t// in\n    tag_368:\n        /* \"#utility.yul\":18596:18735   */\n      swap1\n      pop\n        /* \"#utility.yul\":18323:18742   */\n      swap2\n      swap1\n      pop\n      jump\t// out\n        /* \"#utility.yul\":18748:18895   */\n    tag_190:\n        /* \"#utility.yul\":18849:18860   */\n      0x00\n        /* \"#utility.yul\":18886:18889   */\n      dup2\n        /* \"#utility.yul\":18871:18889   */\n      swap1\n      pop\n        /* \"#utility.yul\":18748:18895   */\n      swap3\n      swap2\n      pop\n      pop\n      jump\t// out\n        /* \"#utility.yul\":18901:19045   */\n    tag_191:\n        /* \"#utility.yul\":18953:18957   */\n      0x00\n        /* \"#utility.yul\":18976:18979   */\n      dup2\n        /* \"#utility.yul\":18968:18979   */\n      swap1\n      pop\n        /* \"#utility.yul\":18999:19002   */\n      dup2\n        /* \"#utility.yul\":18996:18997   */\n      0x00\n        /* \"#utility.yul\":18989:19003   */\n      mstore\n        /* \"#utility.yul\":19033:19037   */\n      0x20\n        /* \"#utility.yul\":19030:19031   */\n      0x00\n        /* \"#utility.yul\":19020:19038   */\n      keccak256\n        /* \"#utility.yul\":19012:19038   */\n      swap1\n      pop\n        /* \"#utility.yul\":18901:19045   */\n      swap2\n      swap1\n      pop\n      jump\t// out\n        /* \"#utility.yul\":19073:19951   */\n    tag_192:\n        /* \"#utility.yul\":19178:19181   */\n      0x00\n        /* \"#utility.yul\":19215:19220   */\n      dup2\n        /* \"#utility.yul\":19209:19221   */\n      sload\n        /* \"#utility.yul\":19244:19280   */\n      tag_372\n        /* \"#utility.yul\":19270:19279   */\n      dup2\n        /* \"#utility.yul\":19244:19280   */\n      tag_65\n      jump\t// in\n    tag_372:\n        /* \"#utility.yul\":19296:19384   */\n      tag_373\n        /* \"#utility.yul\":19377:19383   */\n      dup2\n        /* \"#utility.yul\":19372:19375   */\n      dup7\n        /* \"#utility.yul\":19296:19384   */\n      tag_190\n      jump\t// in\n    tag_373:\n        /* \"#utility.yul\":19289:19384   */\n      swap5\n      pop\n        /* \"#utility.yul\":19415:19416   */\n      0x01\n        /* \"#utility.yul\":19404:19413   */\n      dup3\n        /* \"#utility.yul\":19400:19417   */\n      and\n        /* \"#utility.yul\":19431:19432   */\n      0x00\n        /* \"#utility.yul\":19426:19592   */\n      dup2\n      eq\n      tag_375\n      jumpi\n        /* \"#utility.yul\":19606:19607   */\n      0x01\n        /* \"#utility.yul\":19601:19945   */\n      dup2\n      eq\n      tag_376\n      jumpi\n        /* \"#utility.yul\":19393:19945   */\n      jump(tag_374)\n        /* \"#utility.yul\":19426:19592   */\n    tag_375:\n        /* \"#utility.yul\":19510:19514   */\n      0xff\n        /* \"#utility.yul\":19506:19515   */\n      not\n        /* \"#utility.yul\":19495:19504   */\n      dup4\n        /* \"#utility.yul\":19491:19516   */\n      and\n        /* \"#utility.yul\":19486:19489   */\n      dup7\n        /* \"#utility.yul\":19479:19517   */\n      mstore\n        /* \"#utility.yul\":19572:19578   */\n      dup2\n        /* \"#utility.yul\":19565:19579   */\n      iszero\n        /* \"#utility.yul\":19558:19580   */\n      iszero\n        /* \"#utility.yul\":19550:19556   */\n      dup3\n        /* \"#utility.yul\":19546:19581   */\n      mul\n        /* \"#utility.yul\":19541:19544   */\n      dup7\n        /* \"#utility.yul\":19537:19582   */\n      add\n        /* \"#utility.yul\":19530:19582   */\n      swap4\n      pop\n        /* \"#utility.yul\":19426:19592   */\n      jump(tag_374)\n        /* \"#utility.yul\":19601:19945   */\n    tag_376:\n        /* \"#utility.yul\":19668:19709   */\n      tag_377\n        /* \"#utility.yul\":19703:19708   */\n      dup6\n        /* \"#utility.yul\":19668:19709   */\n      tag_191\n      jump\t// in\n    tag_377:\n        /* \"#utility.yul\":19731:19732   */\n      0x00\n        /* \"#utility.yul\":19745:19899   */\n    tag_378:\n        /* \"#utility.yul\":19759:19765   */\n      dup4\n        /* \"#utility.yul\":19756:19757   */\n      dup2\n        /* \"#utility.yul\":19753:19766   */\n      lt\n        /* \"#utility.yul\":19745:19899   */\n      iszero\n      tag_380\n      jumpi\n        /* \"#utility.yul\":19833:19840   */\n      dup2\n        /* \"#utility.yul\":19827:19841   */\n      sload\n        /* \"#utility.yul\":19823:19824   */\n      dup2\n        /* \"#utility.yul\":19818:19821   */\n      dup10\n        /* \"#utility.yul\":19814:19825   */\n      add\n        /* \"#utility.yul\":19807:19842   */\n      mstore\n        /* \"#utility.yul\":19883:19884   */\n      0x01\n        /* \"#utility.yul\":19874:19881   */\n      dup3\n        /* \"#utility.yul\":19870:19885   */\n      add\n        /* \"#utility.yul\":19859:19885   */\n      swap2\n      pop\n        /* \"#utility.yul\":19781:19785   */\n      0x20\n        /* \"#utility.yul\":19778:19779   */\n      dup2\n        /* \"#utility.yul\":19774:19786   */\n      add\n        /* \"#utility.yul\":19769:19786   */\n      swap1\n      pop\n        /* \"#utility.yul\":19745:19899   */\n      jump(tag_378)\n    tag_380:\n        /* \"#utility.yul\":19928:19934   */\n      dup4\n        /* \"#utility.yul\":19923:19926   */\n      dup9\n        /* \"#utility.yul\":19919:19935   */\n      add\n        /* \"#utility.yul\":19912:19935   */\n      swap6\n      pop\n        /* \"#utility.yul\":19608:19945   */\n      pop\n      pop\n        /* \"#utility.yul\":19393:19945   */\n    tag_374:\n      pop\n        /* \"#utility.yul\":19182:19951   */\n      pop\n      pop\n        /* \"#utility.yul\":19073:19951   */\n      swap3\n      swap2\n      pop\n      pop\n      jump\t// out\n        /* \"#utility.yul\":19957:20230   */\n    tag_129:\n        /* \"#utility.yul\":20088:20091   */\n      0x00\n        /* \"#utility.yul\":20110:20204   */\n      tag_382\n        /* \"#utility.yul\":20200:20203   */\n      dup3\n        /* \"#utility.yul\":20191:20197   */\n      dup5\n        /* \"#utility.yul\":20110:20204   */\n      tag_192\n      jump\t// in\n    tag_382:\n        /* \"#utility.yul\":20103:20204   */\n      swap2\n      pop\n        /* \"#utility.yul\":20221:20224   */\n      dup2\n        /* \"#utility.yul\":20214:20224   */\n      swap1\n      pop\n        /* \"#utility.yul\":19957:20230   */\n      swap3\n      swap2\n      pop\n      pop\n      jump\t// out\n        /* \"#utility.yul\":20236:20405   */\n    tag_193:\n        /* \"#utility.yul\":20376:20397   */\n      0x43616e646964617465206e6f7420666f756e6400000000000000000000000000\n        /* \"#utility.yul\":20372:20373   */\n      0x00\n        /* \"#utility.yul\":20364:20370   */\n      dup3\n        /* \"#utility.yul\":20360:20374   */\n      add\n        /* \"#utility.yul\":20353:20398   */\n      mstore\n        /* \"#utility.yul\":20236:20405   */\n      pop\n      jump\t// out\n        /* \"#utility.yul\":20411:20777   */\n    tag_194:\n        /* \"#utility.yul\":20553:20556   */\n      0x00\n        /* \"#utility.yul\":20574:20641   */\n      tag_385\n        /* \"#utility.yul\":20638:20640   */\n      0x13\n        /* \"#utility.yul\":20633:20636   */\n      dup4\n        /* \"#utility.yul\":20574:20641   */\n      tag_161\n      jump\t// in\n    tag_385:\n        /* \"#utility.yul\":20567:20641   */\n      swap2\n      pop\n        /* \"#utility.yul\":20650:20743   */\n      tag_386\n        /* \"#utility.yul\":20739:20742   */\n      dup3\n        /* \"#utility.yul\":20650:20743   */\n      tag_193\n      jump\t// in\n    tag_386:\n        /* \"#utility.yul\":20768:20770   */\n      0x20\n        /* \"#utility.yul\":20763:20766   */\n      dup3\n        /* \"#utility.yul\":20759:20771   */\n      add\n        /* \"#utility.yul\":20752:20771   */\n      swap1\n      pop\n        /* \"#utility.yul\":20411:20777   */\n      swap2\n      swap1\n      pop\n      jump\t// out\n        /* \"#utility.yul\":20783:21202   */\n    tag_133:\n        /* \"#utility.yul\":20949:20953   */\n      0x00\n        /* \"#utility.yul\":20987:20989   */\n      0x20\n        /* \"#utility.yul\":20976:20985   */\n      dup3\n        /* \"#utility.yul\":20972:20990   */\n      add\n        /* \"#utility.yul\":20964:20990   */\n      swap1\n      pop\n        /* \"#utility.yul\":21036:21045   */\n      dup2\n        /* \"#utility.yul\":21030:21034   */\n      dup2\n        /* \"#utility.yul\":21026:21046   */\n      sub\n        /* \"#utility.yul\":21022:21023   */\n      0x00\n        /* \"#utility.yul\":21011:21020   */\n      dup4\n        /* \"#utility.yul\":21007:21024   */\n      add\n        /* \"#utility.yul\":21000:21047   */\n      mstore\n        /* \"#utility.yul\":21064:21195   */\n      tag_388\n        /* \"#utility.yul\":21190:21194   */\n      dup2\n        /* \"#utility.yul\":21064:21195   */\n      tag_194\n      jump\t// in\n    tag_388:\n        /* \"#utility.yul\":21056:21195   */\n      swap1\n      pop\n        /* \"#utility.yul\":20783:21202   */\n      swap2\n      swap1\n      pop\n      jump\t// out\n        /* \"#utility.yul\":21208:21388   */\n    tag_195:\n        /* \"#utility.yul\":21256:21333   */\n      0x4e487b7100000000000000000000000000000000000000000000000000000000\n        /* \"#utility.yul\":21253:21254   */\n      0x00\n        /* \"#utility.yul\":21246:21334   */\n      mstore\n        /* \"#utility.yul\":21353:21357   */\n      0x11\n        /* \"#utility.yul\":21350:21351   */\n      0x04\n        /* \"#utility.yul\":21343:21358   */\n      mstore\n        /* \"#utility.yul\":21377:21381   */\n      0x24\n        /* \"#utility.yul\":21374:21375   */\n      0x00\n        /* \"#utility.yul\":21367:21382   */\n      revert\n        /* \"#utility.yul\":21394:21627   */\n    tag_136:\n        /* \"#utility.yul\":21433:21436   */\n      0x00\n        /* \"#utility.yul\":21456:21480   */\n      tag_391\n        /* \"#utility.yul\":21474:21479   */\n      dup3\n        /* \"#utility.yul\":21456:21480   */\n      tag_158\n      jump\t// in\n    tag_391:\n        /* \"#utility.yul\":21447:21480   */\n      swap2\n      pop\n        /* \"#utility.yul\":21502:21568   */\n      0xffffffffffffffffffffffffffffffffffffffffffffffffffffffffffffffff\n        /* \"#utility.yul\":21495:21500   */\n      dup3\n        /* \"#utility.yul\":21492:21569   */\n      sub\n        /* \"#utility.yul\":21489:21592   */\n      tag_392\n      jumpi\n        /* \"#utility.yul\":21572:21590   */\n      tag_393\n      tag_195\n      jump\t// in\n    tag_393:\n        /* \"#utility.yul\":21489:21592   */\n    tag_392:\n        /* \"#utility.yul\":21619:21620   */\n      0x01\n        /* \"#utility.yul\":21612:21617   */\n      dup3\n        /* \"#utility.yul\":21608:21621   */\n      add\n        /* \"#utility.yul\":21601:21621   */\n      swap1\n      pop\n        /* \"#utility.yul\":21394:21627   */\n      swap2\n      swap1\n      pop\n      jump\t// out\n\n    auxdata: 0xa2646970667358221220c83e4cd00fa47e681eee4f15ffa47b283ab5a5bcb892ab62a0b4834e43aa7e6b64736f6c634300081a0033\n}\n",
				"bytecode": {
					"linkReferences": {},
					"object": "608060405234801561000f575f80fd5b50604051611c86380380611c86833981810160405281019061003191906103a7565b335f806101000a81548173ffffffffffffffffffffffffffffffffffffffff021916908373ffffffffffffffffffffffffffffffffffffffff16021790555080600290805190602001906100869291906100a6565b505f8060146101000a81548160ff021916908315150217905550506106ca565b828054828255905f5260205f209081019282156100ec579160200282015b828111156100eb5782518290816100db91906105fb565b50916020019190600101906100c4565b5b5090506100f991906100fd565b5090565b5b8082111561011c575f81816101139190610120565b506001016100fe565b5090565b50805461012c90610425565b5f825580601f1061013d575061015a565b601f0160209004905f5260205f2090810190610159919061015d565b5b50565b5b80821115610174575f815f90555060010161015e565b5090565b5f604051905090565b5f80fd5b5f80fd5b5f80fd5b5f601f19601f8301169050919050565b7f4e487b71000000000000000000000000000000000000000000000000000000005f52604160045260245ffd5b6101d38261018d565b810181811067ffffffffffffffff821117156101f2576101f161019d565b5b80604052505050565b5f610204610178565b905061021082826101ca565b919050565b5f67ffffffffffffffff82111561022f5761022e61019d565b5b602082029050602081019050919050565b5f80fd5b5f80fd5b5f67ffffffffffffffff8211156102625761026161019d565b5b61026b8261018d565b9050602081019050919050565b8281835e5f83830152505050565b5f61029861029384610248565b6101fb565b9050828152602081018484840111156102b4576102b3610244565b5b6102bf848285610278565b509392505050565b5f82601f8301126102db576102da610189565b5b81516102eb848260208601610286565b91505092915050565b5f61030661030184610215565b6101fb565b9050808382526020820190506020840283018581111561032957610328610240565b5b835b8181101561037057805167ffffffffffffffff81111561034e5761034d610189565b5b80860161035b89826102c7565b8552602085019450505060208101905061032b565b5050509392505050565b5f82601f83011261038e5761038d610189565b5b815161039e8482602086016102f4565b91505092915050565b5f602082840312156103bc576103bb610181565b5b5f82015167ffffffffffffffff8111156103d9576103d8610185565b5b6103e58482850161037a565b91505092915050565b5f81519050919050565b7f4e487b71000000000000000000000000000000000000000000000000000000005f52602260045260245ffd5b5f600282049050600182168061043c57607f821691505b60208210810361044f5761044e6103f8565b5b50919050565b5f819050815f5260205f209050919050565b5f6020601f8301049050919050565b5f82821b905092915050565b5f600883026104b17fffffffffffffffffffffffffffffffffffffffffffffffffffffffffffffffff82610476565b6104bb8683610476565b95508019841693508086168417925050509392505050565b5f819050919050565b5f819050919050565b5f6104ff6104fa6104f5846104d3565b6104dc565b6104d3565b9050919050565b5f819050919050565b610518836104e5565b61052c61052482610506565b848454610482565b825550505050565b5f90565b610540610534565b61054b81848461050f565b505050565b5b8181101561056e576105635f82610538565b600181019050610551565b5050565b601f8211156105b35761058481610455565b61058d84610467565b8101602085101561059c578190505b6105b06105a885610467565b830182610550565b50505b505050565b5f82821c905092915050565b5f6105d35f19846008026105b8565b1980831691505092915050565b5f6105eb83836105c4565b9150826002028217905092915050565b610604826103ee565b67ffffffffffffffff81111561061d5761061c61019d565b5b6106278254610425565b610632828285610572565b5f60209050601f831160018114610663575f8415610651578287015190505b61065b85826105e0565b8655506106c2565b601f19841661067186610455565b5f5b8281101561069857848901518255600182019150602085019450602081019050610673565b868310156106b557848901516106b1601f8916826105c4565b8355505b6001600288020188555050505b505050505050565b6115af806106d75f395ff3fe608060405234801561000f575f80fd5b50600436106100a7575f3560e01c80638da5cb5b1161006f5780638da5cb5b14610163578063b952e7d814610181578063ba7f75521461018b578063c3c5a547146101bb578063e962414f146101eb578063fc36e15b1461021b576100a7565b806309eef43e146100ab5780632e6997fe146100db5780633477ee2e146100f957806338db6dd3146101295780635f58959914610145575b5f80fd5b6100c560048036038101906100c09190610b34565b610237565b6040516100d29190610b79565b60405180910390f35b6100e3610254565b6040516100f09190610cbd565b60405180910390f35b610113600480360381019061010e9190610d10565b610328565b6040516101209190610d83565b60405180910390f35b610143600480360381019061013e9190610b34565b6103ce565b005b61014d610574565b60405161015a9190610b79565b60405180910390f35b61016b610586565b6040516101789190610db2565b60405180910390f35b6101896105a9565b005b6101a560048036038101906101a09190610ef7565b610777565b6040516101b29190610f4d565b60405180910390f35b6101d560048036038101906101d09190610b34565b6107a4565b6040516101e29190610b79565b60405180910390f35b61020560048036038101906102009190610ef7565b6107c1565b6040516102129190610f4d565b60405180910390f35b61023560048036038101906102309190610ef7565b6107e8565b005b6003602052805f5260405f205f915054906101000a900460ff1681565b60606002805480602002602001604051908101604052809291908181526020015f905b8282101561031f578382905f5260205f2001805461029490610f93565b80601f01602080910402602001604051908101604052809291908181526020018280546102c090610f93565b801561030b5780601f106102e25761010080835404028352916020019161030b565b820191905f5260205f20905b8154815290600101906020018083116102ee57829003601f168201915b505050505081526020019060010190610277565b50505050905090565b60028181548110610337575f80fd5b905f5260205f20015f91509050805461034f90610f93565b80601f016020809104026020016040519081016040528092919081815260200182805461037b90610f93565b80156103c65780601f1061039d576101008083540402835291602001916103c6565b820191905f5260205f20905b8154815290600101906020018083116103a957829003601f168201915b505050505081565b5f8054906101000a900473ffffffffffffffffffffffffffffffffffffffff1673ffffffffffffffffffffffffffffffffffffffff163373ffffffffffffffffffffffffffffffffffffffff161461045b576040517f08c379a000000000000000000000000000000000000000000000000000000000815260040161045290611033565b60405180910390fd5b60045f8273ffffffffffffffffffffffffffffffffffffffff1673ffffffffffffffffffffffffffffffffffffffff1681526020019081526020015f205f9054906101000a900460ff16156104e5576040517f08c379a00000000000000000000000000000000000000000000000000000000081526004016104dc9061109b565b60405180910390fd5b600160045f8373ffffffffffffffffffffffffffffffffffffffff1673ffffffffffffffffffffffffffffffffffffffff1681526020019081526020015f205f6101000a81548160ff0219169083151502179055507fadf807bc3dad4ebe1eb90450f8e9aea7a3d0777eefa7f4512cb6bb311bfcff25816040516105699190610db2565b60405180910390a150565b5f60149054906101000a900460ff1681565b5f8054906101000a900473ffffffffffffffffffffffffffffffffffffffff1681565b5f8054906101000a900473ffffffffffffffffffffffffffffffffffffffff1673ffffffffffffffffffffffffffffffffffffffff163373ffffffffffffffffffffffffffffffffffffffff1614610636576040517f08c379a000000000000000000000000000000000000000000000000000000000815260040161062d90611033565b60405180910390fd5b5f60149054906101000a900460ff1615610685576040517f08c379a000000000000000000000000000000000000000000000000000000000815260040161067c90611129565b60405180910390fd5b60015f60146101000a81548160ff0219169083151502179055507f10689ac5c5ddc265da7f6b71f74017330ba8f045032a672f7350ee2aaf793a2c60405160405180910390a15f5b600280549050811015610774577f168d2a217e98d970b409a767f7bf42fb63f9354fb556cfd1fc8ed499d68bb7096002828154811061070f5761070e611147565b5b905f5260205f200160016002848154811061072d5761072c611147565b5b905f5260205f20016040516107429190611210565b90815260200160405180910390205460405161075f9291906112a7565b60405180910390a180806001019150506106cd565b50565b6001818051602081018201805184825260208301602085012081835280955050505050505f915090505481565b6004602052805f5260405f205f915054906101000a900460ff1681565b5f6001826040516107d29190611305565b9081526020016040518091039020549050919050565b60045f3373ffffffffffffffffffffffffffffffffffffffff1673ffffffffffffffffffffffffffffffffffffffff1681526020019081526020015f205f9054906101000a900460ff16610871576040517f08c379a000000000000000000000000000000000000000000000000000000000815260040161086890611365565b60405180910390fd5b5f60149054906101000a900460ff16156108c0576040517f08c379a00000000000000000000000000000000000000000000000000000000081526004016108b790611129565b60405180910390fd5b60035f3373ffffffffffffffffffffffffffffffffffffffff1673ffffffffffffffffffffffffffffffffffffffff1681526020019081526020015f205f9054906101000a900460ff161561094a576040517f08c379a0000000000000000000000000000000000000000000000000000000008152600401610941906113cd565b60405180910390fd5b5f805b6002805490508110156109ae5782805190602001206002828154811061097657610975611147565b5b905f5260205f200160405161098b9190611487565b6040518091039020036109a157600191506109ae565b808060010191505061094d565b50806109ef576040517f08c379a00000000000000000000000000000000000000000000000000000000081526004016109e6906114e7565b60405180910390fd5b6001826040516109ff9190611305565b90815260200160405180910390205f815480929190610a1d90611532565b9190505550600160035f3373ffffffffffffffffffffffffffffffffffffffff1673ffffffffffffffffffffffffffffffffffffffff1681526020019081526020015f205f6101000a81548160ff0219169083151502179055503373ffffffffffffffffffffffffffffffffffffffff167fb7821d50dfbda5ea310faebbeac5217bc1bb0cabe463e76b80e48d11e57df09883604051610abd9190610d83565b60405180910390a25050565b5f604051905090565b5f80fd5b5f80fd5b5f73ffffffffffffffffffffffffffffffffffffffff82169050919050565b5f610b0382610ada565b9050919050565b610b1381610af9565b8114610b1d575f80fd5b50565b5f81359050610b2e81610b0a565b92915050565b5f60208284031215610b4957610b48610ad2565b5b5f610b5684828501610b20565b91505092915050565b5f8115159050919050565b610b7381610b5f565b82525050565b5f602082019050610b8c5f830184610b6a565b92915050565b5f81519050919050565b5f82825260208201905092915050565b5f819050602082019050919050565b5f81519050919050565b5f82825260208201905092915050565b8281835e5f83830152505050565b5f601f19601f8301169050919050565b5f610bfd82610bbb565b610c078185610bc5565b9350610c17818560208601610bd5565b610c2081610be3565b840191505092915050565b5f610c368383610bf3565b905092915050565b5f602082019050919050565b5f610c5482610b92565b610c5e8185610b9c565b935083602082028501610c7085610bac565b805f5b85811015610cab5784840389528151610c8c8582610c2b565b9450610c9783610c3e565b925060208a01995050600181019050610c73565b50829750879550505050505092915050565b5f6020820190508181035f830152610cd58184610c4a565b905092915050565b5f819050919050565b610cef81610cdd565b8114610cf9575f80fd5b50565b5f81359050610d0a81610ce6565b92915050565b5f60208284031215610d2557610d24610ad2565b5b5f610d3284828501610cfc565b91505092915050565b5f82825260208201905092915050565b5f610d5582610bbb565b610d5f8185610d3b565b9350610d6f818560208601610bd5565b610d7881610be3565b840191505092915050565b5f6020820190508181035f830152610d9b8184610d4b565b905092915050565b610dac81610af9565b82525050565b5f602082019050610dc55f830184610da3565b92915050565b5f80fd5b5f80fd5b7f4e487b71000000000000000000000000000000000000000000000000000000005f52604160045260245ffd5b610e0982610be3565b810181811067ffffffffffffffff82111715610e2857610e27610dd3565b5b80604052505050565b5f610e3a610ac9565b9050610e468282610e00565b919050565b5f67ffffffffffffffff821115610e6557610e64610dd3565b5b610e6e82610be3565b9050602081019050919050565b828183375f83830152505050565b5f610e9b610e9684610e4b565b610e31565b905082815260208101848484011115610eb757610eb6610dcf565b5b610ec2848285610e7b565b509392505050565b5f82601f830112610ede57610edd610dcb565b5b8135610eee848260208601610e89565b91505092915050565b5f60208284031215610f0c57610f0b610ad2565b5b5f82013567ffffffffffffffff811115610f2957610f28610ad6565b5b610f3584828501610eca565b91505092915050565b610f4781610cdd565b82525050565b5f602082019050610f605f830184610f3e565b92915050565b7f4e487b71000000000000000000000000000000000000000000000000000000005f52602260045260245ffd5b5f6002820490506001821680610faa57607f821691505b602082108103610fbd57610fbc610f66565b5b50919050565b7f4f6e6c79206f776e65722063616e20706572666f726d207468697320616374695f8201527f6f6e000000000000000000000000000000000000000000000000000000000000602082015250565b5f61101d602283610d3b565b915061102882610fc3565b604082019050919050565b5f6020820190508181035f83015261104a81611011565b9050919050565b7f566f74657220616c7265616479207265676973746572656400000000000000005f82015250565b5f611085601883610d3b565b915061109082611051565b602082019050919050565b5f6020820190508181035f8301526110b281611079565b9050919050565b7f526573756c7473206861766520616c7265616479206265656e207075626c69735f8201527f6865640000000000000000000000000000000000000000000000000000000000602082015250565b5f611113602383610d3b565b915061111e826110b9565b604082019050919050565b5f6020820190508181035f83015261114081611107565b9050919050565b7f4e487b71000000000000000000000000000000000000000000000000000000005f52603260045260245ffd5b5f81905092915050565b5f819050815f5260205f209050919050565b5f815461119c81610f93565b6111a68186611174565b9450600182165f81146111c057600181146111d557611207565b60ff1983168652811515820286019350611207565b6111de8561117e565b5f5b838110156111ff578154818901526001820191506020810190506111e0565b838801955050505b50505092915050565b5f61121b8284611190565b915081905092915050565b5f815461123281610f93565b61123c8186610d3b565b9450600182165f8114611256576001811461126c5761129e565b60ff19831686528115156020028601935061129e565b6112758561117e565b5f5b8381101561129657815481890152600182019150602081019050611277565b808801955050505b50505092915050565b5f6040820190508181035f8301526112bf8185611226565b90506112ce6020830184610f3e565b9392505050565b5f6112df82610bbb565b6112e98185611174565b93506112f9818560208601610bd5565b80840191505092915050565b5f61131082846112d5565b915081905092915050565b7f4e6f742061207265676973746572656420766f746572000000000000000000005f82015250565b5f61134f601683610d3b565b915061135a8261131b565b602082019050919050565b5f6020820190508181035f83015261137c81611343565b9050919050565b7f416c726561647920766f746564000000000000000000000000000000000000005f82015250565b5f6113b7600d83610d3b565b91506113c282611383565b602082019050919050565b5f6020820190508181035f8301526113e4816113ab565b9050919050565b5f81905092915050565b5f819050815f5260205f209050919050565b5f815461141381610f93565b61141d81866113eb565b9450600182165f8114611437576001811461144c5761147e565b60ff198316865281151582028601935061147e565b611455856113f5565b5f5b8381101561147657815481890152600182019150602081019050611457565b838801955050505b50505092915050565b5f6114928284611407565b915081905092915050565b7f43616e646964617465206e6f7420666f756e64000000000000000000000000005f82015250565b5f6114d1601383610d3b565b91506114dc8261149d565b602082019050919050565b5f6020820190508181035f8301526114fe816114c5565b9050919050565b7f4e487b71000000000000000000000000000000000000000000000000000000005f52601160045260245ffd5b5f61153c82610cdd565b91507fffffffffffffffffffffffffffffffffffffffffffffffffffffffffffffffff820361156e5761156d611505565b5b60018201905091905056fea2646970667358221220c83e4cd00fa47e681eee4f15ffa47b283ab5a5bcb892ab62a0b4834e43aa7e6b64736f6c634300081a0033",
					"opcodes": "PUSH1 0x80 PUSH1 0x40 MSTORE CALLVALUE DUP1 ISZERO PUSH2 0xF JUMPI PUSH0 DUP1 REVERT JUMPDEST POP PUSH1 0x40 MLOAD PUSH2 0x1C86 CODESIZE SUB DUP1 PUSH2 0x1C86 DUP4 CODECOPY DUP2 DUP2 ADD PUSH1 0x40 MSTORE DUP2 ADD SWAP1 PUSH2 0x31 SWAP2 SWAP1 PUSH2 0x3A7 JUMP JUMPDEST CALLER PUSH0 DUP1 PUSH2 0x100 EXP DUP2 SLOAD DUP2 PUSH20 0xFFFFFFFFFFFFFFFFFFFFFFFFFFFFFFFFFFFFFFFF MUL NOT AND SWAP1 DUP4 PUSH20 0xFFFFFFFFFFFFFFFFFFFFFFFFFFFFFFFFFFFFFFFF AND MUL OR SWAP1 SSTORE POP DUP1 PUSH1 0x2 SWAP1 DUP1 MLOAD SWAP1 PUSH1 0x20 ADD SWAP1 PUSH2 0x86 SWAP3 SWAP2 SWAP1 PUSH2 0xA6 JUMP JUMPDEST POP PUSH0 DUP1 PUSH1 0x14 PUSH2 0x100 EXP DUP2 SLOAD DUP2 PUSH1 0xFF MUL NOT AND SWAP1 DUP4 ISZERO ISZERO MUL OR SWAP1 SSTORE POP POP PUSH2 0x6CA JUMP JUMPDEST DUP3 DUP1 SLOAD DUP3 DUP3 SSTORE SWAP1 PUSH0 MSTORE PUSH1 0x20 PUSH0 KECCAK256 SWAP1 DUP2 ADD SWAP3 DUP3 ISZERO PUSH2 0xEC JUMPI SWAP2 PUSH1 0x20 MUL DUP3 ADD JUMPDEST DUP3 DUP2 GT ISZERO PUSH2 0xEB JUMPI DUP3 MLOAD DUP3 SWAP1 DUP2 PUSH2 0xDB SWAP2 SWAP1 PUSH2 0x5FB JUMP JUMPDEST POP SWAP2 PUSH1 0x20 ADD SWAP2 SWAP1 PUSH1 0x1 ADD SWAP1 PUSH2 0xC4 JUMP JUMPDEST JUMPDEST POP SWAP1 POP PUSH2 0xF9 SWAP2 SWAP1 PUSH2 0xFD JUMP JUMPDEST POP SWAP1 JUMP JUMPDEST JUMPDEST DUP1 DUP3 GT ISZERO PUSH2 0x11C JUMPI PUSH0 DUP2 DUP2 PUSH2 0x113 SWAP2 SWAP1 PUSH2 0x120 JUMP JUMPDEST POP PUSH1 0x1 ADD PUSH2 0xFE JUMP JUMPDEST POP SWAP1 JUMP JUMPDEST POP DUP1 SLOAD PUSH2 0x12C SWAP1 PUSH2 0x425 JUMP JUMPDEST PUSH0 DUP3 SSTORE DUP1 PUSH1 0x1F LT PUSH2 0x13D JUMPI POP PUSH2 0x15A JUMP JUMPDEST PUSH1 0x1F ADD PUSH1 0x20 SWAP1 DIV SWAP1 PUSH0 MSTORE PUSH1 0x20 PUSH0 KECCAK256 SWAP1 DUP2 ADD SWAP1 PUSH2 0x159 SWAP2 SWAP1 PUSH2 0x15D JUMP JUMPDEST JUMPDEST POP JUMP JUMPDEST JUMPDEST DUP1 DUP3 GT ISZERO PUSH2 0x174 JUMPI PUSH0 DUP2 PUSH0 SWAP1 SSTORE POP PUSH1 0x1 ADD PUSH2 0x15E JUMP JUMPDEST POP SWAP1 JUMP JUMPDEST PUSH0 PUSH1 0x40 MLOAD SWAP1 POP SWAP1 JUMP JUMPDEST PUSH0 DUP1 REVERT JUMPDEST PUSH0 DUP1 REVERT JUMPDEST PUSH0 DUP1 REVERT JUMPDEST PUSH0 PUSH1 0x1F NOT PUSH1 0x1F DUP4 ADD AND SWAP1 POP SWAP2 SWAP1 POP JUMP JUMPDEST PUSH32 0x4E487B7100000000000000000000000000000000000000000000000000000000 PUSH0 MSTORE PUSH1 0x41 PUSH1 0x4 MSTORE PUSH1 0x24 PUSH0 REVERT JUMPDEST PUSH2 0x1D3 DUP3 PUSH2 0x18D JUMP JUMPDEST DUP2 ADD DUP2 DUP2 LT PUSH8 0xFFFFFFFFFFFFFFFF DUP3 GT OR ISZERO PUSH2 0x1F2 JUMPI PUSH2 0x1F1 PUSH2 0x19D JUMP JUMPDEST JUMPDEST DUP1 PUSH1 0x40 MSTORE POP POP POP JUMP JUMPDEST PUSH0 PUSH2 0x204 PUSH2 0x178 JUMP JUMPDEST SWAP1 POP PUSH2 0x210 DUP3 DUP3 PUSH2 0x1CA JUMP JUMPDEST SWAP2 SWAP1 POP JUMP JUMPDEST PUSH0 PUSH8 0xFFFFFFFFFFFFFFFF DUP3 GT ISZERO PUSH2 0x22F JUMPI PUSH2 0x22E PUSH2 0x19D JUMP JUMPDEST JUMPDEST PUSH1 0x20 DUP3 MUL SWAP1 POP PUSH1 0x20 DUP2 ADD SWAP1 POP SWAP2 SWAP1 POP JUMP JUMPDEST PUSH0 DUP1 REVERT JUMPDEST PUSH0 DUP1 REVERT JUMPDEST PUSH0 PUSH8 0xFFFFFFFFFFFFFFFF DUP3 GT ISZERO PUSH2 0x262 JUMPI PUSH2 0x261 PUSH2 0x19D JUMP JUMPDEST JUMPDEST PUSH2 0x26B DUP3 PUSH2 0x18D JUMP JUMPDEST SWAP1 POP PUSH1 0x20 DUP2 ADD SWAP1 POP SWAP2 SWAP1 POP JUMP JUMPDEST DUP3 DUP2 DUP4 MCOPY PUSH0 DUP4 DUP4 ADD MSTORE POP POP POP JUMP JUMPDEST PUSH0 PUSH2 0x298 PUSH2 0x293 DUP5 PUSH2 0x248 JUMP JUMPDEST PUSH2 0x1FB JUMP JUMPDEST SWAP1 POP DUP3 DUP2 MSTORE PUSH1 0x20 DUP2 ADD DUP5 DUP5 DUP5 ADD GT ISZERO PUSH2 0x2B4 JUMPI PUSH2 0x2B3 PUSH2 0x244 JUMP JUMPDEST JUMPDEST PUSH2 0x2BF DUP5 DUP3 DUP6 PUSH2 0x278 JUMP JUMPDEST POP SWAP4 SWAP3 POP POP POP JUMP JUMPDEST PUSH0 DUP3 PUSH1 0x1F DUP4 ADD SLT PUSH2 0x2DB JUMPI PUSH2 0x2DA PUSH2 0x189 JUMP JUMPDEST JUMPDEST DUP2 MLOAD PUSH2 0x2EB DUP5 DUP3 PUSH1 0x20 DUP7 ADD PUSH2 0x286 JUMP JUMPDEST SWAP2 POP POP SWAP3 SWAP2 POP POP JUMP JUMPDEST PUSH0 PUSH2 0x306 PUSH2 0x301 DUP5 PUSH2 0x215 JUMP JUMPDEST PUSH2 0x1FB JUMP JUMPDEST SWAP1 POP DUP1 DUP4 DUP3 MSTORE PUSH1 0x20 DUP3 ADD SWAP1 POP PUSH1 0x20 DUP5 MUL DUP4 ADD DUP6 DUP2 GT ISZERO PUSH2 0x329 JUMPI PUSH2 0x328 PUSH2 0x240 JUMP JUMPDEST JUMPDEST DUP4 JUMPDEST DUP2 DUP2 LT ISZERO PUSH2 0x370 JUMPI DUP1 MLOAD PUSH8 0xFFFFFFFFFFFFFFFF DUP2 GT ISZERO PUSH2 0x34E JUMPI PUSH2 0x34D PUSH2 0x189 JUMP JUMPDEST JUMPDEST DUP1 DUP7 ADD PUSH2 0x35B DUP10 DUP3 PUSH2 0x2C7 JUMP JUMPDEST DUP6 MSTORE PUSH1 0x20 DUP6 ADD SWAP5 POP POP POP PUSH1 0x20 DUP2 ADD SWAP1 POP PUSH2 0x32B JUMP JUMPDEST POP POP POP SWAP4 SWAP3 POP POP POP JUMP JUMPDEST PUSH0 DUP3 PUSH1 0x1F DUP4 ADD SLT PUSH2 0x38E JUMPI PUSH2 0x38D PUSH2 0x189 JUMP JUMPDEST JUMPDEST DUP2 MLOAD PUSH2 0x39E DUP5 DUP3 PUSH1 0x20 DUP7 ADD PUSH2 0x2F4 JUMP JUMPDEST SWAP2 POP POP SWAP3 SWAP2 POP POP JUMP JUMPDEST PUSH0 PUSH1 0x20 DUP3 DUP5 SUB SLT ISZERO PUSH2 0x3BC JUMPI PUSH2 0x3BB PUSH2 0x181 JUMP JUMPDEST JUMPDEST PUSH0 DUP3 ADD MLOAD PUSH8 0xFFFFFFFFFFFFFFFF DUP2 GT ISZERO PUSH2 0x3D9 JUMPI PUSH2 0x3D8 PUSH2 0x185 JUMP JUMPDEST JUMPDEST PUSH2 0x3E5 DUP5 DUP3 DUP6 ADD PUSH2 0x37A JUMP JUMPDEST SWAP2 POP POP SWAP3 SWAP2 POP POP JUMP JUMPDEST PUSH0 DUP2 MLOAD SWAP1 POP SWAP2 SWAP1 POP JUMP JUMPDEST PUSH32 0x4E487B7100000000000000000000000000000000000000000000000000000000 PUSH0 MSTORE PUSH1 0x22 PUSH1 0x4 MSTORE PUSH1 0x24 PUSH0 REVERT JUMPDEST PUSH0 PUSH1 0x2 DUP3 DIV SWAP1 POP PUSH1 0x1 DUP3 AND DUP1 PUSH2 0x43C JUMPI PUSH1 0x7F DUP3 AND SWAP2 POP JUMPDEST PUSH1 0x20 DUP3 LT DUP2 SUB PUSH2 0x44F JUMPI PUSH2 0x44E PUSH2 0x3F8 JUMP JUMPDEST JUMPDEST POP SWAP2 SWAP1 POP JUMP JUMPDEST PUSH0 DUP2 SWAP1 POP DUP2 PUSH0 MSTORE PUSH1 0x20 PUSH0 KECCAK256 SWAP1 POP SWAP2 SWAP1 POP JUMP JUMPDEST PUSH0 PUSH1 0x20 PUSH1 0x1F DUP4 ADD DIV SWAP1 POP SWAP2 SWAP1 POP JUMP JUMPDEST PUSH0 DUP3 DUP3 SHL SWAP1 POP SWAP3 SWAP2 POP POP JUMP JUMPDEST PUSH0 PUSH1 0x8 DUP4 MUL PUSH2 0x4B1 PUSH32 0xFFFFFFFFFFFFFFFFFFFFFFFFFFFFFFFFFFFFFFFFFFFFFFFFFFFFFFFFFFFFFFFF DUP3 PUSH2 0x476 JUMP JUMPDEST PUSH2 0x4BB DUP7 DUP4 PUSH2 0x476 JUMP JUMPDEST SWAP6 POP DUP1 NOT DUP5 AND SWAP4 POP DUP1 DUP7 AND DUP5 OR SWAP3 POP POP POP SWAP4 SWAP3 POP POP POP JUMP JUMPDEST PUSH0 DUP2 SWAP1 POP SWAP2 SWAP1 POP JUMP JUMPDEST PUSH0 DUP2 SWAP1 POP SWAP2 SWAP1 POP JUMP JUMPDEST PUSH0 PUSH2 0x4FF PUSH2 0x4FA PUSH2 0x4F5 DUP5 PUSH2 0x4D3 JUMP JUMPDEST PUSH2 0x4DC JUMP JUMPDEST PUSH2 0x4D3 JUMP JUMPDEST SWAP1 POP SWAP2 SWAP1 POP JUMP JUMPDEST PUSH0 DUP2 SWAP1 POP SWAP2 SWAP1 POP JUMP JUMPDEST PUSH2 0x518 DUP4 PUSH2 0x4E5 JUMP JUMPDEST PUSH2 0x52C PUSH2 0x524 DUP3 PUSH2 0x506 JUMP JUMPDEST DUP5 DUP5 SLOAD PUSH2 0x482 JUMP JUMPDEST DUP3 SSTORE POP POP POP POP JUMP JUMPDEST PUSH0 SWAP1 JUMP JUMPDEST PUSH2 0x540 PUSH2 0x534 JUMP JUMPDEST PUSH2 0x54B DUP2 DUP5 DUP5 PUSH2 0x50F JUMP JUMPDEST POP POP POP JUMP JUMPDEST JUMPDEST DUP2 DUP2 LT ISZERO PUSH2 0x56E JUMPI PUSH2 0x563 PUSH0 DUP3 PUSH2 0x538 JUMP JUMPDEST PUSH1 0x1 DUP2 ADD SWAP1 POP PUSH2 0x551 JUMP JUMPDEST POP POP JUMP JUMPDEST PUSH1 0x1F DUP3 GT ISZERO PUSH2 0x5B3 JUMPI PUSH2 0x584 DUP2 PUSH2 0x455 JUMP JUMPDEST PUSH2 0x58D DUP5 PUSH2 0x467 JUMP JUMPDEST DUP2 ADD PUSH1 0x20 DUP6 LT ISZERO PUSH2 0x59C JUMPI DUP2 SWAP1 POP JUMPDEST PUSH2 0x5B0 PUSH2 0x5A8 DUP6 PUSH2 0x467 JUMP JUMPDEST DUP4 ADD DUP3 PUSH2 0x550 JUMP JUMPDEST POP POP JUMPDEST POP POP POP JUMP JUMPDEST PUSH0 DUP3 DUP3 SHR SWAP1 POP SWAP3 SWAP2 POP POP JUMP JUMPDEST PUSH0 PUSH2 0x5D3 PUSH0 NOT DUP5 PUSH1 0x8 MUL PUSH2 0x5B8 JUMP JUMPDEST NOT DUP1 DUP4 AND SWAP2 POP POP SWAP3 SWAP2 POP POP JUMP JUMPDEST PUSH0 PUSH2 0x5EB DUP4 DUP4 PUSH2 0x5C4 JUMP JUMPDEST SWAP2 POP DUP3 PUSH1 0x2 MUL DUP3 OR SWAP1 POP SWAP3 SWAP2 POP POP JUMP JUMPDEST PUSH2 0x604 DUP3 PUSH2 0x3EE JUMP JUMPDEST PUSH8 0xFFFFFFFFFFFFFFFF DUP2 GT ISZERO PUSH2 0x61D JUMPI PUSH2 0x61C PUSH2 0x19D JUMP JUMPDEST JUMPDEST PUSH2 0x627 DUP3 SLOAD PUSH2 0x425 JUMP JUMPDEST PUSH2 0x632 DUP3 DUP3 DUP6 PUSH2 0x572 JUMP JUMPDEST PUSH0 PUSH1 0x20 SWAP1 POP PUSH1 0x1F DUP4 GT PUSH1 0x1 DUP2 EQ PUSH2 0x663 JUMPI PUSH0 DUP5 ISZERO PUSH2 0x651 JUMPI DUP3 DUP8 ADD MLOAD SWAP1 POP JUMPDEST PUSH2 0x65B DUP6 DUP3 PUSH2 0x5E0 JUMP JUMPDEST DUP7 SSTORE POP PUSH2 0x6C2 JUMP JUMPDEST PUSH1 0x1F NOT DUP5 AND PUSH2 0x671 DUP7 PUSH2 0x455 JUMP JUMPDEST PUSH0 JUMPDEST DUP3 DUP2 LT ISZERO PUSH2 0x698 JUMPI DUP5 DUP10 ADD MLOAD DUP3 SSTORE PUSH1 0x1 DUP3 ADD SWAP2 POP PUSH1 0x20 DUP6 ADD SWAP5 POP PUSH1 0x20 DUP2 ADD SWAP1 POP PUSH2 0x673 JUMP JUMPDEST DUP7 DUP4 LT ISZERO PUSH2 0x6B5 JUMPI DUP5 DUP10 ADD MLOAD PUSH2 0x6B1 PUSH1 0x1F DUP10 AND DUP3 PUSH2 0x5C4 JUMP JUMPDEST DUP4 SSTORE POP JUMPDEST PUSH1 0x1 PUSH1 0x2 DUP9 MUL ADD DUP9 SSTORE POP POP POP JUMPDEST POP POP POP POP POP POP JUMP JUMPDEST PUSH2 0x15AF DUP1 PUSH2 0x6D7 PUSH0 CODECOPY PUSH0 RETURN INVALID PUSH1 0x80 PUSH1 0x40 MSTORE CALLVALUE DUP1 ISZERO PUSH2 0xF JUMPI PUSH0 DUP1 REVERT JUMPDEST POP PUSH1 0x4 CALLDATASIZE LT PUSH2 0xA7 JUMPI PUSH0 CALLDATALOAD PUSH1 0xE0 SHR DUP1 PUSH4 0x8DA5CB5B GT PUSH2 0x6F JUMPI DUP1 PUSH4 0x8DA5CB5B EQ PUSH2 0x163 JUMPI DUP1 PUSH4 0xB952E7D8 EQ PUSH2 0x181 JUMPI DUP1 PUSH4 0xBA7F7552 EQ PUSH2 0x18B JUMPI DUP1 PUSH4 0xC3C5A547 EQ PUSH2 0x1BB JUMPI DUP1 PUSH4 0xE962414F EQ PUSH2 0x1EB JUMPI DUP1 PUSH4 0xFC36E15B EQ PUSH2 0x21B JUMPI PUSH2 0xA7 JUMP JUMPDEST DUP1 PUSH4 0x9EEF43E EQ PUSH2 0xAB JUMPI DUP1 PUSH4 0x2E6997FE EQ PUSH2 0xDB JUMPI DUP1 PUSH4 0x3477EE2E EQ PUSH2 0xF9 JUMPI DUP1 PUSH4 0x38DB6DD3 EQ PUSH2 0x129 JUMPI DUP1 PUSH4 0x5F589599 EQ PUSH2 0x145 JUMPI JUMPDEST PUSH0 DUP1 REVERT JUMPDEST PUSH2 0xC5 PUSH1 0x4 DUP1 CALLDATASIZE SUB DUP2 ADD SWAP1 PUSH2 0xC0 SWAP2 SWAP1 PUSH2 0xB34 JUMP JUMPDEST PUSH2 0x237 JUMP JUMPDEST PUSH1 0x40 MLOAD PUSH2 0xD2 SWAP2 SWAP1 PUSH2 0xB79 JUMP JUMPDEST PUSH1 0x40 MLOAD DUP1 SWAP2 SUB SWAP1 RETURN JUMPDEST PUSH2 0xE3 PUSH2 0x254 JUMP JUMPDEST PUSH1 0x40 MLOAD PUSH2 0xF0 SWAP2 SWAP1 PUSH2 0xCBD JUMP JUMPDEST PUSH1 0x40 MLOAD DUP1 SWAP2 SUB SWAP1 RETURN JUMPDEST PUSH2 0x113 PUSH1 0x4 DUP1 CALLDATASIZE SUB DUP2 ADD SWAP1 PUSH2 0x10E SWAP2 SWAP1 PUSH2 0xD10 JUMP JUMPDEST PUSH2 0x328 JUMP JUMPDEST PUSH1 0x40 MLOAD PUSH2 0x120 SWAP2 SWAP1 PUSH2 0xD83 JUMP JUMPDEST PUSH1 0x40 MLOAD DUP1 SWAP2 SUB SWAP1 RETURN JUMPDEST PUSH2 0x143 PUSH1 0x4 DUP1 CALLDATASIZE SUB DUP2 ADD SWAP1 PUSH2 0x13E SWAP2 SWAP1 PUSH2 0xB34 JUMP JUMPDEST PUSH2 0x3CE JUMP JUMPDEST STOP JUMPDEST PUSH2 0x14D PUSH2 0x574 JUMP JUMPDEST PUSH1 0x40 MLOAD PUSH2 0x15A SWAP2 SWAP1 PUSH2 0xB79 JUMP JUMPDEST PUSH1 0x40 MLOAD DUP1 SWAP2 SUB SWAP1 RETURN JUMPDEST PUSH2 0x16B PUSH2 0x586 JUMP JUMPDEST PUSH1 0x40 MLOAD PUSH2 0x178 SWAP2 SWAP1 PUSH2 0xDB2 JUMP JUMPDEST PUSH1 0x40 MLOAD DUP1 SWAP2 SUB SWAP1 RETURN JUMPDEST PUSH2 0x189 PUSH2 0x5A9 JUMP JUMPDEST STOP JUMPDEST PUSH2 0x1A5 PUSH1 0x4 DUP1 CALLDATASIZE SUB DUP2 ADD SWAP1 PUSH2 0x1A0 SWAP2 SWAP1 PUSH2 0xEF7 JUMP JUMPDEST PUSH2 0x777 JUMP JUMPDEST PUSH1 0x40 MLOAD PUSH2 0x1B2 SWAP2 SWAP1 PUSH2 0xF4D JUMP JUMPDEST PUSH1 0x40 MLOAD DUP1 SWAP2 SUB SWAP1 RETURN JUMPDEST PUSH2 0x1D5 PUSH1 0x4 DUP1 CALLDATASIZE SUB DUP2 ADD SWAP1 PUSH2 0x1D0 SWAP2 SWAP1 PUSH2 0xB34 JUMP JUMPDEST PUSH2 0x7A4 JUMP JUMPDEST PUSH1 0x40 MLOAD PUSH2 0x1E2 SWAP2 SWAP1 PUSH2 0xB79 JUMP JUMPDEST PUSH1 0x40 MLOAD DUP1 SWAP2 SUB SWAP1 RETURN JUMPDEST PUSH2 0x205 PUSH1 0x4 DUP1 CALLDATASIZE SUB DUP2 ADD SWAP1 PUSH2 0x200 SWAP2 SWAP1 PUSH2 0xEF7 JUMP JUMPDEST PUSH2 0x7C1 JUMP JUMPDEST PUSH1 0x40 MLOAD PUSH2 0x212 SWAP2 SWAP1 PUSH2 0xF4D JUMP JUMPDEST PUSH1 0x40 MLOAD DUP1 SWAP2 SUB SWAP1 RETURN JUMPDEST PUSH2 0x235 PUSH1 0x4 DUP1 CALLDATASIZE SUB DUP2 ADD SWAP1 PUSH2 0x230 SWAP2 SWAP1 PUSH2 0xEF7 JUMP JUMPDEST PUSH2 0x7E8 JUMP JUMPDEST STOP JUMPDEST PUSH1 0x3 PUSH1 0x20 MSTORE DUP1 PUSH0 MSTORE PUSH1 0x40 PUSH0 KECCAK256 PUSH0 SWAP2 POP SLOAD SWAP1 PUSH2 0x100 EXP SWAP1 DIV PUSH1 0xFF AND DUP2 JUMP JUMPDEST PUSH1 0x60 PUSH1 0x2 DUP1 SLOAD DUP1 PUSH1 0x20 MUL PUSH1 0x20 ADD PUSH1 0x40 MLOAD SWAP1 DUP2 ADD PUSH1 0x40 MSTORE DUP1 SWAP3 SWAP2 SWAP1 DUP2 DUP2 MSTORE PUSH1 0x20 ADD PUSH0 SWAP1 JUMPDEST DUP3 DUP3 LT ISZERO PUSH2 0x31F JUMPI DUP4 DUP3 SWAP1 PUSH0 MSTORE PUSH1 0x20 PUSH0 KECCAK256 ADD DUP1 SLOAD PUSH2 0x294 SWAP1 PUSH2 0xF93 JUMP JUMPDEST DUP1 PUSH1 0x1F ADD PUSH1 0x20 DUP1 SWAP2 DIV MUL PUSH1 0x20 ADD PUSH1 0x40 MLOAD SWAP1 DUP2 ADD PUSH1 0x40 MSTORE DUP1 SWAP3 SWAP2 SWAP1 DUP2 DUP2 MSTORE PUSH1 0x20 ADD DUP3 DUP1 SLOAD PUSH2 0x2C0 SWAP1 PUSH2 0xF93 JUMP JUMPDEST DUP1 ISZERO PUSH2 0x30B JUMPI DUP1 PUSH1 0x1F LT PUSH2 0x2E2 JUMPI PUSH2 0x100 DUP1 DUP4 SLOAD DIV MUL DUP4 MSTORE SWAP2 PUSH1 0x20 ADD SWAP2 PUSH2 0x30B JUMP JUMPDEST DUP3 ADD SWAP2 SWAP1 PUSH0 MSTORE PUSH1 0x20 PUSH0 KECCAK256 SWAP1 JUMPDEST DUP2 SLOAD DUP2 MSTORE SWAP1 PUSH1 0x1 ADD SWAP1 PUSH1 0x20 ADD DUP1 DUP4 GT PUSH2 0x2EE JUMPI DUP3 SWAP1 SUB PUSH1 0x1F AND DUP3 ADD SWAP2 JUMPDEST POP POP POP POP POP DUP2 MSTORE PUSH1 0x20 ADD SWAP1 PUSH1 0x1 ADD SWAP1 PUSH2 0x277 JUMP JUMPDEST POP POP POP POP SWAP1 POP SWAP1 JUMP JUMPDEST PUSH1 0x2 DUP2 DUP2 SLOAD DUP2 LT PUSH2 0x337 JUMPI PUSH0 DUP1 REVERT JUMPDEST SWAP1 PUSH0 MSTORE PUSH1 0x20 PUSH0 KECCAK256 ADD PUSH0 SWAP2 POP SWAP1 POP DUP1 SLOAD PUSH2 0x34F SWAP1 PUSH2 0xF93 JUMP JUMPDEST DUP1 PUSH1 0x1F ADD PUSH1 0x20 DUP1 SWAP2 DIV MUL PUSH1 0x20 ADD PUSH1 0x40 MLOAD SWAP1 DUP2 ADD PUSH1 0x40 MSTORE DUP1 SWAP3 SWAP2 SWAP1 DUP2 DUP2 MSTORE PUSH1 0x20 ADD DUP3 DUP1 SLOAD PUSH2 0x37B SWAP1 PUSH2 0xF93 JUMP JUMPDEST DUP1 ISZERO PUSH2 0x3C6 JUMPI DUP1 PUSH1 0x1F LT PUSH2 0x39D JUMPI PUSH2 0x100 DUP1 DUP4 SLOAD DIV MUL DUP4 MSTORE SWAP2 PUSH1 0x20 ADD SWAP2 PUSH2 0x3C6 JUMP JUMPDEST DUP3 ADD SWAP2 SWAP1 PUSH0 MSTORE PUSH1 0x20 PUSH0 KECCAK256 SWAP1 JUMPDEST DUP2 SLOAD DUP2 MSTORE SWAP1 PUSH1 0x1 ADD SWAP1 PUSH1 0x20 ADD DUP1 DUP4 GT PUSH2 0x3A9 JUMPI DUP3 SWAP1 SUB PUSH1 0x1F AND DUP3 ADD SWAP2 JUMPDEST POP POP POP POP POP DUP2 JUMP JUMPDEST PUSH0 DUP1 SLOAD SWAP1 PUSH2 0x100 EXP SWAP1 DIV PUSH20 0xFFFFFFFFFFFFFFFFFFFFFFFFFFFFFFFFFFFFFFFF AND PUSH20 0xFFFFFFFFFFFFFFFFFFFFFFFFFFFFFFFFFFFFFFFF AND CALLER PUSH20 0xFFFFFFFFFFFFFFFFFFFFFFFFFFFFFFFFFFFFFFFF AND EQ PUSH2 0x45B JUMPI PUSH1 0x40 MLOAD PUSH32 0x8C379A000000000000000000000000000000000000000000000000000000000 DUP2 MSTORE PUSH1 0x4 ADD PUSH2 0x452 SWAP1 PUSH2 0x1033 JUMP JUMPDEST PUSH1 0x40 MLOAD DUP1 SWAP2 SUB SWAP1 REVERT JUMPDEST PUSH1 0x4 PUSH0 DUP3 PUSH20 0xFFFFFFFFFFFFFFFFFFFFFFFFFFFFFFFFFFFFFFFF AND PUSH20 0xFFFFFFFFFFFFFFFFFFFFFFFFFFFFFFFFFFFFFFFF AND DUP2 MSTORE PUSH1 0x20 ADD SWAP1 DUP2 MSTORE PUSH1 0x20 ADD PUSH0 KECCAK256 PUSH0 SWAP1 SLOAD SWAP1 PUSH2 0x100 EXP SWAP1 DIV PUSH1 0xFF AND ISZERO PUSH2 0x4E5 JUMPI PUSH1 0x40 MLOAD PUSH32 0x8C379A000000000000000000000000000000000000000000000000000000000 DUP2 MSTORE PUSH1 0x4 ADD PUSH2 0x4DC SWAP1 PUSH2 0x109B JUMP JUMPDEST PUSH1 0x40 MLOAD DUP1 SWAP2 SUB SWAP1 REVERT JUMPDEST PUSH1 0x1 PUSH1 0x4 PUSH0 DUP4 PUSH20 0xFFFFFFFFFFFFFFFFFFFFFFFFFFFFFFFFFFFFFFFF AND PUSH20 0xFFFFFFFFFFFFFFFFFFFFFFFFFFFFFFFFFFFFFFFF AND DUP2 MSTORE PUSH1 0x20 ADD SWAP1 DUP2 MSTORE PUSH1 0x20 ADD PUSH0 KECCAK256 PUSH0 PUSH2 0x100 EXP DUP2 SLOAD DUP2 PUSH1 0xFF MUL NOT AND SWAP1 DUP4 ISZERO ISZERO MUL OR SWAP1 SSTORE POP PUSH32 0xADF807BC3DAD4EBE1EB90450F8E9AEA7A3D0777EEFA7F4512CB6BB311BFCFF25 DUP2 PUSH1 0x40 MLOAD PUSH2 0x569 SWAP2 SWAP1 PUSH2 0xDB2 JUMP JUMPDEST PUSH1 0x40 MLOAD DUP1 SWAP2 SUB SWAP1 LOG1 POP JUMP JUMPDEST PUSH0 PUSH1 0x14 SWAP1 SLOAD SWAP1 PUSH2 0x100 EXP SWAP1 DIV PUSH1 0xFF AND DUP2 JUMP JUMPDEST PUSH0 DUP1 SLOAD SWAP1 PUSH2 0x100 EXP SWAP1 DIV PUSH20 0xFFFFFFFFFFFFFFFFFFFFFFFFFFFFFFFFFFFFFFFF AND DUP2 JUMP JUMPDEST PUSH0 DUP1 SLOAD SWAP1 PUSH2 0x100 EXP SWAP1 DIV PUSH20 0xFFFFFFFFFFFFFFFFFFFFFFFFFFFFFFFFFFFFFFFF AND PUSH20 0xFFFFFFFFFFFFFFFFFFFFFFFFFFFFFFFFFFFFFFFF AND CALLER PUSH20 0xFFFFFFFFFFFFFFFFFFFFFFFFFFFFFFFFFFFFFFFF AND EQ PUSH2 0x636 JUMPI PUSH1 0x40 MLOAD PUSH32 0x8C379A000000000000000000000000000000000000000000000000000000000 DUP2 MSTORE PUSH1 0x4 ADD PUSH2 0x62D SWAP1 PUSH2 0x1033 JUMP JUMPDEST PUSH1 0x40 MLOAD DUP1 SWAP2 SUB SWAP1 REVERT JUMPDEST PUSH0 PUSH1 0x14 SWAP1 SLOAD SWAP1 PUSH2 0x100 EXP SWAP1 DIV PUSH1 0xFF AND ISZERO PUSH2 0x685 JUMPI PUSH1 0x40 MLOAD PUSH32 0x8C379A000000000000000000000000000000000000000000000000000000000 DUP2 MSTORE PUSH1 0x4 ADD PUSH2 0x67C SWAP1 PUSH2 0x1129 JUMP JUMPDEST PUSH1 0x40 MLOAD DUP1 SWAP2 SUB SWAP1 REVERT JUMPDEST PUSH1 0x1 PUSH0 PUSH1 0x14 PUSH2 0x100 EXP DUP2 SLOAD DUP2 PUSH1 0xFF MUL NOT AND SWAP1 DUP4 ISZERO ISZERO MUL OR SWAP1 SSTORE POP PUSH32 0x10689AC5C5DDC265DA7F6B71F74017330BA8F045032A672F7350EE2AAF793A2C PUSH1 0x40 MLOAD PUSH1 0x40 MLOAD DUP1 SWAP2 SUB SWAP1 LOG1 PUSH0 JUMPDEST PUSH1 0x2 DUP1 SLOAD SWAP1 POP DUP2 LT ISZERO PUSH2 0x774 JUMPI PUSH32 0x168D2A217E98D970B409A767F7BF42FB63F9354FB556CFD1FC8ED499D68BB709 PUSH1 0x2 DUP3 DUP2 SLOAD DUP2 LT PUSH2 0x70F JUMPI PUSH2 0x70E PUSH2 0x1147 JUMP JUMPDEST JUMPDEST SWAP1 PUSH0 MSTORE PUSH1 0x20 PUSH0 KECCAK256 ADD PUSH1 0x1 PUSH1 0x2 DUP5 DUP2 SLOAD DUP2 LT PUSH2 0x72D JUMPI PUSH2 0x72C PUSH2 0x1147 JUMP JUMPDEST JUMPDEST SWAP1 PUSH0 MSTORE PUSH1 0x20 PUSH0 KECCAK256 ADD PUSH1 0x40 MLOAD PUSH2 0x742 SWAP2 SWAP1 PUSH2 0x1210 JUMP JUMPDEST SWAP1 DUP2 MSTORE PUSH1 0x20 ADD PUSH1 0x40 MLOAD DUP1 SWAP2 SUB SWAP1 KECCAK256 SLOAD PUSH1 0x40 MLOAD PUSH2 0x75F SWAP3 SWAP2 SWAP1 PUSH2 0x12A7 JUMP JUMPDEST PUSH1 0x40 MLOAD DUP1 SWAP2 SUB SWAP1 LOG1 DUP1 DUP1 PUSH1 0x1 ADD SWAP2 POP POP PUSH2 0x6CD JUMP JUMPDEST POP JUMP JUMPDEST PUSH1 0x1 DUP2 DUP1 MLOAD PUSH1 0x20 DUP2 ADD DUP3 ADD DUP1 MLOAD DUP5 DUP3 MSTORE PUSH1 0x20 DUP4 ADD PUSH1 0x20 DUP6 ADD KECCAK256 DUP2 DUP4 MSTORE DUP1 SWAP6 POP POP POP POP POP POP PUSH0 SWAP2 POP SWAP1 POP SLOAD DUP2 JUMP JUMPDEST PUSH1 0x4 PUSH1 0x20 MSTORE DUP1 PUSH0 MSTORE PUSH1 0x40 PUSH0 KECCAK256 PUSH0 SWAP2 POP SLOAD SWAP1 PUSH2 0x100 EXP SWAP1 DIV PUSH1 0xFF AND DUP2 JUMP JUMPDEST PUSH0 PUSH1 0x1 DUP3 PUSH1 0x40 MLOAD PUSH2 0x7D2 SWAP2 SWAP1 PUSH2 0x1305 JUMP JUMPDEST SWAP1 DUP2 MSTORE PUSH1 0x20 ADD PUSH1 0x40 MLOAD DUP1 SWAP2 SUB SWAP1 KECCAK256 SLOAD SWAP1 POP SWAP2 SWAP1 POP JUMP JUMPDEST PUSH1 0x4 PUSH0 CALLER PUSH20 0xFFFFFFFFFFFFFFFFFFFFFFFFFFFFFFFFFFFFFFFF AND PUSH20 0xFFFFFFFFFFFFFFFFFFFFFFFFFFFFFFFFFFFFFFFF AND DUP2 MSTORE PUSH1 0x20 ADD SWAP1 DUP2 MSTORE PUSH1 0x20 ADD PUSH0 KECCAK256 PUSH0 SWAP1 SLOAD SWAP1 PUSH2 0x100 EXP SWAP1 DIV PUSH1 0xFF AND PUSH2 0x871 JUMPI PUSH1 0x40 MLOAD PUSH32 0x8C379A000000000000000000000000000000000000000000000000000000000 DUP2 MSTORE PUSH1 0x4 ADD PUSH2 0x868 SWAP1 PUSH2 0x1365 JUMP JUMPDEST PUSH1 0x40 MLOAD DUP1 SWAP2 SUB SWAP1 REVERT JUMPDEST PUSH0 PUSH1 0x14 SWAP1 SLOAD SWAP1 PUSH2 0x100 EXP SWAP1 DIV PUSH1 0xFF AND ISZERO PUSH2 0x8C0 JUMPI PUSH1 0x40 MLOAD PUSH32 0x8C379A000000000000000000000000000000000000000000000000000000000 DUP2 MSTORE PUSH1 0x4 ADD PUSH2 0x8B7 SWAP1 PUSH2 0x1129 JUMP JUMPDEST PUSH1 0x40 MLOAD DUP1 SWAP2 SUB SWAP1 REVERT JUMPDEST PUSH1 0x3 PUSH0 CALLER PUSH20 0xFFFFFFFFFFFFFFFFFFFFFFFFFFFFFFFFFFFFFFFF AND PUSH20 0xFFFFFFFFFFFFFFFFFFFFFFFFFFFFFFFFFFFFFFFF AND DUP2 MSTORE PUSH1 0x20 ADD SWAP1 DUP2 MSTORE PUSH1 0x20 ADD PUSH0 KECCAK256 PUSH0 SWAP1 SLOAD SWAP1 PUSH2 0x100 EXP SWAP1 DIV PUSH1 0xFF AND ISZERO PUSH2 0x94A JUMPI PUSH1 0x40 MLOAD PUSH32 0x8C379A000000000000000000000000000000000000000000000000000000000 DUP2 MSTORE PUSH1 0x4 ADD PUSH2 0x941 SWAP1 PUSH2 0x13CD JUMP JUMPDEST PUSH1 0x40 MLOAD DUP1 SWAP2 SUB SWAP1 REVERT JUMPDEST PUSH0 DUP1 JUMPDEST PUSH1 0x2 DUP1 SLOAD SWAP1 POP DUP2 LT ISZERO PUSH2 0x9AE JUMPI DUP3 DUP1 MLOAD SWAP1 PUSH1 0x20 ADD KECCAK256 PUSH1 0x2 DUP3 DUP2 SLOAD DUP2 LT PUSH2 0x976 JUMPI PUSH2 0x975 PUSH2 0x1147 JUMP JUMPDEST JUMPDEST SWAP1 PUSH0 MSTORE PUSH1 0x20 PUSH0 KECCAK256 ADD PUSH1 0x40 MLOAD PUSH2 0x98B SWAP2 SWAP1 PUSH2 0x1487 JUMP JUMPDEST PUSH1 0x40 MLOAD DUP1 SWAP2 SUB SWAP1 KECCAK256 SUB PUSH2 0x9A1 JUMPI PUSH1 0x1 SWAP2 POP PUSH2 0x9AE JUMP JUMPDEST DUP1 DUP1 PUSH1 0x1 ADD SWAP2 POP POP PUSH2 0x94D JUMP JUMPDEST POP DUP1 PUSH2 0x9EF JUMPI PUSH1 0x40 MLOAD PUSH32 0x8C379A000000000000000000000000000000000000000000000000000000000 DUP2 MSTORE PUSH1 0x4 ADD PUSH2 0x9E6 SWAP1 PUSH2 0x14E7 JUMP JUMPDEST PUSH1 0x40 MLOAD DUP1 SWAP2 SUB SWAP1 REVERT JUMPDEST PUSH1 0x1 DUP3 PUSH1 0x40 MLOAD PUSH2 0x9FF SWAP2 SWAP1 PUSH2 0x1305 JUMP JUMPDEST SWAP1 DUP2 MSTORE PUSH1 0x20 ADD PUSH1 0x40 MLOAD DUP1 SWAP2 SUB SWAP1 KECCAK256 PUSH0 DUP2 SLOAD DUP1 SWAP3 SWAP2 SWAP1 PUSH2 0xA1D SWAP1 PUSH2 0x1532 JUMP JUMPDEST SWAP2 SWAP1 POP SSTORE POP PUSH1 0x1 PUSH1 0x3 PUSH0 CALLER PUSH20 0xFFFFFFFFFFFFFFFFFFFFFFFFFFFFFFFFFFFFFFFF AND PUSH20 0xFFFFFFFFFFFFFFFFFFFFFFFFFFFFFFFFFFFFFFFF AND DUP2 MSTORE PUSH1 0x20 ADD SWAP1 DUP2 MSTORE PUSH1 0x20 ADD PUSH0 KECCAK256 PUSH0 PUSH2 0x100 EXP DUP2 SLOAD DUP2 PUSH1 0xFF MUL NOT AND SWAP1 DUP4 ISZERO ISZERO MUL OR SWAP1 SSTORE POP CALLER PUSH20 0xFFFFFFFFFFFFFFFFFFFFFFFFFFFFFFFFFFFFFFFF AND PUSH32 0xB7821D50DFBDA5EA310FAEBBEAC5217BC1BB0CABE463E76B80E48D11E57DF098 DUP4 PUSH1 0x40 MLOAD PUSH2 0xABD SWAP2 SWAP1 PUSH2 0xD83 JUMP JUMPDEST PUSH1 0x40 MLOAD DUP1 SWAP2 SUB SWAP1 LOG2 POP POP JUMP JUMPDEST PUSH0 PUSH1 0x40 MLOAD SWAP1 POP SWAP1 JUMP JUMPDEST PUSH0 DUP1 REVERT JUMPDEST PUSH0 DUP1 REVERT JUMPDEST PUSH0 PUSH20 0xFFFFFFFFFFFFFFFFFFFFFFFFFFFFFFFFFFFFFFFF DUP3 AND SWAP1 POP SWAP2 SWAP1 POP JUMP JUMPDEST PUSH0 PUSH2 0xB03 DUP3 PUSH2 0xADA JUMP JUMPDEST SWAP1 POP SWAP2 SWAP1 POP JUMP JUMPDEST PUSH2 0xB13 DUP2 PUSH2 0xAF9 JUMP JUMPDEST DUP2 EQ PUSH2 0xB1D JUMPI PUSH0 DUP1 REVERT JUMPDEST POP JUMP JUMPDEST PUSH0 DUP2 CALLDATALOAD SWAP1 POP PUSH2 0xB2E DUP2 PUSH2 0xB0A JUMP JUMPDEST SWAP3 SWAP2 POP POP JUMP JUMPDEST PUSH0 PUSH1 0x20 DUP3 DUP5 SUB SLT ISZERO PUSH2 0xB49 JUMPI PUSH2 0xB48 PUSH2 0xAD2 JUMP JUMPDEST JUMPDEST PUSH0 PUSH2 0xB56 DUP5 DUP3 DUP6 ADD PUSH2 0xB20 JUMP JUMPDEST SWAP2 POP POP SWAP3 SWAP2 POP POP JUMP JUMPDEST PUSH0 DUP2 ISZERO ISZERO SWAP1 POP SWAP2 SWAP1 POP JUMP JUMPDEST PUSH2 0xB73 DUP2 PUSH2 0xB5F JUMP JUMPDEST DUP3 MSTORE POP POP JUMP JUMPDEST PUSH0 PUSH1 0x20 DUP3 ADD SWAP1 POP PUSH2 0xB8C PUSH0 DUP4 ADD DUP5 PUSH2 0xB6A JUMP JUMPDEST SWAP3 SWAP2 POP POP JUMP JUMPDEST PUSH0 DUP2 MLOAD SWAP1 POP SWAP2 SWAP1 POP JUMP JUMPDEST PUSH0 DUP3 DUP3 MSTORE PUSH1 0x20 DUP3 ADD SWAP1 POP SWAP3 SWAP2 POP POP JUMP JUMPDEST PUSH0 DUP2 SWAP1 POP PUSH1 0x20 DUP3 ADD SWAP1 POP SWAP2 SWAP1 POP JUMP JUMPDEST PUSH0 DUP2 MLOAD SWAP1 POP SWAP2 SWAP1 POP JUMP JUMPDEST PUSH0 DUP3 DUP3 MSTORE PUSH1 0x20 DUP3 ADD SWAP1 POP SWAP3 SWAP2 POP POP JUMP JUMPDEST DUP3 DUP2 DUP4 MCOPY PUSH0 DUP4 DUP4 ADD MSTORE POP POP POP JUMP JUMPDEST PUSH0 PUSH1 0x1F NOT PUSH1 0x1F DUP4 ADD AND SWAP1 POP SWAP2 SWAP1 POP JUMP JUMPDEST PUSH0 PUSH2 0xBFD DUP3 PUSH2 0xBBB JUMP JUMPDEST PUSH2 0xC07 DUP2 DUP6 PUSH2 0xBC5 JUMP JUMPDEST SWAP4 POP PUSH2 0xC17 DUP2 DUP6 PUSH1 0x20 DUP7 ADD PUSH2 0xBD5 JUMP JUMPDEST PUSH2 0xC20 DUP2 PUSH2 0xBE3 JUMP JUMPDEST DUP5 ADD SWAP2 POP POP SWAP3 SWAP2 POP POP JUMP JUMPDEST PUSH0 PUSH2 0xC36 DUP4 DUP4 PUSH2 0xBF3 JUMP JUMPDEST SWAP1 POP SWAP3 SWAP2 POP POP JUMP JUMPDEST PUSH0 PUSH1 0x20 DUP3 ADD SWAP1 POP SWAP2 SWAP1 POP JUMP JUMPDEST PUSH0 PUSH2 0xC54 DUP3 PUSH2 0xB92 JUMP JUMPDEST PUSH2 0xC5E DUP2 DUP6 PUSH2 0xB9C JUMP JUMPDEST SWAP4 POP DUP4 PUSH1 0x20 DUP3 MUL DUP6 ADD PUSH2 0xC70 DUP6 PUSH2 0xBAC JUMP JUMPDEST DUP1 PUSH0 JUMPDEST DUP6 DUP2 LT ISZERO PUSH2 0xCAB JUMPI DUP5 DUP5 SUB DUP10 MSTORE DUP2 MLOAD PUSH2 0xC8C DUP6 DUP3 PUSH2 0xC2B JUMP JUMPDEST SWAP5 POP PUSH2 0xC97 DUP4 PUSH2 0xC3E JUMP JUMPDEST SWAP3 POP PUSH1 0x20 DUP11 ADD SWAP10 POP POP PUSH1 0x1 DUP2 ADD SWAP1 POP PUSH2 0xC73 JUMP JUMPDEST POP DUP3 SWAP8 POP DUP8 SWAP6 POP POP POP POP POP POP SWAP3 SWAP2 POP POP JUMP JUMPDEST PUSH0 PUSH1 0x20 DUP3 ADD SWAP1 POP DUP2 DUP2 SUB PUSH0 DUP4 ADD MSTORE PUSH2 0xCD5 DUP2 DUP5 PUSH2 0xC4A JUMP JUMPDEST SWAP1 POP SWAP3 SWAP2 POP POP JUMP JUMPDEST PUSH0 DUP2 SWAP1 POP SWAP2 SWAP1 POP JUMP JUMPDEST PUSH2 0xCEF DUP2 PUSH2 0xCDD JUMP JUMPDEST DUP2 EQ PUSH2 0xCF9 JUMPI PUSH0 DUP1 REVERT JUMPDEST POP JUMP JUMPDEST PUSH0 DUP2 CALLDATALOAD SWAP1 POP PUSH2 0xD0A DUP2 PUSH2 0xCE6 JUMP JUMPDEST SWAP3 SWAP2 POP POP JUMP JUMPDEST PUSH0 PUSH1 0x20 DUP3 DUP5 SUB SLT ISZERO PUSH2 0xD25 JUMPI PUSH2 0xD24 PUSH2 0xAD2 JUMP JUMPDEST JUMPDEST PUSH0 PUSH2 0xD32 DUP5 DUP3 DUP6 ADD PUSH2 0xCFC JUMP JUMPDEST SWAP2 POP POP SWAP3 SWAP2 POP POP JUMP JUMPDEST PUSH0 DUP3 DUP3 MSTORE PUSH1 0x20 DUP3 ADD SWAP1 POP SWAP3 SWAP2 POP POP JUMP JUMPDEST PUSH0 PUSH2 0xD55 DUP3 PUSH2 0xBBB JUMP JUMPDEST PUSH2 0xD5F DUP2 DUP6 PUSH2 0xD3B JUMP JUMPDEST SWAP4 POP PUSH2 0xD6F DUP2 DUP6 PUSH1 0x20 DUP7 ADD PUSH2 0xBD5 JUMP JUMPDEST PUSH2 0xD78 DUP2 PUSH2 0xBE3 JUMP JUMPDEST DUP5 ADD SWAP2 POP POP SWAP3 SWAP2 POP POP JUMP JUMPDEST PUSH0 PUSH1 0x20 DUP3 ADD SWAP1 POP DUP2 DUP2 SUB PUSH0 DUP4 ADD MSTORE PUSH2 0xD9B DUP2 DUP5 PUSH2 0xD4B JUMP JUMPDEST SWAP1 POP SWAP3 SWAP2 POP POP JUMP JUMPDEST PUSH2 0xDAC DUP2 PUSH2 0xAF9 JUMP JUMPDEST DUP3 MSTORE POP POP JUMP JUMPDEST PUSH0 PUSH1 0x20 DUP3 ADD SWAP1 POP PUSH2 0xDC5 PUSH0 DUP4 ADD DUP5 PUSH2 0xDA3 JUMP JUMPDEST SWAP3 SWAP2 POP POP JUMP JUMPDEST PUSH0 DUP1 REVERT JUMPDEST PUSH0 DUP1 REVERT JUMPDEST PUSH32 0x4E487B7100000000000000000000000000000000000000000000000000000000 PUSH0 MSTORE PUSH1 0x41 PUSH1 0x4 MSTORE PUSH1 0x24 PUSH0 REVERT JUMPDEST PUSH2 0xE09 DUP3 PUSH2 0xBE3 JUMP JUMPDEST DUP2 ADD DUP2 DUP2 LT PUSH8 0xFFFFFFFFFFFFFFFF DUP3 GT OR ISZERO PUSH2 0xE28 JUMPI PUSH2 0xE27 PUSH2 0xDD3 JUMP JUMPDEST JUMPDEST DUP1 PUSH1 0x40 MSTORE POP POP POP JUMP JUMPDEST PUSH0 PUSH2 0xE3A PUSH2 0xAC9 JUMP JUMPDEST SWAP1 POP PUSH2 0xE46 DUP3 DUP3 PUSH2 0xE00 JUMP JUMPDEST SWAP2 SWAP1 POP JUMP JUMPDEST PUSH0 PUSH8 0xFFFFFFFFFFFFFFFF DUP3 GT ISZERO PUSH2 0xE65 JUMPI PUSH2 0xE64 PUSH2 0xDD3 JUMP JUMPDEST JUMPDEST PUSH2 0xE6E DUP3 PUSH2 0xBE3 JUMP JUMPDEST SWAP1 POP PUSH1 0x20 DUP2 ADD SWAP1 POP SWAP2 SWAP1 POP JUMP JUMPDEST DUP3 DUP2 DUP4 CALLDATACOPY PUSH0 DUP4 DUP4 ADD MSTORE POP POP POP JUMP JUMPDEST PUSH0 PUSH2 0xE9B PUSH2 0xE96 DUP5 PUSH2 0xE4B JUMP JUMPDEST PUSH2 0xE31 JUMP JUMPDEST SWAP1 POP DUP3 DUP2 MSTORE PUSH1 0x20 DUP2 ADD DUP5 DUP5 DUP5 ADD GT ISZERO PUSH2 0xEB7 JUMPI PUSH2 0xEB6 PUSH2 0xDCF JUMP JUMPDEST JUMPDEST PUSH2 0xEC2 DUP5 DUP3 DUP6 PUSH2 0xE7B JUMP JUMPDEST POP SWAP4 SWAP3 POP POP POP JUMP JUMPDEST PUSH0 DUP3 PUSH1 0x1F DUP4 ADD SLT PUSH2 0xEDE JUMPI PUSH2 0xEDD PUSH2 0xDCB JUMP JUMPDEST JUMPDEST DUP2 CALLDATALOAD PUSH2 0xEEE DUP5 DUP3 PUSH1 0x20 DUP7 ADD PUSH2 0xE89 JUMP JUMPDEST SWAP2 POP POP SWAP3 SWAP2 POP POP JUMP JUMPDEST PUSH0 PUSH1 0x20 DUP3 DUP5 SUB SLT ISZERO PUSH2 0xF0C JUMPI PUSH2 0xF0B PUSH2 0xAD2 JUMP JUMPDEST JUMPDEST PUSH0 DUP3 ADD CALLDATALOAD PUSH8 0xFFFFFFFFFFFFFFFF DUP2 GT ISZERO PUSH2 0xF29 JUMPI PUSH2 0xF28 PUSH2 0xAD6 JUMP JUMPDEST JUMPDEST PUSH2 0xF35 DUP5 DUP3 DUP6 ADD PUSH2 0xECA JUMP JUMPDEST SWAP2 POP POP SWAP3 SWAP2 POP POP JUMP JUMPDEST PUSH2 0xF47 DUP2 PUSH2 0xCDD JUMP JUMPDEST DUP3 MSTORE POP POP JUMP JUMPDEST PUSH0 PUSH1 0x20 DUP3 ADD SWAP1 POP PUSH2 0xF60 PUSH0 DUP4 ADD DUP5 PUSH2 0xF3E JUMP JUMPDEST SWAP3 SWAP2 POP POP JUMP JUMPDEST PUSH32 0x4E487B7100000000000000000000000000000000000000000000000000000000 PUSH0 MSTORE PUSH1 0x22 PUSH1 0x4 MSTORE PUSH1 0x24 PUSH0 REVERT JUMPDEST PUSH0 PUSH1 0x2 DUP3 DIV SWAP1 POP PUSH1 0x1 DUP3 AND DUP1 PUSH2 0xFAA JUMPI PUSH1 0x7F DUP3 AND SWAP2 POP JUMPDEST PUSH1 0x20 DUP3 LT DUP2 SUB PUSH2 0xFBD JUMPI PUSH2 0xFBC PUSH2 0xF66 JUMP JUMPDEST JUMPDEST POP SWAP2 SWAP1 POP JUMP JUMPDEST PUSH32 0x4F6E6C79206F776E65722063616E20706572666F726D20746869732061637469 PUSH0 DUP3 ADD MSTORE PUSH32 0x6F6E000000000000000000000000000000000000000000000000000000000000 PUSH1 0x20 DUP3 ADD MSTORE POP JUMP JUMPDEST PUSH0 PUSH2 0x101D PUSH1 0x22 DUP4 PUSH2 0xD3B JUMP JUMPDEST SWAP2 POP PUSH2 0x1028 DUP3 PUSH2 0xFC3 JUMP JUMPDEST PUSH1 0x40 DUP3 ADD SWAP1 POP SWAP2 SWAP1 POP JUMP JUMPDEST PUSH0 PUSH1 0x20 DUP3 ADD SWAP1 POP DUP2 DUP2 SUB PUSH0 DUP4 ADD MSTORE PUSH2 0x104A DUP2 PUSH2 0x1011 JUMP JUMPDEST SWAP1 POP SWAP2 SWAP1 POP JUMP JUMPDEST PUSH32 0x566F74657220616C726561647920726567697374657265640000000000000000 PUSH0 DUP3 ADD MSTORE POP JUMP JUMPDEST PUSH0 PUSH2 0x1085 PUSH1 0x18 DUP4 PUSH2 0xD3B JUMP JUMPDEST SWAP2 POP PUSH2 0x1090 DUP3 PUSH2 0x1051 JUMP JUMPDEST PUSH1 0x20 DUP3 ADD SWAP1 POP SWAP2 SWAP1 POP JUMP JUMPDEST PUSH0 PUSH1 0x20 DUP3 ADD SWAP1 POP DUP2 DUP2 SUB PUSH0 DUP4 ADD MSTORE PUSH2 0x10B2 DUP2 PUSH2 0x1079 JUMP JUMPDEST SWAP1 POP SWAP2 SWAP1 POP JUMP JUMPDEST PUSH32 0x526573756C7473206861766520616C7265616479206265656E207075626C6973 PUSH0 DUP3 ADD MSTORE PUSH32 0x6865640000000000000000000000000000000000000000000000000000000000 PUSH1 0x20 DUP3 ADD MSTORE POP JUMP JUMPDEST PUSH0 PUSH2 0x1113 PUSH1 0x23 DUP4 PUSH2 0xD3B JUMP JUMPDEST SWAP2 POP PUSH2 0x111E DUP3 PUSH2 0x10B9 JUMP JUMPDEST PUSH1 0x40 DUP3 ADD SWAP1 POP SWAP2 SWAP1 POP JUMP JUMPDEST PUSH0 PUSH1 0x20 DUP3 ADD SWAP1 POP DUP2 DUP2 SUB PUSH0 DUP4 ADD MSTORE PUSH2 0x1140 DUP2 PUSH2 0x1107 JUMP JUMPDEST SWAP1 POP SWAP2 SWAP1 POP JUMP JUMPDEST PUSH32 0x4E487B7100000000000000000000000000000000000000000000000000000000 PUSH0 MSTORE PUSH1 0x32 PUSH1 0x4 MSTORE PUSH1 0x24 PUSH0 REVERT JUMPDEST PUSH0 DUP2 SWAP1 POP SWAP3 SWAP2 POP POP JUMP JUMPDEST PUSH0 DUP2 SWAP1 POP DUP2 PUSH0 MSTORE PUSH1 0x20 PUSH0 KECCAK256 SWAP1 POP SWAP2 SWAP1 POP JUMP JUMPDEST PUSH0 DUP2 SLOAD PUSH2 0x119C DUP2 PUSH2 0xF93 JUMP JUMPDEST PUSH2 0x11A6 DUP2 DUP7 PUSH2 0x1174 JUMP JUMPDEST SWAP5 POP PUSH1 0x1 DUP3 AND PUSH0 DUP2 EQ PUSH2 0x11C0 JUMPI PUSH1 0x1 DUP2 EQ PUSH2 0x11D5 JUMPI PUSH2 0x1207 JUMP JUMPDEST PUSH1 0xFF NOT DUP4 AND DUP7 MSTORE DUP2 ISZERO ISZERO DUP3 MUL DUP7 ADD SWAP4 POP PUSH2 0x1207 JUMP JUMPDEST PUSH2 0x11DE DUP6 PUSH2 0x117E JUMP JUMPDEST PUSH0 JUMPDEST DUP4 DUP2 LT ISZERO PUSH2 0x11FF JUMPI DUP2 SLOAD DUP2 DUP10 ADD MSTORE PUSH1 0x1 DUP3 ADD SWAP2 POP PUSH1 0x20 DUP2 ADD SWAP1 POP PUSH2 0x11E0 JUMP JUMPDEST DUP4 DUP9 ADD SWAP6 POP POP POP JUMPDEST POP POP POP SWAP3 SWAP2 POP POP JUMP JUMPDEST PUSH0 PUSH2 0x121B DUP3 DUP5 PUSH2 0x1190 JUMP JUMPDEST SWAP2 POP DUP2 SWAP1 POP SWAP3 SWAP2 POP POP JUMP JUMPDEST PUSH0 DUP2 SLOAD PUSH2 0x1232 DUP2 PUSH2 0xF93 JUMP JUMPDEST PUSH2 0x123C DUP2 DUP7 PUSH2 0xD3B JUMP JUMPDEST SWAP5 POP PUSH1 0x1 DUP3 AND PUSH0 DUP2 EQ PUSH2 0x1256 JUMPI PUSH1 0x1 DUP2 EQ PUSH2 0x126C JUMPI PUSH2 0x129E JUMP JUMPDEST PUSH1 0xFF NOT DUP4 AND DUP7 MSTORE DUP2 ISZERO ISZERO PUSH1 0x20 MUL DUP7 ADD SWAP4 POP PUSH2 0x129E JUMP JUMPDEST PUSH2 0x1275 DUP6 PUSH2 0x117E JUMP JUMPDEST PUSH0 JUMPDEST DUP4 DUP2 LT ISZERO PUSH2 0x1296 JUMPI DUP2 SLOAD DUP2 DUP10 ADD MSTORE PUSH1 0x1 DUP3 ADD SWAP2 POP PUSH1 0x20 DUP2 ADD SWAP1 POP PUSH2 0x1277 JUMP JUMPDEST DUP1 DUP9 ADD SWAP6 POP POP POP JUMPDEST POP POP POP SWAP3 SWAP2 POP POP JUMP JUMPDEST PUSH0 PUSH1 0x40 DUP3 ADD SWAP1 POP DUP2 DUP2 SUB PUSH0 DUP4 ADD MSTORE PUSH2 0x12BF DUP2 DUP6 PUSH2 0x1226 JUMP JUMPDEST SWAP1 POP PUSH2 0x12CE PUSH1 0x20 DUP4 ADD DUP5 PUSH2 0xF3E JUMP JUMPDEST SWAP4 SWAP3 POP POP POP JUMP JUMPDEST PUSH0 PUSH2 0x12DF DUP3 PUSH2 0xBBB JUMP JUMPDEST PUSH2 0x12E9 DUP2 DUP6 PUSH2 0x1174 JUMP JUMPDEST SWAP4 POP PUSH2 0x12F9 DUP2 DUP6 PUSH1 0x20 DUP7 ADD PUSH2 0xBD5 JUMP JUMPDEST DUP1 DUP5 ADD SWAP2 POP POP SWAP3 SWAP2 POP POP JUMP JUMPDEST PUSH0 PUSH2 0x1310 DUP3 DUP5 PUSH2 0x12D5 JUMP JUMPDEST SWAP2 POP DUP2 SWAP1 POP SWAP3 SWAP2 POP POP JUMP JUMPDEST PUSH32 0x4E6F742061207265676973746572656420766F74657200000000000000000000 PUSH0 DUP3 ADD MSTORE POP JUMP JUMPDEST PUSH0 PUSH2 0x134F PUSH1 0x16 DUP4 PUSH2 0xD3B JUMP JUMPDEST SWAP2 POP PUSH2 0x135A DUP3 PUSH2 0x131B JUMP JUMPDEST PUSH1 0x20 DUP3 ADD SWAP1 POP SWAP2 SWAP1 POP JUMP JUMPDEST PUSH0 PUSH1 0x20 DUP3 ADD SWAP1 POP DUP2 DUP2 SUB PUSH0 DUP4 ADD MSTORE PUSH2 0x137C DUP2 PUSH2 0x1343 JUMP JUMPDEST SWAP1 POP SWAP2 SWAP1 POP JUMP JUMPDEST PUSH32 0x416C726561647920766F74656400000000000000000000000000000000000000 PUSH0 DUP3 ADD MSTORE POP JUMP JUMPDEST PUSH0 PUSH2 0x13B7 PUSH1 0xD DUP4 PUSH2 0xD3B JUMP JUMPDEST SWAP2 POP PUSH2 0x13C2 DUP3 PUSH2 0x1383 JUMP JUMPDEST PUSH1 0x20 DUP3 ADD SWAP1 POP SWAP2 SWAP1 POP JUMP JUMPDEST PUSH0 PUSH1 0x20 DUP3 ADD SWAP1 POP DUP2 DUP2 SUB PUSH0 DUP4 ADD MSTORE PUSH2 0x13E4 DUP2 PUSH2 0x13AB JUMP JUMPDEST SWAP1 POP SWAP2 SWAP1 POP JUMP JUMPDEST PUSH0 DUP2 SWAP1 POP SWAP3 SWAP2 POP POP JUMP JUMPDEST PUSH0 DUP2 SWAP1 POP DUP2 PUSH0 MSTORE PUSH1 0x20 PUSH0 KECCAK256 SWAP1 POP SWAP2 SWAP1 POP JUMP JUMPDEST PUSH0 DUP2 SLOAD PUSH2 0x1413 DUP2 PUSH2 0xF93 JUMP JUMPDEST PUSH2 0x141D DUP2 DUP7 PUSH2 0x13EB JUMP JUMPDEST SWAP5 POP PUSH1 0x1 DUP3 AND PUSH0 DUP2 EQ PUSH2 0x1437 JUMPI PUSH1 0x1 DUP2 EQ PUSH2 0x144C JUMPI PUSH2 0x147E JUMP JUMPDEST PUSH1 0xFF NOT DUP4 AND DUP7 MSTORE DUP2 ISZERO ISZERO DUP3 MUL DUP7 ADD SWAP4 POP PUSH2 0x147E JUMP JUMPDEST PUSH2 0x1455 DUP6 PUSH2 0x13F5 JUMP JUMPDEST PUSH0 JUMPDEST DUP4 DUP2 LT ISZERO PUSH2 0x1476 JUMPI DUP2 SLOAD DUP2 DUP10 ADD MSTORE PUSH1 0x1 DUP3 ADD SWAP2 POP PUSH1 0x20 DUP2 ADD SWAP1 POP PUSH2 0x1457 JUMP JUMPDEST DUP4 DUP9 ADD SWAP6 POP POP POP JUMPDEST POP POP POP SWAP3 SWAP2 POP POP JUMP JUMPDEST PUSH0 PUSH2 0x1492 DUP3 DUP5 PUSH2 0x1407 JUMP JUMPDEST SWAP2 POP DUP2 SWAP1 POP SWAP3 SWAP2 POP POP JUMP JUMPDEST PUSH32 0x43616E646964617465206E6F7420666F756E6400000000000000000000000000 PUSH0 DUP3 ADD MSTORE POP JUMP JUMPDEST PUSH0 PUSH2 0x14D1 PUSH1 0x13 DUP4 PUSH2 0xD3B JUMP JUMPDEST SWAP2 POP PUSH2 0x14DC DUP3 PUSH2 0x149D JUMP JUMPDEST PUSH1 0x20 DUP3 ADD SWAP1 POP SWAP2 SWAP1 POP JUMP JUMPDEST PUSH0 PUSH1 0x20 DUP3 ADD SWAP1 POP DUP2 DUP2 SUB PUSH0 DUP4 ADD MSTORE PUSH2 0x14FE DUP2 PUSH2 0x14C5 JUMP JUMPDEST SWAP1 POP SWAP2 SWAP1 POP JUMP JUMPDEST PUSH32 0x4E487B7100000000000000000000000000000000000000000000000000000000 PUSH0 MSTORE PUSH1 0x11 PUSH1 0x4 MSTORE PUSH1 0x24 PUSH0 REVERT JUMPDEST PUSH0 PUSH2 0x153C DUP3 PUSH2 0xCDD JUMP JUMPDEST SWAP2 POP PUSH32 0xFFFFFFFFFFFFFFFFFFFFFFFFFFFFFFFFFFFFFFFFFFFFFFFFFFFFFFFFFFFFFFFF DUP3 SUB PUSH2 0x156E JUMPI PUSH2 0x156D PUSH2 0x1505 JUMP JUMPDEST JUMPDEST PUSH1 0x1 DUP3 ADD SWAP1 POP SWAP2 SWAP1 POP JUMP INVALID LOG2 PUSH5 0x6970667358 0x22 SLT KECCAK256 0xC8 RETURNDATACOPY 0x4C 0xD0 0xF LOG4 PUSH31 0x681EEE4F15FFA47B283AB5A5BCB892AB62A0B4834E43AA7E6B64736F6C6343 STOP ADDMOD BYTE STOP CALLER "
				},
				"gasEstimates": {
					"creation": {
						"codeDepositCost": "1110200",
						"executionCost": "infinite",
						"totalCost": "infinite"
					},
					"external": {
						"candidates(uint256)": "infinite",
						"getAllCandidates()": "infinite",
						"getCandidateVotes(string)": "infinite",
						"hasVoted(address)": "2834",
						"isRegistered(address)": "2899",
						"owner()": "2505",
						"publishResults()": "infinite",
						"registerVoter(address)": "infinite",
						"resultsPublished()": "2605",
						"vote(string)": "infinite",
						"voteCount(string)": "infinite"
					}
				},
				"methodIdentifiers": {
					"candidates(uint256)": "3477ee2e",
					"getAllCandidates()": "2e6997fe",
					"getCandidateVotes(string)": "e962414f",
					"hasVoted(address)": "09eef43e",
					"isRegistered(address)": "c3c5a547",
					"owner()": "8da5cb5b",
					"publishResults()": "b952e7d8",
					"registerVoter(address)": "38db6dd3",
					"resultsPublished()": "5f589599",
					"vote(string)": "fc36e15b",
					"voteCount(string)": "ba7f7552"
				}
			},
			"storageLayout": {
				"storage": [
					{
						"astId": 4,
						"contract": "Voting.sol:Voting",
						"label": "owner",
						"offset": 0,
						"slot": "0",
						"type": "t_address"
					},
					{
						"astId": 6,
						"contract": "Voting.sol:Voting",
						"label": "resultsPublished",
						"offset": 20,
						"slot": "0",
						"type": "t_bool"
					},
					{
						"astId": 10,
						"contract": "Voting.sol:Voting",
						"label": "voteCount",
						"offset": 0,
						"slot": "1",
						"type": "t_mapping(t_string_memory_ptr,t_uint256)"
					},
					{
						"astId": 13,
						"contract": "Voting.sol:Voting",
						"label": "candidates",
						"offset": 0,
						"slot": "2",
						"type": "t_array(t_string_storage)dyn_storage"
					},
					{
						"astId": 17,
						"contract": "Voting.sol:Voting",
						"label": "hasVoted",
						"offset": 0,
						"slot": "3",
						"type": "t_mapping(t_address,t_bool)"
					},
					{
						"astId": 21,
						"contract": "Voting.sol:Voting",
						"label": "isRegistered",
						"offset": 0,
						"slot": "4",
						"type": "t_mapping(t_address,t_bool)"
					}
				],
				"types": {
					"t_address": {
						"encoding": "inplace",
						"label": "address",
						"numberOfBytes": "20"
					},
					"t_array(t_string_storage)dyn_storage": {
						"base": "t_string_storage",
						"encoding": "dynamic_array",
						"label": "string[]",
						"numberOfBytes": "32"
					},
					"t_bool": {
						"encoding": "inplace",
						"label": "bool",
						"numberOfBytes": "1"
					},
					"t_mapping(t_address,t_bool)": {
						"encoding": "mapping",
						"key": "t_address",
						"label": "mapping(address => bool)",
						"numberOfBytes": "32",
						"value": "t_bool"
					},
					"t_mapping(t_string_memory_ptr,t_uint256)": {
						"encoding": "mapping",
						"key": "t_string_memory_ptr",
						"label": "mapping(string => uint256)",
						"numberOfBytes": "32",
						"value": "t_uint256"
					},
					"t_string_memory_ptr": {
						"encoding": "bytes",
						"label": "string",
						"numberOfBytes": "32"
					},
					"t_string_storage": {
						"encoding": "bytes",
						"label": "string",
						"numberOfBytes": "32"
					},
					"t_uint256": {
						"encoding": "inplace",
						"label": "uint256",
						"numberOfBytes": "32"
					}
				}
			},
			"userdoc": {
				"kind": "user",
				"methods": {
					"publishResults()": {
						"notice": "Publishes the results"
					},
					"registerVoter(address)": {
						"notice": "Manually register a voter (simulates integration with Register contract)"
					},
					"vote(string)": {
						"notice": "Allows a registered voter to vote for a candidate"
					}
				},
				"version": 1
			}
		}
	}
}