{
	"contracts/Voting.sol": {
		"Voting": {
			"abi": [
				{
					"inputs": [
						{
							"internalType": "address",
							"name": "_registryAddress",
							"type": "address"
						},
						{
							"internalType": "address",
							"name": "_tallyAddress",
							"type": "address"
						}
					],
					"stateMutability": "nonpayable",
					"type": "constructor"
				},
				{
					"anonymous": false,
					"inputs": [
						{
							"indexed": false,
							"internalType": "string",
							"name": "name",
							"type": "string"
						}
					],
					"name": "CandidateApproved",
					"type": "event"
				},
				{
					"anonymous": false,
					"inputs": [
						{
							"indexed": true,
							"internalType": "address",
							"name": "proposer",
							"type": "address"
						},
						{
							"indexed": false,
							"internalType": "string",
							"name": "name",
							"type": "string"
						}
					],
					"name": "CandidateProposed",
					"type": "event"
				},
				{
					"anonymous": false,
					"inputs": [],
					"name": "ElectionStarted",
					"type": "event"
				},
				{
					"anonymous": false,
					"inputs": [],
					"name": "ResultsPublished",
					"type": "event"
				},
				{
					"anonymous": false,
					"inputs": [
						{
							"indexed": false,
							"internalType": "address",
							"name": "voter",
							"type": "address"
						},
						{
							"indexed": false,
							"internalType": "string",
							"name": "candidate",
							"type": "string"
						}
					],
					"name": "VoteCasted",
					"type": "event"
				},
				{
					"inputs": [
						{
							"internalType": "string",
							"name": "name",
							"type": "string"
						}
					],
					"name": "approveCandidate",
					"outputs": [],
					"stateMutability": "nonpayable",
					"type": "function"
				},
				{
					"inputs": [],
					"name": "electionStarted",
					"outputs": [
						{
							"internalType": "bool",
							"name": "",
							"type": "bool"
						}
					],
					"stateMutability": "view",
					"type": "function"
				},
				{
					"inputs": [],
					"name": "getAllCandidates",
					"outputs": [
						{
							"internalType": "string[]",
							"name": "",
							"type": "string[]"
						}
					],
					"stateMutability": "view",
					"type": "function"
				},
				{
					"inputs": [],
					"name": "owner",
					"outputs": [
						{
							"internalType": "address",
							"name": "",
							"type": "address"
						}
					],
					"stateMutability": "view",
					"type": "function"
				},
				{
					"inputs": [
						{
							"internalType": "string",
							"name": "",
							"type": "string"
						}
					],
					"name": "pendingCandidates",
					"outputs": [
						{
							"internalType": "string",
							"name": "name",
							"type": "string"
						},
						{
							"internalType": "address",
							"name": "submitter",
							"type": "address"
						},
						{
							"internalType": "bool",
							"name": "exists",
							"type": "bool"
						}
					],
					"stateMutability": "view",
					"type": "function"
				},
				{
					"inputs": [
						{
							"internalType": "string",
							"name": "name",
							"type": "string"
						}
					],
					"name": "proposeCandidate",
					"outputs": [],
					"stateMutability": "nonpayable",
					"type": "function"
				},
				{
					"inputs": [],
					"name": "publishResults",
					"outputs": [],
					"stateMutability": "nonpayable",
					"type": "function"
				},
				{
					"inputs": [],
					"name": "registry",
					"outputs": [
						{
							"internalType": "contract IVoterRegistry",
							"name": "",
							"type": "address"
						}
					],
					"stateMutability": "view",
					"type": "function"
				},
				{
					"inputs": [],
					"name": "resultsPublished",
					"outputs": [
						{
							"internalType": "bool",
							"name": "",
							"type": "bool"
						}
					],
					"stateMutability": "view",
					"type": "function"
				},
				{
					"inputs": [],
					"name": "startElection",
					"outputs": [],
					"stateMutability": "nonpayable",
					"type": "function"
				},
				{
					"inputs": [],
					"name": "tally",
					"outputs": [
						{
							"internalType": "contract ITally",
							"name": "",
							"type": "address"
						}
					],
					"stateMutability": "view",
					"type": "function"
				},
				{
					"inputs": [],
					"name": "tallyResultsPublished",
					"outputs": [
						{
							"internalType": "bool",
							"name": "",
							"type": "bool"
						}
					],
					"stateMutability": "view",
					"type": "function"
				},
				{
					"inputs": [
						{
							"internalType": "string",
							"name": "candidate",
							"type": "string"
						}
					],
					"name": "vote",
					"outputs": [],
					"stateMutability": "nonpayable",
					"type": "function"
				}
			],
			"devdoc": {
				"kind": "dev",
				"methods": {},
				"version": 1
			},
			"evm": {
				"assembly": "    /* \"contracts/Voting.sol\":626:3901  contract Voting {... */\n  mstore(0x40, 0x80)\n    /* \"contracts/Voting.sol\":1488:1698  constructor(... */\n  callvalue\n  dup1\n  iszero\n  tag_1\n  jumpi\n  0x00\n  dup1\n  revert\ntag_1:\n  pop\n  mload(0x40)\n  sub(codesize, bytecodeSize)\n  dup1\n  bytecodeSize\n  dup4\n  codecopy\n  dup2\n  dup2\n  add\n  0x40\n  mstore\n  dup2\n  add\n  swap1\n  tag_2\n  swap2\n  swap1\n  tag_3\n  jump\t// in\ntag_2:\n    /* \"contracts/Voting.sol\":1589:1599  msg.sender */\n  caller\n    /* \"contracts/Voting.sol\":1581:1586  owner */\n  0x00\n  dup1\n    /* \"contracts/Voting.sol\":1581:1599  owner = msg.sender */\n  0x0100\n  exp\n  dup2\n  sload\n  dup2\n  0xffffffffffffffffffffffffffffffffffffffff\n  mul\n  not\n  and\n  swap1\n  dup4\n  0xffffffffffffffffffffffffffffffffffffffff\n  and\n  mul\n  or\n  swap1\n  sstore\n  pop\n    /* \"contracts/Voting.sol\":1635:1651  _registryAddress */\n  dup2\n    /* \"contracts/Voting.sol\":1609:1617  registry */\n  0x01\n  0x00\n    /* \"contracts/Voting.sol\":1609:1652  registry = IVoterRegistry(_registryAddress) */\n  0x0100\n  exp\n  dup2\n  sload\n  dup2\n  0xffffffffffffffffffffffffffffffffffffffff\n  mul\n  not\n  and\n  swap1\n  dup4\n  0xffffffffffffffffffffffffffffffffffffffff\n  and\n  mul\n  or\n  swap1\n  sstore\n  pop\n    /* \"contracts/Voting.sol\":1677:1690  _tallyAddress */\n  dup1\n    /* \"contracts/Voting.sol\":1662:1667  tally */\n  0x02\n  0x00\n    /* \"contracts/Voting.sol\":1662:1691  tally = ITally(_tallyAddress) */\n  0x0100\n  exp\n  dup2\n  sload\n  dup2\n  0xffffffffffffffffffffffffffffffffffffffff\n  mul\n  not\n  and\n  swap1\n  dup4\n  0xffffffffffffffffffffffffffffffffffffffff\n  and\n  mul\n  or\n  swap1\n  sstore\n  pop\n    /* \"contracts/Voting.sol\":1488:1698  constructor(... */\n  pop\n  pop\n    /* \"contracts/Voting.sol\":626:3901  contract Voting {... */\n  jump(tag_6)\n    /* \"#utility.yul\":88:205   */\ntag_8:\n    /* \"#utility.yul\":197:198   */\n  0x00\n    /* \"#utility.yul\":194:195   */\n  dup1\n    /* \"#utility.yul\":187:199   */\n  revert\n    /* \"#utility.yul\":334:460   */\ntag_10:\n    /* \"#utility.yul\":371:378   */\n  0x00\n    /* \"#utility.yul\":411:453   */\n  0xffffffffffffffffffffffffffffffffffffffff\n    /* \"#utility.yul\":404:409   */\n  dup3\n    /* \"#utility.yul\":400:454   */\n  and\n    /* \"#utility.yul\":389:454   */\n  swap1\n  pop\n    /* \"#utility.yul\":334:460   */\n  swap2\n  swap1\n  pop\n  jump\t// out\n    /* \"#utility.yul\":466:562   */\ntag_11:\n    /* \"#utility.yul\":503:510   */\n  0x00\n    /* \"#utility.yul\":532:556   */\n  tag_20\n    /* \"#utility.yul\":550:555   */\n  dup3\n    /* \"#utility.yul\":532:556   */\n  tag_10\n  jump\t// in\ntag_20:\n    /* \"#utility.yul\":521:556   */\n  swap1\n  pop\n    /* \"#utility.yul\":466:562   */\n  swap2\n  swap1\n  pop\n  jump\t// out\n    /* \"#utility.yul\":568:690   */\ntag_12:\n    /* \"#utility.yul\":641:665   */\n  tag_22\n    /* \"#utility.yul\":659:664   */\n  dup2\n    /* \"#utility.yul\":641:665   */\n  tag_11\n  jump\t// in\ntag_22:\n    /* \"#utility.yul\":634:639   */\n  dup2\n    /* \"#utility.yul\":631:666   */\n  eq\n    /* \"#utility.yul\":621:684   */\n  tag_23\n  jumpi\n    /* \"#utility.yul\":680:681   */\n  0x00\n    /* \"#utility.yul\":677:678   */\n  dup1\n    /* \"#utility.yul\":670:682   */\n  revert\n    /* \"#utility.yul\":621:684   */\ntag_23:\n    /* \"#utility.yul\":568:690   */\n  pop\n  jump\t// out\n    /* \"#utility.yul\":696:839   */\ntag_13:\n    /* \"#utility.yul\":753:758   */\n  0x00\n    /* \"#utility.yul\":784:790   */\n  dup2\n    /* \"#utility.yul\":778:791   */\n  mload\n    /* \"#utility.yul\":769:791   */\n  swap1\n  pop\n    /* \"#utility.yul\":800:833   */\n  tag_25\n    /* \"#utility.yul\":827:832   */\n  dup2\n    /* \"#utility.yul\":800:833   */\n  tag_12\n  jump\t// in\ntag_25:\n    /* \"#utility.yul\":696:839   */\n  swap3\n  swap2\n  pop\n  pop\n  jump\t// out\n    /* \"#utility.yul\":845:1352   */\ntag_3:\n    /* \"#utility.yul\":924:930   */\n  0x00\n    /* \"#utility.yul\":932:938   */\n  dup1\n    /* \"#utility.yul\":981:983   */\n  0x40\n    /* \"#utility.yul\":969:978   */\n  dup4\n    /* \"#utility.yul\":960:967   */\n  dup6\n    /* \"#utility.yul\":956:979   */\n  sub\n    /* \"#utility.yul\":952:984   */\n  slt\n    /* \"#utility.yul\":949:1068   */\n  iszero\n  tag_27\n  jumpi\n    /* \"#utility.yul\":987:1066   */\n  tag_28\n  tag_8\n  jump\t// in\ntag_28:\n    /* \"#utility.yul\":949:1068   */\ntag_27:\n    /* \"#utility.yul\":1107:1108   */\n  0x00\n    /* \"#utility.yul\":1132:1196   */\n  tag_29\n    /* \"#utility.yul\":1188:1195   */\n  dup6\n    /* \"#utility.yul\":1179:1185   */\n  dup3\n    /* \"#utility.yul\":1168:1177   */\n  dup7\n    /* \"#utility.yul\":1164:1186   */\n  add\n    /* \"#utility.yul\":1132:1196   */\n  tag_13\n  jump\t// in\ntag_29:\n    /* \"#utility.yul\":1122:1196   */\n  swap3\n  pop\n    /* \"#utility.yul\":1078:1206   */\n  pop\n    /* \"#utility.yul\":1245:1247   */\n  0x20\n    /* \"#utility.yul\":1271:1335   */\n  tag_30\n    /* \"#utility.yul\":1327:1334   */\n  dup6\n    /* \"#utility.yul\":1318:1324   */\n  dup3\n    /* \"#utility.yul\":1307:1316   */\n  dup7\n    /* \"#utility.yul\":1303:1325   */\n  add\n    /* \"#utility.yul\":1271:1335   */\n  tag_13\n  jump\t// in\ntag_30:\n    /* \"#utility.yul\":1261:1335   */\n  swap2\n  pop\n    /* \"#utility.yul\":1216:1345   */\n  pop\n    /* \"#utility.yul\":845:1352   */\n  swap3\n  pop\n  swap3\n  swap1\n  pop\n  jump\t// out\n    /* \"contracts/Voting.sol\":626:3901  contract Voting {... */\ntag_6:\n  dataSize(sub_0)\n  dup1\n  dataOffset(sub_0)\n  0x00\n  codecopy\n  0x00\n  return\nstop\n\nsub_0: assembly {\n        /* \"contracts/Voting.sol\":626:3901  contract Voting {... */\n      mstore(0x40, 0x80)\n      callvalue\n      dup1\n      iszero\n      tag_1\n      jumpi\n      0x00\n      dup1\n      revert\n    tag_1:\n      pop\n      jumpi(tag_2, lt(calldatasize, 0x04))\n      shr(0xe0, calldataload(0x00))\n      dup1\n      0x829600e0\n      gt\n      tag_16\n      jumpi\n      dup1\n      0xb952e7d8\n      gt\n      tag_17\n      jumpi\n      dup1\n      0xb952e7d8\n      eq\n      tag_12\n      jumpi\n      dup1\n      0xbbe0b50a\n      eq\n      tag_13\n      jumpi\n      dup1\n      0xd5346da1\n      eq\n      tag_14\n      jumpi\n      dup1\n      0xfc36e15b\n      eq\n      tag_15\n      jumpi\n      jump(tag_2)\n    tag_17:\n      dup1\n      0x829600e0\n      eq\n      tag_9\n      jumpi\n      dup1\n      0x8da5cb5b\n      eq\n      tag_10\n      jumpi\n      dup1\n      0x98ab4863\n      eq\n      tag_11\n      jumpi\n      jump(tag_2)\n    tag_16:\n      dup1\n      0x12f4acec\n      eq\n      tag_3\n      jumpi\n      dup1\n      0x2e6997fe\n      eq\n      tag_4\n      jumpi\n      dup1\n      0x410673e5\n      eq\n      tag_5\n      jumpi\n      dup1\n      0x5f589599\n      eq\n      tag_6\n      jumpi\n      dup1\n      0x62d73eb8\n      eq\n      tag_7\n      jumpi\n      dup1\n      0x7b103999\n      eq\n      tag_8\n      jumpi\n    tag_2:\n      0x00\n      dup1\n      revert\n        /* \"contracts/Voting.sol\":3474:3775  function tallyResultsPublished() public view returns (bool) {... */\n    tag_3:\n      tag_18\n      tag_19\n      jump\t// in\n    tag_18:\n      mload(0x40)\n      tag_20\n      swap2\n      swap1\n      tag_21\n      jump\t// in\n    tag_20:\n      mload(0x40)\n      dup1\n      swap2\n      sub\n      swap1\n      return\n        /* \"contracts/Voting.sol\":3781:3898  function getAllCandidates() public view returns (string[] memory) {... */\n    tag_4:\n      tag_22\n      tag_23\n      jump\t// in\n    tag_22:\n      mload(0x40)\n      tag_24\n      swap2\n      swap1\n      tag_25\n      jump\t// in\n    tag_24:\n      mload(0x40)\n      dup1\n      swap2\n      sub\n      swap1\n      return\n        /* \"contracts/Voting.sol\":778:797  ITally public tally */\n    tag_5:\n      tag_26\n      tag_27\n      jump\t// in\n    tag_26:\n      mload(0x40)\n      tag_28\n      swap2\n      swap1\n      tag_29\n      jump\t// in\n    tag_28:\n      mload(0x40)\n      dup1\n      swap2\n      sub\n      swap1\n      return\n        /* \"contracts/Voting.sol\":707:735  bool public resultsPublished */\n    tag_6:\n      tag_30\n      tag_31\n      jump\t// in\n    tag_30:\n      mload(0x40)\n      tag_32\n      swap2\n      swap1\n      tag_21\n      jump\t// in\n    tag_32:\n      mload(0x40)\n      dup1\n      swap2\n      sub\n      swap1\n      return\n        /* \"contracts/Voting.sol\":1704:1871  function startElection() public onlyOwner {... */\n    tag_7:\n      tag_33\n      tag_34\n      jump\t// in\n    tag_33:\n      stop\n        /* \"contracts/Voting.sol\":742:772  IVoterRegistry public registry */\n    tag_8:\n      tag_35\n      tag_36\n      jump\t// in\n    tag_35:\n      mload(0x40)\n      tag_37\n      swap2\n      swap1\n      tag_38\n      jump\t// in\n    tag_37:\n      mload(0x40)\n      dup1\n      swap2\n      sub\n      swap1\n      return\n        /* \"contracts/Voting.sol\":910:970  mapping(string => PendingCandidate) public pendingCandidates */\n    tag_9:\n      tag_39\n      0x04\n      dup1\n      calldatasize\n      sub\n      dup2\n      add\n      swap1\n      tag_40\n      swap2\n      swap1\n      tag_41\n      jump\t// in\n    tag_40:\n      tag_42\n      jump\t// in\n    tag_39:\n      mload(0x40)\n      tag_43\n      swap4\n      swap3\n      swap2\n      swap1\n      tag_44\n      jump\t// in\n    tag_43:\n      mload(0x40)\n      dup1\n      swap2\n      sub\n      swap1\n      return\n        /* \"contracts/Voting.sol\":648:668  address public owner */\n    tag_10:\n      tag_45\n      tag_46\n      jump\t// in\n    tag_45:\n      mload(0x40)\n      tag_47\n      swap2\n      swap1\n      tag_48\n      jump\t// in\n    tag_47:\n      mload(0x40)\n      dup1\n      swap2\n      sub\n      swap1\n      return\n        /* \"contracts/Voting.sol\":2582:2988  function proposeCandidate(string memory name) public {... */\n    tag_11:\n      tag_49\n      0x04\n      dup1\n      calldatasize\n      sub\n      dup2\n      add\n      swap1\n      tag_50\n      swap2\n      swap1\n      tag_41\n      jump\t// in\n    tag_50:\n      tag_51\n      jump\t// in\n    tag_49:\n      stop\n        /* \"contracts/Voting.sol\":3289:3468  function publishResults() public onlyOwner {... */\n    tag_12:\n      tag_52\n      tag_53\n      jump\t// in\n    tag_52:\n      stop\n        /* \"contracts/Voting.sol\":2994:3283  function approveCandidate(string memory name) public onlyOwner {... */\n    tag_13:\n      tag_54\n      0x04\n      dup1\n      calldatasize\n      sub\n      dup2\n      add\n      swap1\n      tag_55\n      swap2\n      swap1\n      tag_41\n      jump\t// in\n    tag_55:\n      tag_56\n      jump\t// in\n    tag_54:\n      stop\n        /* \"contracts/Voting.sol\":674:701  bool public electionStarted */\n    tag_14:\n      tag_57\n      tag_58\n      jump\t// in\n    tag_57:\n      mload(0x40)\n      tag_59\n      swap2\n      swap1\n      tag_21\n      jump\t// in\n    tag_59:\n      mload(0x40)\n      dup1\n      swap2\n      sub\n      swap1\n      return\n        /* \"contracts/Voting.sol\":1877:2576  function vote(string memory candidate) public electionActive {... */\n    tag_15:\n      tag_60\n      0x04\n      dup1\n      calldatasize\n      sub\n      dup2\n      add\n      swap1\n      tag_61\n      swap2\n      swap1\n      tag_41\n      jump\t// in\n    tag_61:\n      tag_62\n      jump\t// in\n    tag_60:\n      stop\n        /* \"contracts/Voting.sol\":3474:3775  function tallyResultsPublished() public view returns (bool) {... */\n    tag_19:\n        /* \"contracts/Voting.sol\":3528:3532  bool */\n      0x00\n        /* \"contracts/Voting.sol\":3545:3557  bool success */\n      dup1\n        /* \"contracts/Voting.sol\":3559:3576  bytes memory data */\n      0x00\n        /* \"contracts/Voting.sol\":3588:3593  tally */\n      0x02\n      0x00\n      swap1\n      sload\n      swap1\n      0x0100\n      exp\n      swap1\n      div\n      0xffffffffffffffffffffffffffffffffffffffff\n      and\n        /* \"contracts/Voting.sol\":3580:3605  address(tally).staticcall */\n      0xffffffffffffffffffffffffffffffffffffffff\n      and\n        /* \"contracts/Voting.sol\":3619:3664  abi.encodeWithSignature(\"resultsPublished()\") */\n      add(0x24, mload(0x40))\n      mload(0x40)\n      0x20\n      dup2\n      dup4\n      sub\n      sub\n      dup2\n      mstore\n      swap1\n      0x40\n      mstore\n      and(not(0xffffffffffffffffffffffffffffffffffffffffffffffffffffffff), 0x5f58959900000000000000000000000000000000000000000000000000000000)\n      0x20\n      dup3\n      add\n      dup1\n      mload\n      0xffffffffffffffffffffffffffffffffffffffffffffffffffffffff\n      dup4\n      dup2\n      dup4\n      and\n      or\n      dup4\n      mstore\n      pop\n      pop\n      pop\n      pop\n        /* \"contracts/Voting.sol\":3580:3674  address(tally).staticcall(... */\n      mload(0x40)\n      tag_64\n      swap2\n      swap1\n      tag_65\n      jump\t// in\n    tag_64:\n      0x00\n      mload(0x40)\n      dup1\n      dup4\n      sub\n      dup2\n      dup6\n      gas\n      staticcall\n      swap2\n      pop\n      pop\n      returndatasize\n      dup1\n      0x00\n      dup2\n      eq\n      tag_68\n      jumpi\n      mload(0x40)\n      swap2\n      pop\n      and(add(returndatasize, 0x3f), not(0x1f))\n      dup3\n      add\n      0x40\n      mstore\n      returndatasize\n      dup3\n      mstore\n      returndatasize\n      0x00\n      0x20\n      dup5\n      add\n      returndatacopy\n      jump(tag_67)\n    tag_68:\n      0x60\n      swap2\n      pop\n    tag_67:\n      pop\n        /* \"contracts/Voting.sol\":3544:3674  (bool success, bytes memory data) = address(tally).staticcall(... */\n      swap2\n      pop\n      swap2\n      pop\n        /* \"contracts/Voting.sol\":3692:3699  success */\n      dup2\n        /* \"contracts/Voting.sol\":3684:3727  require(success, \"Failed to fetch results\") */\n      tag_69\n      jumpi\n      mload(0x40)\n      0x08c379a000000000000000000000000000000000000000000000000000000000\n      dup2\n      mstore\n      0x04\n      add\n      tag_70\n      swap1\n      tag_71\n      jump\t// in\n    tag_70:\n      mload(0x40)\n      dup1\n      swap2\n      sub\n      swap1\n      revert\n    tag_69:\n        /* \"contracts/Voting.sol\":3755:3759  data */\n      dup1\n        /* \"contracts/Voting.sol\":3744:3768  abi.decode(data, (bool)) */\n      dup1\n      0x20\n      add\n      swap1\n      mload\n      dup2\n      add\n      swap1\n      tag_72\n      swap2\n      swap1\n      tag_73\n      jump\t// in\n    tag_72:\n        /* \"contracts/Voting.sol\":3737:3768  return abi.decode(data, (bool)) */\n      swap3\n      pop\n      pop\n      pop\n        /* \"contracts/Voting.sol\":3474:3775  function tallyResultsPublished() public view returns (bool) {... */\n      swap1\n      jump\t// out\n        /* \"contracts/Voting.sol\":3781:3898  function getAllCandidates() public view returns (string[] memory) {... */\n    tag_23:\n        /* \"contracts/Voting.sol\":3830:3845  string[] memory */\n      0x60\n        /* \"contracts/Voting.sol\":3864:3872  registry */\n      0x01\n      0x00\n      swap1\n      sload\n      swap1\n      0x0100\n      exp\n      swap1\n      div\n      0xffffffffffffffffffffffffffffffffffffffff\n      and\n        /* \"contracts/Voting.sol\":3864:3889  registry.getAllCandidates */\n      0xffffffffffffffffffffffffffffffffffffffff\n      and\n      0x2e6997fe\n        /* \"contracts/Voting.sol\":3864:3891  registry.getAllCandidates() */\n      mload(0x40)\n      dup2\n      0xffffffff\n      and\n      0xe0\n      shl\n      dup2\n      mstore\n      0x04\n      add\n      0x00\n      mload(0x40)\n      dup1\n      dup4\n      sub\n      dup2\n      dup7\n      gas\n      staticcall\n      iszero\n      dup1\n      iszero\n      tag_76\n      jumpi\n      returndatasize\n      0x00\n      dup1\n      returndatacopy\n      revert(0x00, returndatasize)\n    tag_76:\n      pop\n      pop\n      pop\n      pop\n      mload(0x40)\n      returndatasize\n      0x00\n      dup3\n      returndatacopy\n      returndatasize\n      not(0x1f)\n      0x1f\n      dup3\n      add\n      and\n      dup3\n      add\n      dup1\n      0x40\n      mstore\n      pop\n      dup2\n      add\n      swap1\n      tag_77\n      swap2\n      swap1\n      tag_78\n      jump\t// in\n    tag_77:\n        /* \"contracts/Voting.sol\":3857:3891  return registry.getAllCandidates() */\n      swap1\n      pop\n        /* \"contracts/Voting.sol\":3781:3898  function getAllCandidates() public view returns (string[] memory) {... */\n      swap1\n      jump\t// out\n        /* \"contracts/Voting.sol\":778:797  ITally public tally */\n    tag_27:\n      0x02\n      0x00\n      swap1\n      sload\n      swap1\n      0x0100\n      exp\n      swap1\n      div\n      0xffffffffffffffffffffffffffffffffffffffff\n      and\n      dup2\n      jump\t// out\n        /* \"contracts/Voting.sol\":707:735  bool public resultsPublished */\n    tag_31:\n      0x00\n      0x15\n      swap1\n      sload\n      swap1\n      0x0100\n      exp\n      swap1\n      div\n      0xff\n      and\n      dup2\n      jump\t// out\n        /* \"contracts/Voting.sol\":1704:1871  function startElection() public onlyOwner {... */\n    tag_34:\n        /* \"contracts/Voting.sol\":1256:1261  owner */\n      0x00\n      dup1\n      sload\n      swap1\n      0x0100\n      exp\n      swap1\n      div\n      0xffffffffffffffffffffffffffffffffffffffff\n      and\n        /* \"contracts/Voting.sol\":1242:1261  msg.sender == owner */\n      0xffffffffffffffffffffffffffffffffffffffff\n      and\n        /* \"contracts/Voting.sol\":1242:1252  msg.sender */\n      caller\n        /* \"contracts/Voting.sol\":1242:1261  msg.sender == owner */\n      0xffffffffffffffffffffffffffffffffffffffff\n      and\n      eq\n        /* \"contracts/Voting.sol\":1234:1304  require(msg.sender == owner, \"Only the admin can perform this action\") */\n      tag_80\n      jumpi\n      mload(0x40)\n      0x08c379a000000000000000000000000000000000000000000000000000000000\n      dup2\n      mstore\n      0x04\n      add\n      tag_81\n      swap1\n      tag_82\n      jump\t// in\n    tag_81:\n      mload(0x40)\n      dup1\n      swap2\n      sub\n      swap1\n      revert\n    tag_80:\n        /* \"contracts/Voting.sol\":1765:1780  electionStarted */\n      0x00\n      0x14\n      swap1\n      sload\n      swap1\n      0x0100\n      exp\n      swap1\n      div\n      0xff\n      and\n        /* \"contracts/Voting.sol\":1764:1780  !electionStarted */\n      iszero\n        /* \"contracts/Voting.sol\":1756:1800  require(!electionStarted, \"Already started\") */\n      tag_84\n      jumpi\n      mload(0x40)\n      0x08c379a000000000000000000000000000000000000000000000000000000000\n      dup2\n      mstore\n      0x04\n      add\n      tag_85\n      swap1\n      tag_86\n      jump\t// in\n    tag_85:\n      mload(0x40)\n      dup1\n      swap2\n      sub\n      swap1\n      revert\n    tag_84:\n        /* \"contracts/Voting.sol\":1828:1832  true */\n      0x01\n        /* \"contracts/Voting.sol\":1810:1825  electionStarted */\n      0x00\n      0x14\n        /* \"contracts/Voting.sol\":1810:1832  electionStarted = true */\n      0x0100\n      exp\n      dup2\n      sload\n      dup2\n      0xff\n      mul\n      not\n      and\n      swap1\n      dup4\n      iszero\n      iszero\n      mul\n      or\n      swap1\n      sstore\n      pop\n        /* \"contracts/Voting.sol\":1847:1864  ElectionStarted() */\n      0xc475c26aa25ed8e85a7faa790e5f63b5d7ee1025f12821f4c9bfddd36ab4d112\n      mload(0x40)\n      mload(0x40)\n      dup1\n      swap2\n      sub\n      swap1\n      log1\n        /* \"contracts/Voting.sol\":1704:1871  function startElection() public onlyOwner {... */\n      jump\t// out\n        /* \"contracts/Voting.sol\":742:772  IVoterRegistry public registry */\n    tag_36:\n      0x01\n      0x00\n      swap1\n      sload\n      swap1\n      0x0100\n      exp\n      swap1\n      div\n      0xffffffffffffffffffffffffffffffffffffffff\n      and\n      dup2\n      jump\t// out\n        /* \"contracts/Voting.sol\":910:970  mapping(string => PendingCandidate) public pendingCandidates */\n    tag_42:\n      0x03\n      dup2\n      dup1\n      mload\n      0x20\n      dup2\n      add\n      dup3\n      add\n      dup1\n      mload\n      dup5\n      dup3\n      mstore\n      0x20\n      dup4\n      add\n      0x20\n      dup6\n      add\n      keccak256\n      dup2\n      dup4\n      mstore\n      dup1\n      swap6\n      pop\n      pop\n      pop\n      pop\n      pop\n      pop\n      0x00\n      swap2\n      pop\n      swap1\n      pop\n      dup1\n      0x00\n      add\n      dup1\n      sload\n      tag_87\n      swap1\n      tag_88\n      jump\t// in\n    tag_87:\n      dup1\n      0x1f\n      add\n      0x20\n      dup1\n      swap2\n      div\n      mul\n      0x20\n      add\n      mload(0x40)\n      swap1\n      dup2\n      add\n      0x40\n      mstore\n      dup1\n      swap3\n      swap2\n      swap1\n      dup2\n      dup2\n      mstore\n      0x20\n      add\n      dup3\n      dup1\n      sload\n      tag_89\n      swap1\n      tag_88\n      jump\t// in\n    tag_89:\n      dup1\n      iszero\n      tag_90\n      jumpi\n      dup1\n      0x1f\n      lt\n      tag_91\n      jumpi\n      0x0100\n      dup1\n      dup4\n      sload\n      div\n      mul\n      dup4\n      mstore\n      swap2\n      0x20\n      add\n      swap2\n      jump(tag_90)\n    tag_91:\n      dup3\n      add\n      swap2\n      swap1\n      0x00\n      mstore\n      keccak256(0x00, 0x20)\n      swap1\n    tag_92:\n      dup2\n      sload\n      dup2\n      mstore\n      swap1\n      0x01\n      add\n      swap1\n      0x20\n      add\n      dup1\n      dup4\n      gt\n      tag_92\n      jumpi\n      dup3\n      swap1\n      sub\n      0x1f\n      and\n      dup3\n      add\n      swap2\n    tag_90:\n      pop\n      pop\n      pop\n      pop\n      pop\n      swap1\n      dup1\n      0x01\n      add\n      0x00\n      swap1\n      sload\n      swap1\n      0x0100\n      exp\n      swap1\n      div\n      0xffffffffffffffffffffffffffffffffffffffff\n      and\n      swap1\n      dup1\n      0x01\n      add\n      0x14\n      swap1\n      sload\n      swap1\n      0x0100\n      exp\n      swap1\n      div\n      0xff\n      and\n      swap1\n      pop\n      dup4\n      jump\t// out\n        /* \"contracts/Voting.sol\":648:668  address public owner */\n    tag_46:\n      0x00\n      dup1\n      sload\n      swap1\n      0x0100\n      exp\n      swap1\n      div\n      0xffffffffffffffffffffffffffffffffffffffff\n      and\n      dup2\n      jump\t// out\n        /* \"contracts/Voting.sol\":2582:2988  function proposeCandidate(string memory name) public {... */\n    tag_51:\n        /* \"contracts/Voting.sol\":2654:2669  electionStarted */\n      0x00\n      0x14\n      swap1\n      sload\n      swap1\n      0x0100\n      exp\n      swap1\n      div\n      0xff\n      and\n        /* \"contracts/Voting.sol\":2653:2669  !electionStarted */\n      iszero\n        /* \"contracts/Voting.sol\":2645:2710  require(!electionStarted, \"Cannot propose after election starts\") */\n      tag_94\n      jumpi\n      mload(0x40)\n      0x08c379a000000000000000000000000000000000000000000000000000000000\n      dup2\n      mstore\n      0x04\n      add\n      tag_95\n      swap1\n      tag_96\n      jump\t// in\n    tag_95:\n      mload(0x40)\n      dup1\n      swap2\n      sub\n      swap1\n      revert\n    tag_94:\n        /* \"contracts/Voting.sol\":2729:2746  pendingCandidates */\n      0x03\n        /* \"contracts/Voting.sol\":2747:2751  name */\n      dup2\n        /* \"contracts/Voting.sol\":2729:2752  pendingCandidates[name] */\n      mload(0x40)\n      tag_97\n      swap2\n      swap1\n      tag_98\n      jump\t// in\n    tag_97:\n      swap1\n      dup2\n      mstore\n      0x20\n      add\n      mload(0x40)\n      dup1\n      swap2\n      sub\n      swap1\n      keccak256\n        /* \"contracts/Voting.sol\":2729:2759  pendingCandidates[name].exists */\n      0x01\n      add\n      0x14\n      swap1\n      sload\n      swap1\n      0x0100\n      exp\n      swap1\n      div\n      0xff\n      and\n        /* \"contracts/Voting.sol\":2728:2759  !pendingCandidates[name].exists */\n      iszero\n        /* \"contracts/Voting.sol\":2720:2780  require(!pendingCandidates[name].exists, \"Already proposed\") */\n      tag_99\n      jumpi\n      mload(0x40)\n      0x08c379a000000000000000000000000000000000000000000000000000000000\n      dup2\n      mstore\n      0x04\n      add\n      tag_100\n      swap1\n      tag_101\n      jump\t// in\n    tag_100:\n      mload(0x40)\n      dup1\n      swap2\n      sub\n      swap1\n      revert\n    tag_99:\n        /* \"contracts/Voting.sol\":2817:2930  PendingCandidate({... */\n      mload(0x40)\n      dup1\n      0x60\n      add\n      0x40\n      mstore\n      dup1\n        /* \"contracts/Voting.sol\":2854:2858  name */\n      dup3\n        /* \"contracts/Voting.sol\":2817:2930  PendingCandidate({... */\n      dup2\n      mstore\n      0x20\n      add\n        /* \"contracts/Voting.sol\":2883:2893  msg.sender */\n      caller\n        /* \"contracts/Voting.sol\":2817:2930  PendingCandidate({... */\n      0xffffffffffffffffffffffffffffffffffffffff\n      and\n      dup2\n      mstore\n      0x20\n      add\n        /* \"contracts/Voting.sol\":2915:2919  true */\n      0x01\n        /* \"contracts/Voting.sol\":2817:2930  PendingCandidate({... */\n      iszero\n      iszero\n      dup2\n      mstore\n      pop\n        /* \"contracts/Voting.sol\":2791:2808  pendingCandidates */\n      0x03\n        /* \"contracts/Voting.sol\":2809:2813  name */\n      dup3\n        /* \"contracts/Voting.sol\":2791:2814  pendingCandidates[name] */\n      mload(0x40)\n      tag_102\n      swap2\n      swap1\n      tag_98\n      jump\t// in\n    tag_102:\n      swap1\n      dup2\n      mstore\n      0x20\n      add\n      mload(0x40)\n      dup1\n      swap2\n      sub\n      swap1\n      keccak256\n        /* \"contracts/Voting.sol\":2791:2930  pendingCandidates[name] = PendingCandidate({... */\n      0x00\n      dup3\n      add\n      mload\n      dup2\n      0x00\n      add\n      swap1\n      dup2\n      tag_103\n      swap2\n      swap1\n      tag_104\n      jump\t// in\n    tag_103:\n      pop\n      0x20\n      dup3\n      add\n      mload\n      dup2\n      0x01\n      add\n      exp(0x0100, 0x00)\n      dup2\n      sload\n      dup2\n      0xffffffffffffffffffffffffffffffffffffffff\n      mul\n      not\n      and\n      swap1\n      dup4\n      0xffffffffffffffffffffffffffffffffffffffff\n      and\n      mul\n      or\n      swap1\n      sstore\n      pop\n      0x40\n      dup3\n      add\n      mload\n      dup2\n      0x01\n      add\n      exp(0x0100, 0x14)\n      dup2\n      sload\n      dup2\n      0xff\n      mul\n      not\n      and\n      swap1\n      dup4\n      iszero\n      iszero\n      mul\n      or\n      swap1\n      sstore\n      pop\n      swap1\n      pop\n      pop\n        /* \"contracts/Voting.sol\":2964:2974  msg.sender */\n      caller\n        /* \"contracts/Voting.sol\":2946:2981  CandidateProposed(msg.sender, name) */\n      0xffffffffffffffffffffffffffffffffffffffff\n      and\n      0x88531e7cf278c93b30c64fd107c5d98e3983ef631ca964570d8b3f7ad6e965ca\n        /* \"contracts/Voting.sol\":2976:2980  name */\n      dup3\n        /* \"contracts/Voting.sol\":2946:2981  CandidateProposed(msg.sender, name) */\n      mload(0x40)\n      tag_105\n      swap2\n      swap1\n      tag_106\n      jump\t// in\n    tag_105:\n      mload(0x40)\n      dup1\n      swap2\n      sub\n      swap1\n      log2\n        /* \"contracts/Voting.sol\":2582:2988  function proposeCandidate(string memory name) public {... */\n      pop\n      jump\t// out\n        /* \"contracts/Voting.sol\":3289:3468  function publishResults() public onlyOwner {... */\n    tag_53:\n        /* \"contracts/Voting.sol\":1256:1261  owner */\n      0x00\n      dup1\n      sload\n      swap1\n      0x0100\n      exp\n      swap1\n      div\n      0xffffffffffffffffffffffffffffffffffffffff\n      and\n        /* \"contracts/Voting.sol\":1242:1261  msg.sender == owner */\n      0xffffffffffffffffffffffffffffffffffffffff\n      and\n        /* \"contracts/Voting.sol\":1242:1252  msg.sender */\n      caller\n        /* \"contracts/Voting.sol\":1242:1261  msg.sender == owner */\n      0xffffffffffffffffffffffffffffffffffffffff\n      and\n      eq\n        /* \"contracts/Voting.sol\":1234:1304  require(msg.sender == owner, \"Only the admin can perform this action\") */\n      tag_108\n      jumpi\n      mload(0x40)\n      0x08c379a000000000000000000000000000000000000000000000000000000000\n      dup2\n      mstore\n      0x04\n      add\n      tag_109\n      swap1\n      tag_82\n      jump\t// in\n    tag_109:\n      mload(0x40)\n      dup1\n      swap2\n      sub\n      swap1\n      revert\n    tag_108:\n        /* \"contracts/Voting.sol\":3351:3374  tallyResultsPublished() */\n      tag_111\n        /* \"contracts/Voting.sol\":3351:3372  tallyResultsPublished */\n      tag_19\n        /* \"contracts/Voting.sol\":3351:3374  tallyResultsPublished() */\n      jump\t// in\n    tag_111:\n        /* \"contracts/Voting.sol\":3350:3374  !tallyResultsPublished() */\n      iszero\n        /* \"contracts/Voting.sol\":3342:3396  require(!tallyResultsPublished(), \"Already published\") */\n      tag_112\n      jumpi\n      mload(0x40)\n      0x08c379a000000000000000000000000000000000000000000000000000000000\n      dup2\n      mstore\n      0x04\n      add\n      tag_113\n      swap1\n      tag_114\n      jump\t// in\n    tag_113:\n      mload(0x40)\n      dup1\n      swap2\n      sub\n      swap1\n      revert\n    tag_112:\n        /* \"contracts/Voting.sol\":3406:3411  tally */\n      0x02\n      0x00\n      swap1\n      sload\n      swap1\n      0x0100\n      exp\n      swap1\n      div\n      0xffffffffffffffffffffffffffffffffffffffff\n      and\n        /* \"contracts/Voting.sol\":3406:3426  tally.publishResults */\n      0xffffffffffffffffffffffffffffffffffffffff\n      and\n      0xb952e7d8\n        /* \"contracts/Voting.sol\":3406:3428  tally.publishResults() */\n      mload(0x40)\n      dup2\n      0xffffffff\n      and\n      0xe0\n      shl\n      dup2\n      mstore\n      0x04\n      add\n      0x00\n      mload(0x40)\n      dup1\n      dup4\n      sub\n      dup2\n      0x00\n      dup8\n      dup1\n      extcodesize\n      iszero\n      dup1\n      iszero\n      tag_115\n      jumpi\n      0x00\n      dup1\n      revert\n    tag_115:\n      pop\n      gas\n      call\n      iszero\n      dup1\n      iszero\n      tag_117\n      jumpi\n      returndatasize\n      0x00\n      dup1\n      returndatacopy\n      revert(0x00, returndatasize)\n    tag_117:\n      pop\n      pop\n      pop\n      pop\n        /* \"contracts/Voting.sol\":3443:3461  ResultsPublished() */\n      0x10689ac5c5ddc265da7f6b71f74017330ba8f045032a672f7350ee2aaf793a2c\n      mload(0x40)\n      mload(0x40)\n      dup1\n      swap2\n      sub\n      swap1\n      log1\n        /* \"contracts/Voting.sol\":3289:3468  function publishResults() public onlyOwner {... */\n      jump\t// out\n        /* \"contracts/Voting.sol\":2994:3283  function approveCandidate(string memory name) public onlyOwner {... */\n    tag_56:\n        /* \"contracts/Voting.sol\":1256:1261  owner */\n      0x00\n      dup1\n      sload\n      swap1\n      0x0100\n      exp\n      swap1\n      div\n      0xffffffffffffffffffffffffffffffffffffffff\n      and\n        /* \"contracts/Voting.sol\":1242:1261  msg.sender == owner */\n      0xffffffffffffffffffffffffffffffffffffffff\n      and\n        /* \"contracts/Voting.sol\":1242:1252  msg.sender */\n      caller\n        /* \"contracts/Voting.sol\":1242:1261  msg.sender == owner */\n      0xffffffffffffffffffffffffffffffffffffffff\n      and\n      eq\n        /* \"contracts/Voting.sol\":1234:1304  require(msg.sender == owner, \"Only the admin can perform this action\") */\n      tag_119\n      jumpi\n      mload(0x40)\n      0x08c379a000000000000000000000000000000000000000000000000000000000\n      dup2\n      mstore\n      0x04\n      add\n      tag_120\n      swap1\n      tag_82\n      jump\t// in\n    tag_120:\n      mload(0x40)\n      dup1\n      swap2\n      sub\n      swap1\n      revert\n    tag_119:\n        /* \"contracts/Voting.sol\":3075:3092  pendingCandidates */\n      0x03\n        /* \"contracts/Voting.sol\":3093:3097  name */\n      dup2\n        /* \"contracts/Voting.sol\":3075:3098  pendingCandidates[name] */\n      mload(0x40)\n      tag_122\n      swap2\n      swap1\n      tag_98\n      jump\t// in\n    tag_122:\n      swap1\n      dup2\n      mstore\n      0x20\n      add\n      mload(0x40)\n      dup1\n      swap2\n      sub\n      swap1\n      keccak256\n        /* \"contracts/Voting.sol\":3075:3105  pendingCandidates[name].exists */\n      0x01\n      add\n      0x14\n      swap1\n      sload\n      swap1\n      0x0100\n      exp\n      swap1\n      div\n      0xff\n      and\n        /* \"contracts/Voting.sol\":3067:3132  require(pendingCandidates[name].exists, \"Candidate not proposed\") */\n      tag_123\n      jumpi\n      mload(0x40)\n      0x08c379a000000000000000000000000000000000000000000000000000000000\n      dup2\n      mstore\n      0x04\n      add\n      tag_124\n      swap1\n      tag_125\n      jump\t// in\n    tag_124:\n      mload(0x40)\n      dup1\n      swap2\n      sub\n      swap1\n      revert\n    tag_123:\n        /* \"contracts/Voting.sol\":3143:3151  registry */\n      0x01\n      0x00\n      swap1\n      sload\n      swap1\n      0x0100\n      exp\n      swap1\n      div\n      0xffffffffffffffffffffffffffffffffffffffff\n      and\n        /* \"contracts/Voting.sol\":3143:3169  registry.registerCandidate */\n      0xffffffffffffffffffffffffffffffffffffffff\n      and\n      0x9eb88db6\n        /* \"contracts/Voting.sol\":3170:3174  name */\n      dup3\n        /* \"contracts/Voting.sol\":3143:3175  registry.registerCandidate(name) */\n      mload(0x40)\n      dup3\n      0xffffffff\n      and\n      0xe0\n      shl\n      dup2\n      mstore\n      0x04\n      add\n      tag_126\n      swap2\n      swap1\n      tag_106\n      jump\t// in\n    tag_126:\n      0x00\n      mload(0x40)\n      dup1\n      dup4\n      sub\n      dup2\n      0x00\n      dup8\n      dup1\n      extcodesize\n      iszero\n      dup1\n      iszero\n      tag_127\n      jumpi\n      0x00\n      dup1\n      revert\n    tag_127:\n      pop\n      gas\n      call\n      iszero\n      dup1\n      iszero\n      tag_129\n      jumpi\n      returndatasize\n      0x00\n      dup1\n      returndatacopy\n      revert(0x00, returndatasize)\n    tag_129:\n      pop\n      pop\n      pop\n      pop\n        /* \"contracts/Voting.sol\":3192:3209  pendingCandidates */\n      0x03\n        /* \"contracts/Voting.sol\":3210:3214  name */\n      dup2\n        /* \"contracts/Voting.sol\":3192:3215  pendingCandidates[name] */\n      mload(0x40)\n      tag_130\n      swap2\n      swap1\n      tag_98\n      jump\t// in\n    tag_130:\n      swap1\n      dup2\n      mstore\n      0x20\n      add\n      mload(0x40)\n      dup1\n      swap2\n      sub\n      swap1\n      keccak256\n      0x00\n        /* \"contracts/Voting.sol\":3185:3215  delete pendingCandidates[name] */\n      dup1\n      dup3\n      add\n      0x00\n      tag_131\n      swap2\n      swap1\n      tag_132\n      jump\t// in\n    tag_131:\n      0x01\n      dup3\n      add\n      exp(0x0100, 0x00)\n      dup2\n      sload\n      swap1\n      0xffffffffffffffffffffffffffffffffffffffff\n      mul\n      not\n      and\n      swap1\n      sstore\n      0x01\n      dup3\n      add\n      exp(0x0100, 0x14)\n      dup2\n      sload\n      swap1\n      0xff\n      mul\n      not\n      and\n      swap1\n      sstore\n      pop\n      pop\n        /* \"contracts/Voting.sol\":3253:3276  CandidateApproved(name) */\n      0xa9d886ade6b6e09ec58cec4fd8e59462b4d7ea154eef81499395109789bd522a\n        /* \"contracts/Voting.sol\":3271:3275  name */\n      dup2\n        /* \"contracts/Voting.sol\":3253:3276  CandidateApproved(name) */\n      mload(0x40)\n      tag_133\n      swap2\n      swap1\n      tag_106\n      jump\t// in\n    tag_133:\n      mload(0x40)\n      dup1\n      swap2\n      sub\n      swap1\n      log1\n        /* \"contracts/Voting.sol\":2994:3283  function approveCandidate(string memory name) public onlyOwner {... */\n      pop\n      jump\t// out\n        /* \"contracts/Voting.sol\":674:701  bool public electionStarted */\n    tag_58:\n      0x00\n      0x14\n      swap1\n      sload\n      swap1\n      0x0100\n      exp\n      swap1\n      div\n      0xff\n      and\n      dup2\n      jump\t// out\n        /* \"contracts/Voting.sol\":1877:2576  function vote(string memory candidate) public electionActive {... */\n    tag_62:\n        /* \"contracts/Voting.sol\":1372:1387  electionStarted */\n      0x00\n      0x14\n      swap1\n      sload\n      swap1\n      0x0100\n      exp\n      swap1\n      div\n      0xff\n      and\n        /* \"contracts/Voting.sol\":1364:1412  require(electionStarted, \"Election not started\") */\n      tag_135\n      jumpi\n      mload(0x40)\n      0x08c379a000000000000000000000000000000000000000000000000000000000\n      dup2\n      mstore\n      0x04\n      add\n      tag_136\n      swap1\n      tag_137\n      jump\t// in\n    tag_136:\n      mload(0x40)\n      dup1\n      swap2\n      sub\n      swap1\n      revert\n    tag_135:\n        /* \"contracts/Voting.sol\":1431:1447  resultsPublished */\n      0x00\n      0x15\n      swap1\n      sload\n      swap1\n      0x0100\n      exp\n      swap1\n      div\n      0xff\n      and\n        /* \"contracts/Voting.sol\":1430:1447  !resultsPublished */\n      iszero\n        /* \"contracts/Voting.sol\":1422:1464  require(!resultsPublished, \"Voting ended\") */\n      tag_138\n      jumpi\n      mload(0x40)\n      0x08c379a000000000000000000000000000000000000000000000000000000000\n      dup2\n      mstore\n      0x04\n      add\n      tag_139\n      swap1\n      tag_140\n      jump\t// in\n    tag_139:\n      mload(0x40)\n      dup1\n      swap2\n      sub\n      swap1\n      revert\n    tag_138:\n        /* \"contracts/Voting.sol\":1956:1964  registry */\n      0x01\n      0x00\n      swap1\n      sload\n      swap1\n      0x0100\n      exp\n      swap1\n      div\n      0xffffffffffffffffffffffffffffffffffffffff\n      and\n        /* \"contracts/Voting.sol\":1956:1977  registry.isRegistered */\n      0xffffffffffffffffffffffffffffffffffffffff\n      and\n      0xc3c5a547\n        /* \"contracts/Voting.sol\":1978:1988  msg.sender */\n      caller\n        /* \"contracts/Voting.sol\":1956:1989  registry.isRegistered(msg.sender) */\n      mload(0x40)\n      dup3\n      0xffffffff\n      and\n      0xe0\n      shl\n      dup2\n      mstore\n      0x04\n      add\n      tag_142\n      swap2\n      swap1\n      tag_48\n      jump\t// in\n    tag_142:\n      0x20\n      mload(0x40)\n      dup1\n      dup4\n      sub\n      dup2\n      dup7\n      gas\n      staticcall\n      iszero\n      dup1\n      iszero\n      tag_144\n      jumpi\n      returndatasize\n      0x00\n      dup1\n      returndatacopy\n      revert(0x00, returndatasize)\n    tag_144:\n      pop\n      pop\n      pop\n      pop\n      mload(0x40)\n      returndatasize\n      not(0x1f)\n      0x1f\n      dup3\n      add\n      and\n      dup3\n      add\n      dup1\n      0x40\n      mstore\n      pop\n      dup2\n      add\n      swap1\n      tag_145\n      swap2\n      swap1\n      tag_73\n      jump\t// in\n    tag_145:\n        /* \"contracts/Voting.sol\":1948:2008  require(registry.isRegistered(msg.sender), \"Not registered\") */\n      tag_146\n      jumpi\n      mload(0x40)\n      0x08c379a000000000000000000000000000000000000000000000000000000000\n      dup2\n      mstore\n      0x04\n      add\n      tag_147\n      swap1\n      tag_148\n      jump\t// in\n    tag_147:\n      mload(0x40)\n      dup1\n      swap2\n      sub\n      swap1\n      revert\n    tag_146:\n        /* \"contracts/Voting.sol\":2027:2035  registry */\n      0x01\n      0x00\n      swap1\n      sload\n      swap1\n      0x0100\n      exp\n      swap1\n      div\n      0xffffffffffffffffffffffffffffffffffffffff\n      and\n        /* \"contracts/Voting.sol\":2027:2044  registry.hasVoted */\n      0xffffffffffffffffffffffffffffffffffffffff\n      and\n      0x09eef43e\n        /* \"contracts/Voting.sol\":2045:2055  msg.sender */\n      caller\n        /* \"contracts/Voting.sol\":2027:2056  registry.hasVoted(msg.sender) */\n      mload(0x40)\n      dup3\n      0xffffffff\n      and\n      0xe0\n      shl\n      dup2\n      mstore\n      0x04\n      add\n      tag_149\n      swap2\n      swap1\n      tag_48\n      jump\t// in\n    tag_149:\n      0x20\n      mload(0x40)\n      dup1\n      dup4\n      sub\n      dup2\n      dup7\n      gas\n      staticcall\n      iszero\n      dup1\n      iszero\n      tag_151\n      jumpi\n      returndatasize\n      0x00\n      dup1\n      returndatacopy\n      revert(0x00, returndatasize)\n    tag_151:\n      pop\n      pop\n      pop\n      pop\n      mload(0x40)\n      returndatasize\n      not(0x1f)\n      0x1f\n      dup3\n      add\n      and\n      dup3\n      add\n      dup1\n      0x40\n      mstore\n      pop\n      dup2\n      add\n      swap1\n      tag_152\n      swap2\n      swap1\n      tag_73\n      jump\t// in\n    tag_152:\n        /* \"contracts/Voting.sol\":2026:2056  !registry.hasVoted(msg.sender) */\n      iszero\n        /* \"contracts/Voting.sol\":2018:2074  require(!registry.hasVoted(msg.sender), \"Already voted\") */\n      tag_153\n      jumpi\n      mload(0x40)\n      0x08c379a000000000000000000000000000000000000000000000000000000000\n      dup2\n      mstore\n      0x04\n      add\n      tag_154\n      swap1\n      tag_155\n      jump\t// in\n    tag_154:\n      mload(0x40)\n      dup1\n      swap2\n      sub\n      swap1\n      revert\n    tag_153:\n        /* \"contracts/Voting.sol\":2085:2114  string[] memory allCandidates */\n      0x00\n        /* \"contracts/Voting.sol\":2117:2125  registry */\n      0x01\n      0x00\n      swap1\n      sload\n      swap1\n      0x0100\n      exp\n      swap1\n      div\n      0xffffffffffffffffffffffffffffffffffffffff\n      and\n        /* \"contracts/Voting.sol\":2117:2142  registry.getAllCandidates */\n      0xffffffffffffffffffffffffffffffffffffffff\n      and\n      0x2e6997fe\n        /* \"contracts/Voting.sol\":2117:2144  registry.getAllCandidates() */\n      mload(0x40)\n      dup2\n      0xffffffff\n      and\n      0xe0\n      shl\n      dup2\n      mstore\n      0x04\n      add\n      0x00\n      mload(0x40)\n      dup1\n      dup4\n      sub\n      dup2\n      dup7\n      gas\n      staticcall\n      iszero\n      dup1\n      iszero\n      tag_157\n      jumpi\n      returndatasize\n      0x00\n      dup1\n      returndatacopy\n      revert(0x00, returndatasize)\n    tag_157:\n      pop\n      pop\n      pop\n      pop\n      mload(0x40)\n      returndatasize\n      0x00\n      dup3\n      returndatacopy\n      returndatasize\n      not(0x1f)\n      0x1f\n      dup3\n      add\n      and\n      dup3\n      add\n      dup1\n      0x40\n      mstore\n      pop\n      dup2\n      add\n      swap1\n      tag_158\n      swap2\n      swap1\n      tag_78\n      jump\t// in\n    tag_158:\n        /* \"contracts/Voting.sol\":2085:2144  string[] memory allCandidates = registry.getAllCandidates() */\n      swap1\n      pop\n        /* \"contracts/Voting.sol\":2155:2165  bool valid */\n      0x00\n        /* \"contracts/Voting.sol\":2188:2194  uint i */\n      dup1\n        /* \"contracts/Voting.sol\":2183:2394  for (uint i = 0; i < allCandidates.length; i++) {... */\n    tag_159:\n        /* \"contracts/Voting.sol\":2204:2217  allCandidates */\n      dup3\n        /* \"contracts/Voting.sol\":2204:2224  allCandidates.length */\n      mload\n        /* \"contracts/Voting.sol\":2200:2201  i */\n      dup2\n        /* \"contracts/Voting.sol\":2200:2224  i < allCandidates.length */\n      lt\n        /* \"contracts/Voting.sol\":2183:2394  for (uint i = 0; i < allCandidates.length; i++) {... */\n      iszero\n      tag_160\n      jumpi\n        /* \"contracts/Voting.sol\":2303:2312  candidate */\n      dup4\n        /* \"contracts/Voting.sol\":2287:2314  keccak256(bytes(candidate)) */\n      dup1\n      mload\n      swap1\n      0x20\n      add\n      keccak256\n        /* \"contracts/Voting.sol\":2265:2278  allCandidates */\n      dup4\n        /* \"contracts/Voting.sol\":2279:2280  i */\n      dup3\n        /* \"contracts/Voting.sol\":2265:2281  allCandidates[i] */\n      dup2\n      mload\n      dup2\n      lt\n      tag_162\n      jumpi\n      tag_163\n      tag_164\n      jump\t// in\n    tag_163:\n    tag_162:\n      0x20\n      mul\n      0x20\n      add\n      add\n      mload\n        /* \"contracts/Voting.sol\":2249:2283  keccak256(bytes(allCandidates[i])) */\n      dup1\n      mload\n      swap1\n      0x20\n      add\n      keccak256\n        /* \"contracts/Voting.sol\":2249:2314  keccak256(bytes(allCandidates[i])) == keccak256(bytes(candidate)) */\n      sub\n        /* \"contracts/Voting.sol\":2245:2384  if (keccak256(bytes(allCandidates[i])) == keccak256(bytes(candidate))) {... */\n      tag_165\n      jumpi\n        /* \"contracts/Voting.sol\":2342:2346  true */\n      0x01\n        /* \"contracts/Voting.sol\":2334:2346  valid = true */\n      swap2\n      pop\n        /* \"contracts/Voting.sol\":2364:2369  break */\n      jump(tag_160)\n        /* \"contracts/Voting.sol\":2245:2384  if (keccak256(bytes(allCandidates[i])) == keccak256(bytes(candidate))) {... */\n    tag_165:\n        /* \"contracts/Voting.sol\":2226:2229  i++ */\n      dup1\n      dup1\n      tag_166\n      swap1\n      tag_167\n      jump\t// in\n    tag_166:\n      swap2\n      pop\n      pop\n        /* \"contracts/Voting.sol\":2183:2394  for (uint i = 0; i < allCandidates.length; i++) {... */\n      jump(tag_159)\n    tag_160:\n      pop\n        /* \"contracts/Voting.sol\":2411:2416  valid */\n      dup1\n        /* \"contracts/Voting.sol\":2403:2440  require(valid, \"Candidate not found\") */\n      tag_168\n      jumpi\n      mload(0x40)\n      0x08c379a000000000000000000000000000000000000000000000000000000000\n      dup2\n      mstore\n      0x04\n      add\n      tag_169\n      swap1\n      tag_170\n      jump\t// in\n    tag_169:\n      mload(0x40)\n      dup1\n      swap2\n      sub\n      swap1\n      revert\n    tag_168:\n        /* \"contracts/Voting.sol\":2451:2459  registry */\n      0x01\n      0x00\n      swap1\n      sload\n      swap1\n      0x0100\n      exp\n      swap1\n      div\n      0xffffffffffffffffffffffffffffffffffffffff\n      and\n        /* \"contracts/Voting.sol\":2451:2471  registry.setHasVoted */\n      0xffffffffffffffffffffffffffffffffffffffff\n      and\n      0x995278a3\n        /* \"contracts/Voting.sol\":2472:2482  msg.sender */\n      caller\n        /* \"contracts/Voting.sol\":2451:2483  registry.setHasVoted(msg.sender) */\n      mload(0x40)\n      dup3\n      0xffffffff\n      and\n      0xe0\n      shl\n      dup2\n      mstore\n      0x04\n      add\n      tag_171\n      swap2\n      swap1\n      tag_48\n      jump\t// in\n    tag_171:\n      0x00\n      mload(0x40)\n      dup1\n      dup4\n      sub\n      dup2\n      0x00\n      dup8\n      dup1\n      extcodesize\n      iszero\n      dup1\n      iszero\n      tag_172\n      jumpi\n      0x00\n      dup1\n      revert\n    tag_172:\n      pop\n      gas\n      call\n      iszero\n      dup1\n      iszero\n      tag_174\n      jumpi\n      returndatasize\n      0x00\n      dup1\n      returndatacopy\n      revert(0x00, returndatasize)\n    tag_174:\n      pop\n      pop\n      pop\n      pop\n        /* \"contracts/Voting.sol\":2493:2498  tally */\n      0x02\n      0x00\n      swap1\n      sload\n      swap1\n      0x0100\n      exp\n      swap1\n      div\n      0xffffffffffffffffffffffffffffffffffffffff\n      and\n        /* \"contracts/Voting.sol\":2493:2507  tally.addVotes */\n      0xffffffffffffffffffffffffffffffffffffffff\n      and\n      0xbea9a9a4\n        /* \"contracts/Voting.sol\":2508:2517  candidate */\n      dup5\n        /* \"contracts/Voting.sol\":2519:2520  1 */\n      0x01\n        /* \"contracts/Voting.sol\":2493:2521  tally.addVotes(candidate, 1) */\n      mload(0x40)\n      dup4\n      0xffffffff\n      and\n      0xe0\n      shl\n      dup2\n      mstore\n      0x04\n      add\n      tag_175\n      swap3\n      swap2\n      swap1\n      tag_176\n      jump\t// in\n    tag_175:\n      0x00\n      mload(0x40)\n      dup1\n      dup4\n      sub\n      dup2\n      0x00\n      dup8\n      dup1\n      extcodesize\n      iszero\n      dup1\n      iszero\n      tag_177\n      jumpi\n      0x00\n      dup1\n      revert\n    tag_177:\n      pop\n      gas\n      call\n      iszero\n      dup1\n      iszero\n      tag_179\n      jumpi\n      returndatasize\n      0x00\n      dup1\n      returndatacopy\n      revert(0x00, returndatasize)\n    tag_179:\n      pop\n      pop\n      pop\n      pop\n        /* \"contracts/Voting.sol\":2536:2569  VoteCasted(msg.sender, candidate) */\n      0xb7821d50dfbda5ea310faebbeac5217bc1bb0cabe463e76b80e48d11e57df098\n        /* \"contracts/Voting.sol\":2547:2557  msg.sender */\n      caller\n        /* \"contracts/Voting.sol\":2559:2568  candidate */\n      dup5\n        /* \"contracts/Voting.sol\":2536:2569  VoteCasted(msg.sender, candidate) */\n      mload(0x40)\n      tag_180\n      swap3\n      swap2\n      swap1\n      tag_181\n      jump\t// in\n    tag_180:\n      mload(0x40)\n      dup1\n      swap2\n      sub\n      swap1\n      log1\n        /* \"contracts/Voting.sol\":1938:2576  {... */\n      pop\n      pop\n        /* \"contracts/Voting.sol\":1877:2576  function vote(string memory candidate) public electionActive {... */\n      pop\n      jump\t// out\n    tag_132:\n      pop\n      dup1\n      sload\n      tag_182\n      swap1\n      tag_88\n      jump\t// in\n    tag_182:\n      0x00\n      dup3\n      sstore\n      dup1\n      0x1f\n      lt\n      tag_184\n      jumpi\n      pop\n      jump(tag_183)\n    tag_184:\n      0x1f\n      add\n      0x20\n      swap1\n      div\n      swap1\n      0x00\n      mstore\n      keccak256(0x00, 0x20)\n      swap1\n      dup2\n      add\n      swap1\n      tag_185\n      swap2\n      swap1\n      tag_186\n      jump\t// in\n    tag_185:\n    tag_183:\n      pop\n      jump\t// out\n    tag_186:\n    tag_187:\n      dup1\n      dup3\n      gt\n      iszero\n      tag_188\n      jumpi\n      0x00\n      dup2\n      0x00\n      swap1\n      sstore\n      pop\n      0x01\n      add\n      jump(tag_187)\n    tag_188:\n      pop\n      swap1\n      jump\t// out\n        /* \"#utility.yul\":7:97   */\n    tag_189:\n        /* \"#utility.yul\":41:48   */\n      0x00\n        /* \"#utility.yul\":84:89   */\n      dup2\n        /* \"#utility.yul\":77:90   */\n      iszero\n        /* \"#utility.yul\":70:91   */\n      iszero\n        /* \"#utility.yul\":59:91   */\n      swap1\n      pop\n        /* \"#utility.yul\":7:97   */\n      swap2\n      swap1\n      pop\n      jump\t// out\n        /* \"#utility.yul\":103:212   */\n    tag_190:\n        /* \"#utility.yul\":184:205   */\n      tag_286\n        /* \"#utility.yul\":199:204   */\n      dup2\n        /* \"#utility.yul\":184:205   */\n      tag_189\n      jump\t// in\n    tag_286:\n        /* \"#utility.yul\":179:182   */\n      dup3\n        /* \"#utility.yul\":172:206   */\n      mstore\n        /* \"#utility.yul\":103:212   */\n      pop\n      pop\n      jump\t// out\n        /* \"#utility.yul\":218:428   */\n    tag_21:\n        /* \"#utility.yul\":305:309   */\n      0x00\n        /* \"#utility.yul\":343:345   */\n      0x20\n        /* \"#utility.yul\":332:341   */\n      dup3\n        /* \"#utility.yul\":328:346   */\n      add\n        /* \"#utility.yul\":320:346   */\n      swap1\n      pop\n        /* \"#utility.yul\":356:421   */\n      tag_288\n        /* \"#utility.yul\":418:419   */\n      0x00\n        /* \"#utility.yul\":407:416   */\n      dup4\n        /* \"#utility.yul\":403:420   */\n      add\n        /* \"#utility.yul\":394:400   */\n      dup5\n        /* \"#utility.yul\":356:421   */\n      tag_190\n      jump\t// in\n    tag_288:\n        /* \"#utility.yul\":218:428   */\n      swap3\n      swap2\n      pop\n      pop\n      jump\t// out\n        /* \"#utility.yul\":434:558   */\n    tag_191:\n        /* \"#utility.yul\":511:517   */\n      0x00\n        /* \"#utility.yul\":545:550   */\n      dup2\n        /* \"#utility.yul\":539:551   */\n      mload\n        /* \"#utility.yul\":529:551   */\n      swap1\n      pop\n        /* \"#utility.yul\":434:558   */\n      swap2\n      swap1\n      pop\n      jump\t// out\n        /* \"#utility.yul\":564:758   */\n    tag_192:\n        /* \"#utility.yul\":673:684   */\n      0x00\n        /* \"#utility.yul\":707:713   */\n      dup3\n        /* \"#utility.yul\":702:705   */\n      dup3\n        /* \"#utility.yul\":695:714   */\n      mstore\n        /* \"#utility.yul\":747:751   */\n      0x20\n        /* \"#utility.yul\":742:745   */\n      dup3\n        /* \"#utility.yul\":738:752   */\n      add\n        /* \"#utility.yul\":723:752   */\n      swap1\n      pop\n        /* \"#utility.yul\":564:758   */\n      swap3\n      swap2\n      pop\n      pop\n      jump\t// out\n        /* \"#utility.yul\":764:906   */\n    tag_193:\n        /* \"#utility.yul\":841:845   */\n      0x00\n        /* \"#utility.yul\":864:867   */\n      dup2\n        /* \"#utility.yul\":856:867   */\n      swap1\n      pop\n        /* \"#utility.yul\":894:898   */\n      0x20\n        /* \"#utility.yul\":889:892   */\n      dup3\n        /* \"#utility.yul\":885:899   */\n      add\n        /* \"#utility.yul\":877:899   */\n      swap1\n      pop\n        /* \"#utility.yul\":764:906   */\n      swap2\n      swap1\n      pop\n      jump\t// out\n        /* \"#utility.yul\":912:1011   */\n    tag_194:\n        /* \"#utility.yul\":964:970   */\n      0x00\n        /* \"#utility.yul\":998:1003   */\n      dup2\n        /* \"#utility.yul\":992:1004   */\n      mload\n        /* \"#utility.yul\":982:1004   */\n      swap1\n      pop\n        /* \"#utility.yul\":912:1011   */\n      swap2\n      swap1\n      pop\n      jump\t// out\n        /* \"#utility.yul\":1017:1176   */\n    tag_195:\n        /* \"#utility.yul\":1091:1102   */\n      0x00\n        /* \"#utility.yul\":1125:1131   */\n      dup3\n        /* \"#utility.yul\":1120:1123   */\n      dup3\n        /* \"#utility.yul\":1113:1132   */\n      mstore\n        /* \"#utility.yul\":1165:1169   */\n      0x20\n        /* \"#utility.yul\":1160:1163   */\n      dup3\n        /* \"#utility.yul\":1156:1170   */\n      add\n        /* \"#utility.yul\":1141:1170   */\n      swap1\n      pop\n        /* \"#utility.yul\":1017:1176   */\n      swap3\n      swap2\n      pop\n      pop\n      jump\t// out\n        /* \"#utility.yul\":1182:1428   */\n    tag_196:\n        /* \"#utility.yul\":1263:1264   */\n      0x00\n        /* \"#utility.yul\":1273:1386   */\n    tag_295:\n        /* \"#utility.yul\":1287:1293   */\n      dup4\n        /* \"#utility.yul\":1284:1285   */\n      dup2\n        /* \"#utility.yul\":1281:1294   */\n      lt\n        /* \"#utility.yul\":1273:1386   */\n      iszero\n      tag_297\n      jumpi\n        /* \"#utility.yul\":1372:1373   */\n      dup1\n        /* \"#utility.yul\":1367:1370   */\n      dup3\n        /* \"#utility.yul\":1363:1374   */\n      add\n        /* \"#utility.yul\":1357:1375   */\n      mload\n        /* \"#utility.yul\":1353:1354   */\n      dup2\n        /* \"#utility.yul\":1348:1351   */\n      dup5\n        /* \"#utility.yul\":1344:1355   */\n      add\n        /* \"#utility.yul\":1337:1376   */\n      mstore\n        /* \"#utility.yul\":1309:1311   */\n      0x20\n        /* \"#utility.yul\":1306:1307   */\n      dup2\n        /* \"#utility.yul\":1302:1312   */\n      add\n        /* \"#utility.yul\":1297:1312   */\n      swap1\n      pop\n        /* \"#utility.yul\":1273:1386   */\n      jump(tag_295)\n    tag_297:\n        /* \"#utility.yul\":1420:1421   */\n      0x00\n        /* \"#utility.yul\":1411:1417   */\n      dup5\n        /* \"#utility.yul\":1406:1409   */\n      dup5\n        /* \"#utility.yul\":1402:1418   */\n      add\n        /* \"#utility.yul\":1395:1422   */\n      mstore\n        /* \"#utility.yul\":1244:1428   */\n      pop\n        /* \"#utility.yul\":1182:1428   */\n      pop\n      pop\n      pop\n      jump\t// out\n        /* \"#utility.yul\":1434:1536   */\n    tag_197:\n        /* \"#utility.yul\":1475:1481   */\n      0x00\n        /* \"#utility.yul\":1526:1528   */\n      0x1f\n        /* \"#utility.yul\":1522:1529   */\n      not\n        /* \"#utility.yul\":1517:1519   */\n      0x1f\n        /* \"#utility.yul\":1510:1515   */\n      dup4\n        /* \"#utility.yul\":1506:1520   */\n      add\n        /* \"#utility.yul\":1502:1530   */\n      and\n        /* \"#utility.yul\":1492:1530   */\n      swap1\n      pop\n        /* \"#utility.yul\":1434:1536   */\n      swap2\n      swap1\n      pop\n      jump\t// out\n        /* \"#utility.yul\":1542:1899   */\n    tag_198:\n        /* \"#utility.yul\":1620:1623   */\n      0x00\n        /* \"#utility.yul\":1648:1687   */\n      tag_300\n        /* \"#utility.yul\":1681:1686   */\n      dup3\n        /* \"#utility.yul\":1648:1687   */\n      tag_194\n      jump\t// in\n    tag_300:\n        /* \"#utility.yul\":1703:1764   */\n      tag_301\n        /* \"#utility.yul\":1757:1763   */\n      dup2\n        /* \"#utility.yul\":1752:1755   */\n      dup6\n        /* \"#utility.yul\":1703:1764   */\n      tag_195\n      jump\t// in\n    tag_301:\n        /* \"#utility.yul\":1696:1764   */\n      swap4\n      pop\n        /* \"#utility.yul\":1773:1838   */\n      tag_302\n        /* \"#utility.yul\":1831:1837   */\n      dup2\n        /* \"#utility.yul\":1826:1829   */\n      dup6\n        /* \"#utility.yul\":1819:1823   */\n      0x20\n        /* \"#utility.yul\":1812:1817   */\n      dup7\n        /* \"#utility.yul\":1808:1824   */\n      add\n        /* \"#utility.yul\":1773:1838   */\n      tag_196\n      jump\t// in\n    tag_302:\n        /* \"#utility.yul\":1863:1892   */\n      tag_303\n        /* \"#utility.yul\":1885:1891   */\n      dup2\n        /* \"#utility.yul\":1863:1892   */\n      tag_197\n      jump\t// in\n    tag_303:\n        /* \"#utility.yul\":1858:1861   */\n      dup5\n        /* \"#utility.yul\":1854:1893   */\n      add\n        /* \"#utility.yul\":1847:1893   */\n      swap2\n      pop\n        /* \"#utility.yul\":1624:1899   */\n      pop\n        /* \"#utility.yul\":1542:1899   */\n      swap3\n      swap2\n      pop\n      pop\n      jump\t// out\n        /* \"#utility.yul\":1905:2101   */\n    tag_199:\n        /* \"#utility.yul\":1994:2004   */\n      0x00\n        /* \"#utility.yul\":2029:2095   */\n      tag_305\n        /* \"#utility.yul\":2091:2094   */\n      dup4\n        /* \"#utility.yul\":2083:2089   */\n      dup4\n        /* \"#utility.yul\":2029:2095   */\n      tag_198\n      jump\t// in\n    tag_305:\n        /* \"#utility.yul\":2015:2095   */\n      swap1\n      pop\n        /* \"#utility.yul\":1905:2101   */\n      swap3\n      swap2\n      pop\n      pop\n      jump\t// out\n        /* \"#utility.yul\":2107:2230   */\n    tag_200:\n        /* \"#utility.yul\":2187:2191   */\n      0x00\n        /* \"#utility.yul\":2219:2223   */\n      0x20\n        /* \"#utility.yul\":2214:2217   */\n      dup3\n        /* \"#utility.yul\":2210:2224   */\n      add\n        /* \"#utility.yul\":2202:2224   */\n      swap1\n      pop\n        /* \"#utility.yul\":2107:2230   */\n      swap2\n      swap1\n      pop\n      jump\t// out\n        /* \"#utility.yul\":2264:3255   */\n    tag_201:\n        /* \"#utility.yul\":2403:2406   */\n      0x00\n        /* \"#utility.yul\":2432:2496   */\n      tag_308\n        /* \"#utility.yul\":2490:2495   */\n      dup3\n        /* \"#utility.yul\":2432:2496   */\n      tag_191\n      jump\t// in\n    tag_308:\n        /* \"#utility.yul\":2512:2608   */\n      tag_309\n        /* \"#utility.yul\":2601:2607   */\n      dup2\n        /* \"#utility.yul\":2596:2599   */\n      dup6\n        /* \"#utility.yul\":2512:2608   */\n      tag_192\n      jump\t// in\n    tag_309:\n        /* \"#utility.yul\":2505:2608   */\n      swap4\n      pop\n        /* \"#utility.yul\":2634:2637   */\n      dup4\n        /* \"#utility.yul\":2679:2683   */\n      0x20\n        /* \"#utility.yul\":2671:2677   */\n      dup3\n        /* \"#utility.yul\":2667:2684   */\n      mul\n        /* \"#utility.yul\":2662:2665   */\n      dup6\n        /* \"#utility.yul\":2658:2685   */\n      add\n        /* \"#utility.yul\":2709:2775   */\n      tag_310\n        /* \"#utility.yul\":2769:2774   */\n      dup6\n        /* \"#utility.yul\":2709:2775   */\n      tag_193\n      jump\t// in\n    tag_310:\n        /* \"#utility.yul\":2798:2805   */\n      dup1\n        /* \"#utility.yul\":2829:2830   */\n      0x00\n        /* \"#utility.yul\":2814:3210   */\n    tag_311:\n        /* \"#utility.yul\":2839:2845   */\n      dup6\n        /* \"#utility.yul\":2836:2837   */\n      dup2\n        /* \"#utility.yul\":2833:2846   */\n      lt\n        /* \"#utility.yul\":2814:3210   */\n      iszero\n      tag_313\n      jumpi\n        /* \"#utility.yul\":2910:2919   */\n      dup5\n        /* \"#utility.yul\":2904:2908   */\n      dup5\n        /* \"#utility.yul\":2900:2920   */\n      sub\n        /* \"#utility.yul\":2895:2898   */\n      dup10\n        /* \"#utility.yul\":2888:2921   */\n      mstore\n        /* \"#utility.yul\":2961:2967   */\n      dup2\n        /* \"#utility.yul\":2955:2968   */\n      mload\n        /* \"#utility.yul\":2989:3073   */\n      tag_314\n        /* \"#utility.yul\":3068:3072   */\n      dup6\n        /* \"#utility.yul\":3053:3066   */\n      dup3\n        /* \"#utility.yul\":2989:3073   */\n      tag_199\n      jump\t// in\n    tag_314:\n        /* \"#utility.yul\":2981:3073   */\n      swap5\n      pop\n        /* \"#utility.yul\":3096:3166   */\n      tag_315\n        /* \"#utility.yul\":3159:3165   */\n      dup4\n        /* \"#utility.yul\":3096:3166   */\n      tag_200\n      jump\t// in\n    tag_315:\n        /* \"#utility.yul\":3086:3166   */\n      swap3\n      pop\n        /* \"#utility.yul\":3195:3199   */\n      0x20\n        /* \"#utility.yul\":3190:3193   */\n      dup11\n        /* \"#utility.yul\":3186:3200   */\n      add\n        /* \"#utility.yul\":3179:3200   */\n      swap10\n      pop\n        /* \"#utility.yul\":2874:3210   */\n      pop\n        /* \"#utility.yul\":2861:2862   */\n      0x01\n        /* \"#utility.yul\":2858:2859   */\n      dup2\n        /* \"#utility.yul\":2854:2863   */\n      add\n        /* \"#utility.yul\":2849:2863   */\n      swap1\n      pop\n        /* \"#utility.yul\":2814:3210   */\n      jump(tag_311)\n    tag_313:\n        /* \"#utility.yul\":2818:2832   */\n      pop\n        /* \"#utility.yul\":3226:3230   */\n      dup3\n        /* \"#utility.yul\":3219:3230   */\n      swap8\n      pop\n        /* \"#utility.yul\":3246:3249   */\n      dup8\n        /* \"#utility.yul\":3239:3249   */\n      swap6\n      pop\n        /* \"#utility.yul\":2408:3255   */\n      pop\n      pop\n      pop\n      pop\n      pop\n        /* \"#utility.yul\":2264:3255   */\n      swap3\n      swap2\n      pop\n      pop\n      jump\t// out\n        /* \"#utility.yul\":3261:3674   */\n    tag_25:\n        /* \"#utility.yul\":3424:3428   */\n      0x00\n        /* \"#utility.yul\":3462:3464   */\n      0x20\n        /* \"#utility.yul\":3451:3460   */\n      dup3\n        /* \"#utility.yul\":3447:3465   */\n      add\n        /* \"#utility.yul\":3439:3465   */\n      swap1\n      pop\n        /* \"#utility.yul\":3511:3520   */\n      dup2\n        /* \"#utility.yul\":3505:3509   */\n      dup2\n        /* \"#utility.yul\":3501:3521   */\n      sub\n        /* \"#utility.yul\":3497:3498   */\n      0x00\n        /* \"#utility.yul\":3486:3495   */\n      dup4\n        /* \"#utility.yul\":3482:3499   */\n      add\n        /* \"#utility.yul\":3475:3522   */\n      mstore\n        /* \"#utility.yul\":3539:3667   */\n      tag_317\n        /* \"#utility.yul\":3662:3666   */\n      dup2\n        /* \"#utility.yul\":3653:3659   */\n      dup5\n        /* \"#utility.yul\":3539:3667   */\n      tag_201\n      jump\t// in\n    tag_317:\n        /* \"#utility.yul\":3531:3667   */\n      swap1\n      pop\n        /* \"#utility.yul\":3261:3674   */\n      swap3\n      swap2\n      pop\n      pop\n      jump\t// out\n        /* \"#utility.yul\":3680:3806   */\n    tag_202:\n        /* \"#utility.yul\":3717:3724   */\n      0x00\n        /* \"#utility.yul\":3757:3799   */\n      0xffffffffffffffffffffffffffffffffffffffff\n        /* \"#utility.yul\":3750:3755   */\n      dup3\n        /* \"#utility.yul\":3746:3800   */\n      and\n        /* \"#utility.yul\":3735:3800   */\n      swap1\n      pop\n        /* \"#utility.yul\":3680:3806   */\n      swap2\n      swap1\n      pop\n      jump\t// out\n        /* \"#utility.yul\":3812:3872   */\n    tag_203:\n        /* \"#utility.yul\":3840:3843   */\n      0x00\n        /* \"#utility.yul\":3861:3866   */\n      dup2\n        /* \"#utility.yul\":3854:3866   */\n      swap1\n      pop\n        /* \"#utility.yul\":3812:3872   */\n      swap2\n      swap1\n      pop\n      jump\t// out\n        /* \"#utility.yul\":3878:4020   */\n    tag_204:\n        /* \"#utility.yul\":3928:3937   */\n      0x00\n        /* \"#utility.yul\":3961:4014   */\n      tag_321\n        /* \"#utility.yul\":3979:4013   */\n      tag_322\n        /* \"#utility.yul\":3988:4012   */\n      tag_323\n        /* \"#utility.yul\":4006:4011   */\n      dup5\n        /* \"#utility.yul\":3988:4012   */\n      tag_202\n      jump\t// in\n    tag_323:\n        /* \"#utility.yul\":3979:4013   */\n      tag_203\n      jump\t// in\n    tag_322:\n        /* \"#utility.yul\":3961:4014   */\n      tag_202\n      jump\t// in\n    tag_321:\n        /* \"#utility.yul\":3948:4014   */\n      swap1\n      pop\n        /* \"#utility.yul\":3878:4020   */\n      swap2\n      swap1\n      pop\n      jump\t// out\n        /* \"#utility.yul\":4026:4152   */\n    tag_205:\n        /* \"#utility.yul\":4076:4085   */\n      0x00\n        /* \"#utility.yul\":4109:4146   */\n      tag_325\n        /* \"#utility.yul\":4140:4145   */\n      dup3\n        /* \"#utility.yul\":4109:4146   */\n      tag_204\n      jump\t// in\n    tag_325:\n        /* \"#utility.yul\":4096:4146   */\n      swap1\n      pop\n        /* \"#utility.yul\":4026:4152   */\n      swap2\n      swap1\n      pop\n      jump\t// out\n        /* \"#utility.yul\":4158:4297   */\n    tag_206:\n        /* \"#utility.yul\":4221:4230   */\n      0x00\n        /* \"#utility.yul\":4254:4291   */\n      tag_327\n        /* \"#utility.yul\":4285:4290   */\n      dup3\n        /* \"#utility.yul\":4254:4291   */\n      tag_205\n      jump\t// in\n    tag_327:\n        /* \"#utility.yul\":4241:4291   */\n      swap1\n      pop\n        /* \"#utility.yul\":4158:4297   */\n      swap2\n      swap1\n      pop\n      jump\t// out\n        /* \"#utility.yul\":4303:4460   */\n    tag_207:\n        /* \"#utility.yul\":4403:4453   */\n      tag_329\n        /* \"#utility.yul\":4447:4452   */\n      dup2\n        /* \"#utility.yul\":4403:4453   */\n      tag_206\n      jump\t// in\n    tag_329:\n        /* \"#utility.yul\":4398:4401   */\n      dup3\n        /* \"#utility.yul\":4391:4454   */\n      mstore\n        /* \"#utility.yul\":4303:4460   */\n      pop\n      pop\n      jump\t// out\n        /* \"#utility.yul\":4466:4714   */\n    tag_29:\n        /* \"#utility.yul\":4572:4576   */\n      0x00\n        /* \"#utility.yul\":4610:4612   */\n      0x20\n        /* \"#utility.yul\":4599:4608   */\n      dup3\n        /* \"#utility.yul\":4595:4613   */\n      add\n        /* \"#utility.yul\":4587:4613   */\n      swap1\n      pop\n        /* \"#utility.yul\":4623:4707   */\n      tag_331\n        /* \"#utility.yul\":4704:4705   */\n      0x00\n        /* \"#utility.yul\":4693:4702   */\n      dup4\n        /* \"#utility.yul\":4689:4706   */\n      add\n        /* \"#utility.yul\":4680:4686   */\n      dup5\n        /* \"#utility.yul\":4623:4707   */\n      tag_207\n      jump\t// in\n    tag_331:\n        /* \"#utility.yul\":4466:4714   */\n      swap3\n      swap2\n      pop\n      pop\n      jump\t// out\n        /* \"#utility.yul\":4720:4867   */\n    tag_208:\n        /* \"#utility.yul\":4791:4800   */\n      0x00\n        /* \"#utility.yul\":4824:4861   */\n      tag_333\n        /* \"#utility.yul\":4855:4860   */\n      dup3\n        /* \"#utility.yul\":4824:4861   */\n      tag_205\n      jump\t// in\n    tag_333:\n        /* \"#utility.yul\":4811:4861   */\n      swap1\n      pop\n        /* \"#utility.yul\":4720:4867   */\n      swap2\n      swap1\n      pop\n      jump\t// out\n        /* \"#utility.yul\":4873:5046   */\n    tag_209:\n        /* \"#utility.yul\":4981:5039   */\n      tag_335\n        /* \"#utility.yul\":5033:5038   */\n      dup2\n        /* \"#utility.yul\":4981:5039   */\n      tag_208\n      jump\t// in\n    tag_335:\n        /* \"#utility.yul\":4976:4979   */\n      dup3\n        /* \"#utility.yul\":4969:5040   */\n      mstore\n        /* \"#utility.yul\":4873:5046   */\n      pop\n      pop\n      jump\t// out\n        /* \"#utility.yul\":5052:5316   */\n    tag_38:\n        /* \"#utility.yul\":5166:5170   */\n      0x00\n        /* \"#utility.yul\":5204:5206   */\n      0x20\n        /* \"#utility.yul\":5193:5202   */\n      dup3\n        /* \"#utility.yul\":5189:5207   */\n      add\n        /* \"#utility.yul\":5181:5207   */\n      swap1\n      pop\n        /* \"#utility.yul\":5217:5309   */\n      tag_337\n        /* \"#utility.yul\":5306:5307   */\n      0x00\n        /* \"#utility.yul\":5295:5304   */\n      dup4\n        /* \"#utility.yul\":5291:5308   */\n      add\n        /* \"#utility.yul\":5282:5288   */\n      dup5\n        /* \"#utility.yul\":5217:5309   */\n      tag_209\n      jump\t// in\n    tag_337:\n        /* \"#utility.yul\":5052:5316   */\n      swap3\n      swap2\n      pop\n      pop\n      jump\t// out\n        /* \"#utility.yul\":5322:5397   */\n    tag_210:\n        /* \"#utility.yul\":5355:5361   */\n      0x00\n        /* \"#utility.yul\":5388:5390   */\n      0x40\n        /* \"#utility.yul\":5382:5391   */\n      mload\n        /* \"#utility.yul\":5372:5391   */\n      swap1\n      pop\n        /* \"#utility.yul\":5322:5397   */\n      swap1\n      jump\t// out\n        /* \"#utility.yul\":5403:5520   */\n    tag_211:\n        /* \"#utility.yul\":5512:5513   */\n      0x00\n        /* \"#utility.yul\":5509:5510   */\n      dup1\n        /* \"#utility.yul\":5502:5514   */\n      revert\n        /* \"#utility.yul\":5526:5643   */\n    tag_212:\n        /* \"#utility.yul\":5635:5636   */\n      0x00\n        /* \"#utility.yul\":5632:5633   */\n      dup1\n        /* \"#utility.yul\":5625:5637   */\n      revert\n        /* \"#utility.yul\":5649:5766   */\n    tag_213:\n        /* \"#utility.yul\":5758:5759   */\n      0x00\n        /* \"#utility.yul\":5755:5756   */\n      dup1\n        /* \"#utility.yul\":5748:5760   */\n      revert\n        /* \"#utility.yul\":5772:5889   */\n    tag_214:\n        /* \"#utility.yul\":5881:5882   */\n      0x00\n        /* \"#utility.yul\":5878:5879   */\n      dup1\n        /* \"#utility.yul\":5871:5883   */\n      revert\n        /* \"#utility.yul\":5895:6075   */\n    tag_215:\n        /* \"#utility.yul\":5943:6020   */\n      0x4e487b7100000000000000000000000000000000000000000000000000000000\n        /* \"#utility.yul\":5940:5941   */\n      0x00\n        /* \"#utility.yul\":5933:6021   */\n      mstore\n        /* \"#utility.yul\":6040:6044   */\n      0x41\n        /* \"#utility.yul\":6037:6038   */\n      0x04\n        /* \"#utility.yul\":6030:6045   */\n      mstore\n        /* \"#utility.yul\":6064:6068   */\n      0x24\n        /* \"#utility.yul\":6061:6062   */\n      0x00\n        /* \"#utility.yul\":6054:6069   */\n      revert\n        /* \"#utility.yul\":6081:6362   */\n    tag_216:\n        /* \"#utility.yul\":6164:6191   */\n      tag_345\n        /* \"#utility.yul\":6186:6190   */\n      dup3\n        /* \"#utility.yul\":6164:6191   */\n      tag_197\n      jump\t// in\n    tag_345:\n        /* \"#utility.yul\":6156:6162   */\n      dup2\n        /* \"#utility.yul\":6152:6192   */\n      add\n        /* \"#utility.yul\":6294:6300   */\n      dup2\n        /* \"#utility.yul\":6282:6292   */\n      dup2\n        /* \"#utility.yul\":6279:6301   */\n      lt\n        /* \"#utility.yul\":6258:6276   */\n      0xffffffffffffffff\n        /* \"#utility.yul\":6246:6256   */\n      dup3\n        /* \"#utility.yul\":6243:6277   */\n      gt\n        /* \"#utility.yul\":6240:6302   */\n      or\n        /* \"#utility.yul\":6237:6325   */\n      iszero\n      tag_346\n      jumpi\n        /* \"#utility.yul\":6305:6323   */\n      tag_347\n      tag_215\n      jump\t// in\n    tag_347:\n        /* \"#utility.yul\":6237:6325   */\n    tag_346:\n        /* \"#utility.yul\":6345:6355   */\n      dup1\n        /* \"#utility.yul\":6341:6343   */\n      0x40\n        /* \"#utility.yul\":6334:6356   */\n      mstore\n        /* \"#utility.yul\":6124:6362   */\n      pop\n        /* \"#utility.yul\":6081:6362   */\n      pop\n      pop\n      jump\t// out\n        /* \"#utility.yul\":6368:6497   */\n    tag_217:\n        /* \"#utility.yul\":6402:6408   */\n      0x00\n        /* \"#utility.yul\":6429:6449   */\n      tag_349\n      tag_210\n      jump\t// in\n    tag_349:\n        /* \"#utility.yul\":6419:6449   */\n      swap1\n      pop\n        /* \"#utility.yul\":6458:6491   */\n      tag_350\n        /* \"#utility.yul\":6486:6490   */\n      dup3\n        /* \"#utility.yul\":6478:6484   */\n      dup3\n        /* \"#utility.yul\":6458:6491   */\n      tag_216\n      jump\t// in\n    tag_350:\n        /* \"#utility.yul\":6368:6497   */\n      swap2\n      swap1\n      pop\n      jump\t// out\n        /* \"#utility.yul\":6503:6811   */\n    tag_218:\n        /* \"#utility.yul\":6565:6569   */\n      0x00\n        /* \"#utility.yul\":6655:6673   */\n      0xffffffffffffffff\n        /* \"#utility.yul\":6647:6653   */\n      dup3\n        /* \"#utility.yul\":6644:6674   */\n      gt\n        /* \"#utility.yul\":6641:6697   */\n      iszero\n      tag_352\n      jumpi\n        /* \"#utility.yul\":6677:6695   */\n      tag_353\n      tag_215\n      jump\t// in\n    tag_353:\n        /* \"#utility.yul\":6641:6697   */\n    tag_352:\n        /* \"#utility.yul\":6715:6744   */\n      tag_354\n        /* \"#utility.yul\":6737:6743   */\n      dup3\n        /* \"#utility.yul\":6715:6744   */\n      tag_197\n      jump\t// in\n    tag_354:\n        /* \"#utility.yul\":6707:6744   */\n      swap1\n      pop\n        /* \"#utility.yul\":6799:6803   */\n      0x20\n        /* \"#utility.yul\":6793:6797   */\n      dup2\n        /* \"#utility.yul\":6789:6804   */\n      add\n        /* \"#utility.yul\":6781:6804   */\n      swap1\n      pop\n        /* \"#utility.yul\":6503:6811   */\n      swap2\n      swap1\n      pop\n      jump\t// out\n        /* \"#utility.yul\":6817:6963   */\n    tag_219:\n        /* \"#utility.yul\":6914:6920   */\n      dup3\n        /* \"#utility.yul\":6909:6912   */\n      dup2\n        /* \"#utility.yul\":6904:6907   */\n      dup4\n        /* \"#utility.yul\":6891:6921   */\n      calldatacopy\n        /* \"#utility.yul\":6955:6956   */\n      0x00\n        /* \"#utility.yul\":6946:6952   */\n      dup4\n        /* \"#utility.yul\":6941:6944   */\n      dup4\n        /* \"#utility.yul\":6937:6953   */\n      add\n        /* \"#utility.yul\":6930:6957   */\n      mstore\n        /* \"#utility.yul\":6817:6963   */\n      pop\n      pop\n      pop\n      jump\t// out\n        /* \"#utility.yul\":6969:7394   */\n    tag_220:\n        /* \"#utility.yul\":7047:7052   */\n      0x00\n        /* \"#utility.yul\":7072:7138   */\n      tag_357\n        /* \"#utility.yul\":7088:7137   */\n      tag_358\n        /* \"#utility.yul\":7130:7136   */\n      dup5\n        /* \"#utility.yul\":7088:7137   */\n      tag_218\n      jump\t// in\n    tag_358:\n        /* \"#utility.yul\":7072:7138   */\n      tag_217\n      jump\t// in\n    tag_357:\n        /* \"#utility.yul\":7063:7138   */\n      swap1\n      pop\n        /* \"#utility.yul\":7161:7167   */\n      dup3\n        /* \"#utility.yul\":7154:7159   */\n      dup2\n        /* \"#utility.yul\":7147:7168   */\n      mstore\n        /* \"#utility.yul\":7199:7203   */\n      0x20\n        /* \"#utility.yul\":7192:7197   */\n      dup2\n        /* \"#utility.yul\":7188:7204   */\n      add\n        /* \"#utility.yul\":7237:7240   */\n      dup5\n        /* \"#utility.yul\":7228:7234   */\n      dup5\n        /* \"#utility.yul\":7223:7226   */\n      dup5\n        /* \"#utility.yul\":7219:7235   */\n      add\n        /* \"#utility.yul\":7216:7241   */\n      gt\n        /* \"#utility.yul\":7213:7325   */\n      iszero\n      tag_359\n      jumpi\n        /* \"#utility.yul\":7244:7323   */\n      tag_360\n      tag_214\n      jump\t// in\n    tag_360:\n        /* \"#utility.yul\":7213:7325   */\n    tag_359:\n        /* \"#utility.yul\":7334:7388   */\n      tag_361\n        /* \"#utility.yul\":7381:7387   */\n      dup5\n        /* \"#utility.yul\":7376:7379   */\n      dup3\n        /* \"#utility.yul\":7371:7374   */\n      dup6\n        /* \"#utility.yul\":7334:7388   */\n      tag_219\n      jump\t// in\n    tag_361:\n        /* \"#utility.yul\":7053:7394   */\n      pop\n        /* \"#utility.yul\":6969:7394   */\n      swap4\n      swap3\n      pop\n      pop\n      pop\n      jump\t// out\n        /* \"#utility.yul\":7414:7754   */\n    tag_221:\n        /* \"#utility.yul\":7470:7475   */\n      0x00\n        /* \"#utility.yul\":7519:7522   */\n      dup3\n        /* \"#utility.yul\":7512:7516   */\n      0x1f\n        /* \"#utility.yul\":7504:7510   */\n      dup4\n        /* \"#utility.yul\":7500:7517   */\n      add\n        /* \"#utility.yul\":7496:7523   */\n      slt\n        /* \"#utility.yul\":7486:7608   */\n      tag_363\n      jumpi\n        /* \"#utility.yul\":7527:7606   */\n      tag_364\n      tag_213\n      jump\t// in\n    tag_364:\n        /* \"#utility.yul\":7486:7608   */\n    tag_363:\n        /* \"#utility.yul\":7644:7650   */\n      dup2\n        /* \"#utility.yul\":7631:7651   */\n      calldataload\n        /* \"#utility.yul\":7669:7748   */\n      tag_365\n        /* \"#utility.yul\":7744:7747   */\n      dup5\n        /* \"#utility.yul\":7736:7742   */\n      dup3\n        /* \"#utility.yul\":7729:7733   */\n      0x20\n        /* \"#utility.yul\":7721:7727   */\n      dup7\n        /* \"#utility.yul\":7717:7734   */\n      add\n        /* \"#utility.yul\":7669:7748   */\n      tag_220\n      jump\t// in\n    tag_365:\n        /* \"#utility.yul\":7660:7748   */\n      swap2\n      pop\n        /* \"#utility.yul\":7476:7754   */\n      pop\n        /* \"#utility.yul\":7414:7754   */\n      swap3\n      swap2\n      pop\n      pop\n      jump\t// out\n        /* \"#utility.yul\":7760:8269   */\n    tag_41:\n        /* \"#utility.yul\":7829:7835   */\n      0x00\n        /* \"#utility.yul\":7878:7880   */\n      0x20\n        /* \"#utility.yul\":7866:7875   */\n      dup3\n        /* \"#utility.yul\":7857:7864   */\n      dup5\n        /* \"#utility.yul\":7853:7876   */\n      sub\n        /* \"#utility.yul\":7849:7881   */\n      slt\n        /* \"#utility.yul\":7846:7965   */\n      iszero\n      tag_367\n      jumpi\n        /* \"#utility.yul\":7884:7963   */\n      tag_368\n      tag_211\n      jump\t// in\n    tag_368:\n        /* \"#utility.yul\":7846:7965   */\n    tag_367:\n        /* \"#utility.yul\":8032:8033   */\n      0x00\n        /* \"#utility.yul\":8021:8030   */\n      dup3\n        /* \"#utility.yul\":8017:8034   */\n      add\n        /* \"#utility.yul\":8004:8035   */\n      calldataload\n        /* \"#utility.yul\":8062:8080   */\n      0xffffffffffffffff\n        /* \"#utility.yul\":8054:8060   */\n      dup2\n        /* \"#utility.yul\":8051:8081   */\n      gt\n        /* \"#utility.yul\":8048:8165   */\n      iszero\n      tag_369\n      jumpi\n        /* \"#utility.yul\":8084:8163   */\n      tag_370\n      tag_212\n      jump\t// in\n    tag_370:\n        /* \"#utility.yul\":8048:8165   */\n    tag_369:\n        /* \"#utility.yul\":8189:8252   */\n      tag_371\n        /* \"#utility.yul\":8244:8251   */\n      dup5\n        /* \"#utility.yul\":8235:8241   */\n      dup3\n        /* \"#utility.yul\":8224:8233   */\n      dup6\n        /* \"#utility.yul\":8220:8242   */\n      add\n        /* \"#utility.yul\":8189:8252   */\n      tag_221\n      jump\t// in\n    tag_371:\n        /* \"#utility.yul\":8179:8252   */\n      swap2\n      pop\n        /* \"#utility.yul\":7975:8262   */\n      pop\n        /* \"#utility.yul\":7760:8269   */\n      swap3\n      swap2\n      pop\n      pop\n      jump\t// out\n        /* \"#utility.yul\":8275:8444   */\n    tag_222:\n        /* \"#utility.yul\":8359:8370   */\n      0x00\n        /* \"#utility.yul\":8393:8399   */\n      dup3\n        /* \"#utility.yul\":8388:8391   */\n      dup3\n        /* \"#utility.yul\":8381:8400   */\n      mstore\n        /* \"#utility.yul\":8433:8437   */\n      0x20\n        /* \"#utility.yul\":8428:8431   */\n      dup3\n        /* \"#utility.yul\":8424:8438   */\n      add\n        /* \"#utility.yul\":8409:8438   */\n      swap1\n      pop\n        /* \"#utility.yul\":8275:8444   */\n      swap3\n      swap2\n      pop\n      pop\n      jump\t// out\n        /* \"#utility.yul\":8450:8827   */\n    tag_223:\n        /* \"#utility.yul\":8538:8541   */\n      0x00\n        /* \"#utility.yul\":8566:8605   */\n      tag_374\n        /* \"#utility.yul\":8599:8604   */\n      dup3\n        /* \"#utility.yul\":8566:8605   */\n      tag_194\n      jump\t// in\n    tag_374:\n        /* \"#utility.yul\":8621:8692   */\n      tag_375\n        /* \"#utility.yul\":8685:8691   */\n      dup2\n        /* \"#utility.yul\":8680:8683   */\n      dup6\n        /* \"#utility.yul\":8621:8692   */\n      tag_222\n      jump\t// in\n    tag_375:\n        /* \"#utility.yul\":8614:8692   */\n      swap4\n      pop\n        /* \"#utility.yul\":8701:8766   */\n      tag_376\n        /* \"#utility.yul\":8759:8765   */\n      dup2\n        /* \"#utility.yul\":8754:8757   */\n      dup6\n        /* \"#utility.yul\":8747:8751   */\n      0x20\n        /* \"#utility.yul\":8740:8745   */\n      dup7\n        /* \"#utility.yul\":8736:8752   */\n      add\n        /* \"#utility.yul\":8701:8766   */\n      tag_196\n      jump\t// in\n    tag_376:\n        /* \"#utility.yul\":8791:8820   */\n      tag_377\n        /* \"#utility.yul\":8813:8819   */\n      dup2\n        /* \"#utility.yul\":8791:8820   */\n      tag_197\n      jump\t// in\n    tag_377:\n        /* \"#utility.yul\":8786:8789   */\n      dup5\n        /* \"#utility.yul\":8782:8821   */\n      add\n        /* \"#utility.yul\":8775:8821   */\n      swap2\n      pop\n        /* \"#utility.yul\":8542:8827   */\n      pop\n        /* \"#utility.yul\":8450:8827   */\n      swap3\n      swap2\n      pop\n      pop\n      jump\t// out\n        /* \"#utility.yul\":8833:8929   */\n    tag_224:\n        /* \"#utility.yul\":8870:8877   */\n      0x00\n        /* \"#utility.yul\":8899:8923   */\n      tag_379\n        /* \"#utility.yul\":8917:8922   */\n      dup3\n        /* \"#utility.yul\":8899:8923   */\n      tag_202\n      jump\t// in\n    tag_379:\n        /* \"#utility.yul\":8888:8923   */\n      swap1\n      pop\n        /* \"#utility.yul\":8833:8929   */\n      swap2\n      swap1\n      pop\n      jump\t// out\n        /* \"#utility.yul\":8935:9053   */\n    tag_225:\n        /* \"#utility.yul\":9022:9046   */\n      tag_381\n        /* \"#utility.yul\":9040:9045   */\n      dup2\n        /* \"#utility.yul\":9022:9046   */\n      tag_224\n      jump\t// in\n    tag_381:\n        /* \"#utility.yul\":9017:9020   */\n      dup3\n        /* \"#utility.yul\":9010:9047   */\n      mstore\n        /* \"#utility.yul\":8935:9053   */\n      pop\n      pop\n      jump\t// out\n        /* \"#utility.yul\":9059:9580   */\n    tag_44:\n        /* \"#utility.yul\":9222:9226   */\n      0x00\n        /* \"#utility.yul\":9260:9262   */\n      0x60\n        /* \"#utility.yul\":9249:9258   */\n      dup3\n        /* \"#utility.yul\":9245:9263   */\n      add\n        /* \"#utility.yul\":9237:9263   */\n      swap1\n      pop\n        /* \"#utility.yul\":9309:9318   */\n      dup2\n        /* \"#utility.yul\":9303:9307   */\n      dup2\n        /* \"#utility.yul\":9299:9319   */\n      sub\n        /* \"#utility.yul\":9295:9296   */\n      0x00\n        /* \"#utility.yul\":9284:9293   */\n      dup4\n        /* \"#utility.yul\":9280:9297   */\n      add\n        /* \"#utility.yul\":9273:9320   */\n      mstore\n        /* \"#utility.yul\":9337:9415   */\n      tag_383\n        /* \"#utility.yul\":9410:9414   */\n      dup2\n        /* \"#utility.yul\":9401:9407   */\n      dup7\n        /* \"#utility.yul\":9337:9415   */\n      tag_223\n      jump\t// in\n    tag_383:\n        /* \"#utility.yul\":9329:9415   */\n      swap1\n      pop\n        /* \"#utility.yul\":9425:9497   */\n      tag_384\n        /* \"#utility.yul\":9493:9495   */\n      0x20\n        /* \"#utility.yul\":9482:9491   */\n      dup4\n        /* \"#utility.yul\":9478:9496   */\n      add\n        /* \"#utility.yul\":9469:9475   */\n      dup6\n        /* \"#utility.yul\":9425:9497   */\n      tag_225\n      jump\t// in\n    tag_384:\n        /* \"#utility.yul\":9507:9573   */\n      tag_385\n        /* \"#utility.yul\":9569:9571   */\n      0x40\n        /* \"#utility.yul\":9558:9567   */\n      dup4\n        /* \"#utility.yul\":9554:9572   */\n      add\n        /* \"#utility.yul\":9545:9551   */\n      dup5\n        /* \"#utility.yul\":9507:9573   */\n      tag_190\n      jump\t// in\n    tag_385:\n        /* \"#utility.yul\":9059:9580   */\n      swap5\n      swap4\n      pop\n      pop\n      pop\n      pop\n      jump\t// out\n        /* \"#utility.yul\":9586:9808   */\n    tag_48:\n        /* \"#utility.yul\":9679:9683   */\n      0x00\n        /* \"#utility.yul\":9717:9719   */\n      0x20\n        /* \"#utility.yul\":9706:9715   */\n      dup3\n        /* \"#utility.yul\":9702:9720   */\n      add\n        /* \"#utility.yul\":9694:9720   */\n      swap1\n      pop\n        /* \"#utility.yul\":9730:9801   */\n      tag_387\n        /* \"#utility.yul\":9798:9799   */\n      0x00\n        /* \"#utility.yul\":9787:9796   */\n      dup4\n        /* \"#utility.yul\":9783:9800   */\n      add\n        /* \"#utility.yul\":9774:9780   */\n      dup5\n        /* \"#utility.yul\":9730:9801   */\n      tag_225\n      jump\t// in\n    tag_387:\n        /* \"#utility.yul\":9586:9808   */\n      swap3\n      swap2\n      pop\n      pop\n      jump\t// out\n        /* \"#utility.yul\":9814:9912   */\n    tag_226:\n        /* \"#utility.yul\":9865:9871   */\n      0x00\n        /* \"#utility.yul\":9899:9904   */\n      dup2\n        /* \"#utility.yul\":9893:9905   */\n      mload\n        /* \"#utility.yul\":9883:9905   */\n      swap1\n      pop\n        /* \"#utility.yul\":9814:9912   */\n      swap2\n      swap1\n      pop\n      jump\t// out\n        /* \"#utility.yul\":9918:10065   */\n    tag_227:\n        /* \"#utility.yul\":10019:10030   */\n      0x00\n        /* \"#utility.yul\":10056:10059   */\n      dup2\n        /* \"#utility.yul\":10041:10059   */\n      swap1\n      pop\n        /* \"#utility.yul\":9918:10065   */\n      swap3\n      swap2\n      pop\n      pop\n      jump\t// out\n        /* \"#utility.yul\":10071:10457   */\n    tag_228:\n        /* \"#utility.yul\":10175:10178   */\n      0x00\n        /* \"#utility.yul\":10203:10241   */\n      tag_391\n        /* \"#utility.yul\":10235:10240   */\n      dup3\n        /* \"#utility.yul\":10203:10241   */\n      tag_226\n      jump\t// in\n    tag_391:\n        /* \"#utility.yul\":10257:10345   */\n      tag_392\n        /* \"#utility.yul\":10338:10344   */\n      dup2\n        /* \"#utility.yul\":10333:10336   */\n      dup6\n        /* \"#utility.yul\":10257:10345   */\n      tag_227\n      jump\t// in\n    tag_392:\n        /* \"#utility.yul\":10250:10345   */\n      swap4\n      pop\n        /* \"#utility.yul\":10354:10419   */\n      tag_393\n        /* \"#utility.yul\":10412:10418   */\n      dup2\n        /* \"#utility.yul\":10407:10410   */\n      dup6\n        /* \"#utility.yul\":10400:10404   */\n      0x20\n        /* \"#utility.yul\":10393:10398   */\n      dup7\n        /* \"#utility.yul\":10389:10405   */\n      add\n        /* \"#utility.yul\":10354:10419   */\n      tag_196\n      jump\t// in\n    tag_393:\n        /* \"#utility.yul\":10444:10450   */\n      dup1\n        /* \"#utility.yul\":10439:10442   */\n      dup5\n        /* \"#utility.yul\":10435:10451   */\n      add\n        /* \"#utility.yul\":10428:10451   */\n      swap2\n      pop\n        /* \"#utility.yul\":10179:10457   */\n      pop\n        /* \"#utility.yul\":10071:10457   */\n      swap3\n      swap2\n      pop\n      pop\n      jump\t// out\n        /* \"#utility.yul\":10463:10734   */\n    tag_65:\n        /* \"#utility.yul\":10593:10596   */\n      0x00\n        /* \"#utility.yul\":10615:10708   */\n      tag_395\n        /* \"#utility.yul\":10704:10707   */\n      dup3\n        /* \"#utility.yul\":10695:10701   */\n      dup5\n        /* \"#utility.yul\":10615:10708   */\n      tag_228\n      jump\t// in\n    tag_395:\n        /* \"#utility.yul\":10608:10708   */\n      swap2\n      pop\n        /* \"#utility.yul\":10725:10728   */\n      dup2\n        /* \"#utility.yul\":10718:10728   */\n      swap1\n      pop\n        /* \"#utility.yul\":10463:10734   */\n      swap3\n      swap2\n      pop\n      pop\n      jump\t// out\n        /* \"#utility.yul\":10740:10913   */\n    tag_229:\n        /* \"#utility.yul\":10880:10905   */\n      0x4661696c656420746f20666574636820726573756c7473000000000000000000\n        /* \"#utility.yul\":10876:10877   */\n      0x00\n        /* \"#utility.yul\":10868:10874   */\n      dup3\n        /* \"#utility.yul\":10864:10878   */\n      add\n        /* \"#utility.yul\":10857:10906   */\n      mstore\n        /* \"#utility.yul\":10740:10913   */\n      pop\n      jump\t// out\n        /* \"#utility.yul\":10919:11285   */\n    tag_230:\n        /* \"#utility.yul\":11061:11064   */\n      0x00\n        /* \"#utility.yul\":11082:11149   */\n      tag_398\n        /* \"#utility.yul\":11146:11148   */\n      0x17\n        /* \"#utility.yul\":11141:11144   */\n      dup4\n        /* \"#utility.yul\":11082:11149   */\n      tag_222\n      jump\t// in\n    tag_398:\n        /* \"#utility.yul\":11075:11149   */\n      swap2\n      pop\n        /* \"#utility.yul\":11158:11251   */\n      tag_399\n        /* \"#utility.yul\":11247:11250   */\n      dup3\n        /* \"#utility.yul\":11158:11251   */\n      tag_229\n      jump\t// in\n    tag_399:\n        /* \"#utility.yul\":11276:11278   */\n      0x20\n        /* \"#utility.yul\":11271:11274   */\n      dup3\n        /* \"#utility.yul\":11267:11279   */\n      add\n        /* \"#utility.yul\":11260:11279   */\n      swap1\n      pop\n        /* \"#utility.yul\":10919:11285   */\n      swap2\n      swap1\n      pop\n      jump\t// out\n        /* \"#utility.yul\":11291:11710   */\n    tag_71:\n        /* \"#utility.yul\":11457:11461   */\n      0x00\n        /* \"#utility.yul\":11495:11497   */\n      0x20\n        /* \"#utility.yul\":11484:11493   */\n      dup3\n        /* \"#utility.yul\":11480:11498   */\n      add\n        /* \"#utility.yul\":11472:11498   */\n      swap1\n      pop\n        /* \"#utility.yul\":11544:11553   */\n      dup2\n        /* \"#utility.yul\":11538:11542   */\n      dup2\n        /* \"#utility.yul\":11534:11554   */\n      sub\n        /* \"#utility.yul\":11530:11531   */\n      0x00\n        /* \"#utility.yul\":11519:11528   */\n      dup4\n        /* \"#utility.yul\":11515:11532   */\n      add\n        /* \"#utility.yul\":11508:11555   */\n      mstore\n        /* \"#utility.yul\":11572:11703   */\n      tag_401\n        /* \"#utility.yul\":11698:11702   */\n      dup2\n        /* \"#utility.yul\":11572:11703   */\n      tag_230\n      jump\t// in\n    tag_401:\n        /* \"#utility.yul\":11564:11703   */\n      swap1\n      pop\n        /* \"#utility.yul\":11291:11710   */\n      swap2\n      swap1\n      pop\n      jump\t// out\n        /* \"#utility.yul\":11716:11832   */\n    tag_231:\n        /* \"#utility.yul\":11786:11807   */\n      tag_403\n        /* \"#utility.yul\":11801:11806   */\n      dup2\n        /* \"#utility.yul\":11786:11807   */\n      tag_189\n      jump\t// in\n    tag_403:\n        /* \"#utility.yul\":11779:11784   */\n      dup2\n        /* \"#utility.yul\":11776:11808   */\n      eq\n        /* \"#utility.yul\":11766:11826   */\n      tag_404\n      jumpi\n        /* \"#utility.yul\":11822:11823   */\n      0x00\n        /* \"#utility.yul\":11819:11820   */\n      dup1\n        /* \"#utility.yul\":11812:11824   */\n      revert\n        /* \"#utility.yul\":11766:11826   */\n    tag_404:\n        /* \"#utility.yul\":11716:11832   */\n      pop\n      jump\t// out\n        /* \"#utility.yul\":11838:11975   */\n    tag_232:\n        /* \"#utility.yul\":11892:11897   */\n      0x00\n        /* \"#utility.yul\":11923:11929   */\n      dup2\n        /* \"#utility.yul\":11917:11930   */\n      mload\n        /* \"#utility.yul\":11908:11930   */\n      swap1\n      pop\n        /* \"#utility.yul\":11939:11969   */\n      tag_406\n        /* \"#utility.yul\":11963:11968   */\n      dup2\n        /* \"#utility.yul\":11939:11969   */\n      tag_231\n      jump\t// in\n    tag_406:\n        /* \"#utility.yul\":11838:11975   */\n      swap3\n      swap2\n      pop\n      pop\n      jump\t// out\n        /* \"#utility.yul\":11981:12326   */\n    tag_73:\n        /* \"#utility.yul\":12048:12054   */\n      0x00\n        /* \"#utility.yul\":12097:12099   */\n      0x20\n        /* \"#utility.yul\":12085:12094   */\n      dup3\n        /* \"#utility.yul\":12076:12083   */\n      dup5\n        /* \"#utility.yul\":12072:12095   */\n      sub\n        /* \"#utility.yul\":12068:12100   */\n      slt\n        /* \"#utility.yul\":12065:12184   */\n      iszero\n      tag_408\n      jumpi\n        /* \"#utility.yul\":12103:12182   */\n      tag_409\n      tag_211\n      jump\t// in\n    tag_409:\n        /* \"#utility.yul\":12065:12184   */\n    tag_408:\n        /* \"#utility.yul\":12223:12224   */\n      0x00\n        /* \"#utility.yul\":12248:12309   */\n      tag_410\n        /* \"#utility.yul\":12301:12308   */\n      dup5\n        /* \"#utility.yul\":12292:12298   */\n      dup3\n        /* \"#utility.yul\":12281:12290   */\n      dup6\n        /* \"#utility.yul\":12277:12299   */\n      add\n        /* \"#utility.yul\":12248:12309   */\n      tag_232\n      jump\t// in\n    tag_410:\n        /* \"#utility.yul\":12238:12309   */\n      swap2\n      pop\n        /* \"#utility.yul\":12194:12319   */\n      pop\n        /* \"#utility.yul\":11981:12326   */\n      swap3\n      swap2\n      pop\n      pop\n      jump\t// out\n        /* \"#utility.yul\":12332:12653   */\n    tag_233:\n        /* \"#utility.yul\":12419:12423   */\n      0x00\n        /* \"#utility.yul\":12509:12527   */\n      0xffffffffffffffff\n        /* \"#utility.yul\":12501:12507   */\n      dup3\n        /* \"#utility.yul\":12498:12528   */\n      gt\n        /* \"#utility.yul\":12495:12551   */\n      iszero\n      tag_412\n      jumpi\n        /* \"#utility.yul\":12531:12549   */\n      tag_413\n      tag_215\n      jump\t// in\n    tag_413:\n        /* \"#utility.yul\":12495:12551   */\n    tag_412:\n        /* \"#utility.yul\":12581:12585   */\n      0x20\n        /* \"#utility.yul\":12573:12579   */\n      dup3\n        /* \"#utility.yul\":12569:12586   */\n      mul\n        /* \"#utility.yul\":12561:12586   */\n      swap1\n      pop\n        /* \"#utility.yul\":12641:12645   */\n      0x20\n        /* \"#utility.yul\":12635:12639   */\n      dup2\n        /* \"#utility.yul\":12631:12646   */\n      add\n        /* \"#utility.yul\":12623:12646   */\n      swap1\n      pop\n        /* \"#utility.yul\":12332:12653   */\n      swap2\n      swap1\n      pop\n      jump\t// out\n        /* \"#utility.yul\":12659:12776   */\n    tag_234:\n        /* \"#utility.yul\":12768:12769   */\n      0x00\n        /* \"#utility.yul\":12765:12766   */\n      dup1\n        /* \"#utility.yul\":12758:12770   */\n      revert\n        /* \"#utility.yul\":12782:13216   */\n    tag_235:\n        /* \"#utility.yul\":12871:12876   */\n      0x00\n        /* \"#utility.yul\":12896:12962   */\n      tag_416\n        /* \"#utility.yul\":12912:12961   */\n      tag_417\n        /* \"#utility.yul\":12954:12960   */\n      dup5\n        /* \"#utility.yul\":12912:12961   */\n      tag_218\n      jump\t// in\n    tag_417:\n        /* \"#utility.yul\":12896:12962   */\n      tag_217\n      jump\t// in\n    tag_416:\n        /* \"#utility.yul\":12887:12962   */\n      swap1\n      pop\n        /* \"#utility.yul\":12985:12991   */\n      dup3\n        /* \"#utility.yul\":12978:12983   */\n      dup2\n        /* \"#utility.yul\":12971:12992   */\n      mstore\n        /* \"#utility.yul\":13023:13027   */\n      0x20\n        /* \"#utility.yul\":13016:13021   */\n      dup2\n        /* \"#utility.yul\":13012:13028   */\n      add\n        /* \"#utility.yul\":13061:13064   */\n      dup5\n        /* \"#utility.yul\":13052:13058   */\n      dup5\n        /* \"#utility.yul\":13047:13050   */\n      dup5\n        /* \"#utility.yul\":13043:13059   */\n      add\n        /* \"#utility.yul\":13040:13065   */\n      gt\n        /* \"#utility.yul\":13037:13149   */\n      iszero\n      tag_418\n      jumpi\n        /* \"#utility.yul\":13068:13147   */\n      tag_419\n      tag_214\n      jump\t// in\n    tag_419:\n        /* \"#utility.yul\":13037:13149   */\n    tag_418:\n        /* \"#utility.yul\":13158:13210   */\n      tag_420\n        /* \"#utility.yul\":13203:13209   */\n      dup5\n        /* \"#utility.yul\":13198:13201   */\n      dup3\n        /* \"#utility.yul\":13193:13196   */\n      dup6\n        /* \"#utility.yul\":13158:13210   */\n      tag_196\n      jump\t// in\n    tag_420:\n        /* \"#utility.yul\":12877:13216   */\n      pop\n        /* \"#utility.yul\":12782:13216   */\n      swap4\n      swap3\n      pop\n      pop\n      pop\n      jump\t// out\n        /* \"#utility.yul\":13236:13591   */\n    tag_236:\n        /* \"#utility.yul\":13303:13308   */\n      0x00\n        /* \"#utility.yul\":13352:13355   */\n      dup3\n        /* \"#utility.yul\":13345:13349   */\n      0x1f\n        /* \"#utility.yul\":13337:13343   */\n      dup4\n        /* \"#utility.yul\":13333:13350   */\n      add\n        /* \"#utility.yul\":13329:13356   */\n      slt\n        /* \"#utility.yul\":13319:13441   */\n      tag_422\n      jumpi\n        /* \"#utility.yul\":13360:13439   */\n      tag_423\n      tag_213\n      jump\t// in\n    tag_423:\n        /* \"#utility.yul\":13319:13441   */\n    tag_422:\n        /* \"#utility.yul\":13470:13476   */\n      dup2\n        /* \"#utility.yul\":13464:13477   */\n      mload\n        /* \"#utility.yul\":13495:13585   */\n      tag_424\n        /* \"#utility.yul\":13581:13584   */\n      dup5\n        /* \"#utility.yul\":13573:13579   */\n      dup3\n        /* \"#utility.yul\":13566:13570   */\n      0x20\n        /* \"#utility.yul\":13558:13564   */\n      dup7\n        /* \"#utility.yul\":13554:13571   */\n      add\n        /* \"#utility.yul\":13495:13585   */\n      tag_235\n      jump\t// in\n    tag_424:\n        /* \"#utility.yul\":13486:13585   */\n      swap2\n      pop\n        /* \"#utility.yul\":13309:13591   */\n      pop\n        /* \"#utility.yul\":13236:13591   */\n      swap3\n      swap2\n      pop\n      pop\n      jump\t// out\n        /* \"#utility.yul\":13613:14573   */\n    tag_237:\n        /* \"#utility.yul\":13730:13735   */\n      0x00\n        /* \"#utility.yul\":13755:13846   */\n      tag_426\n        /* \"#utility.yul\":13771:13845   */\n      tag_427\n        /* \"#utility.yul\":13838:13844   */\n      dup5\n        /* \"#utility.yul\":13771:13845   */\n      tag_233\n      jump\t// in\n    tag_427:\n        /* \"#utility.yul\":13755:13846   */\n      tag_217\n      jump\t// in\n    tag_426:\n        /* \"#utility.yul\":13746:13846   */\n      swap1\n      pop\n        /* \"#utility.yul\":13866:13871   */\n      dup1\n        /* \"#utility.yul\":13895:13901   */\n      dup4\n        /* \"#utility.yul\":13888:13893   */\n      dup3\n        /* \"#utility.yul\":13881:13902   */\n      mstore\n        /* \"#utility.yul\":13929:13933   */\n      0x20\n        /* \"#utility.yul\":13922:13927   */\n      dup3\n        /* \"#utility.yul\":13918:13934   */\n      add\n        /* \"#utility.yul\":13911:13934   */\n      swap1\n      pop\n        /* \"#utility.yul\":13982:13986   */\n      0x20\n        /* \"#utility.yul\":13974:13980   */\n      dup5\n        /* \"#utility.yul\":13970:13987   */\n      mul\n        /* \"#utility.yul\":13962:13968   */\n      dup4\n        /* \"#utility.yul\":13958:13988   */\n      add\n        /* \"#utility.yul\":14011:14014   */\n      dup6\n        /* \"#utility.yul\":14003:14009   */\n      dup2\n        /* \"#utility.yul\":14000:14015   */\n      gt\n        /* \"#utility.yul\":13997:14119   */\n      iszero\n      tag_428\n      jumpi\n        /* \"#utility.yul\":14030:14109   */\n      tag_429\n      tag_234\n      jump\t// in\n    tag_429:\n        /* \"#utility.yul\":13997:14119   */\n    tag_428:\n        /* \"#utility.yul\":14145:14151   */\n      dup4\n        /* \"#utility.yul\":14128:14567   */\n    tag_430:\n        /* \"#utility.yul\":14162:14168   */\n      dup2\n        /* \"#utility.yul\":14157:14160   */\n      dup2\n        /* \"#utility.yul\":14154:14169   */\n      lt\n        /* \"#utility.yul\":14128:14567   */\n      iszero\n      tag_432\n      jumpi\n        /* \"#utility.yul\":14244:14247   */\n      dup1\n        /* \"#utility.yul\":14238:14248   */\n      mload\n        /* \"#utility.yul\":14280:14298   */\n      0xffffffffffffffff\n        /* \"#utility.yul\":14267:14278   */\n      dup2\n        /* \"#utility.yul\":14264:14299   */\n      gt\n        /* \"#utility.yul\":14261:14383   */\n      iszero\n      tag_433\n      jumpi\n        /* \"#utility.yul\":14302:14381   */\n      tag_434\n      tag_213\n      jump\t// in\n    tag_434:\n        /* \"#utility.yul\":14261:14383   */\n    tag_433:\n        /* \"#utility.yul\":14426:14437   */\n      dup1\n        /* \"#utility.yul\":14418:14424   */\n      dup7\n        /* \"#utility.yul\":14414:14438   */\n      add\n        /* \"#utility.yul\":14464:14522   */\n      tag_435\n        /* \"#utility.yul\":14518:14521   */\n      dup10\n        /* \"#utility.yul\":14506:14516   */\n      dup3\n        /* \"#utility.yul\":14464:14522   */\n      tag_236\n      jump\t// in\n    tag_435:\n        /* \"#utility.yul\":14459:14462   */\n      dup6\n        /* \"#utility.yul\":14452:14523   */\n      mstore\n        /* \"#utility.yul\":14552:14556   */\n      0x20\n        /* \"#utility.yul\":14547:14550   */\n      dup6\n        /* \"#utility.yul\":14543:14557   */\n      add\n        /* \"#utility.yul\":14536:14557   */\n      swap5\n      pop\n        /* \"#utility.yul\":14204:14567   */\n      pop\n      pop\n        /* \"#utility.yul\":14188:14192   */\n      0x20\n        /* \"#utility.yul\":14183:14186   */\n      dup2\n        /* \"#utility.yul\":14179:14193   */\n      add\n        /* \"#utility.yul\":14172:14193   */\n      swap1\n      pop\n        /* \"#utility.yul\":14128:14567   */\n      jump(tag_430)\n    tag_432:\n        /* \"#utility.yul\":14132:14153   */\n      pop\n        /* \"#utility.yul\":13736:14573   */\n      pop\n      pop\n        /* \"#utility.yul\":13613:14573   */\n      swap4\n      swap3\n      pop\n      pop\n      pop\n      jump\t// out\n        /* \"#utility.yul\":14595:15000   */\n    tag_238:\n        /* \"#utility.yul\":14687:14692   */\n      0x00\n        /* \"#utility.yul\":14736:14739   */\n      dup3\n        /* \"#utility.yul\":14729:14733   */\n      0x1f\n        /* \"#utility.yul\":14721:14727   */\n      dup4\n        /* \"#utility.yul\":14717:14734   */\n      add\n        /* \"#utility.yul\":14713:14740   */\n      slt\n        /* \"#utility.yul\":14703:14825   */\n      tag_437\n      jumpi\n        /* \"#utility.yul\":14744:14823   */\n      tag_438\n      tag_213\n      jump\t// in\n    tag_438:\n        /* \"#utility.yul\":14703:14825   */\n    tag_437:\n        /* \"#utility.yul\":14854:14860   */\n      dup2\n        /* \"#utility.yul\":14848:14861   */\n      mload\n        /* \"#utility.yul\":14879:14994   */\n      tag_439\n        /* \"#utility.yul\":14990:14993   */\n      dup5\n        /* \"#utility.yul\":14982:14988   */\n      dup3\n        /* \"#utility.yul\":14975:14979   */\n      0x20\n        /* \"#utility.yul\":14967:14973   */\n      dup7\n        /* \"#utility.yul\":14963:14980   */\n      add\n        /* \"#utility.yul\":14879:14994   */\n      tag_237\n      jump\t// in\n    tag_439:\n        /* \"#utility.yul\":14870:14994   */\n      swap2\n      pop\n        /* \"#utility.yul\":14693:15000   */\n      pop\n        /* \"#utility.yul\":14595:15000   */\n      swap3\n      swap2\n      pop\n      pop\n      jump\t// out\n        /* \"#utility.yul\":15006:15580   */\n    tag_78:\n        /* \"#utility.yul\":15111:15117   */\n      0x00\n        /* \"#utility.yul\":15160:15162   */\n      0x20\n        /* \"#utility.yul\":15148:15157   */\n      dup3\n        /* \"#utility.yul\":15139:15146   */\n      dup5\n        /* \"#utility.yul\":15135:15158   */\n      sub\n        /* \"#utility.yul\":15131:15163   */\n      slt\n        /* \"#utility.yul\":15128:15247   */\n      iszero\n      tag_441\n      jumpi\n        /* \"#utility.yul\":15166:15245   */\n      tag_442\n      tag_211\n      jump\t// in\n    tag_442:\n        /* \"#utility.yul\":15128:15247   */\n    tag_441:\n        /* \"#utility.yul\":15307:15308   */\n      0x00\n        /* \"#utility.yul\":15296:15305   */\n      dup3\n        /* \"#utility.yul\":15292:15309   */\n      add\n        /* \"#utility.yul\":15286:15310   */\n      mload\n        /* \"#utility.yul\":15337:15355   */\n      0xffffffffffffffff\n        /* \"#utility.yul\":15329:15335   */\n      dup2\n        /* \"#utility.yul\":15326:15356   */\n      gt\n        /* \"#utility.yul\":15323:15440   */\n      iszero\n      tag_443\n      jumpi\n        /* \"#utility.yul\":15359:15438   */\n      tag_444\n      tag_212\n      jump\t// in\n    tag_444:\n        /* \"#utility.yul\":15323:15440   */\n    tag_443:\n        /* \"#utility.yul\":15464:15563   */\n      tag_445\n        /* \"#utility.yul\":15555:15562   */\n      dup5\n        /* \"#utility.yul\":15546:15552   */\n      dup3\n        /* \"#utility.yul\":15535:15544   */\n      dup6\n        /* \"#utility.yul\":15531:15553   */\n      add\n        /* \"#utility.yul\":15464:15563   */\n      tag_238\n      jump\t// in\n    tag_445:\n        /* \"#utility.yul\":15454:15563   */\n      swap2\n      pop\n        /* \"#utility.yul\":15257:15573   */\n      pop\n        /* \"#utility.yul\":15006:15580   */\n      swap3\n      swap2\n      pop\n      pop\n      jump\t// out\n        /* \"#utility.yul\":15586:15811   */\n    tag_239:\n        /* \"#utility.yul\":15726:15760   */\n      0x4f6e6c79207468652061646d696e2063616e20706572666f726d207468697320\n        /* \"#utility.yul\":15722:15723   */\n      0x00\n        /* \"#utility.yul\":15714:15720   */\n      dup3\n        /* \"#utility.yul\":15710:15724   */\n      add\n        /* \"#utility.yul\":15703:15761   */\n      mstore\n        /* \"#utility.yul\":15795:15803   */\n      0x616374696f6e0000000000000000000000000000000000000000000000000000\n        /* \"#utility.yul\":15790:15792   */\n      0x20\n        /* \"#utility.yul\":15782:15788   */\n      dup3\n        /* \"#utility.yul\":15778:15793   */\n      add\n        /* \"#utility.yul\":15771:15804   */\n      mstore\n        /* \"#utility.yul\":15586:15811   */\n      pop\n      jump\t// out\n        /* \"#utility.yul\":15817:16183   */\n    tag_240:\n        /* \"#utility.yul\":15959:15962   */\n      0x00\n        /* \"#utility.yul\":15980:16047   */\n      tag_448\n        /* \"#utility.yul\":16044:16046   */\n      0x26\n        /* \"#utility.yul\":16039:16042   */\n      dup4\n        /* \"#utility.yul\":15980:16047   */\n      tag_222\n      jump\t// in\n    tag_448:\n        /* \"#utility.yul\":15973:16047   */\n      swap2\n      pop\n        /* \"#utility.yul\":16056:16149   */\n      tag_449\n        /* \"#utility.yul\":16145:16148   */\n      dup3\n        /* \"#utility.yul\":16056:16149   */\n      tag_239\n      jump\t// in\n    tag_449:\n        /* \"#utility.yul\":16174:16176   */\n      0x40\n        /* \"#utility.yul\":16169:16172   */\n      dup3\n        /* \"#utility.yul\":16165:16177   */\n      add\n        /* \"#utility.yul\":16158:16177   */\n      swap1\n      pop\n        /* \"#utility.yul\":15817:16183   */\n      swap2\n      swap1\n      pop\n      jump\t// out\n        /* \"#utility.yul\":16189:16608   */\n    tag_82:\n        /* \"#utility.yul\":16355:16359   */\n      0x00\n        /* \"#utility.yul\":16393:16395   */\n      0x20\n        /* \"#utility.yul\":16382:16391   */\n      dup3\n        /* \"#utility.yul\":16378:16396   */\n      add\n        /* \"#utility.yul\":16370:16396   */\n      swap1\n      pop\n        /* \"#utility.yul\":16442:16451   */\n      dup2\n        /* \"#utility.yul\":16436:16440   */\n      dup2\n        /* \"#utility.yul\":16432:16452   */\n      sub\n        /* \"#utility.yul\":16428:16429   */\n      0x00\n        /* \"#utility.yul\":16417:16426   */\n      dup4\n        /* \"#utility.yul\":16413:16430   */\n      add\n        /* \"#utility.yul\":16406:16453   */\n      mstore\n        /* \"#utility.yul\":16470:16601   */\n      tag_451\n        /* \"#utility.yul\":16596:16600   */\n      dup2\n        /* \"#utility.yul\":16470:16601   */\n      tag_240\n      jump\t// in\n    tag_451:\n        /* \"#utility.yul\":16462:16601   */\n      swap1\n      pop\n        /* \"#utility.yul\":16189:16608   */\n      swap2\n      swap1\n      pop\n      jump\t// out\n        /* \"#utility.yul\":16614:16779   */\n    tag_241:\n        /* \"#utility.yul\":16754:16771   */\n      0x416c726561647920737461727465640000000000000000000000000000000000\n        /* \"#utility.yul\":16750:16751   */\n      0x00\n        /* \"#utility.yul\":16742:16748   */\n      dup3\n        /* \"#utility.yul\":16738:16752   */\n      add\n        /* \"#utility.yul\":16731:16772   */\n      mstore\n        /* \"#utility.yul\":16614:16779   */\n      pop\n      jump\t// out\n        /* \"#utility.yul\":16785:17151   */\n    tag_242:\n        /* \"#utility.yul\":16927:16930   */\n      0x00\n        /* \"#utility.yul\":16948:17015   */\n      tag_454\n        /* \"#utility.yul\":17012:17014   */\n      0x0f\n        /* \"#utility.yul\":17007:17010   */\n      dup4\n        /* \"#utility.yul\":16948:17015   */\n      tag_222\n      jump\t// in\n    tag_454:\n        /* \"#utility.yul\":16941:17015   */\n      swap2\n      pop\n        /* \"#utility.yul\":17024:17117   */\n      tag_455\n        /* \"#utility.yul\":17113:17116   */\n      dup3\n        /* \"#utility.yul\":17024:17117   */\n      tag_241\n      jump\t// in\n    tag_455:\n        /* \"#utility.yul\":17142:17144   */\n      0x20\n        /* \"#utility.yul\":17137:17140   */\n      dup3\n        /* \"#utility.yul\":17133:17145   */\n      add\n        /* \"#utility.yul\":17126:17145   */\n      swap1\n      pop\n        /* \"#utility.yul\":16785:17151   */\n      swap2\n      swap1\n      pop\n      jump\t// out\n        /* \"#utility.yul\":17157:17576   */\n    tag_86:\n        /* \"#utility.yul\":17323:17327   */\n      0x00\n        /* \"#utility.yul\":17361:17363   */\n      0x20\n        /* \"#utility.yul\":17350:17359   */\n      dup3\n        /* \"#utility.yul\":17346:17364   */\n      add\n        /* \"#utility.yul\":17338:17364   */\n      swap1\n      pop\n        /* \"#utility.yul\":17410:17419   */\n      dup2\n        /* \"#utility.yul\":17404:17408   */\n      dup2\n        /* \"#utility.yul\":17400:17420   */\n      sub\n        /* \"#utility.yul\":17396:17397   */\n      0x00\n        /* \"#utility.yul\":17385:17394   */\n      dup4\n        /* \"#utility.yul\":17381:17398   */\n      add\n        /* \"#utility.yul\":17374:17421   */\n      mstore\n        /* \"#utility.yul\":17438:17569   */\n      tag_457\n        /* \"#utility.yul\":17564:17568   */\n      dup2\n        /* \"#utility.yul\":17438:17569   */\n      tag_242\n      jump\t// in\n    tag_457:\n        /* \"#utility.yul\":17430:17569   */\n      swap1\n      pop\n        /* \"#utility.yul\":17157:17576   */\n      swap2\n      swap1\n      pop\n      jump\t// out\n        /* \"#utility.yul\":17582:17762   */\n    tag_243:\n        /* \"#utility.yul\":17630:17707   */\n      0x4e487b7100000000000000000000000000000000000000000000000000000000\n        /* \"#utility.yul\":17627:17628   */\n      0x00\n        /* \"#utility.yul\":17620:17708   */\n      mstore\n        /* \"#utility.yul\":17727:17731   */\n      0x22\n        /* \"#utility.yul\":17724:17725   */\n      0x04\n        /* \"#utility.yul\":17717:17732   */\n      mstore\n        /* \"#utility.yul\":17751:17755   */\n      0x24\n        /* \"#utility.yul\":17748:17749   */\n      0x00\n        /* \"#utility.yul\":17741:17756   */\n      revert\n        /* \"#utility.yul\":17768:18088   */\n    tag_88:\n        /* \"#utility.yul\":17812:17818   */\n      0x00\n        /* \"#utility.yul\":17849:17850   */\n      0x02\n        /* \"#utility.yul\":17843:17847   */\n      dup3\n        /* \"#utility.yul\":17839:17851   */\n      div\n        /* \"#utility.yul\":17829:17851   */\n      swap1\n      pop\n        /* \"#utility.yul\":17896:17897   */\n      0x01\n        /* \"#utility.yul\":17890:17894   */\n      dup3\n        /* \"#utility.yul\":17886:17898   */\n      and\n        /* \"#utility.yul\":17917:17935   */\n      dup1\n        /* \"#utility.yul\":17907:17988   */\n      tag_460\n      jumpi\n        /* \"#utility.yul\":17973:17977   */\n      0x7f\n        /* \"#utility.yul\":17965:17971   */\n      dup3\n        /* \"#utility.yul\":17961:17978   */\n      and\n        /* \"#utility.yul\":17951:17978   */\n      swap2\n      pop\n        /* \"#utility.yul\":17907:17988   */\n    tag_460:\n        /* \"#utility.yul\":18035:18037   */\n      0x20\n        /* \"#utility.yul\":18027:18033   */\n      dup3\n        /* \"#utility.yul\":18024:18038   */\n      lt\n        /* \"#utility.yul\":18004:18022   */\n      dup2\n        /* \"#utility.yul\":18001:18039   */\n      sub\n        /* \"#utility.yul\":17998:18082   */\n      tag_461\n      jumpi\n        /* \"#utility.yul\":18054:18072   */\n      tag_462\n      tag_243\n      jump\t// in\n    tag_462:\n        /* \"#utility.yul\":17998:18082   */\n    tag_461:\n        /* \"#utility.yul\":17819:18088   */\n      pop\n        /* \"#utility.yul\":17768:18088   */\n      swap2\n      swap1\n      pop\n      jump\t// out\n        /* \"#utility.yul\":18094:18317   */\n    tag_244:\n        /* \"#utility.yul\":18234:18268   */\n      0x43616e6e6f742070726f706f736520616674657220656c656374696f6e207374\n        /* \"#utility.yul\":18230:18231   */\n      0x00\n        /* \"#utility.yul\":18222:18228   */\n      dup3\n        /* \"#utility.yul\":18218:18232   */\n      add\n        /* \"#utility.yul\":18211:18269   */\n      mstore\n        /* \"#utility.yul\":18303:18309   */\n      0x6172747300000000000000000000000000000000000000000000000000000000\n        /* \"#utility.yul\":18298:18300   */\n      0x20\n        /* \"#utility.yul\":18290:18296   */\n      dup3\n        /* \"#utility.yul\":18286:18301   */\n      add\n        /* \"#utility.yul\":18279:18310   */\n      mstore\n        /* \"#utility.yul\":18094:18317   */\n      pop\n      jump\t// out\n        /* \"#utility.yul\":18323:18689   */\n    tag_245:\n        /* \"#utility.yul\":18465:18468   */\n      0x00\n        /* \"#utility.yul\":18486:18553   */\n      tag_465\n        /* \"#utility.yul\":18550:18552   */\n      0x24\n        /* \"#utility.yul\":18545:18548   */\n      dup4\n        /* \"#utility.yul\":18486:18553   */\n      tag_222\n      jump\t// in\n    tag_465:\n        /* \"#utility.yul\":18479:18553   */\n      swap2\n      pop\n        /* \"#utility.yul\":18562:18655   */\n      tag_466\n        /* \"#utility.yul\":18651:18654   */\n      dup3\n        /* \"#utility.yul\":18562:18655   */\n      tag_244\n      jump\t// in\n    tag_466:\n        /* \"#utility.yul\":18680:18682   */\n      0x40\n        /* \"#utility.yul\":18675:18678   */\n      dup3\n        /* \"#utility.yul\":18671:18683   */\n      add\n        /* \"#utility.yul\":18664:18683   */\n      swap1\n      pop\n        /* \"#utility.yul\":18323:18689   */\n      swap2\n      swap1\n      pop\n      jump\t// out\n        /* \"#utility.yul\":18695:19114   */\n    tag_96:\n        /* \"#utility.yul\":18861:18865   */\n      0x00\n        /* \"#utility.yul\":18899:18901   */\n      0x20\n        /* \"#utility.yul\":18888:18897   */\n      dup3\n        /* \"#utility.yul\":18884:18902   */\n      add\n        /* \"#utility.yul\":18876:18902   */\n      swap1\n      pop\n        /* \"#utility.yul\":18948:18957   */\n      dup2\n        /* \"#utility.yul\":18942:18946   */\n      dup2\n        /* \"#utility.yul\":18938:18958   */\n      sub\n        /* \"#utility.yul\":18934:18935   */\n      0x00\n        /* \"#utility.yul\":18923:18932   */\n      dup4\n        /* \"#utility.yul\":18919:18936   */\n      add\n        /* \"#utility.yul\":18912:18959   */\n      mstore\n        /* \"#utility.yul\":18976:19107   */\n      tag_468\n        /* \"#utility.yul\":19102:19106   */\n      dup2\n        /* \"#utility.yul\":18976:19107   */\n      tag_245\n      jump\t// in\n    tag_468:\n        /* \"#utility.yul\":18968:19107   */\n      swap1\n      pop\n        /* \"#utility.yul\":18695:19114   */\n      swap2\n      swap1\n      pop\n      jump\t// out\n        /* \"#utility.yul\":19120:19268   */\n    tag_246:\n        /* \"#utility.yul\":19222:19233   */\n      0x00\n        /* \"#utility.yul\":19259:19262   */\n      dup2\n        /* \"#utility.yul\":19244:19262   */\n      swap1\n      pop\n        /* \"#utility.yul\":19120:19268   */\n      swap3\n      swap2\n      pop\n      pop\n      jump\t// out\n        /* \"#utility.yul\":19274:19664   */\n    tag_247:\n        /* \"#utility.yul\":19380:19383   */\n      0x00\n        /* \"#utility.yul\":19408:19447   */\n      tag_471\n        /* \"#utility.yul\":19441:19446   */\n      dup3\n        /* \"#utility.yul\":19408:19447   */\n      tag_194\n      jump\t// in\n    tag_471:\n        /* \"#utility.yul\":19463:19552   */\n      tag_472\n        /* \"#utility.yul\":19545:19551   */\n      dup2\n        /* \"#utility.yul\":19540:19543   */\n      dup6\n        /* \"#utility.yul\":19463:19552   */\n      tag_246\n      jump\t// in\n    tag_472:\n        /* \"#utility.yul\":19456:19552   */\n      swap4\n      pop\n        /* \"#utility.yul\":19561:19626   */\n      tag_473\n        /* \"#utility.yul\":19619:19625   */\n      dup2\n        /* \"#utility.yul\":19614:19617   */\n      dup6\n        /* \"#utility.yul\":19607:19611   */\n      0x20\n        /* \"#utility.yul\":19600:19605   */\n      dup7\n        /* \"#utility.yul\":19596:19612   */\n      add\n        /* \"#utility.yul\":19561:19626   */\n      tag_196\n      jump\t// in\n    tag_473:\n        /* \"#utility.yul\":19651:19657   */\n      dup1\n        /* \"#utility.yul\":19646:19649   */\n      dup5\n        /* \"#utility.yul\":19642:19658   */\n      add\n        /* \"#utility.yul\":19635:19658   */\n      swap2\n      pop\n        /* \"#utility.yul\":19384:19664   */\n      pop\n        /* \"#utility.yul\":19274:19664   */\n      swap3\n      swap2\n      pop\n      pop\n      jump\t// out\n        /* \"#utility.yul\":19670:19945   */\n    tag_98:\n        /* \"#utility.yul\":19802:19805   */\n      0x00\n        /* \"#utility.yul\":19824:19919   */\n      tag_475\n        /* \"#utility.yul\":19915:19918   */\n      dup3\n        /* \"#utility.yul\":19906:19912   */\n      dup5\n        /* \"#utility.yul\":19824:19919   */\n      tag_247\n      jump\t// in\n    tag_475:\n        /* \"#utility.yul\":19817:19919   */\n      swap2\n      pop\n        /* \"#utility.yul\":19936:19939   */\n      dup2\n        /* \"#utility.yul\":19929:19939   */\n      swap1\n      pop\n        /* \"#utility.yul\":19670:19945   */\n      swap3\n      swap2\n      pop\n      pop\n      jump\t// out\n        /* \"#utility.yul\":19951:20117   */\n    tag_248:\n        /* \"#utility.yul\":20091:20109   */\n      0x416c72656164792070726f706f73656400000000000000000000000000000000\n        /* \"#utility.yul\":20087:20088   */\n      0x00\n        /* \"#utility.yul\":20079:20085   */\n      dup3\n        /* \"#utility.yul\":20075:20089   */\n      add\n        /* \"#utility.yul\":20068:20110   */\n      mstore\n        /* \"#utility.yul\":19951:20117   */\n      pop\n      jump\t// out\n        /* \"#utility.yul\":20123:20489   */\n    tag_249:\n        /* \"#utility.yul\":20265:20268   */\n      0x00\n        /* \"#utility.yul\":20286:20353   */\n      tag_478\n        /* \"#utility.yul\":20350:20352   */\n      0x10\n        /* \"#utility.yul\":20345:20348   */\n      dup4\n        /* \"#utility.yul\":20286:20353   */\n      tag_222\n      jump\t// in\n    tag_478:\n        /* \"#utility.yul\":20279:20353   */\n      swap2\n      pop\n        /* \"#utility.yul\":20362:20455   */\n      tag_479\n        /* \"#utility.yul\":20451:20454   */\n      dup3\n        /* \"#utility.yul\":20362:20455   */\n      tag_248\n      jump\t// in\n    tag_479:\n        /* \"#utility.yul\":20480:20482   */\n      0x20\n        /* \"#utility.yul\":20475:20478   */\n      dup3\n        /* \"#utility.yul\":20471:20483   */\n      add\n        /* \"#utility.yul\":20464:20483   */\n      swap1\n      pop\n        /* \"#utility.yul\":20123:20489   */\n      swap2\n      swap1\n      pop\n      jump\t// out\n        /* \"#utility.yul\":20495:20914   */\n    tag_101:\n        /* \"#utility.yul\":20661:20665   */\n      0x00\n        /* \"#utility.yul\":20699:20701   */\n      0x20\n        /* \"#utility.yul\":20688:20697   */\n      dup3\n        /* \"#utility.yul\":20684:20702   */\n      add\n        /* \"#utility.yul\":20676:20702   */\n      swap1\n      pop\n        /* \"#utility.yul\":20748:20757   */\n      dup2\n        /* \"#utility.yul\":20742:20746   */\n      dup2\n        /* \"#utility.yul\":20738:20758   */\n      sub\n        /* \"#utility.yul\":20734:20735   */\n      0x00\n        /* \"#utility.yul\":20723:20732   */\n      dup4\n        /* \"#utility.yul\":20719:20736   */\n      add\n        /* \"#utility.yul\":20712:20759   */\n      mstore\n        /* \"#utility.yul\":20776:20907   */\n      tag_481\n        /* \"#utility.yul\":20902:20906   */\n      dup2\n        /* \"#utility.yul\":20776:20907   */\n      tag_249\n      jump\t// in\n    tag_481:\n        /* \"#utility.yul\":20768:20907   */\n      swap1\n      pop\n        /* \"#utility.yul\":20495:20914   */\n      swap2\n      swap1\n      pop\n      jump\t// out\n        /* \"#utility.yul\":20920:21061   */\n    tag_250:\n        /* \"#utility.yul\":20969:20973   */\n      0x00\n        /* \"#utility.yul\":20992:20995   */\n      dup2\n        /* \"#utility.yul\":20984:20995   */\n      swap1\n      pop\n        /* \"#utility.yul\":21015:21018   */\n      dup2\n        /* \"#utility.yul\":21012:21013   */\n      0x00\n        /* \"#utility.yul\":21005:21019   */\n      mstore\n        /* \"#utility.yul\":21049:21053   */\n      0x20\n        /* \"#utility.yul\":21046:21047   */\n      0x00\n        /* \"#utility.yul\":21036:21054   */\n      keccak256\n        /* \"#utility.yul\":21028:21054   */\n      swap1\n      pop\n        /* \"#utility.yul\":20920:21061   */\n      swap2\n      swap1\n      pop\n      jump\t// out\n        /* \"#utility.yul\":21067:21160   */\n    tag_251:\n        /* \"#utility.yul\":21104:21110   */\n      0x00\n        /* \"#utility.yul\":21151:21153   */\n      0x20\n        /* \"#utility.yul\":21146:21148   */\n      0x1f\n        /* \"#utility.yul\":21139:21144   */\n      dup4\n        /* \"#utility.yul\":21135:21149   */\n      add\n        /* \"#utility.yul\":21131:21154   */\n      div\n        /* \"#utility.yul\":21121:21154   */\n      swap1\n      pop\n        /* \"#utility.yul\":21067:21160   */\n      swap2\n      swap1\n      pop\n      jump\t// out\n        /* \"#utility.yul\":21166:21273   */\n    tag_252:\n        /* \"#utility.yul\":21210:21218   */\n      0x00\n        /* \"#utility.yul\":21260:21265   */\n      dup3\n        /* \"#utility.yul\":21254:21258   */\n      dup3\n        /* \"#utility.yul\":21250:21266   */\n      shl\n        /* \"#utility.yul\":21229:21266   */\n      swap1\n      pop\n        /* \"#utility.yul\":21166:21273   */\n      swap3\n      swap2\n      pop\n      pop\n      jump\t// out\n        /* \"#utility.yul\":21279:21672   */\n    tag_253:\n        /* \"#utility.yul\":21348:21354   */\n      0x00\n        /* \"#utility.yul\":21398:21399   */\n      0x08\n        /* \"#utility.yul\":21386:21396   */\n      dup4\n        /* \"#utility.yul\":21382:21400   */\n      mul\n        /* \"#utility.yul\":21421:21518   */\n      tag_486\n        /* \"#utility.yul\":21451:21517   */\n      0xffffffffffffffffffffffffffffffffffffffffffffffffffffffffffffffff\n        /* \"#utility.yul\":21440:21449   */\n      dup3\n        /* \"#utility.yul\":21421:21518   */\n      tag_252\n      jump\t// in\n    tag_486:\n        /* \"#utility.yul\":21539:21578   */\n      tag_487\n        /* \"#utility.yul\":21569:21577   */\n      dup7\n        /* \"#utility.yul\":21558:21567   */\n      dup4\n        /* \"#utility.yul\":21539:21578   */\n      tag_252\n      jump\t// in\n    tag_487:\n        /* \"#utility.yul\":21527:21578   */\n      swap6\n      pop\n        /* \"#utility.yul\":21611:21615   */\n      dup1\n        /* \"#utility.yul\":21607:21616   */\n      not\n        /* \"#utility.yul\":21600:21605   */\n      dup5\n        /* \"#utility.yul\":21596:21617   */\n      and\n        /* \"#utility.yul\":21587:21617   */\n      swap4\n      pop\n        /* \"#utility.yul\":21660:21664   */\n      dup1\n        /* \"#utility.yul\":21650:21658   */\n      dup7\n        /* \"#utility.yul\":21646:21665   */\n      and\n        /* \"#utility.yul\":21639:21644   */\n      dup5\n        /* \"#utility.yul\":21636:21666   */\n      or\n        /* \"#utility.yul\":21626:21666   */\n      swap3\n      pop\n        /* \"#utility.yul\":21355:21672   */\n      pop\n      pop\n        /* \"#utility.yul\":21279:21672   */\n      swap4\n      swap3\n      pop\n      pop\n      pop\n      jump\t// out\n        /* \"#utility.yul\":21678:21755   */\n    tag_254:\n        /* \"#utility.yul\":21715:21722   */\n      0x00\n        /* \"#utility.yul\":21744:21749   */\n      dup2\n        /* \"#utility.yul\":21733:21749   */\n      swap1\n      pop\n        /* \"#utility.yul\":21678:21755   */\n      swap2\n      swap1\n      pop\n      jump\t// out\n        /* \"#utility.yul\":21761:21903   */\n    tag_255:\n        /* \"#utility.yul\":21811:21820   */\n      0x00\n        /* \"#utility.yul\":21844:21897   */\n      tag_490\n        /* \"#utility.yul\":21862:21896   */\n      tag_491\n        /* \"#utility.yul\":21871:21895   */\n      tag_492\n        /* \"#utility.yul\":21889:21894   */\n      dup5\n        /* \"#utility.yul\":21871:21895   */\n      tag_254\n      jump\t// in\n    tag_492:\n        /* \"#utility.yul\":21862:21896   */\n      tag_203\n      jump\t// in\n    tag_491:\n        /* \"#utility.yul\":21844:21897   */\n      tag_254\n      jump\t// in\n    tag_490:\n        /* \"#utility.yul\":21831:21897   */\n      swap1\n      pop\n        /* \"#utility.yul\":21761:21903   */\n      swap2\n      swap1\n      pop\n      jump\t// out\n        /* \"#utility.yul\":21909:21984   */\n    tag_256:\n        /* \"#utility.yul\":21952:21955   */\n      0x00\n        /* \"#utility.yul\":21973:21978   */\n      dup2\n        /* \"#utility.yul\":21966:21978   */\n      swap1\n      pop\n        /* \"#utility.yul\":21909:21984   */\n      swap2\n      swap1\n      pop\n      jump\t// out\n        /* \"#utility.yul\":21990:22259   */\n    tag_257:\n        /* \"#utility.yul\":22100:22139   */\n      tag_495\n        /* \"#utility.yul\":22131:22138   */\n      dup4\n        /* \"#utility.yul\":22100:22139   */\n      tag_255\n      jump\t// in\n    tag_495:\n        /* \"#utility.yul\":22161:22252   */\n      tag_496\n        /* \"#utility.yul\":22210:22251   */\n      tag_497\n        /* \"#utility.yul\":22234:22250   */\n      dup3\n        /* \"#utility.yul\":22210:22251   */\n      tag_256\n      jump\t// in\n    tag_497:\n        /* \"#utility.yul\":22202:22208   */\n      dup5\n        /* \"#utility.yul\":22195:22199   */\n      dup5\n        /* \"#utility.yul\":22189:22200   */\n      sload\n        /* \"#utility.yul\":22161:22252   */\n      tag_253\n      jump\t// in\n    tag_496:\n        /* \"#utility.yul\":22155:22159   */\n      dup3\n        /* \"#utility.yul\":22148:22253   */\n      sstore\n        /* \"#utility.yul\":22066:22259   */\n      pop\n        /* \"#utility.yul\":21990:22259   */\n      pop\n      pop\n      pop\n      jump\t// out\n        /* \"#utility.yul\":22265:22338   */\n    tag_258:\n        /* \"#utility.yul\":22310:22313   */\n      0x00\n        /* \"#utility.yul\":22265:22338   */\n      swap1\n      jump\t// out\n        /* \"#utility.yul\":22344:22533   */\n    tag_259:\n        /* \"#utility.yul\":22421:22453   */\n      tag_500\n      tag_258\n      jump\t// in\n    tag_500:\n        /* \"#utility.yul\":22462:22527   */\n      tag_501\n        /* \"#utility.yul\":22520:22526   */\n      dup2\n        /* \"#utility.yul\":22512:22518   */\n      dup5\n        /* \"#utility.yul\":22506:22510   */\n      dup5\n        /* \"#utility.yul\":22462:22527   */\n      tag_257\n      jump\t// in\n    tag_501:\n        /* \"#utility.yul\":22397:22533   */\n      pop\n        /* \"#utility.yul\":22344:22533   */\n      pop\n      pop\n      jump\t// out\n        /* \"#utility.yul\":22539:22725   */\n    tag_260:\n        /* \"#utility.yul\":22599:22719   */\n    tag_503:\n        /* \"#utility.yul\":22616:22619   */\n      dup2\n        /* \"#utility.yul\":22609:22614   */\n      dup2\n        /* \"#utility.yul\":22606:22620   */\n      lt\n        /* \"#utility.yul\":22599:22719   */\n      iszero\n      tag_505\n      jumpi\n        /* \"#utility.yul\":22670:22709   */\n      tag_506\n        /* \"#utility.yul\":22707:22708   */\n      0x00\n        /* \"#utility.yul\":22700:22705   */\n      dup3\n        /* \"#utility.yul\":22670:22709   */\n      tag_259\n      jump\t// in\n    tag_506:\n        /* \"#utility.yul\":22643:22644   */\n      0x01\n        /* \"#utility.yul\":22636:22641   */\n      dup2\n        /* \"#utility.yul\":22632:22645   */\n      add\n        /* \"#utility.yul\":22623:22645   */\n      swap1\n      pop\n        /* \"#utility.yul\":22599:22719   */\n      jump(tag_503)\n    tag_505:\n        /* \"#utility.yul\":22539:22725   */\n      pop\n      pop\n      jump\t// out\n        /* \"#utility.yul\":22731:23274   */\n    tag_261:\n        /* \"#utility.yul\":22832:22834   */\n      0x1f\n        /* \"#utility.yul\":22827:22830   */\n      dup3\n        /* \"#utility.yul\":22824:22835   */\n      gt\n        /* \"#utility.yul\":22821:23267   */\n      iszero\n      tag_508\n      jumpi\n        /* \"#utility.yul\":22866:22904   */\n      tag_509\n        /* \"#utility.yul\":22898:22903   */\n      dup2\n        /* \"#utility.yul\":22866:22904   */\n      tag_250\n      jump\t// in\n    tag_509:\n        /* \"#utility.yul\":22950:22979   */\n      tag_510\n        /* \"#utility.yul\":22968:22978   */\n      dup5\n        /* \"#utility.yul\":22950:22979   */\n      tag_251\n      jump\t// in\n    tag_510:\n        /* \"#utility.yul\":22940:22948   */\n      dup2\n        /* \"#utility.yul\":22936:22980   */\n      add\n        /* \"#utility.yul\":23133:23135   */\n      0x20\n        /* \"#utility.yul\":23121:23131   */\n      dup6\n        /* \"#utility.yul\":23118:23136   */\n      lt\n        /* \"#utility.yul\":23115:23164   */\n      iszero\n      tag_511\n      jumpi\n        /* \"#utility.yul\":23154:23162   */\n      dup2\n        /* \"#utility.yul\":23139:23162   */\n      swap1\n      pop\n        /* \"#utility.yul\":23115:23164   */\n    tag_511:\n        /* \"#utility.yul\":23177:23257   */\n      tag_512\n        /* \"#utility.yul\":23233:23255   */\n      tag_513\n        /* \"#utility.yul\":23251:23254   */\n      dup6\n        /* \"#utility.yul\":23233:23255   */\n      tag_251\n      jump\t// in\n    tag_513:\n        /* \"#utility.yul\":23223:23231   */\n      dup4\n        /* \"#utility.yul\":23219:23256   */\n      add\n        /* \"#utility.yul\":23206:23217   */\n      dup3\n        /* \"#utility.yul\":23177:23257   */\n      tag_260\n      jump\t// in\n    tag_512:\n        /* \"#utility.yul\":22836:23267   */\n      pop\n      pop\n        /* \"#utility.yul\":22821:23267   */\n    tag_508:\n        /* \"#utility.yul\":22731:23274   */\n      pop\n      pop\n      pop\n      jump\t// out\n        /* \"#utility.yul\":23280:23397   */\n    tag_262:\n        /* \"#utility.yul\":23334:23342   */\n      0x00\n        /* \"#utility.yul\":23384:23389   */\n      dup3\n        /* \"#utility.yul\":23378:23382   */\n      dup3\n        /* \"#utility.yul\":23374:23390   */\n      shr\n        /* \"#utility.yul\":23353:23390   */\n      swap1\n      pop\n        /* \"#utility.yul\":23280:23397   */\n      swap3\n      swap2\n      pop\n      pop\n      jump\t// out\n        /* \"#utility.yul\":23403:23572   */\n    tag_263:\n        /* \"#utility.yul\":23447:23453   */\n      0x00\n        /* \"#utility.yul\":23480:23531   */\n      tag_516\n        /* \"#utility.yul\":23528:23529   */\n      0x00\n        /* \"#utility.yul\":23524:23530   */\n      not\n        /* \"#utility.yul\":23516:23521   */\n      dup5\n        /* \"#utility.yul\":23513:23514   */\n      0x08\n        /* \"#utility.yul\":23509:23522   */\n      mul\n        /* \"#utility.yul\":23480:23531   */\n      tag_262\n      jump\t// in\n    tag_516:\n        /* \"#utility.yul\":23476:23532   */\n      not\n        /* \"#utility.yul\":23561:23565   */\n      dup1\n        /* \"#utility.yul\":23555:23559   */\n      dup4\n        /* \"#utility.yul\":23551:23566   */\n      and\n        /* \"#utility.yul\":23541:23566   */\n      swap2\n      pop\n        /* \"#utility.yul\":23454:23572   */\n      pop\n        /* \"#utility.yul\":23403:23572   */\n      swap3\n      swap2\n      pop\n      pop\n      jump\t// out\n        /* \"#utility.yul\":23577:23872   */\n    tag_264:\n        /* \"#utility.yul\":23653:23657   */\n      0x00\n        /* \"#utility.yul\":23799:23828   */\n      tag_518\n        /* \"#utility.yul\":23824:23827   */\n      dup4\n        /* \"#utility.yul\":23818:23822   */\n      dup4\n        /* \"#utility.yul\":23799:23828   */\n      tag_263\n      jump\t// in\n    tag_518:\n        /* \"#utility.yul\":23791:23828   */\n      swap2\n      pop\n        /* \"#utility.yul\":23861:23864   */\n      dup3\n        /* \"#utility.yul\":23858:23859   */\n      0x02\n        /* \"#utility.yul\":23854:23865   */\n      mul\n        /* \"#utility.yul\":23848:23852   */\n      dup3\n        /* \"#utility.yul\":23845:23866   */\n      or\n        /* \"#utility.yul\":23837:23866   */\n      swap1\n      pop\n        /* \"#utility.yul\":23577:23872   */\n      swap3\n      swap2\n      pop\n      pop\n      jump\t// out\n        /* \"#utility.yul\":23877:25272   */\n    tag_104:\n        /* \"#utility.yul\":23994:24031   */\n      tag_520\n        /* \"#utility.yul\":24027:24030   */\n      dup3\n        /* \"#utility.yul\":23994:24031   */\n      tag_194\n      jump\t// in\n    tag_520:\n        /* \"#utility.yul\":24096:24114   */\n      0xffffffffffffffff\n        /* \"#utility.yul\":24088:24094   */\n      dup2\n        /* \"#utility.yul\":24085:24115   */\n      gt\n        /* \"#utility.yul\":24082:24138   */\n      iszero\n      tag_521\n      jumpi\n        /* \"#utility.yul\":24118:24136   */\n      tag_522\n      tag_215\n      jump\t// in\n    tag_522:\n        /* \"#utility.yul\":24082:24138   */\n    tag_521:\n        /* \"#utility.yul\":24162:24200   */\n      tag_523\n        /* \"#utility.yul\":24194:24198   */\n      dup3\n        /* \"#utility.yul\":24188:24199   */\n      sload\n        /* \"#utility.yul\":24162:24200   */\n      tag_88\n      jump\t// in\n    tag_523:\n        /* \"#utility.yul\":24247:24314   */\n      tag_524\n        /* \"#utility.yul\":24307:24313   */\n      dup3\n        /* \"#utility.yul\":24299:24305   */\n      dup3\n        /* \"#utility.yul\":24293:24297   */\n      dup6\n        /* \"#utility.yul\":24247:24314   */\n      tag_261\n      jump\t// in\n    tag_524:\n        /* \"#utility.yul\":24341:24342   */\n      0x00\n        /* \"#utility.yul\":24365:24369   */\n      0x20\n        /* \"#utility.yul\":24352:24369   */\n      swap1\n      pop\n        /* \"#utility.yul\":24397:24399   */\n      0x1f\n        /* \"#utility.yul\":24389:24395   */\n      dup4\n        /* \"#utility.yul\":24386:24400   */\n      gt\n        /* \"#utility.yul\":24414:24415   */\n      0x01\n        /* \"#utility.yul\":24409:25027   */\n      dup2\n      eq\n      tag_526\n      jumpi\n        /* \"#utility.yul\":25071:25072   */\n      0x00\n        /* \"#utility.yul\":25088:25094   */\n      dup5\n        /* \"#utility.yul\":25085:25162   */\n      iszero\n      tag_527\n      jumpi\n        /* \"#utility.yul\":25137:25146   */\n      dup3\n        /* \"#utility.yul\":25132:25135   */\n      dup8\n        /* \"#utility.yul\":25128:25147   */\n      add\n        /* \"#utility.yul\":25122:25148   */\n      mload\n        /* \"#utility.yul\":25113:25148   */\n      swap1\n      pop\n        /* \"#utility.yul\":25085:25162   */\n    tag_527:\n        /* \"#utility.yul\":25188:25255   */\n      tag_528\n        /* \"#utility.yul\":25248:25254   */\n      dup6\n        /* \"#utility.yul\":25241:25246   */\n      dup3\n        /* \"#utility.yul\":25188:25255   */\n      tag_264\n      jump\t// in\n    tag_528:\n        /* \"#utility.yul\":25182:25186   */\n      dup7\n        /* \"#utility.yul\":25175:25256   */\n      sstore\n        /* \"#utility.yul\":25044:25266   */\n      pop\n        /* \"#utility.yul\":24379:25266   */\n      jump(tag_525)\n        /* \"#utility.yul\":24409:25027   */\n    tag_526:\n        /* \"#utility.yul\":24461:24465   */\n      0x1f\n        /* \"#utility.yul\":24457:24466   */\n      not\n        /* \"#utility.yul\":24449:24455   */\n      dup5\n        /* \"#utility.yul\":24445:24467   */\n      and\n        /* \"#utility.yul\":24495:24532   */\n      tag_529\n        /* \"#utility.yul\":24527:24531   */\n      dup7\n        /* \"#utility.yul\":24495:24532   */\n      tag_250\n      jump\t// in\n    tag_529:\n        /* \"#utility.yul\":24554:24555   */\n      0x00\n        /* \"#utility.yul\":24568:24776   */\n    tag_530:\n        /* \"#utility.yul\":24582:24589   */\n      dup3\n        /* \"#utility.yul\":24579:24580   */\n      dup2\n        /* \"#utility.yul\":24576:24590   */\n      lt\n        /* \"#utility.yul\":24568:24776   */\n      iszero\n      tag_532\n      jumpi\n        /* \"#utility.yul\":24661:24670   */\n      dup5\n        /* \"#utility.yul\":24656:24659   */\n      dup10\n        /* \"#utility.yul\":24652:24671   */\n      add\n        /* \"#utility.yul\":24646:24672   */\n      mload\n        /* \"#utility.yul\":24638:24644   */\n      dup3\n        /* \"#utility.yul\":24631:24673   */\n      sstore\n        /* \"#utility.yul\":24712:24713   */\n      0x01\n        /* \"#utility.yul\":24704:24710   */\n      dup3\n        /* \"#utility.yul\":24700:24714   */\n      add\n        /* \"#utility.yul\":24690:24714   */\n      swap2\n      pop\n        /* \"#utility.yul\":24759:24761   */\n      0x20\n        /* \"#utility.yul\":24748:24757   */\n      dup6\n        /* \"#utility.yul\":24744:24762   */\n      add\n        /* \"#utility.yul\":24731:24762   */\n      swap5\n      pop\n        /* \"#utility.yul\":24605:24609   */\n      0x20\n        /* \"#utility.yul\":24602:24603   */\n      dup2\n        /* \"#utility.yul\":24598:24610   */\n      add\n        /* \"#utility.yul\":24593:24610   */\n      swap1\n      pop\n        /* \"#utility.yul\":24568:24776   */\n      jump(tag_530)\n    tag_532:\n        /* \"#utility.yul\":24804:24810   */\n      dup7\n        /* \"#utility.yul\":24795:24802   */\n      dup4\n        /* \"#utility.yul\":24792:24811   */\n      lt\n        /* \"#utility.yul\":24789:24968   */\n      iszero\n      tag_533\n      jumpi\n        /* \"#utility.yul\":24862:24871   */\n      dup5\n        /* \"#utility.yul\":24857:24860   */\n      dup10\n        /* \"#utility.yul\":24853:24872   */\n      add\n        /* \"#utility.yul\":24847:24873   */\n      mload\n        /* \"#utility.yul\":24905:24953   */\n      tag_534\n        /* \"#utility.yul\":24947:24951   */\n      0x1f\n        /* \"#utility.yul\":24939:24945   */\n      dup10\n        /* \"#utility.yul\":24935:24952   */\n      and\n        /* \"#utility.yul\":24924:24933   */\n      dup3\n        /* \"#utility.yul\":24905:24953   */\n      tag_263\n      jump\t// in\n    tag_534:\n        /* \"#utility.yul\":24897:24903   */\n      dup4\n        /* \"#utility.yul\":24890:24954   */\n      sstore\n        /* \"#utility.yul\":24812:24968   */\n      pop\n        /* \"#utility.yul\":24789:24968   */\n    tag_533:\n        /* \"#utility.yul\":25014:25015   */\n      0x01\n        /* \"#utility.yul\":25010:25011   */\n      0x02\n        /* \"#utility.yul\":25002:25008   */\n      dup9\n        /* \"#utility.yul\":24998:25012   */\n      mul\n        /* \"#utility.yul\":24994:25016   */\n      add\n        /* \"#utility.yul\":24988:24992   */\n      dup9\n        /* \"#utility.yul\":24981:25017   */\n      sstore\n        /* \"#utility.yul\":24416:25027   */\n      pop\n      pop\n      pop\n        /* \"#utility.yul\":24379:25266   */\n    tag_525:\n      pop\n        /* \"#utility.yul\":23969:25272   */\n      pop\n      pop\n      pop\n        /* \"#utility.yul\":23877:25272   */\n      pop\n      pop\n      jump\t// out\n        /* \"#utility.yul\":25278:25591   */\n    tag_106:\n        /* \"#utility.yul\":25391:25395   */\n      0x00\n        /* \"#utility.yul\":25429:25431   */\n      0x20\n        /* \"#utility.yul\":25418:25427   */\n      dup3\n        /* \"#utility.yul\":25414:25432   */\n      add\n        /* \"#utility.yul\":25406:25432   */\n      swap1\n      pop\n        /* \"#utility.yul\":25478:25487   */\n      dup2\n        /* \"#utility.yul\":25472:25476   */\n      dup2\n        /* \"#utility.yul\":25468:25488   */\n      sub\n        /* \"#utility.yul\":25464:25465   */\n      0x00\n        /* \"#utility.yul\":25453:25462   */\n      dup4\n        /* \"#utility.yul\":25449:25466   */\n      add\n        /* \"#utility.yul\":25442:25489   */\n      mstore\n        /* \"#utility.yul\":25506:25584   */\n      tag_536\n        /* \"#utility.yul\":25579:25583   */\n      dup2\n        /* \"#utility.yul\":25570:25576   */\n      dup5\n        /* \"#utility.yul\":25506:25584   */\n      tag_223\n      jump\t// in\n    tag_536:\n        /* \"#utility.yul\":25498:25584   */\n      swap1\n      pop\n        /* \"#utility.yul\":25278:25591   */\n      swap3\n      swap2\n      pop\n      pop\n      jump\t// out\n        /* \"#utility.yul\":25597:25764   */\n    tag_265:\n        /* \"#utility.yul\":25737:25756   */\n      0x416c7265616479207075626c6973686564000000000000000000000000000000\n        /* \"#utility.yul\":25733:25734   */\n      0x00\n        /* \"#utility.yul\":25725:25731   */\n      dup3\n        /* \"#utility.yul\":25721:25735   */\n      add\n        /* \"#utility.yul\":25714:25757   */\n      mstore\n        /* \"#utility.yul\":25597:25764   */\n      pop\n      jump\t// out\n        /* \"#utility.yul\":25770:26136   */\n    tag_266:\n        /* \"#utility.yul\":25912:25915   */\n      0x00\n        /* \"#utility.yul\":25933:26000   */\n      tag_539\n        /* \"#utility.yul\":25997:25999   */\n      0x11\n        /* \"#utility.yul\":25992:25995   */\n      dup4\n        /* \"#utility.yul\":25933:26000   */\n      tag_222\n      jump\t// in\n    tag_539:\n        /* \"#utility.yul\":25926:26000   */\n      swap2\n      pop\n        /* \"#utility.yul\":26009:26102   */\n      tag_540\n        /* \"#utility.yul\":26098:26101   */\n      dup3\n        /* \"#utility.yul\":26009:26102   */\n      tag_265\n      jump\t// in\n    tag_540:\n        /* \"#utility.yul\":26127:26129   */\n      0x20\n        /* \"#utility.yul\":26122:26125   */\n      dup3\n        /* \"#utility.yul\":26118:26130   */\n      add\n        /* \"#utility.yul\":26111:26130   */\n      swap1\n      pop\n        /* \"#utility.yul\":25770:26136   */\n      swap2\n      swap1\n      pop\n      jump\t// out\n        /* \"#utility.yul\":26142:26561   */\n    tag_114:\n        /* \"#utility.yul\":26308:26312   */\n      0x00\n        /* \"#utility.yul\":26346:26348   */\n      0x20\n        /* \"#utility.yul\":26335:26344   */\n      dup3\n        /* \"#utility.yul\":26331:26349   */\n      add\n        /* \"#utility.yul\":26323:26349   */\n      swap1\n      pop\n        /* \"#utility.yul\":26395:26404   */\n      dup2\n        /* \"#utility.yul\":26389:26393   */\n      dup2\n        /* \"#utility.yul\":26385:26405   */\n      sub\n        /* \"#utility.yul\":26381:26382   */\n      0x00\n        /* \"#utility.yul\":26370:26379   */\n      dup4\n        /* \"#utility.yul\":26366:26383   */\n      add\n        /* \"#utility.yul\":26359:26406   */\n      mstore\n        /* \"#utility.yul\":26423:26554   */\n      tag_542\n        /* \"#utility.yul\":26549:26553   */\n      dup2\n        /* \"#utility.yul\":26423:26554   */\n      tag_266\n      jump\t// in\n    tag_542:\n        /* \"#utility.yul\":26415:26554   */\n      swap1\n      pop\n        /* \"#utility.yul\":26142:26561   */\n      swap2\n      swap1\n      pop\n      jump\t// out\n        /* \"#utility.yul\":26567:26739   */\n    tag_267:\n        /* \"#utility.yul\":26707:26731   */\n      0x43616e646964617465206e6f742070726f706f73656400000000000000000000\n        /* \"#utility.yul\":26703:26704   */\n      0x00\n        /* \"#utility.yul\":26695:26701   */\n      dup3\n        /* \"#utility.yul\":26691:26705   */\n      add\n        /* \"#utility.yul\":26684:26732   */\n      mstore\n        /* \"#utility.yul\":26567:26739   */\n      pop\n      jump\t// out\n        /* \"#utility.yul\":26745:27111   */\n    tag_268:\n        /* \"#utility.yul\":26887:26890   */\n      0x00\n        /* \"#utility.yul\":26908:26975   */\n      tag_545\n        /* \"#utility.yul\":26972:26974   */\n      0x16\n        /* \"#utility.yul\":26967:26970   */\n      dup4\n        /* \"#utility.yul\":26908:26975   */\n      tag_222\n      jump\t// in\n    tag_545:\n        /* \"#utility.yul\":26901:26975   */\n      swap2\n      pop\n        /* \"#utility.yul\":26984:27077   */\n      tag_546\n        /* \"#utility.yul\":27073:27076   */\n      dup3\n        /* \"#utility.yul\":26984:27077   */\n      tag_267\n      jump\t// in\n    tag_546:\n        /* \"#utility.yul\":27102:27104   */\n      0x20\n        /* \"#utility.yul\":27097:27100   */\n      dup3\n        /* \"#utility.yul\":27093:27105   */\n      add\n        /* \"#utility.yul\":27086:27105   */\n      swap1\n      pop\n        /* \"#utility.yul\":26745:27111   */\n      swap2\n      swap1\n      pop\n      jump\t// out\n        /* \"#utility.yul\":27117:27536   */\n    tag_125:\n        /* \"#utility.yul\":27283:27287   */\n      0x00\n        /* \"#utility.yul\":27321:27323   */\n      0x20\n        /* \"#utility.yul\":27310:27319   */\n      dup3\n        /* \"#utility.yul\":27306:27324   */\n      add\n        /* \"#utility.yul\":27298:27324   */\n      swap1\n      pop\n        /* \"#utility.yul\":27370:27379   */\n      dup2\n        /* \"#utility.yul\":27364:27368   */\n      dup2\n        /* \"#utility.yul\":27360:27380   */\n      sub\n        /* \"#utility.yul\":27356:27357   */\n      0x00\n        /* \"#utility.yul\":27345:27354   */\n      dup4\n        /* \"#utility.yul\":27341:27358   */\n      add\n        /* \"#utility.yul\":27334:27381   */\n      mstore\n        /* \"#utility.yul\":27398:27529   */\n      tag_548\n        /* \"#utility.yul\":27524:27528   */\n      dup2\n        /* \"#utility.yul\":27398:27529   */\n      tag_268\n      jump\t// in\n    tag_548:\n        /* \"#utility.yul\":27390:27529   */\n      swap1\n      pop\n        /* \"#utility.yul\":27117:27536   */\n      swap2\n      swap1\n      pop\n      jump\t// out\n        /* \"#utility.yul\":27542:27712   */\n    tag_269:\n        /* \"#utility.yul\":27682:27704   */\n      0x456c656374696f6e206e6f742073746172746564000000000000000000000000\n        /* \"#utility.yul\":27678:27679   */\n      0x00\n        /* \"#utility.yul\":27670:27676   */\n      dup3\n        /* \"#utility.yul\":27666:27680   */\n      add\n        /* \"#utility.yul\":27659:27705   */\n      mstore\n        /* \"#utility.yul\":27542:27712   */\n      pop\n      jump\t// out\n        /* \"#utility.yul\":27718:28084   */\n    tag_270:\n        /* \"#utility.yul\":27860:27863   */\n      0x00\n        /* \"#utility.yul\":27881:27948   */\n      tag_551\n        /* \"#utility.yul\":27945:27947   */\n      0x14\n        /* \"#utility.yul\":27940:27943   */\n      dup4\n        /* \"#utility.yul\":27881:27948   */\n      tag_222\n      jump\t// in\n    tag_551:\n        /* \"#utility.yul\":27874:27948   */\n      swap2\n      pop\n        /* \"#utility.yul\":27957:28050   */\n      tag_552\n        /* \"#utility.yul\":28046:28049   */\n      dup3\n        /* \"#utility.yul\":27957:28050   */\n      tag_269\n      jump\t// in\n    tag_552:\n        /* \"#utility.yul\":28075:28077   */\n      0x20\n        /* \"#utility.yul\":28070:28073   */\n      dup3\n        /* \"#utility.yul\":28066:28078   */\n      add\n        /* \"#utility.yul\":28059:28078   */\n      swap1\n      pop\n        /* \"#utility.yul\":27718:28084   */\n      swap2\n      swap1\n      pop\n      jump\t// out\n        /* \"#utility.yul\":28090:28509   */\n    tag_137:\n        /* \"#utility.yul\":28256:28260   */\n      0x00\n        /* \"#utility.yul\":28294:28296   */\n      0x20\n        /* \"#utility.yul\":28283:28292   */\n      dup3\n        /* \"#utility.yul\":28279:28297   */\n      add\n        /* \"#utility.yul\":28271:28297   */\n      swap1\n      pop\n        /* \"#utility.yul\":28343:28352   */\n      dup2\n        /* \"#utility.yul\":28337:28341   */\n      dup2\n        /* \"#utility.yul\":28333:28353   */\n      sub\n        /* \"#utility.yul\":28329:28330   */\n      0x00\n        /* \"#utility.yul\":28318:28327   */\n      dup4\n        /* \"#utility.yul\":28314:28331   */\n      add\n        /* \"#utility.yul\":28307:28354   */\n      mstore\n        /* \"#utility.yul\":28371:28502   */\n      tag_554\n        /* \"#utility.yul\":28497:28501   */\n      dup2\n        /* \"#utility.yul\":28371:28502   */\n      tag_270\n      jump\t// in\n    tag_554:\n        /* \"#utility.yul\":28363:28502   */\n      swap1\n      pop\n        /* \"#utility.yul\":28090:28509   */\n      swap2\n      swap1\n      pop\n      jump\t// out\n        /* \"#utility.yul\":28515:28677   */\n    tag_271:\n        /* \"#utility.yul\":28655:28669   */\n      0x566f74696e6720656e6465640000000000000000000000000000000000000000\n        /* \"#utility.yul\":28651:28652   */\n      0x00\n        /* \"#utility.yul\":28643:28649   */\n      dup3\n        /* \"#utility.yul\":28639:28653   */\n      add\n        /* \"#utility.yul\":28632:28670   */\n      mstore\n        /* \"#utility.yul\":28515:28677   */\n      pop\n      jump\t// out\n        /* \"#utility.yul\":28683:29049   */\n    tag_272:\n        /* \"#utility.yul\":28825:28828   */\n      0x00\n        /* \"#utility.yul\":28846:28913   */\n      tag_557\n        /* \"#utility.yul\":28910:28912   */\n      0x0c\n        /* \"#utility.yul\":28905:28908   */\n      dup4\n        /* \"#utility.yul\":28846:28913   */\n      tag_222\n      jump\t// in\n    tag_557:\n        /* \"#utility.yul\":28839:28913   */\n      swap2\n      pop\n        /* \"#utility.yul\":28922:29015   */\n      tag_558\n        /* \"#utility.yul\":29011:29014   */\n      dup3\n        /* \"#utility.yul\":28922:29015   */\n      tag_271\n      jump\t// in\n    tag_558:\n        /* \"#utility.yul\":29040:29042   */\n      0x20\n        /* \"#utility.yul\":29035:29038   */\n      dup3\n        /* \"#utility.yul\":29031:29043   */\n      add\n        /* \"#utility.yul\":29024:29043   */\n      swap1\n      pop\n        /* \"#utility.yul\":28683:29049   */\n      swap2\n      swap1\n      pop\n      jump\t// out\n        /* \"#utility.yul\":29055:29474   */\n    tag_140:\n        /* \"#utility.yul\":29221:29225   */\n      0x00\n        /* \"#utility.yul\":29259:29261   */\n      0x20\n        /* \"#utility.yul\":29248:29257   */\n      dup3\n        /* \"#utility.yul\":29244:29262   */\n      add\n        /* \"#utility.yul\":29236:29262   */\n      swap1\n      pop\n        /* \"#utility.yul\":29308:29317   */\n      dup2\n        /* \"#utility.yul\":29302:29306   */\n      dup2\n        /* \"#utility.yul\":29298:29318   */\n      sub\n        /* \"#utility.yul\":29294:29295   */\n      0x00\n        /* \"#utility.yul\":29283:29292   */\n      dup4\n        /* \"#utility.yul\":29279:29296   */\n      add\n        /* \"#utility.yul\":29272:29319   */\n      mstore\n        /* \"#utility.yul\":29336:29467   */\n      tag_560\n        /* \"#utility.yul\":29462:29466   */\n      dup2\n        /* \"#utility.yul\":29336:29467   */\n      tag_272\n      jump\t// in\n    tag_560:\n        /* \"#utility.yul\":29328:29467   */\n      swap1\n      pop\n        /* \"#utility.yul\":29055:29474   */\n      swap2\n      swap1\n      pop\n      jump\t// out\n        /* \"#utility.yul\":29480:29644   */\n    tag_273:\n        /* \"#utility.yul\":29620:29636   */\n      0x4e6f742072656769737465726564000000000000000000000000000000000000\n        /* \"#utility.yul\":29616:29617   */\n      0x00\n        /* \"#utility.yul\":29608:29614   */\n      dup3\n        /* \"#utility.yul\":29604:29618   */\n      add\n        /* \"#utility.yul\":29597:29637   */\n      mstore\n        /* \"#utility.yul\":29480:29644   */\n      pop\n      jump\t// out\n        /* \"#utility.yul\":29650:30016   */\n    tag_274:\n        /* \"#utility.yul\":29792:29795   */\n      0x00\n        /* \"#utility.yul\":29813:29880   */\n      tag_563\n        /* \"#utility.yul\":29877:29879   */\n      0x0e\n        /* \"#utility.yul\":29872:29875   */\n      dup4\n        /* \"#utility.yul\":29813:29880   */\n      tag_222\n      jump\t// in\n    tag_563:\n        /* \"#utility.yul\":29806:29880   */\n      swap2\n      pop\n        /* \"#utility.yul\":29889:29982   */\n      tag_564\n        /* \"#utility.yul\":29978:29981   */\n      dup3\n        /* \"#utility.yul\":29889:29982   */\n      tag_273\n      jump\t// in\n    tag_564:\n        /* \"#utility.yul\":30007:30009   */\n      0x20\n        /* \"#utility.yul\":30002:30005   */\n      dup3\n        /* \"#utility.yul\":29998:30010   */\n      add\n        /* \"#utility.yul\":29991:30010   */\n      swap1\n      pop\n        /* \"#utility.yul\":29650:30016   */\n      swap2\n      swap1\n      pop\n      jump\t// out\n        /* \"#utility.yul\":30022:30441   */\n    tag_148:\n        /* \"#utility.yul\":30188:30192   */\n      0x00\n        /* \"#utility.yul\":30226:30228   */\n      0x20\n        /* \"#utility.yul\":30215:30224   */\n      dup3\n        /* \"#utility.yul\":30211:30229   */\n      add\n        /* \"#utility.yul\":30203:30229   */\n      swap1\n      pop\n        /* \"#utility.yul\":30275:30284   */\n      dup2\n        /* \"#utility.yul\":30269:30273   */\n      dup2\n        /* \"#utility.yul\":30265:30285   */\n      sub\n        /* \"#utility.yul\":30261:30262   */\n      0x00\n        /* \"#utility.yul\":30250:30259   */\n      dup4\n        /* \"#utility.yul\":30246:30263   */\n      add\n        /* \"#utility.yul\":30239:30286   */\n      mstore\n        /* \"#utility.yul\":30303:30434   */\n      tag_566\n        /* \"#utility.yul\":30429:30433   */\n      dup2\n        /* \"#utility.yul\":30303:30434   */\n      tag_274\n      jump\t// in\n    tag_566:\n        /* \"#utility.yul\":30295:30434   */\n      swap1\n      pop\n        /* \"#utility.yul\":30022:30441   */\n      swap2\n      swap1\n      pop\n      jump\t// out\n        /* \"#utility.yul\":30447:30610   */\n    tag_275:\n        /* \"#utility.yul\":30587:30602   */\n      0x416c726561647920766f74656400000000000000000000000000000000000000\n        /* \"#utility.yul\":30583:30584   */\n      0x00\n        /* \"#utility.yul\":30575:30581   */\n      dup3\n        /* \"#utility.yul\":30571:30585   */\n      add\n        /* \"#utility.yul\":30564:30603   */\n      mstore\n        /* \"#utility.yul\":30447:30610   */\n      pop\n      jump\t// out\n        /* \"#utility.yul\":30616:30982   */\n    tag_276:\n        /* \"#utility.yul\":30758:30761   */\n      0x00\n        /* \"#utility.yul\":30779:30846   */\n      tag_569\n        /* \"#utility.yul\":30843:30845   */\n      0x0d\n        /* \"#utility.yul\":30838:30841   */\n      dup4\n        /* \"#utility.yul\":30779:30846   */\n      tag_222\n      jump\t// in\n    tag_569:\n        /* \"#utility.yul\":30772:30846   */\n      swap2\n      pop\n        /* \"#utility.yul\":30855:30948   */\n      tag_570\n        /* \"#utility.yul\":30944:30947   */\n      dup3\n        /* \"#utility.yul\":30855:30948   */\n      tag_275\n      jump\t// in\n    tag_570:\n        /* \"#utility.yul\":30973:30975   */\n      0x20\n        /* \"#utility.yul\":30968:30971   */\n      dup3\n        /* \"#utility.yul\":30964:30976   */\n      add\n        /* \"#utility.yul\":30957:30976   */\n      swap1\n      pop\n        /* \"#utility.yul\":30616:30982   */\n      swap2\n      swap1\n      pop\n      jump\t// out\n        /* \"#utility.yul\":30988:31407   */\n    tag_155:\n        /* \"#utility.yul\":31154:31158   */\n      0x00\n        /* \"#utility.yul\":31192:31194   */\n      0x20\n        /* \"#utility.yul\":31181:31190   */\n      dup3\n        /* \"#utility.yul\":31177:31195   */\n      add\n        /* \"#utility.yul\":31169:31195   */\n      swap1\n      pop\n        /* \"#utility.yul\":31241:31250   */\n      dup2\n        /* \"#utility.yul\":31235:31239   */\n      dup2\n        /* \"#utility.yul\":31231:31251   */\n      sub\n        /* \"#utility.yul\":31227:31228   */\n      0x00\n        /* \"#utility.yul\":31216:31225   */\n      dup4\n        /* \"#utility.yul\":31212:31229   */\n      add\n        /* \"#utility.yul\":31205:31252   */\n      mstore\n        /* \"#utility.yul\":31269:31400   */\n      tag_572\n        /* \"#utility.yul\":31395:31399   */\n      dup2\n        /* \"#utility.yul\":31269:31400   */\n      tag_276\n      jump\t// in\n    tag_572:\n        /* \"#utility.yul\":31261:31400   */\n      swap1\n      pop\n        /* \"#utility.yul\":30988:31407   */\n      swap2\n      swap1\n      pop\n      jump\t// out\n        /* \"#utility.yul\":31413:31593   */\n    tag_164:\n        /* \"#utility.yul\":31461:31538   */\n      0x4e487b7100000000000000000000000000000000000000000000000000000000\n        /* \"#utility.yul\":31458:31459   */\n      0x00\n        /* \"#utility.yul\":31451:31539   */\n      mstore\n        /* \"#utility.yul\":31558:31562   */\n      0x32\n        /* \"#utility.yul\":31555:31556   */\n      0x04\n        /* \"#utility.yul\":31548:31563   */\n      mstore\n        /* \"#utility.yul\":31582:31586   */\n      0x24\n        /* \"#utility.yul\":31579:31580   */\n      0x00\n        /* \"#utility.yul\":31572:31587   */\n      revert\n        /* \"#utility.yul\":31599:31779   */\n    tag_277:\n        /* \"#utility.yul\":31647:31724   */\n      0x4e487b7100000000000000000000000000000000000000000000000000000000\n        /* \"#utility.yul\":31644:31645   */\n      0x00\n        /* \"#utility.yul\":31637:31725   */\n      mstore\n        /* \"#utility.yul\":31744:31748   */\n      0x11\n        /* \"#utility.yul\":31741:31742   */\n      0x04\n        /* \"#utility.yul\":31734:31749   */\n      mstore\n        /* \"#utility.yul\":31768:31772   */\n      0x24\n        /* \"#utility.yul\":31765:31766   */\n      0x00\n        /* \"#utility.yul\":31758:31773   */\n      revert\n        /* \"#utility.yul\":31785:32018   */\n    tag_167:\n        /* \"#utility.yul\":31824:31827   */\n      0x00\n        /* \"#utility.yul\":31847:31871   */\n      tag_576\n        /* \"#utility.yul\":31865:31870   */\n      dup3\n        /* \"#utility.yul\":31847:31871   */\n      tag_254\n      jump\t// in\n    tag_576:\n        /* \"#utility.yul\":31838:31871   */\n      swap2\n      pop\n        /* \"#utility.yul\":31893:31959   */\n      0xffffffffffffffffffffffffffffffffffffffffffffffffffffffffffffffff\n        /* \"#utility.yul\":31886:31891   */\n      dup3\n        /* \"#utility.yul\":31883:31960   */\n      sub\n        /* \"#utility.yul\":31880:31983   */\n      tag_577\n      jumpi\n        /* \"#utility.yul\":31963:31981   */\n      tag_578\n      tag_277\n      jump\t// in\n    tag_578:\n        /* \"#utility.yul\":31880:31983   */\n    tag_577:\n        /* \"#utility.yul\":32010:32011   */\n      0x01\n        /* \"#utility.yul\":32003:32008   */\n      dup3\n        /* \"#utility.yul\":31999:32012   */\n      add\n        /* \"#utility.yul\":31992:32012   */\n      swap1\n      pop\n        /* \"#utility.yul\":31785:32018   */\n      swap2\n      swap1\n      pop\n      jump\t// out\n        /* \"#utility.yul\":32024:32193   */\n    tag_278:\n        /* \"#utility.yul\":32164:32185   */\n      0x43616e646964617465206e6f7420666f756e6400000000000000000000000000\n        /* \"#utility.yul\":32160:32161   */\n      0x00\n        /* \"#utility.yul\":32152:32158   */\n      dup3\n        /* \"#utility.yul\":32148:32162   */\n      add\n        /* \"#utility.yul\":32141:32186   */\n      mstore\n        /* \"#utility.yul\":32024:32193   */\n      pop\n      jump\t// out\n        /* \"#utility.yul\":32199:32565   */\n    tag_279:\n        /* \"#utility.yul\":32341:32344   */\n      0x00\n        /* \"#utility.yul\":32362:32429   */\n      tag_581\n        /* \"#utility.yul\":32426:32428   */\n      0x13\n        /* \"#utility.yul\":32421:32424   */\n      dup4\n        /* \"#utility.yul\":32362:32429   */\n      tag_222\n      jump\t// in\n    tag_581:\n        /* \"#utility.yul\":32355:32429   */\n      swap2\n      pop\n        /* \"#utility.yul\":32438:32531   */\n      tag_582\n        /* \"#utility.yul\":32527:32530   */\n      dup3\n        /* \"#utility.yul\":32438:32531   */\n      tag_278\n      jump\t// in\n    tag_582:\n        /* \"#utility.yul\":32556:32558   */\n      0x20\n        /* \"#utility.yul\":32551:32554   */\n      dup3\n        /* \"#utility.yul\":32547:32559   */\n      add\n        /* \"#utility.yul\":32540:32559   */\n      swap1\n      pop\n        /* \"#utility.yul\":32199:32565   */\n      swap2\n      swap1\n      pop\n      jump\t// out\n        /* \"#utility.yul\":32571:32990   */\n    tag_170:\n        /* \"#utility.yul\":32737:32741   */\n      0x00\n        /* \"#utility.yul\":32775:32777   */\n      0x20\n        /* \"#utility.yul\":32764:32773   */\n      dup3\n        /* \"#utility.yul\":32760:32778   */\n      add\n        /* \"#utility.yul\":32752:32778   */\n      swap1\n      pop\n        /* \"#utility.yul\":32824:32833   */\n      dup2\n        /* \"#utility.yul\":32818:32822   */\n      dup2\n        /* \"#utility.yul\":32814:32834   */\n      sub\n        /* \"#utility.yul\":32810:32811   */\n      0x00\n        /* \"#utility.yul\":32799:32808   */\n      dup4\n        /* \"#utility.yul\":32795:32812   */\n      add\n        /* \"#utility.yul\":32788:32835   */\n      mstore\n        /* \"#utility.yul\":32852:32983   */\n      tag_584\n        /* \"#utility.yul\":32978:32982   */\n      dup2\n        /* \"#utility.yul\":32852:32983   */\n      tag_279\n      jump\t// in\n    tag_584:\n        /* \"#utility.yul\":32844:32983   */\n      swap1\n      pop\n        /* \"#utility.yul\":32571:32990   */\n      swap2\n      swap1\n      pop\n      jump\t// out\n        /* \"#utility.yul\":32996:33081   */\n    tag_280:\n        /* \"#utility.yul\":33041:33048   */\n      0x00\n        /* \"#utility.yul\":33070:33075   */\n      dup2\n        /* \"#utility.yul\":33059:33075   */\n      swap1\n      pop\n        /* \"#utility.yul\":32996:33081   */\n      swap2\n      swap1\n      pop\n      jump\t// out\n        /* \"#utility.yul\":33087:33245   */\n    tag_281:\n        /* \"#utility.yul\":33145:33154   */\n      0x00\n        /* \"#utility.yul\":33178:33239   */\n      tag_587\n        /* \"#utility.yul\":33196:33238   */\n      tag_588\n        /* \"#utility.yul\":33205:33237   */\n      tag_589\n        /* \"#utility.yul\":33231:33236   */\n      dup5\n        /* \"#utility.yul\":33205:33237   */\n      tag_280\n      jump\t// in\n    tag_589:\n        /* \"#utility.yul\":33196:33238   */\n      tag_203\n      jump\t// in\n    tag_588:\n        /* \"#utility.yul\":33178:33239   */\n      tag_254\n      jump\t// in\n    tag_587:\n        /* \"#utility.yul\":33165:33239   */\n      swap1\n      pop\n        /* \"#utility.yul\":33087:33245   */\n      swap2\n      swap1\n      pop\n      jump\t// out\n        /* \"#utility.yul\":33251:33398   */\n    tag_282:\n        /* \"#utility.yul\":33346:33391   */\n      tag_591\n        /* \"#utility.yul\":33385:33390   */\n      dup2\n        /* \"#utility.yul\":33346:33391   */\n      tag_281\n      jump\t// in\n    tag_591:\n        /* \"#utility.yul\":33341:33344   */\n      dup3\n        /* \"#utility.yul\":33334:33392   */\n      mstore\n        /* \"#utility.yul\":33251:33398   */\n      pop\n      pop\n      jump\t// out\n        /* \"#utility.yul\":33404:33843   */\n    tag_176:\n        /* \"#utility.yul\":33553:33557   */\n      0x00\n        /* \"#utility.yul\":33591:33593   */\n      0x40\n        /* \"#utility.yul\":33580:33589   */\n      dup3\n        /* \"#utility.yul\":33576:33594   */\n      add\n        /* \"#utility.yul\":33568:33594   */\n      swap1\n      pop\n        /* \"#utility.yul\":33640:33649   */\n      dup2\n        /* \"#utility.yul\":33634:33638   */\n      dup2\n        /* \"#utility.yul\":33630:33650   */\n      sub\n        /* \"#utility.yul\":33626:33627   */\n      0x00\n        /* \"#utility.yul\":33615:33624   */\n      dup4\n        /* \"#utility.yul\":33611:33628   */\n      add\n        /* \"#utility.yul\":33604:33651   */\n      mstore\n        /* \"#utility.yul\":33668:33746   */\n      tag_593\n        /* \"#utility.yul\":33741:33745   */\n      dup2\n        /* \"#utility.yul\":33732:33738   */\n      dup6\n        /* \"#utility.yul\":33668:33746   */\n      tag_223\n      jump\t// in\n    tag_593:\n        /* \"#utility.yul\":33660:33746   */\n      swap1\n      pop\n        /* \"#utility.yul\":33756:33836   */\n      tag_594\n        /* \"#utility.yul\":33832:33834   */\n      0x20\n        /* \"#utility.yul\":33821:33830   */\n      dup4\n        /* \"#utility.yul\":33817:33835   */\n      add\n        /* \"#utility.yul\":33808:33814   */\n      dup5\n        /* \"#utility.yul\":33756:33836   */\n      tag_282\n      jump\t// in\n    tag_594:\n        /* \"#utility.yul\":33404:33843   */\n      swap4\n      swap3\n      pop\n      pop\n      pop\n      jump\t// out\n        /* \"#utility.yul\":33849:34272   */\n    tag_181:\n        /* \"#utility.yul\":33990:33994   */\n      0x00\n        /* \"#utility.yul\":34028:34030   */\n      0x40\n        /* \"#utility.yul\":34017:34026   */\n      dup3\n        /* \"#utility.yul\":34013:34031   */\n      add\n        /* \"#utility.yul\":34005:34031   */\n      swap1\n      pop\n        /* \"#utility.yul\":34041:34112   */\n      tag_596\n        /* \"#utility.yul\":34109:34110   */\n      0x00\n        /* \"#utility.yul\":34098:34107   */\n      dup4\n        /* \"#utility.yul\":34094:34111   */\n      add\n        /* \"#utility.yul\":34085:34091   */\n      dup6\n        /* \"#utility.yul\":34041:34112   */\n      tag_225\n      jump\t// in\n    tag_596:\n        /* \"#utility.yul\":34159:34168   */\n      dup2\n        /* \"#utility.yul\":34153:34157   */\n      dup2\n        /* \"#utility.yul\":34149:34169   */\n      sub\n        /* \"#utility.yul\":34144:34146   */\n      0x20\n        /* \"#utility.yul\":34133:34142   */\n      dup4\n        /* \"#utility.yul\":34129:34147   */\n      add\n        /* \"#utility.yul\":34122:34170   */\n      mstore\n        /* \"#utility.yul\":34187:34265   */\n      tag_597\n        /* \"#utility.yul\":34260:34264   */\n      dup2\n        /* \"#utility.yul\":34251:34257   */\n      dup5\n        /* \"#utility.yul\":34187:34265   */\n      tag_223\n      jump\t// in\n    tag_597:\n        /* \"#utility.yul\":34179:34265   */\n      swap1\n      pop\n        /* \"#utility.yul\":33849:34272   */\n      swap4\n      swap3\n      pop\n      pop\n      pop\n      jump\t// out\n\n    auxdata: 0xa2646970667358221220c76caa7384e90ee6064d5175f7170b0f73606f8a0eebdaa962eb126147240acb64736f6c63430008120033\n}\n",
				"bytecode": {
					"linkReferences": {},
					"object": "60806040523480156200001157600080fd5b50604051620024e9380380620024e983398181016040528101906200003791906200016b565b336000806101000a81548173ffffffffffffffffffffffffffffffffffffffff021916908373ffffffffffffffffffffffffffffffffffffffff16021790555081600160006101000a81548173ffffffffffffffffffffffffffffffffffffffff021916908373ffffffffffffffffffffffffffffffffffffffff16021790555080600260006101000a81548173ffffffffffffffffffffffffffffffffffffffff021916908373ffffffffffffffffffffffffffffffffffffffff1602179055505050620001b2565b600080fd5b600073ffffffffffffffffffffffffffffffffffffffff82169050919050565b6000620001338262000106565b9050919050565b620001458162000126565b81146200015157600080fd5b50565b60008151905062000165816200013a565b92915050565b6000806040838503121562000185576200018462000101565b5b6000620001958582860162000154565b9250506020620001a88582860162000154565b9150509250929050565b61232780620001c26000396000f3fe608060405234801561001057600080fd5b50600436106100cf5760003560e01c8063829600e01161008c578063b952e7d811610066578063b952e7d8146101e0578063bbe0b50a146101ea578063d5346da114610206578063fc36e15b14610224576100cf565b8063829600e0146101745780638da5cb5b146101a657806398ab4863146101c4576100cf565b806312f4acec146100d45780632e6997fe146100f2578063410673e5146101105780635f5895991461012e57806362d73eb81461014c5780637b10399914610156575b600080fd5b6100dc610240565b6040516100e991906111f0565b60405180910390f35b6100fa6103ae565b604051610107919061135d565b60405180910390f35b61011861044b565b60405161012591906113fe565b60405180910390f35b610136610471565b60405161014391906111f0565b60405180910390f35b610154610484565b005b61015e6105ab565b60405161016b919061143a565b60405180910390f35b61018e6004803603810190610189919061159e565b6105d1565b60405161019d93929190611652565b60405180910390f35b6101ae6106c6565b6040516101bb9190611690565b60405180910390f35b6101de60048036038101906101d9919061159e565b6106ea565b005b6101e86108cc565b005b61020460048036038101906101ff919061159e565b610a52565b005b61020e610c81565b60405161021b91906111f0565b60405180910390f35b61023e6004803603810190610239919061159e565b610c94565b005b6000806000600260009054906101000a900473ffffffffffffffffffffffffffffffffffffffff1673ffffffffffffffffffffffffffffffffffffffff166040516024016040516020818303038152906040527f5f589599000000000000000000000000000000000000000000000000000000007bffffffffffffffffffffffffffffffffffffffffffffffffffffffff19166020820180517bffffffffffffffffffffffffffffffffffffffffffffffffffffffff838183161783525050505060405161030e91906116f2565b600060405180830381855afa9150503d8060008114610349576040519150601f19603f3d011682016040523d82523d6000602084013e61034e565b606091505b509150915081610393576040517f08c379a000000000000000000000000000000000000000000000000000000000815260040161038a90611755565b60405180910390fd5b808060200190518101906103a791906117a1565b9250505090565b6060600160009054906101000a900473ffffffffffffffffffffffffffffffffffffffff1673ffffffffffffffffffffffffffffffffffffffff16632e6997fe6040518163ffffffff1660e01b8152600401600060405180830381865afa15801561041d573d6000803e3d6000fd5b505050506040513d6000823e3d601f19601f820116820180604052508101906104469190611924565b905090565b600260009054906101000a900473ffffffffffffffffffffffffffffffffffffffff1681565b600060159054906101000a900460ff1681565b60008054906101000a900473ffffffffffffffffffffffffffffffffffffffff1673ffffffffffffffffffffffffffffffffffffffff163373ffffffffffffffffffffffffffffffffffffffff1614610512576040517f08c379a0000000000000000000000000000000000000000000000000000000008152600401610509906119df565b60405180910390fd5b600060149054906101000a900460ff1615610562576040517f08c379a000000000000000000000000000000000000000000000000000000000815260040161055990611a4b565b60405180910390fd5b6001600060146101000a81548160ff0219169083151502179055507fc475c26aa25ed8e85a7faa790e5f63b5d7ee1025f12821f4c9bfddd36ab4d11260405160405180910390a1565b600160009054906101000a900473ffffffffffffffffffffffffffffffffffffffff1681565b60038180516020810182018051848252602083016020850120818352809550505050505060009150905080600001805461060a90611a9a565b80601f016020809104026020016040519081016040528092919081815260200182805461063690611a9a565b80156106835780601f1061065857610100808354040283529160200191610683565b820191906000526020600020905b81548152906001019060200180831161066657829003601f168201915b5050505050908060010160009054906101000a900473ffffffffffffffffffffffffffffffffffffffff16908060010160149054906101000a900460ff16905083565b60008054906101000a900473ffffffffffffffffffffffffffffffffffffffff1681565b600060149054906101000a900460ff161561073a576040517f08c379a000000000000000000000000000000000000000000000000000000000815260040161073190611b3d565b60405180910390fd5b60038160405161074a9190611b99565b908152602001604051809103902060010160149054906101000a900460ff16156107a9576040517f08c379a00000000000000000000000000000000000000000000000000000000081526004016107a090611bfc565b60405180910390fd5b60405180606001604052808281526020013373ffffffffffffffffffffffffffffffffffffffff168152602001600115158152506003826040516107ed9190611b99565b908152602001604051809103902060008201518160000190816108109190611dc8565b5060208201518160010160006101000a81548173ffffffffffffffffffffffffffffffffffffffff021916908373ffffffffffffffffffffffffffffffffffffffff16021790555060408201518160010160146101000a81548160ff0219169083151502179055509050503373ffffffffffffffffffffffffffffffffffffffff167f88531e7cf278c93b30c64fd107c5d98e3983ef631ca964570d8b3f7ad6e965ca826040516108c19190611e9a565b60405180910390a250565b60008054906101000a900473ffffffffffffffffffffffffffffffffffffffff1673ffffffffffffffffffffffffffffffffffffffff163373ffffffffffffffffffffffffffffffffffffffff161461095a576040517f08c379a0000000000000000000000000000000000000000000000000000000008152600401610951906119df565b60405180910390fd5b610962610240565b156109a2576040517f08c379a000000000000000000000000000000000000000000000000000000000815260040161099990611f08565b60405180910390fd5b600260009054906101000a900473ffffffffffffffffffffffffffffffffffffffff1673ffffffffffffffffffffffffffffffffffffffff1663b952e7d86040518163ffffffff1660e01b8152600401600060405180830381600087803b158015610a0c57600080fd5b505af1158015610a20573d6000803e3d6000fd5b505050507f10689ac5c5ddc265da7f6b71f74017330ba8f045032a672f7350ee2aaf793a2c60405160405180910390a1565b60008054906101000a900473ffffffffffffffffffffffffffffffffffffffff1673ffffffffffffffffffffffffffffffffffffffff163373ffffffffffffffffffffffffffffffffffffffff1614610ae0576040517f08c379a0000000000000000000000000000000000000000000000000000000008152600401610ad7906119df565b60405180910390fd5b600381604051610af09190611b99565b908152602001604051809103902060010160149054906101000a900460ff16610b4e576040517f08c379a0000000000000000000000000000000000000000000000000000000008152600401610b4590611f74565b60405180910390fd5b600160009054906101000a900473ffffffffffffffffffffffffffffffffffffffff1673ffffffffffffffffffffffffffffffffffffffff16639eb88db6826040518263ffffffff1660e01b8152600401610ba99190611e9a565b600060405180830381600087803b158015610bc357600080fd5b505af1158015610bd7573d6000803e3d6000fd5b50505050600381604051610beb9190611b99565b908152602001604051809103902060008082016000610c0a9190611178565b6001820160006101000a81549073ffffffffffffffffffffffffffffffffffffffff02191690556001820160146101000a81549060ff021916905550507fa9d886ade6b6e09ec58cec4fd8e59462b4d7ea154eef81499395109789bd522a81604051610c769190611e9a565b60405180910390a150565b600060149054906101000a900460ff1681565b600060149054906101000a900460ff16610ce3576040517f08c379a0000000000000000000000000000000000000000000000000000000008152600401610cda90611fe0565b60405180910390fd5b600060159054906101000a900460ff1615610d33576040517f08c379a0000000000000000000000000000000000000000000000000000000008152600401610d2a9061204c565b60405180910390fd5b600160009054906101000a900473ffffffffffffffffffffffffffffffffffffffff1673ffffffffffffffffffffffffffffffffffffffff1663c3c5a547336040518263ffffffff1660e01b8152600401610d8e9190611690565b602060405180830381865afa158015610dab573d6000803e3d6000fd5b505050506040513d601f19601f82011682018060405250810190610dcf91906117a1565b610e0e576040517f08c379a0000000000000000000000000000000000000000000000000000000008152600401610e05906120b8565b60405180910390fd5b600160009054906101000a900473ffffffffffffffffffffffffffffffffffffffff1673ffffffffffffffffffffffffffffffffffffffff166309eef43e336040518263ffffffff1660e01b8152600401610e699190611690565b602060405180830381865afa158015610e86573d6000803e3d6000fd5b505050506040513d601f19601f82011682018060405250810190610eaa91906117a1565b15610eea576040517f08c379a0000000000000000000000000000000000000000000000000000000008152600401610ee190612124565b60405180910390fd5b6000600160009054906101000a900473ffffffffffffffffffffffffffffffffffffffff1673ffffffffffffffffffffffffffffffffffffffff16632e6997fe6040518163ffffffff1660e01b8152600401600060405180830381865afa158015610f59573d6000803e3d6000fd5b505050506040513d6000823e3d601f19601f82011682018060405250810190610f829190611924565b90506000805b8251811015610fdc578380519060200120838281518110610fac57610fab612144565b5b60200260200101518051906020012003610fc95760019150610fdc565b8080610fd4906121a2565b915050610f88565b508061101d576040517f08c379a000000000000000000000000000000000000000000000000000000000815260040161101490612236565b60405180910390fd5b600160009054906101000a900473ffffffffffffffffffffffffffffffffffffffff1673ffffffffffffffffffffffffffffffffffffffff1663995278a3336040518263ffffffff1660e01b81526004016110789190611690565b600060405180830381600087803b15801561109257600080fd5b505af11580156110a6573d6000803e3d6000fd5b50505050600260009054906101000a900473ffffffffffffffffffffffffffffffffffffffff1673ffffffffffffffffffffffffffffffffffffffff1663bea9a9a48460016040518363ffffffff1660e01b8152600401611108929190612291565b600060405180830381600087803b15801561112257600080fd5b505af1158015611136573d6000803e3d6000fd5b505050507fb7821d50dfbda5ea310faebbeac5217bc1bb0cabe463e76b80e48d11e57df098338460405161116b9291906122c1565b60405180910390a1505050565b50805461118490611a9a565b6000825580601f1061119657506111b5565b601f0160209004906000526020600020908101906111b491906111b8565b5b50565b5b808211156111d15760008160009055506001016111b9565b5090565b60008115159050919050565b6111ea816111d5565b82525050565b600060208201905061120560008301846111e1565b92915050565b600081519050919050565b600082825260208201905092915050565b6000819050602082019050919050565b600081519050919050565b600082825260208201905092915050565b60005b83811015611271578082015181840152602081019050611256565b60008484015250505050565b6000601f19601f8301169050919050565b600061129982611237565b6112a38185611242565b93506112b3818560208601611253565b6112bc8161127d565b840191505092915050565b60006112d3838361128e565b905092915050565b6000602082019050919050565b60006112f38261120b565b6112fd8185611216565b93508360208202850161130f85611227565b8060005b8581101561134b578484038952815161132c85826112c7565b9450611337836112db565b925060208a01995050600181019050611313565b50829750879550505050505092915050565b6000602082019050818103600083015261137781846112e8565b905092915050565b600073ffffffffffffffffffffffffffffffffffffffff82169050919050565b6000819050919050565b60006113c46113bf6113ba8461137f565b61139f565b61137f565b9050919050565b60006113d6826113a9565b9050919050565b60006113e8826113cb565b9050919050565b6113f8816113dd565b82525050565b600060208201905061141360008301846113ef565b92915050565b6000611424826113cb565b9050919050565b61143481611419565b82525050565b600060208201905061144f600083018461142b565b92915050565b6000604051905090565b600080fd5b600080fd5b600080fd5b600080fd5b7f4e487b7100000000000000000000000000000000000000000000000000000000600052604160045260246000fd5b6114ab8261127d565b810181811067ffffffffffffffff821117156114ca576114c9611473565b5b80604052505050565b60006114dd611455565b90506114e982826114a2565b919050565b600067ffffffffffffffff82111561150957611508611473565b5b6115128261127d565b9050602081019050919050565b82818337600083830152505050565b600061154161153c846114ee565b6114d3565b90508281526020810184848401111561155d5761155c61146e565b5b61156884828561151f565b509392505050565b600082601f83011261158557611584611469565b5b813561159584826020860161152e565b91505092915050565b6000602082840312156115b4576115b361145f565b5b600082013567ffffffffffffffff8111156115d2576115d1611464565b5b6115de84828501611570565b91505092915050565b600082825260208201905092915050565b600061160382611237565b61160d81856115e7565b935061161d818560208601611253565b6116268161127d565b840191505092915050565b600061163c8261137f565b9050919050565b61164c81611631565b82525050565b6000606082019050818103600083015261166c81866115f8565b905061167b6020830185611643565b61168860408301846111e1565b949350505050565b60006020820190506116a56000830184611643565b92915050565b600081519050919050565b600081905092915050565b60006116cc826116ab565b6116d681856116b6565b93506116e6818560208601611253565b80840191505092915050565b60006116fe82846116c1565b915081905092915050565b7f4661696c656420746f20666574636820726573756c7473000000000000000000600082015250565b600061173f6017836115e7565b915061174a82611709565b602082019050919050565b6000602082019050818103600083015261176e81611732565b9050919050565b61177e816111d5565b811461178957600080fd5b50565b60008151905061179b81611775565b92915050565b6000602082840312156117b7576117b661145f565b5b60006117c58482850161178c565b91505092915050565b600067ffffffffffffffff8211156117e9576117e8611473565b5b602082029050602081019050919050565b600080fd5b600061181261180d846114ee565b6114d3565b90508281526020810184848401111561182e5761182d61146e565b5b611839848285611253565b509392505050565b600082601f83011261185657611855611469565b5b81516118668482602086016117ff565b91505092915050565b600061188261187d846117ce565b6114d3565b905080838252602082019050602084028301858111156118a5576118a46117fa565b5b835b818110156118ec57805167ffffffffffffffff8111156118ca576118c9611469565b5b8086016118d78982611841565b855260208501945050506020810190506118a7565b5050509392505050565b600082601f83011261190b5761190a611469565b5b815161191b84826020860161186f565b91505092915050565b60006020828403121561193a5761193961145f565b5b600082015167ffffffffffffffff81111561195857611957611464565b5b611964848285016118f6565b91505092915050565b7f4f6e6c79207468652061646d696e2063616e20706572666f726d20746869732060008201527f616374696f6e0000000000000000000000000000000000000000000000000000602082015250565b60006119c96026836115e7565b91506119d48261196d565b604082019050919050565b600060208201905081810360008301526119f8816119bc565b9050919050565b7f416c726561647920737461727465640000000000000000000000000000000000600082015250565b6000611a35600f836115e7565b9150611a40826119ff565b602082019050919050565b60006020820190508181036000830152611a6481611a28565b9050919050565b7f4e487b7100000000000000000000000000000000000000000000000000000000600052602260045260246000fd5b60006002820490506001821680611ab257607f821691505b602082108103611ac557611ac4611a6b565b5b50919050565b7f43616e6e6f742070726f706f736520616674657220656c656374696f6e20737460008201527f6172747300000000000000000000000000000000000000000000000000000000602082015250565b6000611b276024836115e7565b9150611b3282611acb565b604082019050919050565b60006020820190508181036000830152611b5681611b1a565b9050919050565b600081905092915050565b6000611b7382611237565b611b7d8185611b5d565b9350611b8d818560208601611253565b80840191505092915050565b6000611ba58284611b68565b915081905092915050565b7f416c72656164792070726f706f73656400000000000000000000000000000000600082015250565b6000611be66010836115e7565b9150611bf182611bb0565b602082019050919050565b60006020820190508181036000830152611c1581611bd9565b9050919050565b60008190508160005260206000209050919050565b60006020601f8301049050919050565b600082821b905092915050565b600060088302611c7e7fffffffffffffffffffffffffffffffffffffffffffffffffffffffffffffffff82611c41565b611c888683611c41565b95508019841693508086168417925050509392505050565b6000819050919050565b6000611cc5611cc0611cbb84611ca0565b61139f565b611ca0565b9050919050565b6000819050919050565b611cdf83611caa565b611cf3611ceb82611ccc565b848454611c4e565b825550505050565b600090565b611d08611cfb565b611d13818484611cd6565b505050565b5b81811015611d3757611d2c600082611d00565b600181019050611d19565b5050565b601f821115611d7c57611d4d81611c1c565b611d5684611c31565b81016020851015611d65578190505b611d79611d7185611c31565b830182611d18565b50505b505050565b600082821c905092915050565b6000611d9f60001984600802611d81565b1980831691505092915050565b6000611db88383611d8e565b9150826002028217905092915050565b611dd182611237565b67ffffffffffffffff811115611dea57611de9611473565b5b611df48254611a9a565b611dff828285611d3b565b600060209050601f831160018114611e325760008415611e20578287015190505b611e2a8582611dac565b865550611e92565b601f198416611e4086611c1c565b60005b82811015611e6857848901518255600182019150602085019450602081019050611e43565b86831015611e855784890151611e81601f891682611d8e565b8355505b6001600288020188555050505b505050505050565b60006020820190508181036000830152611eb481846115f8565b905092915050565b7f416c7265616479207075626c6973686564000000000000000000000000000000600082015250565b6000611ef26011836115e7565b9150611efd82611ebc565b602082019050919050565b60006020820190508181036000830152611f2181611ee5565b9050919050565b7f43616e646964617465206e6f742070726f706f73656400000000000000000000600082015250565b6000611f5e6016836115e7565b9150611f6982611f28565b602082019050919050565b60006020820190508181036000830152611f8d81611f51565b9050919050565b7f456c656374696f6e206e6f742073746172746564000000000000000000000000600082015250565b6000611fca6014836115e7565b9150611fd582611f94565b602082019050919050565b60006020820190508181036000830152611ff981611fbd565b9050919050565b7f566f74696e6720656e6465640000000000000000000000000000000000000000600082015250565b6000612036600c836115e7565b915061204182612000565b602082019050919050565b6000602082019050818103600083015261206581612029565b9050919050565b7f4e6f742072656769737465726564000000000000000000000000000000000000600082015250565b60006120a2600e836115e7565b91506120ad8261206c565b602082019050919050565b600060208201905081810360008301526120d181612095565b9050919050565b7f416c726561647920766f74656400000000000000000000000000000000000000600082015250565b600061210e600d836115e7565b9150612119826120d8565b602082019050919050565b6000602082019050818103600083015261213d81612101565b9050919050565b7f4e487b7100000000000000000000000000000000000000000000000000000000600052603260045260246000fd5b7f4e487b7100000000000000000000000000000000000000000000000000000000600052601160045260246000fd5b60006121ad82611ca0565b91507fffffffffffffffffffffffffffffffffffffffffffffffffffffffffffffffff82036121df576121de612173565b5b600182019050919050565b7f43616e646964617465206e6f7420666f756e6400000000000000000000000000600082015250565b60006122206013836115e7565b915061222b826121ea565b602082019050919050565b6000602082019050818103600083015261224f81612213565b9050919050565b6000819050919050565b600061227b61227661227184612256565b61139f565b611ca0565b9050919050565b61228b81612260565b82525050565b600060408201905081810360008301526122ab81856115f8565b90506122ba6020830184612282565b9392505050565b60006040820190506122d66000830185611643565b81810360208301526122e881846115f8565b9050939250505056fea2646970667358221220c76caa7384e90ee6064d5175f7170b0f73606f8a0eebdaa962eb126147240acb64736f6c63430008120033",
					"opcodes": "PUSH1 0x80 PUSH1 0x40 MSTORE CALLVALUE DUP1 ISZERO PUSH3 0x11 JUMPI PUSH1 0x0 DUP1 REVERT JUMPDEST POP PUSH1 0x40 MLOAD PUSH3 0x24E9 CODESIZE SUB DUP1 PUSH3 0x24E9 DUP4 CODECOPY DUP2 DUP2 ADD PUSH1 0x40 MSTORE DUP2 ADD SWAP1 PUSH3 0x37 SWAP2 SWAP1 PUSH3 0x16B JUMP JUMPDEST CALLER PUSH1 0x0 DUP1 PUSH2 0x100 EXP DUP2 SLOAD DUP2 PUSH20 0xFFFFFFFFFFFFFFFFFFFFFFFFFFFFFFFFFFFFFFFF MUL NOT AND SWAP1 DUP4 PUSH20 0xFFFFFFFFFFFFFFFFFFFFFFFFFFFFFFFFFFFFFFFF AND MUL OR SWAP1 SSTORE POP DUP2 PUSH1 0x1 PUSH1 0x0 PUSH2 0x100 EXP DUP2 SLOAD DUP2 PUSH20 0xFFFFFFFFFFFFFFFFFFFFFFFFFFFFFFFFFFFFFFFF MUL NOT AND SWAP1 DUP4 PUSH20 0xFFFFFFFFFFFFFFFFFFFFFFFFFFFFFFFFFFFFFFFF AND MUL OR SWAP1 SSTORE POP DUP1 PUSH1 0x2 PUSH1 0x0 PUSH2 0x100 EXP DUP2 SLOAD DUP2 PUSH20 0xFFFFFFFFFFFFFFFFFFFFFFFFFFFFFFFFFFFFFFFF MUL NOT AND SWAP1 DUP4 PUSH20 0xFFFFFFFFFFFFFFFFFFFFFFFFFFFFFFFFFFFFFFFF AND MUL OR SWAP1 SSTORE POP POP POP PUSH3 0x1B2 JUMP JUMPDEST PUSH1 0x0 DUP1 REVERT JUMPDEST PUSH1 0x0 PUSH20 0xFFFFFFFFFFFFFFFFFFFFFFFFFFFFFFFFFFFFFFFF DUP3 AND SWAP1 POP SWAP2 SWAP1 POP JUMP JUMPDEST PUSH1 0x0 PUSH3 0x133 DUP3 PUSH3 0x106 JUMP JUMPDEST SWAP1 POP SWAP2 SWAP1 POP JUMP JUMPDEST PUSH3 0x145 DUP2 PUSH3 0x126 JUMP JUMPDEST DUP2 EQ PUSH3 0x151 JUMPI PUSH1 0x0 DUP1 REVERT JUMPDEST POP JUMP JUMPDEST PUSH1 0x0 DUP2 MLOAD SWAP1 POP PUSH3 0x165 DUP2 PUSH3 0x13A JUMP JUMPDEST SWAP3 SWAP2 POP POP JUMP JUMPDEST PUSH1 0x0 DUP1 PUSH1 0x40 DUP4 DUP6 SUB SLT ISZERO PUSH3 0x185 JUMPI PUSH3 0x184 PUSH3 0x101 JUMP JUMPDEST JUMPDEST PUSH1 0x0 PUSH3 0x195 DUP6 DUP3 DUP7 ADD PUSH3 0x154 JUMP JUMPDEST SWAP3 POP POP PUSH1 0x20 PUSH3 0x1A8 DUP6 DUP3 DUP7 ADD PUSH3 0x154 JUMP JUMPDEST SWAP2 POP POP SWAP3 POP SWAP3 SWAP1 POP JUMP JUMPDEST PUSH2 0x2327 DUP1 PUSH3 0x1C2 PUSH1 0x0 CODECOPY PUSH1 0x0 RETURN INVALID PUSH1 0x80 PUSH1 0x40 MSTORE CALLVALUE DUP1 ISZERO PUSH2 0x10 JUMPI PUSH1 0x0 DUP1 REVERT JUMPDEST POP PUSH1 0x4 CALLDATASIZE LT PUSH2 0xCF JUMPI PUSH1 0x0 CALLDATALOAD PUSH1 0xE0 SHR DUP1 PUSH4 0x829600E0 GT PUSH2 0x8C JUMPI DUP1 PUSH4 0xB952E7D8 GT PUSH2 0x66 JUMPI DUP1 PUSH4 0xB952E7D8 EQ PUSH2 0x1E0 JUMPI DUP1 PUSH4 0xBBE0B50A EQ PUSH2 0x1EA JUMPI DUP1 PUSH4 0xD5346DA1 EQ PUSH2 0x206 JUMPI DUP1 PUSH4 0xFC36E15B EQ PUSH2 0x224 JUMPI PUSH2 0xCF JUMP JUMPDEST DUP1 PUSH4 0x829600E0 EQ PUSH2 0x174 JUMPI DUP1 PUSH4 0x8DA5CB5B EQ PUSH2 0x1A6 JUMPI DUP1 PUSH4 0x98AB4863 EQ PUSH2 0x1C4 JUMPI PUSH2 0xCF JUMP JUMPDEST DUP1 PUSH4 0x12F4ACEC EQ PUSH2 0xD4 JUMPI DUP1 PUSH4 0x2E6997FE EQ PUSH2 0xF2 JUMPI DUP1 PUSH4 0x410673E5 EQ PUSH2 0x110 JUMPI DUP1 PUSH4 0x5F589599 EQ PUSH2 0x12E JUMPI DUP1 PUSH4 0x62D73EB8 EQ PUSH2 0x14C JUMPI DUP1 PUSH4 0x7B103999 EQ PUSH2 0x156 JUMPI JUMPDEST PUSH1 0x0 DUP1 REVERT JUMPDEST PUSH2 0xDC PUSH2 0x240 JUMP JUMPDEST PUSH1 0x40 MLOAD PUSH2 0xE9 SWAP2 SWAP1 PUSH2 0x11F0 JUMP JUMPDEST PUSH1 0x40 MLOAD DUP1 SWAP2 SUB SWAP1 RETURN JUMPDEST PUSH2 0xFA PUSH2 0x3AE JUMP JUMPDEST PUSH1 0x40 MLOAD PUSH2 0x107 SWAP2 SWAP1 PUSH2 0x135D JUMP JUMPDEST PUSH1 0x40 MLOAD DUP1 SWAP2 SUB SWAP1 RETURN JUMPDEST PUSH2 0x118 PUSH2 0x44B JUMP JUMPDEST PUSH1 0x40 MLOAD PUSH2 0x125 SWAP2 SWAP1 PUSH2 0x13FE JUMP JUMPDEST PUSH1 0x40 MLOAD DUP1 SWAP2 SUB SWAP1 RETURN JUMPDEST PUSH2 0x136 PUSH2 0x471 JUMP JUMPDEST PUSH1 0x40 MLOAD PUSH2 0x143 SWAP2 SWAP1 PUSH2 0x11F0 JUMP JUMPDEST PUSH1 0x40 MLOAD DUP1 SWAP2 SUB SWAP1 RETURN JUMPDEST PUSH2 0x154 PUSH2 0x484 JUMP JUMPDEST STOP JUMPDEST PUSH2 0x15E PUSH2 0x5AB JUMP JUMPDEST PUSH1 0x40 MLOAD PUSH2 0x16B SWAP2 SWAP1 PUSH2 0x143A JUMP JUMPDEST PUSH1 0x40 MLOAD DUP1 SWAP2 SUB SWAP1 RETURN JUMPDEST PUSH2 0x18E PUSH1 0x4 DUP1 CALLDATASIZE SUB DUP2 ADD SWAP1 PUSH2 0x189 SWAP2 SWAP1 PUSH2 0x159E JUMP JUMPDEST PUSH2 0x5D1 JUMP JUMPDEST PUSH1 0x40 MLOAD PUSH2 0x19D SWAP4 SWAP3 SWAP2 SWAP1 PUSH2 0x1652 JUMP JUMPDEST PUSH1 0x40 MLOAD DUP1 SWAP2 SUB SWAP1 RETURN JUMPDEST PUSH2 0x1AE PUSH2 0x6C6 JUMP JUMPDEST PUSH1 0x40 MLOAD PUSH2 0x1BB SWAP2 SWAP1 PUSH2 0x1690 JUMP JUMPDEST PUSH1 0x40 MLOAD DUP1 SWAP2 SUB SWAP1 RETURN JUMPDEST PUSH2 0x1DE PUSH1 0x4 DUP1 CALLDATASIZE SUB DUP2 ADD SWAP1 PUSH2 0x1D9 SWAP2 SWAP1 PUSH2 0x159E JUMP JUMPDEST PUSH2 0x6EA JUMP JUMPDEST STOP JUMPDEST PUSH2 0x1E8 PUSH2 0x8CC JUMP JUMPDEST STOP JUMPDEST PUSH2 0x204 PUSH1 0x4 DUP1 CALLDATASIZE SUB DUP2 ADD SWAP1 PUSH2 0x1FF SWAP2 SWAP1 PUSH2 0x159E JUMP JUMPDEST PUSH2 0xA52 JUMP JUMPDEST STOP JUMPDEST PUSH2 0x20E PUSH2 0xC81 JUMP JUMPDEST PUSH1 0x40 MLOAD PUSH2 0x21B SWAP2 SWAP1 PUSH2 0x11F0 JUMP JUMPDEST PUSH1 0x40 MLOAD DUP1 SWAP2 SUB SWAP1 RETURN JUMPDEST PUSH2 0x23E PUSH1 0x4 DUP1 CALLDATASIZE SUB DUP2 ADD SWAP1 PUSH2 0x239 SWAP2 SWAP1 PUSH2 0x159E JUMP JUMPDEST PUSH2 0xC94 JUMP JUMPDEST STOP JUMPDEST PUSH1 0x0 DUP1 PUSH1 0x0 PUSH1 0x2 PUSH1 0x0 SWAP1 SLOAD SWAP1 PUSH2 0x100 EXP SWAP1 DIV PUSH20 0xFFFFFFFFFFFFFFFFFFFFFFFFFFFFFFFFFFFFFFFF AND PUSH20 0xFFFFFFFFFFFFFFFFFFFFFFFFFFFFFFFFFFFFFFFF AND PUSH1 0x40 MLOAD PUSH1 0x24 ADD PUSH1 0x40 MLOAD PUSH1 0x20 DUP2 DUP4 SUB SUB DUP2 MSTORE SWAP1 PUSH1 0x40 MSTORE PUSH32 0x5F58959900000000000000000000000000000000000000000000000000000000 PUSH28 0xFFFFFFFFFFFFFFFFFFFFFFFFFFFFFFFFFFFFFFFFFFFFFFFFFFFFFFFF NOT AND PUSH1 0x20 DUP3 ADD DUP1 MLOAD PUSH28 0xFFFFFFFFFFFFFFFFFFFFFFFFFFFFFFFFFFFFFFFFFFFFFFFFFFFFFFFF DUP4 DUP2 DUP4 AND OR DUP4 MSTORE POP POP POP POP PUSH1 0x40 MLOAD PUSH2 0x30E SWAP2 SWAP1 PUSH2 0x16F2 JUMP JUMPDEST PUSH1 0x0 PUSH1 0x40 MLOAD DUP1 DUP4 SUB DUP2 DUP6 GAS STATICCALL SWAP2 POP POP RETURNDATASIZE DUP1 PUSH1 0x0 DUP2 EQ PUSH2 0x349 JUMPI PUSH1 0x40 MLOAD SWAP2 POP PUSH1 0x1F NOT PUSH1 0x3F RETURNDATASIZE ADD AND DUP3 ADD PUSH1 0x40 MSTORE RETURNDATASIZE DUP3 MSTORE RETURNDATASIZE PUSH1 0x0 PUSH1 0x20 DUP5 ADD RETURNDATACOPY PUSH2 0x34E JUMP JUMPDEST PUSH1 0x60 SWAP2 POP JUMPDEST POP SWAP2 POP SWAP2 POP DUP2 PUSH2 0x393 JUMPI PUSH1 0x40 MLOAD PUSH32 0x8C379A000000000000000000000000000000000000000000000000000000000 DUP2 MSTORE PUSH1 0x4 ADD PUSH2 0x38A SWAP1 PUSH2 0x1755 JUMP JUMPDEST PUSH1 0x40 MLOAD DUP1 SWAP2 SUB SWAP1 REVERT JUMPDEST DUP1 DUP1 PUSH1 0x20 ADD SWAP1 MLOAD DUP2 ADD SWAP1 PUSH2 0x3A7 SWAP2 SWAP1 PUSH2 0x17A1 JUMP JUMPDEST SWAP3 POP POP POP SWAP1 JUMP JUMPDEST PUSH1 0x60 PUSH1 0x1 PUSH1 0x0 SWAP1 SLOAD SWAP1 PUSH2 0x100 EXP SWAP1 DIV PUSH20 0xFFFFFFFFFFFFFFFFFFFFFFFFFFFFFFFFFFFFFFFF AND PUSH20 0xFFFFFFFFFFFFFFFFFFFFFFFFFFFFFFFFFFFFFFFF AND PUSH4 0x2E6997FE PUSH1 0x40 MLOAD DUP2 PUSH4 0xFFFFFFFF AND PUSH1 0xE0 SHL DUP2 MSTORE PUSH1 0x4 ADD PUSH1 0x0 PUSH1 0x40 MLOAD DUP1 DUP4 SUB DUP2 DUP7 GAS STATICCALL ISZERO DUP1 ISZERO PUSH2 0x41D JUMPI RETURNDATASIZE PUSH1 0x0 DUP1 RETURNDATACOPY RETURNDATASIZE PUSH1 0x0 REVERT JUMPDEST POP POP POP POP PUSH1 0x40 MLOAD RETURNDATASIZE PUSH1 0x0 DUP3 RETURNDATACOPY RETURNDATASIZE PUSH1 0x1F NOT PUSH1 0x1F DUP3 ADD AND DUP3 ADD DUP1 PUSH1 0x40 MSTORE POP DUP2 ADD SWAP1 PUSH2 0x446 SWAP2 SWAP1 PUSH2 0x1924 JUMP JUMPDEST SWAP1 POP SWAP1 JUMP JUMPDEST PUSH1 0x2 PUSH1 0x0 SWAP1 SLOAD SWAP1 PUSH2 0x100 EXP SWAP1 DIV PUSH20 0xFFFFFFFFFFFFFFFFFFFFFFFFFFFFFFFFFFFFFFFF AND DUP2 JUMP JUMPDEST PUSH1 0x0 PUSH1 0x15 SWAP1 SLOAD SWAP1 PUSH2 0x100 EXP SWAP1 DIV PUSH1 0xFF AND DUP2 JUMP JUMPDEST PUSH1 0x0 DUP1 SLOAD SWAP1 PUSH2 0x100 EXP SWAP1 DIV PUSH20 0xFFFFFFFFFFFFFFFFFFFFFFFFFFFFFFFFFFFFFFFF AND PUSH20 0xFFFFFFFFFFFFFFFFFFFFFFFFFFFFFFFFFFFFFFFF AND CALLER PUSH20 0xFFFFFFFFFFFFFFFFFFFFFFFFFFFFFFFFFFFFFFFF AND EQ PUSH2 0x512 JUMPI PUSH1 0x40 MLOAD PUSH32 0x8C379A000000000000000000000000000000000000000000000000000000000 DUP2 MSTORE PUSH1 0x4 ADD PUSH2 0x509 SWAP1 PUSH2 0x19DF JUMP JUMPDEST PUSH1 0x40 MLOAD DUP1 SWAP2 SUB SWAP1 REVERT JUMPDEST PUSH1 0x0 PUSH1 0x14 SWAP1 SLOAD SWAP1 PUSH2 0x100 EXP SWAP1 DIV PUSH1 0xFF AND ISZERO PUSH2 0x562 JUMPI PUSH1 0x40 MLOAD PUSH32 0x8C379A000000000000000000000000000000000000000000000000000000000 DUP2 MSTORE PUSH1 0x4 ADD PUSH2 0x559 SWAP1 PUSH2 0x1A4B JUMP JUMPDEST PUSH1 0x40 MLOAD DUP1 SWAP2 SUB SWAP1 REVERT JUMPDEST PUSH1 0x1 PUSH1 0x0 PUSH1 0x14 PUSH2 0x100 EXP DUP2 SLOAD DUP2 PUSH1 0xFF MUL NOT AND SWAP1 DUP4 ISZERO ISZERO MUL OR SWAP1 SSTORE POP PUSH32 0xC475C26AA25ED8E85A7FAA790E5F63B5D7EE1025F12821F4C9BFDDD36AB4D112 PUSH1 0x40 MLOAD PUSH1 0x40 MLOAD DUP1 SWAP2 SUB SWAP1 LOG1 JUMP JUMPDEST PUSH1 0x1 PUSH1 0x0 SWAP1 SLOAD SWAP1 PUSH2 0x100 EXP SWAP1 DIV PUSH20 0xFFFFFFFFFFFFFFFFFFFFFFFFFFFFFFFFFFFFFFFF AND DUP2 JUMP JUMPDEST PUSH1 0x3 DUP2 DUP1 MLOAD PUSH1 0x20 DUP2 ADD DUP3 ADD DUP1 MLOAD DUP5 DUP3 MSTORE PUSH1 0x20 DUP4 ADD PUSH1 0x20 DUP6 ADD KECCAK256 DUP2 DUP4 MSTORE DUP1 SWAP6 POP POP POP POP POP POP PUSH1 0x0 SWAP2 POP SWAP1 POP DUP1 PUSH1 0x0 ADD DUP1 SLOAD PUSH2 0x60A SWAP1 PUSH2 0x1A9A JUMP JUMPDEST DUP1 PUSH1 0x1F ADD PUSH1 0x20 DUP1 SWAP2 DIV MUL PUSH1 0x20 ADD PUSH1 0x40 MLOAD SWAP1 DUP2 ADD PUSH1 0x40 MSTORE DUP1 SWAP3 SWAP2 SWAP1 DUP2 DUP2 MSTORE PUSH1 0x20 ADD DUP3 DUP1 SLOAD PUSH2 0x636 SWAP1 PUSH2 0x1A9A JUMP JUMPDEST DUP1 ISZERO PUSH2 0x683 JUMPI DUP1 PUSH1 0x1F LT PUSH2 0x658 JUMPI PUSH2 0x100 DUP1 DUP4 SLOAD DIV MUL DUP4 MSTORE SWAP2 PUSH1 0x20 ADD SWAP2 PUSH2 0x683 JUMP JUMPDEST DUP3 ADD SWAP2 SWAP1 PUSH1 0x0 MSTORE PUSH1 0x20 PUSH1 0x0 KECCAK256 SWAP1 JUMPDEST DUP2 SLOAD DUP2 MSTORE SWAP1 PUSH1 0x1 ADD SWAP1 PUSH1 0x20 ADD DUP1 DUP4 GT PUSH2 0x666 JUMPI DUP3 SWAP1 SUB PUSH1 0x1F AND DUP3 ADD SWAP2 JUMPDEST POP POP POP POP POP SWAP1 DUP1 PUSH1 0x1 ADD PUSH1 0x0 SWAP1 SLOAD SWAP1 PUSH2 0x100 EXP SWAP1 DIV PUSH20 0xFFFFFFFFFFFFFFFFFFFFFFFFFFFFFFFFFFFFFFFF AND SWAP1 DUP1 PUSH1 0x1 ADD PUSH1 0x14 SWAP1 SLOAD SWAP1 PUSH2 0x100 EXP SWAP1 DIV PUSH1 0xFF AND SWAP1 POP DUP4 JUMP JUMPDEST PUSH1 0x0 DUP1 SLOAD SWAP1 PUSH2 0x100 EXP SWAP1 DIV PUSH20 0xFFFFFFFFFFFFFFFFFFFFFFFFFFFFFFFFFFFFFFFF AND DUP2 JUMP JUMPDEST PUSH1 0x0 PUSH1 0x14 SWAP1 SLOAD SWAP1 PUSH2 0x100 EXP SWAP1 DIV PUSH1 0xFF AND ISZERO PUSH2 0x73A JUMPI PUSH1 0x40 MLOAD PUSH32 0x8C379A000000000000000000000000000000000000000000000000000000000 DUP2 MSTORE PUSH1 0x4 ADD PUSH2 0x731 SWAP1 PUSH2 0x1B3D JUMP JUMPDEST PUSH1 0x40 MLOAD DUP1 SWAP2 SUB SWAP1 REVERT JUMPDEST PUSH1 0x3 DUP2 PUSH1 0x40 MLOAD PUSH2 0x74A SWAP2 SWAP1 PUSH2 0x1B99 JUMP JUMPDEST SWAP1 DUP2 MSTORE PUSH1 0x20 ADD PUSH1 0x40 MLOAD DUP1 SWAP2 SUB SWAP1 KECCAK256 PUSH1 0x1 ADD PUSH1 0x14 SWAP1 SLOAD SWAP1 PUSH2 0x100 EXP SWAP1 DIV PUSH1 0xFF AND ISZERO PUSH2 0x7A9 JUMPI PUSH1 0x40 MLOAD PUSH32 0x8C379A000000000000000000000000000000000000000000000000000000000 DUP2 MSTORE PUSH1 0x4 ADD PUSH2 0x7A0 SWAP1 PUSH2 0x1BFC JUMP JUMPDEST PUSH1 0x40 MLOAD DUP1 SWAP2 SUB SWAP1 REVERT JUMPDEST PUSH1 0x40 MLOAD DUP1 PUSH1 0x60 ADD PUSH1 0x40 MSTORE DUP1 DUP3 DUP2 MSTORE PUSH1 0x20 ADD CALLER PUSH20 0xFFFFFFFFFFFFFFFFFFFFFFFFFFFFFFFFFFFFFFFF AND DUP2 MSTORE PUSH1 0x20 ADD PUSH1 0x1 ISZERO ISZERO DUP2 MSTORE POP PUSH1 0x3 DUP3 PUSH1 0x40 MLOAD PUSH2 0x7ED SWAP2 SWAP1 PUSH2 0x1B99 JUMP JUMPDEST SWAP1 DUP2 MSTORE PUSH1 0x20 ADD PUSH1 0x40 MLOAD DUP1 SWAP2 SUB SWAP1 KECCAK256 PUSH1 0x0 DUP3 ADD MLOAD DUP2 PUSH1 0x0 ADD SWAP1 DUP2 PUSH2 0x810 SWAP2 SWAP1 PUSH2 0x1DC8 JUMP JUMPDEST POP PUSH1 0x20 DUP3 ADD MLOAD DUP2 PUSH1 0x1 ADD PUSH1 0x0 PUSH2 0x100 EXP DUP2 SLOAD DUP2 PUSH20 0xFFFFFFFFFFFFFFFFFFFFFFFFFFFFFFFFFFFFFFFF MUL NOT AND SWAP1 DUP4 PUSH20 0xFFFFFFFFFFFFFFFFFFFFFFFFFFFFFFFFFFFFFFFF AND MUL OR SWAP1 SSTORE POP PUSH1 0x40 DUP3 ADD MLOAD DUP2 PUSH1 0x1 ADD PUSH1 0x14 PUSH2 0x100 EXP DUP2 SLOAD DUP2 PUSH1 0xFF MUL NOT AND SWAP1 DUP4 ISZERO ISZERO MUL OR SWAP1 SSTORE POP SWAP1 POP POP CALLER PUSH20 0xFFFFFFFFFFFFFFFFFFFFFFFFFFFFFFFFFFFFFFFF AND PUSH32 0x88531E7CF278C93B30C64FD107C5D98E3983EF631CA964570D8B3F7AD6E965CA DUP3 PUSH1 0x40 MLOAD PUSH2 0x8C1 SWAP2 SWAP1 PUSH2 0x1E9A JUMP JUMPDEST PUSH1 0x40 MLOAD DUP1 SWAP2 SUB SWAP1 LOG2 POP JUMP JUMPDEST PUSH1 0x0 DUP1 SLOAD SWAP1 PUSH2 0x100 EXP SWAP1 DIV PUSH20 0xFFFFFFFFFFFFFFFFFFFFFFFFFFFFFFFFFFFFFFFF AND PUSH20 0xFFFFFFFFFFFFFFFFFFFFFFFFFFFFFFFFFFFFFFFF AND CALLER PUSH20 0xFFFFFFFFFFFFFFFFFFFFFFFFFFFFFFFFFFFFFFFF AND EQ PUSH2 0x95A JUMPI PUSH1 0x40 MLOAD PUSH32 0x8C379A000000000000000000000000000000000000000000000000000000000 DUP2 MSTORE PUSH1 0x4 ADD PUSH2 0x951 SWAP1 PUSH2 0x19DF JUMP JUMPDEST PUSH1 0x40 MLOAD DUP1 SWAP2 SUB SWAP1 REVERT JUMPDEST PUSH2 0x962 PUSH2 0x240 JUMP JUMPDEST ISZERO PUSH2 0x9A2 JUMPI PUSH1 0x40 MLOAD PUSH32 0x8C379A000000000000000000000000000000000000000000000000000000000 DUP2 MSTORE PUSH1 0x4 ADD PUSH2 0x999 SWAP1 PUSH2 0x1F08 JUMP JUMPDEST PUSH1 0x40 MLOAD DUP1 SWAP2 SUB SWAP1 REVERT JUMPDEST PUSH1 0x2 PUSH1 0x0 SWAP1 SLOAD SWAP1 PUSH2 0x100 EXP SWAP1 DIV PUSH20 0xFFFFFFFFFFFFFFFFFFFFFFFFFFFFFFFFFFFFFFFF AND PUSH20 0xFFFFFFFFFFFFFFFFFFFFFFFFFFFFFFFFFFFFFFFF AND PUSH4 0xB952E7D8 PUSH1 0x40 MLOAD DUP2 PUSH4 0xFFFFFFFF AND PUSH1 0xE0 SHL DUP2 MSTORE PUSH1 0x4 ADD PUSH1 0x0 PUSH1 0x40 MLOAD DUP1 DUP4 SUB DUP2 PUSH1 0x0 DUP8 DUP1 EXTCODESIZE ISZERO DUP1 ISZERO PUSH2 0xA0C JUMPI PUSH1 0x0 DUP1 REVERT JUMPDEST POP GAS CALL ISZERO DUP1 ISZERO PUSH2 0xA20 JUMPI RETURNDATASIZE PUSH1 0x0 DUP1 RETURNDATACOPY RETURNDATASIZE PUSH1 0x0 REVERT JUMPDEST POP POP POP POP PUSH32 0x10689AC5C5DDC265DA7F6B71F74017330BA8F045032A672F7350EE2AAF793A2C PUSH1 0x40 MLOAD PUSH1 0x40 MLOAD DUP1 SWAP2 SUB SWAP1 LOG1 JUMP JUMPDEST PUSH1 0x0 DUP1 SLOAD SWAP1 PUSH2 0x100 EXP SWAP1 DIV PUSH20 0xFFFFFFFFFFFFFFFFFFFFFFFFFFFFFFFFFFFFFFFF AND PUSH20 0xFFFFFFFFFFFFFFFFFFFFFFFFFFFFFFFFFFFFFFFF AND CALLER PUSH20 0xFFFFFFFFFFFFFFFFFFFFFFFFFFFFFFFFFFFFFFFF AND EQ PUSH2 0xAE0 JUMPI PUSH1 0x40 MLOAD PUSH32 0x8C379A000000000000000000000000000000000000000000000000000000000 DUP2 MSTORE PUSH1 0x4 ADD PUSH2 0xAD7 SWAP1 PUSH2 0x19DF JUMP JUMPDEST PUSH1 0x40 MLOAD DUP1 SWAP2 SUB SWAP1 REVERT JUMPDEST PUSH1 0x3 DUP2 PUSH1 0x40 MLOAD PUSH2 0xAF0 SWAP2 SWAP1 PUSH2 0x1B99 JUMP JUMPDEST SWAP1 DUP2 MSTORE PUSH1 0x20 ADD PUSH1 0x40 MLOAD DUP1 SWAP2 SUB SWAP1 KECCAK256 PUSH1 0x1 ADD PUSH1 0x14 SWAP1 SLOAD SWAP1 PUSH2 0x100 EXP SWAP1 DIV PUSH1 0xFF AND PUSH2 0xB4E JUMPI PUSH1 0x40 MLOAD PUSH32 0x8C379A000000000000000000000000000000000000000000000000000000000 DUP2 MSTORE PUSH1 0x4 ADD PUSH2 0xB45 SWAP1 PUSH2 0x1F74 JUMP JUMPDEST PUSH1 0x40 MLOAD DUP1 SWAP2 SUB SWAP1 REVERT JUMPDEST PUSH1 0x1 PUSH1 0x0 SWAP1 SLOAD SWAP1 PUSH2 0x100 EXP SWAP1 DIV PUSH20 0xFFFFFFFFFFFFFFFFFFFFFFFFFFFFFFFFFFFFFFFF AND PUSH20 0xFFFFFFFFFFFFFFFFFFFFFFFFFFFFFFFFFFFFFFFF AND PUSH4 0x9EB88DB6 DUP3 PUSH1 0x40 MLOAD DUP3 PUSH4 0xFFFFFFFF AND PUSH1 0xE0 SHL DUP2 MSTORE PUSH1 0x4 ADD PUSH2 0xBA9 SWAP2 SWAP1 PUSH2 0x1E9A JUMP JUMPDEST PUSH1 0x0 PUSH1 0x40 MLOAD DUP1 DUP4 SUB DUP2 PUSH1 0x0 DUP8 DUP1 EXTCODESIZE ISZERO DUP1 ISZERO PUSH2 0xBC3 JUMPI PUSH1 0x0 DUP1 REVERT JUMPDEST POP GAS CALL ISZERO DUP1 ISZERO PUSH2 0xBD7 JUMPI RETURNDATASIZE PUSH1 0x0 DUP1 RETURNDATACOPY RETURNDATASIZE PUSH1 0x0 REVERT JUMPDEST POP POP POP POP PUSH1 0x3 DUP2 PUSH1 0x40 MLOAD PUSH2 0xBEB SWAP2 SWAP1 PUSH2 0x1B99 JUMP JUMPDEST SWAP1 DUP2 MSTORE PUSH1 0x20 ADD PUSH1 0x40 MLOAD DUP1 SWAP2 SUB SWAP1 KECCAK256 PUSH1 0x0 DUP1 DUP3 ADD PUSH1 0x0 PUSH2 0xC0A SWAP2 SWAP1 PUSH2 0x1178 JUMP JUMPDEST PUSH1 0x1 DUP3 ADD PUSH1 0x0 PUSH2 0x100 EXP DUP2 SLOAD SWAP1 PUSH20 0xFFFFFFFFFFFFFFFFFFFFFFFFFFFFFFFFFFFFFFFF MUL NOT AND SWAP1 SSTORE PUSH1 0x1 DUP3 ADD PUSH1 0x14 PUSH2 0x100 EXP DUP2 SLOAD SWAP1 PUSH1 0xFF MUL NOT AND SWAP1 SSTORE POP POP PUSH32 0xA9D886ADE6B6E09EC58CEC4FD8E59462B4D7EA154EEF81499395109789BD522A DUP2 PUSH1 0x40 MLOAD PUSH2 0xC76 SWAP2 SWAP1 PUSH2 0x1E9A JUMP JUMPDEST PUSH1 0x40 MLOAD DUP1 SWAP2 SUB SWAP1 LOG1 POP JUMP JUMPDEST PUSH1 0x0 PUSH1 0x14 SWAP1 SLOAD SWAP1 PUSH2 0x100 EXP SWAP1 DIV PUSH1 0xFF AND DUP2 JUMP JUMPDEST PUSH1 0x0 PUSH1 0x14 SWAP1 SLOAD SWAP1 PUSH2 0x100 EXP SWAP1 DIV PUSH1 0xFF AND PUSH2 0xCE3 JUMPI PUSH1 0x40 MLOAD PUSH32 0x8C379A000000000000000000000000000000000000000000000000000000000 DUP2 MSTORE PUSH1 0x4 ADD PUSH2 0xCDA SWAP1 PUSH2 0x1FE0 JUMP JUMPDEST PUSH1 0x40 MLOAD DUP1 SWAP2 SUB SWAP1 REVERT JUMPDEST PUSH1 0x0 PUSH1 0x15 SWAP1 SLOAD SWAP1 PUSH2 0x100 EXP SWAP1 DIV PUSH1 0xFF AND ISZERO PUSH2 0xD33 JUMPI PUSH1 0x40 MLOAD PUSH32 0x8C379A000000000000000000000000000000000000000000000000000000000 DUP2 MSTORE PUSH1 0x4 ADD PUSH2 0xD2A SWAP1 PUSH2 0x204C JUMP JUMPDEST PUSH1 0x40 MLOAD DUP1 SWAP2 SUB SWAP1 REVERT JUMPDEST PUSH1 0x1 PUSH1 0x0 SWAP1 SLOAD SWAP1 PUSH2 0x100 EXP SWAP1 DIV PUSH20 0xFFFFFFFFFFFFFFFFFFFFFFFFFFFFFFFFFFFFFFFF AND PUSH20 0xFFFFFFFFFFFFFFFFFFFFFFFFFFFFFFFFFFFFFFFF AND PUSH4 0xC3C5A547 CALLER PUSH1 0x40 MLOAD DUP3 PUSH4 0xFFFFFFFF AND PUSH1 0xE0 SHL DUP2 MSTORE PUSH1 0x4 ADD PUSH2 0xD8E SWAP2 SWAP1 PUSH2 0x1690 JUMP JUMPDEST PUSH1 0x20 PUSH1 0x40 MLOAD DUP1 DUP4 SUB DUP2 DUP7 GAS STATICCALL ISZERO DUP1 ISZERO PUSH2 0xDAB JUMPI RETURNDATASIZE PUSH1 0x0 DUP1 RETURNDATACOPY RETURNDATASIZE PUSH1 0x0 REVERT JUMPDEST POP POP POP POP PUSH1 0x40 MLOAD RETURNDATASIZE PUSH1 0x1F NOT PUSH1 0x1F DUP3 ADD AND DUP3 ADD DUP1 PUSH1 0x40 MSTORE POP DUP2 ADD SWAP1 PUSH2 0xDCF SWAP2 SWAP1 PUSH2 0x17A1 JUMP JUMPDEST PUSH2 0xE0E JUMPI PUSH1 0x40 MLOAD PUSH32 0x8C379A000000000000000000000000000000000000000000000000000000000 DUP2 MSTORE PUSH1 0x4 ADD PUSH2 0xE05 SWAP1 PUSH2 0x20B8 JUMP JUMPDEST PUSH1 0x40 MLOAD DUP1 SWAP2 SUB SWAP1 REVERT JUMPDEST PUSH1 0x1 PUSH1 0x0 SWAP1 SLOAD SWAP1 PUSH2 0x100 EXP SWAP1 DIV PUSH20 0xFFFFFFFFFFFFFFFFFFFFFFFFFFFFFFFFFFFFFFFF AND PUSH20 0xFFFFFFFFFFFFFFFFFFFFFFFFFFFFFFFFFFFFFFFF AND PUSH4 0x9EEF43E CALLER PUSH1 0x40 MLOAD DUP3 PUSH4 0xFFFFFFFF AND PUSH1 0xE0 SHL DUP2 MSTORE PUSH1 0x4 ADD PUSH2 0xE69 SWAP2 SWAP1 PUSH2 0x1690 JUMP JUMPDEST PUSH1 0x20 PUSH1 0x40 MLOAD DUP1 DUP4 SUB DUP2 DUP7 GAS STATICCALL ISZERO DUP1 ISZERO PUSH2 0xE86 JUMPI RETURNDATASIZE PUSH1 0x0 DUP1 RETURNDATACOPY RETURNDATASIZE PUSH1 0x0 REVERT JUMPDEST POP POP POP POP PUSH1 0x40 MLOAD RETURNDATASIZE PUSH1 0x1F NOT PUSH1 0x1F DUP3 ADD AND DUP3 ADD DUP1 PUSH1 0x40 MSTORE POP DUP2 ADD SWAP1 PUSH2 0xEAA SWAP2 SWAP1 PUSH2 0x17A1 JUMP JUMPDEST ISZERO PUSH2 0xEEA JUMPI PUSH1 0x40 MLOAD PUSH32 0x8C379A000000000000000000000000000000000000000000000000000000000 DUP2 MSTORE PUSH1 0x4 ADD PUSH2 0xEE1 SWAP1 PUSH2 0x2124 JUMP JUMPDEST PUSH1 0x40 MLOAD DUP1 SWAP2 SUB SWAP1 REVERT JUMPDEST PUSH1 0x0 PUSH1 0x1 PUSH1 0x0 SWAP1 SLOAD SWAP1 PUSH2 0x100 EXP SWAP1 DIV PUSH20 0xFFFFFFFFFFFFFFFFFFFFFFFFFFFFFFFFFFFFFFFF AND PUSH20 0xFFFFFFFFFFFFFFFFFFFFFFFFFFFFFFFFFFFFFFFF AND PUSH4 0x2E6997FE PUSH1 0x40 MLOAD DUP2 PUSH4 0xFFFFFFFF AND PUSH1 0xE0 SHL DUP2 MSTORE PUSH1 0x4 ADD PUSH1 0x0 PUSH1 0x40 MLOAD DUP1 DUP4 SUB DUP2 DUP7 GAS STATICCALL ISZERO DUP1 ISZERO PUSH2 0xF59 JUMPI RETURNDATASIZE PUSH1 0x0 DUP1 RETURNDATACOPY RETURNDATASIZE PUSH1 0x0 REVERT JUMPDEST POP POP POP POP PUSH1 0x40 MLOAD RETURNDATASIZE PUSH1 0x0 DUP3 RETURNDATACOPY RETURNDATASIZE PUSH1 0x1F NOT PUSH1 0x1F DUP3 ADD AND DUP3 ADD DUP1 PUSH1 0x40 MSTORE POP DUP2 ADD SWAP1 PUSH2 0xF82 SWAP2 SWAP1 PUSH2 0x1924 JUMP JUMPDEST SWAP1 POP PUSH1 0x0 DUP1 JUMPDEST DUP3 MLOAD DUP2 LT ISZERO PUSH2 0xFDC JUMPI DUP4 DUP1 MLOAD SWAP1 PUSH1 0x20 ADD KECCAK256 DUP4 DUP3 DUP2 MLOAD DUP2 LT PUSH2 0xFAC JUMPI PUSH2 0xFAB PUSH2 0x2144 JUMP JUMPDEST JUMPDEST PUSH1 0x20 MUL PUSH1 0x20 ADD ADD MLOAD DUP1 MLOAD SWAP1 PUSH1 0x20 ADD KECCAK256 SUB PUSH2 0xFC9 JUMPI PUSH1 0x1 SWAP2 POP PUSH2 0xFDC JUMP JUMPDEST DUP1 DUP1 PUSH2 0xFD4 SWAP1 PUSH2 0x21A2 JUMP JUMPDEST SWAP2 POP POP PUSH2 0xF88 JUMP JUMPDEST POP DUP1 PUSH2 0x101D JUMPI PUSH1 0x40 MLOAD PUSH32 0x8C379A000000000000000000000000000000000000000000000000000000000 DUP2 MSTORE PUSH1 0x4 ADD PUSH2 0x1014 SWAP1 PUSH2 0x2236 JUMP JUMPDEST PUSH1 0x40 MLOAD DUP1 SWAP2 SUB SWAP1 REVERT JUMPDEST PUSH1 0x1 PUSH1 0x0 SWAP1 SLOAD SWAP1 PUSH2 0x100 EXP SWAP1 DIV PUSH20 0xFFFFFFFFFFFFFFFFFFFFFFFFFFFFFFFFFFFFFFFF AND PUSH20 0xFFFFFFFFFFFFFFFFFFFFFFFFFFFFFFFFFFFFFFFF AND PUSH4 0x995278A3 CALLER PUSH1 0x40 MLOAD DUP3 PUSH4 0xFFFFFFFF AND PUSH1 0xE0 SHL DUP2 MSTORE PUSH1 0x4 ADD PUSH2 0x1078 SWAP2 SWAP1 PUSH2 0x1690 JUMP JUMPDEST PUSH1 0x0 PUSH1 0x40 MLOAD DUP1 DUP4 SUB DUP2 PUSH1 0x0 DUP8 DUP1 EXTCODESIZE ISZERO DUP1 ISZERO PUSH2 0x1092 JUMPI PUSH1 0x0 DUP1 REVERT JUMPDEST POP GAS CALL ISZERO DUP1 ISZERO PUSH2 0x10A6 JUMPI RETURNDATASIZE PUSH1 0x0 DUP1 RETURNDATACOPY RETURNDATASIZE PUSH1 0x0 REVERT JUMPDEST POP POP POP POP PUSH1 0x2 PUSH1 0x0 SWAP1 SLOAD SWAP1 PUSH2 0x100 EXP SWAP1 DIV PUSH20 0xFFFFFFFFFFFFFFFFFFFFFFFFFFFFFFFFFFFFFFFF AND PUSH20 0xFFFFFFFFFFFFFFFFFFFFFFFFFFFFFFFFFFFFFFFF AND PUSH4 0xBEA9A9A4 DUP5 PUSH1 0x1 PUSH1 0x40 MLOAD DUP4 PUSH4 0xFFFFFFFF AND PUSH1 0xE0 SHL DUP2 MSTORE PUSH1 0x4 ADD PUSH2 0x1108 SWAP3 SWAP2 SWAP1 PUSH2 0x2291 JUMP JUMPDEST PUSH1 0x0 PUSH1 0x40 MLOAD DUP1 DUP4 SUB DUP2 PUSH1 0x0 DUP8 DUP1 EXTCODESIZE ISZERO DUP1 ISZERO PUSH2 0x1122 JUMPI PUSH1 0x0 DUP1 REVERT JUMPDEST POP GAS CALL ISZERO DUP1 ISZERO PUSH2 0x1136 JUMPI RETURNDATASIZE PUSH1 0x0 DUP1 RETURNDATACOPY RETURNDATASIZE PUSH1 0x0 REVERT JUMPDEST POP POP POP POP PUSH32 0xB7821D50DFBDA5EA310FAEBBEAC5217BC1BB0CABE463E76B80E48D11E57DF098 CALLER DUP5 PUSH1 0x40 MLOAD PUSH2 0x116B SWAP3 SWAP2 SWAP1 PUSH2 0x22C1 JUMP JUMPDEST PUSH1 0x40 MLOAD DUP1 SWAP2 SUB SWAP1 LOG1 POP POP POP JUMP JUMPDEST POP DUP1 SLOAD PUSH2 0x1184 SWAP1 PUSH2 0x1A9A JUMP JUMPDEST PUSH1 0x0 DUP3 SSTORE DUP1 PUSH1 0x1F LT PUSH2 0x1196 JUMPI POP PUSH2 0x11B5 JUMP JUMPDEST PUSH1 0x1F ADD PUSH1 0x20 SWAP1 DIV SWAP1 PUSH1 0x0 MSTORE PUSH1 0x20 PUSH1 0x0 KECCAK256 SWAP1 DUP2 ADD SWAP1 PUSH2 0x11B4 SWAP2 SWAP1 PUSH2 0x11B8 JUMP JUMPDEST JUMPDEST POP JUMP JUMPDEST JUMPDEST DUP1 DUP3 GT ISZERO PUSH2 0x11D1 JUMPI PUSH1 0x0 DUP2 PUSH1 0x0 SWAP1 SSTORE POP PUSH1 0x1 ADD PUSH2 0x11B9 JUMP JUMPDEST POP SWAP1 JUMP JUMPDEST PUSH1 0x0 DUP2 ISZERO ISZERO SWAP1 POP SWAP2 SWAP1 POP JUMP JUMPDEST PUSH2 0x11EA DUP2 PUSH2 0x11D5 JUMP JUMPDEST DUP3 MSTORE POP POP JUMP JUMPDEST PUSH1 0x0 PUSH1 0x20 DUP3 ADD SWAP1 POP PUSH2 0x1205 PUSH1 0x0 DUP4 ADD DUP5 PUSH2 0x11E1 JUMP JUMPDEST SWAP3 SWAP2 POP POP JUMP JUMPDEST PUSH1 0x0 DUP2 MLOAD SWAP1 POP SWAP2 SWAP1 POP JUMP JUMPDEST PUSH1 0x0 DUP3 DUP3 MSTORE PUSH1 0x20 DUP3 ADD SWAP1 POP SWAP3 SWAP2 POP POP JUMP JUMPDEST PUSH1 0x0 DUP2 SWAP1 POP PUSH1 0x20 DUP3 ADD SWAP1 POP SWAP2 SWAP1 POP JUMP JUMPDEST PUSH1 0x0 DUP2 MLOAD SWAP1 POP SWAP2 SWAP1 POP JUMP JUMPDEST PUSH1 0x0 DUP3 DUP3 MSTORE PUSH1 0x20 DUP3 ADD SWAP1 POP SWAP3 SWAP2 POP POP JUMP JUMPDEST PUSH1 0x0 JUMPDEST DUP4 DUP2 LT ISZERO PUSH2 0x1271 JUMPI DUP1 DUP3 ADD MLOAD DUP2 DUP5 ADD MSTORE PUSH1 0x20 DUP2 ADD SWAP1 POP PUSH2 0x1256 JUMP JUMPDEST PUSH1 0x0 DUP5 DUP5 ADD MSTORE POP POP POP POP JUMP JUMPDEST PUSH1 0x0 PUSH1 0x1F NOT PUSH1 0x1F DUP4 ADD AND SWAP1 POP SWAP2 SWAP1 POP JUMP JUMPDEST PUSH1 0x0 PUSH2 0x1299 DUP3 PUSH2 0x1237 JUMP JUMPDEST PUSH2 0x12A3 DUP2 DUP6 PUSH2 0x1242 JUMP JUMPDEST SWAP4 POP PUSH2 0x12B3 DUP2 DUP6 PUSH1 0x20 DUP7 ADD PUSH2 0x1253 JUMP JUMPDEST PUSH2 0x12BC DUP2 PUSH2 0x127D JUMP JUMPDEST DUP5 ADD SWAP2 POP POP SWAP3 SWAP2 POP POP JUMP JUMPDEST PUSH1 0x0 PUSH2 0x12D3 DUP4 DUP4 PUSH2 0x128E JUMP JUMPDEST SWAP1 POP SWAP3 SWAP2 POP POP JUMP JUMPDEST PUSH1 0x0 PUSH1 0x20 DUP3 ADD SWAP1 POP SWAP2 SWAP1 POP JUMP JUMPDEST PUSH1 0x0 PUSH2 0x12F3 DUP3 PUSH2 0x120B JUMP JUMPDEST PUSH2 0x12FD DUP2 DUP6 PUSH2 0x1216 JUMP JUMPDEST SWAP4 POP DUP4 PUSH1 0x20 DUP3 MUL DUP6 ADD PUSH2 0x130F DUP6 PUSH2 0x1227 JUMP JUMPDEST DUP1 PUSH1 0x0 JUMPDEST DUP6 DUP2 LT ISZERO PUSH2 0x134B JUMPI DUP5 DUP5 SUB DUP10 MSTORE DUP2 MLOAD PUSH2 0x132C DUP6 DUP3 PUSH2 0x12C7 JUMP JUMPDEST SWAP5 POP PUSH2 0x1337 DUP4 PUSH2 0x12DB JUMP JUMPDEST SWAP3 POP PUSH1 0x20 DUP11 ADD SWAP10 POP POP PUSH1 0x1 DUP2 ADD SWAP1 POP PUSH2 0x1313 JUMP JUMPDEST POP DUP3 SWAP8 POP DUP8 SWAP6 POP POP POP POP POP POP SWAP3 SWAP2 POP POP JUMP JUMPDEST PUSH1 0x0 PUSH1 0x20 DUP3 ADD SWAP1 POP DUP2 DUP2 SUB PUSH1 0x0 DUP4 ADD MSTORE PUSH2 0x1377 DUP2 DUP5 PUSH2 0x12E8 JUMP JUMPDEST SWAP1 POP SWAP3 SWAP2 POP POP JUMP JUMPDEST PUSH1 0x0 PUSH20 0xFFFFFFFFFFFFFFFFFFFFFFFFFFFFFFFFFFFFFFFF DUP3 AND SWAP1 POP SWAP2 SWAP1 POP JUMP JUMPDEST PUSH1 0x0 DUP2 SWAP1 POP SWAP2 SWAP1 POP JUMP JUMPDEST PUSH1 0x0 PUSH2 0x13C4 PUSH2 0x13BF PUSH2 0x13BA DUP5 PUSH2 0x137F JUMP JUMPDEST PUSH2 0x139F JUMP JUMPDEST PUSH2 0x137F JUMP JUMPDEST SWAP1 POP SWAP2 SWAP1 POP JUMP JUMPDEST PUSH1 0x0 PUSH2 0x13D6 DUP3 PUSH2 0x13A9 JUMP JUMPDEST SWAP1 POP SWAP2 SWAP1 POP JUMP JUMPDEST PUSH1 0x0 PUSH2 0x13E8 DUP3 PUSH2 0x13CB JUMP JUMPDEST SWAP1 POP SWAP2 SWAP1 POP JUMP JUMPDEST PUSH2 0x13F8 DUP2 PUSH2 0x13DD JUMP JUMPDEST DUP3 MSTORE POP POP JUMP JUMPDEST PUSH1 0x0 PUSH1 0x20 DUP3 ADD SWAP1 POP PUSH2 0x1413 PUSH1 0x0 DUP4 ADD DUP5 PUSH2 0x13EF JUMP JUMPDEST SWAP3 SWAP2 POP POP JUMP JUMPDEST PUSH1 0x0 PUSH2 0x1424 DUP3 PUSH2 0x13CB JUMP JUMPDEST SWAP1 POP SWAP2 SWAP1 POP JUMP JUMPDEST PUSH2 0x1434 DUP2 PUSH2 0x1419 JUMP JUMPDEST DUP3 MSTORE POP POP JUMP JUMPDEST PUSH1 0x0 PUSH1 0x20 DUP3 ADD SWAP1 POP PUSH2 0x144F PUSH1 0x0 DUP4 ADD DUP5 PUSH2 0x142B JUMP JUMPDEST SWAP3 SWAP2 POP POP JUMP JUMPDEST PUSH1 0x0 PUSH1 0x40 MLOAD SWAP1 POP SWAP1 JUMP JUMPDEST PUSH1 0x0 DUP1 REVERT JUMPDEST PUSH1 0x0 DUP1 REVERT JUMPDEST PUSH1 0x0 DUP1 REVERT JUMPDEST PUSH1 0x0 DUP1 REVERT JUMPDEST PUSH32 0x4E487B7100000000000000000000000000000000000000000000000000000000 PUSH1 0x0 MSTORE PUSH1 0x41 PUSH1 0x4 MSTORE PUSH1 0x24 PUSH1 0x0 REVERT JUMPDEST PUSH2 0x14AB DUP3 PUSH2 0x127D JUMP JUMPDEST DUP2 ADD DUP2 DUP2 LT PUSH8 0xFFFFFFFFFFFFFFFF DUP3 GT OR ISZERO PUSH2 0x14CA JUMPI PUSH2 0x14C9 PUSH2 0x1473 JUMP JUMPDEST JUMPDEST DUP1 PUSH1 0x40 MSTORE POP POP POP JUMP JUMPDEST PUSH1 0x0 PUSH2 0x14DD PUSH2 0x1455 JUMP JUMPDEST SWAP1 POP PUSH2 0x14E9 DUP3 DUP3 PUSH2 0x14A2 JUMP JUMPDEST SWAP2 SWAP1 POP JUMP JUMPDEST PUSH1 0x0 PUSH8 0xFFFFFFFFFFFFFFFF DUP3 GT ISZERO PUSH2 0x1509 JUMPI PUSH2 0x1508 PUSH2 0x1473 JUMP JUMPDEST JUMPDEST PUSH2 0x1512 DUP3 PUSH2 0x127D JUMP JUMPDEST SWAP1 POP PUSH1 0x20 DUP2 ADD SWAP1 POP SWAP2 SWAP1 POP JUMP JUMPDEST DUP3 DUP2 DUP4 CALLDATACOPY PUSH1 0x0 DUP4 DUP4 ADD MSTORE POP POP POP JUMP JUMPDEST PUSH1 0x0 PUSH2 0x1541 PUSH2 0x153C DUP5 PUSH2 0x14EE JUMP JUMPDEST PUSH2 0x14D3 JUMP JUMPDEST SWAP1 POP DUP3 DUP2 MSTORE PUSH1 0x20 DUP2 ADD DUP5 DUP5 DUP5 ADD GT ISZERO PUSH2 0x155D JUMPI PUSH2 0x155C PUSH2 0x146E JUMP JUMPDEST JUMPDEST PUSH2 0x1568 DUP5 DUP3 DUP6 PUSH2 0x151F JUMP JUMPDEST POP SWAP4 SWAP3 POP POP POP JUMP JUMPDEST PUSH1 0x0 DUP3 PUSH1 0x1F DUP4 ADD SLT PUSH2 0x1585 JUMPI PUSH2 0x1584 PUSH2 0x1469 JUMP JUMPDEST JUMPDEST DUP2 CALLDATALOAD PUSH2 0x1595 DUP5 DUP3 PUSH1 0x20 DUP7 ADD PUSH2 0x152E JUMP JUMPDEST SWAP2 POP POP SWAP3 SWAP2 POP POP JUMP JUMPDEST PUSH1 0x0 PUSH1 0x20 DUP3 DUP5 SUB SLT ISZERO PUSH2 0x15B4 JUMPI PUSH2 0x15B3 PUSH2 0x145F JUMP JUMPDEST JUMPDEST PUSH1 0x0 DUP3 ADD CALLDATALOAD PUSH8 0xFFFFFFFFFFFFFFFF DUP2 GT ISZERO PUSH2 0x15D2 JUMPI PUSH2 0x15D1 PUSH2 0x1464 JUMP JUMPDEST JUMPDEST PUSH2 0x15DE DUP5 DUP3 DUP6 ADD PUSH2 0x1570 JUMP JUMPDEST SWAP2 POP POP SWAP3 SWAP2 POP POP JUMP JUMPDEST PUSH1 0x0 DUP3 DUP3 MSTORE PUSH1 0x20 DUP3 ADD SWAP1 POP SWAP3 SWAP2 POP POP JUMP JUMPDEST PUSH1 0x0 PUSH2 0x1603 DUP3 PUSH2 0x1237 JUMP JUMPDEST PUSH2 0x160D DUP2 DUP6 PUSH2 0x15E7 JUMP JUMPDEST SWAP4 POP PUSH2 0x161D DUP2 DUP6 PUSH1 0x20 DUP7 ADD PUSH2 0x1253 JUMP JUMPDEST PUSH2 0x1626 DUP2 PUSH2 0x127D JUMP JUMPDEST DUP5 ADD SWAP2 POP POP SWAP3 SWAP2 POP POP JUMP JUMPDEST PUSH1 0x0 PUSH2 0x163C DUP3 PUSH2 0x137F JUMP JUMPDEST SWAP1 POP SWAP2 SWAP1 POP JUMP JUMPDEST PUSH2 0x164C DUP2 PUSH2 0x1631 JUMP JUMPDEST DUP3 MSTORE POP POP JUMP JUMPDEST PUSH1 0x0 PUSH1 0x60 DUP3 ADD SWAP1 POP DUP2 DUP2 SUB PUSH1 0x0 DUP4 ADD MSTORE PUSH2 0x166C DUP2 DUP7 PUSH2 0x15F8 JUMP JUMPDEST SWAP1 POP PUSH2 0x167B PUSH1 0x20 DUP4 ADD DUP6 PUSH2 0x1643 JUMP JUMPDEST PUSH2 0x1688 PUSH1 0x40 DUP4 ADD DUP5 PUSH2 0x11E1 JUMP JUMPDEST SWAP5 SWAP4 POP POP POP POP JUMP JUMPDEST PUSH1 0x0 PUSH1 0x20 DUP3 ADD SWAP1 POP PUSH2 0x16A5 PUSH1 0x0 DUP4 ADD DUP5 PUSH2 0x1643 JUMP JUMPDEST SWAP3 SWAP2 POP POP JUMP JUMPDEST PUSH1 0x0 DUP2 MLOAD SWAP1 POP SWAP2 SWAP1 POP JUMP JUMPDEST PUSH1 0x0 DUP2 SWAP1 POP SWAP3 SWAP2 POP POP JUMP JUMPDEST PUSH1 0x0 PUSH2 0x16CC DUP3 PUSH2 0x16AB JUMP JUMPDEST PUSH2 0x16D6 DUP2 DUP6 PUSH2 0x16B6 JUMP JUMPDEST SWAP4 POP PUSH2 0x16E6 DUP2 DUP6 PUSH1 0x20 DUP7 ADD PUSH2 0x1253 JUMP JUMPDEST DUP1 DUP5 ADD SWAP2 POP POP SWAP3 SWAP2 POP POP JUMP JUMPDEST PUSH1 0x0 PUSH2 0x16FE DUP3 DUP5 PUSH2 0x16C1 JUMP JUMPDEST SWAP2 POP DUP2 SWAP1 POP SWAP3 SWAP2 POP POP JUMP JUMPDEST PUSH32 0x4661696C656420746F20666574636820726573756C7473000000000000000000 PUSH1 0x0 DUP3 ADD MSTORE POP JUMP JUMPDEST PUSH1 0x0 PUSH2 0x173F PUSH1 0x17 DUP4 PUSH2 0x15E7 JUMP JUMPDEST SWAP2 POP PUSH2 0x174A DUP3 PUSH2 0x1709 JUMP JUMPDEST PUSH1 0x20 DUP3 ADD SWAP1 POP SWAP2 SWAP1 POP JUMP JUMPDEST PUSH1 0x0 PUSH1 0x20 DUP3 ADD SWAP1 POP DUP2 DUP2 SUB PUSH1 0x0 DUP4 ADD MSTORE PUSH2 0x176E DUP2 PUSH2 0x1732 JUMP JUMPDEST SWAP1 POP SWAP2 SWAP1 POP JUMP JUMPDEST PUSH2 0x177E DUP2 PUSH2 0x11D5 JUMP JUMPDEST DUP2 EQ PUSH2 0x1789 JUMPI PUSH1 0x0 DUP1 REVERT JUMPDEST POP JUMP JUMPDEST PUSH1 0x0 DUP2 MLOAD SWAP1 POP PUSH2 0x179B DUP2 PUSH2 0x1775 JUMP JUMPDEST SWAP3 SWAP2 POP POP JUMP JUMPDEST PUSH1 0x0 PUSH1 0x20 DUP3 DUP5 SUB SLT ISZERO PUSH2 0x17B7 JUMPI PUSH2 0x17B6 PUSH2 0x145F JUMP JUMPDEST JUMPDEST PUSH1 0x0 PUSH2 0x17C5 DUP5 DUP3 DUP6 ADD PUSH2 0x178C JUMP JUMPDEST SWAP2 POP POP SWAP3 SWAP2 POP POP JUMP JUMPDEST PUSH1 0x0 PUSH8 0xFFFFFFFFFFFFFFFF DUP3 GT ISZERO PUSH2 0x17E9 JUMPI PUSH2 0x17E8 PUSH2 0x1473 JUMP JUMPDEST JUMPDEST PUSH1 0x20 DUP3 MUL SWAP1 POP PUSH1 0x20 DUP2 ADD SWAP1 POP SWAP2 SWAP1 POP JUMP JUMPDEST PUSH1 0x0 DUP1 REVERT JUMPDEST PUSH1 0x0 PUSH2 0x1812 PUSH2 0x180D DUP5 PUSH2 0x14EE JUMP JUMPDEST PUSH2 0x14D3 JUMP JUMPDEST SWAP1 POP DUP3 DUP2 MSTORE PUSH1 0x20 DUP2 ADD DUP5 DUP5 DUP5 ADD GT ISZERO PUSH2 0x182E JUMPI PUSH2 0x182D PUSH2 0x146E JUMP JUMPDEST JUMPDEST PUSH2 0x1839 DUP5 DUP3 DUP6 PUSH2 0x1253 JUMP JUMPDEST POP SWAP4 SWAP3 POP POP POP JUMP JUMPDEST PUSH1 0x0 DUP3 PUSH1 0x1F DUP4 ADD SLT PUSH2 0x1856 JUMPI PUSH2 0x1855 PUSH2 0x1469 JUMP JUMPDEST JUMPDEST DUP2 MLOAD PUSH2 0x1866 DUP5 DUP3 PUSH1 0x20 DUP7 ADD PUSH2 0x17FF JUMP JUMPDEST SWAP2 POP POP SWAP3 SWAP2 POP POP JUMP JUMPDEST PUSH1 0x0 PUSH2 0x1882 PUSH2 0x187D DUP5 PUSH2 0x17CE JUMP JUMPDEST PUSH2 0x14D3 JUMP JUMPDEST SWAP1 POP DUP1 DUP4 DUP3 MSTORE PUSH1 0x20 DUP3 ADD SWAP1 POP PUSH1 0x20 DUP5 MUL DUP4 ADD DUP6 DUP2 GT ISZERO PUSH2 0x18A5 JUMPI PUSH2 0x18A4 PUSH2 0x17FA JUMP JUMPDEST JUMPDEST DUP4 JUMPDEST DUP2 DUP2 LT ISZERO PUSH2 0x18EC JUMPI DUP1 MLOAD PUSH8 0xFFFFFFFFFFFFFFFF DUP2 GT ISZERO PUSH2 0x18CA JUMPI PUSH2 0x18C9 PUSH2 0x1469 JUMP JUMPDEST JUMPDEST DUP1 DUP7 ADD PUSH2 0x18D7 DUP10 DUP3 PUSH2 0x1841 JUMP JUMPDEST DUP6 MSTORE PUSH1 0x20 DUP6 ADD SWAP5 POP POP POP PUSH1 0x20 DUP2 ADD SWAP1 POP PUSH2 0x18A7 JUMP JUMPDEST POP POP POP SWAP4 SWAP3 POP POP POP JUMP JUMPDEST PUSH1 0x0 DUP3 PUSH1 0x1F DUP4 ADD SLT PUSH2 0x190B JUMPI PUSH2 0x190A PUSH2 0x1469 JUMP JUMPDEST JUMPDEST DUP2 MLOAD PUSH2 0x191B DUP5 DUP3 PUSH1 0x20 DUP7 ADD PUSH2 0x186F JUMP JUMPDEST SWAP2 POP POP SWAP3 SWAP2 POP POP JUMP JUMPDEST PUSH1 0x0 PUSH1 0x20 DUP3 DUP5 SUB SLT ISZERO PUSH2 0x193A JUMPI PUSH2 0x1939 PUSH2 0x145F JUMP JUMPDEST JUMPDEST PUSH1 0x0 DUP3 ADD MLOAD PUSH8 0xFFFFFFFFFFFFFFFF DUP2 GT ISZERO PUSH2 0x1958 JUMPI PUSH2 0x1957 PUSH2 0x1464 JUMP JUMPDEST JUMPDEST PUSH2 0x1964 DUP5 DUP3 DUP6 ADD PUSH2 0x18F6 JUMP JUMPDEST SWAP2 POP POP SWAP3 SWAP2 POP POP JUMP JUMPDEST PUSH32 0x4F6E6C79207468652061646D696E2063616E20706572666F726D207468697320 PUSH1 0x0 DUP3 ADD MSTORE PUSH32 0x616374696F6E0000000000000000000000000000000000000000000000000000 PUSH1 0x20 DUP3 ADD MSTORE POP JUMP JUMPDEST PUSH1 0x0 PUSH2 0x19C9 PUSH1 0x26 DUP4 PUSH2 0x15E7 JUMP JUMPDEST SWAP2 POP PUSH2 0x19D4 DUP3 PUSH2 0x196D JUMP JUMPDEST PUSH1 0x40 DUP3 ADD SWAP1 POP SWAP2 SWAP1 POP JUMP JUMPDEST PUSH1 0x0 PUSH1 0x20 DUP3 ADD SWAP1 POP DUP2 DUP2 SUB PUSH1 0x0 DUP4 ADD MSTORE PUSH2 0x19F8 DUP2 PUSH2 0x19BC JUMP JUMPDEST SWAP1 POP SWAP2 SWAP1 POP JUMP JUMPDEST PUSH32 0x416C726561647920737461727465640000000000000000000000000000000000 PUSH1 0x0 DUP3 ADD MSTORE POP JUMP JUMPDEST PUSH1 0x0 PUSH2 0x1A35 PUSH1 0xF DUP4 PUSH2 0x15E7 JUMP JUMPDEST SWAP2 POP PUSH2 0x1A40 DUP3 PUSH2 0x19FF JUMP JUMPDEST PUSH1 0x20 DUP3 ADD SWAP1 POP SWAP2 SWAP1 POP JUMP JUMPDEST PUSH1 0x0 PUSH1 0x20 DUP3 ADD SWAP1 POP DUP2 DUP2 SUB PUSH1 0x0 DUP4 ADD MSTORE PUSH2 0x1A64 DUP2 PUSH2 0x1A28 JUMP JUMPDEST SWAP1 POP SWAP2 SWAP1 POP JUMP JUMPDEST PUSH32 0x4E487B7100000000000000000000000000000000000000000000000000000000 PUSH1 0x0 MSTORE PUSH1 0x22 PUSH1 0x4 MSTORE PUSH1 0x24 PUSH1 0x0 REVERT JUMPDEST PUSH1 0x0 PUSH1 0x2 DUP3 DIV SWAP1 POP PUSH1 0x1 DUP3 AND DUP1 PUSH2 0x1AB2 JUMPI PUSH1 0x7F DUP3 AND SWAP2 POP JUMPDEST PUSH1 0x20 DUP3 LT DUP2 SUB PUSH2 0x1AC5 JUMPI PUSH2 0x1AC4 PUSH2 0x1A6B JUMP JUMPDEST JUMPDEST POP SWAP2 SWAP1 POP JUMP JUMPDEST PUSH32 0x43616E6E6F742070726F706F736520616674657220656C656374696F6E207374 PUSH1 0x0 DUP3 ADD MSTORE PUSH32 0x6172747300000000000000000000000000000000000000000000000000000000 PUSH1 0x20 DUP3 ADD MSTORE POP JUMP JUMPDEST PUSH1 0x0 PUSH2 0x1B27 PUSH1 0x24 DUP4 PUSH2 0x15E7 JUMP JUMPDEST SWAP2 POP PUSH2 0x1B32 DUP3 PUSH2 0x1ACB JUMP JUMPDEST PUSH1 0x40 DUP3 ADD SWAP1 POP SWAP2 SWAP1 POP JUMP JUMPDEST PUSH1 0x0 PUSH1 0x20 DUP3 ADD SWAP1 POP DUP2 DUP2 SUB PUSH1 0x0 DUP4 ADD MSTORE PUSH2 0x1B56 DUP2 PUSH2 0x1B1A JUMP JUMPDEST SWAP1 POP SWAP2 SWAP1 POP JUMP JUMPDEST PUSH1 0x0 DUP2 SWAP1 POP SWAP3 SWAP2 POP POP JUMP JUMPDEST PUSH1 0x0 PUSH2 0x1B73 DUP3 PUSH2 0x1237 JUMP JUMPDEST PUSH2 0x1B7D DUP2 DUP6 PUSH2 0x1B5D JUMP JUMPDEST SWAP4 POP PUSH2 0x1B8D DUP2 DUP6 PUSH1 0x20 DUP7 ADD PUSH2 0x1253 JUMP JUMPDEST DUP1 DUP5 ADD SWAP2 POP POP SWAP3 SWAP2 POP POP JUMP JUMPDEST PUSH1 0x0 PUSH2 0x1BA5 DUP3 DUP5 PUSH2 0x1B68 JUMP JUMPDEST SWAP2 POP DUP2 SWAP1 POP SWAP3 SWAP2 POP POP JUMP JUMPDEST PUSH32 0x416C72656164792070726F706F73656400000000000000000000000000000000 PUSH1 0x0 DUP3 ADD MSTORE POP JUMP JUMPDEST PUSH1 0x0 PUSH2 0x1BE6 PUSH1 0x10 DUP4 PUSH2 0x15E7 JUMP JUMPDEST SWAP2 POP PUSH2 0x1BF1 DUP3 PUSH2 0x1BB0 JUMP JUMPDEST PUSH1 0x20 DUP3 ADD SWAP1 POP SWAP2 SWAP1 POP JUMP JUMPDEST PUSH1 0x0 PUSH1 0x20 DUP3 ADD SWAP1 POP DUP2 DUP2 SUB PUSH1 0x0 DUP4 ADD MSTORE PUSH2 0x1C15 DUP2 PUSH2 0x1BD9 JUMP JUMPDEST SWAP1 POP SWAP2 SWAP1 POP JUMP JUMPDEST PUSH1 0x0 DUP2 SWAP1 POP DUP2 PUSH1 0x0 MSTORE PUSH1 0x20 PUSH1 0x0 KECCAK256 SWAP1 POP SWAP2 SWAP1 POP JUMP JUMPDEST PUSH1 0x0 PUSH1 0x20 PUSH1 0x1F DUP4 ADD DIV SWAP1 POP SWAP2 SWAP1 POP JUMP JUMPDEST PUSH1 0x0 DUP3 DUP3 SHL SWAP1 POP SWAP3 SWAP2 POP POP JUMP JUMPDEST PUSH1 0x0 PUSH1 0x8 DUP4 MUL PUSH2 0x1C7E PUSH32 0xFFFFFFFFFFFFFFFFFFFFFFFFFFFFFFFFFFFFFFFFFFFFFFFFFFFFFFFFFFFFFFFF DUP3 PUSH2 0x1C41 JUMP JUMPDEST PUSH2 0x1C88 DUP7 DUP4 PUSH2 0x1C41 JUMP JUMPDEST SWAP6 POP DUP1 NOT DUP5 AND SWAP4 POP DUP1 DUP7 AND DUP5 OR SWAP3 POP POP POP SWAP4 SWAP3 POP POP POP JUMP JUMPDEST PUSH1 0x0 DUP2 SWAP1 POP SWAP2 SWAP1 POP JUMP JUMPDEST PUSH1 0x0 PUSH2 0x1CC5 PUSH2 0x1CC0 PUSH2 0x1CBB DUP5 PUSH2 0x1CA0 JUMP JUMPDEST PUSH2 0x139F JUMP JUMPDEST PUSH2 0x1CA0 JUMP JUMPDEST SWAP1 POP SWAP2 SWAP1 POP JUMP JUMPDEST PUSH1 0x0 DUP2 SWAP1 POP SWAP2 SWAP1 POP JUMP JUMPDEST PUSH2 0x1CDF DUP4 PUSH2 0x1CAA JUMP JUMPDEST PUSH2 0x1CF3 PUSH2 0x1CEB DUP3 PUSH2 0x1CCC JUMP JUMPDEST DUP5 DUP5 SLOAD PUSH2 0x1C4E JUMP JUMPDEST DUP3 SSTORE POP POP POP POP JUMP JUMPDEST PUSH1 0x0 SWAP1 JUMP JUMPDEST PUSH2 0x1D08 PUSH2 0x1CFB JUMP JUMPDEST PUSH2 0x1D13 DUP2 DUP5 DUP5 PUSH2 0x1CD6 JUMP JUMPDEST POP POP POP JUMP JUMPDEST JUMPDEST DUP2 DUP2 LT ISZERO PUSH2 0x1D37 JUMPI PUSH2 0x1D2C PUSH1 0x0 DUP3 PUSH2 0x1D00 JUMP JUMPDEST PUSH1 0x1 DUP2 ADD SWAP1 POP PUSH2 0x1D19 JUMP JUMPDEST POP POP JUMP JUMPDEST PUSH1 0x1F DUP3 GT ISZERO PUSH2 0x1D7C JUMPI PUSH2 0x1D4D DUP2 PUSH2 0x1C1C JUMP JUMPDEST PUSH2 0x1D56 DUP5 PUSH2 0x1C31 JUMP JUMPDEST DUP2 ADD PUSH1 0x20 DUP6 LT ISZERO PUSH2 0x1D65 JUMPI DUP2 SWAP1 POP JUMPDEST PUSH2 0x1D79 PUSH2 0x1D71 DUP6 PUSH2 0x1C31 JUMP JUMPDEST DUP4 ADD DUP3 PUSH2 0x1D18 JUMP JUMPDEST POP POP JUMPDEST POP POP POP JUMP JUMPDEST PUSH1 0x0 DUP3 DUP3 SHR SWAP1 POP SWAP3 SWAP2 POP POP JUMP JUMPDEST PUSH1 0x0 PUSH2 0x1D9F PUSH1 0x0 NOT DUP5 PUSH1 0x8 MUL PUSH2 0x1D81 JUMP JUMPDEST NOT DUP1 DUP4 AND SWAP2 POP POP SWAP3 SWAP2 POP POP JUMP JUMPDEST PUSH1 0x0 PUSH2 0x1DB8 DUP4 DUP4 PUSH2 0x1D8E JUMP JUMPDEST SWAP2 POP DUP3 PUSH1 0x2 MUL DUP3 OR SWAP1 POP SWAP3 SWAP2 POP POP JUMP JUMPDEST PUSH2 0x1DD1 DUP3 PUSH2 0x1237 JUMP JUMPDEST PUSH8 0xFFFFFFFFFFFFFFFF DUP2 GT ISZERO PUSH2 0x1DEA JUMPI PUSH2 0x1DE9 PUSH2 0x1473 JUMP JUMPDEST JUMPDEST PUSH2 0x1DF4 DUP3 SLOAD PUSH2 0x1A9A JUMP JUMPDEST PUSH2 0x1DFF DUP3 DUP3 DUP6 PUSH2 0x1D3B JUMP JUMPDEST PUSH1 0x0 PUSH1 0x20 SWAP1 POP PUSH1 0x1F DUP4 GT PUSH1 0x1 DUP2 EQ PUSH2 0x1E32 JUMPI PUSH1 0x0 DUP5 ISZERO PUSH2 0x1E20 JUMPI DUP3 DUP8 ADD MLOAD SWAP1 POP JUMPDEST PUSH2 0x1E2A DUP6 DUP3 PUSH2 0x1DAC JUMP JUMPDEST DUP7 SSTORE POP PUSH2 0x1E92 JUMP JUMPDEST PUSH1 0x1F NOT DUP5 AND PUSH2 0x1E40 DUP7 PUSH2 0x1C1C JUMP JUMPDEST PUSH1 0x0 JUMPDEST DUP3 DUP2 LT ISZERO PUSH2 0x1E68 JUMPI DUP5 DUP10 ADD MLOAD DUP3 SSTORE PUSH1 0x1 DUP3 ADD SWAP2 POP PUSH1 0x20 DUP6 ADD SWAP5 POP PUSH1 0x20 DUP2 ADD SWAP1 POP PUSH2 0x1E43 JUMP JUMPDEST DUP7 DUP4 LT ISZERO PUSH2 0x1E85 JUMPI DUP5 DUP10 ADD MLOAD PUSH2 0x1E81 PUSH1 0x1F DUP10 AND DUP3 PUSH2 0x1D8E JUMP JUMPDEST DUP4 SSTORE POP JUMPDEST PUSH1 0x1 PUSH1 0x2 DUP9 MUL ADD DUP9 SSTORE POP POP POP JUMPDEST POP POP POP POP POP POP JUMP JUMPDEST PUSH1 0x0 PUSH1 0x20 DUP3 ADD SWAP1 POP DUP2 DUP2 SUB PUSH1 0x0 DUP4 ADD MSTORE PUSH2 0x1EB4 DUP2 DUP5 PUSH2 0x15F8 JUMP JUMPDEST SWAP1 POP SWAP3 SWAP2 POP POP JUMP JUMPDEST PUSH32 0x416C7265616479207075626C6973686564000000000000000000000000000000 PUSH1 0x0 DUP3 ADD MSTORE POP JUMP JUMPDEST PUSH1 0x0 PUSH2 0x1EF2 PUSH1 0x11 DUP4 PUSH2 0x15E7 JUMP JUMPDEST SWAP2 POP PUSH2 0x1EFD DUP3 PUSH2 0x1EBC JUMP JUMPDEST PUSH1 0x20 DUP3 ADD SWAP1 POP SWAP2 SWAP1 POP JUMP JUMPDEST PUSH1 0x0 PUSH1 0x20 DUP3 ADD SWAP1 POP DUP2 DUP2 SUB PUSH1 0x0 DUP4 ADD MSTORE PUSH2 0x1F21 DUP2 PUSH2 0x1EE5 JUMP JUMPDEST SWAP1 POP SWAP2 SWAP1 POP JUMP JUMPDEST PUSH32 0x43616E646964617465206E6F742070726F706F73656400000000000000000000 PUSH1 0x0 DUP3 ADD MSTORE POP JUMP JUMPDEST PUSH1 0x0 PUSH2 0x1F5E PUSH1 0x16 DUP4 PUSH2 0x15E7 JUMP JUMPDEST SWAP2 POP PUSH2 0x1F69 DUP3 PUSH2 0x1F28 JUMP JUMPDEST PUSH1 0x20 DUP3 ADD SWAP1 POP SWAP2 SWAP1 POP JUMP JUMPDEST PUSH1 0x0 PUSH1 0x20 DUP3 ADD SWAP1 POP DUP2 DUP2 SUB PUSH1 0x0 DUP4 ADD MSTORE PUSH2 0x1F8D DUP2 PUSH2 0x1F51 JUMP JUMPDEST SWAP1 POP SWAP2 SWAP1 POP JUMP JUMPDEST PUSH32 0x456C656374696F6E206E6F742073746172746564000000000000000000000000 PUSH1 0x0 DUP3 ADD MSTORE POP JUMP JUMPDEST PUSH1 0x0 PUSH2 0x1FCA PUSH1 0x14 DUP4 PUSH2 0x15E7 JUMP JUMPDEST SWAP2 POP PUSH2 0x1FD5 DUP3 PUSH2 0x1F94 JUMP JUMPDEST PUSH1 0x20 DUP3 ADD SWAP1 POP SWAP2 SWAP1 POP JUMP JUMPDEST PUSH1 0x0 PUSH1 0x20 DUP3 ADD SWAP1 POP DUP2 DUP2 SUB PUSH1 0x0 DUP4 ADD MSTORE PUSH2 0x1FF9 DUP2 PUSH2 0x1FBD JUMP JUMPDEST SWAP1 POP SWAP2 SWAP1 POP JUMP JUMPDEST PUSH32 0x566F74696E6720656E6465640000000000000000000000000000000000000000 PUSH1 0x0 DUP3 ADD MSTORE POP JUMP JUMPDEST PUSH1 0x0 PUSH2 0x2036 PUSH1 0xC DUP4 PUSH2 0x15E7 JUMP JUMPDEST SWAP2 POP PUSH2 0x2041 DUP3 PUSH2 0x2000 JUMP JUMPDEST PUSH1 0x20 DUP3 ADD SWAP1 POP SWAP2 SWAP1 POP JUMP JUMPDEST PUSH1 0x0 PUSH1 0x20 DUP3 ADD SWAP1 POP DUP2 DUP2 SUB PUSH1 0x0 DUP4 ADD MSTORE PUSH2 0x2065 DUP2 PUSH2 0x2029 JUMP JUMPDEST SWAP1 POP SWAP2 SWAP1 POP JUMP JUMPDEST PUSH32 0x4E6F742072656769737465726564000000000000000000000000000000000000 PUSH1 0x0 DUP3 ADD MSTORE POP JUMP JUMPDEST PUSH1 0x0 PUSH2 0x20A2 PUSH1 0xE DUP4 PUSH2 0x15E7 JUMP JUMPDEST SWAP2 POP PUSH2 0x20AD DUP3 PUSH2 0x206C JUMP JUMPDEST PUSH1 0x20 DUP3 ADD SWAP1 POP SWAP2 SWAP1 POP JUMP JUMPDEST PUSH1 0x0 PUSH1 0x20 DUP3 ADD SWAP1 POP DUP2 DUP2 SUB PUSH1 0x0 DUP4 ADD MSTORE PUSH2 0x20D1 DUP2 PUSH2 0x2095 JUMP JUMPDEST SWAP1 POP SWAP2 SWAP1 POP JUMP JUMPDEST PUSH32 0x416C726561647920766F74656400000000000000000000000000000000000000 PUSH1 0x0 DUP3 ADD MSTORE POP JUMP JUMPDEST PUSH1 0x0 PUSH2 0x210E PUSH1 0xD DUP4 PUSH2 0x15E7 JUMP JUMPDEST SWAP2 POP PUSH2 0x2119 DUP3 PUSH2 0x20D8 JUMP JUMPDEST PUSH1 0x20 DUP3 ADD SWAP1 POP SWAP2 SWAP1 POP JUMP JUMPDEST PUSH1 0x0 PUSH1 0x20 DUP3 ADD SWAP1 POP DUP2 DUP2 SUB PUSH1 0x0 DUP4 ADD MSTORE PUSH2 0x213D DUP2 PUSH2 0x2101 JUMP JUMPDEST SWAP1 POP SWAP2 SWAP1 POP JUMP JUMPDEST PUSH32 0x4E487B7100000000000000000000000000000000000000000000000000000000 PUSH1 0x0 MSTORE PUSH1 0x32 PUSH1 0x4 MSTORE PUSH1 0x24 PUSH1 0x0 REVERT JUMPDEST PUSH32 0x4E487B7100000000000000000000000000000000000000000000000000000000 PUSH1 0x0 MSTORE PUSH1 0x11 PUSH1 0x4 MSTORE PUSH1 0x24 PUSH1 0x0 REVERT JUMPDEST PUSH1 0x0 PUSH2 0x21AD DUP3 PUSH2 0x1CA0 JUMP JUMPDEST SWAP2 POP PUSH32 0xFFFFFFFFFFFFFFFFFFFFFFFFFFFFFFFFFFFFFFFFFFFFFFFFFFFFFFFFFFFFFFFF DUP3 SUB PUSH2 0x21DF JUMPI PUSH2 0x21DE PUSH2 0x2173 JUMP JUMPDEST JUMPDEST PUSH1 0x1 DUP3 ADD SWAP1 POP SWAP2 SWAP1 POP JUMP JUMPDEST PUSH32 0x43616E646964617465206E6F7420666F756E6400000000000000000000000000 PUSH1 0x0 DUP3 ADD MSTORE POP JUMP JUMPDEST PUSH1 0x0 PUSH2 0x2220 PUSH1 0x13 DUP4 PUSH2 0x15E7 JUMP JUMPDEST SWAP2 POP PUSH2 0x222B DUP3 PUSH2 0x21EA JUMP JUMPDEST PUSH1 0x20 DUP3 ADD SWAP1 POP SWAP2 SWAP1 POP JUMP JUMPDEST PUSH1 0x0 PUSH1 0x20 DUP3 ADD SWAP1 POP DUP2 DUP2 SUB PUSH1 0x0 DUP4 ADD MSTORE PUSH2 0x224F DUP2 PUSH2 0x2213 JUMP JUMPDEST SWAP1 POP SWAP2 SWAP1 POP JUMP JUMPDEST PUSH1 0x0 DUP2 SWAP1 POP SWAP2 SWAP1 POP JUMP JUMPDEST PUSH1 0x0 PUSH2 0x227B PUSH2 0x2276 PUSH2 0x2271 DUP5 PUSH2 0x2256 JUMP JUMPDEST PUSH2 0x139F JUMP JUMPDEST PUSH2 0x1CA0 JUMP JUMPDEST SWAP1 POP SWAP2 SWAP1 POP JUMP JUMPDEST PUSH2 0x228B DUP2 PUSH2 0x2260 JUMP JUMPDEST DUP3 MSTORE POP POP JUMP JUMPDEST PUSH1 0x0 PUSH1 0x40 DUP3 ADD SWAP1 POP DUP2 DUP2 SUB PUSH1 0x0 DUP4 ADD MSTORE PUSH2 0x22AB DUP2 DUP6 PUSH2 0x15F8 JUMP JUMPDEST SWAP1 POP PUSH2 0x22BA PUSH1 0x20 DUP4 ADD DUP5 PUSH2 0x2282 JUMP JUMPDEST SWAP4 SWAP3 POP POP POP JUMP JUMPDEST PUSH1 0x0 PUSH1 0x40 DUP3 ADD SWAP1 POP PUSH2 0x22D6 PUSH1 0x0 DUP4 ADD DUP6 PUSH2 0x1643 JUMP JUMPDEST DUP2 DUP2 SUB PUSH1 0x20 DUP4 ADD MSTORE PUSH2 0x22E8 DUP2 DUP5 PUSH2 0x15F8 JUMP JUMPDEST SWAP1 POP SWAP4 SWAP3 POP POP POP JUMP INVALID LOG2 PUSH5 0x6970667358 0x22 SLT KECCAK256 0xC7 PUSH13 0xAA7384E90EE6064D5175F7170B 0xF PUSH20 0x606F8A0EEBDAA962EB126147240ACB64736F6C63 NUMBER STOP ADDMOD SLT STOP CALLER "
				},
				"gasEstimates": {
					"creation": {
						"codeDepositCost": "1799800",
						"executionCost": "infinite",
						"totalCost": "infinite"
					},
					"external": {
						"approveCandidate(string)": "infinite",
						"electionStarted()": "2587",
						"getAllCandidates()": "infinite",
						"owner()": "2556",
						"pendingCandidates(string)": "infinite",
						"proposeCandidate(string)": "infinite",
						"publishResults()": "infinite",
						"registry()": "infinite",
						"resultsPublished()": "2588",
						"startElection()": "29700",
						"tally()": "infinite",
						"tallyResultsPublished()": "infinite",
						"vote(string)": "infinite"
					}
				},
				"methodIdentifiers": {
					"approveCandidate(string)": "bbe0b50a",
					"electionStarted()": "d5346da1",
					"getAllCandidates()": "2e6997fe",
					"owner()": "8da5cb5b",
					"pendingCandidates(string)": "829600e0",
					"proposeCandidate(string)": "98ab4863",
					"publishResults()": "b952e7d8",
					"registry()": "7b103999",
					"resultsPublished()": "5f589599",
					"startElection()": "62d73eb8",
					"tally()": "410673e5",
					"tallyResultsPublished()": "12f4acec",
					"vote(string)": "fc36e15b"
				}
			},
			"storageLayout": {
				"storage": [
					{
						"astId": 52,
						"contract": "contracts/Voting.sol:Voting",
						"label": "owner",
						"offset": 0,
						"slot": "0",
						"type": "t_address"
					},
					{
						"astId": 54,
						"contract": "contracts/Voting.sol:Voting",
						"label": "electionStarted",
						"offset": 20,
						"slot": "0",
						"type": "t_bool"
					},
					{
						"astId": 56,
						"contract": "contracts/Voting.sol:Voting",
						"label": "resultsPublished",
						"offset": 21,
						"slot": "0",
						"type": "t_bool"
					},
					{
						"astId": 59,
						"contract": "contracts/Voting.sol:Voting",
						"label": "registry",
						"offset": 0,
						"slot": "1",
						"type": "t_contract(IVoterRegistry)39"
					},
					{
						"astId": 62,
						"contract": "contracts/Voting.sol:Voting",
						"label": "tally",
						"offset": 0,
						"slot": "2",
						"type": "t_contract(ITally)50"
					},
					{
						"astId": 74,
						"contract": "contracts/Voting.sol:Voting",
						"label": "pendingCandidates",
						"offset": 0,
						"slot": "3",
						"type": "t_mapping(t_string_memory_ptr,t_struct(PendingCandidate)69_storage)"
					}
				],
				"types": {
					"t_address": {
						"encoding": "inplace",
						"label": "address",
						"numberOfBytes": "20"
					},
					"t_bool": {
						"encoding": "inplace",
						"label": "bool",
						"numberOfBytes": "1"
					},
					"t_contract(ITally)50": {
						"encoding": "inplace",
						"label": "contract ITally",
						"numberOfBytes": "20"
					},
					"t_contract(IVoterRegistry)39": {
						"encoding": "inplace",
						"label": "contract IVoterRegistry",
						"numberOfBytes": "20"
					},
					"t_mapping(t_string_memory_ptr,t_struct(PendingCandidate)69_storage)": {
						"encoding": "mapping",
						"key": "t_string_memory_ptr",
						"label": "mapping(string => struct Voting.PendingCandidate)",
						"numberOfBytes": "32",
						"value": "t_struct(PendingCandidate)69_storage"
					},
					"t_string_memory_ptr": {
						"encoding": "bytes",
						"label": "string",
						"numberOfBytes": "32"
					},
					"t_string_storage": {
						"encoding": "bytes",
						"label": "string",
						"numberOfBytes": "32"
					},
					"t_struct(PendingCandidate)69_storage": {
						"encoding": "inplace",
						"label": "struct Voting.PendingCandidate",
						"members": [
							{
								"astId": 64,
								"contract": "contracts/Voting.sol:Voting",
								"label": "name",
								"offset": 0,
								"slot": "0",
								"type": "t_string_storage"
							},
							{
								"astId": 66,
								"contract": "contracts/Voting.sol:Voting",
								"label": "submitter",
								"offset": 0,
								"slot": "1",
								"type": "t_address"
							},
							{
								"astId": 68,
								"contract": "contracts/Voting.sol:Voting",
								"label": "exists",
								"offset": 20,
								"slot": "1",
								"type": "t_bool"
							}
						],
						"numberOfBytes": "64"
					}
				}
			},
			"userdoc": {
				"kind": "user",
				"methods": {},
				"version": 1
			}
		}
	}
}