{
	"data": {
		"bytecode": {
			"linkReferences": {},
			"object": "608060405234801561001057600080fd5b50336000806101000a81548173ffffffffffffffffffffffffffffffffffffffff021916908373ffffffffffffffffffffffffffffffffffffffff1602179055506000600181905550611b81806100686000396000f3fe608060405234801561001057600080fd5b50600436106100b45760003560e01c8063565e802a11610071578063565e802a146101a1578063995278a3146101d15780639eb88db6146101ed578063a3ec138d14610209578063c3c5a5471461023f578063f851a4401461026f576100b4565b806309eef43e146100b95780632d7315d4146100e95780632e6997fe1461010557806333819253146101235780633477ee2e1461015357806342169e4814610183575b600080fd5b6100d360048036038101906100ce9190610e58565b61028d565b6040516100e09190610ea0565b60405180910390f35b61010360048036038101906100fe919061103a565b6102e6565b005b61010d6105a0565b60405161011a9190611236565b60405180910390f35b61013d6004803603810190610138919061103a565b610679565b60405161014a9190610ea0565b60405180910390f35b61016d6004803603810190610168919061128e565b610753565b60405161017a9190611305565b60405180910390f35b61018b6107ff565b6040516101989190611336565b60405180910390f35b6101bb60048036038101906101b69190611351565b610805565b6040516101c89190610ea0565b60405180910390f35b6101eb60048036038101906101e69190610e58565b61083b565b005b61020760048036038101906102029190611351565b6109fb565b005b610223600480360381019061021e9190610e58565b610b68565b60405161023697969594939291906113a9565b60405180910390f35b61025960048036038101906102549190610e58565b610d69565b6040516102669190610ea0565b60405180910390f35b610277610dc2565b604051610284919061143c565b60405180910390f35b6000600260008373ffffffffffffffffffffffffffffffffffffffff1673ffffffffffffffffffffffffffffffffffffffff16815260200190815260200160002060040160019054906101000a900460ff169050919050565b600260003373ffffffffffffffffffffffffffffffffffffffff1673ffffffffffffffffffffffffffffffffffffffff16815260200190815260200160002060040160009054906101000a900460ff1615610376576040517f08c379a000000000000000000000000000000000000000000000000000000000815260040161036d906114a3565b60405180910390fd5b61038284848484610679565b6103c1576040517f08c379a00000000000000000000000000000000000000000000000000000000081526004016103b89061150f565b60405180910390fd5b3373ffffffffffffffffffffffffffffffffffffffff167f73d35f4b5dc2339683083dec639ba37f0f5592fc26de0e0603ac5ba2412cd00460405160405180910390a26001806000828254610416919061155e565b925050819055506040518060e001604052808581526020018460ff168152602001838152602001828152602001600115158152602001600015158152602001600154815250600260003373ffffffffffffffffffffffffffffffffffffffff1673ffffffffffffffffffffffffffffffffffffffff16815260200190815260200160002060008201518160000190816104af919061179e565b5060208201518160010160006101000a81548160ff021916908360ff16021790555060408201518160020190816104e6919061179e565b5060608201518160030190816104fc919061179e565b5060808201518160040160006101000a81548160ff02191690831515021790555060a08201518160040160016101000a81548160ff02191690831515021790555060c082015181600501559050503373ffffffffffffffffffffffffffffffffffffffff167ff16ce2c2236e2c6e3df646f80d657bceef4cd7f3a240c47e82adfa17a5f472416001546040516105929190611336565b60405180910390a250505050565b60606004805480602002602001604051908101604052809291908181526020016000905b828210156106705783829060005260206000200180546105e3906115c1565b80601f016020809104026020016040519081016040528092919081815260200182805461060f906115c1565b801561065c5780601f106106315761010080835404028352916020019161065c565b820191906000526020600020905b81548152906001019060200180831161063f57829003601f168201915b5050505050815260200190600101906105c4565b50505050905090565b600060128460ff1610156106c2576040517f08c379a00000000000000000000000000000000000000000000000000000000081526004016106b9906118bc565b60405180910390fd5b6040518060400160405280600281526020017f415500000000000000000000000000000000000000000000000000000000000081525080519060200120838051906020012014610747576040517f08c379a000000000000000000000000000000000000000000000000000000000815260040161073e90611928565b60405180910390fd5b60019050949350505050565b6004818154811061076357600080fd5b90600052602060002001600091509050805461077e906115c1565b80601f01602080910402602001604051908101604052809291908181526020018280546107aa906115c1565b80156107f75780601f106107cc576101008083540402835291602001916107f7565b820191906000526020600020905b8154815290600101906020018083116107da57829003601f168201915b505050505081565b60015481565b6003818051602081018201805184825260208301602085012081835280955050505050506000915054906101000a900460ff1681565b600260008273ffffffffffffffffffffffffffffffffffffffff1673ffffffffffffffffffffffffffffffffffffffff16815260200190815260200160002060040160009054906101000a900460ff166108ca576040517f08c379a00000000000000000000000000000000000000000000000000000000081526004016108c190611994565b60405180910390fd5b600260008273ffffffffffffffffffffffffffffffffffffffff1673ffffffffffffffffffffffffffffffffffffffff16815260200190815260200160002060040160019054906101000a900460ff161561095a576040517f08c379a000000000000000000000000000000000000000000000000000000000815260040161095190611a00565b60405180910390fd5b6001600260008373ffffffffffffffffffffffffffffffffffffffff1673ffffffffffffffffffffffffffffffffffffffff16815260200190815260200160002060040160016101000a81548160ff0219169083151502179055508073ffffffffffffffffffffffffffffffffffffffff167f0dee5df68286da4aa7b3f15867898379562c81f0812815ad6241cb352d4ea22d60405160405180910390a250565b6000815111610a3f576040517f08c379a0000000000000000000000000000000000000000000000000000000008152600401610a3690611a6c565b60405180910390fd5b600381604051610a4f9190611ac8565b908152602001604051809103902060009054906101000a900460ff1615610aab576040517f08c379a0000000000000000000000000000000000000000000000000000000008152600401610aa290611b2b565b60405180910390fd5b6001600382604051610abd9190611ac8565b908152602001604051809103902060006101000a81548160ff021916908315150217905550600481908060018154018082558091505060019003906000526020600020016000909190919091509081610b16919061179e565b503373ffffffffffffffffffffffffffffffffffffffff167ff7d573e0e0f72259d79708ef22494ecdc00dd3605de228ff1a79063d7547b7c282604051610b5d9190611305565b60405180910390a250565b6002602052806000526040600020600091509050806000018054610b8b906115c1565b80601f0160208091040260200160405190810160405280929190818152602001828054610bb7906115c1565b8015610c045780601f10610bd957610100808354040283529160200191610c04565b820191906000526020600020905b815481529060010190602001808311610be757829003601f168201915b5050505050908060010160009054906101000a900460ff1690806002018054610c2c906115c1565b80601f0160208091040260200160405190810160405280929190818152602001828054610c58906115c1565b8015610ca55780601f10610c7a57610100808354040283529160200191610ca5565b820191906000526020600020905b815481529060010190602001808311610c8857829003601f168201915b505050505090806003018054610cba906115c1565b80601f0160208091040260200160405190810160405280929190818152602001828054610ce6906115c1565b8015610d335780601f10610d0857610100808354040283529160200191610d33565b820191906000526020600020905b815481529060010190602001808311610d1657829003601f168201915b5050505050908060040160009054906101000a900460ff16908060040160019054906101000a900460ff16908060050154905087565b6000600260008373ffffffffffffffffffffffffffffffffffffffff1673ffffffffffffffffffffffffffffffffffffffff16815260200190815260200160002060040160009054906101000a900460ff169050919050565b60008054906101000a900473ffffffffffffffffffffffffffffffffffffffff1681565b6000604051905090565b600080fd5b600080fd5b600073ffffffffffffffffffffffffffffffffffffffff82169050919050565b6000610e2582610dfa565b9050919050565b610e3581610e1a565b8114610e4057600080fd5b50565b600081359050610e5281610e2c565b92915050565b600060208284031215610e6e57610e6d610df0565b5b6000610e7c84828501610e43565b91505092915050565b60008115159050919050565b610e9a81610e85565b82525050565b6000602082019050610eb56000830184610e91565b92915050565b600080fd5b600080fd5b6000601f19601f8301169050919050565b7f4e487b7100000000000000000000000000000000000000000000000000000000600052604160045260246000fd5b610f0e82610ec5565b810181811067ffffffffffffffff82111715610f2d57610f2c610ed6565b5b80604052505050565b6000610f40610de6565b9050610f4c8282610f05565b919050565b600067ffffffffffffffff821115610f6c57610f6b610ed6565b5b610f7582610ec5565b9050602081019050919050565b82818337600083830152505050565b6000610fa4610f9f84610f51565b610f36565b905082815260208101848484011115610fc057610fbf610ec0565b5b610fcb848285610f82565b509392505050565b600082601f830112610fe857610fe7610ebb565b5b8135610ff8848260208601610f91565b91505092915050565b600060ff82169050919050565b61101781611001565b811461102257600080fd5b50565b6000813590506110348161100e565b92915050565b6000806000806080858703121561105457611053610df0565b5b600085013567ffffffffffffffff81111561107257611071610df5565b5b61107e87828801610fd3565b945050602061108f87828801611025565b935050604085013567ffffffffffffffff8111156110b0576110af610df5565b5b6110bc87828801610fd3565b925050606085013567ffffffffffffffff8111156110dd576110dc610df5565b5b6110e987828801610fd3565b91505092959194509250565b600081519050919050565b600082825260208201905092915050565b6000819050602082019050919050565b600081519050919050565b600082825260208201905092915050565b60005b8381101561115b578082015181840152602081019050611140565b60008484015250505050565b600061117282611121565b61117c818561112c565b935061118c81856020860161113d565b61119581610ec5565b840191505092915050565b60006111ac8383611167565b905092915050565b6000602082019050919050565b60006111cc826110f5565b6111d68185611100565b9350836020820285016111e885611111565b8060005b85811015611224578484038952815161120585826111a0565b9450611210836111b4565b925060208a019950506001810190506111ec565b50829750879550505050505092915050565b6000602082019050818103600083015261125081846111c1565b905092915050565b6000819050919050565b61126b81611258565b811461127657600080fd5b50565b60008135905061128881611262565b92915050565b6000602082840312156112a4576112a3610df0565b5b60006112b284828501611279565b91505092915050565b600082825260208201905092915050565b60006112d782611121565b6112e181856112bb565b93506112f181856020860161113d565b6112fa81610ec5565b840191505092915050565b6000602082019050818103600083015261131f81846112cc565b905092915050565b61133081611258565b82525050565b600060208201905061134b6000830184611327565b92915050565b60006020828403121561136757611366610df0565b5b600082013567ffffffffffffffff81111561138557611384610df5565b5b61139184828501610fd3565b91505092915050565b6113a381611001565b82525050565b600060e08201905081810360008301526113c3818a6112cc565b90506113d2602083018961139a565b81810360408301526113e481886112cc565b905081810360608301526113f881876112cc565b90506114076080830186610e91565b61141460a0830185610e91565b61142160c0830184611327565b98975050505050505050565b61143681610e1a565b82525050565b6000602082019050611451600083018461142d565b92915050565b7f416c726561647920726567697374657265640000000000000000000000000000600082015250565b600061148d6012836112bb565b915061149882611457565b602082019050919050565b600060208201905081810360008301526114bc81611480565b9050919050565b7f566572696669636174696f6e206661696c656400000000000000000000000000600082015250565b60006114f96013836112bb565b9150611504826114c3565b602082019050919050565b60006020820190508181036000830152611528816114ec565b9050919050565b7f4e487b7100000000000000000000000000000000000000000000000000000000600052601160045260246000fd5b600061156982611258565b915061157483611258565b925082820190508082111561158c5761158b61152f565b5b92915050565b7f4e487b7100000000000000000000000000000000000000000000000000000000600052602260045260246000fd5b600060028204905060018216806115d957607f821691505b6020821081036115ec576115eb611592565b5b50919050565b60008190508160005260206000209050919050565b60006020601f8301049050919050565b600082821b905092915050565b6000600883026116547fffffffffffffffffffffffffffffffffffffffffffffffffffffffffffffffff82611617565b61165e8683611617565b95508019841693508086168417925050509392505050565b6000819050919050565b600061169b61169661169184611258565b611676565b611258565b9050919050565b6000819050919050565b6116b583611680565b6116c96116c1826116a2565b848454611624565b825550505050565b600090565b6116de6116d1565b6116e98184846116ac565b505050565b5b8181101561170d576117026000826116d6565b6001810190506116ef565b5050565b601f82111561175257611723816115f2565b61172c84611607565b8101602085101561173b578190505b61174f61174785611607565b8301826116ee565b50505b505050565b600082821c905092915050565b600061177560001984600802611757565b1980831691505092915050565b600061178e8383611764565b9150826002028217905092915050565b6117a782611121565b67ffffffffffffffff8111156117c0576117bf610ed6565b5b6117ca82546115c1565b6117d5828285611711565b600060209050601f83116001811461180857600084156117f6578287015190505b6118008582611782565b865550611868565b601f198416611816866115f2565b60005b8281101561183e57848901518255600182019150602085019450602081019050611819565b8683101561185b5784890151611857601f891682611764565b8355505b6001600288020188555050505b505050505050565b7f4d757374206265206174206c6561737420313800000000000000000000000000600082015250565b60006118a66013836112bb565b91506118b182611870565b602082019050919050565b600060208201905081810360008301526118d581611899565b9050919050565b7f4d757374206265204175737472616c69616e20636974697a656e000000000000600082015250565b6000611912601a836112bb565b915061191d826118dc565b602082019050919050565b6000602082019050818103600083015261194181611905565b9050919050565b7f4e6f742072656769737465726564000000000000000000000000000000000000600082015250565b600061197e600e836112bb565b915061198982611948565b602082019050919050565b600060208201905081810360008301526119ad81611971565b9050919050565b7f416c726561647920766f74656400000000000000000000000000000000000000600082015250565b60006119ea600d836112bb565b91506119f5826119b4565b602082019050919050565b60006020820190508181036000830152611a19816119dd565b9050919050565b7f4e616d652063616e6e6f7420626520656d707479000000000000000000000000600082015250565b6000611a566014836112bb565b9150611a6182611a20565b602082019050919050565b60006020820190508181036000830152611a8581611a49565b9050919050565b600081905092915050565b6000611aa282611121565b611aac8185611a8c565b9350611abc81856020860161113d565b80840191505092915050565b6000611ad48284611a97565b915081905092915050565b7f43616e64696461746520616c7265616479207265676973746572656400000000600082015250565b6000611b15601c836112bb565b9150611b2082611adf565b602082019050919050565b60006020820190508181036000830152611b4481611b08565b905091905056fea2646970667358221220713772e570f47bf6b54b75baf361d4a3859dae275f15190564b822e0bc4b9c1b64736f6c63430008120033",
			"opcodes": "PUSH1 0x80 PUSH1 0x40 MSTORE CALLVALUE DUP1 ISZERO PUSH2 0x10 JUMPI PUSH1 0x0 DUP1 REVERT JUMPDEST POP CALLER PUSH1 0x0 DUP1 PUSH2 0x100 EXP DUP2 SLOAD DUP2 PUSH20 0xFFFFFFFFFFFFFFFFFFFFFFFFFFFFFFFFFFFFFFFF MUL NOT AND SWAP1 DUP4 PUSH20 0xFFFFFFFFFFFFFFFFFFFFFFFFFFFFFFFFFFFFFFFF AND MUL OR SWAP1 SSTORE POP PUSH1 0x0 PUSH1 0x1 DUP2 SWAP1 SSTORE POP PUSH2 0x1B81 DUP1 PUSH2 0x68 PUSH1 0x0 CODECOPY PUSH1 0x0 RETURN INVALID PUSH1 0x80 PUSH1 0x40 MSTORE CALLVALUE DUP1 ISZERO PUSH2 0x10 JUMPI PUSH1 0x0 DUP1 REVERT JUMPDEST POP PUSH1 0x4 CALLDATASIZE LT PUSH2 0xB4 JUMPI PUSH1 0x0 CALLDATALOAD PUSH1 0xE0 SHR DUP1 PUSH4 0x565E802A GT PUSH2 0x71 JUMPI DUP1 PUSH4 0x565E802A EQ PUSH2 0x1A1 JUMPI DUP1 PUSH4 0x995278A3 EQ PUSH2 0x1D1 JUMPI DUP1 PUSH4 0x9EB88DB6 EQ PUSH2 0x1ED JUMPI DUP1 PUSH4 0xA3EC138D EQ PUSH2 0x209 JUMPI DUP1 PUSH4 0xC3C5A547 EQ PUSH2 0x23F JUMPI DUP1 PUSH4 0xF851A440 EQ PUSH2 0x26F JUMPI PUSH2 0xB4 JUMP JUMPDEST DUP1 PUSH4 0x9EEF43E EQ PUSH2 0xB9 JUMPI DUP1 PUSH4 0x2D7315D4 EQ PUSH2 0xE9 JUMPI DUP1 PUSH4 0x2E6997FE EQ PUSH2 0x105 JUMPI DUP1 PUSH4 0x33819253 EQ PUSH2 0x123 JUMPI DUP1 PUSH4 0x3477EE2E EQ PUSH2 0x153 JUMPI DUP1 PUSH4 0x42169E48 EQ PUSH2 0x183 JUMPI JUMPDEST PUSH1 0x0 DUP1 REVERT JUMPDEST PUSH2 0xD3 PUSH1 0x4 DUP1 CALLDATASIZE SUB DUP2 ADD SWAP1 PUSH2 0xCE SWAP2 SWAP1 PUSH2 0xE58 JUMP JUMPDEST PUSH2 0x28D JUMP JUMPDEST PUSH1 0x40 MLOAD PUSH2 0xE0 SWAP2 SWAP1 PUSH2 0xEA0 JUMP JUMPDEST PUSH1 0x40 MLOAD DUP1 SWAP2 SUB SWAP1 RETURN JUMPDEST PUSH2 0x103 PUSH1 0x4 DUP1 CALLDATASIZE SUB DUP2 ADD SWAP1 PUSH2 0xFE SWAP2 SWAP1 PUSH2 0x103A JUMP JUMPDEST PUSH2 0x2E6 JUMP JUMPDEST STOP JUMPDEST PUSH2 0x10D PUSH2 0x5A0 JUMP JUMPDEST PUSH1 0x40 MLOAD PUSH2 0x11A SWAP2 SWAP1 PUSH2 0x1236 JUMP JUMPDEST PUSH1 0x40 MLOAD DUP1 SWAP2 SUB SWAP1 RETURN JUMPDEST PUSH2 0x13D PUSH1 0x4 DUP1 CALLDATASIZE SUB DUP2 ADD SWAP1 PUSH2 0x138 SWAP2 SWAP1 PUSH2 0x103A JUMP JUMPDEST PUSH2 0x679 JUMP JUMPDEST PUSH1 0x40 MLOAD PUSH2 0x14A SWAP2 SWAP1 PUSH2 0xEA0 JUMP JUMPDEST PUSH1 0x40 MLOAD DUP1 SWAP2 SUB SWAP1 RETURN JUMPDEST PUSH2 0x16D PUSH1 0x4 DUP1 CALLDATASIZE SUB DUP2 ADD SWAP1 PUSH2 0x168 SWAP2 SWAP1 PUSH2 0x128E JUMP JUMPDEST PUSH2 0x753 JUMP JUMPDEST PUSH1 0x40 MLOAD PUSH2 0x17A SWAP2 SWAP1 PUSH2 0x1305 JUMP JUMPDEST PUSH1 0x40 MLOAD DUP1 SWAP2 SUB SWAP1 RETURN JUMPDEST PUSH2 0x18B PUSH2 0x7FF JUMP JUMPDEST PUSH1 0x40 MLOAD PUSH2 0x198 SWAP2 SWAP1 PUSH2 0x1336 JUMP JUMPDEST PUSH1 0x40 MLOAD DUP1 SWAP2 SUB SWAP1 RETURN JUMPDEST PUSH2 0x1BB PUSH1 0x4 DUP1 CALLDATASIZE SUB DUP2 ADD SWAP1 PUSH2 0x1B6 SWAP2 SWAP1 PUSH2 0x1351 JUMP JUMPDEST PUSH2 0x805 JUMP JUMPDEST PUSH1 0x40 MLOAD PUSH2 0x1C8 SWAP2 SWAP1 PUSH2 0xEA0 JUMP JUMPDEST PUSH1 0x40 MLOAD DUP1 SWAP2 SUB SWAP1 RETURN JUMPDEST PUSH2 0x1EB PUSH1 0x4 DUP1 CALLDATASIZE SUB DUP2 ADD SWAP1 PUSH2 0x1E6 SWAP2 SWAP1 PUSH2 0xE58 JUMP JUMPDEST PUSH2 0x83B JUMP JUMPDEST STOP JUMPDEST PUSH2 0x207 PUSH1 0x4 DUP1 CALLDATASIZE SUB DUP2 ADD SWAP1 PUSH2 0x202 SWAP2 SWAP1 PUSH2 0x1351 JUMP JUMPDEST PUSH2 0x9FB JUMP JUMPDEST STOP JUMPDEST PUSH2 0x223 PUSH1 0x4 DUP1 CALLDATASIZE SUB DUP2 ADD SWAP1 PUSH2 0x21E SWAP2 SWAP1 PUSH2 0xE58 JUMP JUMPDEST PUSH2 0xB68 JUMP JUMPDEST PUSH1 0x40 MLOAD PUSH2 0x236 SWAP8 SWAP7 SWAP6 SWAP5 SWAP4 SWAP3 SWAP2 SWAP1 PUSH2 0x13A9 JUMP JUMPDEST PUSH1 0x40 MLOAD DUP1 SWAP2 SUB SWAP1 RETURN JUMPDEST PUSH2 0x259 PUSH1 0x4 DUP1 CALLDATASIZE SUB DUP2 ADD SWAP1 PUSH2 0x254 SWAP2 SWAP1 PUSH2 0xE58 JUMP JUMPDEST PUSH2 0xD69 JUMP JUMPDEST PUSH1 0x40 MLOAD PUSH2 0x266 SWAP2 SWAP1 PUSH2 0xEA0 JUMP JUMPDEST PUSH1 0x40 MLOAD DUP1 SWAP2 SUB SWAP1 RETURN JUMPDEST PUSH2 0x277 PUSH2 0xDC2 JUMP JUMPDEST PUSH1 0x40 MLOAD PUSH2 0x284 SWAP2 SWAP1 PUSH2 0x143C JUMP JUMPDEST PUSH1 0x40 MLOAD DUP1 SWAP2 SUB SWAP1 RETURN JUMPDEST PUSH1 0x0 PUSH1 0x2 PUSH1 0x0 DUP4 PUSH20 0xFFFFFFFFFFFFFFFFFFFFFFFFFFFFFFFFFFFFFFFF AND PUSH20 0xFFFFFFFFFFFFFFFFFFFFFFFFFFFFFFFFFFFFFFFF AND DUP2 MSTORE PUSH1 0x20 ADD SWAP1 DUP2 MSTORE PUSH1 0x20 ADD PUSH1 0x0 KECCAK256 PUSH1 0x4 ADD PUSH1 0x1 SWAP1 SLOAD SWAP1 PUSH2 0x100 EXP SWAP1 DIV PUSH1 0xFF AND SWAP1 POP SWAP2 SWAP1 POP JUMP JUMPDEST PUSH1 0x2 PUSH1 0x0 CALLER PUSH20 0xFFFFFFFFFFFFFFFFFFFFFFFFFFFFFFFFFFFFFFFF AND PUSH20 0xFFFFFFFFFFFFFFFFFFFFFFFFFFFFFFFFFFFFFFFF AND DUP2 MSTORE PUSH1 0x20 ADD SWAP1 DUP2 MSTORE PUSH1 0x20 ADD PUSH1 0x0 KECCAK256 PUSH1 0x4 ADD PUSH1 0x0 SWAP1 SLOAD SWAP1 PUSH2 0x100 EXP SWAP1 DIV PUSH1 0xFF AND ISZERO PUSH2 0x376 JUMPI PUSH1 0x40 MLOAD PUSH32 0x8C379A000000000000000000000000000000000000000000000000000000000 DUP2 MSTORE PUSH1 0x4 ADD PUSH2 0x36D SWAP1 PUSH2 0x14A3 JUMP JUMPDEST PUSH1 0x40 MLOAD DUP1 SWAP2 SUB SWAP1 REVERT JUMPDEST PUSH2 0x382 DUP5 DUP5 DUP5 DUP5 PUSH2 0x679 JUMP JUMPDEST PUSH2 0x3C1 JUMPI PUSH1 0x40 MLOAD PUSH32 0x8C379A000000000000000000000000000000000000000000000000000000000 DUP2 MSTORE PUSH1 0x4 ADD PUSH2 0x3B8 SWAP1 PUSH2 0x150F JUMP JUMPDEST PUSH1 0x40 MLOAD DUP1 SWAP2 SUB SWAP1 REVERT JUMPDEST CALLER PUSH20 0xFFFFFFFFFFFFFFFFFFFFFFFFFFFFFFFFFFFFFFFF AND PUSH32 0x73D35F4B5DC2339683083DEC639BA37F0F5592FC26DE0E0603AC5BA2412CD004 PUSH1 0x40 MLOAD PUSH1 0x40 MLOAD DUP1 SWAP2 SUB SWAP1 LOG2 PUSH1 0x1 DUP1 PUSH1 0x0 DUP3 DUP3 SLOAD PUSH2 0x416 SWAP2 SWAP1 PUSH2 0x155E JUMP JUMPDEST SWAP3 POP POP DUP2 SWAP1 SSTORE POP PUSH1 0x40 MLOAD DUP1 PUSH1 0xE0 ADD PUSH1 0x40 MSTORE DUP1 DUP6 DUP2 MSTORE PUSH1 0x20 ADD DUP5 PUSH1 0xFF AND DUP2 MSTORE PUSH1 0x20 ADD DUP4 DUP2 MSTORE PUSH1 0x20 ADD DUP3 DUP2 MSTORE PUSH1 0x20 ADD PUSH1 0x1 ISZERO ISZERO DUP2 MSTORE PUSH1 0x20 ADD PUSH1 0x0 ISZERO ISZERO DUP2 MSTORE PUSH1 0x20 ADD PUSH1 0x1 SLOAD DUP2 MSTORE POP PUSH1 0x2 PUSH1 0x0 CALLER PUSH20 0xFFFFFFFFFFFFFFFFFFFFFFFFFFFFFFFFFFFFFFFF AND PUSH20 0xFFFFFFFFFFFFFFFFFFFFFFFFFFFFFFFFFFFFFFFF AND DUP2 MSTORE PUSH1 0x20 ADD SWAP1 DUP2 MSTORE PUSH1 0x20 ADD PUSH1 0x0 KECCAK256 PUSH1 0x0 DUP3 ADD MLOAD DUP2 PUSH1 0x0 ADD SWAP1 DUP2 PUSH2 0x4AF SWAP2 SWAP1 PUSH2 0x179E JUMP JUMPDEST POP PUSH1 0x20 DUP3 ADD MLOAD DUP2 PUSH1 0x1 ADD PUSH1 0x0 PUSH2 0x100 EXP DUP2 SLOAD DUP2 PUSH1 0xFF MUL NOT AND SWAP1 DUP4 PUSH1 0xFF AND MUL OR SWAP1 SSTORE POP PUSH1 0x40 DUP3 ADD MLOAD DUP2 PUSH1 0x2 ADD SWAP1 DUP2 PUSH2 0x4E6 SWAP2 SWAP1 PUSH2 0x179E JUMP JUMPDEST POP PUSH1 0x60 DUP3 ADD MLOAD DUP2 PUSH1 0x3 ADD SWAP1 DUP2 PUSH2 0x4FC SWAP2 SWAP1 PUSH2 0x179E JUMP JUMPDEST POP PUSH1 0x80 DUP3 ADD MLOAD DUP2 PUSH1 0x4 ADD PUSH1 0x0 PUSH2 0x100 EXP DUP2 SLOAD DUP2 PUSH1 0xFF MUL NOT AND SWAP1 DUP4 ISZERO ISZERO MUL OR SWAP1 SSTORE POP PUSH1 0xA0 DUP3 ADD MLOAD DUP2 PUSH1 0x4 ADD PUSH1 0x1 PUSH2 0x100 EXP DUP2 SLOAD DUP2 PUSH1 0xFF MUL NOT AND SWAP1 DUP4 ISZERO ISZERO MUL OR SWAP1 SSTORE POP PUSH1 0xC0 DUP3 ADD MLOAD DUP2 PUSH1 0x5 ADD SSTORE SWAP1 POP POP CALLER PUSH20 0xFFFFFFFFFFFFFFFFFFFFFFFFFFFFFFFFFFFFFFFF AND PUSH32 0xF16CE2C2236E2C6E3DF646F80D657BCEEF4CD7F3A240C47E82ADFA17A5F47241 PUSH1 0x1 SLOAD PUSH1 0x40 MLOAD PUSH2 0x592 SWAP2 SWAP1 PUSH2 0x1336 JUMP JUMPDEST PUSH1 0x40 MLOAD DUP1 SWAP2 SUB SWAP1 LOG2 POP POP POP POP JUMP JUMPDEST PUSH1 0x60 PUSH1 0x4 DUP1 SLOAD DUP1 PUSH1 0x20 MUL PUSH1 0x20 ADD PUSH1 0x40 MLOAD SWAP1 DUP2 ADD PUSH1 0x40 MSTORE DUP1 SWAP3 SWAP2 SWAP1 DUP2 DUP2 MSTORE PUSH1 0x20 ADD PUSH1 0x0 SWAP1 JUMPDEST DUP3 DUP3 LT ISZERO PUSH2 0x670 JUMPI DUP4 DUP3 SWAP1 PUSH1 0x0 MSTORE PUSH1 0x20 PUSH1 0x0 KECCAK256 ADD DUP1 SLOAD PUSH2 0x5E3 SWAP1 PUSH2 0x15C1 JUMP JUMPDEST DUP1 PUSH1 0x1F ADD PUSH1 0x20 DUP1 SWAP2 DIV MUL PUSH1 0x20 ADD PUSH1 0x40 MLOAD SWAP1 DUP2 ADD PUSH1 0x40 MSTORE DUP1 SWAP3 SWAP2 SWAP1 DUP2 DUP2 MSTORE PUSH1 0x20 ADD DUP3 DUP1 SLOAD PUSH2 0x60F SWAP1 PUSH2 0x15C1 JUMP JUMPDEST DUP1 ISZERO PUSH2 0x65C JUMPI DUP1 PUSH1 0x1F LT PUSH2 0x631 JUMPI PUSH2 0x100 DUP1 DUP4 SLOAD DIV MUL DUP4 MSTORE SWAP2 PUSH1 0x20 ADD SWAP2 PUSH2 0x65C JUMP JUMPDEST DUP3 ADD SWAP2 SWAP1 PUSH1 0x0 MSTORE PUSH1 0x20 PUSH1 0x0 KECCAK256 SWAP1 JUMPDEST DUP2 SLOAD DUP2 MSTORE SWAP1 PUSH1 0x1 ADD SWAP1 PUSH1 0x20 ADD DUP1 DUP4 GT PUSH2 0x63F JUMPI DUP3 SWAP1 SUB PUSH1 0x1F AND DUP3 ADD SWAP2 JUMPDEST POP POP POP POP POP DUP2 MSTORE PUSH1 0x20 ADD SWAP1 PUSH1 0x1 ADD SWAP1 PUSH2 0x5C4 JUMP JUMPDEST POP POP POP POP SWAP1 POP SWAP1 JUMP JUMPDEST PUSH1 0x0 PUSH1 0x12 DUP5 PUSH1 0xFF AND LT ISZERO PUSH2 0x6C2 JUMPI PUSH1 0x40 MLOAD PUSH32 0x8C379A000000000000000000000000000000000000000000000000000000000 DUP2 MSTORE PUSH1 0x4 ADD PUSH2 0x6B9 SWAP1 PUSH2 0x18BC JUMP JUMPDEST PUSH1 0x40 MLOAD DUP1 SWAP2 SUB SWAP1 REVERT JUMPDEST PUSH1 0x40 MLOAD DUP1 PUSH1 0x40 ADD PUSH1 0x40 MSTORE DUP1 PUSH1 0x2 DUP2 MSTORE PUSH1 0x20 ADD PUSH32 0x4155000000000000000000000000000000000000000000000000000000000000 DUP2 MSTORE POP DUP1 MLOAD SWAP1 PUSH1 0x20 ADD KECCAK256 DUP4 DUP1 MLOAD SWAP1 PUSH1 0x20 ADD KECCAK256 EQ PUSH2 0x747 JUMPI PUSH1 0x40 MLOAD PUSH32 0x8C379A000000000000000000000000000000000000000000000000000000000 DUP2 MSTORE PUSH1 0x4 ADD PUSH2 0x73E SWAP1 PUSH2 0x1928 JUMP JUMPDEST PUSH1 0x40 MLOAD DUP1 SWAP2 SUB SWAP1 REVERT JUMPDEST PUSH1 0x1 SWAP1 POP SWAP5 SWAP4 POP POP POP POP JUMP JUMPDEST PUSH1 0x4 DUP2 DUP2 SLOAD DUP2 LT PUSH2 0x763 JUMPI PUSH1 0x0 DUP1 REVERT JUMPDEST SWAP1 PUSH1 0x0 MSTORE PUSH1 0x20 PUSH1 0x0 KECCAK256 ADD PUSH1 0x0 SWAP2 POP SWAP1 POP DUP1 SLOAD PUSH2 0x77E SWAP1 PUSH2 0x15C1 JUMP JUMPDEST DUP1 PUSH1 0x1F ADD PUSH1 0x20 DUP1 SWAP2 DIV MUL PUSH1 0x20 ADD PUSH1 0x40 MLOAD SWAP1 DUP2 ADD PUSH1 0x40 MSTORE DUP1 SWAP3 SWAP2 SWAP1 DUP2 DUP2 MSTORE PUSH1 0x20 ADD DUP3 DUP1 SLOAD PUSH2 0x7AA SWAP1 PUSH2 0x15C1 JUMP JUMPDEST DUP1 ISZERO PUSH2 0x7F7 JUMPI DUP1 PUSH1 0x1F LT PUSH2 0x7CC JUMPI PUSH2 0x100 DUP1 DUP4 SLOAD DIV MUL DUP4 MSTORE SWAP2 PUSH1 0x20 ADD SWAP2 PUSH2 0x7F7 JUMP JUMPDEST DUP3 ADD SWAP2 SWAP1 PUSH1 0x0 MSTORE PUSH1 0x20 PUSH1 0x0 KECCAK256 SWAP1 JUMPDEST DUP2 SLOAD DUP2 MSTORE SWAP1 PUSH1 0x1 ADD SWAP1 PUSH1 0x20 ADD DUP1 DUP4 GT PUSH2 0x7DA JUMPI DUP3 SWAP1 SUB PUSH1 0x1F AND DUP3 ADD SWAP2 JUMPDEST POP POP POP POP POP DUP2 JUMP JUMPDEST PUSH1 0x1 SLOAD DUP2 JUMP JUMPDEST PUSH1 0x3 DUP2 DUP1 MLOAD PUSH1 0x20 DUP2 ADD DUP3 ADD DUP1 MLOAD DUP5 DUP3 MSTORE PUSH1 0x20 DUP4 ADD PUSH1 0x20 DUP6 ADD KECCAK256 DUP2 DUP4 MSTORE DUP1 SWAP6 POP POP POP POP POP POP PUSH1 0x0 SWAP2 POP SLOAD SWAP1 PUSH2 0x100 EXP SWAP1 DIV PUSH1 0xFF AND DUP2 JUMP JUMPDEST PUSH1 0x2 PUSH1 0x0 DUP3 PUSH20 0xFFFFFFFFFFFFFFFFFFFFFFFFFFFFFFFFFFFFFFFF AND PUSH20 0xFFFFFFFFFFFFFFFFFFFFFFFFFFFFFFFFFFFFFFFF AND DUP2 MSTORE PUSH1 0x20 ADD SWAP1 DUP2 MSTORE PUSH1 0x20 ADD PUSH1 0x0 KECCAK256 PUSH1 0x4 ADD PUSH1 0x0 SWAP1 SLOAD SWAP1 PUSH2 0x100 EXP SWAP1 DIV PUSH1 0xFF AND PUSH2 0x8CA JUMPI PUSH1 0x40 MLOAD PUSH32 0x8C379A000000000000000000000000000000000000000000000000000000000 DUP2 MSTORE PUSH1 0x4 ADD PUSH2 0x8C1 SWAP1 PUSH2 0x1994 JUMP JUMPDEST PUSH1 0x40 MLOAD DUP1 SWAP2 SUB SWAP1 REVERT JUMPDEST PUSH1 0x2 PUSH1 0x0 DUP3 PUSH20 0xFFFFFFFFFFFFFFFFFFFFFFFFFFFFFFFFFFFFFFFF AND PUSH20 0xFFFFFFFFFFFFFFFFFFFFFFFFFFFFFFFFFFFFFFFF AND DUP2 MSTORE PUSH1 0x20 ADD SWAP1 DUP2 MSTORE PUSH1 0x20 ADD PUSH1 0x0 KECCAK256 PUSH1 0x4 ADD PUSH1 0x1 SWAP1 SLOAD SWAP1 PUSH2 0x100 EXP SWAP1 DIV PUSH1 0xFF AND ISZERO PUSH2 0x95A JUMPI PUSH1 0x40 MLOAD PUSH32 0x8C379A000000000000000000000000000000000000000000000000000000000 DUP2 MSTORE PUSH1 0x4 ADD PUSH2 0x951 SWAP1 PUSH2 0x1A00 JUMP JUMPDEST PUSH1 0x40 MLOAD DUP1 SWAP2 SUB SWAP1 REVERT JUMPDEST PUSH1 0x1 PUSH1 0x2 PUSH1 0x0 DUP4 PUSH20 0xFFFFFFFFFFFFFFFFFFFFFFFFFFFFFFFFFFFFFFFF AND PUSH20 0xFFFFFFFFFFFFFFFFFFFFFFFFFFFFFFFFFFFFFFFF AND DUP2 MSTORE PUSH1 0x20 ADD SWAP1 DUP2 MSTORE PUSH1 0x20 ADD PUSH1 0x0 KECCAK256 PUSH1 0x4 ADD PUSH1 0x1 PUSH2 0x100 EXP DUP2 SLOAD DUP2 PUSH1 0xFF MUL NOT AND SWAP1 DUP4 ISZERO ISZERO MUL OR SWAP1 SSTORE POP DUP1 PUSH20 0xFFFFFFFFFFFFFFFFFFFFFFFFFFFFFFFFFFFFFFFF AND PUSH32 0xDEE5DF68286DA4AA7B3F15867898379562C81F0812815AD6241CB352D4EA22D PUSH1 0x40 MLOAD PUSH1 0x40 MLOAD DUP1 SWAP2 SUB SWAP1 LOG2 POP JUMP JUMPDEST PUSH1 0x0 DUP2 MLOAD GT PUSH2 0xA3F JUMPI PUSH1 0x40 MLOAD PUSH32 0x8C379A000000000000000000000000000000000000000000000000000000000 DUP2 MSTORE PUSH1 0x4 ADD PUSH2 0xA36 SWAP1 PUSH2 0x1A6C JUMP JUMPDEST PUSH1 0x40 MLOAD DUP1 SWAP2 SUB SWAP1 REVERT JUMPDEST PUSH1 0x3 DUP2 PUSH1 0x40 MLOAD PUSH2 0xA4F SWAP2 SWAP1 PUSH2 0x1AC8 JUMP JUMPDEST SWAP1 DUP2 MSTORE PUSH1 0x20 ADD PUSH1 0x40 MLOAD DUP1 SWAP2 SUB SWAP1 KECCAK256 PUSH1 0x0 SWAP1 SLOAD SWAP1 PUSH2 0x100 EXP SWAP1 DIV PUSH1 0xFF AND ISZERO PUSH2 0xAAB JUMPI PUSH1 0x40 MLOAD PUSH32 0x8C379A000000000000000000000000000000000000000000000000000000000 DUP2 MSTORE PUSH1 0x4 ADD PUSH2 0xAA2 SWAP1 PUSH2 0x1B2B JUMP JUMPDEST PUSH1 0x40 MLOAD DUP1 SWAP2 SUB SWAP1 REVERT JUMPDEST PUSH1 0x1 PUSH1 0x3 DUP3 PUSH1 0x40 MLOAD PUSH2 0xABD SWAP2 SWAP1 PUSH2 0x1AC8 JUMP JUMPDEST SWAP1 DUP2 MSTORE PUSH1 0x20 ADD PUSH1 0x40 MLOAD DUP1 SWAP2 SUB SWAP1 KECCAK256 PUSH1 0x0 PUSH2 0x100 EXP DUP2 SLOAD DUP2 PUSH1 0xFF MUL NOT AND SWAP1 DUP4 ISZERO ISZERO MUL OR SWAP1 SSTORE POP PUSH1 0x4 DUP2 SWAP1 DUP1 PUSH1 0x1 DUP2 SLOAD ADD DUP1 DUP3 SSTORE DUP1 SWAP2 POP POP PUSH1 0x1 SWAP1 SUB SWAP1 PUSH1 0x0 MSTORE PUSH1 0x20 PUSH1 0x0 KECCAK256 ADD PUSH1 0x0 SWAP1 SWAP2 SWAP1 SWAP2 SWAP1 SWAP2 POP SWAP1 DUP2 PUSH2 0xB16 SWAP2 SWAP1 PUSH2 0x179E JUMP JUMPDEST POP CALLER PUSH20 0xFFFFFFFFFFFFFFFFFFFFFFFFFFFFFFFFFFFFFFFF AND PUSH32 0xF7D573E0E0F72259D79708EF22494ECDC00DD3605DE228FF1A79063D7547B7C2 DUP3 PUSH1 0x40 MLOAD PUSH2 0xB5D SWAP2 SWAP1 PUSH2 0x1305 JUMP JUMPDEST PUSH1 0x40 MLOAD DUP1 SWAP2 SUB SWAP1 LOG2 POP JUMP JUMPDEST PUSH1 0x2 PUSH1 0x20 MSTORE DUP1 PUSH1 0x0 MSTORE PUSH1 0x40 PUSH1 0x0 KECCAK256 PUSH1 0x0 SWAP2 POP SWAP1 POP DUP1 PUSH1 0x0 ADD DUP1 SLOAD PUSH2 0xB8B SWAP1 PUSH2 0x15C1 JUMP JUMPDEST DUP1 PUSH1 0x1F ADD PUSH1 0x20 DUP1 SWAP2 DIV MUL PUSH1 0x20 ADD PUSH1 0x40 MLOAD SWAP1 DUP2 ADD PUSH1 0x40 MSTORE DUP1 SWAP3 SWAP2 SWAP1 DUP2 DUP2 MSTORE PUSH1 0x20 ADD DUP3 DUP1 SLOAD PUSH2 0xBB7 SWAP1 PUSH2 0x15C1 JUMP JUMPDEST DUP1 ISZERO PUSH2 0xC04 JUMPI DUP1 PUSH1 0x1F LT PUSH2 0xBD9 JUMPI PUSH2 0x100 DUP1 DUP4 SLOAD DIV MUL DUP4 MSTORE SWAP2 PUSH1 0x20 ADD SWAP2 PUSH2 0xC04 JUMP JUMPDEST DUP3 ADD SWAP2 SWAP1 PUSH1 0x0 MSTORE PUSH1 0x20 PUSH1 0x0 KECCAK256 SWAP1 JUMPDEST DUP2 SLOAD DUP2 MSTORE SWAP1 PUSH1 0x1 ADD SWAP1 PUSH1 0x20 ADD DUP1 DUP4 GT PUSH2 0xBE7 JUMPI DUP3 SWAP1 SUB PUSH1 0x1F AND DUP3 ADD SWAP2 JUMPDEST POP POP POP POP POP SWAP1 DUP1 PUSH1 0x1 ADD PUSH1 0x0 SWAP1 SLOAD SWAP1 PUSH2 0x100 EXP SWAP1 DIV PUSH1 0xFF AND SWAP1 DUP1 PUSH1 0x2 ADD DUP1 SLOAD PUSH2 0xC2C SWAP1 PUSH2 0x15C1 JUMP JUMPDEST DUP1 PUSH1 0x1F ADD PUSH1 0x20 DUP1 SWAP2 DIV MUL PUSH1 0x20 ADD PUSH1 0x40 MLOAD SWAP1 DUP2 ADD PUSH1 0x40 MSTORE DUP1 SWAP3 SWAP2 SWAP1 DUP2 DUP2 MSTORE PUSH1 0x20 ADD DUP3 DUP1 SLOAD PUSH2 0xC58 SWAP1 PUSH2 0x15C1 JUMP JUMPDEST DUP1 ISZERO PUSH2 0xCA5 JUMPI DUP1 PUSH1 0x1F LT PUSH2 0xC7A JUMPI PUSH2 0x100 DUP1 DUP4 SLOAD DIV MUL DUP4 MSTORE SWAP2 PUSH1 0x20 ADD SWAP2 PUSH2 0xCA5 JUMP JUMPDEST DUP3 ADD SWAP2 SWAP1 PUSH1 0x0 MSTORE PUSH1 0x20 PUSH1 0x0 KECCAK256 SWAP1 JUMPDEST DUP2 SLOAD DUP2 MSTORE SWAP1 PUSH1 0x1 ADD SWAP1 PUSH1 0x20 ADD DUP1 DUP4 GT PUSH2 0xC88 JUMPI DUP3 SWAP1 SUB PUSH1 0x1F AND DUP3 ADD SWAP2 JUMPDEST POP POP POP POP POP SWAP1 DUP1 PUSH1 0x3 ADD DUP1 SLOAD PUSH2 0xCBA SWAP1 PUSH2 0x15C1 JUMP JUMPDEST DUP1 PUSH1 0x1F ADD PUSH1 0x20 DUP1 SWAP2 DIV MUL PUSH1 0x20 ADD PUSH1 0x40 MLOAD SWAP1 DUP2 ADD PUSH1 0x40 MSTORE DUP1 SWAP3 SWAP2 SWAP1 DUP2 DUP2 MSTORE PUSH1 0x20 ADD DUP3 DUP1 SLOAD PUSH2 0xCE6 SWAP1 PUSH2 0x15C1 JUMP JUMPDEST DUP1 ISZERO PUSH2 0xD33 JUMPI DUP1 PUSH1 0x1F LT PUSH2 0xD08 JUMPI PUSH2 0x100 DUP1 DUP4 SLOAD DIV MUL DUP4 MSTORE SWAP2 PUSH1 0x20 ADD SWAP2 PUSH2 0xD33 JUMP JUMPDEST DUP3 ADD SWAP2 SWAP1 PUSH1 0x0 MSTORE PUSH1 0x20 PUSH1 0x0 KECCAK256 SWAP1 JUMPDEST DUP2 SLOAD DUP2 MSTORE SWAP1 PUSH1 0x1 ADD SWAP1 PUSH1 0x20 ADD DUP1 DUP4 GT PUSH2 0xD16 JUMPI DUP3 SWAP1 SUB PUSH1 0x1F AND DUP3 ADD SWAP2 JUMPDEST POP POP POP POP POP SWAP1 DUP1 PUSH1 0x4 ADD PUSH1 0x0 SWAP1 SLOAD SWAP1 PUSH2 0x100 EXP SWAP1 DIV PUSH1 0xFF AND SWAP1 DUP1 PUSH1 0x4 ADD PUSH1 0x1 SWAP1 SLOAD SWAP1 PUSH2 0x100 EXP SWAP1 DIV PUSH1 0xFF AND SWAP1 DUP1 PUSH1 0x5 ADD SLOAD SWAP1 POP DUP8 JUMP JUMPDEST PUSH1 0x0 PUSH1 0x2 PUSH1 0x0 DUP4 PUSH20 0xFFFFFFFFFFFFFFFFFFFFFFFFFFFFFFFFFFFFFFFF AND PUSH20 0xFFFFFFFFFFFFFFFFFFFFFFFFFFFFFFFFFFFFFFFF AND DUP2 MSTORE PUSH1 0x20 ADD SWAP1 DUP2 MSTORE PUSH1 0x20 ADD PUSH1 0x0 KECCAK256 PUSH1 0x4 ADD PUSH1 0x0 SWAP1 SLOAD SWAP1 PUSH2 0x100 EXP SWAP1 DIV PUSH1 0xFF AND SWAP1 POP SWAP2 SWAP1 POP JUMP JUMPDEST PUSH1 0x0 DUP1 SLOAD SWAP1 PUSH2 0x100 EXP SWAP1 DIV PUSH20 0xFFFFFFFFFFFFFFFFFFFFFFFFFFFFFFFFFFFFFFFF AND DUP2 JUMP JUMPDEST PUSH1 0x0 PUSH1 0x40 MLOAD SWAP1 POP SWAP1 JUMP JUMPDEST PUSH1 0x0 DUP1 REVERT JUMPDEST PUSH1 0x0 DUP1 REVERT JUMPDEST PUSH1 0x0 PUSH20 0xFFFFFFFFFFFFFFFFFFFFFFFFFFFFFFFFFFFFFFFF DUP3 AND SWAP1 POP SWAP2 SWAP1 POP JUMP JUMPDEST PUSH1 0x0 PUSH2 0xE25 DUP3 PUSH2 0xDFA JUMP JUMPDEST SWAP1 POP SWAP2 SWAP1 POP JUMP JUMPDEST PUSH2 0xE35 DUP2 PUSH2 0xE1A JUMP JUMPDEST DUP2 EQ PUSH2 0xE40 JUMPI PUSH1 0x0 DUP1 REVERT JUMPDEST POP JUMP JUMPDEST PUSH1 0x0 DUP2 CALLDATALOAD SWAP1 POP PUSH2 0xE52 DUP2 PUSH2 0xE2C JUMP JUMPDEST SWAP3 SWAP2 POP POP JUMP JUMPDEST PUSH1 0x0 PUSH1 0x20 DUP3 DUP5 SUB SLT ISZERO PUSH2 0xE6E JUMPI PUSH2 0xE6D PUSH2 0xDF0 JUMP JUMPDEST JUMPDEST PUSH1 0x0 PUSH2 0xE7C DUP5 DUP3 DUP6 ADD PUSH2 0xE43 JUMP JUMPDEST SWAP2 POP POP SWAP3 SWAP2 POP POP JUMP JUMPDEST PUSH1 0x0 DUP2 ISZERO ISZERO SWAP1 POP SWAP2 SWAP1 POP JUMP JUMPDEST PUSH2 0xE9A DUP2 PUSH2 0xE85 JUMP JUMPDEST DUP3 MSTORE POP POP JUMP JUMPDEST PUSH1 0x0 PUSH1 0x20 DUP3 ADD SWAP1 POP PUSH2 0xEB5 PUSH1 0x0 DUP4 ADD DUP5 PUSH2 0xE91 JUMP JUMPDEST SWAP3 SWAP2 POP POP JUMP JUMPDEST PUSH1 0x0 DUP1 REVERT JUMPDEST PUSH1 0x0 DUP1 REVERT JUMPDEST PUSH1 0x0 PUSH1 0x1F NOT PUSH1 0x1F DUP4 ADD AND SWAP1 POP SWAP2 SWAP1 POP JUMP JUMPDEST PUSH32 0x4E487B7100000000000000000000000000000000000000000000000000000000 PUSH1 0x0 MSTORE PUSH1 0x41 PUSH1 0x4 MSTORE PUSH1 0x24 PUSH1 0x0 REVERT JUMPDEST PUSH2 0xF0E DUP3 PUSH2 0xEC5 JUMP JUMPDEST DUP2 ADD DUP2 DUP2 LT PUSH8 0xFFFFFFFFFFFFFFFF DUP3 GT OR ISZERO PUSH2 0xF2D JUMPI PUSH2 0xF2C PUSH2 0xED6 JUMP JUMPDEST JUMPDEST DUP1 PUSH1 0x40 MSTORE POP POP POP JUMP JUMPDEST PUSH1 0x0 PUSH2 0xF40 PUSH2 0xDE6 JUMP JUMPDEST SWAP1 POP PUSH2 0xF4C DUP3 DUP3 PUSH2 0xF05 JUMP JUMPDEST SWAP2 SWAP1 POP JUMP JUMPDEST PUSH1 0x0 PUSH8 0xFFFFFFFFFFFFFFFF DUP3 GT ISZERO PUSH2 0xF6C JUMPI PUSH2 0xF6B PUSH2 0xED6 JUMP JUMPDEST JUMPDEST PUSH2 0xF75 DUP3 PUSH2 0xEC5 JUMP JUMPDEST SWAP1 POP PUSH1 0x20 DUP2 ADD SWAP1 POP SWAP2 SWAP1 POP JUMP JUMPDEST DUP3 DUP2 DUP4 CALLDATACOPY PUSH1 0x0 DUP4 DUP4 ADD MSTORE POP POP POP JUMP JUMPDEST PUSH1 0x0 PUSH2 0xFA4 PUSH2 0xF9F DUP5 PUSH2 0xF51 JUMP JUMPDEST PUSH2 0xF36 JUMP JUMPDEST SWAP1 POP DUP3 DUP2 MSTORE PUSH1 0x20 DUP2 ADD DUP5 DUP5 DUP5 ADD GT ISZERO PUSH2 0xFC0 JUMPI PUSH2 0xFBF PUSH2 0xEC0 JUMP JUMPDEST JUMPDEST PUSH2 0xFCB DUP5 DUP3 DUP6 PUSH2 0xF82 JUMP JUMPDEST POP SWAP4 SWAP3 POP POP POP JUMP JUMPDEST PUSH1 0x0 DUP3 PUSH1 0x1F DUP4 ADD SLT PUSH2 0xFE8 JUMPI PUSH2 0xFE7 PUSH2 0xEBB JUMP JUMPDEST JUMPDEST DUP2 CALLDATALOAD PUSH2 0xFF8 DUP5 DUP3 PUSH1 0x20 DUP7 ADD PUSH2 0xF91 JUMP JUMPDEST SWAP2 POP POP SWAP3 SWAP2 POP POP JUMP JUMPDEST PUSH1 0x0 PUSH1 0xFF DUP3 AND SWAP1 POP SWAP2 SWAP1 POP JUMP JUMPDEST PUSH2 0x1017 DUP2 PUSH2 0x1001 JUMP JUMPDEST DUP2 EQ PUSH2 0x1022 JUMPI PUSH1 0x0 DUP1 REVERT JUMPDEST POP JUMP JUMPDEST PUSH1 0x0 DUP2 CALLDATALOAD SWAP1 POP PUSH2 0x1034 DUP2 PUSH2 0x100E JUMP JUMPDEST SWAP3 SWAP2 POP POP JUMP JUMPDEST PUSH1 0x0 DUP1 PUSH1 0x0 DUP1 PUSH1 0x80 DUP6 DUP8 SUB SLT ISZERO PUSH2 0x1054 JUMPI PUSH2 0x1053 PUSH2 0xDF0 JUMP JUMPDEST JUMPDEST PUSH1 0x0 DUP6 ADD CALLDATALOAD PUSH8 0xFFFFFFFFFFFFFFFF DUP2 GT ISZERO PUSH2 0x1072 JUMPI PUSH2 0x1071 PUSH2 0xDF5 JUMP JUMPDEST JUMPDEST PUSH2 0x107E DUP8 DUP3 DUP9 ADD PUSH2 0xFD3 JUMP JUMPDEST SWAP5 POP POP PUSH1 0x20 PUSH2 0x108F DUP8 DUP3 DUP9 ADD PUSH2 0x1025 JUMP JUMPDEST SWAP4 POP POP PUSH1 0x40 DUP6 ADD CALLDATALOAD PUSH8 0xFFFFFFFFFFFFFFFF DUP2 GT ISZERO PUSH2 0x10B0 JUMPI PUSH2 0x10AF PUSH2 0xDF5 JUMP JUMPDEST JUMPDEST PUSH2 0x10BC DUP8 DUP3 DUP9 ADD PUSH2 0xFD3 JUMP JUMPDEST SWAP3 POP POP PUSH1 0x60 DUP6 ADD CALLDATALOAD PUSH8 0xFFFFFFFFFFFFFFFF DUP2 GT ISZERO PUSH2 0x10DD JUMPI PUSH2 0x10DC PUSH2 0xDF5 JUMP JUMPDEST JUMPDEST PUSH2 0x10E9 DUP8 DUP3 DUP9 ADD PUSH2 0xFD3 JUMP JUMPDEST SWAP2 POP POP SWAP3 SWAP6 SWAP2 SWAP5 POP SWAP3 POP JUMP JUMPDEST PUSH1 0x0 DUP2 MLOAD SWAP1 POP SWAP2 SWAP1 POP JUMP JUMPDEST PUSH1 0x0 DUP3 DUP3 MSTORE PUSH1 0x20 DUP3 ADD SWAP1 POP SWAP3 SWAP2 POP POP JUMP JUMPDEST PUSH1 0x0 DUP2 SWAP1 POP PUSH1 0x20 DUP3 ADD SWAP1 POP SWAP2 SWAP1 POP JUMP JUMPDEST PUSH1 0x0 DUP2 MLOAD SWAP1 POP SWAP2 SWAP1 POP JUMP JUMPDEST PUSH1 0x0 DUP3 DUP3 MSTORE PUSH1 0x20 DUP3 ADD SWAP1 POP SWAP3 SWAP2 POP POP JUMP JUMPDEST PUSH1 0x0 JUMPDEST DUP4 DUP2 LT ISZERO PUSH2 0x115B JUMPI DUP1 DUP3 ADD MLOAD DUP2 DUP5 ADD MSTORE PUSH1 0x20 DUP2 ADD SWAP1 POP PUSH2 0x1140 JUMP JUMPDEST PUSH1 0x0 DUP5 DUP5 ADD MSTORE POP POP POP POP JUMP JUMPDEST PUSH1 0x0 PUSH2 0x1172 DUP3 PUSH2 0x1121 JUMP JUMPDEST PUSH2 0x117C DUP2 DUP6 PUSH2 0x112C JUMP JUMPDEST SWAP4 POP PUSH2 0x118C DUP2 DUP6 PUSH1 0x20 DUP7 ADD PUSH2 0x113D JUMP JUMPDEST PUSH2 0x1195 DUP2 PUSH2 0xEC5 JUMP JUMPDEST DUP5 ADD SWAP2 POP POP SWAP3 SWAP2 POP POP JUMP JUMPDEST PUSH1 0x0 PUSH2 0x11AC DUP4 DUP4 PUSH2 0x1167 JUMP JUMPDEST SWAP1 POP SWAP3 SWAP2 POP POP JUMP JUMPDEST PUSH1 0x0 PUSH1 0x20 DUP3 ADD SWAP1 POP SWAP2 SWAP1 POP JUMP JUMPDEST PUSH1 0x0 PUSH2 0x11CC DUP3 PUSH2 0x10F5 JUMP JUMPDEST PUSH2 0x11D6 DUP2 DUP6 PUSH2 0x1100 JUMP JUMPDEST SWAP4 POP DUP4 PUSH1 0x20 DUP3 MUL DUP6 ADD PUSH2 0x11E8 DUP6 PUSH2 0x1111 JUMP JUMPDEST DUP1 PUSH1 0x0 JUMPDEST DUP6 DUP2 LT ISZERO PUSH2 0x1224 JUMPI DUP5 DUP5 SUB DUP10 MSTORE DUP2 MLOAD PUSH2 0x1205 DUP6 DUP3 PUSH2 0x11A0 JUMP JUMPDEST SWAP5 POP PUSH2 0x1210 DUP4 PUSH2 0x11B4 JUMP JUMPDEST SWAP3 POP PUSH1 0x20 DUP11 ADD SWAP10 POP POP PUSH1 0x1 DUP2 ADD SWAP1 POP PUSH2 0x11EC JUMP JUMPDEST POP DUP3 SWAP8 POP DUP8 SWAP6 POP POP POP POP POP POP SWAP3 SWAP2 POP POP JUMP JUMPDEST PUSH1 0x0 PUSH1 0x20 DUP3 ADD SWAP1 POP DUP2 DUP2 SUB PUSH1 0x0 DUP4 ADD MSTORE PUSH2 0x1250 DUP2 DUP5 PUSH2 0x11C1 JUMP JUMPDEST SWAP1 POP SWAP3 SWAP2 POP POP JUMP JUMPDEST PUSH1 0x0 DUP2 SWAP1 POP SWAP2 SWAP1 POP JUMP JUMPDEST PUSH2 0x126B DUP2 PUSH2 0x1258 JUMP JUMPDEST DUP2 EQ PUSH2 0x1276 JUMPI PUSH1 0x0 DUP1 REVERT JUMPDEST POP JUMP JUMPDEST PUSH1 0x0 DUP2 CALLDATALOAD SWAP1 POP PUSH2 0x1288 DUP2 PUSH2 0x1262 JUMP JUMPDEST SWAP3 SWAP2 POP POP JUMP JUMPDEST PUSH1 0x0 PUSH1 0x20 DUP3 DUP5 SUB SLT ISZERO PUSH2 0x12A4 JUMPI PUSH2 0x12A3 PUSH2 0xDF0 JUMP JUMPDEST JUMPDEST PUSH1 0x0 PUSH2 0x12B2 DUP5 DUP3 DUP6 ADD PUSH2 0x1279 JUMP JUMPDEST SWAP2 POP POP SWAP3 SWAP2 POP POP JUMP JUMPDEST PUSH1 0x0 DUP3 DUP3 MSTORE PUSH1 0x20 DUP3 ADD SWAP1 POP SWAP3 SWAP2 POP POP JUMP JUMPDEST PUSH1 0x0 PUSH2 0x12D7 DUP3 PUSH2 0x1121 JUMP JUMPDEST PUSH2 0x12E1 DUP2 DUP6 PUSH2 0x12BB JUMP JUMPDEST SWAP4 POP PUSH2 0x12F1 DUP2 DUP6 PUSH1 0x20 DUP7 ADD PUSH2 0x113D JUMP JUMPDEST PUSH2 0x12FA DUP2 PUSH2 0xEC5 JUMP JUMPDEST DUP5 ADD SWAP2 POP POP SWAP3 SWAP2 POP POP JUMP JUMPDEST PUSH1 0x0 PUSH1 0x20 DUP3 ADD SWAP1 POP DUP2 DUP2 SUB PUSH1 0x0 DUP4 ADD MSTORE PUSH2 0x131F DUP2 DUP5 PUSH2 0x12CC JUMP JUMPDEST SWAP1 POP SWAP3 SWAP2 POP POP JUMP JUMPDEST PUSH2 0x1330 DUP2 PUSH2 0x1258 JUMP JUMPDEST DUP3 MSTORE POP POP JUMP JUMPDEST PUSH1 0x0 PUSH1 0x20 DUP3 ADD SWAP1 POP PUSH2 0x134B PUSH1 0x0 DUP4 ADD DUP5 PUSH2 0x1327 JUMP JUMPDEST SWAP3 SWAP2 POP POP JUMP JUMPDEST PUSH1 0x0 PUSH1 0x20 DUP3 DUP5 SUB SLT ISZERO PUSH2 0x1367 JUMPI PUSH2 0x1366 PUSH2 0xDF0 JUMP JUMPDEST JUMPDEST PUSH1 0x0 DUP3 ADD CALLDATALOAD PUSH8 0xFFFFFFFFFFFFFFFF DUP2 GT ISZERO PUSH2 0x1385 JUMPI PUSH2 0x1384 PUSH2 0xDF5 JUMP JUMPDEST JUMPDEST PUSH2 0x1391 DUP5 DUP3 DUP6 ADD PUSH2 0xFD3 JUMP JUMPDEST SWAP2 POP POP SWAP3 SWAP2 POP POP JUMP JUMPDEST PUSH2 0x13A3 DUP2 PUSH2 0x1001 JUMP JUMPDEST DUP3 MSTORE POP POP JUMP JUMPDEST PUSH1 0x0 PUSH1 0xE0 DUP3 ADD SWAP1 POP DUP2 DUP2 SUB PUSH1 0x0 DUP4 ADD MSTORE PUSH2 0x13C3 DUP2 DUP11 PUSH2 0x12CC JUMP JUMPDEST SWAP1 POP PUSH2 0x13D2 PUSH1 0x20 DUP4 ADD DUP10 PUSH2 0x139A JUMP JUMPDEST DUP2 DUP2 SUB PUSH1 0x40 DUP4 ADD MSTORE PUSH2 0x13E4 DUP2 DUP9 PUSH2 0x12CC JUMP JUMPDEST SWAP1 POP DUP2 DUP2 SUB PUSH1 0x60 DUP4 ADD MSTORE PUSH2 0x13F8 DUP2 DUP8 PUSH2 0x12CC JUMP JUMPDEST SWAP1 POP PUSH2 0x1407 PUSH1 0x80 DUP4 ADD DUP7 PUSH2 0xE91 JUMP JUMPDEST PUSH2 0x1414 PUSH1 0xA0 DUP4 ADD DUP6 PUSH2 0xE91 JUMP JUMPDEST PUSH2 0x1421 PUSH1 0xC0 DUP4 ADD DUP5 PUSH2 0x1327 JUMP JUMPDEST SWAP9 SWAP8 POP POP POP POP POP POP POP POP JUMP JUMPDEST PUSH2 0x1436 DUP2 PUSH2 0xE1A JUMP JUMPDEST DUP3 MSTORE POP POP JUMP JUMPDEST PUSH1 0x0 PUSH1 0x20 DUP3 ADD SWAP1 POP PUSH2 0x1451 PUSH1 0x0 DUP4 ADD DUP5 PUSH2 0x142D JUMP JUMPDEST SWAP3 SWAP2 POP POP JUMP JUMPDEST PUSH32 0x416C726561647920726567697374657265640000000000000000000000000000 PUSH1 0x0 DUP3 ADD MSTORE POP JUMP JUMPDEST PUSH1 0x0 PUSH2 0x148D PUSH1 0x12 DUP4 PUSH2 0x12BB JUMP JUMPDEST SWAP2 POP PUSH2 0x1498 DUP3 PUSH2 0x1457 JUMP JUMPDEST PUSH1 0x20 DUP3 ADD SWAP1 POP SWAP2 SWAP1 POP JUMP JUMPDEST PUSH1 0x0 PUSH1 0x20 DUP3 ADD SWAP1 POP DUP2 DUP2 SUB PUSH1 0x0 DUP4 ADD MSTORE PUSH2 0x14BC DUP2 PUSH2 0x1480 JUMP JUMPDEST SWAP1 POP SWAP2 SWAP1 POP JUMP JUMPDEST PUSH32 0x566572696669636174696F6E206661696C656400000000000000000000000000 PUSH1 0x0 DUP3 ADD MSTORE POP JUMP JUMPDEST PUSH1 0x0 PUSH2 0x14F9 PUSH1 0x13 DUP4 PUSH2 0x12BB JUMP JUMPDEST SWAP2 POP PUSH2 0x1504 DUP3 PUSH2 0x14C3 JUMP JUMPDEST PUSH1 0x20 DUP3 ADD SWAP1 POP SWAP2 SWAP1 POP JUMP JUMPDEST PUSH1 0x0 PUSH1 0x20 DUP3 ADD SWAP1 POP DUP2 DUP2 SUB PUSH1 0x0 DUP4 ADD MSTORE PUSH2 0x1528 DUP2 PUSH2 0x14EC JUMP JUMPDEST SWAP1 POP SWAP2 SWAP1 POP JUMP JUMPDEST PUSH32 0x4E487B7100000000000000000000000000000000000000000000000000000000 PUSH1 0x0 MSTORE PUSH1 0x11 PUSH1 0x4 MSTORE PUSH1 0x24 PUSH1 0x0 REVERT JUMPDEST PUSH1 0x0 PUSH2 0x1569 DUP3 PUSH2 0x1258 JUMP JUMPDEST SWAP2 POP PUSH2 0x1574 DUP4 PUSH2 0x1258 JUMP JUMPDEST SWAP3 POP DUP3 DUP3 ADD SWAP1 POP DUP1 DUP3 GT ISZERO PUSH2 0x158C JUMPI PUSH2 0x158B PUSH2 0x152F JUMP JUMPDEST JUMPDEST SWAP3 SWAP2 POP POP JUMP JUMPDEST PUSH32 0x4E487B7100000000000000000000000000000000000000000000000000000000 PUSH1 0x0 MSTORE PUSH1 0x22 PUSH1 0x4 MSTORE PUSH1 0x24 PUSH1 0x0 REVERT JUMPDEST PUSH1 0x0 PUSH1 0x2 DUP3 DIV SWAP1 POP PUSH1 0x1 DUP3 AND DUP1 PUSH2 0x15D9 JUMPI PUSH1 0x7F DUP3 AND SWAP2 POP JUMPDEST PUSH1 0x20 DUP3 LT DUP2 SUB PUSH2 0x15EC JUMPI PUSH2 0x15EB PUSH2 0x1592 JUMP JUMPDEST JUMPDEST POP SWAP2 SWAP1 POP JUMP JUMPDEST PUSH1 0x0 DUP2 SWAP1 POP DUP2 PUSH1 0x0 MSTORE PUSH1 0x20 PUSH1 0x0 KECCAK256 SWAP1 POP SWAP2 SWAP1 POP JUMP JUMPDEST PUSH1 0x0 PUSH1 0x20 PUSH1 0x1F DUP4 ADD DIV SWAP1 POP SWAP2 SWAP1 POP JUMP JUMPDEST PUSH1 0x0 DUP3 DUP3 SHL SWAP1 POP SWAP3 SWAP2 POP POP JUMP JUMPDEST PUSH1 0x0 PUSH1 0x8 DUP4 MUL PUSH2 0x1654 PUSH32 0xFFFFFFFFFFFFFFFFFFFFFFFFFFFFFFFFFFFFFFFFFFFFFFFFFFFFFFFFFFFFFFFF DUP3 PUSH2 0x1617 JUMP JUMPDEST PUSH2 0x165E DUP7 DUP4 PUSH2 0x1617 JUMP JUMPDEST SWAP6 POP DUP1 NOT DUP5 AND SWAP4 POP DUP1 DUP7 AND DUP5 OR SWAP3 POP POP POP SWAP4 SWAP3 POP POP POP JUMP JUMPDEST PUSH1 0x0 DUP2 SWAP1 POP SWAP2 SWAP1 POP JUMP JUMPDEST PUSH1 0x0 PUSH2 0x169B PUSH2 0x1696 PUSH2 0x1691 DUP5 PUSH2 0x1258 JUMP JUMPDEST PUSH2 0x1676 JUMP JUMPDEST PUSH2 0x1258 JUMP JUMPDEST SWAP1 POP SWAP2 SWAP1 POP JUMP JUMPDEST PUSH1 0x0 DUP2 SWAP1 POP SWAP2 SWAP1 POP JUMP JUMPDEST PUSH2 0x16B5 DUP4 PUSH2 0x1680 JUMP JUMPDEST PUSH2 0x16C9 PUSH2 0x16C1 DUP3 PUSH2 0x16A2 JUMP JUMPDEST DUP5 DUP5 SLOAD PUSH2 0x1624 JUMP JUMPDEST DUP3 SSTORE POP POP POP POP JUMP JUMPDEST PUSH1 0x0 SWAP1 JUMP JUMPDEST PUSH2 0x16DE PUSH2 0x16D1 JUMP JUMPDEST PUSH2 0x16E9 DUP2 DUP5 DUP5 PUSH2 0x16AC JUMP JUMPDEST POP POP POP JUMP JUMPDEST JUMPDEST DUP2 DUP2 LT ISZERO PUSH2 0x170D JUMPI PUSH2 0x1702 PUSH1 0x0 DUP3 PUSH2 0x16D6 JUMP JUMPDEST PUSH1 0x1 DUP2 ADD SWAP1 POP PUSH2 0x16EF JUMP JUMPDEST POP POP JUMP JUMPDEST PUSH1 0x1F DUP3 GT ISZERO PUSH2 0x1752 JUMPI PUSH2 0x1723 DUP2 PUSH2 0x15F2 JUMP JUMPDEST PUSH2 0x172C DUP5 PUSH2 0x1607 JUMP JUMPDEST DUP2 ADD PUSH1 0x20 DUP6 LT ISZERO PUSH2 0x173B JUMPI DUP2 SWAP1 POP JUMPDEST PUSH2 0x174F PUSH2 0x1747 DUP6 PUSH2 0x1607 JUMP JUMPDEST DUP4 ADD DUP3 PUSH2 0x16EE JUMP JUMPDEST POP POP JUMPDEST POP POP POP JUMP JUMPDEST PUSH1 0x0 DUP3 DUP3 SHR SWAP1 POP SWAP3 SWAP2 POP POP JUMP JUMPDEST PUSH1 0x0 PUSH2 0x1775 PUSH1 0x0 NOT DUP5 PUSH1 0x8 MUL PUSH2 0x1757 JUMP JUMPDEST NOT DUP1 DUP4 AND SWAP2 POP POP SWAP3 SWAP2 POP POP JUMP JUMPDEST PUSH1 0x0 PUSH2 0x178E DUP4 DUP4 PUSH2 0x1764 JUMP JUMPDEST SWAP2 POP DUP3 PUSH1 0x2 MUL DUP3 OR SWAP1 POP SWAP3 SWAP2 POP POP JUMP JUMPDEST PUSH2 0x17A7 DUP3 PUSH2 0x1121 JUMP JUMPDEST PUSH8 0xFFFFFFFFFFFFFFFF DUP2 GT ISZERO PUSH2 0x17C0 JUMPI PUSH2 0x17BF PUSH2 0xED6 JUMP JUMPDEST JUMPDEST PUSH2 0x17CA DUP3 SLOAD PUSH2 0x15C1 JUMP JUMPDEST PUSH2 0x17D5 DUP3 DUP3 DUP6 PUSH2 0x1711 JUMP JUMPDEST PUSH1 0x0 PUSH1 0x20 SWAP1 POP PUSH1 0x1F DUP4 GT PUSH1 0x1 DUP2 EQ PUSH2 0x1808 JUMPI PUSH1 0x0 DUP5 ISZERO PUSH2 0x17F6 JUMPI DUP3 DUP8 ADD MLOAD SWAP1 POP JUMPDEST PUSH2 0x1800 DUP6 DUP3 PUSH2 0x1782 JUMP JUMPDEST DUP7 SSTORE POP PUSH2 0x1868 JUMP JUMPDEST PUSH1 0x1F NOT DUP5 AND PUSH2 0x1816 DUP7 PUSH2 0x15F2 JUMP JUMPDEST PUSH1 0x0 JUMPDEST DUP3 DUP2 LT ISZERO PUSH2 0x183E JUMPI DUP5 DUP10 ADD MLOAD DUP3 SSTORE PUSH1 0x1 DUP3 ADD SWAP2 POP PUSH1 0x20 DUP6 ADD SWAP5 POP PUSH1 0x20 DUP2 ADD SWAP1 POP PUSH2 0x1819 JUMP JUMPDEST DUP7 DUP4 LT ISZERO PUSH2 0x185B JUMPI DUP5 DUP10 ADD MLOAD PUSH2 0x1857 PUSH1 0x1F DUP10 AND DUP3 PUSH2 0x1764 JUMP JUMPDEST DUP4 SSTORE POP JUMPDEST PUSH1 0x1 PUSH1 0x2 DUP9 MUL ADD DUP9 SSTORE POP POP POP JUMPDEST POP POP POP POP POP POP JUMP JUMPDEST PUSH32 0x4D757374206265206174206C6561737420313800000000000000000000000000 PUSH1 0x0 DUP3 ADD MSTORE POP JUMP JUMPDEST PUSH1 0x0 PUSH2 0x18A6 PUSH1 0x13 DUP4 PUSH2 0x12BB JUMP JUMPDEST SWAP2 POP PUSH2 0x18B1 DUP3 PUSH2 0x1870 JUMP JUMPDEST PUSH1 0x20 DUP3 ADD SWAP1 POP SWAP2 SWAP1 POP JUMP JUMPDEST PUSH1 0x0 PUSH1 0x20 DUP3 ADD SWAP1 POP DUP2 DUP2 SUB PUSH1 0x0 DUP4 ADD MSTORE PUSH2 0x18D5 DUP2 PUSH2 0x1899 JUMP JUMPDEST SWAP1 POP SWAP2 SWAP1 POP JUMP JUMPDEST PUSH32 0x4D757374206265204175737472616C69616E20636974697A656E000000000000 PUSH1 0x0 DUP3 ADD MSTORE POP JUMP JUMPDEST PUSH1 0x0 PUSH2 0x1912 PUSH1 0x1A DUP4 PUSH2 0x12BB JUMP JUMPDEST SWAP2 POP PUSH2 0x191D DUP3 PUSH2 0x18DC JUMP JUMPDEST PUSH1 0x20 DUP3 ADD SWAP1 POP SWAP2 SWAP1 POP JUMP JUMPDEST PUSH1 0x0 PUSH1 0x20 DUP3 ADD SWAP1 POP DUP2 DUP2 SUB PUSH1 0x0 DUP4 ADD MSTORE PUSH2 0x1941 DUP2 PUSH2 0x1905 JUMP JUMPDEST SWAP1 POP SWAP2 SWAP1 POP JUMP JUMPDEST PUSH32 0x4E6F742072656769737465726564000000000000000000000000000000000000 PUSH1 0x0 DUP3 ADD MSTORE POP JUMP JUMPDEST PUSH1 0x0 PUSH2 0x197E PUSH1 0xE DUP4 PUSH2 0x12BB JUMP JUMPDEST SWAP2 POP PUSH2 0x1989 DUP3 PUSH2 0x1948 JUMP JUMPDEST PUSH1 0x20 DUP3 ADD SWAP1 POP SWAP2 SWAP1 POP JUMP JUMPDEST PUSH1 0x0 PUSH1 0x20 DUP3 ADD SWAP1 POP DUP2 DUP2 SUB PUSH1 0x0 DUP4 ADD MSTORE PUSH2 0x19AD DUP2 PUSH2 0x1971 JUMP JUMPDEST SWAP1 POP SWAP2 SWAP1 POP JUMP JUMPDEST PUSH32 0x416C726561647920766F74656400000000000000000000000000000000000000 PUSH1 0x0 DUP3 ADD MSTORE POP JUMP JUMPDEST PUSH1 0x0 PUSH2 0x19EA PUSH1 0xD DUP4 PUSH2 0x12BB JUMP JUMPDEST SWAP2 POP PUSH2 0x19F5 DUP3 PUSH2 0x19B4 JUMP JUMPDEST PUSH1 0x20 DUP3 ADD SWAP1 POP SWAP2 SWAP1 POP JUMP JUMPDEST PUSH1 0x0 PUSH1 0x20 DUP3 ADD SWAP1 POP DUP2 DUP2 SUB PUSH1 0x0 DUP4 ADD MSTORE PUSH2 0x1A19 DUP2 PUSH2 0x19DD JUMP JUMPDEST SWAP1 POP SWAP2 SWAP1 POP JUMP JUMPDEST PUSH32 0x4E616D652063616E6E6F7420626520656D707479000000000000000000000000 PUSH1 0x0 DUP3 ADD MSTORE POP JUMP JUMPDEST PUSH1 0x0 PUSH2 0x1A56 PUSH1 0x14 DUP4 PUSH2 0x12BB JUMP JUMPDEST SWAP2 POP PUSH2 0x1A61 DUP3 PUSH2 0x1A20 JUMP JUMPDEST PUSH1 0x20 DUP3 ADD SWAP1 POP SWAP2 SWAP1 POP JUMP JUMPDEST PUSH1 0x0 PUSH1 0x20 DUP3 ADD SWAP1 POP DUP2 DUP2 SUB PUSH1 0x0 DUP4 ADD MSTORE PUSH2 0x1A85 DUP2 PUSH2 0x1A49 JUMP JUMPDEST SWAP1 POP SWAP2 SWAP1 POP JUMP JUMPDEST PUSH1 0x0 DUP2 SWAP1 POP SWAP3 SWAP2 POP POP JUMP JUMPDEST PUSH1 0x0 PUSH2 0x1AA2 DUP3 PUSH2 0x1121 JUMP JUMPDEST PUSH2 0x1AAC DUP2 DUP6 PUSH2 0x1A8C JUMP JUMPDEST SWAP4 POP PUSH2 0x1ABC DUP2 DUP6 PUSH1 0x20 DUP7 ADD PUSH2 0x113D JUMP JUMPDEST DUP1 DUP5 ADD SWAP2 POP POP SWAP3 SWAP2 POP POP JUMP JUMPDEST PUSH1 0x0 PUSH2 0x1AD4 DUP3 DUP5 PUSH2 0x1A97 JUMP JUMPDEST SWAP2 POP DUP2 SWAP1 POP SWAP3 SWAP2 POP POP JUMP JUMPDEST PUSH32 0x43616E64696461746520616C7265616479207265676973746572656400000000 PUSH1 0x0 DUP3 ADD MSTORE POP JUMP JUMPDEST PUSH1 0x0 PUSH2 0x1B15 PUSH1 0x1C DUP4 PUSH2 0x12BB JUMP JUMPDEST SWAP2 POP PUSH2 0x1B20 DUP3 PUSH2 0x1ADF JUMP JUMPDEST PUSH1 0x20 DUP3 ADD SWAP1 POP SWAP2 SWAP1 POP JUMP JUMPDEST PUSH1 0x0 PUSH1 0x20 DUP3 ADD SWAP1 POP DUP2 DUP2 SUB PUSH1 0x0 DUP4 ADD MSTORE PUSH2 0x1B44 DUP2 PUSH2 0x1B08 JUMP JUMPDEST SWAP1 POP SWAP2 SWAP1 POP JUMP INVALID LOG2 PUSH5 0x6970667358 0x22 SLT KECCAK256 PUSH18 0x3772E570F47BF6B54B75BAF361D4A3859DAE 0x27 0x5F ISZERO NOT SDIV PUSH5 0xB822E0BC4B SWAP13 SHL PUSH5 0x736F6C6343 STOP ADDMOD SLT STOP CALLER "
		},
		"gasEstimates": {
			"creation": {
				"codeDepositCost": "1408200",
				"executionCost": "30752",
				"totalCost": "1438952"
			},
			"external": {
				"admin()": "2621",
				"candidates(uint256)": "infinite",
				"getAllCandidates()": "infinite",
				"hasVoted(address)": "2940",
				"isCandidateRegistered(string)": "infinite",
				"isRegistered(address)": "2977",
				"registerCandidate(string)": "infinite",
				"registerVoter(string,uint8,string,string)": "infinite",
				"setHasVoted(address)": "30602",
				"verifyIdentity(string,uint8,string,string)": "infinite",
				"voterCount()": "2540",
				"voters(address)": "infinite"
			}
		},
		"methodIdentifiers": {
			"admin()": "f851a440",
			"candidates(uint256)": "3477ee2e",
			"getAllCandidates()": "2e6997fe",
			"hasVoted(address)": "09eef43e",
			"isCandidateRegistered(string)": "565e802a",
			"isRegistered(address)": "c3c5a547",
			"registerCandidate(string)": "9eb88db6",
			"registerVoter(string,uint8,string,string)": "2d7315d4",
			"setHasVoted(address)": "995278a3",
			"verifyIdentity(string,uint8,string,string)": "33819253",
			"voterCount()": "42169e48",
			"voters(address)": "a3ec138d"
		}
	},
	"abi": [
		{
			"inputs": [],
			"stateMutability": "nonpayable",
			"type": "constructor"
		},
		{
			"anonymous": false,
			"inputs": [
				{
					"indexed": true,
					"internalType": "address",
					"name": "candidate",
					"type": "address"
				},
				{
					"indexed": false,
					"internalType": "string",
					"name": "name",
					"type": "string"
				}
			],
			"name": "CandidateRegistered",
			"type": "event"
		},
		{
			"anonymous": false,
			"inputs": [
				{
					"indexed": true,
					"internalType": "address",
					"name": "voter",
					"type": "address"
				}
			],
			"name": "VoteStatusUpdated",
			"type": "event"
		},
		{
			"anonymous": false,
			"inputs": [
				{
					"indexed": true,
					"internalType": "address",
					"name": "voter",
					"type": "address"
				},
				{
					"indexed": false,
					"internalType": "uint256",
					"name": "voterId",
					"type": "uint256"
				}
			],
			"name": "VoterRegistered",
			"type": "event"
		},
		{
			"anonymous": false,
			"inputs": [
				{
					"indexed": true,
					"internalType": "address",
					"name": "voter",
					"type": "address"
				}
			],
			"name": "VoterVerified",
			"type": "event"
		},
		{
			"inputs": [],
			"name": "admin",
			"outputs": [
				{
					"internalType": "address",
					"name": "",
					"type": "address"
				}
			],
			"stateMutability": "view",
			"type": "function"
		},
		{
			"inputs": [
				{
					"internalType": "uint256",
					"name": "",
					"type": "uint256"
				}
			],
			"name": "candidates",
			"outputs": [
				{
					"internalType": "string",
					"name": "",
					"type": "string"
				}
			],
			"stateMutability": "view",
			"type": "function"
		},
		{
			"inputs": [],
			"name": "getAllCandidates",
			"outputs": [
				{
					"internalType": "string[]",
					"name": "",
					"type": "string[]"
				}
			],
			"stateMutability": "view",
			"type": "function"
		},
		{
			"inputs": [
				{
					"internalType": "address",
					"name": "_voter",
					"type": "address"
				}
			],
			"name": "hasVoted",
			"outputs": [
				{
					"internalType": "bool",
					"name": "",
					"type": "bool"
				}
			],
			"stateMutability": "view",
			"type": "function"
		},
		{
			"inputs": [
				{
					"internalType": "string",
					"name": "",
					"type": "string"
				}
			],
			"name": "isCandidateRegistered",
			"outputs": [
				{
					"internalType": "bool",
					"name": "",
					"type": "bool"
				}
			],
			"stateMutability": "view",
			"type": "function"
		},
		{
			"inputs": [
				{
					"internalType": "address",
					"name": "_voter",
					"type": "address"
				}
			],
			"name": "isRegistered",
			"outputs": [
				{
					"internalType": "bool",
					"name": "",
					"type": "bool"
				}
			],
			"stateMutability": "view",
			"type": "function"
		},
		{
			"inputs": [
				{
					"internalType": "string",
					"name": "_name",
					"type": "string"
				}
			],
			"name": "registerCandidate",
			"outputs": [],
			"stateMutability": "nonpayable",
			"type": "function"
		},
		{
			"inputs": [
				{
					"internalType": "string",
					"name": "_name",
					"type": "string"
				},
				{
					"internalType": "uint8",
					"name": "_age",
					"type": "uint8"
				},
				{
					"internalType": "string",
					"name": "_citizenship",
					"type": "string"
				},
				{
					"internalType": "string",
					"name": "_residence",
					"type": "string"
				}
			],
			"name": "registerVoter",
			"outputs": [],
			"stateMutability": "nonpayable",
			"type": "function"
		},
		{
			"inputs": [
				{
					"internalType": "address",
					"name": "_voter",
					"type": "address"
				}
			],
			"name": "setHasVoted",
			"outputs": [],
			"stateMutability": "nonpayable",
			"type": "function"
		},
		{
			"inputs": [
				{
					"internalType": "string",
					"name": "_name",
					"type": "string"
				},
				{
					"internalType": "uint8",
					"name": "_age",
					"type": "uint8"
				},
				{
					"internalType": "string",
					"name": "_citizenship",
					"type": "string"
				},
				{
					"internalType": "string",
					"name": "_residence",
					"type": "string"
				}
			],
			"name": "verifyIdentity",
			"outputs": [
				{
					"internalType": "bool",
					"name": "",
					"type": "bool"
				}
			],
			"stateMutability": "pure",
			"type": "function"
		},
		{
			"inputs": [],
			"name": "voterCount",
			"outputs": [
				{
					"internalType": "uint256",
					"name": "",
					"type": "uint256"
				}
			],
			"stateMutability": "view",
			"type": "function"
		},
		{
			"inputs": [
				{
					"internalType": "address",
					"name": "",
					"type": "address"
				}
			],
			"name": "voters",
			"outputs": [
				{
					"internalType": "string",
					"name": "name",
					"type": "string"
				},
				{
					"internalType": "uint8",
					"name": "age",
					"type": "uint8"
				},
				{
					"internalType": "string",
					"name": "citizenship",
					"type": "string"
				},
				{
					"internalType": "string",
					"name": "residence",
					"type": "string"
				},
				{
					"internalType": "bool",
					"name": "isRegistered",
					"type": "bool"
				},
				{
					"internalType": "bool",
					"name": "hasVoted",
					"type": "bool"
				},
				{
					"internalType": "uint256",
					"name": "voterId",
					"type": "uint256"
				}
			],
			"stateMutability": "view",
			"type": "function"
		}
	]
}